:020000040800F2
:10000000981F0020010100080D680008FB5A000835
:100010005D670008C1030008A1B2000800000000ED
:1000200000000000000000000000000091920008A5
:10003000FD4D0008000000001573000879A60008B7
:10004000170100081701000817010008757D000856
:100050001701000817010008170100081701000820
:100060001701000817010008170100081701000810
:100070001701000817010008170100081701000800
:1000800017010008170100081701000817010008F0
:10009000CDB000081701000817010008170100087B
:1000A00017010008170100081701000817010008D0
:1000B00017010008E1A60008170100081701000851
:1000C00017010008170100081701000817010008B0
:1000D0001701000885AA000817010008E9AC00080C
:1000E000170100081701000817010008DFF80CD0FD
:1000F00000F046F80048004755C00008981F00204F
:1001000005480047FEE7FEE7FEE7FEE7FEE7FEE7FD
:10011000FEE7FEE7FEE7FEE7ED00000840EA010328
:100120009B070AD102E008C9121F08C0042AFAD2AC
:1001300003E011F8013B00F8013B521EF9D2704771
:10014000D2B201E000F8012B491EFBD27047002219
:10015000F6E710B504460846114602462046FFF76A
:10016000EFFF204610BD30B504460020034600E0F6
:100170005B1C934203D2E05CCD5C401BF8D030BDE9
:10018000064C074D06E0E06840F0010394E80700E4
:1001900098471034AC42F6D3FFF7ACFF7CCA000896
:1001A000ACCA000870B501EB020410F8015B15F051
:1001B000070301D110F8013B2A1106D110F8012BD9
:1001C00003E010F8016B01F8016B5B1EF9D12B07FE
:1001D00006D4002301E001F8013B521EFBD50CE0E0
:1001E00010F8013B02F10202A1EB030303E013F854
:1001F000015B01F8015B521EF9D5A142D5D3002065
:1002000070BD40F2353CC2F2000C60472DE9F04170
:1002100000260027B0466321232007F0FFFC3F2182
:10022000122007F0FBFC3F21132007F0F7FC93207E
:1002300035490870202048700321222007F0EEFC89
:100240001E223149022003F07BFF04465AE014B914
:100250000120BDE8F0810A2007F0A6FC0446042036
:1002600007F0A2FC04460CB90C20F2E7264807F080
:1002700087FF22463946304609F088F90A2007F000
:1002800093FC044604F001043CB903F007F804466B
:100290000CB90820DDE70020DBE70B2007F084FC29
:1002A00004462046E11704EB5171CE10E11704EB30
:1002B0005171C910A4EBC101CFB29320124908704B
:1002C00006EB0801C8B2394609F068FD08EB0600E4
:1002D00000F0FF08002506E00C48415D0A4AA81C12
:1002E0001154681CC5B208F101008542F4DB0FB15E
:1002F000C6B200E046461E220349B01CC0B203F05D
:100300001FFF0446A3E700009D1200203B060020CB
:1003100010B501460A46C81701EB10700011A1EB99
:1003200000100B46CC1701EB1474241104EB840469
:1003300000EB4400C0B210BD70B504460025002695
:1003400006E064204543A05DFFF7E2FF0544761C0C
:10035000042EF6DB284670BD10B5012007F0B4FA74
:10036000002007F0B1FA10BD0246002101491144F6
:1003700008887047006C00400022024A0244116065
:1003800070470000006C004070B50546002411E085
:100390004FF48051094805F032F9642004F051FD12
:1003A0004FF48051054805F028F9642004F049FD18
:1003B000601CC4B2AC42EBDB70BD00000010014019
:1003C00000BFFEE70146CAB20B1243EA02207047A3
:1003D00001460A2091FBF0F200FB12100A2291FB69
:1003E000F2F240EA0210C0B2704710B500220EE0EF
:1003F0000A2390FBF3F403FB14033033C2F102042D
:100400000B550A2390FBF3F3D8B2531CDAB2032A3C
:10041000EEDB0023CB7010BD70B5134800780128C7
:1004200016D1002511E0284609F052FC002009F001
:1004300093FA002405E0002101200BF0CFF8601CA6
:10044000C4B2852CF7DB681CC5B2082DEBDB0AE0D3
:10045000012100200BF0C2F84FF4FA6005F0DAFC3D
:10046000012004F0EEFC70BDF00500203EB5002533
:1004700003206149887261480078012804D002286D
:1004800065D004287DD1A8E05D484078FF280ADDCA
:1004900014205C490880002058490870012103207D
:1004A00009F0D0F9A5E0042255490F3102A8FFF761
:1004B00035FE0298401C0AD11620524908800020BF
:1004C0004E4908700121032009F0BCF991E04C4825
:1004D00040784D4908700978481CC11700EB9171AC
:1004E0008910B0EB81010AD1142046490880002010
:1004F000424908700121032009F0A4F979E040483D
:100500008078012803DB3E48807802280ADD152028
:100510003C4908800020394908700121032009F076
:1005200091F966E000240CE0E01C3549085C37498D
:10053000085504F109003249085C35490855601C2A
:10054000C4B2062CF0DB02202C49087051E005F003
:100550006FFF00283DD12A48807801281DD12B4B00
:1005600005222948CDE900230378002224490F31D0
:10057000C12006F005F80546E5B9254B05222248BD
:1005800000E032E0CDE90023037801221C490F315D
:10059000C12005F0F5FF05460CE01D4B05221A4869
:1005A000CDE900230378012215490F31C12005F060
:1005B000E7FF05464DB10020124908800F49087039
:1005C0000121032009F03EF913E007200D490880BE
:1005D00002E001200B4908800BE000200749087069
:1005E0000121032009F02EF903E0002003490870DF
:1005F00000BF00BF3EBD00004808002033060020B9
:10060000480C0020C2050020FA060020FB0600204E
:100610000107002070B50025022051498872514819
:100620000078012804D002285BD004286FD189E02B
:100630004D484078FF280ADD14204C4908800020EE
:10064000484908700121032009F0FCF886E046487B
:100650004078474908700978481CC11700EB917130
:100660008910B0EB81010AD1142040490880002094
:100670003C4908700121032009F0E4F86EE03A4893
:100680008078022803DC3848807801280ADA1520AF
:10069000364908800020334908700121032009F001
:1006A000D1F85BE030488078012802D131490870E8
:1006B00002E000202F49087000240CE0E01C2A49C9
:1006C000085C2D49085504F109002749085C2B49AD
:1006D0000855601CC4B2062CF0DB022021490870CA
:1006E0003CE005F0A5FE48BB2248007880B1224AD4
:1006F00000211F48007805F073FF05467DB91F4AA9
:1007000001211B48007805F06BFF054607E021E05A
:100710001A4A01211648007805F062FF05464DB1DE
:10072000002010490870114908800121032009F0B8
:1007300089F813E006200D49088002E001200B49EA
:1007400008800BE00020074908700121032009F010
:1007500079F803E000200349087000BF00BF70BDB6
:100760004808002033060020480C0020C205002065
:10077000FA060020E7120020FB06002001070020F7
:1007800038B5002505205349887253480078012860
:1007900004D002284BD0042878D18DE04F4840780F
:1007A000FF280ADD14204E49088000204A490870BD
:1007B0000121032009F046F88AE048484078494979
:1007C000087046488078022803DC44488078012875
:1007D0000ADA15204249088000203F4908700121AB
:1007E000032009F02FF873E03C488078012802D1FB
:1007F0003D49087006E039488078022802D100207F
:100800003949087000240CE0E01C3449085C374981
:10081000085504F109003149085C35490855601C48
:10082000C4B2062CF0DB02202B49087050E005F022
:10083000FFFD00283CD12C480078D0B12B4B009311
:100840000323244A0D3200212648007805F0CDFD0F
:1008500050B1274B009305231E4A0D320121214838
:10086000007805F0C2FD08B9012000E00020C5B203
:100870000FE01F4B00930323164A0D320121194844
:10088000007805F0B2FD10B9012001E01CE0002065
:10089000C5B24DB1002010490870114908800121EE
:1008A000132008F0CFFF13E005200D49088002E077
:1008B00001200B4908800BE0002007490870012146
:1008C000032008F0BFFF03E000200349087000BFC9
:1008D00000BF38BD4808002033060020480C002027
:1008E000C2050020FA060020E7120020FB060020C7
:1008F0000107002010B501201849887218480078B7
:10090000012802D0042823D117E005F091FD98B901
:1009100000201449088014480078104948730422C4
:1009200012490E480E30FFF7F9FB0121082008F0AC
:1009300089FF00200A4908700EE00120094908805B
:100940000121032008F07EFF00200549087003E024
:1009500000200349087000BF00BF10BD48080020F8
:1009600033060020C2050020390600203B06002087
:100970002DE9F041ADF5427D4FF00008322083496A
:10098000887283480078012804D0022857D00428B0
:1009900072D1EDE07F480088401E0E2190FBF1F0FF
:1009A0007D49087000251DE0C5EBC500012101EB64
:1009B000400084B27948005DFF280DDD142078499D
:1009C00008800020724908700121032008F03AFFD6
:1009D0000DF5427DBDE8F0817048005D71494855D4
:1009E000681CC5B26C4800788542DDDB00251EE03E
:1009F000C5EBC500022101EB400084B26748005DF1
:100A0000022803DC6548005D01280ADA15206449E4
:100A1000088000205E4908700121032008F012FFC1
:100A2000D6E75E48005D60494855681CC5B25A4823
:100A300000788542DCDB022055490870A4E005F00F
:100A4000F7FC002872D1002510E0C5EBC502032396
:100A500003EB4202514BD11805EB450202AB03EB0D
:100A600082000C22FFF75AFB681CC5B24A48007886
:100A70008542EADB00265CE082E0002713E006EB1B
:100A8000460007EB800002A9085C4849C85506EB00
:100A90004600062101EB8000384402A9085C444965
:100AA000C855781CC7B2062FE9DB3F48805D012896
:100AB00021D13E4B00930D2303EB0611334BCA1893
:100AC0003849885D0323002105F08FFC68B1384B5D
:100AD00000930D2303EB06112C4BCA183149885D96
:100AE0000523012105F081FC08B9012000E0002068
:100AF00000F0FF0816E02C48805D022812D12C4B34
:100B000000930D2303EB0611204BCA182549885D7D
:100B10000323012105F069FC08B9012000E0002051
:100B200000F0FF08B8F1000F01D106E01CE0701CD6
:100B3000C6B21948007886429FDB00BFB8F1000FAB
:100B40000ED000201649088013490978032202EBD1
:100B50000110012108F076FE00200D49087013E015
:100B600005200F49088002E001200D4908800BE0B4
:100B70000020074908700121032008F063FE03E00C
:100B800000200349087000BF00BF21E7480800208B
:100B900033060020BE0500200B070020480C002073
:100BA000C205002027130020E7120020FB060020CA
:100BB000010700202DE9F041AEB04FF000083420CD
:100BC0009349887293480078012804D0022858D0AD
:100BD000042873D10EE190480088401E0E2190FB3E
:100BE000F1F08E49087000251EE0C5EBC50001211B
:100BF00001EB400084B28A48005D3F280CDD1820DC
:100C0000884908800020834908700121032008F0EA
:100C100019FE2EB0BDE8F0818148005D8006000E0F
:100C200081494855681CC5B27C4800788542DCDBA8
:100C300000251EE0C5EBC500022101EB400084B297
:100C40007748005D022803DC7548005D01280ADA58
:100C500015207449088000206E4908700121032086
:100C600008F0F0FDD5E76E48005D70494855681CF6
:100C7000C5B26A4800788542DCDB0220654908700D
:100C8000C4E005F0D5FB002871D1002510E0C5EBCC
:100C9000C502032303EB4202614BD11805EB450269
:100CA00001AB03EB82000C22FFF738FA681CC5B2D7
:100CB0005A4800788542EADB00267CE0A2E0002763
:100CC00013E006EB460007EB800001A9085C5849D9
:100CD000C85506EB4600062101EB8000384401A907
:100CE000085C5449C855781CC7B2062FE9DB4F4849
:100CF000805D012835D1002430E04D4B00930D2359
:100D000003EB8611102303FB0411414BCA1846491B
:100D1000895D2144C8B20323002105F066FB90B130
:100D2000444B00930D2303EB8611102303FB0411A6
:100D3000374BCA183C49895D2144C8B203230121BD
:100D400005F053FB08B9012000E0002000F0FF0887
:100D5000B8F1000F00D103E0601C84B2042CCCDB9E
:100D600027E03248805D022823D100241EE03DE0C8
:100D7000304B00930D2303EB8611102303FB04116A
:100D8000234BCA182849895D2144C8B20323012195
:100D900005F02BFB08B9012000E0002000F0FF085F
:100DA000B8F1000F00D103E0601C84B2042CDFDB3B
:100DB00000BF701CC6B2194800788642FFF67FAFAC
:100DC000B8F1000F0ED000201649088013490978A9
:100DD000032202EB8110012108F034FD00200D49AF
:100DE000087013E005200F49088002E001200D493A
:100DF00008800BE00020074908700121032008F05B
:100E000021FD03E000200349087000BF00BF00E798
:100E10004808002033060020BE0500200B070020F4
:100E2000480C0020C205002027130020E7120020F4
:100E3000FB06002001070020F8B507206B498872E7
:100E40006B480078012804D0022853D004287ED1B2
:100E5000BDE0684840788006000E674908700422AB
:100E60006449891C6548FFF759F9624840783F2872
:100E70000ADD18206249088000205D4908700121C0
:100E8000032008F0DFFCAEE05A488079022803DC3A
:100E90005848807901280ADA15205949088000202D
:100EA000534908700121032008F0CCFC9BE0514815
:100EB0008079012802D15349087006E04D488079B5
:100EC000022802D100204F49087000240CE0E01DE8
:100ED0004849085C4C49085504F10D004549085C37
:100EE0004A490855601CC4B2062CF0DB0220404978
:100EF000087078E005F09CFA002864D1002550E0E5
:100F000001273E48405D00283BD03E48007820B392
:100F10003D4B29010D310093344BCA1836490978ED
:100F20002944C8B20323002105F05FFA70B1374BA2
:100F300029010D3100932D4BCA182F4909782944F6
:100F4000C8B20523012105F050FA18B900E046E0C7
:100F5000012000E0002007401FE02C4B29010D314B
:100F60000093224BCA18244909782944C8B20323A4
:100F7000012105F03AFA08B9012000E000200740FD
:100F80000BE0002607E0002128010D303044174A0D
:100F90001154701CC6B2102EF5DB07B903E0681CB3
:100FA000C5B2042DACDB00BF4FB100201049087062
:100FB000134908800121432008F044FC13E0052078
:100FC0000F49088002E001200D4908800BE0002055
:100FD000074908700121032008F034FC03E00020D9
:100FE0000349087000BF00BFF8BD0000480800209A
:100FF00033060020480C0020FA060020671300206A
:10100000C2050020E7120020FB0600200107002097
:10101000F8B530206B4988726B480078012804D0FD
:10102000022852D004287ED1BDE068484078684943
:101030000870084600783F280ADD182065490880B6
:101040000020614908700121032008F0FBFBB6E095
:1010500010225E49891C6048FFF760F85B48807C7D
:10106000022803DC5948807C01280ADA15205949F6
:1010700008800020544908700121032008F0E2FB99
:101080009DE05248807C012802D15449087006E056
:101090004E48807C022802D100205049087000246C
:1010A0000DE004F113004949085C4D49085504F16D
:1010B00019004649085C4B490855601CC4B2062C0F
:1010C000EFDB02204049087079E005F0B1F9002813
:1010D00065D100254FE001273F48405D00283AD008
:1010E0003E48007818B33E4B29010D310093354B33
:1010F000CA183D4909782944C8B20323002105F0E4
:1011000074F970B1374B29010D3100932D4BCA187A
:10111000354909782944C8B20523012105F065F94C
:1011200010B9012001E046E0002007401FE02D4BF0
:1011300029010D310093234BCA182B490978294402
:10114000C8B20323012105F050F908B9012000E0DD
:10115000002007400BE0002607E0002128010D30A9
:101160003044184A1154701CC6B2102EF5DB07B972
:1011700003E0681CC5B2102DADDB00BF5FB10020DD
:1011800014490880012140F2031008F05BFB0020A5
:101190000D49087013E005200E49088002E0012087
:1011A0000C4908800BE0002007490870012103204A
:1011B00008F048FB03E000200349087000BF00BFAF
:1011C000F8BD00004808002033060020480C00202D
:1011D000F9060020C205002067130020E712002056
:1011E000FB06002001070020FA0600203EB500257E
:1011F00004206149887261480078012804D00228DF
:1012000065D004287DD1A8E05D484078FF280ADD3C
:1012100014205C49088000205849087001210320EF
:1012200008F010FBA5E0042255490F3102A8FEF793
:1012300075FF0298401C0AD11620524908800020F0
:101240004E4908700121032008F0FCFA91E04C4857
:1012500040784D4908700978481CC11700EB91711E
:101260008910B0EB81010AD1142046490880002082
:10127000424908700121032008F0E4FA79E040486F
:101280008078012803DB3E48807802280ADD15209B
:101290003C4908800020394908700121032008F0EA
:1012A000D1FA66E000240CE0E01C3549085C3749BF
:1012B000085504F109003249085C35490855601C9D
:1012C000C4B2062CF0DB02202C49087051E005F076
:1012D000AFF800283DD12A48807801281DD12B4B3A
:1012E00005222948CDE900230378002224490F3143
:1012F000C02005F045F90546E5B9254B05222248F1
:1013000000E032E0CDE90023037801221C490F31CF
:10131000C02005F035F905460CE01D4B05221A48A2
:10132000CDE900230378012215490F31C02005F0D3
:1013300027F905464DB10020124908800F49087071
:101340000121032008F07EFA13E008200D490880EF
:1013500002E001200B4908800BE0002007490870DB
:101360000121032008F06EFA03E000200349087011
:1013700000BF00BF3EBD000048080020330600202B
:10138000480C0020C2050020FA060020FB060020C1
:1013900001070020F8B5062082498872824800784B
:1013A000012804D002284BD0042878D1EBE07F48F4
:1013B0004078FF280ADD14207D49088000207A4902
:1013C00008700121032008F03DFAE8E077484078F2
:1013D0007849087075488078022803DC7348807863
:1013E00001280ADA15207249088000206E49087029
:1013F0000121032008F026FAD1E06C48807801280A
:1014000002D16D49087006E068488078022802D150
:1014100000206949087000240CE0E01C6349085C66
:101420006649085504F109006049085C644908559B
:10143000601CC4B2062CF0DB02205B490870AEE0F1
:1014400004F0F6FF002874D15B480078D0B15B4B04
:1014500000930323554A0F3200215648007805F0C7
:101460005CF950B1564B00930523504A0F320121CD
:101470005048007805F051F908B9012000E000203B
:10148000C6B20FE04E4B00930323484A0F320121AE
:101490004848007805F041F910B9012001E07AE0F0
:1014A0000020C6B24EB10020414908803E49087074
:1014B0000121032008F0C6F971E03E490978FF29AF
:1014C00059DA3C490978481CC11700EB9171891021
:1014D000B0EB81014FD100250DE005F10F0033493C
:1014E000085C3649485505F119003049085C344913
:1014F0004855681CC5B2062DEFDB01262E48007842
:10150000D8B12E4B00930323284A0F3200212948DB
:10151000007805F002F950B1294B00930323234AC8
:101520000F3201212348007805F0F7F810B90120A7
:1015300001E024E00020C6B20EE0214B009303231B
:101540001A4A0F3201211B48007805F0E6F808B965
:10155000012000E00020C6B24EB1002014490880EE
:10156000114908700121032008F06CF917E00620EA
:101570000F49088006E006200D49088002E001209E
:101580000B4908800BE00020074908700121032067
:1015900008F058F903E000200349087000BF00BFBD
:1015A000F8BD00004808002033060020480C002049
:1015B000C2050020FA060020E7120020FB060020EA
:1015C00001070020F8B50C208F4988728F480078F9
:1015D000012804D0022853D004287ED105E18C488C
:1015E0004078FF280ADD14208A49088000208749B6
:1015F00008700121032008F025F902E184484078B1
:101600008549087082488078022803DC8048807809
:1016100001280ADA15207F49088000207B490870DC
:101620000121032008F00EF9EBE0794880780128C9
:1016300002D17A49087006E075488078022802D104
:1016400000207649087000240CE0E01C7049085C1A
:101650007349085504F109006D49085C7149085542
:10166000601CC4B2062CF0DB02206849087004F04C
:10167000DFFE20B904226C496C48FEF74FFDC0E044
:1016800004F0D6FE00287ED1042267496748FEF7A1
:101690006AFD50B109205F49088000205B4908704D
:1016A0000121032008F0CEF8ABE001265B4800786A
:1016B000E0B15B4B00930323554A0F32002156489B
:1016C000007805F02AF860B1564B00930523504A84
:1016D0000F3201215048007800E08EE005F01DF83F
:1016E00008B9012000E0002006400EE04D4B0093B9
:1016F0000323474A0F3201214748007805F00DF8CF
:1017000008B9012000E00020064056B10020414900
:1017100008800121032008F095F800203B4908705B
:101720006FE03D490978481CC11700EB91718910A1
:10173000B0EB810151D100250DE005F10F003449D6
:10174000085C3749485505F117003149085C3549AF
:101750004855681CC5B2062DEFDB01262F480078DE
:10176000E0B12F4B00930323294A0F3200212A486E
:10177000007804F0D2FF60B12A4B00930523244A7D
:101780000F32012100E02CE02348007804F0C5FF6F
:1017900008B9012000E0002006400EE0214B009334
:1017A00003231B4A0F3201211B48007804F0B5FFC8
:1017B00008B9012000E00020064056B1002015497C
:1017C00008800121032008F03DF800200F4908702F
:1017D00017E006200F49088006E006200D49088022
:1017E00002E001200B4908800BE000200749087047
:1017F0000121032008F026F803E0002003490870C7
:1018000000BF00BFF8BD00004808002033060020DC
:10181000480C0020C2050020FA060020E712002034
:10182000FB060020010700203B06002007070020E0
:101830002DE9F8434FF000083320C2498872C248AE
:101840000078012804D002285DD004287ED15AE116
:10185000BE480088401E1E2190FBF1F0BC49087074
:1018600000250BE0C5EB0510012101EB400084B21F
:10187000B848005DB8494855681CC5B2B4480078FE
:101880008542EFDB002511E0B348405DFF280BDD0A
:101890001420B24908800020AB49087001210320C0
:1018A00007F0D0FFBDE8F883681CC5B2A8480078EF
:1018B0008542E9DB00251EE0C5EB0510022101EBA6
:1018C000400084B2A348005D022803DCA148005D0B
:1018D00001280ADA1520A149088000209A490870D9
:1018E0000121032007F0AEFFDCE79A48005D9C4928
:1018F0004855681CC5B2964800788542DCDB02205A
:10190000914908701BE104F093FD002874D1002672
:10191000DAE0002715E0C6EB0610032101EB4000DA
:1019200038448C49085C8F49C855C6EB061009211C
:1019300001EB400038448749085C8B49C855781C46
:10194000C7B2062FE7DB8648805D00E0F3E00128A0
:1019500026D1844BC6EB061100930F2303EB410104
:101960007C4BCA187C49885D0323002104F0D5FE16
:1019700080B17D4BF11C0093764BCA18C6EB061163
:101980000F2303EB4101744B585C0523012104F044
:101990002CFD08B9012000E0002000F0FF0818E04D
:1019A0006F48805D022814D16F4BC6EB061100937F
:1019B0000F2303EB4101674BCA186749885D032376
:1019C000012104F0AAFE08B9012000E0002000F087
:1019D000FF08B8F1000F6DD15F49895DFF2969DA11
:1019E0005D49895D481CC11700EB91718910B0EB0E
:1019F00081015FD1002716E081E0C6EB06100F21C0
:101A000001EB400038445349085C5649C855C6EBC1
:101A10000610192101EB400038444E49085C524938
:101A2000C855781CC7B2062FE7DB4FF001084C48B9
:101A3000805D012825D14B4BC6EB061100930F2387
:101A400003EB4101434BCA184349885D032300213E
:101A500004F063FE78B1444BC6EB061100930F23EC
:101A600003EB41013B4BCA183B49885D052301212B
:101A700004F053FE08B9012000E0002000EA080845
:101A800018E03748805D022814D1374BC6EB0611A9
:101A900000930F2303EB41012E4BCA182E49885D9A
:101AA0000323012104F039FE08B9012000E00020E1
:101AB00000EA0808B8F1000F04D12748805D2B49DF
:101AC000087006E0701CC6B2214800788642FFF616
:101AD00020AF00BFB8F1000F0DD0FF2023490870E0
:101AE00000201E4908800121032007F0ABFE0020E2
:101AF0001549087023E006201849088002E00120FB
:101B0000164908801BE000200F490870174800782C
:101B1000FF280BD0154800780A494873012104209A
:101B200007F090FEFF201149087003E00121032017
:101B300007F088FE03E000200349087000BF00BFE3
:101B4000B0E600004808002033060020BE05002053
:101B50000B070020480C002027130020C20500209E
:101B6000E7120020FB06002001070020F8060020F5
:101B70002DE9F8434FF00008C6480078012804D04A
:101B8000022865D0042878D175E1C3480088401E3A
:101B90001E2190FBF1F0C149087000250BE0C5EB58
:101BA0000510012101EB400084B2BD48005DBD4934
:101BB0004855681CC5B2B94800788542EFDB00255E
:101BC00011E0B848405DFF280BDD1420B6490880BD
:101BD0000020B04908700121032007F033FEBDE862
:101BE000F883681CC5B2AD4800788542E9DB002562
:101BF0001EE0C5EB0510022101EB400084B2A848AD
:101C0000005D022803DCA648005D01280ADA1520E1
:101C1000A549088000209F4908700121032007F092
:101C200011FEDCE79E48005DA0494855681CC5B21E
:101C30009A4800788542DCDB04F0FAFB20B90422E4
:101C40009B499C48FEF76AFA0220924908701EE1FF
:101C500004F0EEFB002878D1042295499548FEF760
:101C600082FA58B1092090490880002089490870FB
:101C70000121032007F0E6FDB1E704E10026DEE0E4
:101C8000002715E0C6EB0610032101EB40003844A5
:101C90008349085C8849C855C6EB0610092101EB49
:101CA000400038447E49085C8449C855781CC7B256
:101CB000062FE7DBC6EB0610022101EB40007B4953
:101CC000085C012826D17C4BC6EB061100930F233C
:101CD00003EB4101724BCA187249885D032300214E
:101CE00004F01BFD80B1754BF11C00936C4BCA18BE
:101CF000C6EB06110F2303EB41016A4B585C03232B
:101D0000012104F00AFD08B9012000E0002000F0E4
:101D1000FF081EE0C6EB0610022101EB40006349FC
:101D2000085C022815D1654BC6EB061100930F2302
:101D300003EB41015A4BCA185A49885D032301211C
:101D400004F0EBFC10B9012001E090E0002000F06D
:101D5000FF08B8F1000F6CD15249895DFF2968DA9C
:101D60005049895D481CC11700EB91718910B0EB97
:101D700081015ED1002715E0C6EB06100F2101EBB3
:101D8000400038444649085C4B49C855C6EB06102C
:101D9000192101EB400038444149085C4749C855C6
:101DA000781CC7B2062FE7DB4FF001083F48805D83
:101DB000012825D1404BC6EB061100930F2303EBFE
:101DC0004101374BCA183749885D0323002104F0CD
:101DD000A4FC78B1394BC6EB061100930F2303EB3B
:101DE00041012F4BCA182F49885D0323012104F0BC
:101DF00094FC08B9012000E0002000EA080818E07F
:101E00002A48805D022814D12C4BC6EB06110093A2
:101E10000F2303EB4101224BCA182249885D03239B
:101E2000012104F07AFC08B9012000E0002000EA5A
:101E30000808B8F1000F00D106E0701CC6B21748C0
:101E400000788642FFF61CAF00BFB8F1000F0AD041
:101E50000020154908800121032007F0F3FC002031
:101E60000C49087006E006200F49088002E00120B6
:101E70000D4908800BE0002006490870012103206D
:101E800007F0E0FC03E000200249087000BF00BF3B
:101E9000A5E6000033060020BE0500200B07002049
:101EA000480C002027130020C2050020E712002064
:101EB0003B06002007070020FB060020010700204A
:101EC0002DE9F8434FF000083520F5498872F548B0
:101ED0000078012804D002285BD004287ED1C1E11B
:101EE000F1480088401E4E2190FBF1F0EF49087048
:101EF00000241FE0C4EBC40000EB4410012101EBFF
:101F0000400087B2EA48C05D3F280BDD1820E94950
:101F100008800020E34908700121032007F092FCAB
:101F2000BDE8F883E248C05D8006000EE24908552E
:101F3000601CC4B2DD4800788442DBDB002420E072
:101F4000C4EBC40000EB4410022101EB400087B257
:101F5000D748C05D022803DCD548C05D01280ADAF5
:101F60001520D44908800020CE49087001210320A3
:101F700007F068FCD4E7CE48C05DD0490855601C26
:101F8000C4B2CA4800788442DADB0220C54908702E
:101F900084E104F04DFA00287ED1002543E10026BB
:101FA00019E0C5EBC50000EB4510032101EB400033
:101FB0003044BF49085CC2498855C5EBC50000EBF9
:101FC0004510092101EB40003044B949085CBD4986
:101FD0008855701CC6B2062EE3DB00E05AE1B74814
:101FE000405D01287ED100279AE0B348405D18B9D2
:101FF00017B94FF0010888E0B14BC5EBC50101EB03
:10200000451100930F2303EB410101EB0711A84B8E
:10201000CA18A949495D3944C8B20323002104F014
:102020007CFBA8B1A74BC5EBC50101EB45110093A3
:102030000F2303EB410101EB07119D4BCA189E4989
:10204000495D3944C8B20323012104F066FB08B995
:10205000012000E0002000F0FF08B8F1000F54D18B
:1020600000261BE0C5EBC50000EB45103F2101EB4E
:10207000400030448E49085C91498855C5EBC50045
:1020800000EB4510492101EB400030448849085CD1
:102090008C498855701C00E0E0E0C6B2062EE1DBFA
:1020A0004FF00108864BC5EBC50101EB45110093CC
:1020B0000F2303EB410101EB07117D4BCA187E4949
:1020C000495D3944C8B20323002104F026FBB8B1AE
:1020D0007C4BC5EBC50101EB451100930F2303EBCE
:1020E000410100E020E001EB0711714BCA18724971
:1020F000495D3944C8B20323012104F00EFB08B93D
:10210000012000E0002000EA0808B8F1000F05D126
:102110006948405D38446C49087004E0781C87B217
:10212000042FFFF662AF78E06448405D022874D166
:1021300000276FE06048405D18B917B94FF00108FB
:102140005DE0604BC5EBC50101EB451100930F232A
:1021500003EB410101EB0711554BCA185649495D84
:102160003944C8B20323012104F0D7FA08B9012089
:1021700000E0002000F0FF08B8F1000F3AD100267F
:1021800019E0C5EBC50000EB45103F2101EB400015
:1021900030444749085C4A498855C5EBC50000EB07
:1021A0004510492101EB400030444149085C454954
:1021B0008855701CC6B2062EE3DB4FF00108414B78
:1021C000C5EBC50101EB451100930F2303EB410162
:1021D00001EB0711364BCA183749495D3944C8B27B
:1021E0000323012104F099FA08B9012000E000203E
:1021F00000EA08083048405D384433490870B8F1B7
:10220000000F05D12C48405D38442F49087003E089
:10221000781C87B2042F8DDB00BFB8F1000F00D10E
:1022200006E0681CC5B2214800788542FFF6B7AECB
:1022300000BFB8F1000F0DD0FF2023490870002027
:102240001C4908800121032007F0FCFA00201549F1
:10225000087023E006201749088002E00120154994
:1022600008801BE000200F49087017480078FF28FD
:102270000BD0154800780A4948730121042007F063
:10228000E1FAFF201049087003E00121032007F064
:10229000D9FA03E000200349087000BF00BF3FE601
:1022A0004808002033060020BE0500200B07002050
:1022B000480C0020C205002027130020E712002050
:1022C000FB06002001070020F8060020F8B50820D2
:1022D000B2498872B2480078012804D0022853D04D
:1022E00004287ED13AE1AF4840788006000EAE491E
:1022F00008700422AB49891CAC48FDF70FFFA948C0
:1023000040783F280ADD1820A94908800020A44908
:1023100008700121032007F095FA3DE1A14880797A
:10232000022803DC9F48807901280ADA1520A04999
:10233000088000209A4908700121032007F082FAE2
:102340002AE198488079012802D19A49087006E06C
:1023500094488079022802D1002096490870002410
:102360000CE0E01D8F49085C9349085504F10D000D
:102370008C49085C91490855601CC4B2062CF0DBFE
:1023800002208749087007E104F052F800287AD14A
:10239000012700254DE08548405D002840D0814858
:1023A000407810B90DB901273AE08248007820B38F
:1023B000814B2901133100937A4BCA187A49097865
:1023C0002944C8B20323002104F0A7F980B17B4B54
:1023D000290113310093734BCA18734909782944B2
:1023E00000E0D5E0C8B20523012104F096F908B950
:1023F000012000E00020074012E0704B290113315A
:102400000093684BCA18684909782944C8B2032365
:10241000012104F082F908B9012000E00020074002
:102420002FB96148007828446549087003E0681CAA
:10243000C5B2042DAFDB00BF67B1FF206049087053
:102440000020574908705A4908800121032007F0ED
:10245000F9F9A1E053484079002877D000260DE033
:1024600006F143004F49085C5349885506F14D0079
:102470004C49085C51498855701CC6B2062EEFDBEA
:10248000012700254CE065E04848405D00283ED02B
:102490004448407810B90DB9012738E04548007824
:1024A00010B3454B2901133100933E4BCA183E49E6
:1024B00009782944C8B20323002104F02EF970B131
:1024C0003E4B290113310093364BCA18364909781F
:1024D0002944C8B20523012104F01FF908B90120DD
:1024E00000E00020074012E0344B29011331009333
:1024F0002C4BCA182C4909782944C8B2032301215E
:1025000004F00BF908B9012000E0002007402FB9C2
:102510002548007828442A49087003E0681CC5B2A1
:10252000042DB1DB00BF6FB1FF20254908700020EA
:102530001F4908801A4908700121032007F082F919
:102540002AE003E006201A49088006E00620184920
:10255000088002E00120164908801DE00020104993
:10256000087017480078FF280DD000201049088017
:102570001348007808800121042007F063F9FF2048
:102580000F49087003E00121032007F05BF903E025
:1025900000200349087000BF00BFF8BD48080020B4
:1025A00033060020480C0020FA06002067130020A4
:1025B000C2050020E7120020FB06002001070020D2
:1025C000F8060020F8B50D20BD498872BD48007896
:1025D000012804D002285BD0042871D152E1BA4806
:1025E00040788006000EB94908700422B649891C5B
:1025F000B748FDF793FDB44840783F280ADD18201E
:10260000B44908800020AF4908700121032007F079
:1026100019F953E1AC488079022803DCAA48807993
:1026200001280ADA1520AB4908800020A549087066
:102630000121032007F006F940E1A3488079012831
:1026400002D1A549087006E09F488079022802D18E
:102650000020A149087000240CE0E01D9A49085CA4
:102660009E49085504F10D009749085C9C4908559E
:10267000601CC4B2062CF0DB02209249087003F003
:10268000D7FE20B9042297499748FDF747FD15E189
:1026900003F0CEFE002871D1042292499248FDF742
:1026A00062FD50B109208B490880002085490870DF
:1026B0000121032007F0C6F800E1012700254CE0C6
:1026C000F8E08348405D00283ED07F48407810B94C
:1026D0000DB9012738E08048007810B37F4B2901FD
:1026E00013310093784BCA18784909782944C8B245
:1026F0000323002104F011F870B1794B2901133143
:102700000093714BCA18714909782944C8B205234E
:10271000012104F002F808B9012000E00020074080
:1027200012E06F4B290113310093674BCA186749B8
:1027300009782944C8B20323012103F0EEFF08B948
:10274000012000E0002007402FB9604800782844AD
:102750006649087003E0681CC5B2042DB1DB00BFF8
:102760006FB1FF206149087000205A49088055491F
:1027700008700121032007F065F89FE07EE05248D1
:102780004079002876D000260DE006F143004E493E
:10279000085C5249885506F14D004B49085C504988
:1027A0008855701CC6B2062EEFDB012700254BE0D2
:1027B0004748405D00283ED04348407810B90DB9E5
:1027C000012738E04448007810B3444B2901133105
:1027D00000933D4BCA183D4909782944C8B20323E8
:1027E000002103F09AFF70B13D4B29011331009392
:1027F000354BCA18354909782944C8B20523012147
:1028000003F08BFF08B9012000E00020074012E030
:10281000334B2901133100932B4BCA182B490978EC
:102820002944C8B20323012103F077FF08B901202E
:1028300000E0002007402FB92448007828442B49A5
:10284000087003E0681CC5B2042DB1DB00BF6FB196
:10285000FF202649087000201E4908801949087089
:102860000121032006F0EEFF28E003E006201949CD
:10287000088006E006201749088002E0012015497B
:1028800008801BE000200F49087018480078FF28D6
:102890000BD0164800780A4948730121042006F03D
:1028A000D1FFFF201149087003E00121032006F049
:1028B000C9FF03E000200349087000BF00BFF8BD56
:1028C0004808002033060020480C0020FA060020AB
:1028D00067130020C2050020E7120020FB0600203D
:1028E000010700203B06002007070020F806002013
:1028F000F8B531209E4988729E480078012804D09E
:10290000022852D004287ED124E19B4840789B497C
:102910000870084600783F280ADD1820984908808A
:102920000020944908700121032006F08BFF1DE16F
:1029300010229149891C9348FDF7F0FB8E48807C5A
:10294000022803DC8C48807C01280ADA15208C4997
:1029500008800020874908700121032006F072FFDB
:1029600004E18548807C012802D18749087006E08F
:102970008148807C022802D100208349087000240D
:102980000DE004F113007C49085C8049085504F10E
:1029900019007949085C7E490855601CC4B2062CB0
:1029A000EFDB022073490870E0E003F041FD0028EE
:1029B00072D10127002548E07248405D002840D0D0
:1029C0006D48407810B90DB901273AE06E4800789B
:1029D00020B36E4B29011F310093674BCA186D4914
:1029E00009782944C8B20323002103F096FE80B180
:1029F000674B29011F3100935F4BCA18654909785D
:102A00002944C8B200E0ADE00523012103F085FEB2
:102A100008B9012000E00020074012E05C4B2901CA
:102A20001F310093544BCA185A4909782944C8B237
:102A30000323012103F071FE08B9012000E000200A
:102A4000074007B903E0681CC5B2102DB4DB00BF16
:102A50004FB100204A4908804649087001210320EF
:102A600006F0F0FE82E04748C07B00286AD00026CE
:102A70000DE006F21F104049085C4449885506F2F3
:102A800025103D49085C42498855701CC6B2062E87
:102A9000EFDB0127002547E058E03A48405D002879
:102AA0003ED03548407810B90DB9012738E0364896
:102AB000007810B3354B29011F3100932E4BCA18F3
:102AC000344909782944C8B20323002103F025FEC4
:102AD00070B12F4B29011F310093274BCA182D4984
:102AE00009782944C8B20523012103F016FE08B96C
:102AF000012000E00020074012E0254B29011F3192
:102B000000931D4BCA18234909782944C8B20323EE
:102B1000012103F002FE08B9012000E00020074077
:102B200007B903E0681CC5B2102DB6DB00BF87B142
:102B30000020134908800F4908700121032006F086
:102B400081FE13E006200E49088002E001200C49B6
:102B500008800BE00020074908700121032006F0DF
:102B600071FE03E000200349087000BF00BFF8BDFC
:102B70004808002033060020480C0020F9060020F9
:102B8000C205002067130020E7120020FB0600208A
:102B900001070020FA060020F8B5A64800780128B1
:102BA00004D002285AD0042870D134E1A2484078D9
:102BB000A2490870084600783F280ADD1820A0497D
:102BC000088000209B4908700121032006F03AFE8E
:102BD0002DE110229849891C9A48FDF79FFA9648E2
:102BE000807C022803DC9448807C01280ADA1520C6
:102BF0009349088000208F4908700121032006F0C6
:102C000021FE14E18C48807C012802D18E49087095
:102C100006E08948807C022802D100208A49087099
:102C200000240DE004F113008349085C874908552E
:102C300004F119008049085C85490855601CC4B23C
:102C4000062CEFDB03F0F4FB20B904228149824813
:102C5000FDF764FA022077490870E8E003F0E8FB2A
:102C600000287CD104227B497B48FDF77CFA50B1D7
:102C700009207349088000206E4908700121032053
:102C800006F0E0FDD3E00127002541E0CBE06D48F0
:102C9000405D002838D06C48007810B36B4B290198
:102CA0001F310093644BCA186C4909782944C8B293
:102CB0000323002103F031FD70B1654B29011F3161
:102CC00000935D4BCA18654909782944C8B20323AB
:102CD000012103F022FD08B9012000E00020074097
:102CE00012E05B4B29011F310093534BCA185B491B
:102CF00009782944C8B20323012103F00EFD08B965
:102D0000012000E00020074007B903E0681CC5B2BD
:102D1000102DBCDB00BF4FB1002049490880454958
:102D200008700121032006F08DFDF8BD4548C07BE9
:102D3000002868D000260DE006F21F103E49085C0E
:102D40004249885506F225103B49085C40498855A0
:102D5000701CC6B2062EEFDB0127002541E056E0CD
:102D60003848405D002838D03748007810B3374BDA
:102D700029011F310093304BCA183849097829447A
:102D8000C8B20323002103F0C8FC70B1304B290105
:102D90001F310093284BCA18304909782944C8B21A
:102DA0000523012103F0B9FC08B9012000E000204F
:102DB000074012E0264B29011F3100931E4BCA1811
:102DC000264909782944C8B20323012103F0A5FC50
:102DD00008B9012000E00020074007B903E0681CA3
:102DE000C5B2102DBCDB00BF4FB1002014490880D4
:102DF000104908700121032006F024FD17E0062089
:102E00000F49088006E006200D49088002E00120F5
:102E10000B4908800BE000200649087001210320BF
:102E200006F010FD03E000200249087000BF00BF5B
:102E30007BE7000033060020480C0020F906002044
:102E4000C205002067130020E7120020FB060020C7
:102E5000010700203B06002007070020FA0600209B
:102E600070B590B0044609212A2004F0D7FEFF2156
:102E70002C2004F0D3FEE0202D49087044F05000CF
:102E800048701E22022001F05BF9064616B90120A7
:102E900010B070BD0A2004F087FE06F00200022880
:102EA00001D10520F4E706F00400042801D1142024
:102EB000EEE706F00800082801D10220E8E768469E
:102EC00005F05EF905460DB90120E1E7402D00DD72
:102ED00040252A4669461648FDF720F902269DF846
:102EE000010010F0100F00D003269DF8010010F033
:102EF000200F1AD01DF8060006110C36152E08DA20
:102F000031462A2004F08AFE01212C2004F086FE9E
:102F10000BE015212A2004F081FEA6F11502012004
:102F20009040C1B22C2004F079FE0020B0E70000F0
:102F30009D12002010B5002423E19748008800F07E
:102F40000F00964908700846007800287ED1944802
:102F50000068944908800846008800F030009249D3
:102F600008809048008800F440508E4908808F49BE
:102F7000D1F8001C89B24BF6BF7201EA020080F45E
:102F8000005080F0200040F4004141F08001874A69
:102F9000C2F8001C8048008810F0100F36D180481D
:102FA000006880B248F60F7100EA01001146C1F8CE
:102FB000000C02F0A5FD7A49096889B24BF6BF7290
:102FC00001EA02007749098811F4805F01D080F49A
:102FD00080507449098811F4005F01D080F40050DA
:102FE0007149098811F0100F01D080F010006E496E
:102FF000098811F0200F01D080F0200081B241F447
:10300000004141F08001664A116010BD64480068CB
:1030100084B214F4006F39D061480068C0F30E0028
:1030200048F68F7100EA01006049C1F8000C06F013
:10303000C7FF5B49096889B24BF6BF7201EA02001B
:103040005849098811F4805F03D000E059E080F40A
:1030500080505449098811F4005F01D080F4005079
:103060005149098811F0100F01D080F010004E492D
:10307000098811F0200F01D080F0200081B241F4C6
:10308000004141F08001464A1160BEE714F4004F50
:1030900077D043480068C0F30E0048F68F7100EA0D
:1030A00001004249C1F8000C04F0F4F83C490968F9
:1030B00089B24BF6BF7201EA02003A49098811F45D
:1030C000805F01D080F480503649098811F4005F98
:1030D00001D080F400503449098811F0100F01D05C
:1030E00080F010003049098811F0200F01D080F0E5
:1030F000200081B241F4004141F08001284A116072
:1031000083E726480078294901EB8000D0F8000CBD
:1031100084B214F4004F18D02048007801EB8000EE
:10312000D0F8000CC0F30E0048F68F7108401B4920
:1031300009781E4A02EB8101C1F8000C1749097891
:10314000491E1B4A52F82100804714F0800F18D006
:1031500012480078154901EB8000D0F8000C80B2CD
:1031600048F60F7108400D490978104A02EB8101B9
:10317000C1F8000C09490978491E0E4A52F821008D
:1031800080470D48006880B20349088010F4004F62
:103190007FF4D3AE39E70000780700201C08002038
:1031A000005C004030080020320800200050004041
:1031B0005C07002040070020445C004000B5C3B01D
:1031C00002208DF8040080208DF805005C218DF828
:1031D000061000218DF8071002218DF80810042137
:1031E0008DF80911694601A804F014F9B0F5104FE3
:1031F00008D0002006490870401E064908600020DB
:1032000043B000BD0020044908700120F8E7000029
:10321000F40500201C0600200906002070B504F00B
:103220009BFD0E49B0FBF1F0B0B1002403E001F0CA
:1032300027FD601CC4B204F08FFD0849B0FBF1F01B
:10324000A042F4D804F088FD0449B0FBF1F201FB80
:103250001205284604F0BCFD70BD00007F5101003E
:1032600001464FF4C87091FBF0F200FB121008B950
:1032700001207047642091FBF0F200FB121008B9A6
:103280000020F6E7CA1701EB92729210B1EB8202AE
:1032900001D10120EDE70020EBE700000021002232
:1032A00004E00648805C4140501CC2B2052AF8DBAD
:1032B00009B9012070470020FCE700003B06002010
:1032C00038B504460720ADF8000001208DF8020053
:1032D00010208DF803006946504802F0FDF8504870
:1032E0000078012860D10820ADF8000001208DF899
:1032F000020010208DF803006946484802F0ECF8FF
:103300000121464802F079F9642002F083FD012191
:10331000424802F074F9642002F07CFD0A2001F0BA
:1033200090FDE221002008F059F9C82002F072FD5A
:1033300001F07AFEC82002F06DFDA621002008F001
:103340004DF9C82002F066FDA221002008F046F9E0
:10335000C82002F05FFDA121002008F03FF9C8203D
:1033600002F058FDC021002008F038F9C82002F012
:1033700051FD2F21002008F031F9C82002F04AFD4C
:103380002621002008F02AF98121002008F026F9E2
:103390002146002008F022F9C82002F03BFDFDF78D
:1033A0003BF801F047FE37E000BF0021012001F0AB
:1033B000DFFFC82002F02EFD0021012001F0D8FF20
:1033C0004FF4FA6002F026FD0021012001F0D0FF49
:1033D000C82002F01FFD0021012001F0C9FFC82014
:1033E00002F018FD0C21002008F0F8F8C82002F0C7
:1033F00011FDFDF711F8C82002F00CFD0721002097
:1034000008F0ECF8C82002F005FD0221002008F0C9
:10341000E5F8C82002F0FEFC38BD000000100140B5
:10342000F00500200C4901EB8001D1F8001C11F4DB
:10343000804F10D0084901EB8001D1F8001C89B2FF
:1034400048F68F7211404CF280021143024A02EB9F
:103450008002C2F8001C7047005000400C4901EB8C
:103460008001D1F8001C11F0400F10D0084901EB89
:103470008001D1F8001C89B248F68F72114048F2E1
:10348000C0021143024A02EB8002C2F8001C7047DE
:103490000050004070B5092004F086FB044644F05B
:1034A00001042146092004F0B9FB002506E00420B0
:1034B00004F07AFB08B9012070BD6D1C40F6FF7066
:1034C0008542F4D30020F7E7084901EB8001D1F8E9
:1034D000001C89B248F68F62114048F28002114305
:1034E000024A02EB8002C2F8001C70470050004004
:1034F00010B54FF48071024802F07FF810BD000053
:103500000010014010B54FF40071024802F075F848
:1035100010BD00000010014010B54FF4807102484A
:1035200002F06BF810BD0000000C014010B54FF424
:103530000071024802F061F810BD0000000C01406B
:1035400010B54FF48061024802F057F810BD00003A
:103550000010014010B54FF40061024802F04DF830
:1035600010BD00000010014010B517480078062873
:1035700007D015480078092803D013480078082898
:103580001BD1FCF749FF11A20021084602F048FCBC
:1035900010A20121002002F043FC14201149087000
:1035A00006201149087003200749087002200F49BE
:1035B000087000200E49088002E017200C4908809E
:1035C00003200C49088010BD06060020BAF3CCA8E1
:1035D0003A00000020202020B2D9D7F7C8A1CFFBA5
:1035E00021000000FA050020050600200806002042
:1035F000C2050020C405002000B585B02D48007824
:103600000A2803D02B48007804284AD104222A49EA
:103610002A48FCF783FDFCF7FFFE284800680028D5
:1036200014DA27A20021084602F0FAFB6420284998
:10363000087006202749087003201E4908700220E0
:10364000254908700120254908802DE00C202449D7
:1036500008700821234801F0D2FF062015490870A0
:1036600002201D49087020A20021084602F0D8FB64
:103670000DF10101114803F073F83A208DF80000B4
:103680001DA20121002002F0CBFB6A46012104208B
:1036900002F0C6FB0120FCF777FE00200F490880EE
:1036A00002E017200D49088003201749088005B063
:1036B00000BD000006060020490C00201006002076
:1036C000BDF0B6EEB2BBC4DCCEAAB8BA2100000091
:1036D000FA0500200506002008060020C20500208B
:1036E000040600200010014020202020C7EBCBA2C0
:1036F000BFA8210000000000CFFBB7D13A20202056
:1037000020202020D4AA0000C40500200EB52548A2
:1037100000780A283ED1FCF77FFE0123009308239E
:10372000214A1421012004F098FF082301AA142142
:10373000012004F079FF082201A91C48FCF7EEFCE7
:103740000822194901A808F089FD58B918A20021DA
:10375000084602F065FB01201849088064201849DA
:1037600008700AE017A20021084602F059FB002069
:103770001249088014201249087006201449087064
:103780000320084908700220124908700B201249D2
:10379000088005E0032010490880172007490880A9
:1037A0000EBD000006060020490C00205508002030
:1037B000C9E8D6C3CAA7B0DC21000000C2050020BA
:1037C000FA050020C9E8D6C3B3C9B9A62100000094
:1037D0000506002008060020C40500203EB541482B
:1037E00041788DF8081080788DF809000123009346
:1037F000BDF8084004EBD4725210A4EB4202D2058B
:10380000110C254604EBD47241F6441303EB62021B
:1038100090B28023334A121D04F01FFF3148C07854
:103820005A2804D0BDF80800B0F5007F43D1142019
:103830002D490870BDF8080000EBD0714910B0EBBD
:10384000410108D0BDF8080000EBD0714910491CB7
:1038500089B2019105E0BDF8080000EBD071491074
:10386000019101230093022301AA002141F6431094
:1038700004F0F3FE03201D49088000201C49088045
:1038800001211A48008805F0DDFF14201649087050
:10389000FCF7C2FD17A20021084602F0C1FA19A2E6
:1038A0000121002002F0BCFAC82001F0CAFA72B669
:1038B000FCF7A7FC14E0FCF7AFFD16A200210846B8
:1038C00002F0AEFA17A20121002002F0A9FA21208D
:1038D0001749087003200549088000200449088022
:1038E0003EBD0000480C0020FA050020C405002061
:1038F000C2050020BDF8C8EB49415020D7B4CCAC7C
:1039000021000000C7EBB2BBD2AAB6CFB5E72100B9
:1039100000000000D5FDD4DAC9FDBCB6B3CCD0F2AE
:1039200021000000C7EBC9D4BAF22E2E2E000000F1
:10393000060600207CB53E4800780A2871D100BFF9
:1039400004223C496846FCF7E9FB3A48401E4479AA
:103950000A2C03DD17203849088061E0009804F044
:10396000B7FE18B917203449088059E03348008859
:1039700033490988884207D132480088324909888A
:10398000884201D1012000E00020C5B200202F496B
:10399000088032E0012301AA2A480088801C81B2F5
:1039A0002648008804F040FE9DF80400FF280FDA46
:1039B00027482649098842185023224801881F4871
:1039C000008804F031FE2148008850301F490880EB
:1039D00000221C49194804F059FF1848008818496A
:1039E0000988884207D11748008817490988884202
:1039F00001D1012000E00020C5B204EB840013498E
:103A00000988B1EB001F01DA002DC3D000200A495C
:103A100008800E480088C01C0C4908807CBD00E06E
:103A200000BF032009490880172003490880F5E7F3
:103A300006060020490C0020C2050020D605002003
:103A4000DA050020DC050020DE050020C40500208A
:103A50005508002000B585B04FF42F700390012069
:103A600002904FF42F70019001200090042304AACB
:103A70000021084604F0D8FD042204A9114808F0EA
:103A800047FB022203A90F48001D08F041FB022258
:103A900002A90C48801D08F03BFB022201A909483D
:103AA000083008F035FB0222694606480A3008F063
:103AB0002FFB0F200449088000200449088005B02E
:103AC00000BD000055080020C4050020C2050020EC
:103AD00010B5214800780A2803D01F480078002834
:103AE00032D10021012004F0EDFE0A201A490870AD
:103AF00002F0A4FAFCF790FC1748007878B917A2F6
:103B00000021084602F08CF9012019490880642040
:103B1000184908704FF4FA6001F093F917E016A203
:103B20000021084602F07CF9142012490870062092
:103B300016490870032008490870022014490870CB
:103B400000200B49088002E0172009490880032063
:103B50001049088010BD000006060020B3F5CABC5D
:103B6000BBAFBCC7C2BCCAA7B0DC210000000000CC
:103B7000C2050020FA050020B3F5CABCBBAFBCC724
:103B8000C2BCB3C9B9A62100000000000506002090
:103B900008060020C40500201CB5234800780A2828
:103BA0003BD1012300930423204A0021084604F05E
:103BB00054FD042301AA0021084604F035FD1C48E9
:103BC00001990160042201A91A48FCF7A7FAFCF741
:103BD00023FC0422154901A808F040FB70B916A285
:103BE0000021084602F01CF9012016490880032034
:103BF0001549088064201549087014E014A20021BA
:103C0000084602F00DF900200E49088007200E49F1
:103C1000088014200D49087005E003200A49088037
:103C20001720084908801CBD06060020490C00200A
:103C30002406002055080020C9E8D6C3CAA7B0DC76
:103C400021000000C2050020C4050020FA05002064
:103C5000C9E8D6C3B3C9B9A6210000001FB51F48E3
:103C6000407800F5FA60ADF8000006221B49891C77
:103C70000DF10200FCF752FA684606F037F8082307
:103C800002AA1421012004F0CFFC04221449154893
:103C9000FCF744FA082202A91248001DFCF73EFA7C
:103CA0000C2211A10F480C30FCF738FA0F2212A198
:103CB0000C481830FCF732FA134800780A2803D071
:103CC00011480078022802D1142010490870002001
:103CD0000F49088027200F4908801FBD480C00208D
:103CE0002406002055080020484449534D353143EF
:103CF0004F42313200000000484449534D353130C5
:103D0000303030303634370006060020FA05002007
:103D1000C2050020C405002030B5C3B00446002011
:103D200002900190642103A8FCF711FA092C70D2CB
:103D3000DFE804F005224E7CC4E0F2F0EF0001F071
:103D400083FF642001F07DF804F0CCFA68B905F037
:103D5000C7FF1022A049A148FCF7E0F91320A049B1
:103D6000088000209F49088005E003209C490880C6
:103D700001209C4908802CE19B480078012803DB46
:103D800099480078042802DD032097490870964876
:103D90000078401EC1B2954804F070FB88B1002540
:103DA0009248407800F00F00051D2A468F498B4845
:103DB000FCF7B4F9E81C8A4908800020894908808A
:103DC00005E003208649088001208649088000E13B
:103DD0000F2001F036F803AB02AA8449844800782A
:103DE00000F042FC0190BDF80400B0F5104F11D175
:103DF0009DF8080000280DDD9DF808200DF10E014A
:103E00007648FCF78BF99DF80800C01C74490880BF
:103E100008E0D7E0022201A9704808F079F90520EE
:103E20006F49088000206F490880D2E06E48007812
:103E3000012803DB6C480078042802DD03206A496E
:103E4000087069480078401EC3B269480093007842
:103E5000801EC1B202AB03AA6448801C00F05CFA69
:103E60000190BDF80400B0F5104F1BD19DF808007B
:103E7000002817DD9DF8082003A95848FCF74EF9E3
:103E800090219DF808000D30544A0D3A115400213C
:103E90009DF808000E3011549DF80800401D50494F
:103EA000088007E0022201A94C4808F031F90520FA
:103EB0004B49088000204B4908808AE004F0F0F864
:103EC00088B90820464908800020464908804948AA
:103ED000007842490D394873042247493F48401C45
:103EE000FCF71CF905E003203D49088001203D490D
:103EF00008806EE0012000F0F5FF18B90020394974
:103F0000088002E0012037490880032034490880F6
:103F10005FE047E00FE0FFE73448807800EB800087
:103F20004006000E3549087000202E490880032005
:103F30002B4908804DE003203149087002203149A7
:103F400008700F222949091D03A8FCF7E7F8FCF7C0
:103F500063FA2648807868B100208DF81B0003AA18
:103F60000021084601F05CFF0F222049133103A80D
:103F7000FCF7D4F81D48C07830B100208DF81B0044
:103F800003AA012101F04CFF0C201F4908700821F1
:103F90001E4801F034FB002012490880032010491C
:103FA000088016E001F094F80C20174908700821E9
:103FB000164801F024FB00200A4908800320084924
:103FC000088006E003200649088001200549088092
:103FD00000BF00BF43B030BD9D1200205508002037
:103FE000C4050020C205002031060020480C002036
:103FF000B2050020390600203B060020FA0500200B
:1040000006060020080600200406002000100140DB
:1040100008B5114840781149087008460078012811
:1040200003DB08460078042802DD03200B490870F2
:1040300001230A4A02210846009304F00EFB18B13E
:1040400000200749088002E001200549088003207C
:104050000449088008BD0000480C002031060020FB
:10406000C2050020C405002008B51C4800780A28B5
:104070002CD1012300931023194A3221012004F08E
:10408000ECFA1023174A3221012004F0CDFA102255
:1040900014491548FCF742F8FCF7BEF913A20021B9
:1040A000084601F0BDFE1420154908700620154988
:1040B0000870032009490870022013490870002085
:1040C0001249088013201249088005E017200F4983
:1040D000088003200E49088008BD00000606002065
:1040E000490C00208C12002055080020B3F5CABCF2
:1040F000BBAFB2CECAFDB3C9B9A621000000000013
:10410000FA0500200506002008060020C205002050
:10411000C4050020064800780A2802D11420054969
:104120000870002004490880032004490880704773
:1041300006060020FA050020C2050020C405002064
:104140002DE9F04104460D4616460021012003F0FA
:1041500065FDFFF79FF97F21072003F05FFD2946EA
:10416000204603F03BFD3146012003F057FD00BF20
:10417000012003F019FD0746072003F015FD8046D6
:1041800017B90120BDE8F08108F020002028EFD108
:104190007F21072003F042FD0020F3E770B5A4B0B3
:1041A00004460F2120A8FBF7D2FF504903C9CDE9EF
:1041B0001E0100201D9001250AA84DA14EC94EC028
:1041C0004FA0006802901BA801F001FC06AB4D4A0D
:1041D00010210AA801F0B0FB04AB2246102106A86A
:1041E00000F04EFE042248490EA807F091FF062079
:1041F0008DF83C00062245490DF13D00FBF78EFF8E
:10420000BDF86C00642190FBF1F0C6B23046FCF7BB
:10421000DFF88DF85B00BDF86C00642190FBF1F2D3
:1042200001FB1200C6B23046FCF7D2F814A908739D
:104230009DF86E00FCF7CCF814A948739DF86F0048
:10424000FCF7C6F814A988739DF87000FCF7C0F855
:1042500014A9C8739DF87100FCF7BAF814A9087482
:104260009DF87200FCF7B4F814A9487407220B31CA
:104270000DF14300FBF752FF03AB1222CDE90023FF
:104280000EAB082204A9002001F03CFA042202A986
:104290000DF17F00FBF742FF07220DF15B010DF1ED
:1042A0008300FBF73BFFBDF80C00ADF88A00BDF8BA
:1042B0000E00ADF88C0008208DF88E000A231DAA90
:1042C00017211EA805F088FA60B911480088001F60
:1042D0001049085C902805D10D480088C01E085C74
:1042E00000B90025284624B070BD0000C0C90008F0
:1042F000A8EE1EBD0B8783B2CEFFB0DFDFDFBBBEF3
:1043000012345678E705002010060020F20600203F
:10431000E00500203C1100202DE9FF4F85B0044648
:104320000D461646129F00BF94F80190052D0BDD37
:1043300094F804A00AF10500A84202DA14F800B0CB
:1043400006E04FF0000B03E094F804B04FF0000AD1
:10435000554A32F81710554A52F82700102204F037
:10436000CDF80020029008E00299605C394603F025
:10437000C7F90298401CC0B2029002980528F3DBEE
:10438000494A32F81710494A52F82700042204F02B
:10439000B5F800BF384603F005F98046B8F1600F64
:1043A00000D1F7E7C84549D1BAF1000F1BD10BF195
:1043B0000200C0B201900020029008E0384603F0ED
:1043C000F1F801460298421CD2B202923154DDE962
:1043D00001108842F2DB16F80B0004900BF101008B
:1043E000305C039054E0A02004F001FEA02004F013
:1043F000FEFD2D4A32F817102C4A52F827001022E1
:1044000004F07CF80020029009E00299491D605CEC
:10441000394603F075F90298401CC0B20290029828
:104420005045F2DB204A32F81710204A52F8270094
:10443000042204F063F84FF0000AABE7CDF81080D7
:10444000384603F0AFF88046CDF80C800498612818
:1044500012D100202070C02060700020A070E07099
:1044600003982071002060710525A02004F0BFFD95
:10447000A02004F0BCFD57E704986C2808D10398ED
:104480002071002060710525A02004F0B0FD4BE7ED
:10449000089880F800B0DDE9031001EB002080B23D
:1044A00009B0BDE8F08F0000C8060020B406002067
:1044B0002DE9F041F4B004460D46C82142A8FBF7AF
:1044C00046FE4FF4807102A8FBF741FE01272078D9
:1044D000022806D003282ED0042856D005287ED1E5
:1044E00090E060788DF80801A0788DF80901E078F7
:1044F0008DF80A0120798DF80B0194F805018DF8EB
:104500000C01052672B60223009301AB02AA3146C4
:1045100042A8FFF701FF804662B6B8F5104F09D1F7
:1045200094F8050130B194F8052102A92846FBF75B
:10453000F5FD002792E060788DF80801A0788DF8ED
:104540000901E0788DF80A0120798DF80B01607976
:104550008DF80C01607928B16279A11D0DF20D1062
:10456000FBF7DCFD6079401DC6B272B602230093F2
:1045700001AB02AA314642A8FFF7CEFE804662B6E2
:10458000B8F5104F00D1002768E04FF000086078C0
:104590008DF80801A0788DF80901E0788DF80A01FE
:1045A00020798DF80B0160798DF80C01607928B1C4
:1045B0006279A11D0DF20D10FBF7B0FD94F8051105
:1045C0006079401D42AA11546079801DC6B272B64E
:1045D0000223009301AB02AA314642A800E03BE06F
:1045E000FFF79AFE804662B6B8F5104F09D194F8ED
:1045F000050130B194F8052102A92846FBF78EFD8C
:1046000000272BE060788DF80801A0788DF809016B
:10461000E0788DF80A0120798DF80B0118208DF8CB
:104620000C01607928B16279A11D0DF20D10FBF724
:1046300075FD6079401DC6B272B60223009301ABCE
:1046400002AA314642A8FFF767FE804662B6B8F577
:10465000104F00D1002701E0042700BF00BF3846FB
:1046600074B0BDE8F08100002DE9F047B4B0044615
:104670000D4616461F464FF00009002021904021AC
:1046800024A8FBF764FD7748007820B10020754925
:104690000870754908707448007810B90A202870AD
:1046A00001E00B202870012068703C2C44DD4FF0A5
:1046B0003C08A4F13C00C4B2287840F010002870F7
:1046C0004246294624A8FBF729FD1E2224A940467C
:1046D000FFF736FD18B9012034B0BDE8F087384641
:1046E00003F04EFD814660480078C0435E49087083
:1046F0003878AA2802D03878AB281BD15A480078DD
:1047000008B10B2000E00A20C0B28DF89000012013
:104710008DF89100224605F13C010DF19200FBF766
:10472000FDFC1E2224A9A01CC0B2FFF709FD58B948
:104730000120D1E70120CFE71E2229462046FFF7BE
:10474000FFFC08B90120C7E7384603F019FD814690
:10475000B9F1000F01D10220BEE7A9F102003070CB
:1047600041480078C043404908703878FA282DD174
:10477000787801282AD1B878012827D14FF0000A8B
:10478000FA208DF8880001208DF889008DF88A00C4
:10479000032400BF1E2222A92046FFF7D1FC08B93E
:1047A000012099E7384603F0EBFC8146B9F1030F8D
:1047B00003DDA9F10200307006E050460AF1010A5B
:1047C00041F288318842E5D300BF00BF387810F04D
:1047D000100F3DD04FF0000A00BF2348007808B109
:1047E000AB2000E0AA20C0B28DF8880001208DF82F
:1047F000890002241E2222A92046FFF7A1FC08B945
:10480000012069E701A803F0BBFC8246BAF1030F5F
:1048100000DA16E0AAF1020207EB09000DF1060129
:10482000FBF77CFC10480078C0430F490870AAF1E0
:104830000200484400F0FF099DF8040010F0100F3A
:10484000CBD100BF86F800903078801E307000BF5A
:10485000A9F10200C119022221A807F059FCBDF8F4
:10486000840039E74C060020380600202DE9F04787
:104870002948006800F11004258827480068067A56
:10488000EDB9042E1BD125480078012812D1002152
:104890002348006880B200F10200224A42F810105A
:1048A0004FF030002049088000BF4FF000001B4946
:1048B000087003E0072610201B49088027E0A7881E
:1048C000BD4201D8042000E002200646AF4200D9D4
:1048D0002F46B8B2A16888478046002000F002FF4A
:1048E0008146BAB20146404606F0DCFCB9B200206F
:1048F00005F0ECF82088C01B208060883844608078
:1049000030200949088000020849088000BF024998
:1049100009680E72BDE8F087200800201808002002
:10492000505C004000600040320800203008002049
:104930002DE9F0412948006800F110042588A0689D
:10494000C0B1BDB1A688AE4200D92E46B0B2A168B2
:10495000884707462088801B20806088304460801C
:10496000002000F09BFE8046B2B20146384602F0BD
:10497000B9FC00BF208850B14FF44050184908805E
:104980000021084605F0A2F830201649088020884A
:10499000A188884204DB03201049096808721AE0E4
:1049A0002088002804DD05200C490968087212E0FF
:1049B000208880B9062009490968087200210A4840
:1049C000006880B200F10200084A42F810104FF06F
:1049D000300004490880BDE8F08100002008002074
:1049E0003008002032080020505C00400060004089
:1049F0002DE9F05F9948006846780024A146062E0C
:104A00001AD196480068007810F07F0F13D19349AF
:104A100009688878012803D191490968CC690AE0BE
:104A2000022803D18E4909680C6A04E0032802D1E8
:104A30008B4909684C6A94E0002E64D1874800686D
:104A4000408800285FD185480068C08802285AD174
:104A5000824800680079002855D1804800680078B5
:104A600010F07F0F05D17D480068808808B97D4C23
:104A700077E07A480068007800F07F00012810D1C4
:104A8000764909684879764909688A69002190471A
:104A9000002866D171480068807A002861D0714C86
:104AA0005FE06E480068007800F07F00022858D16F
:104AB0006A480068407900F00F076848006840794C
:104AC00000F0700865480068407910F0800F07D04A
:104AD000654800EB8700D0F8000C00F0300A06E0D3
:104AE000614800EB8700D0F8000C00F4405A5F48A2
:104AF0000078B84235D9B8F1000F32D1BAF1000FC1
:104B00002FD0584C2DE0082E07D15448006800786B
:104B100010F07F0F25D1564C23E00A2E21D14F48AB
:104B20000068007800F07F0001281AD14B48006827
:104B3000807AB0B149480068408890B94748006819
:104B4000007970B945480068C088012809D14349F7
:104B500009684879424909688A690021904700B983
:104B6000444C54B13D480068A0F812903B4800689E
:104B700084610020A04700250FE0384A1268507871
:104B8000374A1268116988470546032D05D1092067
:104B9000324909680872BDE8F09F30480068008A11
:104BA000A0F57F41FF3904D109202C49096808721A
:104BB000F1E7022D03D029480068008A20B90820B7
:104BC000264909680872E6E724480068007810F072
:104BD000800F3BD021480068B0F806B01F4800683D
:104BE000008A584504D91D490968A1F810B023E08E
:104BF0001A480068008A19490968C98888421BDA7E
:104C000016480068008A1649096891F82C108842F5
:104C100003DA0020184908700EE010480068008A86
:104C20000F49096891F82C1090FBF1F201FB12007A
:104C300010B90120104908700948006890F82C103C
:104C4000064800688182FFF711FE06E00320034951
:104C5000096808720003094908809CE720080020C1
:104C600024080020C9A30008005000408807002045
:104C70004DA300089DA3000818080020300800205C
:104C80001CB50820FBF770FBC0B28DF802001020A5
:104C9000FBF76AFBADF800000C20FBF765FBC0B228
:104CA0008DF803009DF80200012817D09DF802003E
:104CB000032813D09DF8020005280FD09DF80200AC
:104CC00007280BD09DF80200082807D09DF80200A5
:104CD0000A2803D09DF802000C2824D19DF8030077
:104CE0001F2806DA9DF80300401CC0B28DF80300AF
:104CF00074E09DF802000C2809D09DF80200401CC9
:104D0000C0B28DF8020001208DF8030066E001209A
:104D10008DF802008DF80300BDF80000401C80B241
:104D2000ADF800005AE09DF8020004280BD09DF871
:104D30000200062807D09DF80200092803D09DF83C
:104D400002000B2814D19DF803001E2806DA9DF8F6
:104D50000300401CC0B28DF803003FE09DF8020044
:104D6000401CC0B28DF8020001208DF8030035E030
:104D70009DF80200022831D19DF803001C2806DAB4
:104D80009DF80300401CC0B28DF8030026E09DF89A
:104D900003001C2815D1BDF80000FEF761FA30B100
:104DA0009DF80300401CC0B28DF8030016E09DF88A
:104DB0000200401CC0B28DF8020001208DF80300F3
:104DC0000CE09DF803001D2808D19DF80200401C4E
:104DD000C0B28DF8020001208DF803009DF802108A
:104DE0000820FBF7C9FA9DF803100C20FBF7C4FA62
:104DF000BDF800101020FBF7BFFA1CBD70477CB552
:104E000004460D46002603E0A05DA855701C46B27E
:104E1000082EF9DB284607F04FF80F2607E0F3B21B
:104E20002A46694601A807F07FF9701E46B2002E97
:104E3000F5DA294601A807F0B9F9284607F0CEF8B7
:104E40007CBD70B5044600260AE0002504E0012080
:104E500000F009F8681C85B2642DF8DB701C86B27E
:104E6000A642F2DB70BD002207E0002101E04B1CEE
:104E700099B25A29FBDB531C9AB28242F5DB704788
:104E80002DE9FC4104460D4616461F46102D02D062
:104E90000020BDE8FC81204604F076FE0822314661
:104EA0006846FBF73BF93946684600F0EFF8082200
:104EB00039466846FBF732F904F1080004F064FE55
:104EC00039466846FFF79BFF204604F05DFE082246
:104ED00039466846FBF722F93946684600F0D6F8AD
:104EE0000120D6E710B504466321232002F096FE88
:104EF0003F21122002F092FE0721222002F08EFEB6
:104F0000CA2006490870084644701E220220FFF796
:104F100017F908B9012010BD0020FCE79D12002000
:104F20002DE9F04104460E4615461F46012F04D0D8
:104F3000022F08D0032F12D10BE011A2214600202E
:104F400000F06EFF0CE012A22146002000F068FF86
:104F500006E013A22146002000F062FF00E000BF3F
:104F600000BFC5F10E01C8B23246214600F058FF1D
:104F70000FA22146002000F053FFBDE8F0810000A1
:104F8000202020202020202020202020B4CE00001F
:104F9000202020202020202020202020D4AA000013
:104FA000202020202020202020202020B1B600001A
:104FB000CFFBB7D13A00000000B585B01949887819
:104FC0006946FBF712FA1749C8780DF10301FBF7A0
:104FD0000CFA2D208DF80300124908790DF1060115
:104FE000FBF703FA0F4948790DF10901FBF7FDF9C9
:104FF0000C49887903A9FBF7F8F920208DF80F00F8
:105000008DF806008DF800003A208DF80C008DF820
:10501000090000208DF810006A46012100F000FF11
:1050200005B000BDFC05002010B5AE21002006F043
:10503000D5FA10BD10B5AF21002006F0CFFA10BD93
:1050400000200149086070473807002010B505208E
:105050000A4908700A48007858B90A480A4A12688A
:105060008118032006F0EEF807490968084406494C
:105070000860032004F000FD10BD0000C005002002
:10508000A5050020480C0020340700207CB504460C
:105090000D46002603E0A05DA855701CC6B2082E80
:1050A000F9DB284606F008FF002607E033462A46CB
:1050B000694601A807F038F8701CC6B2102EF5DB5F
:1050C000294601A807F072F8284606F087FF7CBD44
:1050D00010B5FBF7A1F91048007850B10E480078E0
:1050E000012806D00C480078022802D00A200A497C
:1050F0000870012009490870002009490860094921
:1051000008600949086009490870012008490870C9
:10511000801E0849086010BD060600200806002011
:1051200014060020180600201006002009060020A2
:10513000E20500201C06002010B5FBF76DF92A4897
:1051400000881138062846D2DFE800F0030E192443
:105150002F3A26A20021084600F062FE27A2012174
:10516000002000F05DFE3CE027A20021084600F090
:1051700057FE29A20121002000F052FE31E029A2B1
:105180000021084600F04CFE2AA20121002000F078
:1051900047FE26E02AA20021084600F041FE2CA28C
:1051A0000121002000F03CFE1BE02CA2002108465B
:1051B00000F036FE2DA20121002000F031FE10E0AB
:1051C0002FA20021084600F02BFE31A20121002071
:1051D00000F026FE05E031A20121002000F020FEB3
:1051E00000BF00BF10BD0000C20500204572726FF5
:1051F000723A20303031310000000000BFA8CEB438
:10520000C6F4D3C3210000004572726F723A203099
:105210003031320000000000BFA8D2D1B9FDC6DA9B
:10522000210000004572726F723A20303031330035
:1052300000000000BADAC3FBB5A5BFA8210000003A
:105240004572726F723A2030303134000000000035
:10525000B4EDCEF3BFA8BAC5210000004572726F4D
:10526000723A20303031350000000000504F53209A
:10527000C1F7CBAEBAC5B2BBB7FB2100000000003E
:105280004572726F723A20303031360000000000F3
:10529000B4EDCEF3D7B4CCAC21000000BAF3CCA867
:1052A000B7B5BBD8B4EDCEF32100000005490968BD
:1052B00021F01001034A1160114609680143116091
:1052C00070470000002002400021034A116801F0ED
:1052D00038010143116070470020024008B54FF4C7
:1052E0002040ADF8000001208DF8020010208DF85C
:1052F00003006946104800F0EFF84FF48040ADF825
:10530000000001208DF8020004208DF8030069469A
:10531000094800F0E1F8C020ADF8000001208DF848
:10532000020010208DF803006946044800F0D4F80C
:1053300000F08AFC08BD0000000C01400010014094
:1053400010B58021002002F069FC00240AE0012051
:1053500002F02AFC28B90021084602F05FFC012077
:1053600010BD641C40F6FF708442F0D30020F7E7C4
:1053700070B504460D460026012C01D146F01006FA
:10538000012D01D146F0040646F02001002006F070
:1053900025F970BDF8B505460F46002605E03446F0
:1053A000B85D00B903E0701CC6B2102EF7DD00BF77
:1053B00004EBD4714910A4EB4101012901D1601C17
:1053C000C4B2002612E007EB46010222684606F04E
:1053D00091FEBDF8000000F00FF8009005EB4600CC
:1053E0000222694606F086FE701CC6B2B6EB640F58
:1053F000E9DB00202855F8BD2DE9F84F0446200AC6
:10540000A12802DBE0B2A12801DA27464EE0200AFB
:10541000A12827DB200AB02824DA200AA138C0EB13
:10542000001101EB4010E1B201EB4000A0F1A10A34
:10543000CAF316201FFA80F840F2FF1101EA4A0968
:1054400008F6A25188B202236A46494603F0ECF8F6
:10545000BDF80000050ABDF80000C6B205EB062045
:1054600087B223E0200AA738C0EB001101EB4010FF
:10547000E1B201EB4000A0F1A10ACAF316201FFA25
:1054800080F840F2FF1101EA4A0908F6A25188B2F9
:1054900002236A46494603F0C7F8BDF80000050A32
:1054A000BDF80000C6B205EB062087B23846BDE85D
:1054B000F88F000008B543F20800ADF800000120A5
:1054C0008DF8020010208DF803006946014800F0B5
:1054D00003F808BD001001402DE9F041002200232F
:1054E000002400250026002791F803C00CF00F02CD
:1054F00091F803C01CF0100F03D091F802C04CEAE1
:105500000202B1F800C01CF0FF0F31D00668002481
:105510002BE04FF0010C0CFA04F5B1F800C00CEAD6
:105520000503AB4220D1A5004FF00F0C0CFA05F794
:10553000BE4302FA05FC4CEA060691F803C0BCF132
:10554000280F06D14FF0010C0CFA04FCC0F814C06F
:105550000AE091F803C0BCF1480F05D14FF0010CEF
:105560000CFA04FCC0F810C0641C082CD1D30660EF
:10557000B1F800C0BCF1FF0F34DD466800242EE016
:1055800004F1080C4FF0010808FA0CF5B1F800C05E
:105590000CEA0503AB4221D1A5004FF00F0C0CFA29
:1055A00005F7BE4302FA05FC4CEA060691F803C073
:1055B000BCF1280F05D104F1080C08FA0CF8C0F86A
:1055C000148091F803C0BCF1480F07D104F1080C16
:1055D0004FF0010808FA0CF8C0F81080641C082C81
:1055E000CED34660BDE8F0810246002093680B42AE
:1055F00001D0012000E00020704741617047016147
:1056000070470000F0B502460020002611E0054674
:10561000C71700EB1767C7F307230506280C945D2F
:1056200083EA0405064F57F825504540A8B2751C7B
:10563000AEB20D00A1F10107B9B2E8D1F0BD000092
:10564000B4C500081FB5114901A81CC91CC0002021
:1056500000900A236A46072101A804F0BDF898B912
:105660000B480088001F0B49085C90280CD10848A3
:105670000088C01E085C38B90422491D064806F09F
:1056800039FD002004B010BD0120FBE7B4C90008BB
:10569000E00500203C1100201806002001460648C5
:1056A000006880B200EBC10000F10400034A52F828
:1056B000100080B270470000505C00400060004065
:1056C00001460648006880B200EBC10000F1060008
:1056D000034A52F81000C0F309007047505C0040C4
:1056E0000060004001460548006880B200EBC10040
:1056F000034A52F8100080B270470000505C00402E
:10570000006000402DE9F04FC7B004460D46164634
:105710001F46DDF840814FF00009CA462CB108222F
:10572000214601A8FAF7FAFC03E001A800210A4685
:1057300006C04246394607A8FAF7F0FC4FEAE8717E
:1057400008EB5171C910B8EBC1010BD1802007A93A
:1057500001F8080007AA08F1010150180721FAF71B
:10576000F6FC1BE0802007A901F8080008F1010001
:10577000C11700EB5171C910B0EBC1010ED08346C7
:105780004FEAEB720BEB5272D210ABEBC202C2F1DA
:10579000080107AB02469818FAF7D9FC284604F02E
:1057A000F3F94FF0000920E04FF0000A0EE00AEB99
:1057B000C90007A9085C01A911F80A10484005A909
:1057C00001F80A000AF1010000F0FF0ABAF1080F1F
:1057D000EDDB03A905A8FFF759FCDDE90301CDE9DD
:1057E000010109F1010000F0FF094FEAE87108EB3F
:1057F0005171012202EBE1014945D5DC102E16D191
:1058000005F1080004F0C0F9DDE90101CDE9050169
:1058100003A905A8FFF7F3FADDE90301CDE90501C6
:10582000284604F0B1F903A905A8FFF72FFC0422CC
:1058300003A95198FAF772FC47B0BDE8F08F000059
:1058400000B5C7B003208DF8140000208DF81500B6
:10585000A4218DF8161000218DF817108DF818105E
:1058600002218DF819103F218DF81A1000218DF8B2
:105870001B1005A8FEF71CFE10B1022047B000BDAA
:1058800002208DF8140000208DF81500B0218DF84D
:10589000161095218DF8171000218DF818100E2183
:1058A0008DF8191101A905A8FEF702FE08B105201F
:1058B000E4E70A2201A91E48FAF730FC02208DF81D
:1058C000140000208DF81500B0218DF816109621D7
:1058D0008DF8171000218DF8181006218DF8191178
:1058E000144905A8FEF7E4FD08B10320C6E703202C
:1058F0008DF8140000208DF81500A4218DF81610E5
:1059000000218DF817108DF8181002218DF819104C
:105910003F218DF81A1001218DF81B10002105A8D8
:10592000FEF7C6FD08B10420A8E70020A6E70000A6
:10593000DD120020F20600202DE9F04188B0044677
:105940000D4616461F460822314602A8FAF7E6FB26
:105950002A46214604A8FAF7E1FB082D0AD104A83B
:1059600004F012F9394602A8FFF790FB012008B0B5
:10597000BDE8F081102D28D16B4602AA294604A863
:10598000FFF77EFA082269463846FAF7C7FB4FF060
:10599000000809E016F80800C04302A901F8080051
:1059A00008F1010000F0FF08B8F1080FF2DB6B46C8
:1059B00002AA294604A8FFF763FA0822694607F1FC
:1059C0000800FAF7ABFB0120D1E70020CFE770B564
:1059D000044602F0C1F905464FF46160B5FBF0F0F2
:1059E00020714FF46160B5FBF0F100FB11503C21D8
:1059F000B0FBF1F060714FF46160B5FBF0F100FBBA
:105A000011503C21B0FBF1F201FB1200A071082003
:105A1000FAF7AAFCA0700C20FAF7A6FCE0701020A0
:105A2000FAF7A2FC2080012070BD000010B50F4BDA
:105A300018680F4BD3F8EC170E4B1A68A8B10E4C30
:105A4000A070030A2371030CA371030E2372A172C9
:105A50000B0A23730B0CA3730B0E2374A274130A8B
:105A60002375130CA375130E237610BDE8F7FF1FE3
:105A700000F0FF1FF0F7FF1F190700202DE9F0418C
:105A800004460D4616462046E11704EB9171891035
:105A9000134A11704FF000081DE0522002F0A6FBDF
:105AA000A0B9FAF7B3FB78B903F002FE50B9324659
:105AB0002946204600F006FC10B90020BDE8F08120
:105AC000042704E0162702E0172700E0152708F155
:105AD000010000F0FF08B8F1030FDEDB3846EDE708
