:10000000021B307E11DEFEDFFA00220200CC085314
:10001000E8EF438EC075C7AA75C75543D803227F42
:020020000122BB
:100023000200C58B0200014BEC5D046005E8590436
:100033007004020001411200010C580460F4EC4802
:1000430060F0EC7004FDFEFF22C860D82481C85024
:100053000AC39860025007020001489850C6F5820F
:10006300E9294B4A7006AB820200013775F0007C28
:100073001A7880C3EF9BEE9AED99400DC3EF9BFF77
:10008300EE9AFEED99FDE842F0DC24ACF0D0E0FFFF
:10009300D0E0FED0E0FDAB8220E7101BEB60B8ECB4
:1000A3002CFCEF33FFEE33FEED33FD02000123E8BA
:1000B30003F830E705C0F075F000EF2FFFEE33FED5
:1000C300ED33FD40B730E7C180A975F020800E7590
:1000D300F010800575F0087D007E007F003392D517
:1000E30030D504120007BFEC334010EF33FFEE337B
:1000F300FEED33FDEC33FCD5F0ED22E5F0247EA2DA
:10010300D513CC92E7CDCEFF22E9D2E7C933E8334A
:10011300F892D5EDD2E7CD33EC33FC5002B2D522C1
:10012300EC30E7100FBF000C0EBE00080DBD00043D
:100133000BEB6014A2D5EB13FCED92E7FD2274FFE9
:10014300FCFDFEFF22E480F8A2D574FF13FC7D8042
:10015300E480EFF920E73624F950037907E4F42427
:1001630002FBE582158270021583DBF6E024FB5067
:100173001BE96014E4F0E582158270021583E00444
:10018300F0B40A08E4F0D9EE7401F00A22C2D522D1
:10019300ED33EC3392D5FA602AB4FF33EDC2E77B3B
:1001A3008160067A0179B8E4227A0179C120D50405
:1001B3007A0179BC224E614E002B494E46002D49EF
:1001C3004E4600E47A08F0A3DAFC7B00740722C0F1
:1001D30093C083C082ECC0E0EDC0E0EEC0E0EFC0AE
:1001E300E0EA75F010A4CAABF075F04DA42BFBE464
:1001F30035F0FCEA2410FAEB34C5FBEC34D9FCED02
:10020300C2E7FF75F056A4F42411C5F0F434C58F8A
:10021300F0A42AE5F03BE43CF020E716120004DEEC
:10022300D0E0FFD0E0FED0E0FDD0E0FC1200002BD8
:100233008016F404120004DED0E0FFD0E0FED0E02C
:10024300FDD0E0FC120003A0D082D083D093E0FA6B
:10025300EDD2E7CD33EC332482FBE4C3CF33CFCEEF
:1002630033CECD33CD33DBF37B0775F00A846004E3
:10027300F0A31B0AE5F0F0A38FF0740AA4FFACF01F
:100283008EF0740AA42CFEACF050010C8DF0740AAD
:10029300A42CFDE435F0F0A3DBDE74072202000199
:1002A30041E86480F8E933E83360110460EFED332B
:1002B300EC337009E8FCE9FDEAFEEBFF220460DDA4
:1002C300D3EB9FEA9EE99DE8C2E78CF0C2F795F075
:1002D300400CE8CCF8E9CDF9EACEFAEBCFFB1200FB
:1002E300010C85D0F05804700320D5B1E8047008E0
:1002F3005002B2D50200014B92D5EC0460F6E4CC77
:10030300C0E0C398F8603C94186009400ED0E0FB4D
:1003130002000123E4FBFAC9FC8028E830E406E488
:10032300C9FBE4CAFCE830E305E4C9CACBFCE854E2
:10033300076010F8C3E913F9EA13FAEB13FBEC13A4
:10034300FCD8F130F531C3E49CFCEF9BFFEE9AFE41
:10035300ED99FDD0E0FBEF4E4D4C701322DB040210
:10036300000148EC2CFCEF33FFEE33FEED33FDEDE3
:1003730030E7EA02000123EF2BFFEE3AFEED39FDF1
:10038300D0E0FB50140BBB00040200014BED13FD46
:10039300EE13FEEF13FFEC13FC02000123EC4D60A0
:1003A30011E8497018ED33EC3304600DE4FCFFFEF3
:1003B300FD22E933E8330470F80200014112000121
:1003C3000C58046009E4CC2481500728500B020028
:1003D300014B28400402000148C0E0EB4A7046B9D3
:1003E3008007D0E0FB02000137EF4E701DBD80088F
:1003F300EBFFEAFEE9FD80EAE98DF0A4FEE5F002F9
:1004030000048FE9CDF9EAFEEBFFEF89F0A4FCE5E8
:10041300F0CE89F0A42EFFE435F0CD89F0A42DFEB3
:10042300E435F08067EF4E7005BD80D780C2EF8B57
:10043300F0A4ACF0EE8BF0A42CFCE435F0F8EF8ADA
:10044300F0A42CE5F038FCE433CB8DF0A42CFCE5D0
:10045300F03BF8EE8AF0A42CFCE5F038F8E433CF57
:1004630089F0A42CFCE5F038CF3400CE89F0A42F1A
:10047300FFE5F03EFEE433C98DF0A42EFEE5F0392E
:10048300CD8AF0A42FFFE5F03EFEE43DFD33D0E03E
:10049300FB50080BBB00100200014BEC2CFCEF33AC
:1004A300FFEE33FEED33FD020001233F80000041E8
:1004B30020000042C80000447A0000461C40004768
:1004C300C35000497424004B1896804CBEBC205A7C
:1004D3000E1BCA6753C21C749DC5AEFB600654074E
:1004E3006020232312000511EB5438600C12000422
:1004F300FC1200050C120003A0ECF8EDF9EEFAEF84
:10050300CB22EB1200050C80F0543803241C90001E
:1005130004AEFE93FC0EEE93FD0EEE930ECE93FF10
:1005230022EB7002E72289828A831410E704F59391
:10053300E022F593E49322BB000327F722F8EB892B
:10054300828A831410E706F593E028F022F593E4FA
:10055300932822BB0002F722BB8000500989828ABC
:10056300838B931593F022EF8DF0A4A8F0CF8CF03A
:10057300A428CE8DF0A42EFE22BC000BBE0029EFD2
:100583008DF084FFADF022E4CCF875F008EF2FFF77
:10059300EE33FEEC33FCEE9DEC984005FCEE9DFE45
:1005A3000FD5F0E9E4CEFD22EDF8F5F0EE0084205E
:1005B300D21CFEADF075F008EF2FFFED33FD4007C1
:1005C300985006D5F0F222C398FD0FD5F0EA22C267
:1005D300D5EC30E709B2D5E4C39DFDE49CFCEE30D5
:1005E300E716B2D5E4C39FFFE49EFE1200057CC369
:1005F300E49DFDE49CFC80041200057C30D507C318
:10060300E49FFFE49EFE22C5F0F8A3E028F0C5F0C6
:10061300F8E582158270021583E038F022A3F8E032
:10062300C5F025F0F0E582158270021583E0C83825
:10063300F0E822EB7007E7F5F009E7192289828ACF
:10064300831410E708F593E0F5F0A3E022F593E4B3
:1006530093F5F074019322BB000B09C5F027F7C58E
:10066300F01937F722F8EB89828A831410E707F52C
:1006730093E80200060AF59374019325F0F5F0E47C
:10068300933822BB0006F709A7F01922BB8000505C
:100693000D89828A838B931593F0E5F0A3F022E80A
:1006A3008FF0A4CC8BF0A42CFCE98EF0A42CFC8A54
:1006B300F0EDA42CFCEA8EF0A4CDA8F08BF0A42DD1
:1006C300CC3825F0FDE98FF0A42CCD35F0FCEB8E72
:1006D300F0A4FEA9F0EB8FF0A4CFC5F02ECD39FE28
:1006E300E43CFCEAA42DCE35F0FDE43CFC2275F09D
:1006F30008758200EF2FFFEE33FECD33CDCC33CC24
:10070300C58233C5829BED9AEC99E58298400CF53E
:1007130082EE9BFEED9AFDEC99FC0FD5F0D6E4CE6C
:10072300FBE4CDFAE4CCF9A88222B800C1B90059A0
:10073300BA002DEC8BF084CFCECDFCE5F0CBF9786D
:1007430018EF2FFFEE33FEED33FDEC33FCEB33FB01
:1007530010D703994004EB99FB0FD8E5E4F9FA228B
:100763007818EF2FFFEE33FEED33FDEC33FCC93386
:10077300C910D7059BE99A4007EC9BFCE99AF90F4E
:10078300D8E0E4C9FAE4CCFB2275F010EF2FFFEEBA
:1007930033FEED33FDCC33CCC833C810D7079BEC05
:1007A3009AE899400AED9BFDEC9AFCE899F80FD57D
:1007B300F0DAE4CDFBE4CCFAE4C8F922C3E49FFF0A
:1007C300E49EFEE49DFDE49CFC22EB9FF5F0EA9E93
:1007D30042F0E99D42F0EC6480C864809845F022C1
:1007E300EB9FF5F0EA9E42F0E99D42F0E89C45F06C
:1007F30022E8600FECC313FCED13FDEE13FEEF13C1
:10080300FFD8F122E8600FEFC333FFEE33FEED3381
:10081300FDEC33FCD8F122EB7006E9F802000B91F2
:1008230089828A831410E706F59302000B9DF593E2
:1008330002000BA9BB0006E9F802000BE2BB800033
:10084300500C89828A838B9315930200088F22EBC5
:100853007006E9F802000BB989828A831410E7064F
:10086300F59302000BC6F59302000BD27401FF331C
:1008730095E0FEFDFC080808E62FFFF618E63EFEAD
:10088300F618E63DFDF618E63CFCF622ECF0A3ED87
:10089300F0A3EEF0A3EFF022A42582F582E5F03574
:1008A30083F58322F8E0FBA3A3E0F925F0F0E582CA
:1008B300158270021583E0FA38F022EBF0A3EAF018
:1008C300A3E9F022EB7006E9F802000BEE89828AB5
:1008D300831410E706F59302000BF7F59302000C5F
:1008E30000D093D083D082F8E49370127401937094
:1008F3000DA3A393F8740193F5828883E4737402C0
:10090300936860EFA3A3A380DFD093D083D082E466
:10091300937012740193700DA3A393F8740193F56C
:10092300828883E4737402936C70127403936D7002
:100933000C7404936E70067405936F60DDA3A3A318
:10094300A3A3A380CA8B938A838982159353937F2E
:10095300E473EF4E6022EF60010EEDBB0007F70971
:10096300DFFCA9F022BB8000500E89828A838B931F
:100973001593F0A3DFFCDEFA22EB700C87F009E697
:1009830008B5F019DFF6801589828A831410E70F02
:10099300F593E0F5F0A3E608B5F002DFF5806AF51C
:1009A30093E493F5F0A3E608B5F05EDFF4805ACB49
:1009B300701388828C838B9387F009E493A3B5F03B
:1009C30048DFF580441410E71F88848C858B958954
:1009D300828A83F593758620E0F5F0E493A3A3B5AB
:1009E300F024DFF4DEF2801E88848C858B95898267
:1009F3008A83F593758620E493F5F0E493A3A3B576
:100A0300F004DFF3DEF17586007FFFB5F0020F22FD
:100A130040027F01220200097C809488F0EF60018C
:100A23000E4E60F0ED60EE1410E7EECB701288828C
:100A33008C83F59387F009E0A3B5F0CDDFF680C989
:100A43001410E71E88848C858B9589828A83F5939D
:100A5300758620E0F5F0E0A3A3B5F0AADFF5DEF399
:100A630080A488848C858B9589828A83F593758687
:100A730020E493F5F0E0A3A3B5F08BDFF4DEF2807E
:100A830085EB7008E709F608DFFA801B89828A8301
:100A93001410E70AF593E0A3F608DFFA8009F5934B
:100AA300E493A3F608DFF9ECFAA9F0EDFB2288F052
:100AB300EF60010E4E60F088F0ED60C51410E7E7BB
:100AC300CB700E88828C838B93E709F0A3DFFA80C7
:100AD300D61410E71C88848C858B9589828A83F5CC
:100AE30093758620E0F0A3A3DFFADEF87586008015
:100AF300B688848C858B9589828A83F59375862045
:100B0300E493F0A3A3DFF9DEF77586008099EB7019
:100B130008E709F60870FA801B89828A831410E7B4
:100B23000AF593E0A3F60870FA8009F593E493A31A
:100B3300F60870F9ECFAA9F0EDFB2288F0ED60CE2F
:100B43001410E7F0CB700E88828C83F593E709F0DD
:100B5300A370FA80DF1410E71A88848C858B95893B
:100B6300828A83F593758620E0F0A3A370FA7586D5
:100B73000080C188848C858B9589828A83F59375DF
:100B83008620E493F0A3A370F975860080A6E6FCA3
:100B930008E6FD08E6FE08E6FF22E0FCA3E0FDA36D
:100BA300E0FEA3E0FF22E493FC740193FD7402933F
:100BB300FE740393FF22E6FB08E6F908E6FA08E66B
:100BC300CBF822E0F8A3E0F9A3E0FAA3E0FB22E4E8
:100BD30093F8740193F9740293FA740393FB22EC70
:100BE300F608EDF608EEF608EFF622E6FB08E6FA5D
:100BF30008E6F922E0FBA3E0FAA3E0F922E493FB81
:100C0300740193FA740293F922BB001CD093D0F0C1
:100C1300D0E0F8D0E0C9FBD0E0FAD0E0CBC8C0E028
:100C2300C0F0C09302000C60BB80005022D093D070
:100C3300F0D0E0F8D0E0C9F582D0E0CAF583D0E087
:100C4300CB14C8C0E0C0F0C0938893020008BED0A4
:100C530093D083D082D0E0D0E0D0E0E473EBF60809
:100C6300EAF608E9F622E5112453F582E43421F586
:100C730083759300E005112290002150300B0490FE
:100C8300002153E475F001120008A7020005242097
:100C930004E57F2ED2048018EF540F2490D43440FF
:100CA300D4FF30080BEF24BFB41A0050032461FFB4
:100CB300E512600215120515E51570020514300BD7
:100CC3001190002150E475F001120008A7EF020013
:100CD300055602001F827403D20B8003E4C20BF596
:100CE3001190002150120008BEE4F512F514F51519
:100CF300E51260087F2012000CB380F47513FFC265
:100D030005C204C206C207C209C20AC20C12000C01
:100D13007BFF700E300B067F0012000CC4AF15AEC4
:100D23001422B42563C2D5C20812000C7BFF24D061
:100D3300B40A00501A75F00A781230D50508B6FFC8
:100D43000106C6A426F620D5047002D20780D82453
:100D5300CFB41A00EF5004C2E5D20802001001D24A
:100D63000580C4D20480BED20680BAD2D580B8D260
:100D73000980B27F2012000CB32006077401B5125C
:100D83000040F012000C69FF12000CB302000CF3D8
:100D9300D20CD20A808F12000C69FB12000C69FA84
:100DA30012000C69F94A4B7006790E7A117B812087
:100DB300063DE51260397E00E9C0E02EF9EAC0E0A5
:100DC3003400FA12000524F9D0E0FAD0E0C9600635
:100DD3000EEE651370E2C2D5EBC0E0EAC0E0E9C0F5
:100DE300E0EE12001069D0E0F9D0E0FAD0E0FB1297
:100DF300000524FF6096EBC0E0EAC0E0E9C0E01222
:100E0300000CB3D0E02401F9D0E03400FAD0E0FBC9
:100E1300E5130460DAD513D702000D8FD206808F55
:100E23001200104560F6E51370010412000156A983
:100E330013600EE513600A14F513120010F8EF6047
:100E4300F2EA30E702F404C399400402000ED8EA40
:100E5300F425130430E701E404F513800F120010A6
:100E63004560B9EA0513251312000156EA900021E3
:100E73007FF030E701E4251304D51304200901149E
:100E830012001069E4C0E0120010F89000217FE026
:100E9300601420E70814F012000C9B802604F0D0A5
:100EA300E014C0E07F0012000C9BE5136008120001
:100EB3000C921513800D30090412000C92D0E0023D
:100EC300000CF3D0E00480BD120010456093E513DD
:100ED30004120001569000217FEAF0E51320090275
:100EE30060010424041200106974FF04C0E01200BE
:100EF30010F812000C9BE513200902600412000C89
:100F030092D0E0B513E57F4512000CA59000217F38
:100F1300E07F2B30E7047F2DF404C0E012000CB314
:100F2300D0E075F00A84C0F012000C9CD0E01200EF
:100F33000C9C02000CF3791080027908C20AC20CDF
:100F43008008D2D5790A8004790AC2D5E5130470E2
:100F530002F513E4FAFDFEFF12000C69FC7B082086
:100F6300051612000C69FD7B1030040C12000C698D
:100F7300FE12000C69FF7B20EC3382D592D550130F
:100F8300C3E43004069FFFE49EFEE42005039DFDB9
:100F9300E49CFCE4CBF8C205EC700CCFCECDCCE8DE
:100FA30024F8F870F38017C3EF33FFEE33FEED330D
:100FB300FDEC33FCEB33FB994002FB0FD8E9EB303C
:100FC3000505F8D0E0C448B205C0E00AEC4D4E4F29
:100FD30078207B0070C2EAB5130040BCC0E0120069
:100FE300106BD0F0D0E0200504C4C0E0C4B205C04B
:100FF300F012000C9CD0F0D5F0EA02000CF31200C2
:1010030008E40D99530F39580D664C0D62420F3D9C
:101013004F0F45440F45490D7C430F4B550E60461A
:101023000ECB450E2347112B500D6A2D0D6E2E0D41
:10103300952B0D72230D932011172A0D28480000BC
:101043000D8BE513B4FF0375130612000C69FC1234
:10105300000C69FD12000C69FE12000C69FF900080
:10106300217802000193790AA2D5200714300909D7
:10107300B910020404B9080104A2D5200A025001E0
:101083000420066D9206B512005036C0E07F203072
:10109300071A7F30A206720A72095010120010C498
:1010A300C206C20AC209C20C7F308010300903E9AC
:1010B300C0E012000CB3300903D0E0F9D0E0B51260
:1010C300CA3009197F30B9100D12000CB37F5830A4
:1010D30008077F788003B9080412000CB3300606B2
:1010E3007F2D02000CB37F20200CF77F2B200AF208
:1010F30022920680CC7F00B40700500E2478F5823C
:10110300E43421F583759300E0FF22286E756C6C3F
:101113002900D20512000C693005F7C20578123098
:10112300D50108F602000D2812000C697F496008FA
:101133007F4310E7027F5814C0E0EF12000CA47441
:101143003A12000CA4D0E0600DC0E0C412000C9C65
:10115300D0E012000C9CD20775120402000F392054
:10116300202020202020202020202020202020009C
:1011730000000000000000000000004F000000001D
:10118300000007000700000000147F147F14000014
:1011930000242A7F2A12000000231308646200003F
:1011A30000364955225000000000050300000000EE
:1011B30000001C2241000000000041221C0000002E
:1011C3000014083E081400000008083E0808000048
:1011D300000050300000000000080808080000006C
:1011E30000006060000000000020100804020000FE
:1011F300003E5149453E0000000000427F40000090
:101203000042615149460000002141454B31000035
:10121300001814127F1000000027454545390000CF
:10122300003C4A49493000000001017905030000F0
:10123300003649494936000000064949291E000085
:1012430000003636000000000000563600000000A3
:1012530000081422410000000014141414140000A8
:101263000000412214080000000201510906000099
:1012730000324979413E0000007E1111117E0000C9
:1012830000417F4949360000003E414141220000B0
:1012930000417E4141223C00007E4949494900000A
:1012A300007F090909010000003E4141497A00001D
:1012B300007F0808087F00000000417F4100000014
:1012C300002040413F010000007F0814224100003C
:1012D300007F404040400000007F020C027F00007E
:1012E300007F0608307F0000003E4141413E000080
:1012F300007F090909060000003E4151215E0000FC
:10130300007F091929460000002649494932000097
:101313000001017F01010000003F4040403F000009
:10132300001F2040201F0000007F2018207F0000A6
:101333000063140814630000000708700807000026
:10134300006151494543000000007F414100000016
:101353000002040810200000000041417F0000004B
:10136300000402010204000000404000404000006D
:1013730000010204000000000020545454780000CF
:10138300007F4844443800000038444444280000A7
:1013930000384444487F0000003854545418000077
:1013A3000000087E09020000000C52524C3E00006F
:1013B300007F0804047800000000447D4000000022
:1013C300002040443D00000000007F10284400003E
:1013D3000000417F40000000007C04780478000096
:1013E300007C0804047800000038444444380000BA
:1013F300007E0C12120C0000000C12120C7E000076
:10140300007C08040408000000585454546400008D
:1014130000043F4440200000003C40403C400000AA
:10142300001C2040201C0000003C4030403C0000D9
:101433000044281028440000001CA0A0907C000059
:10144300004464544C44000000000836410000008E
:101453000000007700000000000041360800000093
:10146300000201020402000000FFFFFFFFFF000073
:10147300D6D0CDBEB0CEBFA800B2BBBFC9CAB6B12D
:10148300F0BFA800BFA8C7AEB0FCB4EDCEF300CE4A
:10149300B4C9CFB4ABC1F7CBAE00C7EBB2C9BCAFD5
:1014A30000BADABFA800BFA8D2D1B9C6DA00CEDE2F
:1014B300C8A8CFDE00BFA8D3E0B6EEB2BBD7E30027
:1014C300BFA8D2D1CBF800C3E2B7D1BFA800BCC735
:1014D300C2BCD2D1C2FA00D6D8B8B4CBA2BFA8003E
:1014E300C9E8D6C3B4EDCEF300CAB1D6D3B4EDCEBA
:1014F300F300D3B2BCFEB9CAD5CF00B2BBD6A7B3F3
:10150300D6BFA8C0E0D0CD0000B4E6B4A2C8DDC108
:10151300BF00CEEFC0ED4944CEB4C9E8D6C300B195
:10152300B8B2CE00D6F7B2CEB4EDCEF300BBD6B888
:10153300B4D6F70057522053455249414C00524408
:101543002053455249414C005B25645DB4EDCEF315
:10155300C2EBA3BA25642000252E303266007265E3
:1015630061646572004550203100455044203100CC
:101573006B657900455020320045504420320045C8
:10158300502033004550442033004550203400455B
:1015930050203500312E20BAECCDE2CDA8D1B620B3
:1015A3002000322E20B4AEBFDACDA8D1B620200061
:1015B300332E2047505253CDA8D1B62020002020EF
:1015C300202020202020202020202000C9E8B1B89E
:1015D300CEEFC0ED4944002530325825303258252E
:1015E3003032582530325800CFB5CDB3CAB1BCE440
:1015F30000B5B1CCECD3AAD2B5B6EE00252E30326D
:101603006620D4AA00C7B0D2BBCCECD3AAD2B5B65D
:10161300EE00BBF9B4A1B7D1C2CA00B2C9BCAFCA0C
:10162300B1BCE4BCE4B8F400256420CCEC00C1AC4C
:10163300D0F8CBA2BFA800256420C3EB00B5B1C787
:10164300B0C1F7CBAEBAC500256C7500CEB4B2C934
:10165300BCAFBCC7C2BC00257520CCF500B3CCD051
:10166300F2B0E6B1BE00257300313030393235496E
:10167300474D00CEB4B2C9BCAFCCECCA002575202F
:10168300CCEC00BADAC3FBB5A5B0E6B1BEBAC5006F
:101693004275696C640053657020323620323031F4
:1016A300300031313A32393A333300B7FECEF1C626
:1016B300F749500025642E25642E25642E256400E9
:1016C300B7FECEF1C6F7B6CBBFDA00256400312EE4
:1016D30020CBA2BFA8CAD5B7D1202000322E20B27A
:1016E300E9D1AF20202020202000332E20CDA8D107
:1016F300B62020202020200000B00000A40000001D
:10170300DF0300001F1C1F1E1F1E1F1F1E1F1E1F87
:1017130081159781D87C8115A581DBAA8115B381B9
:10172300D62B8115C1000000010EB7000000811601
:10173300D181999E8116DF8141B48116ED81EC2B15
:10174300605A0F040001811473000281147C0003AA
:101753008114870004811492000581149D00068181
:1017630014A400078114A900088114B1000981148D
:10177300B8000A8114C3000C8114CA000D8114D16E
:10178300005A8114DA005C8114E3005B8114EC00DD
:10179300B18114F5005F8114FE00FE81150B620018
:1017A3001BE70000102120423063408450A560C62F
:1017B30070E781089129A14AB16BC18CD1ADE1CE0B
:1017C300F1EF123102103273225252B5429472F782
:1017D30062D693398318B37BA35AD3BDC39CF3FF5B
:1017E300E3DE246234430420140164E674C744A492
:1017F3005485A56AB54B85289509E5EEF5CFC5ACAB
:10180300D58D365326721611063076D766F6569561
:1018130046B4B75BA77A97198738F7DFE7FED79DFA
:10182300C7BC48C458E5688678A7084018612802F1
:101833003823C9CCD9EDE98EF9AF89489969A90A4A
:10184300B92B5AF54AD47AB76A961A710A503A33C1
:101853002A12DBFDCBDCFBBFEB9E9B798B58BB3B9A
:10186300AB1A6CA67C874CE45CC52C223C030C6051
:101873001C41EDAEFD8FCDECDDCDAD2ABD0B8D68EA
:101883009D497E976EB65ED54EF43E132E321E51A1
:101893000E70FF9FEFBEDFDDCFFCBF1BAF3A9F593A
:1018A3008F78918881A9B1CAA1EBD10CC12DF14EDA
:1018B300E16F108000A130C220E350044025704640
:1018C300606783B99398A3FBB3DAC33DD31CE37F6B
:1018D300F35E02B1129022F332D242355214627790
:1018E3007256B5EAA5CB95A88589F56EE54FD52C3B
:1018F300C50D34E224C314A00481746664475424E0
:101903004405A7DBB7FA879997B8E75FF77EC71D4A
:10191300D73C26D336F2069116B06657767646152F
:101923005634D94CC96DF90EE92F99C889E9B98A9A
:10193300A9AB584448657806682718C008E138827F
:1019430028A3CB7DDB5CEB3FFB1E8BF99BD8ABBBAA
:10195300BB9A4A755A546A377A160AF11AD02AB3CF
:101963003A92FD2EED0FDD6CCD4DBDAAAD8B9DE8FA
:101973008DC97C266C075C644C453CA22C831CE01F
:101983000CC1EF1FFF3ECF5DDF7CAF9BBFBA8FD98A
:101993009FF86E177E364E555E742E933EB20ED16F
:1019A3001EF0481DE73230303530313331C10D443C
:1019B30022D37C2F2D5C4122A0014C0006000000A5
:1019C30000000000000000000046000000000000CE
:1019D30000004200120000420C1400004122F50CEA
:1019E300004F4B0041542B4D495053454E443D2528
:1019F300642C2200220D00726563762065727231B9
:101A03000041542B4D4950505553483D25640D001A
:101A13002B4D4950525443500072656376206572D2
:101A230072330075706C6F61642072656320657238
:101A33007200646F776E6C6F616420626C6B2E2E24
:101A43002E00626C6B206572722E2E2E00696E69F9
:101A53007469616C206461696C0041540D004154E8
:101A6300206572726F72006461696C20636D6E65CC
:101A7300742E2E2E0041542B4D495043414C4C3D66
:101A8300312C22636D6E6574220D000078303000B6
:101A9300783030007830300078303000636F6E6E0D
:101AA30020737672202E2E2E0041542B4D49504F19
:101AB30050454E3D25642C25642C2225642E256437
:101AC3002E25642E2564222C25642C300D004154D0
:101AD3002B4D4950434C4F53453D25640D006D69D3
:101AE300706F70656E206572726F7200636F6E6ED9
:101AF30020636D6E6574206572720041542B4D49ED
:101B03005043414C4C3D300D0081EB8F81F0A78158
:101B1300C05081A6C08180A700000081E31181F03D
:101B23009B81C73C81F0828184F900000075C7AABC
:101B330075C755759D0275C7AA75C75575C60078D3
:101B43007FE4F6D8FD75817F02001B790200D4453E
:101B5300E493A3F85407240CC8C333C4540F44209C
:101B6300C8834004F456800146F6DFE4800C01028A
:101B730004081020408090001743E47E019360CC5A
:101B8300A3FF543F30E509541FFEE493A360010E05
:101B9300CF54E0B4E026E493FBA3E493FAA3E493E5
:101BA300F9A3E493C083C08212000556D082D08388
:101BB300A309E970010ADFEADEE880BE54C025E02C
:101BC300602B408CE493A3FAE493A3F8E493A3C8B3
:101BD300C582C8CAC583CA759300F0759300A3C8AC
:101BE300C582C8CAC583CADFE3DEE1808DE493A35F
:101BF300F8E493A34003F68001F208DFF402001B2C
:101C03007D7761697474696E672E2E2E0070726F12
:101C1300636573732E2E2E00C9E8D6C3CEEFC0EDD5
:101C23004944B3C9B9A600D0A3D7BCCAB1D6D3B36C
:101C3300ACCAB100D0A3D7BCCAB1D6D3B3C9B9A675
:101C430000636C65617220626C61636B20256300C5
:101C530070726F63657373206F6B00696E697420B4
:101C6300696E6672617265642E2E2E00B4F2BFAA8D
:101C7300BAECCDE2CAA7B0DC00696E697420706F5C
:101C8300732E2E2E00B4F2BFAA47505253CAA7B0E8
:101C9300DC00B4F2BFAAB4AEBFDACAA7B0DC00BDA1
:101CA3000020EF7F08C2A63392A500D2A6DFF6C2BA
:101CB300A67F64D2A5A2A55002DFFAD2A60000C275
:101CC300A622BD0120EF7F08C2A73392A500D2A7A9
:101CD300DFF6C2A77F64D2A5A2A55002DFFAD2A77E
:101CE3000000C2A722BD0220EF7F08C2963392A54F
:101CF30000D296DFF6C2967F64D2A5A2A55002DF7A
:101D0300FAD2960000C29622EF7F08C2973392A5BB
:101D130000D297DFF6C2977F64D2A5A2A55002DF57
:101D2300FAD2970000C29722D2A4C2A400C2A2C2D0
:101D3300A3BD0004D2A2C2A312001D4022BF001201
:101D4300D2A100D2A4008B8000C2A4C2A112001DA4
:101D53006722D2A000D2A4008B8000C2A4C2A0122A
:101D6300001D6722D2A4C2A4C2A200D2A37580FF21
:101D73007400BF0014D2A100D2A400E58000C2A465
:101D830000D2A4C2A120E7ED22D2A000D2A4000079
:101D9300E58000C2A400D2A4C2A020E7EC22BF00C9
:101DA300177D09D2A5D2A60000C2A60000D2A600C4
:101DB30020A502DDF4C2A522BF01177D09D2A5D259
:101DC300A70000C2A70000D2A70020A502DDF4C22D
:101DD300A522BF02177D09D2A5D2960000C29600A4
:101DE30000D2960020A502DDF4C2A5227D09D2A56A
:101DF300D2970000C2970000D2970020A502DDF41D
:101E0300C2A522BF00127D08D2A5C2A600A2A53397
:101E1300D2A6DDF6C2A6FF22BF01127D08D2A5C25B
:101E2300A700A2A533D2A7DDF6C2A7FF22BF0212E5
:101E33007D08D2A5C29600A2A533D296DDF6C2963E
:101E4300FF227D08D2A5C29700A2A533D297DDF663
:101E5300C297FF229000214AE0FFA3E0FEA3E0CF58
:101E630090002153F0A3EEF0A3EFF09000214DE09A
:101E7300CBF0A3E0CAF0A3E0C9F07F229000215683
:101E8300AD82AC83120005248D828C83F0A309E913
:101E930070010ADFEB9000214DE0FBA3E0FAA3E021
:101EA300F902000CD9BF000E12001E06C2A500D213
:101EB300A60000C2A622BF010E12001E06C2A50084
:101EC300D2A70000C2A722BF020E12001E06C2A59F
:101ED30000D2960000C2962212001E06C2A500D2AE
:101EE300970000C29722BADABFA800C3E2B7D1BFF6
:101EF300A800BFDBBFEE20257320D4AA00D3E0B631
:101F0300EE20257320D4AA00C1F7CBAEBAC55B255A
:101F13006C645D00C7EBD6D8CBA2000904030C05A3
:101F230006BF000AC2A500D2A600D2A50022BF01A7
:101F33000AC2A500D2A700D2A50022BF020AC2A5E9
:101F430000D29600D2A50022C2A500D29700D2A546
:101F53000022BF0009D2A500D2A600C2A522BF015C
:101F630009D2A500D2A700C2A522BF0209D2A500AB
:101F7300D29600C2A522D2A500D29700C2A522EF15
:101F8300B40A08740D12001F8E740A309811A899B0
:101F9300B8130CC2983098FDA899C298B811F630BE
:101FA30099FDC299F59922527463546D5F56455257
:101FB3005F312E3031001F1D1F1E1F1E1F1F1E1FCE
:101FC3001E1F1F1C1F1E1F1E1F1F1E1F1E1F200044
:101FD3000D0A003031323334353637383941424314
:101FE30044454600E4FFFE12000524600C0FEF7029
:101FF300010E09E970F10A80EE22253032640025D2
:102003003032580075C7AA75C75553D8FD2275C716
:10201300AA75C75543D801227E54DEFEDFFA220695
:10202300050301020304050607080990002059EE81
:10203300F0A3EFF0A3ECF0A3EDF012003F26FD8C2C
:1020430083759300240712003DF9742212003E9019
:10205300240812003DF9744212003E90241212002B
:102063003DF912003E8A12003DF7E412003E90242F
:102073000F12003DF9E4F0740512003E8F240D1297
:10208300003DF9E4F0A37420F07B817A1C79047D90
:102093000AE4FF01350012003D9B12004168240F42
:1020A30012003DF9E4F0A3740AF012003DC61200D9
:1020B3003DF7E4F09000205BE0FCA3E08C83759394
:1020C30000240C12003E3EEF700D7D037F051200CD
:1020D300E7E950C27FA02212003D9B120041682411
:1020E3000B12003DF9E4F0A37420F0C203C201E433
:1020F30012003F40F012003DC612003D5EFF240374
:10210300F8E69000205DF0EF240412003F857B8108
:102113007A1C7910120035FE9000205DE012000851
:10212300E42FB25530BA562536A12DE6B12726B293
:1021330031EAB329D4B43314B52F4BB63160B73376
:10214300B9B828AFB92218C22311C322AAC421588F
:10215300C50000346212003F4CFB8A8312003D5BD2
:10216300240412003F8530E059E4FF120040CE12F0
:10217300003FE9240812003D609000211412003E44
:1021830008120035AC6401600301342C12003D9B3E
:1021930012003E6712003D6012003DC112003D5E19
:1021A300240612003E219000206CE02404F09000ED
:1021B300206B12003D9712003E6812003D60120032
:1021C3003EFC9000205FE020E10301272112003D47
:1021D3009B12003E6812003D601200362CEF640132
:1021E300600301245312003D9B12003E6712003D21
:1021F3006012003DC112003D5E2406FF1200416FD4
:102203002F7F0712003E239000206CE0240712006A
:10221300417601272112003D51FF2404F8E6B499C9
:1022230009EF2405F8E6640860030133D812003D82
:102233009BFF12003D59240A12003DC124081200DD
:102243003D6012003E2112003D9B12003E681200C9
:102253003D607A00F97B00C003C001120040081200
:10226300003E0AD001D0037D0412003614FF120091
:102273003F7A740812003DB0240812003D6012003A
:102283003E04120035C16401600301342C12003D89
:102293009B12003E6812003D6012003EFC7B817A77
:1022A3001C791B7D01805412003D9BFF12003D5998
:1022B300240312003DC1240812003D607F0C12006C
:1022C3003E5C12003D9B1200357640187B817A1CE0
:1022D300792A7D037F011200D9959000205E74A1B5
:1022E300F001346512003D5112003F101200625696
:1022F300EF60117B817A1C79377D037F011200D94E
:10230300950133B59000205E74FFF001346512002F
:102313003D9B120035764003012FBC9000205FE007
:10232300FF64016008EF640260030133D812003DCB
:102333005112003F826008E0640160030133D8EF6B
:10234300240612003F3AEFF0640E6003012E067F6D
:1023530040120040CD741812003DB0240812003D15
:1023630060F99000211412003E09120035AC64019B
:10237300600301342C9000205E7401F0D20212003D
:102383003D9B12003E6812003D60FF2416F8E66490
:1023930055704CEF2417F8E664AA70439000205957
:1023A300A3E0FF12003D59240C12003DC124081282
:1023B300003D6024067F0812003F65EF7002C202F1
:1023C30012003D9BFF12003D5912003DBF2408122D
:1023D300003D6012003F63120041804002C20220B0
:1023E300020301248112003D9BFF12003D5912009C
:1023F3003DBF240812003D607F0E12003F2F1200E4
:102403003D9B12003E6812003D60FF12003F10EF3B
:10241300240E7F0812003F2F12003D9B12003E67DF
:1024230012003D602416F8765512003DC6240812AA
:10243300003D602417F876AA7F4012003F79741894
:1024430012003DB0240812003D601200352D6007D4
:102453009000205E01342C12003D9B12003E681256
:10246300003D6012003F10900020727401F0A374CD
:102473000CF0A37416F01200E93512004023120089
:1024830040E6600301252B7F109000211312003DCD
:10249300AB240812003D60F99000211412003E099C
:1024A3001200359260079000205E01342C12003D2B
:1024B3009B12003E6812003D607A00F97B002406FF
:1024C3007F0612003E5C7E007F077D0012003DB157
:1024D300240812003D6024101200402A12003D9B84
:1024E30012003E6812003D60120035418C831200D9
:1024F3003D5B12003507240812003D601200352DA4
:1025030060079000205E01342C12003DA4240812C1
:10251300003D6012003E041200358A6007900020DF
:102523005E01342C12004023E412003F40F0D2013C
:10253300013465C20212003F26FD120040EE120074
:102543003DF912003E8A241412003DF97404F0A3ED
:10255300E412003E9012003D5E240412003F3AEF65
:10256300F090002059703212003D55FF2405F8E623
:10257300FDE412003F40EDF0D202EF1200403312AF
:1025830000ECC412003EBA9000206CE02400FF90DF
:1025930000206BE03401FE801912003D5512003F0C
:1025A300101200ECC412003EBA9000206BE0FEA3B0
:1025B300E0FF12003F268C83759300241412003D24
:1025C300F9EEF0A3EFF0E4FFFE7D08FC900020603D
:1025D30012003E3312003FE3502B12003D9B1200CA
:1025E300403B12003D60FEA3E0FF120040F6E0F81E
:1025F300A3A3A3E012003FCFE4FBFA7908F8D312B8
:102603000007E350030133D890002060A3A3A3E0A5
:10261300540FFFE4FEFDFCFBFAF9F8C3120007E3D5
:102623006003012E0612003D9B1200403B12003D49
:1026330060FAA3E0FBD39438EA9400503612003ECC
:1026430011EB12003F478A8312003D5B2406F99089
:1026530000211412003E09120035926007900020F9
:102663005E01342CC20312003D9B12003DF2E4F0E4
:1026730001270B12003D9B12003DF27401F0D203BF
:1026830012003FF612003D9B1200403B12003D60DA
:10269300120040115072C3EF9DFFEE9CFEC3EF94F6
:1026A30040EE940040047F40800090002068EFF0EB
:1026B30012003E1A120040F612003E3312003FCFC2
:1026C30090002068E09000211312003DB024121204
:1026D300003D60FAA3E090002069120040A790003B
:1026E300211412003EAC120035CC60099000205E2C
:1026F30074B1F0801390002068E0FF9000206AE03E
:102703002F1200404301268712003D9B1200403BDD
:1027130012003D60FFA3E0CF120040BFEFF0D201F3
:102723000133B512003D9B120035804003012FBCDD
:102733007F60120040CD742012003DB024081200C7
:102743003D60F99000211412003E09120035CC605F
:10275300079000205E01342C9000205FE07022126D
:10276300003D9BFF12003D59240612003DC1240881
:1027730012003D6012003F63120041804003012AB2
:102783002F12003D51120035DC12003EBA7FA07EAD
:10279300867D017C009000206012003E33FBD31243
:1027A3000007E34003012E0612003D51F9240FF800
:1027B300E6D394604003012E06E9120035E8900049
:1027C3002069EEF0A3EFF0E4FCFD7B407A7E79050F
:1027D300F8C3120007CD40109000206AE0943C90AB
:1027E300002069E094005003012E067E007F207DC7
:1027F300FF12003DB1240812003D601200402A126E
:10280300003D9BFF12003D59240612003DC12408E0
:1028130012003D60F87C007D007F0C120040E01246
:10282300003D9B12003E6812003D60F97A007B0078
:102833007D1E7C00120035608C8375930024081282
:10284300003D60241EF97A007B001200EE317F60A8
:1028530012003F79742012003DB0240812003D603D
:1028630012003E041200358A60079000205E013496
:102873002C12003D51240678307C0C7F0612003D5B
:1028830044120035DC90000C361200088F12003D14
:1028930051FF240FF8E690000C3CF0EF120035E8EE
:1028A30090000C3AEEF0A3EFF00133B512003D9B1C
:1028B300120035804003012FBC12003FDB6003018F
:1028C30033D81200404D12003D9AFF12003D5912B9
:1028D300003DBF241212003D6012003DDFA8077FB8
:1028E3003912003F7012003D9B12003EC312003D9F
:1028F300601200418712003DE3CF2439CF3400A892
:10290300077FC712003F7012003FF612004057C303
:10291300EE940150471200408012003F26120040FF
:10292300EE12003D60FCA3E0FD8C831200415E12B9
:10293300003D65C3940640121200405712004080C8
:1029430012003E9112003F1AE4F09000206AE00466
:10295300F0700790002069E004F080AF12003FF6AA
:1029630012004057C3EE94015048EF24C0FFEE34E9
:102973000EFEE43403FDE433FC9000211374401293
:10298300003DB0241212003D60FAA3E09000206DD8
:10299300120040A712003E9B120035C1640160057E
:1029A30074B1F0800D9000206AE02440120040438F
:1029B30080AE12003D9B12003EC312003D60120028
:1029C3003DDF78707C0D120040FE7E017F00012FF9
:1029D300A712003D9B1200359A400D12003D9B1239
:1029E300003DF2E4F00133C812003F4CFB8A83122E
:1029F300003DF4E4F07F807E0D7D0312003EB912AA
:102A0300003FDB603190000C49E0602A12003FEC8C
:102A130012003D5E12004033784A7C0C7D017E003B
:102A23007F0612000A1E12004180400A9000205EB9
:102A33007401F00134651200404DF012003D511253
:102A4300003F8264016003012AFD12003F26FD124C
:102A5300003F0F12003E91241212003D6012003D10
:102A63006C12003EC212003D6012004106C083C0DA
:102A73008212003E7B12004191D082D08312003F2C
:102A8300557455F012003DC6241212003D60120029
:102A9300410EC083C08212003E7B12004198D08257
:102AA300D08312003F1874AA12003D9AFF12003D12
:102AB30059240C12003DC1241212003D6012003D46
:102AC300DF7E0012003E701200406112003D921240
:102AD300003EC312003D6012003DDFA807FC7D01EC
:102AE3007B017A0C79707E017F0012003FC52400C0
:102AF3001200419F3401F0012C8D9000205FE064AF
:102B0300026003012BD712003D9BFF12003D5912B7
:102B1300003DBF241212003D6012003D6C12003EC6
:102B2300C212003D6012004106C083C08212003E03
:102B33007B12004191D082D08312003F557455F02F
:102B430012003DC6241212003D601200410EC083E4
:102B5300C08212003E7B12004198D082D0831200C3
:102B63003F1874AA12003D9A12003EC312003D6042
:102B730012003DDFA807FC7D017B017A0C79507EB2
:102B83000012003E751200406112003D92FF1200D8
:102B93003D59240D12003DC1241212003D60120064
:102BA3003DDFA8077F3312003FC0243312003D925C
:102BB30012003EC312003D601200418712003DE344
:102BC300A8077FCD12003FC024CD1200419F3400DF
:102BD300F0012C8D9000205FE064036003012C8AD8
:102BE30012003D9B12003EC212003D60FCA3E02494
:102BF300041200411612003DC6241212003D601259
:102C0300003D6C12003EC212003D6012004106C03E
:102C130083C08212003E7B12004191D082D0831286
:102C2300003F557455F012003DC6241212003D605A
:102C33001200410EC083C08212003E7B12004198F5
:102C4300D082D08312003F1874AA12003D9A12005A
:102C53003EC212003D60FCA3E0240A12004116129A
:102C6300003DC6241212003D6012003DDF7E0112BA
:102C7300003E70120040611200419F3401F0900049
:102C83000C497401F080030133D89000206B740168
:102C9300F0A3742812003D9A12003EC312003D6057
:102CA300FEA3E02400FFEE3402FAA9077B017D288E
:102CB3007C0112003560120040EE12003D60FCA35F
:102CC300E02400FDEC3402FC9000206CE02DFD902C
:102CD30000206BE0120041181200EE319000206CCE
:102CE300E024021200417612003FF69000206BE0D0
:102CF30012004011506EC39000206CE09DFF9000C5
:102D0300206BE09CFEC3EF9420EE940040047F20F0
:102D1300800090002068EFF012003E1A120040F687
:102D230012003E3312003FCF90002068E090002154
:102D33001312003DB0241212003D60FAA3E02400F8
:102D4300FBEA340212003E9B120035A46009900096
:102D5300205E74B1F0800D9000206AE02420120000
:102D6300404380871200404D12003D9A12003EC33B
:102D730012003D6012003DDFFAA9077B01784A7C0F
:102D83000C7F0612003F079000206EE0240812001B
:102D93003D9212003EC312003D6012003DDF7850A9
:102DA3007C0C120040FE7E0012003E751200406152
:102DB30012003D9212003EC312003D6012003DDF3F
:102DC300FAA9077B0178707C0C7D017E017F0012DC
:102DD300000AB1E412003F40F09000205EF0C2010F
:102DE3000134659000205FE0B4550D12003D51FFA2
:102DF3002405F8E664AA60028009EF2406F8E66475
:102E030006600A9000205E74A4F00134657E007FA2
:102E1300027D0012003DB1240812003D6012004003
:102E23002A120040B512003DB1240812003D60F99A
:102E33007A007B001200E8B112003D9B12003E684D
:102E430012003D607A00F97B00C003C00124031225
:102E530000400A12003E0AD001D003120035B7FF2A
:102E6300FEFDFC12003DB1240812003D6012003F3C
:102E7300101200E8B112003D9B12003E6812003DA3
:102E830060FF12003F10C003C001EF24091200408D
:102E93000A12003E0AD001D003120035B7FFFEFD2F
:102EA300FC12003DB1240812003D60240CF97A00A5
:102EB3007B001200E5DF12003D9B12003E6712000B
:102EC3003D602417F876FF12003DC6240812003D2A
:102ED30060120035418C83759300240812003D6015
:102EE30012003507240812003D6012003E04120050
:102EF30035A460079000205E01342C12003DA42409
:102F03000812003D6012003E04120035D4600790A1
:102F130000205E01342C90000C2712003F8D12001C
:102F230040B590000C231200088F90000C41120052
:102F33003F8D90000C2274FFF0E4FFFEFDFC900037
:102F43000C2B1200088F806012003F4CFB8A831207
:102F5300003D5BF9240512003F3AEFF0D39410EEE5
:102F6300940040030133D81200416F240629F8E48A
:102F7300F67FD012003F7A12003FE912003D5E2433
:102F83000612003E04120035D460079000205E0153
:102F9300342C12003D5112003F1078B77C0E7D0196
:102FA3007E007F1012000AB1120040230133091280
:102FB300003D9B1200359A40030133C8E4FFFEFD38
:102FC30012003EB99000205FE070381200D05CEF31
:102FD3004E700A9000205E745DF0013465E4FFFEDC
:102FE300FDFC90000C2712003E3312003FE37009F2
:102FF3007FC07E107D03FC803490000C2712003EBE
:1030030015802A120040E6702A12003D51FF240564
:10301300F8E6640460030133D812003F0F12003650
:10302300079000206412003E151200B0DC12003E2F
:10303300BA80030133D89000206012003E2E1200A4
:103043003FE36015120040B590002060E0F8A3A3B1
:10305300A3E0C3120007E350030133D812003E116B
:1030630090002113744012003DB0241212003D6001
:10307300FAA3E0F99000211412003EAF1200361CAF
:1030830060079000205E01342C12003D9BFF12006C
:103093003DF27401F012003DC6241412003DF9E420
:1030A300F0A37440F0120040BE7440F012004023BD
:1030B300D201D203013465120040E660030133D824
:1030C30012003D51FF2405F8E6640460030133D880
:1030D30012003F0F1200360790000C2712003E1516
:1030E30090002113744012003DB0241212003D6081
:1030F300FAA3E0F99000211412003EAF1200361C2F
:1031030060079000205E01342C12003D9B12003EAC
:10311300C312003D60FEA3E02405FFE43EFAA907C5
:103123007B011200E9F612003EBA900020641200FF
:103133003E159000206012003E3312003FE3600A08
:103143009000205E745EF0013465120092CB120091
:1031530041A66003013465D201E401330912003D45
:103163009B120035F440030133C81200EFD0120064
:103173003D9B12003E6812003D601200362C120087
:103183003D9B12003E6812003D60FF12004157C094
:1031930003C001EF1200400812003E0AD001D00321
:1031A3007D03120036147F8012003F7A74061200EA
:1031B3003DB0240812003D600412003E04120036A4
:1031C3002460079000205E01342CE490000C3DF055
:1031D3009000205EF0C20112003F40F07D647F0B3F
:1031E3001200B32401346512003D9B120035F440F4
:1031F300030133C812003FDB6003013292FE7F20DC
:10320300FD1200407912000955E47F207E01FD8004
:10321300787F3F7E0D7D037C009000206012003E8E
:103223003312003FE3400301346512003E11900066
:103233002113742012003EE412003624600790002C
:10324300205E01342C7B817A1C794412003E117874
:1032530005120007F4EF5403FFE4FE74D32FF58245
:10326300EE342212003D65900020DFF0120035FE9F
:1032730090002060E0FCA3E0FDA3E0FEA3E0242097
:10328300FFE43EFEE43DFDE43C12003EB980829043
:1032930000205FE0707812003D5112003F83D39409
:1032A3000A40030133D8E490002068F01200411F64
:1032B300FEC39F502B12003F268C8312003D5B24DC
:1032C3000DFFEE25E025E02FF97A007B001200AE1A
:1032D30085120041A6700990002068E004F080CCBC
:1032E3001200411FC39F500301346512003D511268
:1032F3000040331200D90A120041A660030134656D
:1033030012004023C20112003F40F0013465013333
:10331300D812003FDB60030133D87F607E0D7D034D
:103323007C00740A12003F478A8312003D5B240627
:10333300F99000211412003E0912006D3FEF640161
:1033430060079000205E01342C12003D51FF240DD4
:10335300F8E6B45509EF240EF8E664AA6002803556
:1033630012003D5112003F107D067C001200E86FF1
:1033730012003F268C8312003D5BFE240CF8E66F9F
:10338300601E90000002EE12003F107D00AE83AF7E
:10339300821200095512003D51240CF876AA8009C7
:1033A30012003D51240CF876FFD201120040BE7486
:1033B30007F0E401345B12003D9BAA06F97B01127E
:1033C30000BF6B400A9000205E74A5F001346512C3
:1033D300003FDB600A9000205E745CF001346512EC
:1033E300003D51FF12004033C003C001EF240D1212
:1033F30000400A12003E0AD001D0037D067C001271
:1034030000E75EE47FF012003F7A740C12003F4B3A
:103413008A8312003D5B240712003E04120054D637
:10342300EF640160099000205E74B1F080341200F3
:103433003D51240778FB7C0E7F0412003D44240B8E
:10344300F97A007B001200EF7690000EFFEEF0A3F6
:10345300EFF0E412003F40F09000205EF080037F25
:10346300A3229000205DE0FF12003F26FD8C831213
:10347300003D5B2403F8A6079000205EE0FF1200E6
:103483003E9112003D5E2404F8A607200332120089
:103493003D51F97A007B001200416FFDA2019204B5
:1034A3001200AC1090002068EFF0FD12003D9B125B
:1034B300004168240912003DF9E4F0A3F0FC8020E8
:1034C30012003D9BAA06F97B011200408FA20192D4
:1034D300041200A2A4501C12003D9BFF1200408F57
:1034E3009000205BE0FAA3E08A8375930024061220
:1034F300003E3E7B817A1C7953E4FD7F011200D9A3
:10350300950120992418F97A007B001200EE31E42A
:103513007F10FEFDFC90002113741AF090002059D7
:10352300E0FAA3E08A8375930022F990002114E462
:10353300F0A3F0A3E9F0120054D6EF640122F97A64
:10354300007B007D187C001200E0A890002069EE4B
:10355300F0A3EFF090002059E0FCA3E0221200E07A
:10356300A890002069EEF0A3EFF090002059E0FC52
:10357300A3E022AA06F97B011200BF6B22AA06F977
:103583007B011200BF6B22120054D6EF640122129A
:10359300006D3FEF640122AA06F97B011200BF6BA5
:1035A30022120054D6EF64012212006D3F900020D6
:1035B3005EEFF0227D037C001200E75EE42212003E
:1035C30054D69000205EEFF02212006D3FEF6401AD
:1035D30022120054D6EF640122240CF97A007B00F6
:1035E3001200ECC4222410F97A007B001200EF765B
:1035F30022AA06F97B011200BF6B22E4FD7F0112B0
:1036030000D995221200E9F6900020641200088F79
:10361300227C001200E75EE42212006D3FEF64019A
:1036230022120054D6EF640122F97A007B001200C3
:103633004DB52290002156EFF0A3EDF0A3EBF0A3DC
:10364300EAF0A3E9F0E49000215CF0A3F0900021FC
:103653005FF090002166F0A3F0A3F0A304F0A3F0C1
:10366300E4A3F0A3F0A3F0A3F0A3F0F514F513F58E
:1036730012F5111200EF4090002158E0FBA3E0FA8D
:10368300A3E0F912001FE79000215EEFF090002104
:103693005BE060099000217074FFF08006E4900005
:1036A3002170F090002156E025E09000215DF0A309
:1036B300E0F9FD90002157E0FE2DFDE433FCC3ED5E
:1036C3009410EC6480948040030137B8EEC39408EF
:1036D3004042E490002166F090002157E094089066
:1036E300002167F0E490002160F090002162E9F08E
:1036F300E0FFC313FEA3F0E490002161F0900021EA
:103703006FEEF0EF540190002165F0E49000216426
:10371300F001386790002157E0FF90002166F09098
:1037230000215EE0FEFDEF2DFDE433FCC3ED9408C4
:10373300EC64809480500990002160EEF0E48017DF
:1037430090002157E0FFC374089FFF90002160F0B1
:103753009000215EE0C39F90002162F0E49000217D
:1037630067F090002160E0FFC313A3F09000216E87
:10377300F0EF540190002164F090002162E0FFC358
:1037830013A3F09000216FF0EF540190002165F036
:10379300700301386790002164E07003013867907B
:1037A300002167E004F090002163E004F0E0900062
:1037B300216F01385F90002157E0C394084042E431
:1037C30090002164F090002157E0FF74109F900057
:1037D3002162F0E490002160F0A3F090002166F0F4
:1037E300C3EF9408A3F090002162E0FFC313A3F09A
:1037F3009000216FF0EF540190002165F060658027
:103803005C90002157E0FFC374089F90002160F093
:10381300900021627408F090002166EFF0E4A3F0B9
:1038230090002160E0FFC313A3F09000216EF0EF3E
:103833005401FF90002164F090002162E0FEC31365
:10384300A3F09000216FF07408540190002165F0FB
:10385300EF60117401F090002167E004F090002103
:103863006B7401F0E49000215FF09000215EE0FFB3
:10387300A3E0C39F4003013D3E12002011E49000EA
:103883002168F09000215FE0FD900021977401F022
:10389300A37421F0A37491F090002158E0FBA3E0FE
:1038A300FAA3E0F91200CCCFEF64026003013D34C8
:1038B30090002191E0FEA3E0FF1200D7598F148EF0
:1038C300138D128C117F407E047D047C00AB14AAFF
:1038D30013A912A811C3120007E3505BE4F5157591
:1038E300BE01E42514FBE43513FAE5123430F9E4A0
:1038F3003511F8E4FCFDFEEB2515FFEE3AFEED393C
:10390300FDEC38FCE42FFFE43EFEED3401FDA90796
:10391300AA06AB0512000524F516E4F5BE7471255D
:1039230015F582E43421F583759300E516F005154A
:10393300E515B420AA80107E007F207DFF7B017AED
:103943002179711200095590002161E0D394005050
:1039530003013A799000216EE0FF9000216CE09F13
:103963004003013A799000215DE044B8FB7D01E416
:10397300FF12001D2B90002169E0600B900021666F
:10398300E075F008A480139000216CE0C454F0FFAC
:1039930090002166E075F008A42F4440FB7D01E40C
:1039A300FF12001D2BE49000215CF09000215CE0ED
:1039B300FFC39410502874712FF582E43421F583EA
:1039C300759300E0FF90002170E0FEEF6EFBE4FDD5
:1039D300FF12001D2B9000215CE004F080CD9000CD
:1039E300215DE00444B8FB7D01E4FF12001D2B9030
:1039F300002169E0600B90002166E075F008A48067
:103A0300139000216CE0C454F0FF90002166E07530
:103A1300F008A42F4440FB7D01E4FF12001D2B900E
:103A230000215C7410F09000215CE0FFC3942050EF
:103A33002874712FF582E43421F583759300E0FF38
:103A430090002170E0FEEF6EFBE4FDFF12001D2BE2
:103A53009000215CE004F080CDE490002169F090B7
:103A6300002161E014F0E070069000216804F090FA
:103A730000216CE004F090002161E06003013D341B
:103A830090002163E0D394005003013D3490002162
:103A930068E064017003013D349000216FE0FF9002
:103AA30000216DE09F4003013D3490002165E070EB
:103AB30003013C1790002164E07003013C17900060
:103AC300215DE044B8FB7D01E4FF12001D2B7B78F0
:103AD3007D01E4FF12001D2BE49000215CF09000B7
:103AE300215CE0FFC39408502874712FF582E434FD
:103AF30021F583759300E0FF90002170E0FEEF6EE7
:103B0300FBE4FDFF12001D2B9000215CE004F0801C
:103B1300CD9000215DE00444B8FB7D01E4FF120079
:103B23001D2B7B787D01E4FF12001D2B9000215C8F
:103B33007410F09000215CE0FFC394185028747156
:103B43002FF582E43421F583759300E0FF90002183
:103B530070E0FEEF6EFBE4FDFF12001D2B900021D1
:103B63005CE004F080CD9000215DE044B8FB7D0172
:103B73007F0112001D2B7B407D017F0112001D2B55
:103B83009000215C7408F09000215CE0FFC3941066
:103B9300502974712FF582E43421F583759300E085
:103BA300FF90002170E0FEEF6EFBE4FD7F01120049
:103BB3001D2B9000215CE004F080CC9000215DE09F
:103BC3000444B8FB7D017F0112001D2B7B407D0166
:103BD3007F0112001D2B9000215C7418F0900021CE
:103BE3005CE0FFC394204003013D1D74712FF582F7
:103BF300E43421F583759300E0FF90002170E0FE2B
:103C0300EF6EFBE4FD7F0112001D2B9000215CE0B1
:103C130004F080C99000215DE044B8FB7D017F0181
:103C230012001D2B9000216AE0600FA3E0600B904F
:103C3300002167E075F008A480139000216DE0C4B3
:103C430054F0FF90002167E075F008A42F4440FB77
:103C53007D017F0112001D2BE49000215CF0120016
:103C630020119000215CE02471F582E43421F58376
:103C7300759300E0FF90002170E0FEEF6EFBE4FD22
:103C83007F0112001D2B9000215CE004F0E0C3943F
:103C93001040CB9000215DE00444B8FB7D017F011F
:103CA30012001D2B9000216AE0600FA3E0600B90CF
:103CB300002167E075F008A480139000216DE0C433
:103CC30054F0FF90002167E075F008A42F4440FBF7
:103CD3007D017F0112001D2B9000215C7410F09078
:103CE30000215CE0FFC39420502974712FF582E416
:103CF3003421F583759300E0FF90002170E0FEEF1F
:103D03006EFBE4FD7F0112001D2B9000215CE0049B
:103D1300F080CC9000216DE004F0E490002165F088
:103D230090002164F09000216AF090002163E01478
:103D3300F09000215FE004F001386DE4FF0200EF32
:103D430045F97A007B007D017E0012000AB19000E4
:103D53002059E0FEA3E08E837593002407F582E4E7
:103D63003583F583759300E022FEA3E0FF900020E6
:103D73006DE0FCA3E0FDEF2DFFEE3CA807FC7D0109
:103D83007E007F0612000AB19000206EE02406F048
:103D93009000206DE03400F090002059E0FEA3E095
:103DA30022E47FA090002113FEFDFC741AF0900022
:103DB3002059E0FAA3E08A83759300222407F97A55
:103DC300007B008F828E83759300E58222F8A6071D
:103DD3009000206FE0FBA3E0FAA3E022FEA3E0FF44
:103DE3009000206DE0FCA3E0FDEF2DFFEE3C228E62
:103DF300837593002411F582E43583F5837593006D
:103E03002290002114F9E4F0A3F0A3E9F02290003A
:103E13002060E0FCA3E0FDA3E0FEA3E0FF227F041B
:103E2300F87C007D007E0002000AB1E4FFFEFDFC89
:103E3300E0F8A3E0F9A3E0FAA3E022F582E43583F6
:103E4300F583759300E493FB740193FA740293F57D
:103E5300828A838B930200094EF87C007D007E00EA
:103E630002000AB1FF8E83759300240822A807FC81
:103E73007D017F2002000AB17593009000206DE45C
:103E830075F00102000620740FF0749AA3F08D827E
:103E93008C83759300E58222FA90002069E0F8A3F1
:103EA300E02BFBE83A90002114FAA9037401F0A374
:103EB300EAF0A3E9F022FC900020600200088FFFE3
:103EC3008E83759300241222A3E0FAA3E02412F94F
:103ED300E43AFA020006367F607E0D7D037C0074AF
:103EE3000AF0A37401F0A3740FF0A3749AF02224D0
:103EF30007F9E43AFA02000524F97A007B00781EF8
:103F03007C0C7F047D017E0002000AB1EF2406F9D8
:103F13007A007B0022E5822FF582E5833EF58375E7
:103F230093002290002059E0FCA3E022F87C007D5E
:103F3300007E0002000AB1F8E6FF7E00EE9000204A
:103F43006BF0A32290002113F090002059E0FAA314
:103F5300E022E5822DF582E5833CF583759300220B
:103F63007F06F87C007D007E0002000A1EFC7D01B6
:103F73007E0002000AB1E4FEFDFC9000211322FF43
:103F83002405F8E69000205FF022E4FFFEFDFC022A
:103F930000088FFEE5F02403FFE43EFEE92FF9EA73
:103FA3003EFA74C302000556900020D6A3A3E0FE98
:103FB300A3E0FDAC06249AF582740F3C22FC7D013C
:103FC3007E0012000AB19000206EE0222FFFEA3E2D
:103FD300FEED39FDEC38FC229000205FE06499226D
:103FE300FBC3020007E37410F08B828A837593008E
:103FF300E58222E490002069F0A3F0227E207F4234
:104003007C1B7D0C222404F990002114EB22FEA3D7
:10401300E0FF90002069E0FCA3E0FDC39FEC9E223B
:10402300E49000205EF022F97A007B00020009553B
:104033002407F97A007B00228E83759300241422CF
:10404300F090002069E03400F0229000206D7402AB
:10405300F0A3E42290002069E0FEA3E0FF22900099
:10406300206EE02420222414F9E43AFAE475F001E6
:104073000200065A7D017B017A0F799A2290002073
:104083006EE02FFF9000206DE03EFE229000206B3B
:10409300E0FCA3E0FD22FAEF120005569000207326
:1040A300E004F022FBE0F8A3E0F582EB2582FBEAD3
:1040B30038227FC07E107D037C0022E49000206BB9
:1040C300F0A322FFFDFC0200088FE4FEFDFC90003C
:1040D30021132290002072E004F0227F067E00026A
:1040E300000AB19000205FE06401228C8375930085
:1040F300241222E4FCFD9000206022FAA9077B0130
:104103007D0122FCA3E0F5828C8322FEA3E0F582ED
:104113008E8322FDE43CFAA9057B01229000205FF7
:10412300E0FF90002068E022FE9000206FA3E0FAF9
:10413300A3E022749A2DF582740F3CF583227593C4
:1041430000E0FF900020D5E022789A7C0F7D01905B
:104153000020CE2204F97A007B00227593002FF50C
:1041630082E5833E22FF8E83759300229000206BAD
:10417300A3E022F09000206BE03400F022C3EF6450
:1041830080948022FEA3E0FFAA06F97B0122ADF012
:10419300FC75930022AFF0FE75930022F09000208F
:1041A3006DE0229000205EEFF0227DB17C007E0462
:1041B30022900020917401F0E4A3F0A37407F07F30
:1041C30001120097F990002090EFF014601624FC80
:1041D300602D2403702C90002092E0D394004022A1
:1041E300E014801190002093E0FF90002092E0C340
:1041F3009F500FE004F0900020917401F080037F42
:10420300002290002091E060B67F447B017A207900
:10421300421200695E90002092E0B408004003015E
:1042230044DF9000422E25E025E0730200424E0257
:104233000042B902004300020043410200439402DA
:104243000043E3020044290200446C7481120068B5
:10425300E47415F074CF1200454F7481F0A3741504
:10426300F0A374DAF090000C1E1200691D90000C8C
:104273001F1200695290000C2012006A3E90000C3D
:1042830021E0FF9000215CE4120045607481F0A3FB
:104293007415F074EB120045B51200EFD07B017A70
:1042A30020798612004DB5120069C67B017A207908
:1042B300867D070144227481120068E47415F0744A
:1042C300F41200454F1200697A90000C4112004528
:1042D3001D7481F0A37416F0740812004573120064
:1042E300697A90000C4512006895E4120000CDE451
:1042F300FBFA79C878421200002B014389748112BA
:104303000068F57416F07415120045841200697A7A
:1043130090000C361200451D7481F0A37416F074DE
:104323001E120045737481F0A37416F0A3742BF06E
:1043330090000C3CE0FF90002156E40144D17481CD
:10434300120068F57416F07431120045847481F01C
:10435300A37416F0A3743AF090000C3A12006A7B2F
:10436300120045607481F0A37416F0744012004586
:10437300B574811200690D7416F0A3744BF09000AC
:104383000C2B12006895900021561200088F0144EF
:10439300D574811200690D7416F0744F120045C272
:1043A3001200D05C7481120069457416F0A3745A2C
:1043B300F0A3EEF0EF120045CF748112006945744B
:1043C30016F0A37460F07A20796412004595120008
:1043D30069F77481F0A37416F0A3746CF00144D5EB
:1043E3007481120069867416F07476120045C274E3
:1043F30081120069867416F0A37480F090000C3D5E
:10440300E090002156120045A47B817A167986122A
:10441300006A00120069C67B017A0E79EF7D0612ED
:1044230000DAA50144DF748112006A277416F0A331
:104433007493F07A20794212004595120069F7745B
:1044430081F0A37416F07499120045CF74811200A1
:104453006A27120069F77481F0A37416F0A374A598
:10446300F07B017A207964806F78427C207D017B28
:10447300817A1679AE12000B3E900021537481F0BD
:10448300A37416F0A374B7F090000EFB1200691D1D
:1044930090000EFC1200695290000EFD12006A3E5D
:1044A30090000EFEE09000215C120045A47B817A0F
:1044B3001679C312006A00900021537481F0A3742B
:1044C30016F0A374CEF090000EFF12006A7BF0A3E7
:1044D300EFF07B017A20797512000CD9E49000206B
:1044E30091F01200EEA5E490002090F0900020904F
:1044F300E0FFC3940440030141C2EF75F011A4240B
:1045030042F9742035F0FA7B01120069151200AAF2
:10451300CB90002090E004F080D2E0FCA3E0FDA368
:10452300E0FEA3E0FFE4120000CDE4FBFA79C878D3
:10453300421200002B900021561200088F7B017A53
:1045430020795312000CD99000215322A3F07B0150
:104553007A20794212000CD99000215322F0A3EF64
:10456300F07B017A20795312000CD9900021532259
:10457300A3F07B017A20796412000CD990002153B7
:1045830022A3F07B017A20794212000CD9900021FA
:1045930053227B0112000CD9900021537481F0A3A4
:1045A30022FFE4F0A3EFF07B017A20795312000C91
:1045B300D922A3F07B017A20796412000CD922A3BB
:1045C300F07B017A20794212000CD922A3F07B01FF
:1045D3007A20795312000CD92290002231EFF0E4B3
:1045E3009000223AF0A3F0A3F0A3F0A3F0A3F0A36A
:1045F300F0A3F0A3F0A3F090002245F0A3F07F0115
:104603001200EFE475BE017B317A00790074F71272
:10461300000556E4F5BE7F0A1200000375BE017B58
:10462300317A00790074F812000556790CE412000F
:104633000556790F12000524F56EE4F5BEFF12004E
:10464300E83E7F281200201BE4F5BE90002236E0EE
:10465300FFC394014006EFD3940340037F002290ED
:10466300002231E0FF64016004EFB40405756EF9C4
:104673008003756EFA75BE017B317A007900E56EB1
:1046830012000556790CE412000556790112000553
:1046930024F56E536ED8E56E1200055612000524FC
:1046A300F56E790574FF12000556E4F5BE7F807E32
:1046B30025FDFC90002232E0F8A3E0F9A3E0FAA381
:1046C300E0FBC3120007E370028042E4FF7E4BFD70
:1046D300FC90002232E0F8A3E0F9A3E0FAA3E0FBA8
:1046E300C3120007E37005756E068024E4FF7E960F
:1046F300FDFC90002232E0F8A3E0F9A3E0FAA3E086
:10470300FBC3120007E37005756E038003756E0C1F
:1047130075BE017B317A007902E56E12000556E41D
:10472300F5BE90002236E0FFB40105756E08800CDB
:10473300EFB40205756E028003E4F56E75BE017B6E
:10474300317A007907E56E120005567903120005E8
:1047530024F56E536EF7436E64536EFEE56E1200DE
:104763000556790612000524F56E436E01536EF764
:10477300E56E12000556E4F5BE7F011200E83E75B2
:10478300BE017B317A00790C12000524F56EE4F545
:10479300BE7F321200201B75BE017B317A00790C7B
:1047A30012000524F56E7F011200ED27E41F1200AD
:1047B300EBF7E4F56F90002245F0A3F0900022455B
:1047C300E0FEA3E0FF7DE87C031200F00CEF600540
:1047D300E4FF0149FE7B007A00796E1200E180EF6D
:1047E300601EE4F5BE90002237E0FBA3E0FAA3E0ED
:1047F300256FF9E43AFAE56E12000556056F80124B
:1048030090002246E004F070B390002245E004F0EB
:1048130080AAE490002245F0A3F09000223BF075BB
:10482300BE017B31FA790974C012000556790B7405
:10483300251200055619748012000556790874650F
:10484300120005567B007A00796E1200E180EF704A
:104853000301499275BE017B317A00790B742512ED
:1048630000055619748012000556E4F5BE90002227
:1048730037E0FBA3E0FAA3E0256FF9E43AFAE56E2B
:1048830012000556E56F6401707090002237E0FB5B
:10489300A3E0FAA3E02401F9E43AFA12000524FFA5
:1048A300540F9000223BF0EF30E40BA37401F0901F
:1048B30000223BE004F01200052430E50E900022B4
:1048C3003D7401F09000223BE004F012000524FF48
:1048D30030E60E9000223E7401F09000223BE0048B
:1048E300F0EF30E70E9000223F7401F09000223B7E
:1048F300E004F0900022447402F0E56F6402705605
:104903009000223CE0604F90002237E0FBA3E0FAE6
:10491300A3E02402F9E43AFA12000524540F24FE1A
:10492300600B14601124FB60162407801B90002287
:104933003A7406F080199000223A7403F0801090C4
:1049430000223A7401F080079000223A740CF09030
:10495300002244E004F09000223BE004656F702BDA
:10496300A3E0601CE4F5BE9000223AE0F56E75BE4C
:10497300017B317A007902E56E12000556E4F5BE3B
:10498300E4F5BEFF1200EFE4AF6F22056F802675DA
:10499300BE017B317A00790E12000524F56EE4F531
:1049A300BEE56E20E703014847E4FF1200ED27123E
:1049B30000E82C804675BE017B317A00790E120027
:1049C3000524F56EE4F5BEE56E30E5109000224651
:1049D300E004F0700790002245E004F090002245C7
:1049E300E0FEA3E0C3940AEE94005003014847E4B9
:1049F300F5BEFF1200ED271200E82C1200EFE422AF
:104A03001200C2FCEF6401600F7B817A1579617D2E
:104A1300B17C007F5D014D301200EFD07B017A0E37
:104A2300797012004DB5E47F401200693474181296
:104A33000067F412004D8F600F7B817A1579687DD2
:104A4300B17C007F66014D30E538B45506E5396425
:104A5300AA600F7B817A15796D7D5C7C007F6B0189
:104A63004C4E78287C007A0079307F061200692941
:104A7300EF600F7B817A1579737D5C7C007F700119
:104A83004C4E900020727401F0A3740CF0A37416C2
:104A9300F07B007A0079281200E9357F6012006903
:104AA300337420120067F412004D8F6009120069FD
:104AB3008D7F7B014D30120068FE7D1E7C0012004D
:104AC3004D9FF07B007A0079421200EE3178407CF2
:104AD300007A0079427F0212006929EF600F7B811F
:104AE3007A15797C7D5C7C007F83014C4E78307C29
:104AF3000C120068017B007A0079281200ECC49044
:104B0300000C361200088F90000C3CE52BF07B0064
:104B13007A00792C1200EF7690000C3AEEF0A3EFB6
:104B2300F0E47F80120069347406120067F4120007
:104B33004D9760091200698D7F8D014D3012006918
:104B4300A07400F07428120068FC12004DAC7825A4
:104B53007C007D007A007928120068A7603B7822E8
:104B63007C00120069D612006827120069A0740045
:104B7300F07425120068FC12004DAC7F80120069AE
:104B8300EE7406120067F4120054D6EF6401600954
:104B93001200698D7F97014D3090001FF47401F06E
:104BA300A3740EF0A37471120068FD1200E2499021
:104BB300000C3DEFF01200F03150101200D05CD326
:104BC300EF9400EE940040037F052212006A0A125C
:104BD300006A4A942AEA94015026EB2480FFEA34BF
:104BE3000D1200683F12004D97600F7B817A157993
:104BF300827DB17C007FA5014D30120069A880CF72
:104C0300E490000C49F090000FA0E0B45506A3E037
:104C130064AA600812006A557FAC802F7B017A0F6B
:104C2300799A7D287C0112004D9F120068FD1200C5
:104C3300EE3178227C007B017A1079C27F02120068
:104C43006A36EF600F12006A557FB37E011200BA15
:104C5300AE7F5C22784A7C0C7A0F799A7F06120029
:104C630068EB78507C0C7A0F79A27F20120068EBF6
:104C730078707C0C7D017B017A0F79C27E017F0005
:104C830012000AB1E47FD012006934742012006765
:104C9300F412006D3FEF6401600F7B817A15798D0B
:104CA3007DB17C007FBD014D3078B77C0E7F101243
:104CB300006803E490000EC7F0120069A17400F0CD
:104CC300A37442F012006A137D047C001200E75EB5
:104CD30078427C007B007A0079367F0412006A36C2
:104CE300EF6007E4FFFEFDFC800812006A13120068
:104CF300E9F690000C451200088FE490000C2FF0A9
:104D030012006A0B12006A4AEA9401502FEB24C086
:104D1300FFEA340E1200683F12006D3FEF6401603A
:104D2300157B817A1579927DB17C007FD17E01124A
:104D330000BAAE7FB122120069A880C812006A0AC5
:104D430090001FEFE0FEA3E0FFC3EE940150387420
:104D53009A2FF582740F3EF583759300E0FFC39499
:104D63000690001FEF4008120069DFE4F08006128E
:104D73000069DFEFF090001FF0E004F070C29000D4
:104D83001FEFE004F080B91200E3752212006D3FBB
:104D9300EF64012212006D3FEF6401221200E0A8CC
:104DA30090001FEFEEF0A3EF227D037C001200E7DB
:104DB3005E22900020C7EBF0A3EAF0A3E9F043F9E9
:104DC30008A3E5FBF0A3E5FCF0E5FD541FA3F0A366
:104DD300E5FEF0A3E5FFF0900020CAE0FF75F00ABE
:104DE30084C454F0FEEF75F00A84E5F0540F2E905E
:104DF3000020D5F0900020CBE0FF75F00A84C45466
:104E0300F0FEEF75F00A84E5F0540F2E900020D4E5
:104E1300F0900020CCE0FF75F00A84C454F0FEEF5C
:104E230075F00A84E5F0540F2E900020D3F0900023
:104E330020CEE0900020D6F0900020CDE09000201E
:104E4300D7F0E4900020CFF0A3F0900020DD7407AA
:104E5300F0A374D0F0120020111200EB59BF012A05
:104E6300D3900020D7E0946E900020D6E0940140C8
:104E73006E900020D0E004F07007900020CFE00493
:104E8300F0900020D7E024928028D3900020D7E030
:104E9300946D900020D6E094014044900020D0E02F
:104EA30004F07007900020CFE004F0900020D7E0DA
:104EB3002493F0900020D6E034FEF0900020DEE052
:104EC30004F07007900020DDE004F0C3900020DEC2
:104ED300E09484900020DDE094085003014E589044
:104EE3000020CFE0FFA3E0900020D8CFF0A3EFF0A5
:104EF300900020CF7420F0A3E4F0900020D8E0FECF
:104F0300A3E0FF7C007D641200057CEF540FFE904C
:104F13000020D0E02400F0900020CFE03EF090008D
:104F230020D8E0FEA3E0FF7C007D641200057C7CBA
:104F3300007D641200056AC3900020D9E09FF090C1
:104F43000020D8E09EF0E0FEA3E0FF7D0A120005FA
:104F53007CEFC4F8540FC868FFEF54F0FF900020B3
:104F6300D0E02FF0900020CFE03400F0900020D864
:104F7300E0FEA3E0FF7C007D0A1200057C7C007D3F
:104F83000A1200056AC3900020D9E09FF090002028
:104F9300D8E09EF0A3E0540FFF900020D0E02FF064
:104FA300900020CFE03400F0E0FFA3E0900020D891
:104FB300CFF0A3EFF0900020D8E054F0D3949040CA
:104FC300037F0022900020D8E0540FD394094003BC
:104FD3007F0022900020D9E054F0D3949040037FC7
:104FE3000022900020D9E0540FD3940940037F009E
:104FF300221200EB59900020DABF010D7481F0A357
:10500300741FF0A374B9F0800B7481F0A3741FF0C4
:10501300A374C5F0900020DF7401F0900020DDE45C
:10502300F0A304F0900020DDE0FEA3E0FFC3940CA6
:10503300EE94005058900020DAE0FBA3E0FAA3E0DE
:10504300F9C3EF9401FFEE9400FEE92FF9EA3EFA6B
:1050530012000524FF7E00D3900020D7E09F90002C
:1050630020D6E09E4027900020DFE004F09000204F
:10507300D7E09FF0900020D6E09EF0900020DEE085
:1050830004F070A0900020DDE004F08097E490002D
:1050930020D1F0900020DFE0FF75F00A84FEC454B5
:1050A300F0FD900020D1E02DF0EE75F00AA4FEC3D0
:1050B300EF9E900020DFF0540FFF900020D1E02FEF
:1050C300F0E0FFD39412500AEF540F94095003E019
:1050D30070037F0022E4900020D2F0900020D6E0FD
:1050E300A3E0900020DFF0E0FF75F00A84FEC454D3
:1050F300F0FD900020D2E02DF0EE75F00AA4FEC37F
:10510300EF9E900020DFF0540FFF900020D2E02F9D
:10511300F0E0FFD394315007EF540F940940037F1D
:105123000022900020C7E0FBA3E0FAA3E0F8AC0262
:10513300AD037B017A2079CF7E007F0712000AB18D
:105143007F0122900020B7EBF0A3EAF0A3E9F090EF
:1051530000210E741AF07E007D0012008987120070
:1051630089A79000210C7401F07F10120054547031
:10517300037FB12212008A629000210EE0C39402E1
:10518300FD1200547E70469000210BF012008963DB
:10519300B5061E12008AAD1200898012008AF91228
:1051A300008980B5060B9000210BE004F0E0B40306
:1051B300DB120089B7E49000210CF090000C2FE083
:1051C300700B7FA0120054AD70037FB122900021B9
:1051D3000CE064017059FEFD120089877FA0120064
:1051E300545470037FB122120089A712008A627D92
:1051F300181200547E60037F5C22E49000210BF0C0
:10520300120089636E60037F5C2212008AAD120074
:10521300898012008AF9120089806E60037F5C2204
:105223009000210BE004F0E0B403D5120089B77BB2
:10523300017A2079CE1200E9F6900020B712008996
:105243005B2405F9E43AFA120008371200081A90B1
:10525300000C2B1200088F12008A621200ECC4901B
:10526300000C231200088F12008B0F1200ECC49065
:10527300000C271200088F900020D912008B169083
:1052830000210DF01200EF2350037F0D221200893D
:105293003AC3120007E37030FC90000C2712008A17
:1052A300467FC07E107D037C0012008B0F1200E846
:1052B300B112008AA47420F0A374CBF012008B0FF8
:1052C3007D037C001200E75E1200892B900020BE54
:1052D30012008997E4FFFE7D08FC900020BE1200B7
:1052E3008943C3120007E340317C00900020BE12C3
:1052F300008A4690000C271200892FFF900020BEE1
:1053030012008943D3120007E35008E49000210DF3
:10531300F080079000210D74FFF01200892BFF909D
:105323000020B71200895B2437F9E43AFA12000827
:1053330037900020BE1200892FFF12008A621200EC
:10534300E8B112008AA47420F0A374C512008A6124
:105353007D037C001200E75E7B017A2079D2120084
:10536300E9F690000C411200088F78047C217D013E
:105373007B017A2079D67E007F0312000AB1900068
:105383000C411200892FFF900020B71200895B2483
:1053930011F9E43AFA12000852EF2BFFEE3AFEED50
:1053A30039FDEC38FC90000C411200088F783E7CEC
:1053B3000C7A2079D67F03120089C190000C411228
:1053C30000892FFF7B017A2079D21200E5DF90005C
:1053D30020B71200895B240512008A93EF12008A1A
:1053E300697B017A2079CE1200E5DF90000C2B1245
:1053F30000892F12008A6990000C2B1200088F90ED
:105403000020BE1200892FFF90000C231200088F8A
:105413009000210DE0900020D912008A617D187C54
:10542300001200E0A8900020BCEEF0A3EFF07B0197
:105433007A2079DA1200EE31E47F10120054AD6461
:1054430001700B9000210D12008B167F00227FB19B
:1054530022E4FEFDFC9000210EE090002113F0A356
:105463007401F0A37420F0A374C2F012006D3F7EA8
:1054730000900020BAEEF0A3EFF0227C001200E0CF
:10548300A8900020BCEEF0A3EFF07B017A21790213
:105493001200EE3178027C217D017B017A2079DADA
:1054A3007E007F0212000A1EEF22FEFDFC90002107
:1054B3000EE090002113F0A37401F0A37420F0A375
:1054C30074C2F0120054D67E00900020BAEEF0A30E
:1054D300EFF0229000210F1200088FE490002117B3
:1054E300F090002113E0D3945040037F00229000FA
:1054F300210FA3A3A3E0540FFFE4FEFDFCFBFAF985
:10550300F8C3120007E360037F00229000210FE03D
:10551300FCA3E0FDA3E0FEA3E0FF900021741200D2
:10552300088F78727C217D017B017A2179767E0058
:105533007F0212000AB190002175E01313543F90CB
:1055430000216EF090002172E0FFA3E09000217033
:10555300CFF0A3EFF090002175E054039000216F8A
:10556300F0E490002117F0120020117B017A1F79DB
:10557300519000217DE41200CDA27B017A2179189C
:105583009000217DE41200CDA290002118E0FF904D
:10559300001F51E0FE6F6003015850EE6442600348
:1055A3000156CB7B017A1F79519000217DF0A374C2
:1055B300561200CDA590001F52E0D394034003017F
:1055C300585090001F53E0D394034003015850D325
:1055D30090001F55E094F090001F54E094FF4003A7
:1055E30001585090001F56E0D39450400301585087
:1055F3007E007F567D007B017A21791812000955C0
:105603007B017A2179189000217DE4F0A37456126E
:1056130000CDA578187C217D017B017A1F79517E0D
:10562300007F5612000A1EEF600301585090001FBE
:1056330052E0FFA3E0FD90001F56E09000217CF0B4
:10564300A37401F0A3741FF0A37457F090001F54C8
:105653001200CE4BEF70030158507E007F567D0041
:105663007B017A2179181200095590001F52E0FF3F
:10567300A3E0FD90001F56E09000217CF0A374018D
:10568300F0A37421F074181200C4B2EF7003015830
:105693005090001F56E0FF7E0078577C1F7D017BF2
:1056A300017A21791812000A1EEF60030158501283
:1056B30000C9B11200CD9290001F51E0FF9000216C
:1056C30018E06F600301585090001DEF7441F09093
:1056D30000216EE090001DF0F09000216FE090003B
:1056E3001DF1F090002170E0FFA3E090001DF2CFC8
:1056F300F0A3EFF090002113E0FF90001DF4F07E83
:105703000078F57C1D7D0190002114E0FBA3E0FAF5
:10571300A3E0F912000AB17B017A1D79F090002110
:105723007DE4F0A37455F07F9D7E071200C9CB7E04
:10573300007F557D007B017A217918120009557B82
:10574300017A2179189000217DE4F0A37455F07F4C
:105753009D7E071200CDAA78187C217D017B017AFA
:105763001D79F07E007F5512000A1EEF6003015879
:105773005090001DEF7442F07B017A1D79EF120007
:10578300C9BE1200CD9290001DEFE0FF90002118DA
:10579300E06F60030158509000216EE0FFA3E0FD2D
:1057A30090002113E09000217CF090002114E0F997
:1057B300A3E0FAA3E09000217DC9F0A3EAF0A3E9F6
:1057C300F0900021701200CE4BEF70030158507E11
:1057D300007F507D007B017A2179181200095590D2
:1057E30000216EE0FFA3E0FD90002113E090002173
:1057F3007CF0A37401F0A37421F0A37418F090005B
:1058030021701200C4B8EF604490002113E0FF7EC2
:105813000078187C217D01A3E0FBA3E0FAA3E0F963
:1058230012000A1EEF702690001DEF7441F07B01F9
:105833007A1D79EF1200C9BE1200CD9290001DEFC0
:10584300E0FF90002118E0B507037F0122900021BB
:1058530017E004F0E0C39403500301556A7F00226C
:105863009000219DEEF0A3EFF0900021A0EBF0A3B8
:10587300EAF0A3E9F09000219FEDF0E4F572EDD397
:10588300944040037F0022C39000219EE0946490E3
:1058930000219DE0940050037F0022E4F572120082
:1058A30020117B017A1F79A79000217DE4F0A304E6
:1058B300F0E4FFFE1200CDAA7B017A2179A39000C8
:1058C300217DE4F0A304F0E4FFFE1200CDAA9000D2
:1058D30021A3E0FF90001FA7E0FE6F6003015BB808
:1058E300EE64426003015A1C7B017A1F79A7900082
:1058F300217DF0A37444F0E4FFFE1200CDAAD390FF
:10590300001FA9E094FF90001FA8E0940740030143
:105913005BB890001FAAE0D394444003015BB87EB8
:10592300007F447D007B017A2179A3120009557B16
:10593300017A2179A39000217DE4F0A37444F0E47B
:10594300FFFE1200CDAA78A37C217D017B017A1F83
:1059530079A77E007F4412000A1EEF6003015BB843
:1059630090001FA8E0FEA3E0FF7B017A1F79ABA3A1
:10597300E0FD9000217DE4F0A3EDF01200C9CB908F
:10598300001FAAE0FF7E007D007B017A2179A3122C
:1059930000095590001FA8E0FEA3E0FF7B017A21D8
:1059A30079A3A3E0FD9000217DE4F0A3EDF01200C4
:1059B300CDAA90001FAAE0FF7E0078AB7C1F7D017B
:1059C3007B017A2179A312000A1EEF6003015BB801
:1059D30090001FA77441F07B017A1F79A7900021E3
:1059E3007DE4F0A304F0E4FFFE1200C9CBE49000D1
:1059F30021A3F07B017A2179A39000217DF0A304F8
:105A0300F0E4FFFE1200CDAA90001FA7E0FF900074
:105A130021A3E06F6003015BB890001E457441F061
:105A23009000219DE0FFA3E090001E46CFF0A3EF7E
:105A3300F09000219FE0FF90001E48F07E0078491F
:105A43007C1E7D01900021A0E0FBA3E0FAA3E0F916
:105A530012000AB17B017A1E79469000217DE4F0A1
:105A6300A37443F07F017E001200C9CB7E007F4305
:105A73007D007B017A2179A3120009557B017A21EC
:105A830079A39000217DE4F0A37443F07F017E00AD
:105A93001200CDAA78A37C217D017B017A1E794671
:105AA3007E007F4312000A1EEF6003015BB8900083
:105AB3001E457442F07B017A1E79459000217DE4F6
:105AC300F0A304F0E4FFFE1200C9CBE4900021A38D
:105AD300F07B017A2179A39000217DF0A304F0E407
