:10000000021AFC7E11DEFEDFFA00220200BFAB53B3
:10001000E8EF438EC075C7AA75C75543D803227F42
:020020000122BB
:100023000200B9300200014BEC5D046005E859049D
:100033007004020001411200010C580460F4EC4802
:1000430060F0EC7004FDFEFF22C860D82481C85024
:100053000AC39860025007020001489850C6F5820F
:10006300E9294B4A7006AB820200013775F0007C28
:100073001A7880C3EF9BEE9AED99400DC3EF9BFF77
:10008300EE9AFEED99FDE842F0DC24ACF0D0E0FFFF
:10009300D0E0FED0E0FDAB8220E7101BEB60B8ECB4
:1000A3002CFCEF33FFEE33FEED33FD02000123E8BA
:1000B30003F830E705C0F075F000EF2FFFEE33FED5
:1000C300ED33FD40B730E7C180A975F020800E7590
:1000D300F010800575F0087D007E007F003392D517
:1000E30030D504120007BFEC334010EF33FFEE337B
:1000F300FEED33FDEC33FCD5F0ED22E5F0247EA2DA
:10010300D513CC92E7CDCEFF22E9D2E7C933E8334A
:10011300F892D5EDD2E7CD33EC33FC5002B2D522C1
:10012300EC30E7100FBF000C0EBE00080DBD00043D
:100133000BEB6014A2D5EB13FCED92E7FD2274FFE9
:10014300FCFDFEFF22E480F8A2D574FF13FC7D8042
:10015300E480EFF920E73624F950037907E4F42427
:1001630002FBE582158270021583DBF6E024FB5067
:100173001BE96014E4F0E582158270021583E00444
:10018300F0B40A08E4F0D9EE7401F00A22C2D522D1
:10019300ED33EC3392D5FA602AB4FF33EDC2E77B3B
:1001A3008160067A0179B8E4227A0179C120D50405
:1001B3007A0179BC224E614E002B494E46002D49EF
:1001C3004E4600E47A08F0A3DAFC7B00740722C0F1
:1001D30093C083C082ECC0E0EDC0E0EEC0E0EFC0AE
:1001E300E0EA75F010A4CAABF075F04DA42BFBE464
:1001F30035F0FCEA2410FAEB34C5FBEC34D9FCED02
:10020300C2E7FF75F056A4F42411C5F0F434C58F8A
:10021300F0A42AE5F03BE43CF020E716120004DEEC
:10022300D0E0FFD0E0FED0E0FDD0E0FC1200002BD8
:100233008016F404120004DED0E0FFD0E0FED0E02C
:10024300FDD0E0FC120003A0D082D083D093E0FA6B
:10025300EDD2E7CD33EC332482FBE4C3CF33CFCEEF
:1002630033CECD33CD33DBF37B0775F00A846004E3
:10027300F0A31B0AE5F0F0A38FF0740AA4FFACF01F
:100283008EF0740AA42CFEACF050010C8DF0740AAD
:10029300A42CFDE435F0F0A3DBDE74072202000199
:1002A30041E86480F8E933E83360110460EFED332B
:1002B300EC337009E8FCE9FDEAFEEBFF220460DDA4
:1002C300D3EB9FEA9EE99DE8C2E78CF0C2F795F075
:1002D300400CE8CCF8E9CDF9EACEFAEBCFFB1200FB
:1002E300010C85D0F05804700320D5B1E8047008E0
:1002F3005002B2D50200014B92D5EC0460F6E4CC77
:10030300C0E0C398F8603C94186009400ED0E0FB4D
:1003130002000123E4FBFAC9FC8028E830E406E488
:10032300C9FBE4CAFCE830E305E4C9CACBFCE854E2
:10033300076010F8C3E913F9EA13FAEB13FBEC13A4
:10034300FCD8F130F531C3E49CFCEF9BFFEE9AFE41
:10035300ED99FDD0E0FBEF4E4D4C701322DB040210
:10036300000148EC2CFCEF33FFEE33FEED33FDEDE3
:1003730030E7EA02000123EF2BFFEE3AFEED39FDF1
:10038300D0E0FB50140BBB00040200014BED13FD46
:10039300EE13FEEF13FFEC13FC02000123EC4D60A0
:1003A30011E8497018ED33EC3304600DE4FCFFFEF3
:1003B300FD22E933E8330470F80200014112000121
:1003C3000C58046009E4CC2481500728500B020028
:1003D300014B28400402000148C0E0EB4A7046B9D3
:1003E3008007D0E0FB02000137EF4E701DBD80088F
:1003F300EBFFEAFEE9FD80EAE98DF0A4FEE5F002F9
:1004030000048FE9CDF9EAFEEBFFEF89F0A4FCE5E8
:10041300F0CE89F0A42EFFE435F0CD89F0A42DFEB3
:10042300E435F08067EF4E7005BD80D780C2EF8B57
:10043300F0A4ACF0EE8BF0A42CFCE435F0F8EF8ADA
:10044300F0A42CE5F038FCE433CB8DF0A42CFCE5D0
:10045300F03BF8EE8AF0A42CFCE5F038F8E433CF57
:1004630089F0A42CFCE5F038CF3400CE89F0A42F1A
:10047300FFE5F03EFEE433C98DF0A42EFEE5F0392E
:10048300CD8AF0A42FFFE5F03EFEE43DFD33D0E03E
:10049300FB50080BBB00100200014BEC2CFCEF33AC
:1004A300FFEE33FEED33FD020001233F80000041E8
:1004B30020000042C80000447A0000461C40004768
:1004C300C35000497424004B1896804CBEBC205A7C
:1004D3000E1BCA6753C21C749DC5AEFB600654074E
:1004E3006020232312000511EB5438600C12000422
:1004F300FC1200050C120003A0ECF8EDF9EEFAEF84
:10050300CB22EB1200050C80F0543803241C90001E
:1005130004AEFE93FC0EEE93FD0EEE930ECE93FF10
:1005230022EB7002E72289828A831410E704F59391
:10053300E022F593E49322BB000327F722F8EB892B
:10054300828A831410E706F593E028F022F593E4FA
:10055300932822BB0002F722BB8000500989828ABC
:10056300838B931593F022EF8DF0A4A8F0CF8CF03A
:10057300A428CE8DF0A42EFE22BC000BBE0029EFD2
:100583008DF084FFADF022E4CCF875F008EF2FFF77
:10059300EE33FEEC33FCEE9DEC984005FCEE9DFE45
:1005A3000FD5F0E9E4CEFD22EDF8F5F0EE0084205E
:1005B300D21CFEADF075F008EF2FFFED33FD4007C1
:1005C300985006D5F0F222C398FD0FD5F0EA22C267
:1005D300D5EC30E709B2D5E4C39DFDE49CFCEE30D5
:1005E300E716B2D5E4C39FFFE49EFE1200057CC369
:1005F300E49DFDE49CFC80041200057C30D507C318
:10060300E49FFFE49EFE22C5F0F8A3E028F0C5F0C6
:10061300F8E582158270021583E038F022A3F8E032
:10062300C5F025F0F0E582158270021583E0C83825
:10063300F0E822EB7007E7F5F009E7192289828ACF
:10064300831410E708F593E0F5F0A3E022F593E4B3
:1006530093F5F074019322BB000B09C5F027F7C58E
:10066300F01937F722F8EB89828A831410E707F52C
:1006730093E80200060AF59374019325F0F5F0E47C
:10068300933822BB0006F709A7F01922BB8000505C
:100693000D89828A838B931593F0E5F0A3F022E80A
:1006A3008FF0A4CC8BF0A42CFCE98EF0A42CFC8A54
:1006B300F0EDA42CFCEA8EF0A4CDA8F08BF0A42DD1
:1006C300CC3825F0FDE98FF0A42CCD35F0FCEB8E72
:1006D300F0A4FEA9F0EB8FF0A4CFC5F02ECD39FE28
:1006E300E43CFCEAA42DCE35F0FDE43CFC2275F09D
:1006F30008758200EF2FFFEE33FECD33CDCC33CC24
:10070300C58233C5829BED9AEC99E58298400CF53E
:1007130082EE9BFEED9AFDEC99FC0FD5F0D6E4CE6C
:10072300FBE4CDFAE4CCF9A88222B800C1B90059A0
:10073300BA002DEC8BF084CFCECDFCE5F0CBF9786D
:1007430018EF2FFFEE33FEED33FDEC33FCEB33FB01
:1007530010D703994004EB99FB0FD8E5E4F9FA228B
:100763007818EF2FFFEE33FEED33FDEC33FCC93386
:10077300C910D7059BE99A4007EC9BFCE99AF90F4E
:10078300D8E0E4C9FAE4CCFB2275F010EF2FFFEEBA
:1007930033FEED33FDCC33CCC833C810D7079BEC05
:1007A3009AE899400AED9BFDEC9AFCE899F80FD57D
:1007B300F0DAE4CDFBE4CCFAE4C8F922C3E49FFF0A
:1007C300E49EFEE49DFDE49CFC22EB9FF5F0EA9E93
:1007D30042F0E99D42F0EC6480C864809845F022C1
:1007E300EB9FF5F0EA9E42F0E99D42F0E89C45F06C
:1007F30022E8600FECC313FCED13FDEE13FEEF13C1
:10080300FFD8F122E8600FEFC333FFEE33FEED3381
:10081300FDEC33FCD8F122EB7006E9F802000B7112
:1008230089828A831410E706F59302000B7DF59302
:1008330002000B89BB0006E9F802000BC2BB800073
:10084300500C89828A838B9315930200086F22EBE5
:100853007006E9F802000B9989828A831410E7066F
:10086300F59302000BA6F59302000BB2ECF0A3ED97
:10087300F0A3EEF0A3EFF022A42582F582E5F03594
:1008830083F58322F8E0FBA3A3E0F925F0F0E582EA
:10089300158270021583E0FA38F022EBF0A3EAF038
:1008A300A3E9F022EB7006E9F802000BCE89828AF5
:1008B300831410E706F59302000BD7F59302000BA0
:1008C300E0D093D083D082F8E493701274019370D4
:1008D3000DA3A393F8740193F5828883E4737402E0
:1008E300936860EFA3A3A380DFD093D083D082E487
:1008F300937012740193700DA3A393F8740193F58D
:10090300828883E4737402936C70127403936D7022
:100913000C7404936E70067405936F60DDA3A3A338
:10092300A3A3A380CA8B938A838982159353937F4E
:10093300E473EF4E6022EF60010EEDBB0007F70991
:10094300DFFCA9F022BB8000500E89828A838B933F
:100953001593F0A3DFFCDEFA22EB700C87F009E6B7
:1009630008B5F019DFF6801589828A831410E70F22
:10097300F593E0F5F0A3E608B5F002DFF5806AF53C
:1009830093E493F5F0A3E608B5F05EDFF4805ACB69
:10099300701388828C838B9387F009E493A3B5F05B
:1009A30048DFF580441410E71F88848C858B958974
:1009B300828A83F593758620E0F5F0E493A3A3B5CB
:1009C300F024DFF4DEF2801E88848C858B95898287
:1009D3008A83F593758620E493F5F0E493A3A3B596
:1009E300F004DFF3DEF17586007FFFB5F0020F221E
:1009F30040027F01220200095C809488F0EF6001CD
:100A03000E4E60F0ED60EE1410E7EECB70128882AC
:100A13008C83F59387F009E0A3B5F0CDDFF680C9A9
:100A23001410E71E88848C858B9589828A83F593BD
:100A3300758620E0F5F0E0A3A3B5F0AADFF5DEF3B9
:100A430080A488848C858B9589828A83F5937586A7
:100A530020E493F5F0E0A3A3B5F08BDFF4DEF2809E
:100A630085EB7008E709F608DFFA801B89828A8321
:100A73001410E70AF593E0A3F608DFFA8009F5936B
:100A8300E493A3F608DFF9ECFAA9F0EDFB2288F072
:100A9300EF60010E4E60F088F0ED60C51410E7E7DB
:100AA300CB700E88828C838B93E709F0A3DFFA80E7
:100AB300D61410E71C88848C858B9589828A83F5EC
:100AC30093758620E0F0A3A3DFFADEF87586008035
:100AD300B688848C858B9589828A83F59375862065
:100AE300E493F0A3A3DFF9DEF77586008099EB703A
:100AF30008E709F60870FA801B89828A831410E7D5
:100B03000AF593E0A3F60870FA8009F593E493A33A
:100B1300F60870F9ECFAA9F0EDFB2288F0ED60CE4F
:100B23001410E7F0CB700E88828C83F593E709F0FD
:100B3300A370FA80DF1410E71A88848C858B95895B
:100B4300828A83F593758620E0F0A3A370FA7586F5
:100B53000080C188848C858B9589828A83F59375FF
:100B63008620E493F0A3A370F975860080A6E6FCC3
:100B730008E6FD08E6FE08E6FF22E0FCA3E0FDA38D
:100B8300E0FEA3E0FF22E493FC740193FD7402935F
:100B9300FE740393FF22E6FB08E6F908E6FA08E68B
:100BA300CBF822E0F8A3E0F9A3E0FAA3E0FB22E408
:100BB30093F8740193F9740293FA740393FB22EC90
:100BC300F608EDF608EEF608EFF622E6FB08E6FA7D
:100BD30008E6F922E0FBA3E0FAA3E0F922E493FBA1
:100BE300740193FA740293F922BB001CD093D0F0E2
:100BF300D0E0F8D0E0C9FBD0E0FAD0E0CBC8C0E049
:100C0300C0F0C09302000C40BB80005022D093D0B0
:100C1300F0D0E0F8D0E0C9F582D0E0CAF583D0E0A7
:100C2300CB14C8C0E0C0F0C09388930200089ED0E4
:100C330093D083D082D0E0D0E0D0E0E473EBF60829
:100C4300EAF608E9F622E511242CF582E4341CF5D2
:100C530083759300E005112290001C29300B04904A
:100C6300001C2CE475F00112000887020005242003
:100C730004E57F2ED2048018EF540F2490D434401F
:100C8300D4FF30080BEF24BFB41A0050032461FFD4
:100C9300E512600215120515E51570020514300BF7
:100CA3001190001C29E475F00112000887EF02007F
:100CB300055602001F487403D20B8003E4C20BF5F0
:100CC3001190001C291200089EE4F512F514F51585
:100CD300E51260087F2012000C9380F47513FFC2A5
:100CE30005C204C206C207C209C20AC20C12000C22
:100CF3005BFF700E300B067F0012000CA4AF15AE25
:100D03001422B42563C2D5C20812000C5BFF24D0A1
:100D1300B40A00501A75F00A781230D50508B6FFE8
:100D23000106C6A426F620D5047002D20780D82473
:100D3300CFB41A00EF5004C2E5D20802000FE1D28B
:100D43000580C4D20480BED20680BAD2D580B8D280
:100D53000980B27F2012000C932006077401B5129C
:100D63000040F012000C49FF12000C9302000CD358
:100D7300D20CD20A808F12000C49FB12000C49FAE4
:100D830012000C49F94A4B700679EE7A107B8120E8
:100D9300063DE51260397E00E9C0E02EF9EAC0E0C5
:100DA3003400FA12000524F9D0E0FAD0E0C9600655
:100DB3000EEE651370E2C2D5EBC0E0EAC0E0E9C015
:100DC300E0EE12001049D0E0F9D0E0FAD0E0FB12D7
:100DD300000524FF6096EBC0E0EAC0E0E9C0E01242
:100DE300000C93D0E02401F9D0E03400FAD0E0FB0A
:100DF300E5130460DAD513D702000D6FD206808F96
:100E03001200102560F6E51370010412000156A9C3
:100E130013600EE513600A14F513120010D8EF6087
:100E2300F2EA30E702F404C399400402000EB8EA80
:100E3300F425130430E701E404F513800F120010C6
:100E43002560B9EA0513251312000156EA90001C28
:100E530058F030E701E4251304D5130420090114E5
:100E630012001049E4C0E0120010D890001C58E0B2
:100E7300601420E70814F012000C7B802604F0D0E5
:100E8300E014C0E07F0012000C7BE5136008120041
:100E93000C721513800D30090412000C72D0E0029D
:100EA300000CD3D0E00480BD120010256093E5133D
:100EB300041200015690001C58EAF0E513200902C1
:100EC30060010424041200104974FF04C0E01200FE
:100ED30010D812000C7BE513200902600412000CE9
:100EE30072D0E0B513E57F4512000C8590001C58C5
:100EF300E07F2B30E7047F2DF404C0E012000C9355
:100F0300D0E075F00A84C0F012000C7CD0E012002F
:100F13000C7C02000CD3791080027908C20AC20C3F
:100F23008008D2D5790A8004790AC2D5E513047002
:100F330002F513E4FAFDFEFF12000C49FC7B0820C6
:100F4300051612000C49FD7B1030040C12000C49ED
:100F5300FE12000C49FF7B20EC3382D592D550134F
:100F6300C3E43004069FFFE49EFEE42005039DFDD9
:100F7300E49CFCE4CBF8C205EC700CCFCECDCCE8FE
:100F830024F8F870F38017C3EF33FFEE33FEED332D
:100F9300FDEC33FCEB33FB994002FB0FD8E9EB305C
:100FA3000505F8D0E0C448B205C0E00AEC4D4E4F49
:100FB30078207B0070C2EAB5130040BCC0E0120089
:100FC300104BD0F0D0E0200504C4C0E0C4B205C08B
:100FD300F012000C7CD0F0D5F0EA02000CD3120022
:100FE30008C40D79530F19580D464C0D42420F1D7D
:100FF3004F0F25440F25490D5C430F2B550E4046DB
:101003000EAB450E0347110B500D4A2D0D4E2E0D01
:10101300752B0D52230D732010F72A0D084800007D
:101023000D6BE513B4FF0375130612000C49FC1294
:10103300000C49FD12000C49FE12000C49FF900000
:101043001C5102000193790AA2D520071430090923
:10105300B910020404B9080104A2D5200A02500100
:101063000420066D9206B512005036C0E07F203092
:10107300071A7F30A206720A72095010120010A4D8
:10108300C206C20AC209C20C7F308010300903E9CC
:10109300C0E012000C93300903D0E0F9D0E0B512A0
:1010A300CA3009197F30B9100D12000C937F5830E4
:1010B30008077F788003B9080412000C93300606F2
:1010C3007F2D02000C937F20200CF77F2B200AF248
:1010D30022920680CC7F00B40700500E2451F58283
:1010E300E4341CF583759300E0FF22286E756C6C65
:1010F3002900D20512000C493005F7C205781230D9
:10110300D50108F602000D0812000C497F4960085A
:101113007F4310E7027F5814C0E0EF12000C847481
:101123003A12000C84D0E0600DC0E0C412000C7CC5
:10113300D0E012000C7CD20775120402000F1920B4
:1011430020202020202020202020202020202000BC
:1011530000000000000000000000004F000000003D
:10116300000007000700000000147F147F14000034
:1011730000242A7F2A12000000231308646200005F
:10118300003649552250000000000503000000000E
:1011930000001C2241000000000041221C0000004E
:1011A3000014083E081400000008083E0808000068
:1011B300000050300000000000080808080000008C
:1011C300000060600000000000201008040200001E
:1011D300003E5149453E0000000000427F400000B0
:1011E3000042615149460000002141454B31000056
:1011F300001814127F1000000027454545390000F0
:10120300003C4A4949300000000101790503000010
:10121300003649494936000000064949291E0000A5
:1012230000003636000000000000563600000000C3
:1012330000081422410000000014141414140000C8
:1012430000004122140800000002015109060000B9
:1012530000324979413E0000007E1111117E0000E9
:1012630000417F4949360000003E414141220000D0
:1012730000417E4141223C00007E4949494900002A
:10128300007F090909010000003E4141497A00003D
:10129300007F0808087F00000000417F4100000034
:1012A300002040413F010000007F0814224100005C
:1012B300007F404040400000007F020C027F00009E
:1012C300007F0608307F0000003E4141413E0000A0
:1012D300007F090909060000003E4151215E00001C
:1012E300007F0919294600000026494949320000B8
:1012F3000001017F01010000003F4040403F00002A
:10130300001F2040201F0000007F2018207F0000C6
:101313000063140814630000000708700807000046
:10132300006151494543000000007F414100000036
:101333000002040810200000000041417F0000006B
:10134300000402010204000000404000404000008D
:1013530000010204000000000020545454780000EF
:10136300007F4844443800000038444444280000C7
:1013730000384444487F0000003854545418000097
:101383000000087E09020000000C52524C3E00008F
:10139300007F0804047800000000447D4000000042
:1013A300002040443D00000000007F10284400005E
:1013B3000000417F40000000007C047804780000B6
:1013C300007C0804047800000038444444380000DA
:1013D300007E0C12120C0000000C12120C7E000096
:1013E300007C0804040800000058545454640000AE
:1013F30000043F4440200000003C40403C400000CB
:10140300001C2040201C0000003C4030403C0000F9
:101413000044281028440000001CA0A0907C000079
:10142300004464544C4400000000083641000000AE
:1014330000000077000000000000413608000000B3
:10144300000201020402000000FFFFFFFFFF000093
:10145300D6D0CDBEB0CEBFA800B2BBBFC9CAB6B14D
:10146300F0BFA800BFA8C7AEB0FCB4EDCEF300CE6A
:10147300B4C9CFB4ABC1F7CBAE00C7EBB2C9BCAFF5
:1014830000BADABFA800BFA8D2D1B9C6DA00CEDE4F
:10149300C8A8CFDE00BFA8D3E0B6EEB2BBD7E30047
:1014A300BFA8D2D1CBF800C3E2B7D1BFA800BCC755
:1014B300C2BCD2D1C2FA00D6D8B8B4CBA2BFA8005E
:1014C300C9E8D6C3B4EDCEF300CAB1D6D3B4EDCEDA
:1014D300F300D3B2BCFEB9CAD5CF00B2BBD6A7B313
:1014E300D6BFA8C0E0D0CD0000B4E6B4A2C8DDC129
:1014F300BF00CEEFC0ED4944CEB4C9E8D6C300B1B6
:10150300B8B2CE00D6F7B2CEB4EDCEF300BBD6B8A8
:10151300B4D6F70057522053455249414C00524428
:101523002053455249414C005B25645DB4EDCEF335
:10153300C2EBA3BA25642000252E30326600726503
:1015430061646572004550203100455044203100EC
:101553006B657900455020320045504420320045E8
:10156300502033004550442033004550203400318F
:101573002E20BAECCDE2CDA8D1B6202000322E2009
:10158300B4AEBFDACDA8D1B6202000332E20475009
:101593005253CDA8D1B62020002020202020202087
:1015A30020202020202000C9E8B1B8CEEFC0ED49AB
:1015B30044002530325825303258253032582530F2
:1015C300325800CFB5CDB3CAB1BCE400B5B1CCEC51
:1015D300D3AAD2B5B6EE00252E30326620D4AA00A7
:1015E300C7B0D2BBCCECD3AAD2B5B6EE00BBF9B42C
:1015F300A1B7D1C2CA00B2C9BCAFCAB1BCE4BCE492
:10160300B8F400256420CCEC00C1ACD0F8CBA2BF69
:10161300A800256420C3EB00B5B1C7B0C1F7CBAEBA
:10162300BAC500256C7500CEB4B2C9BCAFBCC7C285
:10163300BC00257520CCF500B3CCD0F2B0E6B1BE2A
:101643000025730030393132323349474D00CEB46F
:10165300B2C9BCAFCCECCA00257520CCEC00BADA19
:10166300C3FBB5A5B0E6B1BEBAC5004275696C64EB
:101673000044656320323320323030390031373A49
:1016830032303A303000B7FECEF1C6F7495000256C
:10169300642E25642E25642E256400B7FECEF1C684
:1016A300F7B6CBBFDA00256400312E20CBA2BFA84A
:1016B300CAD5B7D1202000322E20B2E9D1AF2020E5
:1016C3002020202000332E20CDA8D1B6202020209A
:1016D300202000001F1C1F1E1F1E1F1F1E1F1E1F5A
:1016E30081157281CE3281158081D0D181158E8191
:1016F300CB5981159C000000010DB7000000811635
:10170300AC81A17D8116BA813BF28116C881DFD7F6
:10171300605A0DFE0001811453000281145C000322
:101723008114670004811472000581147D00068111
:10173300148400078114890008811491000981141D
:1017430098000A8114A3000C8114AA000D8114B11E
:10175300005A8114BA005C8114C3005B8114CC006D
:10176300B18114D5005F8114DE00FE8114EB6200A9
:1017730016C00000102120423063408450A560C68B
:1017830070E781089129A14AB16BC18CD1ADE1CE3B
:10179300F1EF123102103273225252B5429472F7B2
:1017A30062D693398318B37BA35AD3BDC39CF3FF8B
:1017B300E3DE246234430420140164E674C744A4C2
:1017C3005485A56AB54B85289509E5EEF5CFC5ACDB
:1017D300D58D365326721611063076D766F6569592
:1017E30046B4B75BA77A97198738F7DFE7FED79D2B
:1017F300C7BC48C458E5688678A708401861280222
:101803003823C9CCD9EDE98EF9AF89489969A90A7A
:10181300B92B5AF54AD47AB76A961A710A503A33F1
:101823002A12DBFDCBDCFBBFEB9E9B798B58BB3BCA
:10183300AB1A6CA67C874CE45CC52C223C030C6081
:101843001C41EDAEFD8FCDECDDCDAD2ABD0B8D681A
:101853009D497E976EB65ED54EF43E132E321E51D1
:101863000E70FF9FEFBEDFDDCFFCBF1BAF3A9F596A
:101873008F78918881A9B1CAA1EBD10CC12DF14E0A
:10188300E16F108000A130C220E350044025704670
:10189300606783B99398A3FBB3DAC33DD31CE37F9B
:1018A300F35E02B1129022F332D2423552146277C0
:1018B3007256B5EAA5CB95A88589F56EE54FD52C6B
:1018C300C50D34E224C314A0048174666447542410
:1018D3004405A7DBB7FA879997B8E75FF77EC71D7B
:1018E300D73C26D336F2069116B066577676461560
:1018F3005634D94CC96DF90EE92F99C889E9B98ACB
:10190300A9AB584448657806682718C008E13882AF
:1019130028A3CB7DDB5CEB3FFB1E8BF99BD8ABBBDA
:10192300BB9A4A755A546A377A160AF11AD02AB3FF
:101933003A92FD2EED0FDD6CCD4DBDAAAD8B9DE82A
:101943008DC97C266C075C644C453CA22C831CE04F
:101953000CC1EF1FFF3ECF5DDF7CAF9BBFBA8FD9BA
:101963009FF86E177E364E555E742E933EB20ED19F
:101973001EF04818C03230303530313331C10D4498
:101983001D897C2F2D5C411D56014C000600000073
:1019930000000000000000000046000000000000FE
:1019A30000004200120000420C140000004F4B00E4
:1019B30041542B4D495053454E443D25642C220040
:1019C300220D007265637620657272310041542BDB
:1019D3004D4950505553483D25640D002B4D4950FA
:1019E30052544350007265637620657272330075FA
:1019F300706C6F6164207265632065727200646F3E
:101A0300776E6C6F616420626C6B2E2E2E00626C9D
:101A13006B206572722E2E2E00696E697469616C7B
:101A2300206461696C0041540D0041542065727259
:101A33006F72006461696C20636D6E65742E2E2E67
:101A43000041542B4D495043414C4C3D312C2263B2
:101A53006D6E6574220D00007830300078303000F0
:101A63007830300078303000636F6E6E207376729A
:101A7300202E2E2E0041542B4D49504F50454E3DA4
:101A830025642C25642C2225642E25642E25642EA2
:101A93002564222C25642C300D0041542B4D4950D4
:101AA300434C4F53453D25640D006D69706F706560
:101AB3006E206572726F7200636F6E6E20636D6E5F
:101AC3006574206572720041542B4D495043414C5B
:101AD3004C3D300D0081DF6F81E3FF81B3EC819DCD
:101AE3007281755700000081D70B81E3F381BADF60
:101AF30081E3DA817BD000000075C7AA75C75575ED
:101B03009D0275C7AA75C75575C600787FE4F6D8D8
:101B1300FD75817002001B450200C973E493A3F8AD
:101B23005407240CC8C333C4540F4420C88340044F
:101B3300F456800146F6DFE4800C0102040810200D
:101B4300408090001713E47E019360CCA3FF543FC1
:101B530030E509541FFEE493A360010ECF54E0B4B3
:101B6300E026E493FBA3E493FAA3E493F9A3E493B9
:101B7300C083C08212000556D082D083A309E970C6
:101B8300010ADFEADEE880BE54C025E0602B408C0A
:101B9300E493A3FAE493A3F8E493A3C8C582C8CA61
:101BA300C583CA759300F0759300A3C8C582C8CADC
:101BB300C583CADFE3DEE1808DE493A3F8E493A356
:101BC3004003F68001F208DFF402001B49776169E4
:101BD3007474696E672E2E2E0070726F6365737353
:101BE3002E2E2E00C9E8D6C3CEEFC0ED4944B3C9AB
:101BF300B9A600D0A3D7BCCAB1D6D3B3ACCAB1007F
:101C0300D0A3D7BCCAB1D6D3B3C9B9A600636C6598
:101C1300617220626C61636B2025630070726F6375
:101C2300657373206F6B00696E697420696E6672E9
:101C3300617265642E2E2E00B4F2BFAABAECCDE217
:101C4300CAA7B0DC00696E697420706F732E2E2EE4
:101C530000B4F2BFAA47505253CAA7B0DC00B4F293
:101C6300BFAAB4AEBFDACAA7B0DC00BD0020EF7FC5
:101C730008C2A63392A500D2A6DFF6C2A67F64D21D
:101C8300A5A2A55002DFFAD2A60000C2A622BD017A
:101C930020EF7F08C2A73392A500D2A7DFF6C2A721
:101CA3007F64D2A5A2A55002DFFAD2A70000C2A783
:101CB30022BD0220EF7F08C2963392A500D296DFA1
:101CC300F6C2967F64D2A5A2A55002DFFAD296008F
:101CD30000C29622EF7F08C2973392A500D297DF06
:101CE300F6C2977F64D2A5A2A55002DFFAD297006D
:101CF30000C29722D2A4C2A400C2A2C2A3BD000400
:101D0300D2A2C2A312001D0C22BF0012D2A100D284
:101D1300A4008B8000C2A4C2A112001D3322D2A052
:101D230000D2A4008B8000C2A4C2A012001D3322E3
:101D3300D2A4C2A4C2A200D2A37580FF7400BF00C4
:101D430014D2A100D2A400E58000C2A400D2A4C290
:101D5300A120E7ED22D2A000D2A40000E58000C2BA
:101D6300A400D2A4C2A020E7EC22BF00177D09D2B1
:101D7300A5D2A60000C2A60000D2A60020A502DDBF
:101D8300F4C2A522BF01177D09D2A5D2A70000C2C4
:101D9300A70000D2A70020A502DDF4C2A522BF023E
:101DA300177D09D2A5D2960000C2960000D29600F4
:101DB30020A502DDF4C2A5227D09D2A5D297000099
:101DC300C2970000D2970020A502DDF4C2A522BF6E
:101DD30000127D08D2A5C2A600A2A533D2A6DDF6C5
:101DE300C2A6FF22BF01127D08D2A5C2A700A2A5E9
:101DF30033D2A7DDF6C2A7FF22BF02127D08D2A508
:101E0300C29600A2A533D296DDF6C296FF227D08C4
:101E1300D2A5C29700A2A533D297DDF6C297FF22BF
:101E230090001C23E0FFA3E0FEA3E0CF90001C2C56
:101E3300F0A3EEF0A3EFF090001C26E0CBF0A3E0BC
:101E4300CAF0A3E0C9F07F2290001C2FAD82AC83BF
:101E5300120005248D828C83F0A309E970010ADF47
:101E6300EB90001C26E0FBA3E0FAA3E0F902000CD0
:101E7300B9BF000E12001DD2C2A500D2A60000C237
:101E8300A622BF010E12001DD2C2A500D2A70000D8
:101E9300C2A722BF020E12001DD2C2A500D2960015
:101EA30000C2962212001DD2C2A500D2970000C222
:101EB3009722BADABFA800C3E2B7D1BFA800BFDB3D
:101EC300BFEE20257320D4AA00D3E0B6EE202573FD
:101ED30020D4AA00C1F7CBAEBAC55B256C645D0004
:101EE300C7EBD6D8CBA200BF000AC2A500D2A6007A
:101EF300D2A50022BF010AC2A500D2A700D2A50025
:101F030022BF020AC2A500D29600D2A50022C2A512
:101F130000D29700D2A50022BF0009D2A500D2A605
:101F230000C2A522BF0109D2A500D2A700C2A522E3
:101F3300BF0209D2A500D29600C2A522D2A500D223
:101F43009700C2A522EFB40A08740D12001F54743F
:101F53000A309811A899B8130CC2983098FDA89923
:101F6300C298B811F63099FDC299F599225274635B
:101F7300546D5F5645525F312E3031001F1D1F1EB9
:101F83001F1E1F1F1E1F1E1F1F1C1F1E1F1E1F1F66
:101F93001E1F1E1F20000D0A003031323334353628
:101FA30037383941424344454600E4FFFE120005F9
:101FB30024600C0FEF70010E09E970F10A80EE2224
:101FC3002530326400253032580075C7AA75C755CD
:101FD30053D8FD2275C7AA75C75543D801227E542D
:101FE300DEFEDFFA220605030102030405060708E5
:101FF3000990001B32EEF0A3EFF0A3ECF0A3EDF099
:10200300120041FAFD8C837593002407120040BC33
:1020130074221200419F2408120040BC7442120033
:10202300419F2412120040BC1200416F120041A0D4
:10203300120040BA1200419E240F120040BCE4F08B
:10204300A374051200419F240D120040BCE4F0A3C9
:102053007420F07B817A1B79D07D0AE4FF0133A8D9
:1020630012004071120043B1240F120040BCE4F08F
:10207300A3740AF01200409C120040BAE4F09000EE
:102083001B34E0FCA3E08C83759300240C12004105
:1020930014EF700D7D037F051200DC4850C27FA052
:1020A3002212004071120043B1240B120040BCE421
:1020B300F0A37420F0C203C201E4120041D7F0126E
:1020C30000409C12004034FF2403F8E690001B36C6
:1020D300F0EF2404120042457B817A1B79DC120065
:1020E30034A290001B36E0120008C42E75552F71E0
:1020F3005624FFA12CAFB126FDB23095B32884B48A
:1021030031C1B52E14B6300BB73266B821DFC22207
:10211300DCC32275C4211FC50000330A120041E34A
:10212300FB8A831200403124041200424530E059F7
:10213300E4FF1200433D1200429624081200403689
:1021430090001BE7120040DE120034656401600357
:102153000132D41200407112004145120040361280
:10216300004097120040342406120040F790001BF1
:1021730045E02404F090001B441200406D1200411E
:1021830046120040361200413290001B38E020E135
:10219300030126F812004071120041461200403636
:1021A300120034D0EF640160030124201200407157
:1021B300120041451200403612004097120040348D
:1021C3002406FF120043B82F7F07120040F9900046
:1021D3001B45E02407120043BF0126F812004027E5
:1021E300FF2404F8E6B49909EF2405F8E6640860CF
:1021F3000301328012004071FF1200402F240A12A3
:10220300004097240812004036120040F7120040A5
:102213007112004146120040367A00F97B00C00378
:10222300C001120042AC120040E0D001D0037D0493
:10223300120034B8FF1200423A7408120040862498
:102243000812004036120040DA12004B2B120043F2
:1022530035640160030132D412004071120041461B
:1022630012004036120041327B817A1B79E77D01EF
:10227300805412004071FF1200402F2403120040CB
:10228300972408120040367F0C120041BD12004013
:10229300711200343740187B817A1B79F67D037FF6
:1022A300011200CF4890001B3774A1F001330D12C7
:1022B300004027120041C912005C28EF60117B81A6
:1022C3007A1C79037D037F011200CF4801326290AB
:1022D300001B3774FFF001330D12004071120034FC
:1022E300374003012E7F90001B38E0FF6401600834
:1022F300EF64026003013280120040271200424261
:102303006008E064016003013280EF24061200419B
:10231300D1EFF0640E6003012CCF7F401200433CE9
:10232300741812004086240812004036F990001BEE
:10233300E7120040DF12003465640160030132D408
:1023430090001B377401F0D2021200407112004159
:102353004612004036FF2416F8E66455704CEF240D
:1023630017F8E664AA704390001B32A3E0FF120043
:10237300402F240C120040972408120040362406F4
:102383007F0812004212EF7002C20212004071FF76
:102393001200402F1200409524081200403612000C
:1023A3004210120043C94002C20220020301244E1C
:1023B30012004071FF1200402F240712004097249F
:1023C30008120040367F0E1200425612004071126E
:1023D30000414612004036FF120041C9EF240E7F30
:1023E300081200425612004071120041451200408B
:1023F300362416F876551200409C24081200403605
:102403002417F876AA7F401200423974181200404C
:1024130086240812004036120033D5600790001B53
:10242300370132D412004071120041461200403687
:10243300120041C990001B4B7401F0A3740CF0A36C
:102443007416F01200DD511200434512004354602C
:10245300030124F47F1090001BE61200408124083E
:1024630012004036F990001BE7120040DF120034DF
:102473007A600790001B370132D4120040711200BA
:102483004146120040367A00F97B0024067F06128B
:102493000041BD7E007F077D0012004087240812A3
:1024A3000040362410120042CF1200407112004146
:1024B3004612004036120033E98C83120040311279
:1024C3000033AF240812004036120033D560079062
:1024D300001B370132D41200407A24081200403620
:1024E300120040DA12003441600790001B370132BA
:1024F300D4E4120041D7F0D20101330DC20212001D
:1025030041FAFD8C837593002412120040BC120023
:10251300416F120041A02414120040BC7404F0A3C4
:102523001200419E120040342404120041D1EFF006
:1025330090001B3270321200402BFF2405F8E6FD99
:10254300E4120041D7EDF0D202EF120042D812009C
:10255300E0701200417890001B45E02400FF9000DA
:102563001B44E03401FE80191200402B120041C9C4
:102573001200E0701200417890001B44E0FEA3E0DB
:10258300FF120041FA8C837593002414120040BC9F
:10259300EEF0A3EFF0E4FFFE7D08FC90001B391280
:1025A30000410912004290502B1200407112004268
:1025B300E012004036FEA3E0FF1200435CE0F8A304
:1025C300A3A3E012004284E4FBFA7908F8D31200D3
:1025D30007E3500301328090001B39A3A3A3E05407
:1025E3000FFFE4FEFDFCFBFAF9F8C3120007E360FA
:1025F30003012CCF12004071120042E0120040365A
:10260300FAA3E0FBD39438EA94005036120040E773
:10261300EB120041DE8A83120040312406F9900058
:102623001BE7120040DF1200347A600790001B376B
:102633000132D4C20312004071120040B5E4F0012C
:1026430026E212004071120040B57401F0D203E497
:1026530090001B42F0A3F012004071120042E012FE
:10266300004036120042B55076C3EF9DFFEE1200D4
:1026730043D040047F40800090001B41EFF01200E4
:1026830040F01200435C12004109120042849000A2
:102693001B41E090001BE61200408624121200400A
:1026A30036FAA3E0FB90001B42E0F8A3E0F582EBCF
:1026B3002582FBEA3890001BE71200420312003424
:1026C300C0600990001B3774B1F0801390001B4168
:1026D300E0FF90001B43E02F120043DA01265A1259
:1026E300004071120042E012004036FFA3E0CF1217
:1026F30000431AEFF0D2010132621200407112005E
:1027030034494003012E7F7F601200433C74201242
:10271300004086240812004036F990001BE712009F
:1027230040DF120034C0600790001B370132D490A1
:10273300001B38E0702012004071FF1200402F127E
:102743000040952408120040361200421012004344
:10275300C940030128DF120040271200348A120007
:1027630041787FA07E867D017C0090001B3912009A
:102773004109FBD3120007E34003012CCF120040B1
:1027830027F9240FF8E6D394604003012CCFE91214
:1027930000349690001B42EEF0A3EFF0E4FCFD7BC7
:1027A300407A7E7905F8C3120007CD401090001BD4
:1027B30043E0943C90001B42E094005003012CCF73
:1027C3007E007F207DFF12004087240812004036E0
:1027D300120042CF12004071FF1200402F1200403E
:1027E30095240812004036F87C007D007E007F0CA3
:1027F30012000A9112004071120041461200403645
:10280300F97A007B007D1E7C00120034088C8375EE
:102813009300240812004036241EF97A007B00122C
:1028230000E1AC7F6012004239742012004086241C
:102833000812004036120040DA120034416007905B
:10284300001B370132D412004027240678307C0C59
:102853007F061200401A1200348A90000C361200D0
:10286300086F12004027FF240FF8E690000C3CF09D
:10287300EF1200349690000C3AEEF0A3EFF0013221
:10288300621200407112003449400D12004071126F
:102893000040B5E4F0013270120041E3FB8A831279
:1028A3000040B7E4F07F807E0D7D03120041771274
:1028B3000042E8603190000C49E0602A120042991E
:1028C30012004034120042D8784A7C0C7D017E000D
:1028D3007F06120009FE120043C9400A90001B370D
:1028E3007401F001330D120043E4F012004027128B
:1028F300004242640160030129AB120041FAFD1258
:102903000041C8120041A0241212004036120040B8
:1029130042120041B41200403612004364C083C027
:102923008212004180120043EED082D08312004114
:10293300EC7455F01200409C241212004036120031
:10294300436CC083C08212004180120043F5D082E1
:10295300D0831200421D74AA12004070FF1200407F
:102963002F240C120040972412120040361200400C
:10297300C77E001200414E2420120040681200411D
:10298300B512004036120040C7A807FC7D017B0149
:102993007A0C79707E017F001200415524001200E9
:1029A30043FC3401F0012B4890001B38E0640260C3
:1029B30003012A9412004071FF1200402F240712D2
:1029C3000040972412120040361200404212004188
:1029D300B41200403612004364C083C08212004127
:1029E30080120043EED082D083120041EC7455F084
:1029F3001200409C2412120040361200436CC08324
:102A0300C08212004180120043F5D082D0831200AD
:102A1300421D74AA12004070120041B512004036E4
:102A2300120040C7A807FC7D017B017A0C79507E18
:102A33000012004153242012004068FF1200402F6F
:102A4300240D12004097241212004036120040C792
:102A5300A807FC7D017E007F331200415524331209
:102A6300004068120041B512004036FEA3E0FFAA01
:102A730006F97B01120040CBA807FC7D017E007F95
:102A8300CD1200415524CD120043FC3400F0012B3C
:102A93004890001B38E064036003012B451200409B
:102AA30071120041B412004036FCA3E0240412006A
:102AB30043741200409C241212004036120040421C
:102AC300120041B41200403612004364C083C08236
:102AD30012004180120043EED082D083120041ECF9
:102AE3007455F01200409C24121200403612004329
:102AF3006CC083C08212004180120043F5D082D0A3
:102B0300831200421D74AA12004070120041B412D5
:102B1300004036FCA3E0240A120043741200409CD8
:102B2300241212004036120040C77E011200414EAB
:102B33002420120043FC3401F090000C497401F08E
:102B4300800301328090001B447401F0A3742812A7
:102B5300004070120041B512004036FEA3E024008D
:102B6300FFEE3402FAA9077B017D287C01120034B1
:102B7300088C83759300241212004036FCA3E024D2
:102B830000FDEC3402FC90001B45E02DFD90001B82
:102B930044E0120043761200E1AC90001B45E024B0
:102BA30002120043BFE490001B42F0A3F090001B0D
:102BB30044E0120042B5507BC390001B45E09DFFEB
:102BC30090001B44E0120043D040047F40800090FB
:102BD300001B41EFF0120040F01200435C12004171
:102BE300091200428490001B41E090001BE6120092
:102BF3004086241212004036FAA3E02400FBEA3494
:102C030002FA90001B42E0F8A3E02BFBE83A9000A5
:102C13001BE71200420312003453600990001B3774
:102C230074B1F0800E90001B43E02440120043DA9D
:102C3300012BB0120043E412004070120041B512A0
:102C4300004036120040C7784A7C0C120042FE7ED8
:102C5300007F06120041552408120040681200410B
:102C6300B512004036120040C778507C0C12004267
:102C7300FE7E0012004153242012004068120041DE
:102C8300B512004036120040C7FAA9077B017870DD
:102C93007C0C7D017E017F0012000A91E412004149
:102CA300D7F090001B37F0C20101330D90001B38A1
:102CB300E0B4550D12004027FF2405F8E664AA602E
:102CC300028009EF2406F8E66406600A90001B37C9
:102CD30074A4F001330D7E007F027D001200408753
:102CE300240812004036120042CF12004310120093
:102CF3004087240812004036F97A007B001200DC7A
:102D0300CD1200407112004146120040367A00F99C
:102D13007B00C003C0012403120042AE120040E056
:102D2300D001D0031200345BFFFEFDFC120040878C
:102D3300240812004036120041C91200DCCD1200F3
:102D430040711200414612004036FF120041C9C0D3
:102D530003C001EF2409120042AE120040E0D0018B
:102D6300D0031200345BFFFEFDFC120040872408F1
:102D730012004036240CF97A007B001200DA3E126E
:102D830000407112004145120040362417F876FFC7
:102D93001200409C240812004036120033E98C8351
:102DA300759300240812004036120033AF24081232
:102DB300004036120040DA12003453600790001BC3
:102DC300370132D41200407A240812004036120030
:102DD30040DA12003482600790001B370132D4902E
:102DE300000C271200424D1200431090000C2312D6
:102DF30000086F90000C411200424D90000C2274A9
:102E0300FFF0E4FFFEFDFC90000C2B1200086F8026
:102E13005A120041E3FB8A8312004031F924051260
:102E23000041D1EFF0D39410EE94004003013280BF
:102E3300120043B8240629F8E4F67FD01200423A80
:102E430012004296120040342406120040DA1200A7
:102E53003482600790001B370132D41200402724CC
:102E63000678B77C0D7F10120041381200434501EC
:102E730031B612004071120034704003013270E425
:102E8300FFFEFD1200417790001B38E070381200FE
:102E9300C58AEF4E700A90001B37745DF001330D45
:102EA300E4FFFEFDFC90000C2712004109120042D2
:102EB3009070097FC07E0E7D03FC803490000C2748
:102EC300120040EB802A12004354702A120040275C
:102ED300FF2405F8E664046003013280120041C850
:102EE300120034AB90001B3D120040EB1200A7947C
:102EF30012004178800301328090001B3912004197
:102F0300041200429060151200431090001B39E038
:102F1300F8A3A3A3E0C3120007E350030132801216
:102F23000040E790001BE674401200408624121212
:102F33000040361200341E600790001B370132D464
:102F430012004071FF120040B57401F01200409C62
:102F53002414120040BCE4F0A37440F0120043199F
:102F63007440F012004345D201D20301330D120025
:102F73004354600301328012004027FF2405F8E622
:102F830064046003013280120041C8120034AB9024
:102F9300000C27120040EB90001BE6744012004027
:102FA300862412120040361200341E600790001B64
:102FB300370132D412004071120041B5120040367D
:102FC300FEA3E02405FFE43EFAA9077B011200DE1D
:102FD300121200417890001B3D120040EB90001B41
:102FE300391200410912004290600A90001B3774A5
:102FF3005EF001330D1200899E1200433560030118
:10300300330DD201E40131B6120040711200347065
:1030130040030132701200E34F120040711200416D
:103023004612004036120034D012004071120041A3
:103033004612004036FF120043AAC003C001EF123C
:103043000042AC120040E0D001D0037D03120034F3
:10305300B87F801200423A74061200408624081298
:1030630000403604120040DA120034C860079000B2
:103073001B370132D4E490000C3DF090001B37F075
:10308300C201120041D7F07D647F0B1200A8B90181
:10309300330D12004071120034DA40030132701212
:1030A3000042E8600301313FFE7F20FD7B017A0E81
:1030B300799012000935E47F207E01FD80787F3FFF
:1030C3007E0D7D037C0090001B3912004109120024
:1030D3004290400301330D120040E790001BE67459
:1030E3002012004169120034C8600790001B3701A9
:1030F30032D47B817A1C7910120040E778051200E4
:1031030007F4EF5403FFE4FE74892FF582EE341DB8
:103113001200403B90001BB8F0120034A290001B39
:1031230039E0FCA3E0FDA3E0FEA3E02420FFE43E9E
:10313300FEE43DFDE43C12004177808290001B38A1
:10314300E070781200402712004243D3940A4003F0
:10315300013280E490001B41F01200437DFEC39FC7
:10316300502B120041FA8C8312004031240DFFEEE4
:1031730025E025E02FF97A007B001200A546120016
:103183004335700990001B41E004F080CC120043EA
:103193007DC39F500301330D12004027120042D814
:1031A3001200CDA312004335600301330D12004317
:1031B30045C201120041D7F001330D0132801200E4
:1031C30042E860030132807F607E0D7D037C0074E2
:1031D3000A120041DE8A83120040312406F990006E
:1031E3001BE7120040DF12006464EF640160079084
:1031F300001B370132D412004027FF240DF8E6B438
:103203005509EF240EF8E664AA60028035120040E7
:1032130027120041C97D067C001200DC8B1200419D
:10322300FA8C8312004031FE240CF8E66F601E9086
:10323300000002EE120041C97D00AE83AF8212008E
:10324300093512004027240CF876AA8009120040A1
:1032530027240CF876FFD201120043197407F0E417
:1032630001330312004071120034DA400A90001B4C
:103273003774A5F001330D120042E8600A90001B79
:1032830037745CF001330D12004027FF120042D85F
:10329300C003C001EF240D120042AE120040E0D083
:1032A30001D0037D067C001200DBBDE47FF0120039
:1032B300423A740C120041E28A831200403124071F
:1032C300120040DA12004B2BEF6401600990001BDF
:1032D3003774B1F0803412004027240778F57C0D51
:1032E3007F041200401A240BF97A007B001200E2DB
:1032F300F590000DF9EEF0A3EFF0E4120041D7F0E2
:1033030090001B37F080037FA32290001B36E0FF61
:10331300120041FAFD8C83120040312403F8A60702
:1033230090001B37E0FF120041A012004034240438
:10333300F8A60720033212004027F97A007B001217
:103343000043B8FDA20192041200A40790001B41A0
:10335300EFF0FD12004071120043B1240912004046
:10336300BCE4F0A3F0FC802012004071AA06F97BB4
:103373000112004306A201920412009956501C1236
:10338300004071FF1200430690001B34E0FAA3E0F3
:103393008A837593002406120041147B817A1C7979
:1033A3001FE4FD7F011200CF480120632418F97A3E
:1033B300007B001200E1ACE47F10FEFDFC90001BDB
:1033C300E6741AF090001B32E0FAA3E08A83759347
:1033D3000022F990001BE7E4F0A3F0A3E9F0120048
:1033E3004B2BEF640122F97A007B007D187C0012DD
:1033F30000D56E90001B42EEF0A3EFF090001B325D
:10340300E0FCA3E0221200D56E90001B42EEF0A375
:10341300EFF090001B32E0FCA3E022FAA3E0F99066
:10342300001BE77401F0A3EAF0A3E9F0120064645F
:10343300EF640122AA06F97B011200B302221200F3
:103443004B2BEF640122AA06F97B011200B302227F
:1034530012004B2BEF6401227D037C001200DBBDC5
:10346300E4221200646490001B37EFF022AA06F9ED
:103473007B011200B3022212006464EF6401221282
:10348300004B2BEF640122240CF97A007B0012001D
:10349300E070222410F97A007B001200E2F522E4A6
:1034A300FD7F011200CF48221200DE1290001B3D67
:1034B3001200086F227C001200DBBDE422120064BC
:1034C30064EF64012212004B2BEF640122F97A00AE
:1034D3007B001200440A22AA06F97B011200B30200
:1034E3002290001C2FEFF0A3EDF0A3EBF0A3EAF082
:1034F300A3E9F0E490001C35F0A3F090001C38F031
:1035030090001C3FF0A3F0A3F0A304F0A3F0E4A306
:10351300F0A3F0A3F0A3F0A3F0F514F513F512F55F
:10352300111200E2BF90001C31E0FBA3E0FAA3E01C
:10353300F912001FAD90001C37EFF090001C34E02F
:10354300600990001C4974FFF08006E490001C4958
:10355300F090001C2FE025E090001C36F0A3E0F96A
:10356300FD90001C30E0FE2DFDE433FCC3ED941010
:10357300EC648094804003013666EEC394084042B5
:10358300E490001C3FF090001C30E0940890001C75
:1035930040F0E490001C39F090001C3BE9F0E0FFA0
:1035A300C313FEA3F0E490001C3AF090001C48EE15
:1035B300F0EF540190001C3EF0E490001C3DF0013C
:1035C300371590001C30E0FF90001C3FF090001C6A
:1035D30037E0FEFDEF2DFDE433FCC3ED9408EC640E
:1035E300809480500990001C39EEF0E4801790001D
:1035F3001C30E0FFC374089FFF90001C39F090005B
:103603001C37E0C39F90001C3BF0E490001C40F08B
:1036130090001C39E0FFC313A3F090001C47F0EFA8
:10362300540190001C3DF090001C3BE0FFC313A32A
:10363300F090001C48F0EF540190001C3EF0700322
:1036430001371590001C3DE0700301371590001CF5
:1036530040E004F090001C3CE004F0E090001C48C3
:1036630001370D90001C30E0C394084042E4900001
:103673001C3DF090001C30E0FF74109F90001C3B39
:10368300F0E490001C39F0A3F090001C3FF0C3EF6E
:103693009408A3F090001C3BE0FFC313A3F0900039
:1036A3001C48F0EF540190001C3EF06065805C9074
:1036B300001C30E0FFC374089F90001C39F0900099
:1036C3001C3B7408F090001C3FEFF0E4A3F0900063
:1036D3001C39E0FFC313A3F090001C47F0EF540123
:1036E300FF90001C3DF090001C3BE0FEC313A3F0D1
:1036F30090001C48F07408540190001C3EF0EF60E9
:10370300117401F090001C40E004F090001C44741C
:1037130001F0E490001C38F090001C37E0FFA3E0B8
:10372300C39F4003013BEC12001FD7E490001C41F0
:10373300F090001C38E0FD90001C707401F0A3743D
:103743001CF0A3746AF090001C31E0FBA3E0FAA321
:10375300E0F91200C138EF64026003013BE290001C
:103763001C6AE0FEA3E0FF1200CBF18F148E138DD1
:10377300128C117F407E047D047C00AB14AA13A934
:1037830012A811C3120007E3505BE4F51575BE01DF
:10379300E42514FBE43513FAE5123430F9E435116A
:1037A300F8E4FCFDFEEB2515FFEE3AFEED39FDECEA
:1037B30038FCE42FFFE43EFEED3401FDA907AA0621
:1037C300AB0512000524F516E4F5BE744A2515F57C
:1037D30082E4341CF583759300E516F00515E515B1
:1037E300B420AA80107E007F207DFF7B017A1C79A4
:1037F3004A1200093590001C3AE0D39400500301AB
:10380300392790001C47E0FF90001C45E09F4003D0
:1038130001392790001C36E044B8FB7D01E4FF1218
:10382300001CF790001C42E0600B90001C3FE07509
:10383300F008A4801390001C45E0C454F0FF9000EE
:103843001C3FE075F008A42F4440FB7D01E4FF1208
:10385300001CF7E490001C35F090001C35E0FFC31A
:1038630094105028744A2FF582E4341CF583759321
:1038730000E0FF90001C49E0FEEF6EFBE4FDFF1249
:10388300001CF790001C35E004F080CD90001C363E
:10389300E00444B8FB7D01E4FF12001CF790001C18
:1038A30042E0600B90001C3FE075F008A480139089
:1038B300001C45E0C454F0FF90001C3FE075F00885
:1038C300A42F4440FB7D01E4FF12001CF790001C71
:1038D300357410F090001C35E0FFC3942050287419
:1038E3004A2FF582E4341CF583759300E0FF9000C2
:1038F3001C49E0FEEF6EFBE4FDFF12001CF7900095
:103903001C35E004F080CDE490001C42F090001CD4
:103913003AE014F0E0700690001C4104F090001CA3
:1039230045E004F090001C3AE06003013BE29000A4
:103933001C3CE0D394005003013BE290001C41E0A7
:1039430064017003013BE290001C48E0FF90001CFF
:1039530046E09F4003013BE290001C3EE070030100
:103963003AC590001C3DE07003013AC590001C3637
:10397300E044B8FB7D01E4FF12001CF77B787D0176
:10398300E4FF12001CF7E490001C35F090001C3596
:10399300E0FFC394085028744A2FF582E4341CF5E1
:1039A30083759300E0FF90001C49E0FEEF6EFBE49B
:1039B300FDFF12001CF790001C35E004F080CD9051
:1039C300001C36E00444B8FB7D01E4FF12001CF741
:1039D3007B787D01E4FF12001CF790001C35741006
:1039E300F090001C35E0FFC394185028744A2FF55B
:1039F30082E4341CF583759300E0FF90001C49E0DA
:103A0300FEEF6EFBE4FDFF12001CF790001C35E097
:103A130004F080CD90001C36E044B8FB7D017F01AB
:103A230012001CF77B407D017F0112001CF7900000
:103A33001C357408F090001C35E0FFC39410502926
:103A4300744A2FF582E4341CF583759300E0FF90EC
:103A5300001C49E0FEEF6EFBE4FD7F0112001CF742
:103A630090001C35E004F080CC90001C36E0044448
:103A7300B8FB7D017F0112001CF77B407D017F01B4
:103A830012001CF790001C357418F090001C35E0F0
:103A9300FFC394204003013BCB744A2FF582E434E7
:103AA3001CF583759300E0FF90001C49E0FEEF6E68
:103AB300FBE4FD7F0112001CF790001C35E004F0CD
:103AC30080C990001C36E044B8FB7D017F011200E1
:103AD3001CF790001C43E0600FA3E0600B90001CF8
:103AE30040E075F008A4801390001C46E0C454F035
:103AF300FF90001C40E075F008A42F4440FB7D01BB
:103B03007F0112001CF7E490001C35F012001FD750
:103B130090001C35E0244AF582E4341CF583759348
:103B230000E0FF90001C49E0FEEF6EFBE4FD7F0127
:103B330012001CF790001C35E004F0E0C394104021
:103B4300CB90001C36E00444B8FB7D017F011200DA
:103B53001CF790001C43E0600FA3E0600B90001C77
:103B630040E075F008A4801390001C46E0C454F0B4
:103B7300FF90001C40E075F008A42F4440FB7D013A
:103B83007F0112001CF790001C357410F090001C8C
:103B930035E0FFC394205029744A2FF582E4341C86
:103BA300F583759300E0FF90001C49E0FEEF6EFB88
:103BB300E4FD7F0112001CF790001C35E004F08047
:103BC300CC90001C46E004F0E490001C3EF0900012
:103BD3001C3DF090001C43F090001C3CE014F0905E
:103BE300001C38E004F001371BE4FF0200E2C4903C
:103BF300001B6A7401F0E4A3F0A37407F07F0112C1
:103C0300008ECB90001B69EFF014601624FC602D2E
:103C13002403702C90001B6BE0D394004022E0142B
:103C2300801190001B6CE0FF90001B6BE0C39F5062
:103C33000FE004F090001B6A7401F080037F002200
:103C430090001B6AE060B67F447B017A1B791B12EC
:103C530000724590001B6BE0B408004003013F1D58
:103C630090003C6C25E025E07302003C8C02003C94
:103C7300F702003D3E02003D7F02003DD202003EBE
:103C83002102003E6702003EAA74811200718F7404
:103C930015F074AA12003F8D7481F0A37415F0A37C
:103CA30074B5F090000C1E120071C890000C1F1226
:103CB3000071F690000C20120072D190000C21E0EC
:103CC300FF90001C35E412003F9E7481F0A374152D
:103CD300F074C612003FF31200E34F7B017A1B79A5
:103CE3005F1200440A1200725A7B017A1B795F7DCE
:103CF30007013E6074811200718F7415F074CF1246
:103D0300003F8D1200721F90000C4112003F5B7444
:103D130081F0A37415F074E312003FB11200721F17
:103D230090000C4512007124E4120000CDE4FBFA6C
:103D330079C878421200002B013DC77481120071CB
:103D43009E7415F074F012003FC21200721F9000AF
:103D53000C3612003F5B7481F0A37415F074F912F2
:103D6300003FB17481F0A37416F0A37406F09000C1
:103D73000C3CE0FF90001C2FE4013F0F7481120004
:103D8300719E7416F0740C12003FC27481F0A37418
:103D930016F0A37415F090000C3A120072F612009C
:103DA3003F9E7481F0A37416F0741B12003FF374EA
:103DB30081120071B87416F0A37426F090000C2BD6
:103DC3001200712490001C2F1200086F013F13741E
:103DD30081120071B87416F0742A120040001200A8
:103DE300C58A7481120071EF7416F0A37435F0A3C1
:103DF300EEF0EF1200400D7481120071EF7416F0B3
:103E0300A3743BF07A1B793D12003FD312007282F8
:103E13007481F0A37416F0A37447F0013F13748107
:103E23001200722B7416F074511200400074811248
:103E330000722B7416F0A3745BF090000C3DE090BD
:103E4300001C2F12003FE27B817A16796112007207
:103E53008B1200725A7B017A0D79EF7D061200CF27
:103E6300CC013F1D7481120072A97416F0A3746E05
:103E7300F07A1B791B12003FD3120072827481F017
:103E8300A37416F074741200400D7481120072A9A9
:103E9300120072827481F0A37416F0A37480F07B15
:103EA300017A1B793D806F781B7C1B7D017B817AB6
:103EB30016798912000B1E90001C2C7481F0A374D8
:103EC30016F0A37492F090000DF5120071C89000E3
:103ED3000DF6120071F690000DF7120072D19000EA
:103EE3000DF8E090001C3512003FE27B817A1679D1
:103EF3009E1200728B90001C2C7481F0A37416F038
:103F0300A374A9F090000DF9120072F6F0A3EFF07C
:103F13007B017A1B794E12000CB9E490001B6AF006
:103F23001200E224E490001B69F090001B69E0FF9B
:103F3300C394044003013C00EF75F011A4241BF962
:103F4300741B35F0FA7B01120071C01200A2C290FB
:103F5300001B69E004F080D2E0FCA3E0FDA3E0FED7
:103F6300A3E0FFE4120000CDE4FBFA79C878421223
:103F730000002B90001C2F1200086F7B017A1B7925
:103F83002C12000CB990001C2C22A3F07B017A1B8D
:103F9300791B12000CB990001C2C22F0A3EFF07BCC
:103FA300017A1B792C12000CB990001C2C22A3F06F
:103FB3007B017A1B793D12000CB990001C2C22A3C3
:103FC300F07B017A1B791B12000CB990001C2C2288
:103FD3007B0112000CB990001C2C7481F0A322FF0A
:103FE300E4F0A3EFF07B017A1B792C12000CB922C9
:103FF300A3F07B017A1B793D12000CB922A3F07B5D
:10400300017A1B791B12000CB922A3F07B017A1BE6
:10401300792C12000CB922F97A007B007D017E0015
:1040230012000A9190001B32E0FEA3E08E83759389
:10403300002407F582E43583F583759300E022FEBF
:10404300A3E0FF90001B46E0FCA3E0FDEF2DFFEE95
:104053003CA807FC7D017E007F0612000A919000B8
:104063001B47E02406F090001B46E03400F090006C
:104073001B32E0FEA3E022E47FA090001BE6FEFDDE
:10408300FC741AF090001B32E0FAA3E08A83759364
:1040930000222406F97A007B008F828E83759300B9
:1040A300E58222F8A60790001B48E0FBA3E0FAA3F1
:1040B300E0228E837593002411F582E43583F58322
:1040C30075930022FEA3E0FF90001B46E0FCA3E0F3
:1040D300FDEF2DFFEE3C2290001BE7F9E4F0A3F087
:1040E300A3E9F02290001B39E0FCA3E0FDA3E0FE6E
:1040F300A3E0FF227F04F87C007D007E0002000A1B
:1041030091E4FFFEFDFCE0F8A3E0F9A3E0FAA3E0ED
:1041130022F582E43583F583759300E493FB740100
:1041230093FA740293F5828A838B930200092E78A3
:104133001E7C0C7F04F97A007B007D017E00020067
:104143000A91FF8E83759300240822A807FC7D0142
:104153007F2012000A9190001B47E0227F607E0DB2
:104163007D037C00740AF0A37401F0A3740EF0A322
:104173007490F022FC90001B390200086F759300C5
:1041830090001B46E475F00102000620A3E0FAA3A9
:10419300E02412F9E43AFA02000636E4F08D828C48
:1041A30083759300E582222407F9E43AFA020005B5
:1041B30024FF8E83759300241222F87C007D007EF9
:1041C3000002000A91EF2406F97A007B0022F8E648
:1041D300FF7E00EE90001B44F0A32290001BE6F04C
:1041E30090001B32E0FAA3E022E5822DF582E583FD
:1041F3003CF5837593002290001B32E0FCA3E02280
:10420300FAA9037401F0A3EAF0A3E9F0227F06F808
:104213007C007D007E00020009FEE5822FF582E529
:10422300833EF583759300227D017B017A0E79909D
:104233007E0002000A91E4FEFDFC90001BE622FFD3
:104243002405F8E690001B38F022E4FFFEFDFC0293
:1042530000086FF87C007D007E0002000A91FAEFEF
:104263001200055690001B4CE004F02290001BAF97
:10427300A3A3E0FEA3E0FDAC062490F582740E3CFC
:10428300222FFFEA3EFEED39FDEC38FC22FBC30290
:104293000007E37410F08B828A83759300E5822212
:1042A3007E1B7F1B7C1A7DD8222404F990001BE718
:1042B300EB22FEA3E0FF90001B42E0FCA3E0FDC362
:1042C3009FEC9E2290001B4BE004F022F97A007BC6
:1042D30000020009352407F97A007B00228E8375DA
:1042E300930024142290001B38E06499222414F9CB
:1042F300E43AFAE475F0010200065AFAA9077B01D1
:104303007D012290001B44E0FCA3E0FD227FC07EE0
:104313000E7D037C0022E490001B44F0A322FFFDEA
:10432300FC0200086F759300E0FF90001BAEE0FEF7
:10433300EF2290001B37EFF022E4FEFDFC90001B00
:10434300E622E490001B37F02290001B4BE004F0C0
:104353002290001B38E0640122E4FCFD90001B392D
:1043630022FCA3E0F5828C8322FEA3E0F5828E83F8
:1043730022FDE43CFAA9057B012290001B38E0FFF3
:1043830090001B41E022FE90001B48A3E0FAA3E04B
:104393002274902DF582740E3CF5832278907C0E66
:1043A3007D0190001BA72204F97A007B0022FF8E77
:1043B300837593002290001B44A3E022F090001B1E
:1043C30044E03400F022C3EF64809480229CFEC357
:1043D300EF9440EE940022F090001B42E03400F092
:1043E3002290001B467402F0A3E422ADF0FC759307
:1043F3000022AFF0FE75930022F090001B46E022EE
:104403007DB17C007E042290001BA0EBF0A3EAF0B8
:10441300A3E9F043F908A3E5FBF0A3E5FCF0E5FD10
:10442300541FA3F0A3E5FEF0A3E5FFF090001BA348
:10443300E0FF75F00A84C454F0FEEF75F00A84E5DA
:10444300F0540F2E90001BAEF090001BA4E0FF75FC
:10445300F00A84C454F0FEEF75F00A84E5F0540FBB
:104463002E90001BADF090001BA5E0FF75F00A84B1
:10447300C454F0FEEF75F00A84E5F0540F2E90005B
:104483001BACF090001BA7E090001BAFF090001B4B
:10449300A6E090001BB0F0E490001BA8F0A3F090FE
:1044A300001BB67407F0A374D0F012001FD71200DC
:1044B300DF39BF012AD390001BB0E0946E90001B3C
:1044C300AFE09401406E90001BA9E004F0700790E8
:1044D300001BA8E004F090001BB0E024928028D3D6
:1044E30090001BB0E0946D90001BAFE0940140443A
:1044F30090001BA9E004F0700790001BA8E004F0F3
:1045030090001BB0E02493F090001BAFE034FEF06A
:1045130090001BB7E004F0700790001BB6E004F0B6
:10452300C390001BB7E0948490001BB6E09408503E
:10453300030144AD90001BA8E0FFA3E090001BB172
:10454300CFF0A3EFF090001BA87420F0A3E4F09049
:10455300001BB1E0FEA3E0FF7C007D641200057C3C
:10456300EF540FFE90001BA9E02400F090001BA85D
:10457300E03EF090001BB1E0FEA3E0FF7C007D6411
:104583001200057C7C007D641200056AC390001B49
:10459300B2E09FF090001BB1E09EF0E0FEA3E0FFCD
:1045A3007D0A1200057CEFC4F8540FC868FFEF546E
:1045B300F0FF90001BA9E02FF090001BA8E034004F
:1045C300F090001BB1E0FEA3E0FF7C007D0A120027
:1045D300057C7C007D0A1200056AC390001BB2E0D3
:1045E3009FF090001BB1E09EF0A3E0540FFF9000FA
:1045F3001BA9E02FF090001BA8E03400F0E0FFA31C
:10460300E090001BB1CFF0A3EFF090001BB1E0549A
:10461300F0D3949040037F002290001BB1E0540F2D
:10462300D3940940037F002290001BB2E054F0D3DF
:10463300949040037F002290001BB2E0540FD39468
:104643000940037F00221200DF3990001BB3BF0132
:104653000D7481F0A3741FF0A3747FF0800B748139
:10466300F0A3741FF0A3748BF090001BB87401F0D7
:1046730090001BB6E4F0A304F090001BB6E0FEA389
:10468300E0FFC3940CEE9400505890001BB3E0FB82
:10469300A3E0FAA3E0F9C3EF9401FFEE9400FEE96F
:1046A3002FF9EA3EFA12000524FF7E00D390001B87
:1046B300B0E09F90001BAFE09E402790001BB8E046
:1046C30004F090001BB0E09FF090001BAFE09EF061
:1046D30090001BB7E004F070A090001BB6E004F05C
:1046E3008097E490001BAAF090001BB8E0FF75F0E0
:1046F3000A84FEC454F0FD90001BAAE02DF0EE7571
:10470300F00AA4FEC3EF9E90001BB8F0540FFF9075
:10471300001BAAE02FF0E0FFD39412500AEF540FCE
:1047230094095003E070037F0022E490001BABF078
:1047330090001BAFE0A3E090001BB8F0E0FF75F022
:104743000A84FEC454F0FD90001BABE02DF0EE751F
:10475300F00AA4FEC3EF9E90001BB8F0540FFF9025
:10476300001BABE02FF0E0FFD394315007EF540F61
:10477300940940037F002290001BA0E0FBA3E0FA12
:10478300A3E0F8AC02AD037B017A1B79A87E007F1E
:104793000712000A917F012290001B8AEBF0A3EA23
:1047A300F0A3E9F090001BE1741AF07E007D001283
:1047B30000803A1200807E90001BDF7401F07F10AE
:1047C30012004AA970037FB1221200813990001BA5
:1047D300E1E0C39402FD12004AD3704690001BDE51
:1047E300F012008046B5061E120081841200806319
:1047F300120081C212008063B5060B90001BDEE03D
:1048030004F0E0B403DB1200808EE490001BDFF0C1
:1048130090000C2FE0700B7FA012004B0270037FFF
:10482300B12290001BDFE064017059FEFD1200808D
:104833003A7FA012004AA970037FB1221200807E42
:10484300120081397D1812004AD360037F5C22E491
:1048530090001BDEF0120080466E60037F5C221224
:1048630000818412008063120081C2120080636E93
:1048730060037F5C2290001BDEE004F0E0B403D50C
:104883001200808E7B017A1B79A11200DE12900048
:104893001B8A120080322405F9E43AFA1200083721
:1048A3001200081A90000C2B1200086F12008139B5
:1048B3001200E07090000C231200086F120081D8E0
:1048C3001200E07090000C271200086F90001BACE0
:1048D300120081DF90001BE0F01200E2A250037F80
:1048E3000D2212008011C3120007E37030FC900008
:1048F3000C271200811D7FC07E0E7D037C001200F9
:1049030081D81200DCCD12008170741BF0A3749E59
:10491300F0120081D87D037C001200DBBD12008001
:104923000290001B911200806EE4FFFE7D08FC9054
:10493300001B911200801AC3120007E340317C0070
:1049430090001B911200811D90000C27120080061D
:10495300FF90001B911200801AD3120007E3500846
:10496300E490001BE0F0800790001BE074FFF0125E
:10497300008002FF90001B8A120080322437F9E482
:104983003AFA1200083790001B9112008006FF12BA
:104993000081391200DCCD12008170741BF0A37406
:1049A30098120081387D037C001200DBBD7B017A05
:1049B3001B79A51200DE1290000C411200086F78DB
:1049C300D77C1B7D017B017A1B79A97E007F0312B3
:1049D300000A9190000C4112008006FF90001B8A90
:1049E300120080322411F9E43AFA12000852EF2B34
:1049F300FFEE3AFEED39FDEC38FC90000C4112005D
:104A0300086F783E7C0C7A1B79A97F03120080988B
:104A130090000C4112008006FF7B017A1B79A512DE
:104A230000DA3E90001B8A120080322405120081B6
:104A33005FEF120081407B017A1B79A11200DA3EFD
:104A430090000C2B120080061200814090000C2B6A
:104A53001200086F90001B9112008006FF90000C5B
:104A6300231200086F90001BE0E090001BAC1200C3
:104A730081387D187C001200D56E90001B8FEEF0FC
:104A8300A3EFF07B017A1B79AD1200E1ACE47F1058
:104A930012004B026401700B90001BE0120081DFD7
:104AA3007F00227FB122E4FEFDFC90001BE1E09039
:104AB300001BE6F0A37401F0A3741BF0A37495F03C
:104AC300120064647E0090001B8DEEF0A3EFF022D1
:104AD3007C001200D56E90001B8FEEF0A3EFF07BED
:104AE300017A1B79D51200E1AC78D57C1B7D017B63
:104AF300017A1B79AD7E007F02120009FEEF22FED0
:104B0300FDFC90001BE1E090001BE6F0A37401F0B4
:104B1300A3741BF0A37495F012004B2B7E0090003E
:104B23001B8DEEF0A3EFF02290001BE21200086F42
:104B3300E490001BEAF090001BE6E0D3945040039E
:104B43007F002290001BE2A3A3A3E0540FFFE4FE27
:104B5300FDFCFBFAF9F8C3120007E360037F0022B0
:104B630090001BE2E0FCA3E0FDA3E0FEA3E0FF90C6
:104B7300001C471200086F78457C1C7D017B017A7D
:104B83001C79497E007F0212000A9190001C48E0C4
:104B93001313543F90001C41F090001C45E0FFA309
:104BA300E090001C43CFF0A3EFF090001C48E054CA
:104BB3000390001C42F0E490001BEAF012001FD7A0
:104BC3007B017A1A792A90001C50E41200C2C97B37
:104BD300017A1B79EB90001C50E41200C2C99000CB
:104BE3001BEBE0FF90001A2AE0FE6F6003014EA565
:104BF300EE64426003014D207B017A1A792A90000A
:104C03001C50F0A374561200C2CC90001A2BE0D3B0
:104C130094034003014EA590001A2CE0D394034063
:104C230003014EA5D390001A2EE094F090001A2DA4
:104C3300E094FF4003014EA590001A2FE0D3945057
:104C43004003014EA57E007F567D007B017A1B79D0
:104C5300EB120009357B017A1B79EB90001C50E4C1
:104C6300F0A374561200C2CC78EB7C1B7D017B0150
:104C73007A1A792A7E007F56120009FEEF6003013B
:104C83004EA590001A2BE0FFA3E0FD90001A2FE041
:104C930090001C4FF0A37401F0A3741AF0A37430B6
:104CA300F090001A2D1200C425EF7003014EA57E6B
:104CB300007F567D007B017A1B79EB12000935904A
:104CC300001A2BE0FFA3E0FD90001A2FE090001CD8
:104CD3004FF0A37401F0A3741BF074EB1200B857E8
:104CE300EF7003014EA590001A2FE0FF7E0078308D
:104CF3007C1A7D017B017A1B79EB120009FEEF60C0
:104D030003014EA51200BD541200C2B990001A2A25
:104D1300E0FF90001BEBE06F6003014EA5900018CD
:104D2300C87441F090001C41E0900018C9F0900055
:104D33001C42E0900018CAF090001C43E0FFA3E07F
:104D4300900018CBCFF0A3EFF090001BE6E0FF90AC
:104D53000018CDF07E0078CE7C187D0190001BE713
:104D6300E0FBA3E0FAA3E0F912000A917B017A18B1
:104D730079C990001C50E4F0A37455F07F9D7E0721
:104D83001200BD6E7E007F557D007B017A1B79EB9F
:104D9300120009357B017A1B79EB90001C50E4F07B
:104DA300A37455F07F9D7E071200C2D178EB7C1B64
:104DB3007D017B017A1879C97E007F55120009FEB7
:104DC300EF6003014EA5900018C87442F07B017A8E
:104DD3001879C81200BD611200C2B9900018C8E06A
:104DE300FF90001BEBE06F6003014EA590001C4198
:104DF300E0FFA3E0FD90001BE6E090001C4FF09065
:104E0300001BE7E0F9A3E0FAA3E090001C50C9F00F
:104E1300A3EAF0A3E9F090001C431200C425EF704D
:104E230003014EA57E007F507D007B017A1B79EB49
:104E33001200093590001C41E0FFA3E0FD90001B28
:104E4300E6E090001C4FF0A37401F0A3741BF0A3E1
:104E530074EBF090001C431200B85DEF60449000C7
:104E63001BE6E0FF7E0078EB7C1B7D01A3E0FBA348
:104E7300E0FAA3E0F9120009FEEF7026900018C8CB
:104E83007441F07B017A1879C81200BD611200C227
:104E9300B9900018C8E0FF90001BEBE0B507037F53
:104EA300012290001BEAE004F0E0C39403500301E5
:104EB3004BBF7F002290001C76EEF0A3EFF0900032
:104EC3001C79EBF0A3EAF0A3E9F090001C78EDF075
:104ED300E4F568EDD3944040037F0022C390001CA7
:104EE30077E0946490001C76E0940050037F0022E6
:104EF300E4F56812001FD77B017A1A798090001CB1
:104F030050E4F0A304F0E4FFFE1200C2D17B017A67
:104F13001C797C90001C50E4F0A304F0E4FFFE1223
:104F230000C2D190001C7CE0FF90001A80E0FE6F6D
:104F3300600301520DEE644260030150717B017AFC
:104F43001A798090001C50F0A37444F0E4FFFE1221
:104F530000C2D1D390001A82E094FF90001A81E03E
:104F63009407400301520D90001A83E0D394444008
:104F73000301520D7E007F447D007B017A1C797C06
:104F8300120009357B017A1C797C90001C50E4F0F7
:104F9300A37444F0E4FFFE1200C2D1787C7C1C7D34
:104FA300017B017A1A79807E007F44120009FEEFAB
:104FB300600301520D90001A81E0FEA3E0FF7B0124
:104FC3007A1A7984A3E0FD90001C50E4F0A3EDF07D
:104FD3001200BD6E90001A83E0FF7E007D007B010E
:104FE3007A1C797C1200093590001A81E0FEA3E057
:104FF300FF7B017A1C797CA3E0FD90001C50E4F058
:10500300A3EDF01200C2D190001A83E0FF7E007876
:10501300847C1A7D017B017A1C797C120009FEEFE6
:10502300600301520D90001A807441F07B017A1ADB
:10503300798090001C50E4F0A304F0E4FFFE12001A
:10504300BD6EE490001C7CF07B017A1C797C90009F
:105053001C50F0A304F0E4FFFE1200C2D190001A2A
:1050630080E0FF90001C7CE06F600301520D900014
:10507300191E7441F090001C76E0FFA3E090001924
:105083001FCFF0A3EFF090001C78E0FF90001921F0
:10509300F07E0078227C197D0190001C79E0FBA34F
:1050A300E0FAA3E0F912000A917B017A19791F90C3
:1050B300001C50E4F0A37443F07F017E001200BD96
:1050C3006E7E007F437D007B017A1C797C12000990
:1050D300357B017A1C797C90001C50E4F0A3744367
:1050E300F07F017E001200C2D1787C7C1C7D017BA5
:1050F300017A19791F7E007F43120009FEEF6003D6
:1051030001520D9000191E7442F07B017A19791E29
:1051130090001C50E4F0A304F0E4FFFE1200BD6E07
:10512300E490001C7CF07B017A1C797C90001C507D
:10513300F0A304F0E4FFFE1200C2D19000191EE0B8
:10514300FF90001C7CE06F600301520D90001C7601
:10515300E0FEA3E0FF90001C79E0FBA3E0FAA3E0EC
:10516300F990001C78E0FD90001C50E4F0A3EDF0F2
:105173001200BD6E7E007F407D007B017A1C797C2E
:105183001200093590001C76E0FEA3E0FF7B017A54
:105193001C797CA3E0FD90001C50E4F0A3EDF01219
:1051A30000C2D190001C78E0FF7E00787C7C1C7DDF
:1051B30001A3E0FBA3E0FAA3E0F9120009FEEF70FC
:1051C300499000191E7441F07B017A19791E9000F1
:1051D3001C50E4F0A304F0E4FFFE1200BD6EE49063
:1051E300001C7CF07B017A1C797C90001C50F0A39E
:1051F30004F0E4FFFE1200C2D19000191EE0FF90FC
:10520300001C7CE0B507037F01220568E568C394B1
:10521300035003014EF67F002290001BA712006C7F
:10522300B0A3EBF012006C2B240B12006C1CE4F007
:10523300A3F012006C3F240D12006C1CE4F0A37465
:1052430040F012006C3F241112006C1C7401F01228
:10525300006C3F240D12006C1CE0FEA3E0FF120063
:105263006DBA12006C1712006D34120009357E01FD
:105273007F0012006DBA759300241212006C1CE0BB
:10528300FAA3E0F97B011200093512006C92241293
:1052930012006C1C12006CF5748112006D99741964
:1052A300F074B312006CC812000CB912006C922493
:1052B3001212006C1C12006CF512001FAD12006D6F
:1052C3004E759300241412006C1CEEF0A3EFF090C3
:1052D300001BA912006CF5C003C002C001A3E0FDCE
:1052E30012006C2B241412006C1CE0FAA3E0FB12D6
:1052F300006C3F241212006C1CE0FEA3E02BFFEEB7
:105303003AFAA90790001BB712006DE7D001D0024B
:10531300D0031200D5D890001BABE025E012006D3E
:1053230012759300241412006C1CE48FF012000613
:105333000A12006CBE241412006C1CE0FEA3E0FFF2
:1053430012006CBE241212006C1CE0FCA3E02FFFC1
:10535300EC3EA807FC7D017B817A1979C312000B0F
:105363001E12006C2B241412006C1CE475F0021244
:1053730000060A12006C3F241412006C1CE0FEA30A
:10538300E012006D12759300241212006C1C1200BF
:105393006DC07593002FF582E5833EF58375930009
:1053A30012006CBC240912006C1CE4F0A3F0120080
:1053B3006C2B241412006C1C12006D1F12006C6104
:1053C30012006C27240B12006C1CE4F0A3F01200F3
:1053D3006C3F241412006C1C7401F0A37454F07F0E
:1053E3003212001FE112006C497D547C0112000946
:1053F3002EEF4E70117B817A1979C67D147F0112CD
:1054030000CF487F612212006C2B240912006C1C10
:1054130012006C3A241212006C1C12006C7C2412D1
:1054230012006C1C12006CF512006DAA1200BBB3C3
:10543300E94A4B70037F612212006C92241212001E
:105443006C1C12006CF590001C2C7481F0A3741971
:10545300F074D012006CC812000CB912006C2B242B
:105463001112006C1C7401F012006D4E7593002430
:105473001412006C1C12006D1F12006C61120009E3
:105483002E12006C497D147C001200092E7F32120B
:10549300001FE112006C2B240912006C1CE4F0A322
:1054A300F012006C527D547C0112006C2724091207
:1054B300006C1C12006C3A241212006C1C12006C5B
:1054C3007C241212006C1C12006CF590001BB67445
:1054D30081F0A37419F0A374DFF01200BBB3900042
:1054E3001BB0EB12006DE94A4B70117B817A19797D
:1054F300E87D147F011200CF487F622212006C9274
:10550300240912006C1CE0FEA3E0C39401FFEE9497
:1055130000FE90001BB0E0FBA3E0FAA3E02FF9EA42
:105523003EFA12000524642C6010D3EF9400EE942D
:10553300004007EF1F70DB1E80D8EF4E70037F61C2
:1055430022E92401F9E43AFAC002C00112006D4EC7
:10555300759300240912006C1CA3E0C39FFD900007
:105563001BACE0FEA3E0AA06F990001BB712006D86
:10557300E7D001D0021200D4927F00227B017A1B74
:1055830079271200812E7B017A1B79311200812E3B
:105593007F04120081FA120080DF7E007F3B7DFFD3
:1055A300120080F212000935120080D7120081FA2E
:1055B3001200D339120081276003E0FF221200E2B8
:1055C300A250037F0D22120081FA1200BA091200C1
:1055D30081276015E024F960072405600301586DF5
:1055E3007F02120058BF01586D90000E86E0C394ED
:1055F30001FFE49400FE74702FF582740C3E1200D8
:105603008063FFE4FCFDFE90000C361200801A124A
:105613000006A2E47B64FAF9F81200072D90001B40
:10562300231200086F7E007F147D007B017A1B79B3
:10563300761200093590000E6812008006FF900074
:105643001B441200086F783C7C1B7D01120080F91B
:1056530078527C1B7D017A0D79717F06120080FFE1
:1056630090001B2312008006FF90001B4C120008C1
:105673006F90001B8D120080E71200C07212008130
:1056830027600DE0B45A067F08120058BF01586D19
:1056930090001B2312008006FF90000E6E12008004
:1056A3001AC3120007E350097F0F120058C67F097F
:1056B3002290000E6E12008006FF90001B4812001D
:1056C300086FE490001B5AF090000E77E02401FE6F
:1056D30090000E76E0340090001B50F0A3CEF090C3
:1056E300001B5874FFF0A37401F090001B71F012BB
:1056F30000B12612008127601FE0FBB40617E49077
:10570300001B58F090001B717402F090001B4C12A8
:105713000081678003AF0322120080F21200479BCF
:10572300120081276003E0FF22120080D71200805D
:10573300F2120081BA7D01120079AA12008127605A
:1057430003E0FF2290001B58E0701B7B817A1E79D7
:10575300B57D017F011200CF481200E3E77F0712F6
:105763000058C67F062290001B8D120080E71200AE
:10577300D6A71200812790001B231200801A9000E5
:105783001B4812008006120080B3FC1200814D7B7F
:10579300017A1B79311200E32590001B231200804C
:1057A30006FF1200814D7B017A1B79271200E32546
:1057B300120082011200801AC3120007E370087BF3
:1057C300817A1E79BA801690001BB87401F0A37415
:1057D3001BF0A37427F07B817A1E79C1E4FD7F015E
:1057E3001200CF4890001BB87401F0A3741BF0A300
:1057F3007431F07B817A1E79CC7F02120058CD7B05
:10580300817A1E79D790001B4012008006FF90001A
:105813001BB81200086F7F03120058CD90001B1EA7
:10582300E0FF604DB4011E90001B5874021200800B
:10583300F1120081BA7D03120079AA7F0A7E001259
:1058430000E33B801990000C2F7401F01200E1FE7D
:105853007B817A1E79E37D0A7F031200CF48120011
:10586300E3E77D647F011200A8B990001B1EE0FFEF
:105873002290001B58740AF090001B7174021200EE
:1058830080F1120081BA7D02120079AAE490000C23
:105893002FF01200E3E7120082011200801AC312F4
:1058A3000007E37D6460047F0980027F061200A87D
:1058B300B97F0A7E001200E33B7F00227D64120061
:1058C300A8B9227D641200A8B922E4FD1200CF48D2
:1058D300221200B77AEF6401600F7B817A15794158
:1058E3007DB17C007F5D015B9D1200E34F7B017AFC
:1058F3000D79701200440AE47F40120071E77418B6
:10590300120070D512005C02600F7B817A15794812
:105913007DB17C007F66015B9DE538B45506E539B2
:1059230064AA600F7B817A15794D7D5C7C007F6B67
:10593300015B4278287C007A0079307F061200717F
:10594300D4EF600F7B817A1579537D5C7C007F7087
:10595300015B4290001B4B7401F0A3740CF0A37421
:1059630016F07B007A0079281200DD517F60120067
:1059730071E67420120070D512005C0260091200F7
:1059830072327F7B015B9D120071A77D1E7C00122A
:10599300005C0AF07B007A0079421200E1AC7840A7
:1059A3007C007A0079427F02120071D4EF600F7B92
:1059B300817A15795C7D5C7C007F83015B42783062
:1059C3007C0C120070F27B007A0079281200E070E0
:1059D30090000C361200086F90000C3CE52BF07B16
:1059E300007A00792C1200E2F590000C3AEEF0A355
:1059F300EFF0E47F80120071E77406120070D51295
:105A0300005C176009120072327F8D015B9D1200EA
:105A1300723D7400F07428120071A512005C1F78A7
:105A2300257C007D007A00792812007136603B786E
:105A3300227C0012007270120071081200723D7411
:105A430000F07425120071A512005C1F7F80120004
:105A530072797406120070D512004B2BEF6401604B
:105A630009120072327F97015B9D90001ACD740179
:105A7300F0A3740DF0A37471120071A61200D76F16
:105A830090000C3DEFF01200E38950037F0522E400
:105A930090001AC8F0A3F090001AC8E0FAA3E0FB44
:105AA300C3942AEA9401504CEB2480FFEA340DFEA0
:105AB300E43403FDE433FC90001BE67440F074907F
:105AC3002BF9740E3AFAA374011200714612005CAA
:105AD30017600F7B817A1579627DB17C007FA50108
