:10000000021B017E11DEFEDFFA00220200C4215332
:10001000E8EF438EC075C7AA75C75543D803227F42
:020020000122BB
:100023000200BDA60200014BEC5D046005E8590423
:100033007004020001411200010C580460F4EC4802
:1000430060F0EC7004FDFEFF22C860D82481C85024
:100053000AC39860025007020001489850C6F5820F
:10006300E9294B4A7006AB820200013775F0007C28
:100073001A7880C3EF9BEE9AED99400DC3EF9BFF77
:10008300EE9AFEED99FDE842F0DC24ACF0D0E0FFFF
:10009300D0E0FED0E0FDAB8220E7101BEB60B8ECB4
:1000A3002CFCEF33FFEE33FEED33FD02000123E8BA
:1000B30003F830E705C0F075F000EF2FFFEE33FED5
:1000C300ED33FD40B730E7C180A975F020800E7590
:1000D300F010800575F0087D007E007F003392D517
:1000E30030D504120007BFEC334010EF33FFEE337B
:1000F300FEED33FDEC33FCD5F0ED22E5F0247EA2DA
:10010300D513CC92E7CDCEFF22E9D2E7C933E8334A
:10011300F892D5EDD2E7CD33EC33FC5002B2D522C1
:10012300EC30E7100FBF000C0EBE00080DBD00043D
:100133000BEB6014A2D5EB13FCED92E7FD2274FFE9
:10014300FCFDFEFF22E480F8A2D574FF13FC7D8042
:10015300E480EFF920E73624F950037907E4F42427
:1001630002FBE582158270021583DBF6E024FB5067
:100173001BE96014E4F0E582158270021583E00444
:10018300F0B40A08E4F0D9EE7401F00A22C2D522D1
:10019300ED33EC3392D5FA602AB4FF33EDC2E77B3B
:1001A3008160067A0179B8E4227A0179C120D50405
:1001B3007A0179BC224E614E002B494E46002D49EF
:1001C3004E4600E47A08F0A3DAFC7B00740722C0F1
:1001D30093C083C082ECC0E0EDC0E0EEC0E0EFC0AE
:1001E300E0EA75F010A4CAABF075F04DA42BFBE464
:1001F30035F0FCEA2410FAEB34C5FBEC34D9FCED02
:10020300C2E7FF75F056A4F42411C5F0F434C58F8A
:10021300F0A42AE5F03BE43CF020E716120004DEEC
:10022300D0E0FFD0E0FED0E0FDD0E0FC1200002BD8
:100233008016F404120004DED0E0FFD0E0FED0E02C
:10024300FDD0E0FC120003A0D082D083D093E0FA6B
:10025300EDD2E7CD33EC332482FBE4C3CF33CFCEEF
:1002630033CECD33CD33DBF37B0775F00A846004E3
:10027300F0A31B0AE5F0F0A38FF0740AA4FFACF01F
:100283008EF0740AA42CFEACF050010C8DF0740AAD
:10029300A42CFDE435F0F0A3DBDE74072202000199
:1002A30041E86480F8E933E83360110460EFED332B
:1002B300EC337009E8FCE9FDEAFEEBFF220460DDA4
:1002C300D3EB9FEA9EE99DE8C2E78CF0C2F795F075
:1002D300400CE8CCF8E9CDF9EACEFAEBCFFB1200FB
:1002E300010C85D0F05804700320D5B1E8047008E0
:1002F3005002B2D50200014B92D5EC0460F6E4CC77
:10030300C0E0C398F8603C94186009400ED0E0FB4D
:1003130002000123E4FBFAC9FC8028E830E406E488
:10032300C9FBE4CAFCE830E305E4C9CACBFCE854E2
:10033300076010F8C3E913F9EA13FAEB13FBEC13A4
:10034300FCD8F130F531C3E49CFCEF9BFFEE9AFE41
:10035300ED99FDD0E0FBEF4E4D4C701322DB040210
:10036300000148EC2CFCEF33FFEE33FEED33FDEDE3
:1003730030E7EA02000123EF2BFFEE3AFEED39FDF1
:10038300D0E0FB50140BBB00040200014BED13FD46
:10039300EE13FEEF13FFEC13FC02000123EC4D60A0
:1003A30011E8497018ED33EC3304600DE4FCFFFEF3
:1003B300FD22E933E8330470F80200014112000121
:1003C3000C58046009E4CC2481500728500B020028
:1003D300014B28400402000148C0E0EB4A7046B9D3
:1003E3008007D0E0FB02000137EF4E701DBD80088F
:1003F300EBFFEAFEE9FD80EAE98DF0A4FEE5F002F9
:1004030000048FE9CDF9EAFEEBFFEF89F0A4FCE5E8
:10041300F0CE89F0A42EFFE435F0CD89F0A42DFEB3
:10042300E435F08067EF4E7005BD80D780C2EF8B57
:10043300F0A4ACF0EE8BF0A42CFCE435F0F8EF8ADA
:10044300F0A42CE5F038FCE433CB8DF0A42CFCE5D0
:10045300F03BF8EE8AF0A42CFCE5F038F8E433CF57
:1004630089F0A42CFCE5F038CF3400CE89F0A42F1A
:10047300FFE5F03EFEE433C98DF0A42EFEE5F0392E
:10048300CD8AF0A42FFFE5F03EFEE43DFD33D0E03E
:10049300FB50080BBB00100200014BEC2CFCEF33AC
:1004A300FFEE33FEED33FD020001233F80000041E8
:1004B30020000042C80000447A0000461C40004768
:1004C300C35000497424004B1896804CBEBC205A7C
:1004D3000E1BCA6753C21C749DC5AEFB600654074E
:1004E3006020232312000511EB5438600C12000422
:1004F300FC1200050C120003A0ECF8EDF9EEFAEF84
:10050300CB22EB1200050C80F0543803241C90001E
:1005130004AEFE93FC0EEE93FD0EEE930ECE93FF10
:1005230022EB7002E72289828A831410E704F59391
:10053300E022F593E49322BB000327F722F8EB892B
:10054300828A831410E706F593E028F022F593E4FA
:10055300932822BB0002F722BB8000500989828ABC
:10056300838B931593F022EF8DF0A4A8F0CF8CF03A
:10057300A428CE8DF0A42EFE22BC000BBE0029EFD2
:100583008DF084FFADF022E4CCF875F008EF2FFF77
:10059300EE33FEEC33FCEE9DEC984005FCEE9DFE45
:1005A3000FD5F0E9E4CEFD22EDF8F5F0EE0084205E
:1005B300D21CFEADF075F008EF2FFFED33FD4007C1
:1005C300985006D5F0F222C398FD0FD5F0EA22C267
:1005D300D5EC30E709B2D5E4C39DFDE49CFCEE30D5
:1005E300E716B2D5E4C39FFFE49EFE1200057CC369
:1005F300E49DFDE49CFC80041200057C30D507C318
:10060300E49FFFE49EFE22C5F0F8A3E028F0C5F0C6
:10061300F8E582158270021583E038F022A3F8E032
:10062300C5F025F0F0E582158270021583E0C83825
:10063300F0E822EB7007E7F5F009E7192289828ACF
:10064300831410E708F593E0F5F0A3E022F593E4B3
:1006530093F5F074019322BB000B09C5F027F7C58E
:10066300F01937F722F8EB89828A831410E707F52C
:1006730093E80200060AF59374019325F0F5F0E47C
:10068300933822BB0006F709A7F01922BB8000505C
:100693000D89828A838B931593F0E5F0A3F022E80A
:1006A3008FF0A4CC8BF0A42CFCE98EF0A42CFC8A54
:1006B300F0EDA42CFCEA8EF0A4CDA8F08BF0A42DD1
:1006C300CC3825F0FDE98FF0A42CCD35F0FCEB8E72
:1006D300F0A4FEA9F0EB8FF0A4CFC5F02ECD39FE28
:1006E300E43CFCEAA42DCE35F0FDE43CFC2275F09D
:1006F30008758200EF2FFFEE33FECD33CDCC33CC24
:10070300C58233C5829BED9AEC99E58298400CF53E
:1007130082EE9BFEED9AFDEC99FC0FD5F0D6E4CE6C
:10072300FBE4CDFAE4CCF9A88222B800C1B90059A0
:10073300BA002DEC8BF084CFCECDFCE5F0CBF9786D
:1007430018EF2FFFEE33FEED33FDEC33FCEB33FB01
:1007530010D703994004EB99FB0FD8E5E4F9FA228B
:100763007818EF2FFFEE33FEED33FDEC33FCC93386
:10077300C910D7059BE99A4007EC9BFCE99AF90F4E
:10078300D8E0E4C9FAE4CCFB2275F010EF2FFFEEBA
:1007930033FEED33FDCC33CCC833C810D7079BEC05
:1007A3009AE899400AED9BFDEC9AFCE899F80FD57D
:1007B300F0DAE4CDFBE4CCFAE4C8F922C3E49FFF0A
:1007C300E49EFEE49DFDE49CFC22EB9FF5F0EA9E93
:1007D30042F0E99D42F0EC6480C864809845F022C1
:1007E300EB9FF5F0EA9E42F0E99D42F0E89C45F06C
:1007F30022E8600FECC313FCED13FDEE13FEEF13C1
:10080300FFD8F122E8600FEFC333FFEE33FEED3381
:10081300FDEC33FCD8F122EB7006E9F802000B7112
:1008230089828A831410E706F59302000B7DF59302
:1008330002000B89BB0006E9F802000BC2BB800073
:10084300500C89828A838B9315930200086F22EBE5
:100853007006E9F802000B9989828A831410E7066F
:10086300F59302000BA6F59302000BB2ECF0A3ED97
:10087300F0A3EEF0A3EFF022A42582F582E5F03594
:1008830083F58322F8E0FBA3A3E0F925F0F0E582EA
:10089300158270021583E0FA38F022EBF0A3EAF038
:1008A300A3E9F022EB7006E9F802000BCE89828AF5
:1008B300831410E706F59302000BD7F59302000BA0
:1008C300E0D093D083D082F8E493701274019370D4
:1008D3000DA3A393F8740193F5828883E4737402E0
:1008E300936860EFA3A3A380DFD093D083D082E487
:1008F300937012740193700DA3A393F8740193F58D
:10090300828883E4737402936C70127403936D7022
:100913000C7404936E70067405936F60DDA3A3A338
:10092300A3A3A380CA8B938A838982159353937F4E
:10093300E473EF4E6022EF60010EEDBB0007F70991
:10094300DFFCA9F022BB8000500E89828A838B933F
:100953001593F0A3DFFCDEFA22EB700C87F009E6B7
:1009630008B5F019DFF6801589828A831410E70F22
:10097300F593E0F5F0A3E608B5F002DFF5806AF53C
:1009830093E493F5F0A3E608B5F05EDFF4805ACB69
:10099300701388828C838B9387F009E493A3B5F05B
:1009A30048DFF580441410E71F88848C858B958974
:1009B300828A83F593758620E0F5F0E493A3A3B5CB
:1009C300F024DFF4DEF2801E88848C858B95898287
:1009D3008A83F593758620E493F5F0E493A3A3B596
:1009E300F004DFF3DEF17586007FFFB5F0020F221E
:1009F30040027F01220200095C809488F0EF6001CD
:100A03000E4E60F0ED60EE1410E7EECB70128882AC
:100A13008C83F59387F009E0A3B5F0CDDFF680C9A9
:100A23001410E71E88848C858B9589828A83F593BD
:100A3300758620E0F5F0E0A3A3B5F0AADFF5DEF3B9
:100A430080A488848C858B9589828A83F5937586A7
:100A530020E493F5F0E0A3A3B5F08BDFF4DEF2809E
:100A630085EB7008E709F608DFFA801B89828A8321
:100A73001410E70AF593E0A3F608DFFA8009F5936B
:100A8300E493A3F608DFF9ECFAA9F0EDFB2288F072
:100A9300EF60010E4E60F088F0ED60C51410E7E7DB
:100AA300CB700E88828C838B93E709F0A3DFFA80E7
:100AB300D61410E71C88848C858B9589828A83F5EC
:100AC30093758620E0F0A3A3DFFADEF87586008035
:100AD300B688848C858B9589828A83F59375862065
:100AE300E493F0A3A3DFF9DEF77586008099EB703A
:100AF30008E709F60870FA801B89828A831410E7D5
:100B03000AF593E0A3F60870FA8009F593E493A33A
:100B1300F60870F9ECFAA9F0EDFB2288F0ED60CE4F
:100B23001410E7F0CB700E88828C83F593E709F0FD
:100B3300A370FA80DF1410E71A88848C858B95895B
:100B4300828A83F593758620E0F0A3A370FA7586F5
:100B53000080C188848C858B9589828A83F59375FF
:100B63008620E493F0A3A370F975860080A6E6FCC3
:100B730008E6FD08E6FE08E6FF22E0FCA3E0FDA38D
:100B8300E0FEA3E0FF22E493FC740193FD7402935F
:100B9300FE740393FF22E6FB08E6F908E6FA08E68B
:100BA300CBF822E0F8A3E0F9A3E0FAA3E0FB22E408
:100BB30093F8740193F9740293FA740393FB22EC90
:100BC300F608EDF608EEF608EFF622E6FB08E6FA7D
:100BD30008E6F922E0FBA3E0FAA3E0F922E493FBA1
:100BE300740193FA740293F922BB001CD093D0F0E2
:100BF300D0E0F8D0E0C9FBD0E0FAD0E0CBC8C0E049
:100C0300C0F0C09302000C40BB80005022D093D0B0
:100C1300F0D0E0F8D0E0C9F582D0E0CAF583D0E0A7
:100C2300CB14C8C0E0C0F0C09388930200089ED0E4
:100C330093D083D082D0E0D0E0D0E0E473EBF60829
:100C4300EAF608E9F622E511242CF582E4341DF5D1
:100C530083759300E005112290001D29300B049049
:100C6300001D2CE475F00112000887020005242002
:100C730004E57F2ED2048018EF540F2490D434401F
:100C8300D4FF30080BEF24BFB41A0050032461FFD4
:100C9300E512600215120515E51570020514300BF7
:100CA3001190001D29E475F00112000887EF02007E
:100CB300055602001F527403D20B8003E4C20BF5E6
:100CC3001190001D291200089EE4F512F514F51584
:100CD300E51260087F2012000C9380F47513FFC2A5
:100CE30005C204C206C207C209C20AC20C12000C22
:100CF3005BFF700E300B067F0012000CA4AF15AE25
:100D03001422B42563C2D5C20812000C5BFF24D0A1
:100D1300B40A00501A75F00A781230D50508B6FFE8
:100D23000106C6A426F620D5047002D20780D82473
:100D3300CFB41A00EF5004C2E5D20802000FE1D28B
:100D43000580C4D20480BED20680BAD2D580B8D280
:100D53000980B27F2012000C932006077401B5129C
:100D63000040F012000C49FF12000C9302000CD358
:100D7300D20CD20A808F12000C49FB12000C49FAE4
:100D830012000C49F94A4B700679EE7A107B8120E8
:100D9300063DE51260397E00E9C0E02EF9EAC0E0C5
:100DA3003400FA12000524F9D0E0FAD0E0C9600655
:100DB3000EEE651370E2C2D5EBC0E0EAC0E0E9C015
:100DC300E0EE12001049D0E0F9D0E0FAD0E0FB12D7
:100DD300000524FF6096EBC0E0EAC0E0E9C0E01242
:100DE300000C93D0E02401F9D0E03400FAD0E0FB0A
:100DF300E5130460DAD513D702000D6FD206808F96
:100E03001200102560F6E51370010412000156A9C3
:100E130013600EE513600A14F513120010D8EF6087
:100E2300F2EA30E702F404C399400402000EB8EA80
:100E3300F425130430E701E404F513800F120010C6
:100E43002560B9EA0513251312000156EA90001D27
:100E530058F030E701E4251304D5130420090114E5
:100E630012001049E4C0E0120010D890001D58E0B1
:100E7300601420E70814F012000C7B802604F0D0E5
:100E8300E014C0E07F0012000C7BE5136008120041
:100E93000C721513800D30090412000C72D0E0029D
:100EA300000CD3D0E00480BD120010256093E5133D
:100EB300041200015690001D58EAF0E513200902C0
:100EC30060010424041200104974FF04C0E01200FE
:100ED30010D812000C7BE513200902600412000CE9
:100EE30072D0E0B513E57F4512000C8590001D58C4
:100EF300E07F2B30E7047F2DF404C0E012000C9355
:100F0300D0E075F00A84C0F012000C7CD0E012002F
:100F13000C7C02000CD3791080027908C20AC20C3F
:100F23008008D2D5790A8004790AC2D5E513047002
:100F330002F513E4FAFDFEFF12000C49FC7B0820C6
:100F4300051612000C49FD7B1030040C12000C49ED
:100F5300FE12000C49FF7B20EC3382D592D550134F
:100F6300C3E43004069FFFE49EFEE42005039DFDD9
:100F7300E49CFCE4CBF8C205EC700CCFCECDCCE8FE
:100F830024F8F870F38017C3EF33FFEE33FEED332D
:100F9300FDEC33FCEB33FB994002FB0FD8E9EB305C
:100FA3000505F8D0E0C448B205C0E00AEC4D4E4F49
:100FB30078207B0070C2EAB5130040BCC0E0120089
:100FC300104BD0F0D0E0200504C4C0E0C4B205C08B
:100FD300F012000C7CD0F0D5F0EA02000CD3120022
:100FE30008C40D79530F19580D464C0D42420F1D7D
:100FF3004F0F25440F25490D5C430F2B550E4046DB
:101003000EAB450E0347110B500D4A2D0D4E2E0D01
:10101300752B0D52230D732010F72A0D084800007D
:101023000D6BE513B4FF0375130612000C49FC1294
:10103300000C49FD12000C49FE12000C49FF900000
:101043001D5102000193790AA2D520071430090922
:10105300B910020404B9080104A2D5200A02500100
:101063000420066D9206B512005036C0E07F203092
:10107300071A7F30A206720A72095010120010A4D8
:10108300C206C20AC209C20C7F308010300903E9CC
:10109300C0E012000C93300903D0E0F9D0E0B512A0
:1010A300CA3009197F30B9100D12000C937F5830E4
:1010B30008077F788003B9080412000C93300606F2
:1010C3007F2D02000C937F20200CF77F2B200AF248
:1010D30022920680CC7F00B40700500E2451F58283
:1010E300E4341DF583759300E0FF22286E756C6C64
:1010F3002900D20512000C493005F7C205781230D9
:10110300D50108F602000D0812000C497F4960085A
:101113007F4310E7027F5814C0E0EF12000C847481
:101123003A12000C84D0E0600DC0E0C412000C7CC5
:10113300D0E012000C7CD20775120402000F1920B4
:1011430020202020202020202020202020202000BC
:1011530000000000000000000000004F000000003D
:10116300000007000700000000147F147F14000034
:1011730000242A7F2A12000000231308646200005F
:10118300003649552250000000000503000000000E
:1011930000001C2241000000000041221C0000004E
:1011A3000014083E081400000008083E0808000068
:1011B300000050300000000000080808080000008C
:1011C300000060600000000000201008040200001E
:1011D300003E5149453E0000000000427F400000B0
:1011E3000042615149460000002141454B31000056
:1011F300001814127F1000000027454545390000F0
:10120300003C4A4949300000000101790503000010
:10121300003649494936000000064949291E0000A5
:1012230000003636000000000000563600000000C3
:1012330000081422410000000014141414140000C8
:1012430000004122140800000002015109060000B9
:1012530000324979413E0000007E1111117E0000E9
:1012630000417F4949360000003E414141220000D0
:1012730000417E4141223C00007E4949494900002A
:10128300007F090909010000003E4141497A00003D
:10129300007F0808087F00000000417F4100000034
:1012A300002040413F010000007F0814224100005C
:1012B300007F404040400000007F020C027F00009E
:1012C300007F0608307F0000003E4141413E0000A0
:1012D300007F090909060000003E4151215E00001C
:1012E300007F0919294600000026494949320000B8
:1012F3000001017F01010000003F4040403F00002A
:10130300001F2040201F0000007F2018207F0000C6
:101313000063140814630000000708700807000046
:10132300006151494543000000007F414100000036
:101333000002040810200000000041417F0000006B
:10134300000402010204000000404000404000008D
:1013530000010204000000000020545454780000EF
:10136300007F4844443800000038444444280000C7
:1013730000384444487F0000003854545418000097
:101383000000087E09020000000C52524C3E00008F
:10139300007F0804047800000000447D4000000042
:1013A300002040443D00000000007F10284400005E
:1013B3000000417F40000000007C047804780000B6
:1013C300007C0804047800000038444444380000DA
:1013D300007E0C12120C0000000C12120C7E000096
:1013E300007C0804040800000058545454640000AE
:1013F30000043F4440200000003C40403C400000CB
:10140300001C2040201C0000003C4030403C0000F9
:101413000044281028440000001CA0A0907C000079
:10142300004464544C4400000000083641000000AE
:1014330000000077000000000000413608000000B3
:10144300000201020402000000FFFFFFFFFF000093
:10145300D6D0CDBEB0CEBFA800B2BBBFC9CAB6B14D
:10146300F0BFA800BFA8C7AEB0FCB4EDCEF300CE6A
:10147300B4C9CFB4ABC1F7CBAE00C7EBB2C9BCAFF5
:1014830000BADABFA800BFA8D2D1B9C6DA00CEDE4F
:10149300C8A8CFDE00BFA8D3E0B6EEB2BBD7E30047
:1014A300BFA8D2D1CBF800C3E2B7D1BFA800BCC755
:1014B300C2BCD2D1C2FA00D6D8B8B4CBA2BFA8005E
:1014C300C9E8D6C3B4EDCEF300CAB1D6D3B4EDCEDA
:1014D300F300D3B2BCFEB9CAD5CF00B2BBD6A7B313
:1014E300D6BFA8C0E0D0CD0000B4E6B4A2C8DDC129
:1014F300BF00CEEFC0ED4944CEB4C9E8D6C300B1B6
:10150300B8B2CE00D6F7B2CEB4EDCEF300BBD6B8A8
:10151300B4D6F70057522053455249414C00524428
:101523002053455249414C005B25645DB4EDCEF335
:10153300C2EBA3BA25642000252E30326600726503
:1015430061646572004550203100455044203100EC
:101553006B657900455020320045504420320045E8
:10156300502033004550442033004550203400457B
:1015730050203500312E20BAECCDE2CDA8D1B620D3
:101583002000322E20B4AEBFDACDA8D1B620200081
:10159300332E2047505253CDA8D1B620200020200F
:1015A300202020202020202020202000C9E8B1B8BE
:1015B300CEEFC0ED4944002530325825303258254E
:1015C3003032582530325800CFB5CDB3CAB1BCE460
:1015D30000B5B1CCECD3AAD2B5B6EE00252E30328D
:1015E3006620D4AA00C7B0D2BBCCECD3AAD2B5B67E
:1015F300EE00BBF9B4A1B7D1C2CA00B2C9BCAFCA2D
:10160300B1BCE4BCE4B8F400256420CCEC00C1AC6C
:10161300D0F8CBA2BFA800256420C3EB00B5B1C7A7
:10162300B0C1F7CBAEBAC500256C7500CEB4B2C954
:10163300BCAFBCC7C2BC00257520CCF500B3CCD071
:10164300F2B0E6B1BE00257300313030313231499A
:10165300474D00CEB4B2C9BCAFCCECCA002575204F
:10166300CCEC00BADAC3FBB5A5B0E6B1BEBAC5008F
:101673004275696C64004A616E2032312032303128
:10168300300030393A33393A333000B7FECEF1C641
:10169300F749500025642E25642E25642E25640009
:1016A300B7FECEF1C6F7B6CBBFDA00256400312E04
:1016B30020CBA2BFA8CAD5B7D1202000322E20B29A
:1016C300E9D1AF20202020202000332E20CDA8D127
:1016D300B620202020202000001F1C1F1E1F1E1FBD
:1016E3001F1E1F1E1F81157781D09181158581D300
:1016F300BF81159381CE478115A1000000010EB76C
:101703000000008116B181A2808116BF81417A81D8
:1017130016CD81E2C3605A0EFE000181145300020C
:1017230081145C0003811467000481147200058135
:10173300147D000681148400078114890008811434
:10174300910009811498000A8114A3000C8114AA42
:10175300000D8114B1005A8114BA005C8114C300D6
:101763005B8114CC00B18114D5005F8114DE00FECF
:101773008114EB620017C000001021204230634047
:101783008450A560C670E781089129A14AB16BC155
:101793008CD1ADE1CEF1EF123102103273225252ED
:1017A300B5429472F762D693398318B37BA35AD3A5
:1017B300BDC39CF3FFE3DE246234430420140164BD
:1017C300E674C744A45485A56AB54B85289509E5F5
:1017D300EEF5CFC5ACD58D3653267216110630768D
:1017E300D766F6569546B4B75BA77A97198738F745
:1017F300DFE7FED79DC7BC48C458E5688678A708CD
:1018030040186128023823C9CCD9EDE98EF9AF8994
:10181300489969A90AB92B5AF54AD47AB76A961A2C
:10182300710A503A332A12DBFDCBDCFBBFEB9E9BE4
:10183300798B58BB3BAB1A6CA67C874CE45CC52CFC
:10184300223C030C601C41EDAEFD8FCDECDDCDAD34
:101853002ABD0B8D689D497E976EB65ED54EF43ECC
:10186300132E321E510E70FF9FEFBEDFDDCFFCBF84
:101873001BAF3A9F598F78918881A9B1CAA1EBD147
:101883000CC12DF14EE16F108000A130C220E35056
:101893000440257046606783B99398A3FBB3DAC30A
:1018A3003DD31CE37FF35E02B1129022F332D242A6
:1018B30035521462777256B5EAA5CB95A88589F59A
:1018C3006EE54FD52CC50D34E224C314A0048174F6
:1018D30066644754244405A7DBB7FA879997B8E7AA
:1018E3005FF77EC71DD73C26D336F2069116B06646
:1018F30057767646155634D94CC96DF90EE92F99AA
:10190300C889E9B98AA9AB58444865780668271895
:10191300C008E1388228A3CB7DDB5CEB3FFB1E8B49
:10192300F99BD8ABBBBB9A4A755A546A377A160AE5
:10193300F11AD02AB33A92FD2EED0FDD6CCD4DBDD9
:10194300AAAD8B9DE88DC97C266C075C644C453C35
:10195300A22C831CE00CC1EF1FFF3ECF5DDF7CAFE9
:101963009BBFBA8FD99FF86E177E364E555E742E85
:10197300933EB20ED11EF04819C0323030353031AB
:101983003331C10D441E897C2F2D5C411E56014C01
:1019930000060000000000000000000000004600F8
:1019A300000000000000004200120000420C14007E
:1019B30000004F4B0041542B4D495053454E443D7D
:1019C30025642C2200220D007265637620657272F5
:1019D300310041542B4D4950505553483D25640D1A
:1019E300002B4D4950525443500072656376206575
:1019F3007272330075706C6F616420726563206569
:101A0300727200646F776E6C6F616420626C6B2E10
:101A13002E2E00626C6B206572722E2E2E00696E64
:101A2300697469616C206461696C0041540D004103
:101A330054206572726F72006461696C20636D6E0D
:101A430065742E2E2E0041542B4D495043414C4C6E
:101A53003D312C22636D6E6574220D0000783030A9
:101A630000783030007830300078303000636F6EAB
:101A73006E20737672202E2E2E0041542B4D49502A
:101A83004F50454E3D25642C25642C2225642E257C
:101A9300642E25642E2564222C25642C300D0041F0
:101AA300542B4D4950434C4F53453D25640D006D18
:101AB30069706F70656E206572726F7200636F6E0E
:101AC3006E20636D6E6574206572720041542B4DF8
:101AD300495043414C4C3D300D0081E25B81E6E7C8
:101AE30081B862819E758179F100000081DA5A81A3
:101AF300E6DB81BF5581E6C281806100000075C7C6
:101B0300AA75C755759D0275C7AA75C75575C600D1
:101B1300787FE4F6D8FD75817002001B4A0200CC81
:101B230061E493A3F85407240CC8C333C4540F448B
:101B330020C8834004F456800146F6DFE4800C019C
:101B43000204081020408090001718E47E0193607F
:101B5300CCA3FF543F30E509541FFEE493A3600177
:101B63000ECF54E0B4E026E493FBA3E493FAA3E49A
:101B730093F9A3E493C083C08212000556D082D0A8
:101B830083A309E970010ADFEADEE880BE54C025B9
:101B9300E0602B408CE493A3FAE493A3F8E493A3CB
:101BA300C8C582C8CAC583CA759300F0759300A3DC
:101BB300C8C582C8CAC583CADFE3DEE1808DE4936A
:101BC300A3F8E493A34003F68001F208DFF40200D4
:101BD3001B4E7761697474696E672E2E2E007072C6
:101BE3006F636573732E2E2E00C9E8D6C3CEEFC084
:101BF300ED4944B3C9B9A600D0A3D7BCCAB1D6D363
:101C0300B3ACCAB100D0A3D7BCCAB1D6D3B3C9B998
:101C1300A600636C65617220626C61636B2025634F
:101C23000070726F63657373206F6B00696E697404
:101C330020696E6672617265642E2E2E00B4F2BF47
:101C4300AABAECCDE2CAA7B0DC00696E6974207051
:101C53006F732E2E2E00B4F2BFAA47505253CAA759
:101C6300B0DC00B4F2BFAAB4AEBFDACAA7B0DC00DE
:101C7300BD0020EF7F08C2A63392A500D2A6DFF6EF
:101C8300C2A67F64D2A5A2A55002DFFAD2A60000A5
:101C9300C2A622BD0120EF7F08C2A73392A500D2BE
:101CA300A7DFF6C2A77F64D2A5A2A55002DFFAD2AE
:101CB300A70000C2A722BD0220EF7F08C29633927D
:101CC300A500D296DFF6C2967F64D2A5A2A55002E4
:101CD300DFFAD2960000C29622EF7F08C2973392B2
:101CE300A500D297DFF6C2977F64D2A5A2A55002C2
:101CF300DFFAD2970000C29722D2A4C2A400C2A2E4
:101D0300C2A3BD0004D2A2C2A312001D1122BF00B0
:101D130012D2A100D2A4008B8000C2A4C2A11200DF
:101D23001D3822D2A000D2A4008B8000C2A4C2A07E
:101D330012001D3822D2A4C2A4C2A200D2A375806D
:101D4300FF7400BF0014D2A100D2A400E58000C23A
:101D5300A400D2A4C2A120E7ED22D2A000D2A40005
:101D630000E58000C2A400D2A4C2A020E7EC22BFF9
:101D730000177D09D2A5D2A60000C2A60000D2A6F4
:101D83000020A502DDF4C2A522BF01177D09D2A55B
:101D9300D2A70000C2A70000D2A70020A502DDF44D
:101DA300C2A522BF02177D09D2A5D2960000C29612
:101DB3000000D2960020A502DDF4C2A5227D09D23F
:101DC300A5D2970000C2970000D2970020A502DD9C
:101DD300F4C2A522BF00127D08D2A5C2A600A2A507
:101DE30033D2A6DDF6C2A6FF22BF01127D08D2A51B
:101DF300C2A700A2A533D2A7DDF6C2A7FF22BF0266
:101E0300127D08D2A5C29600A2A533D296DDF6C2F2
:101E130096FF227D08D2A5C29700A2A533D297DDF3
:101E2300F6C297FF2290001D23E0FFA3E0FEA3E08C
:101E3300CF90001D2CF0A3EEF0A3EFF090001D2631
:101E4300E0CBF0A3E0CAF0A3E0C9F07F2290001D2D
:101E53002FAD82AC83120005248D828C83F0A309FD
:101E6300E970010ADFEB90001D26E0FBA3E0FAA373
:101E7300E0F902000CB9BF000E12001DD7C2A50085
:101E8300D2A60000C2A622BF010E12001DD7C2A512
:101E930000D2A70000C2A722BF020E12001DD7C2A4
:101EA300A500D2960000C2962212001DD7C2A5003B
:101EB300D2970000C29722BADABFA800C3E2B7D113
:101EC300BFA800BFDBBFEE20257320D4AA00D3E058
:101ED300B6EE20257320D4AA00C1F7CBAEBAC55BFA
:101EE300256C645D00C7EBD6D8CBA2000904030CB4
:101EF30005BF000AC2A500D2A600D2A50022BF01D9
:101F03000AC2A500D2A700D2A50022BF020AC2A519
:101F130000D29600D2A50022C2A500D29700D2A576
:101F23000022BF0009D2A500D2A600C2A522BF018C
:101F330009D2A500D2A700C2A522BF0209D2A500DB
:101F4300D29600C2A522D2A500D29700C2A522EF45
:101F5300B40A08740D12001F5E740A309811A89910
:101F6300B8130CC2983098FDA899C298B811F630EE
:101F730099FDC299F59922527463546D5F56455287
:101F83005F312E3031001F1D1F1E1F1E1F1F1E1FFE
:101F93001E1F1F1C1F1E1F1E1F1F1E1F1E1F200074
:101FA3000D0A003031323334353637383941424344
:101FB30044454600E4FFFE12000524600C0FEF7059
:101FC300010E09E970F10A80EE2225303264002502
:101FD3003032580075C7AA75C75553D8FD2275C747
:101FE300AA75C75543D801227E54DEFEDFFA2206C6
:101FF300050301020304050607080990001C32EEDD
:10200300F0A3EFF0A3ECF0A3EDF012003EDBFD8CA8
:1020130083759300240712003DAE742212003E45DF
:10202300240812003DAE744212003E4524121200F1
:102033003DAE12003E3F12003DACE412003E45248B
:102043000F12003DAEE4F0740512003E44240D125D
:10205300003DAEE4F0A37420F07B817A1B79D57D3B
:102063000AE4FF0134B512003D5012004124240F4D
:1020730012003DAEE4F0A3740AF012003D7B12009F
:102083003DACE4F090001C34E0FCA3E08C8375933A
:1020930000240C12003DF3EF700D7D037F05120049
:1020A300DF3450C27FA02212003D5012004124248D
:1020B3000B12003DAEE4F0A37420F0C203C201E4AE
:1020C30012003EF5F012003D7B12003D13FF240386
:1020D300F8E690001C36F0EF240412003F3A7B81AF
:1020E3007A1B79E1120035B390001C36E012000828
:1020F300C42F6755306F562504A12D9BB126EEB230
:10210300319FB32993B432C9B52F00B63115B73314
:102113006EB82873B921E8C222E1C3227AC4212808
:10212300C50000341712003F01FB8A8312003D10E3
:10213300240412003F3A30E059E4FF1200408312B6
:10214300003FAF240812003D1590001CEC12003D27
:10215300BD12003561640160030133E112003D509B
:1021630012003E1C12003D1512003D7612003D1375
:10217300240612003DD690001C45E02404F0900094
:102183001C4412003D4C12003E1D12003D1512006E
:102193003EB190001C38E020E1030126E912003D26
:1021A3005012003E1D12003D15120035E1EF64018F
:1021B300600301242512003D5012003E1C12003D15
:1021C3001512003D7612003D132406FF1200412B29
:1021D3002F7F0712003DD890001C45E02407120012
:1021E30041320126E912003D06FF2404F8E6B499C2
:1021F30009EF2405F8E66408600301338D12003DFE
:1022030050FF12003D0E240A12003D7624081200EE
:102213003D1512003DD612003D5012003E1D120026
:102223003D157A00F97B00C003C00112003FCE12B6
:10223300003DBFD001D0037D04120035C9FF120059
:102243003F2F740812003D65240812003D1512004B
:102253003DB912003576640160030133E112003D9C
:102263005012003E1D12003D1512003EB17B817AD3
:102273001B79EC7D01805412003D50FF12003D0E8E
:10228300240312003D76240812003D157F0C120032
:102293003E1112003D501200352B40187B817A1BF2
:1022A30079FB7D037F011200D1AA90001C3774A132
:1022B300F001341A12003D0612003EC512005E3EC4
:1022C300EF60117B817A1C79087D037F011200D1B5
:1022D300AA01336A90001C3774FFF001341A12000C
:1022E3003D501200352B4003012F7190001C38E044
:1022F300FF64016008EF6402600301338D12003D47
:102303000612003F376008E06401600301338DEF7C
:10231300240612003EEFEFF0640E6003012DBB7F35
:102323004012004082741812003D65240812003DDB
:1023330015F990001CEC12003DBE120035616401DA
:1023430060030133E190001C377401F0D2021200E4
:102353003D5012003E1D12003D15FF2416F8E664A1
:1023630055704CEF2417F8E664AA704390001C32B2
:10237300A3E0FF12003D0E240C12003D7624081248
:10238300003D1524067F0812003F1AEF7002C202B7
:1023930012003D50FF12003D0E12003D742408123E
:1023A300003D1512003F181200413C4002C20220BA
:1023B300020301245312003D50FF12003D0E240777
:1023C30012003D76240812003D157F0E12003EE4F4
:1023D30012003D5012003E1D12003D15FF12003E3B
:1023E300C5EF240E7F0812003EE412003D50120098
:1023F3003E1C12003D152416F8765512003D7B2431
:102403000812003D152417F876AA7F4012003F2ECC
:10241300741812003D65240812003D15120034E2C1
:10242300600790001C370133E112003D5012003E5B
:102433001D12003D1512003EC590001C4B7401F0A7
:10244300A3740CF0A37416F01200E03D1200408B4D
:10245300120040A260030124F97F1090001CEB12CC
:10246300003D60240812003D15F990001CEC120099
:102473003DBE12003547600790001C370133E1125F
:10248300003D5012003E1D12003D157A00F97B00FD
:1024930024067F0612003E117E007F077D00120096
:1024A3003D66240812003D15241012003FE9120076
:1024B3003D5012003E1D12003D15120034F68C8370
:1024C30012003D10120034BC240812003D15120006
:1024D30034E2600790001C370133E112003D5924B8
:1024E3000812003D1512003DB91200353F600790F8
:1024F300001C370133E1E412003EF5F0D201013450
:102503001AC20212003EDBFD120040AA12003DAEC9
:1025130012003E3F241412003DAE7404F0A3E412F3
:10252300003E4512003D13240412003EEFEFF090ED
:10253300001C32703212003D0AFF2405F8E6FDE468
:1025430012003EF5EDF0D202EF12003FF21200E36B
:102553005C12003E6F90001C45E02400FF90001CBD
:1025630044E03401FE801912003D0A12003EC512F8
:1025730000E35C12003E6F90001C44E0FEA3E0FF0A
:1025830012003EDB8C83759300241412003DAEEEE3
:10259300F0A3EFF0E4FFFE7D08FC90001C3912006D
:1025A3003DE812003FA9502B12003D5012003FFAA4
:1025B30012003D15FEA3E0FF120040B2E0F8A3A312
:1025C300A3E012003F95E4FBFA7908F8D312000761
:1025D300E3500301338D90001C39A3A3A3E0540FF0
:1025E300FFE4FEFDFCFBFAF9F8C3120007E3600306
:1025F300012DBB12003D5012003FFA12003D15FAA7
:10260300A3E0FBD39438EA9400503612003DC6EBA6
:1026130012003EFC8A8312003D102406F990001C30
:10262300EC12003DBE12003547600790001C3701D5
:1026330033E1C20312003D5012003DA7E4F001262E
:10264300D312003D5012003DA77401F0D2031200D3
:102653003FBC12003D5012003FFA12003D1512001C
:102663003FD7506CC3EF9DFFEE1200414340047F00
:1026730040800090001C41EFF012003DCF1200405B
:10268300B212003DE812003F9590001C41E090001B
:102693001CEB12003D65241212003D15FAA3E090D5
:1026A300001C421200405C90001CEC12003E6112C0
:1026B300003581600990001C3774B1F080129000DE
:1026C3001C41E0FF90001C43E02F12003F52808228
:1026D30012003D5012003FFA12003D15FFA3E0CF58
:1026E30012004074EFF0D20101336A12003D501220
:1026F3000035354003012F717F6012004082742042
:1027030012003D65240812003D15F990001CEC12DF
:10271300003DBE12003581600790001C370133E194
:1027230090001C38E0702012003D50FF12003D0E57
:1027330012003D74240812003D1512003F181200C8
:10274300413C40030129EE12003D0612003591126F
:10275300003E6F7FA07E867D017C0090001C3912B5
:10276300003DE8FBD3120007E34003012DBB120039
:102773003D06F9240FF8E6D394604003012DBBE92D
:102783001200359D90001C42EEF0A3EFF0E4FCFD37
:102793007B407A7E7905F8C3120007CD4010900084
:1027A3001C43E0943C90001C42E094005003012D34
:1027B300BB7E007F207DFF12003D66240812003D92
:1027C3001512003FE912003D50FF12003D0E1200AA
:1027D3003D74240812003D15F87C007D007F0C1227
:1027E30000409C12003D5012003E1D12003D15F9A1
:1027F3007A007B007D1E7C00120035158C83759357
:1028030000240812003D15241EF97A007B001200F3
:10281300E4987F6012003F2E742012003D65240867
:1028230012003D1512003DB91200353F60079000BC
:102833001C370133E112003D06240678307C0C7FFF
:102843000612003CF91200359190000C3612000874
:102853006F12003D06FF240FF8E690000C3CF0EFEA
:102863001200359D90000C3AEEF0A3EFF001336AAD
:1028730012003D50120035354003012F7112003F05
:10288300A1600301338D1200400212003D4FFF127D
:10289300003D0E240712003D76241212003D15124E
:1028A300003D94A8077F3912003F2512003D5012C6
:1028B300003E7812003D151200414D12003D98CFA5
:1028C3002439CF3400A8077FC712003F2512003FE9
:1028D300BC1200400CC3EE94015047120040351265
:1028E300003EDB120040AA12003D15FCA3E0FD8C64
:1028F300831200411A12003D1AC3940540121200BC
:10290300400C1200403512003E4612003ECFE4F068
:1029130090001C43E004F0700790001C42E004F0B8
:1029230080AF12003FBC1200400CC3EE9401504133
:10293300EF24C0FFEE340EFEE43403FDE433FC90D9
:10294300001CEB744012003D65241212003D15FA81
:10295300A3E090001C461200405C12003E5012009F
:1029630035766401600574B1F0800612003F4B8038
:10297300B512003D5012003E7812003D1512003D85
:102983009478707C0D120040BA7E017F00012F5CA9
:1029930012003D501200354F400D12003D50120001
:1029A3003DA7E4F001337D12003F01FB8A8312004F
:1029B3003DA9E4F07F807E0D7D0312003E6E120080
:1029C3003FA1603190000C49E0602A12003FB2122F
:1029D300003D1312003FF2784A7C0C7D017E007F9C
:1029E30006120009FE1200413C400A90001C377495
:1029F30001F001341A12004002F012003D061200E9
:102A03003F3764016003012ABC12003EDBFD120064
:102A13003EC412003E46241212003D1512003D2111
:102A230012003E7712003D15120040C2C083C082DF
:102A330012003E3012004157D082D08312003F0A69
:102A43007455F012003D7B241212003D1512004014
:102A5300CAC083C08212003E301200415ED082D0D1
:102A63008312003ECD74AA12003D4FFF12003D0EAB
:102A7300240C12003D76241212003D1512003D94E1
:102A83007E0012003E251200401612003D47120040
:102A93003E7812003D1512003D94A807FC7D017B92
:102AA300017A0C79707E017F0012003F8B240012A3
:102AB3000041653401F0012C4E90001C38E06402A3
:102AC3006003012B9812003D50FF12003D0E2407B6
:102AD30012003D76241212003D1512003D21120012
:102AE3003E7712003D15120040C2C083C08212001F
:102AF3003E3012004157D082D08312003F0A7455F2
:102B0300F012003D7B241212003D15120040CAC092
:102B130083C08212003E301200415ED082D0831205
:102B2300003ECD74AA12003D4F12003E7812003DC4
:102B33001512003D94A807FC7D017B017A0C7950A6
:102B43007E0012003E2A1200401612003D47FF127B
:102B5300003D0E240D12003D76241212003D151285
:102B6300003D94A8077F3312003F86243312003DB3
:102B73004712003E7812003D151200414D12003DF0
:102B830098A8077FCD12003F8624CD1200416534FB
:102B930000F0012C4E90001C38E064036003012C0C
:102BA3004B12003D5012003E7712003D15FCA3E08E
:102BB3002404120040D212003D7B241212003D1562
:102BC30012003D2112003E7712003D15120040C253
:102BD300C083C08212003E3012004157D082D0839E
:102BE30012003F0A7455F012003D7B241212003D7F
:102BF30015120040CAC083C08212003E3012004149
:102C03005ED082D08312003ECD74AA12003D4F12D3
:102C1300003E7712003D15FCA3E0240A120040D2C7
:102C230012003D7B241212003D1512003D947E01DB
:102C330012003E2512004016120041653401F09047
:102C4300000C497401F0800301338D90001C44741F
:102C530001F0A3742812003D4F12003E7812003D8C
:102C630015FEA3E02400FFEE3402FAA9077B017DE1
:102C7300287C0112003515120040AA12003D15FCF4
:102C8300A3E02400FDEC3402FC90001C45E02DFD84
:102C930090001C44E0120040D41200E49890001C01
:102CA30045E024021200413212003FBC90001C4454
:102CB300E012003FD75062C390001C45E09DFF9097
:102CC300001C44E01200414340047F408000900018
:102CD3001C41EFF012003DCF120040B212003DE85C
:102CE30012003F9590001C41E090001CEB12003D48
:102CF30065241212003D15FAA3E02400FBEA340216
:102D030012003E5012003559600990001C3774B10F
:102D1300F0800612003F4B80931200400212003DE8
:102D23004F12003E7812003D1512003D94FAA90798
:102D33007B01784A7C0C7F0612003EBC90001C4746
:102D4300E0240812003D4712003E7812003D1512A0
:102D5300003D9478507C0C120040BA7E0012003E75
:102D63002A1200401612003D4712003E7812003D21
:102D73001512003D94FAA9077B0178707C0C7D0144
:102D83007E017F0012000A91E412003EF5F09000EC
:102D93001C37F0C20101341A90001C38E0B4550D01
:102DA30012003D06FF2405F8E664AA60028009EFDD
:102DB3002406F8E66406600A90001C3774A4F00148
:102DC300341A7E007F027D0012003D662408120043
:102DD3003D1512003FE91200406A12003D662408C7
:102DE30012003D15F97A007B001200DFB912003D95
:102DF3005012003E1D12003D157A00F97B00C003FE
:102E0300C001240312003FD012003DBFD001D00304
:102E13001200356CFFFEFDFC12003D662408120013
:102E23003D1512003EC51200DFB912003D501200DD
:102E33003E1D12003D15FF12003EC5C003C001EF49
:102E4300240912003FD012003DBFD001D00312006D
:102E5300356CFFFEFDFC12003D66240812003D1593
:102E6300240CF97A007B001200DD2A12003D501277
:102E7300003E1C12003D152417F876FF12003D7B1F
:102E8300240812003D15120034F68C837593002438
:102E93000812003D15120034BC240812003D15121F
:102EA300003DB912003559600790001C370133E12A
:102EB30012003D59240812003D1512003DB91200BD
:102EC3003589600790001C370133E190000C27120D
:102ED300003F421200406A90000C231200086F90DA
:102EE300000C4112003F4290000C2274FFF0E4FFFB
:102EF300FEFDFC90000C2B1200086F806012003F57
:102F030001FB8A8312003D10F9240512003EEFEF06
:102F1300F0D39410EE9400400301338D1200412B43
:102F2300240629F8E4F67FD012003F2F12003FAFAA
:102F330012003D13240612003DB9120035896007C3
:102F430090001C370133E112003D0612003EC578A4
:102F5300B77C0E7D017E007F1012000A91120040A3
:102F63008B0132BE12003D501200354F4003013336
:102F73007DE4FFFEFD12003E6E90001C38E07038C9
:102F83001200C878EF4E700A90001C37745DF00190
:102F9300341AE4FFFEFDFC90000C2712003DE812FA
:102FA300003FA970097FC07E107D03FC8034900030
:102FB3000C2712003DCA802A120040A2702A120078
:102FC3003D06FF2405F8E66404600301338D120017
:102FD3003EC4120035BC90001C3D12003DCA1200D5
:102FE300AAFE12003E6F800301338D90001C39123C
:102FF300003DE312003FA960151200406A90001CD7
:1030030039E0F8A3A3A3E0C3120007E3500301339D
:103013008D12003DC690001CEB744012003D6524E8
:103023001212003D15FAA3E0F990001CEC12003EC9
:1030330064120035D1600790001C370133E11200A0
:103043003D50FF12003DA77401F012003D7B241494
:1030530012003DAEE4F0A37440F0120040737440DC
:10306300F01200408BD201D20301341A120040A2A5
:10307300600301338D12003D06FF2405F8E6640466
:10308300600301338D12003EC4120035BC90000C66
:103093002712003DCA90001CEB744012003D6524CA
:1030A3001212003D15FAA3E0F990001CEC12003E49
:1030B30064120035D1600790001C370133E1120020
:1030C3003D5012003E7812003D15FEA3E02405FF9B
:1030D300E43EFAA9077B011200E0FE12003E6F9066
:1030E300001C3D12003DCA90001C3912003DE8123D
:1030F300003FA9600A90001C37745EF001341A1275
:10310300008C1F1200416C600301341AD201E401E8
:1031130032BE12003D50120035A9400301337D1227
:1031230000E63712003D5012003E1D12003D1512FD
:103133000035E112003D5012003E1D12003D15FF07
:1031430012004113C003C001EF12003FCE12003D35
:10315300BFD001D0037D03120035C97F8012003F29
:103163002F740612003D65240812003D1504120059
:103173003DB9120035D9600790001C370133E1E4F3
:1031830090000C3DF090001C37F0C20112003EF598
:10319300F07D647F0B1200AC2301341A12003D5002
:1031A300120035A9400301337D12003FA1600301E2
:1031B3003247FE7F20FD1200402E12000935E47FC6
:1031C300207E01FD80787F3F7E0D7D037C00900093
:1031D3001C3912003DE812003FA9400301341A12C2
:1031E300003DC690001CEB742012003E991200357E
:1031F300D9600790001C370133E17B817A1C791574
:1032030012003DC67805120007F4EF5403FFE4FEF5
:1032130074892FF582EE341E12003D1A90001CB8FB
:10322300F0120035B390001C39E0FCA3E0FDA3E0ED
:10323300FEA3E02420FFE43EFEE43DFDE43C120057
:103243003E6E808290001C38E0707812003D0612BA
:10325300003F38D3940A400301338DE490001C41AE
:10326300F0120040DBFEC39F502B12003EDB8C8329
:1032730012003D10240DFFEE25E025E02FF97A0022
:103283007B001200A77F1200416C700990001C4163
:10329300E004F080CC120040DBC39F500301341ADA
:1032A30012003D0612003FF21200D11F1200416CC2
:1032B300600301341A1200408BC20112003EF5F084
:1032C30001341A01338D12003FA1600301338D7F56
:1032D300607E0D7D037C00740A12003EFC8A83121B
:1032E300003D102406F990001CEC12003DBE1200B4
:1032F300667AEF6401600790001C370133E1120026
:103303003D06FF240DF8E6B45509EF240EF8E664F4
:10331300AA6002803512003D0612003EC57D067C80
:10332300001200DF7712003EDB8C8312003D10FE9B
:10333300240CF8E66F601E90000002EE12003EC5FA
:103343007D00AE83AF821200093512003D06240CC6
:10335300F876AA800912003D06240CF876FFD20104
:10336300120040737407F0E401341012003D50AAB8
:1033730006F97B011200B77D400A90001C3774A543
:10338300F001341A12003FA1600A90001C37745CEC
:10339300F001341A12003D06FF12003FF2C003C0D1
:1033A30001EF240D12003FD012003DBFD001D00326
:1033B3007D067C001200DEA9E47FF012003F2F742B
:1033C3000C12003F008A8312003D10240712003DB7
:1033D300B912005068EF6401600990001C3774B1A2
:1033E300F0803412003D06240778F57C0E7F04122A
:1033F300003CF9240BF97A007B001200E5DD900014
:103403000EF9EEF0A3EFF0E412003EF5F090001C8D
:1034130037F080037FA32290001C36E0FF12003EAA
:10342300DBFD8C8312003D102403F8A60790001CDB
:1034330037E0FF12003E4612003D132404F8A607AE
:1034430020033212003D06F97A007B001200412B63
:10345300FDA20192041200A50A90001C41EFF0FDA9
:1034630012003D5012004124240912003DAEE4F045
:10347300A3F0FC802012003D50AA06F97B01120044
:103483004044A201920412009A59501C12003D506C
:10349300FF1200404490001C34E0FAA3E08A8375D5
:1034A3009300240612003DF37B817A1C7924E4FD0A
:1034B3007F011200D1AA0120692418F97A007B0048
:1034C3001200E498E47F10FEFDFC90001CEB741ADC
:1034D300F090001C32E0FAA3E08A8375930022F98E
:1034E30090001CECE4F0A3F0A3E9F012005068EFA5
:1034F300640122F97A007B007D187C001200D85900
:1035030090001C42EEF0A3EFF090001C32E0FCA30D
:10351300E0221200D85990001C42EEF0A3EFF09085
:10352300001C32E0FCA3E022AA06F97B011200B7DB
:103533007D22AA06F97B011200B77D221200506892
:10354300EF6401221200667AEF640122AA06F97B76
:10355300011200B77D2212005068EF6401221200AD
:10356300667A90001C37EFF0227D037C001200DEA8
:10357300A9E4221200506890001C37EFF0221200D9
:10358300667AEF64012212005068EF640122240C72
:10359300F97A007B001200E35C222410F97A007BA5
:1035A300001200E5DD22AA06F97B011200B77D2295
:1035B300E4FD7F011200D1AA221200E0FE90001C5C
:1035C3003D1200086F227C001200DEA9E4221200E3
:1035D300667AEF64012212005068EF640122F97ADF
:1035E300007B00120049472290001D2FEFF0A3ED4E
:1035F300F0A3EBF0A3EAF0A3E9F0E490001D35F0AB
:10360300A3F090001D38F090001D3FF0A3F0A3F04D
:10361300A304F0A3F0E4A3F0A3F0A3F0A3F0A3F0BA
:10362300F514F513F512F5111200E5A790001D31FD
:10363300E0FBA3E0FAA3E0F912001FB790001D37E7
:10364300EFF090001D34E0600990001D4974FFF015
:103653008006E490001D49F090001D2FE025E090C6
:10366300001D36F0A3E0F9FD90001D30E0FE2DFDB6
:10367300E433FCC3ED9410EC648094804003013781
:103683006DEEC394084042E490001D3FF090001D8E
:1036930030E0940890001D40F0E490001D39F09054
:1036A300001D3BE9F0E0FFC313FEA3F0E490001D0F
:1036B3003AF090001D48EEF0EF540190001D3EF0EB
:1036C300E490001D3DF001381C90001D30E0FF9098
:1036D300001D3FF090001D37E0FEFDEF2DFDE433AC
:1036E300FCC3ED9408EC64809480500990001D396C
:1036F300EEF0E4801790001D30E0FFC374089FFFD5
:1037030090001D39F090001D37E0C39F90001D3BD2
:10371300F0E490001D40F090001D39E0FFC313A3B7
:10372300F090001D47F0EF540190001D3DF0900014
:103733001D3BE0FFC313A3F090001D48F0EF5401BD
:1037430090001D3EF0700301381C90001D3DE07099
:103753000301381C90001D40E004F090001D3CE084
:1037630004F0E090001D4801381490001D30E0C3C0
:1037730094084042E490001D3DF090001D30E0FFAE
:1037830074109F90001D3BF0E490001D39F0A3F0EE
:1037930090001D3FF0C3EF9408A3F090001D3BE0A1
:1037A300FFC313A3F090001D48F0EF540190001DD8
:1037B3003EF06065805C90001D30E0FFC374089F9D
:1037C30090001D39F090001D3B7408F090001D3FE0
:1037D300EFF0E4A3F090001D39E0FFC313A3F090D2
:1037E300001D47F0EF5401FF90001D3DF090001DB8
:1037F3003BE0FEC313A3F090001D48F0740854018E
:1038030090001D3EF0EF60117401F090001D40E048
:1038130004F090001D447401F0E490001D38F09012
:10382300001D37E0FFA3E0C39F4003013CF31200F8
:103833001FE1E490001D41F090001D38E0FD900071
:103843001D707401F0A3741DF0A3746AF090001D41
:1038530031E0FBA3E0FAA3E0F91200C4E8EF64024D
:103863006003013CE990001D6AE0FEA3E0FF120043
:10387300CEDF8F148E138D128C117F407E047D0456
:103883007C00AB14AA13A912A811C3120007E350BA
:103893005BE4F51575BE01E42514FBE43513FAE585
:1038A300123430F9E43511F8E4FCFDFEEB2515FF85
:1038B300EE3AFEED39FDEC38FCE42FFFE43EFEED7D
:1038C3003401FDA907AA06AB0512000524F516E489
:1038D300F5BE744A2515F582E4341DF5837593000E
:1038E300E516F00515E515B420AA80107E007F20AB
:1038F3007DFF7B017A1D794A1200093590001D3A3C
:10390300E0D394005003013A2E90001D47E0FF904E
:10391300001D45E09F4003013A2E90001D36E04410
:10392300B8FB7D01E4FF12001CFC90001D42E06027
:103933000B90001D3FE075F008A4801390001D4517
:10394300E0C454F0FF90001D3FE075F008A42F443D
:1039530040FB7D01E4FF12001CFCE490001D35F0E8
:1039630090001D35E0FFC394105028744A2FF58250
:10397300E4341DF583759300E0FF90001D49E0FEDC
:10398300EF6EFBE4FDFF12001CFC90001D35E0040C
:10399300F080CD90001D36E00444B8FB7D01E4FFC8
:1039A30012001CFC90001D42E0600B90001D3FE0E4
:1039B30075F008A4801390001D45E0C454F0FF90F7
:1039C300001D3FE075F008A42F4440FB7D01E4FF98
:1039D30012001CFC90001D357410F090001D35E0A2
:1039E300FFC394205028744A2FF582E4341DF583D5
:1039F300759300E0FF90001D49E0FEEF6EFBE4FDD0
:103A0300FF12001CFC90001D35E004F080CDE49013
:103A1300001D42F090001D3AE014F0E070069000A3
:103A23001D4104F090001D45E004F090001D3AE0B4
:103A33006003013CE990001D3CE0D3940050030176
:103A43003CE990001D41E064017003013CE99000F2
:103A53001D48E0FF90001D46E09F4003013CE990B4
:103A6300001D3EE07003013BCC90001D3DE0700360
:103A7300013BCC90001D36E044B8FB7D01E4FF120E
:103A8300001CFC7B787D01E4FF12001CFCE4900029
:103A93001D35F090001D35E0FFC394085028744A8B
:103AA3002FF582E4341DF583759300E0FF90001D2C
:103AB30049E0FEEF6EFBE4FDFF12001CFC90001DCD
:103AC30035E004F080CD90001D36E00444B8FB7D62
:103AD30001E4FF12001CFC7B787D01E4FF12001C53
:103AE300FC90001D357410F090001D35E0FFC39469
:103AF300185028744A2FF582E4341DF5837593001A
:103B0300E0FF90001D49E0FEEF6EFBE4FDFF1200B5
:103B13001CFC90001D35E004F080CD90001D36E0C4
:103B230044B8FB7D017F0112001CFC7B407D017FBB
:103B33000112001CFC90001D357408F090001D3527
:103B4300E0FFC394105029744A2FF582E4341DF525
:103B530083759300E0FF90001D49E0FEEF6EFBE4E8
:103B6300FD7F0112001CFC90001D35E004F080CCA9
:103B730090001D36E00444B8FB7D017F0112001C58
:103B8300FC7B407D017F0112001CFC90001D3574FD
:103B930018F090001D35E0FFC394204003013CD290
:103BA300744A2FF582E4341DF583759300E0FF908A
:103BB300001D49E0FEEF6EFBE4FD7F0112001CFCDB
:103BC30090001D35E004F080C990001D36E044B834
:103BD300FB7D017F0112001CFC90001D43E0600F80
:103BE300A3E0600B90001D40E075F008A4801390E3
:103BF300001D46E0C454F0FF90001D40E075F0083E
:103C0300A42F4440FB7D017F0112001CFCE49000C3
:103C13001D35F012001FE190001D35E0244AF582A6
:103C2300E4341DF583759300E0FF90001D49E0FE29
:103C3300EF6EFBE4FD7F0112001CFC90001D35E0DC
:103C430004F0E0C3941040CB90001D36E00444B868
:103C5300FB7D017F0112001CFC90001D43E0600FFF
:103C6300A3E0600B90001D40E075F008A480139062
:103C7300001D46E0C454F0FF90001D40E075F008BD
:103C8300A42F4440FB7D017F0112001CFC90001D0A
:103C9300357410F090001D35E0FFC3942050297453
:103CA3004A2FF582E4341DF583759300E0FF9000FD
:103CB3001D49E0FEEF6EFBE4FD7F0112001CFC904A
:103CC300001D35E004F080CC90001D46E004F0E4D4
:103CD30090001D3EF090001D3DF090001D43F090BC
:103CE300001D3CE014F090001D38E004F001382280
:103CF300E4FF0200E5ACF97A007B007D017E00124F
:103D0300000A9190001C32E0FEA3E08E83759300BD
:103D13002407F582E43583F583759300E022FEA33F
:103D2300E0FF90001C46E0FCA3E0FDEF2DFFEE3C1E
:103D3300A807FC7D017E007F0612000A9190001CFB
:103D430047E02406F090001C46E03400F090001C8D
:103D530032E0FEA3E022E47FA090001CEBFEFDFC1A
:103D6300741AF090001C32E0FAA3E08A8375930082
:103D7300222406F97A007B008F828E83759300E5F7
:103D83008222F8A60790001C48E0FBA3E0FAA3E018
:103D930022FEA3E0FF90001C46E0FCA3E0FDEF2D14
:103DA300FFEE3C228E837593002411F582E4358364
:103DB300F5837593002290001CECF9E4F0A3F0A3C3
:103DC300E9F02290001C39E0FCA3E0FDA3E0FEA390
:103DD300E0FF227F04F87C007D007E0002000A9150
:103DE300E4FFFEFDFCE0F8A3E0F9A3E0FAA3E02280
:103DF300F582E43583F583759300E493FB740193B3
:103E0300FA740293F5828A838B930200092EF87C5D
:103E1300007D007E0002000A91FF8E8375930024CB
:103E23000822A807FC7D017F2002000A91759300F8
:103E330090001C46E475F00102000620740FF07434
:103E430090A3F08D828C83759300E58222FA900013
:103E53001C42E0F8A3E02BFBE83A90001CECFAA923
:103E6300037401F0A3EAF0A3E9F022FC90001C39EB
:103E73000200086FFF8E83759300241222A3E0FAD9
:103E8300A3E02412F9E43AFA020006367F607E0DBD
:103E93007D037C00740AF0A37401F0A3740FF0A3F4
:103EA3007490F0222407F9E43AFA02000524F97A1F
:103EB300007B00781E7C0C7F047D017E0002000ADB
:103EC30091EF2406F97A007B0022E5822FF582E543
:103ED300833EF5837593002290001C32E0FCA3E03F
:103EE30022F87C007D007E0002000A91F8E6FF7E46
:103EF30000EE90001C44F0A32290001CEBF0900015
:103F03001C32E0FAA3E022E5822DF582E5833CF53D
:103F130083759300227F06F87C007D007E000200FB
:103F230009FEFC7D017E0002000A91E4FEFDFC9087
:103F3300001CEB22FF2405F8E690001C38F022E475
:103F4300FFFEFDFC0200086F90001C43E02440F0DC
:103F530090001C42E03400F022FEE5F02403FFE46D
:103F63003EFEE92FF9EA3EFA74C3020005569000BB
:103F73001CAFA3A3E0FEA3E0FDAC062490F582747E
:103F83000F3C22FC7D017E0012000A9190001C4729
:103F9300E0222FFFEA3EFEED39FDEC38FC229000D3
:103FA3001C38E0649922FBC3020007E37410F08B12
:103FB300828A83759300E58222E490001C42F0A379
:103FC300F0227E1C7F1B7C1A7DDD222404F99000E5
:103FD3001CECEB22FEA3E0FF90001C42E0FCA3E0FC
:103FE300FDC39FEC9E22F97A007B00020009352471
:103FF30007F97A007B00228E8375930024142290A4
:10400300001C467402F0A3E42290001C42E0FEA3CD
:10401300E0FF2290001C47E02420222414F9E43A14
:10402300FAE475F0010200065A7D017B017A0F79EB
:10403300902290001C47E02FFF90001C46E03EFEBC
:104043002290001C44E0FCA3E0FD22FAEF120005DD
:104053005690001C4CE004F022FBE0F8A3E0F5824C
:10406300EB2582FBEA38227FC07E107D037C002291
:10407300E490001C44F0A322FFFDFC0200086FE45F
:10408300FEFDFC90001CEB22E490001C37F0229014
:10409300001C4BE004F0227F067E0002000A919090
:1040A300001C38E06401228C83759300241222E4FF
:1040B300FCFD90001C3922FAA9077B017D0122FC3B
:1040C300A3E0F5828C8322FEA3E0F5828E8322FD9A
:1040D300E43CFAA9057B012290001C38E0FF900024
:1040E3001C41E022FE90001C48A3E0FAA3E02274E6
:1040F300902DF582740F3CF58322759300E0FF90B9
:10410300001CAEE02278907C0F7D0190001CA7225A
:1041130004F97A007B00227593002FF582E5833E34
:1041230022FF8E837593002290001C44A3E022F0AB
:1041330090001C44E03400F022C3EF64809480229A
:104143009CFEC3EF9440EE940022FEA3E0FFAA0678
:10415300F97B0122ADF0FC75930022AFF0FE75935D
:104163000022F090001C46E02290001C37EFF02262
:104173007DB17C007E042290001C6A7401F0E4A3EC
:10418300F0A37407F07F011200914D90001C69EFBA
:10419300F014601624FC602D2403702C90001C6B1B
:1041A300E0D394004022E014801190001C6CE0FFE7
:1041B30090001C6BE0C39F500FE004F090001C6A5A
:1041C3007401F080037F002290001C6AE060B67FD8
:1041D300447B017A1C791B12006AC090001C6BE0BF
:1041E300B4080040030144A5900041F425E025E014
:1041F30073020042140200427F020042C6020043DF
:10420300070200435A020043A9020043EF0200449D
:10421300327481120069F97415F074AF12004515F8
:104223007481F0A37415F0A374BAF090000C1E12FD
:10423300006A3290000C1F12006A6090000C20127A
:10424300006B6490000C21E0FF90001D35E4120028
:1042530045267481F0A37415F074CB1200457B12CC
:1042630000E6377B017A1C795F1200494712006A26
:10427300D57B017A1C795F7D070143E874811200C5
:1042830069F97415F074D41200451512006A899007
:10429300000C41120044E37481F0A37415F074E838
:1042A3001200453912006A8990000C451200699A80
:1042B300E4120000CDE4FBFA79C878421200002B27
:1042C30001434F748112006A087415F074F51200EB
:1042D300454A12006A8990000C36120044E3748147
:1042E300F0A37415F074FE120045397481F0A374C1
:1042F30016F0A3740BF090000C3CE0FF90001D2F10
:10430300E4014497748112006A087416F074111260
:1043130000454A7481F0A37416F0A3741AF0900058
:104323000C3A12006B94120045267481F0A37416A4
:10433300F074201200457B748112006A227416F017
:10434300A3742BF090000C2B1200699A90001D2F80
:104353001200086F01449B748112006A227416F0E4
:10436300742F120045881200C878748112006A59AC
:104373007416F0A3743AF0A3EEF0EF1200459574AF
:104383008112006A597416F0A37440F07A1C793DC7
:104393001200455B12006B0C7481F0A37416F0A33A
:1043A300744CF001449B748112006A957416F07486
:1043B3005612004588748112006A957416F0A3742E
:1043C30060F090000C3DE090001D2F1200456A7BC9
:1043D300817A16796612006B1512006AD57B017A11
:1043E3000E79EF7D061200D2BA0144A57481120042
:1043F3006B3C7416F0A37473F07A1C791B1200459E
:104403005B12006B0C7481F0A37416F074791200C4
:104413004595748112006B3C12006B0C7481F0A300
:104423007416F0A37485F07B017A1C793D806F7854
:104433001B7C1C7D017B817A16798E12000B1E90EA
:10444300001D2C7481F0A37416F0A37497F09000F0
:104453000EF512006A3290000EF612006A609000A8
:104463000EF712006B6490000EF8E090001D3512F9
:1044730000456A7B817A1679A312006B1590001DA3
:104483002C7481F0A37416F0A374AEF090000EF9AF
:1044930012006B94F0A3EFF07B017A1C794E1200AB
:1044A3000CB9E490001C6AF01200E50CE490001CC7
:1044B30069F090001C69E0FFC39404400301418844
:1044C300EF75F011A4241BF9741C35F0FA7B01126B
:1044D300006A2A1200A3C590001C69E004F080D290
:1044E300E0FCA3E0FDA3E0FEA3E0FFE4120000CDA7
:1044F300E4FBFA79C878421200002B90001D2F12BA
:1045030000086F7B017A1C792C12000CB990001DF6
:104513002C22A3F07B017A1C791B12000CB99000AA
:104523001D2C22F0A3EFF07B017A1C792C12000CD6
:10453300B990001D2C22A3F07B017A1C793D120057
:104543000CB990001D2C22A3F07B017A1C791B125D
:10455300000CB990001D2C227B0112000CB99000B5
:104563001D2C7481F0A322FFE4F0A3EFF07B017A0A
:104573001C792C12000CB922A3F07B017A1C793D23
:1045830012000CB922A3F07B017A1C791B12000CD8
:10459300B922A3F07B017A1C792C12000CB92212E8
:1045A30000BBF0EF6401600F7B817A1579417DB127
:1045B3007C007F5D0148C21200E6377B017A0E79E9
:1045C3007012004947E47F4012006A5174181200C8
:1045D300692912004921600F7B817A1579487DB1E1
:1045E3007C007F660148C2E538B45506E53964AA04
:1045F300600F7B817A15794D7D5C7C007F6B014771
:10460300E078287C007A0079307F0612006A3EEF5A
:10461300600F7B817A1579537D5C7C007F70014745
:10462300E090001C4B7401F0A3740CF0A37416F01B
:104633007B007A0079281200E03D7F6012006A5007
:1046430074201200692912004921600912006A9C32
:104653007F7B0148C212006A117D1E7C0012004953
:1046630031F07B007A0079421200E49878407C00B4
:104673007A0079427F0212006A3EEF600F7B817AF3
:1046830015795C7D5C7C007F830147E078307C0C8E
:10469300120069467B007A0079281200E35C9000DF
:1046A3000C361200086F90000C3CE52BF07B007A6F
:1046B30000792C1200E5DD90000C3AEEF0A3EFF048
:1046C300E47F8012006A51740612006929120049BE
:1046D30029600912006A9C7F8D0148C212006AA7F3
:1046E3007400F0742812006A0F1200493E78257C8A
:1046F300007D007A007928120069AC603B78227C47
:104703000012006AEB1200695C12006AA77400F0E1
:10471300742512006A0F1200493E7F8012006B035A
:1047230074061200692912005068EF6401600912CF
:10473300006A9C7F970148C290001BCD7401F0A3CF
:10474300740EF0A3747112006A101200D9929000D3
:104753000C3DEFF01200E67150037F052212006B4F
:104763001F12006B70942AEA94015026EB2480FFF9
:10477300EA340D1200697412004929600F7B817AB3
:104783001579627DB17C007FA50148C212006AAF32
:1047930080CFE490000C49F090000F96E0B45506EA
:1047A300A3E064AA600812006B7B7FAC802F7B01BF
:1047B3007A0F79907D287C011200493112006A102A
:1047C3001200E49878227C007B017A1079B87F028A
:1047D30012006B54EF600F12006B7B7FB37E0112EC
:1047E30000B3AD7F5C22784A7C0C7A0F79907F0608
:1047F30012006A1878507C0C7A0F79987F20120087
:104803006A1878707C0C7D017B017A0F79B87E0180
:104813007F0012000A91E47FD012006A51742012C3
:104823000069291200667AEF6401600F7B817A15B3
:10483300796D7DB17C007FBD0148C278B77C0E7F66
:104843001012006948E490000EC7F012006AA874C1
:1048530000F0A37442F012006B287D047C00120068
:10486300DEA978427C007B007A0079367F0412004F
:104873006B54EF6007E4FFFEFDFC800812006B2819
:104883001200E0FE90000C451200086FE490000C4B
:104893002FF012006B2012006B70EA9401502FEB83
:1048A30024C0FFEA340E120069741200667AEF64C2
:1048B3000160157B817A1579727DB17C007FD17E91
:1048C300011200B3AD7FB12212006AAF80C812009B
:1048D3006B1F90001BC8E0FEA3E0FFC3EE940150E2
:1048E3003874902FF582740F3EF583759300E0FFC3
:1048F300C3940590001BC8400812006AF4E4F080DA
:104903000612006AF4EFF090001BC9E004F070C2D5
:1049130090001BC8E004F080B91200DABE22120036
:10492300667AEF6401221200667AEF6401221200B4
:10493300D85990001BC8EEF0A3EF227D037C001230
:1049430000DEA92290001CA0EBF0A3EAF0A3E9F09B
:1049530043F908A3E5FBF0A3E5FCF0E5FD541FA331
:10496300F0A3E5FEF0A3E5FFF090001CA3E0FF75C4
:10497300F00A84C454F0FEEF75F00A84E5F0540F96
:104983002E90001CAEF090001CA4E0FF75F00A848A
:10499300C454F0FEEF75F00A84E5F0540F2E900036
:1049A3001CADF090001CA5E0FF75F00A84C454F020
:1049B300FEEF75F00A84E5F0540F2E90001CACF066
:1049C30090001CA7E090001CAFF090001CA6E090A4
:1049D300001CB0F0E490001CA8F0A3F090001CB6FB
:1049E3007407F0A374D0F012001FE11200E225BF98
:1049F300012AD390001CB0E0946E90001CAFE094A9
:104A030001406E90001CA9E004F0700790001CA800
:104A1300E004F090001CB0E024928028D390001CA6
:104A2300B0E0946D90001CAFE09401404490001CF2
:104A3300A9E004F0700790001CA8E004F090001CAB
:104A4300B0E02493F090001CAFE034FEF090001C23
:104A5300B7E004F0700790001CB6E004F0C39000C8
:104A63001CB7E0948490001CB6E0940850030149FD
:104A7300EA90001CA8E0FFA3E090001CB1CFF0A3D4
:104A8300EFF090001CA87420F0A3E4F090001CB198
:104A9300E0FEA3E0FF7C007D641200057CEF540F71
:104AA300FE90001CA9E02400F090001CA8E03EF05A
:104AB30090001CB1E0FEA3E0FF7C007D64120005C2
:104AC3007C7C007D641200056AC390001CB2E09FE9
:104AD300F090001CB1E09EF0E0FEA3E0FF7D0A121F
:104AE30000057CEFC4F8540FC868FFEF54F0FF9043
:104AF300001CA9E02FF090001CA8E03400F0900007
:104B03001CB1E0FEA3E0FF7C007D0A1200057C7C63
:104B1300007D0A1200056AC390001CB2E09FF0906A
:104B2300001CB1E09EF0A3E0540FFF90001CA9E02D
:104B33002FF090001CA8E03400F0E0FFA3E0900009
:104B43001CB1CFF0A3EFF090001CB1E054F0D3946C
:104B53009040037F002290001CB1E0540FD39409CE
:104B630040037F002290001CB2E054F0D3949040A5
:104B7300037F002290001CB2E0540FD3940940033A
:104B83007F00221200E22590001CB3BF010D748147
:104B9300F0A3741FF0A37489F0800B7481F0A374E5
:104BA3001FF0A37495F090001CB87401F090001CE2
:104BB300B6E4F0A304F090001CB6E0FEA3E0FFC34C
:104BC300940CEE9400505890001CB3E0FBA3E0FA61
:104BD300A3E0F9C3EF9401FFEE9400FEE92FF9EA95
:104BE3003EFA12000524FF7E00D390001CB0E09F24
:104BF30090001CAFE09E402790001CB8E004F090AA
:104C0300001CB0E09FF090001CAFE09EF090001CF1
:104C1300B7E004F070A090001CB6E004F08097E4C5
:104C230090001CAAF090001CB8E0FF75F00A84FE07
:104C3300C454F0FD90001CAAE02DF0EE75F00AA418
:104C4300FEC3EF9E90001CB8F0540FFF90001CAA07
:104C5300E02FF0E0FFD39412500AEF540F94095061
:104C630003E070037F0022E490001CABF090001C73
:104C7300AFE0A3E090001CB8F0E0FF75F00A84FEFB
:104C8300C454F0FD90001CABE02DF0EE75F00AA4C7
:104C9300FEC3EF9E90001CB8F0540FFF90001CABB6
:104CA300E02FF0E0FFD394315007EF540F94094005
:104CB300037F002290001CA0E0FBA3E0FAA3E0F82E
:104CC300AC02AD037B017A1C79A87E007F0712003A
:104CD3000A917F012290001C8FEBF0A3EAF0A3E975
:104CE300F090001CE6741AF07E007D0012007E9F97
:104CF30012007EBF90001CE47401F07F1012004F7D
:104D0300E670037FB12212007F7A90001CE6E0C3B5
:104D13009402FD12005010704690001CE3F0120044
:104D23007E7BB5061E12007FC512007E981200809E
:104D33001112007E98B5060B90001CE3E004F0E02E
:104D4300B403DB12007ECFE490001CE4F090000C6F
:104D53002FE0700B7FA01200503F70037FB12290B1
:104D6300001CE4E064017059FEFD12007E9F7FA0E9
:104D730012004FE670037FB12212007EBF12007F44
:104D83007A7D181200501060037F5C22E490001CAF
:104D9300E3F012007E7B6E60037F5C2212007FC50E
:104DA30012007E981200801112007E986E60037FBD
:104DB3005C2290001CE3E004F0E0B403D512007E13
:104DC300CF7B017A1C79A61200E0FE90001C8F12A3
:104DD300007E732405F9E43AFA120008371200083A
:104DE3001A90000C2B1200086F12007F7A1200E356
:104DF3005C90000C231200086F120080271200E35E
:104E03005C90000C271200086F90001CB112008008
:104E13002E90001CE5F01200E58A50037F0D22124C
:104E2300007E52C3120007E37030FC90000C27127F
:104E3300007F5E7FC07E107D037C001200802712FE
:104E430000DFB912007FBC741CF0A374A3F012003E
:104E530080277D037C001200DEA912007E439000B0
:104E63001C9612007EAFE4FFFE7D08FC90001C96AA
:104E730012007E5BC3120007E340317C0090001CEC
:104E83009612007F5E90000C2712007E47FF900071
:104E93001C9612007E5BD3120007E35008E49000D7
:104EA3001CE5F0800790001CE574FFF012007E43C0
:104EB300FF90001C8F12007E732437F9E43AFA1234
:104EC30000083790001C9612007E47FF12007F7A7D
:104ED3001200DFB912007FBC741CF0A3749D120092
:104EE3007F797D037C001200DEA97B017A1C79AAFD
:104EF3001200E0FE90000C411200086F78DC7C1C6D
:104F03007D017B017A1C79AE7E007F0312000A913A
:104F130090000C4112007E47FF90001C8F12007E10
:104F2300732411F9E43AFA12000852EF2BFFEE3A18
:104F3300FEED39FDEC38FC90000C411200086F784F
:104F43003E7C0C7A1C79AE7F0312007ED990000C54
:104F53004112007E47FF7B017A1C79AA1200DD2AE9
:104F630090001C8F12007E73240512007FABEF129A
:104F7300007F817B017A1C79A61200DD2A90000C48
:104F83002B12007E4712007F8190000C2B12000829
:104F93006F90001C9612007E47FF90000C231200B6
:104FA300086F90001CE5E090001CB112007F797D32
:104FB300187C001200D85990001C94EEF0A3EFF077
:104FC3007B017A1C79B21200E498E47F101200503E
:104FD3003F6401700B90001CE51200802E7F0022BD
:104FE3007FB122E4FEFDFC90001CE6E090001CEB88
:104FF300F0A37401F0A3741CF0A3749AF01200667A
:105003007A7E0090001C92EEF0A3EFF0227C001257
:1050130000D85990001C94EEF0A3EFF07B017A1CAA
:1050230079DA1200E49878DA7C1C7D017B017A1C22
:1050330079B27E007F02120009FEEF22FEFDFC9092
:10504300001CE6E090001CEBF0A37401F0A3741CB9
:10505300F0A3749AF0120050687E0090001C92EE48
:10506300F0A3EFF02290001CE71200086FE4900019
:105073001CEFF090001CEBE0D3945040037F002220
:1050830090001CE7A3A3A3E0540FFFE4FEFDFCFB89
:10509300FAF9F8C3120007E360037F002290001CB3
:1050A300E7E0FCA3E0FDA3E0FEA3E0FF90001D4CBE
:1050B3001200086F784A7C1D7D017B017A1D794EB1
:1050C3007E007F0212000A9190001D4DE0131354DD
:1050D3003F90001D46F090001D4AE0FFA3E09000C2
:1050E3001D48CFF0A3EFF090001D4DE05403900056
:1050F3001D47F0E490001CEFF012001FE17B017AE2
:105103001B792A90001D55E41200C5BB7B017A1C54
:1051130079F090001D55E41200C5BB90001CF0E02F
:10512300FF90001B2AE0FE6F60030153E2EE64422E
:10513300600301525D7B017A1B792A90001D55F0B3
:10514300A374561200C5BE90001B2BE0D3940340FA
:10515300030153E290001B2CE0D39403400301535B
:10516300E2D390001B2EE094F090001B2DE094FFFF
:1051730040030153E290001B2FE0D39450400301FE
:1051830053E27E007F567D007B017A1C79F012008A
:1051930009357B017A1C79F090001D55E4F0A37466
:1051A300561200C5BE78F07C1C7D017B017A1B7909
:1051B3002A7E007F56120009FEEF60030153E2903E
:1051C300001B2BE0FFA3E0FD90001B2FE090001DD0
:1051D30054F0A37401F0A3741BF0A37430F0900097
:1051E3001B2D1200C664EF70030153E27E007F564D
:1051F3007D007B017A1C79F01200093590001B2B8E
:10520300E0FFA3E0FD90001B2FE090001D54F0A3EE
:105213007401F0A3741CF074F01200BCCDEF7003A2
:105223000153E290001B2FE0FF7E0078307C1B7D52
:10523300017B017A1C79F0120009FEEF6003015330
:10524300E21200C1CA1200C5AB90001B2AE0FF9016
:10525300001CF0E06F60030153E2900019C8744131
:10526300F090001D46E0900019C9F090001D47E042
:10527300900019CAF090001D48E0FFA3E0900019C8
:10528300CBCFF0A3EFF090001CEBE0FF900019CD23
:10529300F07E0078CE7C197D0190001CECE0FBA32E
:1052A300E0FAA3E0F912000A917B017A1979C99017
:1052B300001D55E4F0A37455F07F9D7E071200C1D5
:1052C300E47E007F557D007B017A1C79F012000992
:1052D300357B017A1C79F090001D55E4F0A37455D9
:1052E300F07F9D7E071200C5C378F07C1C7D017B97
:1052F300017A1979C97E007F55120009FEEF600318
:105303000153E2900019C87442F07B017A1979C8FD
:105313001200C1D71200C5AB900019C8E0FF90007E
:105323001CF0E06F60030153E290001D46E0FFA311
:10533300E0FD90001CEBE090001D54F090001CEC8D
:10534300E0F9A3E0FAA3E090001D55C9F0A3EAF049
:10535300A3E9F090001D481200C664EF70030153E7
:10536300E27E007F507D007B017A1C79F0120009F8
:105373003590001D46E0FFA3E0FD90001CEBE0909C
:10538300001D54F0A37401F0A3741CF0A374F0F097
:1053930090001D481200BCD3EF604490001CEBE06A
:1053A300FF7E0078F07C1C7D01A3E0FBA3E0FAA361
:1053B300E0F9120009FEEF7026900019C87441F05D
:1053C3007B017A1979C81200C1D71200C5AB9000CE
:1053D30019C8E0FF90001CF0E0B507037F0122909D
:1053E300001CEFE004F0E0C3940350030150FC7F82
:1053F300002278237C1C7D017B817A1E79EF7E005D
:105403007F0512000A917B017A1C792C12007F6FB1
:105413007B017A1C793612007F6F7F04120080496A
:1054230012007F207E007F3B7DFF12007F3312003E
:10543300093512007F18120080491200D699120014
:105443007F686003E0FF221200E58A50037F0D228C
:10545300120080491200BE7F12007F686015E024AD
:10546300F96007240560030156EE7F0212005762BC
:105473000156EE12007FE074702FF582740C3E1219
:10548300007E98FFE4FCFDFE90000C3612007E5B6C
:10549300120006A2E47B64FAF9F81200072D9000CB
:1054A3001C281200086F7E007F147D007B017A1C8C
:1054B300797B1200093590000F6812007E47FF9038
:1054C300001C491200086F78417C1C7D0112007F8B
:1054D3003A78577C1C7D017A0E79717F0612007F22
:1054E3004090001C2812007E47FF90001C511200C0
:1054F300086F90001C9212007F281200B1961200D0
:105503007F68600DE0B45A067F08120057620156A7
:10551300EE90001C2812007E47FF90000F6E1200D1
:105523007E5BC3120007E350097F0F120057697FA8
:10553300092290000F6E12007E47FF90001C4D124F
:1055430000086FE490001C5FF090000F77E02401E7
:10555300FE90000F76E0340090001C55F0A3CEF0CF
:1055630090001C5D74FFF0A37401F090001C76F0B2
:105573001200B5A112007F68601FE0FBB40617E4B8
:1055830090001C5DF090001C767402F090001C519A
:1055930012007FB38003AF032212007F3312004C4B
:1055A300D812007F686003E0FF2212007F18120008
:1055B3007F33120080097D0112007C1D12007F6879
:1055C3006003E0FF2290001C5DE0701B7B817A1E6C
:1055D30079BA7D017F011200D1AA1200E6CF7F07BD
:1055E300120057697F062290001C9212007F281236
:1055F30000D9F612007F6890001C2812007E5B9091
:10560300001C4D12007E4712007EF4FC12007F99AD
:105613007B017A1C79361200E60D90001C281200DB
:105623007E47FF12007F997B017A1C792C1200E6DA
:105633000D1200805012007E5BC3120007E3700856
:105643007B817A1E79BF801690001CB87401F0A389
:10565300741CF0A3742CF07B817A1E79C6E4FD7F61
:10566300011200D1AA90001CB87401F0A3741CF0BD
:10567300A37436F07B817A1E79D17F0212005770B2
:105683007B817A1E79DC90001C4512007E47FF90D7
:10569300001CB81200086F7F031200577090001CA3
:1056A3001EE0FF604DB4011E90001C5D74021200E9
:1056B3007F32120080097D0312007C1D7F0A7E0069
:1056C3001200E623801990000C2F7401F01200E4FD
:1056D300C17B817A1E79E87D0A7F031200D1AA1269
:1056E30000E6CF7D647F011200AC2390001C1EE016
:1056F300FF2290001C5D740AF090001C7674021265
:10570300007F32120080097D0212007C1DE49000AC
:105713000C2FF01200E6CF1200805012007E5BC304
:10572300120007E3602612007FE074702FF5827485
:105733000D3E12007E9890001C1EF0E02423F5829B
:10574300E4341C12007E98FF7D6480047D647F0630
:105753001200AC237F0A7E001200E6237F00227D25
:10576300641200AC23227D641200AC2322E4FD12F8
:1057730000D1AA2290001D76EEF0A3EFF090001D59
:1057830079EBF0A3EAF0A3E9F090001D78EDF0E4E3
:10579300F568EDD3944040037F0022C390001D774A
:1057A300E0946490001D76E0940050037F0022E4AF
:1057B300F56812001FE17B017A1B798090001D556B
:1057C300E4F0A304F0E4FFFE1200C5C37B017A1DDD
:1057D300797C90001D55E4F0A304F0E4FFFE120071
:1057E300C5C390001D7CE0FF90001B80E0FE6F604E
:1057F30003015ACCEE644260030159307B017A1BEA
:10580300798090001D55F0A37444F0E4FFFE12006C
:10581300C5C3D390001B82E094FF90001B81E094EA
:10582300074003015ACC90001B83E0D39444400308
:10583300015ACC7E007F447D007B017A1D797C1266
:105843000009357B017A1D797C90001D55E4F0A396
:105853007444F0E4FFFE1200C5C3787C7C1D7D0117
:105863007B017A1B79807E007F44120009FEEF6082
:1058730003015ACC90001B81E0FEA3E0FF7B017A79
:105883001B7984A3E0FD90001D55E4F0A3EDF01215
:1058930000C1E490001B83E0FF7E007D007B017A62
:1058A3001D797C1200093590001B81E0FEA3E0FF07
:1058B3007B017A1D797CA3E0FD90001D55E4F0A3E4
:1058C300EDF01200C5C390001B83E0FF7E007884D7
:1058D3007C1B7D017B017A1D797C120009FEEF6040
:1058E30003015ACC90001B807441F07B017A1B7931
:1058F3008090001D55E4F0A304F0E4FFFE1200C104
:10590300E4E490001D7CF07B017A1D797C90001DFE
:1059130055F0A304F0E4FFFE1200C5C390001B8002
:10592300E0FF90001D7CE06F6003015ACC90001AE9
:105933001E7441F090001D76E0FFA3E090001A1F53
:10594300CFF0A3EFF090001D78E0FF90001A21F054
:105953007E0078227C1A7D0190001D79E0FBA3E094
:10596300FAA3E0F912000A917B017A1A791F9000D9
:105973001D55E4F0A37443F07F017E001200C1E4DF
:105983007E007F437D007B017A1D797C12000935FF
:105993007B017A1D797C90001D55E4F0A37443F0DC
:1059A3007F017E001200C5C3787C7C1D7D017B01D5
:1059B3007A1A791F7E007F43120009FEEF6003010C
:1059C3005ACC90001A1E7442F07B017A1A791E9009
:1059D300001D55E4F0A304F0E4FFFE1200C1E4E46B
:1059E30090001D7CF07B017A1D797C90001D55F0A1
:1059F300A304F0E4FFFE1200C5C390001A1EE0FFEB
:105A030090001D7CE06F6003015ACC90001D76E08E
:105A1300FEA3E0FF90001D79E0FBA3E0FAA3E0F909
:105A230090001D78E0FD90001D55E4F0A3EDF01209
:105A330000C1E47E007F407D007B017A1D797C12EA
:105A430000093590001D76E0FEA3E0FF7B017A1D7F
:105A5300797CA3E0FD90001D55E4F0A3EDF0120066
:105A6300C5C390001D78E0FF7E00787C7C1D7D011E
:105A7300A3E0FBA3E0FAA3E0F9120009FEEF7049EB
:105A830090001A1E7441F07B017A1A791E90001D52
:105A930055E4F0A304F0E4FFFE1200C1E4E4900037
:105AA3001D7CF07B017A1D797C90001D55F0A304C9
:105AB300F0E4FFFE1200C5C390001A1EE0FF900041
:105AC3001D7CE0B507037F01220568E568C39403E5
:105AD30050030157B57F002290001CA71200715696
