:100000000219907E11DEFEDFFA00220200B3615376
:10001000E8EF438EC075C7AA75C75543D803227F42
:020020000122BB
:100023000200ADC40200014BEC5D046005E8590415
:100033007004020001411200010C580460F4EC4802
:1000430060F0EC7004FDFEFF22C860D82481C85024
:100053000AC39860025007020001489850C6F5820F
:10006300E9294B4A7006AB820200013775F0007C28
:100073001A7880C3EF9BEE9AED99400DC3EF9BFF77
:10008300EE9AFEED99FDE842F0DC24ACF0D0E0FFFF
:10009300D0E0FED0E0FDAB8220E7101BEB60B8ECB4
:1000A3002CFCEF33FFEE33FEED33FD02000123E8BA
:1000B30003F830E705C0F075F000EF2FFFEE33FED5
:1000C300ED33FD40B730E7C180A975F020800E7590
:1000D300F010800575F0087D007E007F003392D517
:1000E30030D504120007BFEC334010EF33FFEE337B
:1000F300FEED33FDEC33FCD5F0ED22E5F0247EA2DA
:10010300D513CC92E7CDCEFF22E9D2E7C933E8334A
:10011300F892D5EDD2E7CD33EC33FC5002B2D522C1
:10012300EC30E7100FBF000C0EBE00080DBD00043D
:100133000BEB6014A2D5EB13FCED92E7FD2274FFE9
:10014300FCFDFEFF22E480F8A2D574FF13FC7D8042
:10015300E480EFF920E73624F950037907E4F42427
:1001630002FBE582158270021583DBF6E024FB5067
:100173001BE96014E4F0E582158270021583E00444
:10018300F0B40A08E4F0D9EE7401F00A22C2D522D1
:10019300ED33EC3392D5FA602AB4FF33EDC2E77B3B
:1001A3008160067A0179B8E4227A0179C120D50405
:1001B3007A0179BC224E614E002B494E46002D49EF
:1001C3004E4600E47A08F0A3DAFC7B00740722C0F1
:1001D30093C083C082ECC0E0EDC0E0EEC0E0EFC0AE
:1001E300E0EA75F010A4CAABF075F04DA42BFBE464
:1001F30035F0FCEA2410FAEB34C5FBEC34D9FCED02
:10020300C2E7FF75F056A4F42411C5F0F434C58F8A
:10021300F0A42AE5F03BE43CF020E716120004DEEC
:10022300D0E0FFD0E0FED0E0FDD0E0FC1200002BD8
:100233008016F404120004DED0E0FFD0E0FED0E02C
:10024300FDD0E0FC120003A0D082D083D093E0FA6B
:10025300EDD2E7CD33EC332482FBE4C3CF33CFCEEF
:1002630033CECD33CD33DBF37B0775F00A846004E3
:10027300F0A31B0AE5F0F0A38FF0740AA4FFACF01F
:100283008EF0740AA42CFEACF050010C8DF0740AAD
:10029300A42CFDE435F0F0A3DBDE74072202000199
:1002A30041E86480F8E933E83360110460EFED332B
:1002B300EC337009E8FCE9FDEAFEEBFF220460DDA4
:1002C300D3EB9FEA9EE99DE8C2E78CF0C2F795F075
:1002D300400CE8CCF8E9CDF9EACEFAEBCFFB1200FB
:1002E300010C85D0F05804700320D5B1E8047008E0
:1002F3005002B2D50200014B92D5EC0460F6E4CC77
:10030300C0E0C398F8603C94186009400ED0E0FB4D
:1003130002000123E4FBFAC9FC8028E830E406E488
:10032300C9FBE4CAFCE830E305E4C9CACBFCE854E2
:10033300076010F8C3E913F9EA13FAEB13FBEC13A4
:10034300FCD8F130F531C3E49CFCEF9BFFEE9AFE41
:10035300ED99FDD0E0FBEF4E4D4C701322DB040210
:10036300000148EC2CFCEF33FFEE33FEED33FDEDE3
:1003730030E7EA02000123EF2BFFEE3AFEED39FDF1
:10038300D0E0FB50140BBB00040200014BED13FD46
:10039300EE13FEEF13FFEC13FC02000123EC4D60A0
:1003A30011E8497018ED33EC3304600DE4FCFFFEF3
:1003B300FD22E933E8330470F80200014112000121
:1003C3000C58046009E4CC2481500728500B020028
:1003D300014B28400402000148C0E0EB4A7046B9D3
:1003E3008007D0E0FB02000137EF4E701DBD80088F
:1003F300EBFFEAFEE9FD80EAE98DF0A4FEE5F002F9
:1004030000048FE9CDF9EAFEEBFFEF89F0A4FCE5E8
:10041300F0CE89F0A42EFFE435F0CD89F0A42DFEB3
:10042300E435F08067EF4E7005BD80D780C2EF8B57
:10043300F0A4ACF0EE8BF0A42CFCE435F0F8EF8ADA
:10044300F0A42CE5F038FCE433CB8DF0A42CFCE5D0
:10045300F03BF8EE8AF0A42CFCE5F038F8E433CF57
:1004630089F0A42CFCE5F038CF3400CE89F0A42F1A
:10047300FFE5F03EFEE433C98DF0A42EFEE5F0392E
:10048300CD8AF0A42FFFE5F03EFEE43DFD33D0E03E
:10049300FB50080BBB00100200014BEC2CFCEF33AC
:1004A300FFEE33FEED33FD020001233F80000041E8
:1004B30020000042C80000447A0000461C40004768
:1004C300C35000497424004B1896804CBEBC205A7C
:1004D3000E1BCA6753C21C749DC5AEFB600654074E
:1004E3006020232312000511EB5438600C12000422
:1004F300FC1200050C120003A0ECF8EDF9EEFAEF84
:10050300CB22EB1200050C80F0543803241C90001E
:1005130004AEFE93FC0EEE93FD0EEE930ECE93FF10
:1005230022EB7002E72289828A831410E704F59391
:10053300E022F593E49322BB000327F722F8EB892B
:10054300828A831410E706F593E028F022F593E4FA
:10055300932822BB0002F722BB8000500989828ABC
:10056300838B931593F022EF8DF0A4A8F0CF8CF03A
:10057300A428CE8DF0A42EFE22BC000BBE0029EFD2
:100583008DF084FFADF022E4CCF875F008EF2FFF77
:10059300EE33FEEC33FCEE9DEC984005FCEE9DFE45
:1005A3000FD5F0E9E4CEFD22EDF8F5F0EE0084205E
:1005B300D21CFEADF075F008EF2FFFED33FD4007C1
:1005C300985006D5F0F222C398FD0FD5F0EA22C267
:1005D300D5EC30E709B2D5E4C39DFDE49CFCEE30D5
:1005E300E716B2D5E4C39FFFE49EFE1200057CC369
:1005F300E49DFDE49CFC80041200057C30D507C318
:10060300E49FFFE49EFE22C5F0F8A3E028F0C5F0C6
:10061300F8E582158270021583E038F022A3F8E032
:10062300C5F025F0F0E582158270021583E0C83825
:10063300F0E822EB7007E7F5F009E7192289828ACF
:10064300831410E708F593E0F5F0A3E022F593E4B3
:1006530093F5F074019322BB000B09C5F027F7C58E
:10066300F01937F722F8EB89828A831410E707F52C
:1006730093E80200060AF59374019325F0F5F0E47C
:10068300933822BB0006F709A7F01922BB8000505C
:100693000D89828A838B931593F0E5F0A3F022E80A
:1006A3008FF0A4CC8BF0A42CFCE98EF0A42CFC8A54
:1006B300F0EDA42CFCEA8EF0A4CDA8F08BF0A42DD1
:1006C300CC3825F0FDE98FF0A42CCD35F0FCEB8E72
:1006D300F0A4FEA9F0EB8FF0A4CFC5F02ECD39FE28
:1006E300E43CFCEAA42DCE35F0FDE43CFC2275F09D
:1006F30008758200EF2FFFEE33FECD33CDCC33CC24
:10070300C58233C5829BED9AEC99E58298400CF53E
:1007130082EE9BFEED9AFDEC99FC0FD5F0D6E4CE6C
:10072300FBE4CDFAE4CCF9A88222B800C1B90059A0
:10073300BA002DEC8BF084CFCECDFCE5F0CBF9786D
:1007430018EF2FFFEE33FEED33FDEC33FCEB33FB01
:1007530010D703994004EB99FB0FD8E5E4F9FA228B
:100763007818EF2FFFEE33FEED33FDEC33FCC93386
:10077300C910D7059BE99A4007EC9BFCE99AF90F4E
:10078300D8E0E4C9FAE4CCFB2275F010EF2FFFEEBA
:1007930033FEED33FDCC33CCC833C810D7079BEC05
:1007A3009AE899400AED9BFDEC9AFCE899F80FD57D
:1007B300F0DAE4CDFBE4CCFAE4C8F922C3E49FFF0A
:1007C300E49EFEE49DFDE49CFC22EB9FF5F0EA9E93
:1007D30042F0E99D42F0EC6480C864809845F022C1
:1007E300EB9FF5F0EA9E42F0E99D42F0E89C45F06C
:1007F30022E8600FECC313FCED13FDEE13FEEF13C1
:10080300FFD8F122E8600FEFC333FFEE33FEED3381
:10081300FDEC33FCD8F122EB7006E9F802000B7112
:1008230089828A831410E706F59302000B7DF59302
:1008330002000B89BB0006E9F802000BC2BB800073
:10084300500C89828A838B9315930200086F22EBE5
:100853007006E9F802000B9989828A831410E7066F
:10086300F59302000BA6F59302000BB2ECF0A3ED97
:10087300F0A3EEF0A3EFF022A42582F582E5F03594
:1008830083F58322F8E0FBA3A3E0F925F0F0E582EA
:10089300158270021583E0FA38F022EBF0A3EAF038
:1008A300A3E9F022EB7006E9F802000BCE89828AF5
:1008B300831410E706F59302000BD7F59302000BA0
:1008C300E0D093D083D082F8E493701274019370D4
:1008D3000DA3A393F8740193F5828883E4737402E0
:1008E300936860EFA3A3A380DFD093D083D082E487
:1008F300937012740193700DA3A393F8740193F58D
:10090300828883E4737402936C70127403936D7022
:100913000C7404936E70067405936F60DDA3A3A338
:10092300A3A3A380CA8B938A838982159353937F4E
:10093300E473EF4E6022EF60010EEDBB0007F70991
:10094300DFFCA9F022BB8000500E89828A838B933F
:100953001593F0A3DFFCDEFA22EB700C87F009E6B7
:1009630008B5F019DFF6801589828A831410E70F22
:10097300F593E0F5F0A3E608B5F002DFF5806AF53C
:1009830093E493F5F0A3E608B5F05EDFF4805ACB69
:10099300701388828C838B9387F009E493A3B5F05B
:1009A30048DFF580441410E71F88848C858B958974
:1009B300828A83F593758620E0F5F0E493A3A3B5CB
:1009C300F024DFF4DEF2801E88848C858B95898287
:1009D3008A83F593758620E493F5F0E493A3A3B596
:1009E300F004DFF3DEF17586007FFFB5F0020F221E
:1009F30040027F01220200095C809488F0EF6001CD
:100A03000E4E60F0ED60EE1410E7EECB70128882AC
:100A13008C83F59387F009E0A3B5F0CDDFF680C9A9
:100A23001410E71E88848C858B9589828A83F593BD
:100A3300758620E0F5F0E0A3A3B5F0AADFF5DEF3B9
:100A430080A488848C858B9589828A83F5937586A7
:100A530020E493F5F0E0A3A3B5F08BDFF4DEF2809E
:100A630085EB7008E709F608DFFA801B89828A8321
:100A73001410E70AF593E0A3F608DFFA8009F5936B
:100A8300E493A3F608DFF9ECFAA9F0EDFB2288F072
:100A9300EF60010E4E60F088F0ED60C51410E7E7DB
:100AA300CB700E88828C838B93E709F0A3DFFA80E7
:100AB300D61410E71C88848C858B9589828A83F5EC
:100AC30093758620E0F0A3A3DFFADEF87586008035
:100AD300B688848C858B9589828A83F59375862065
:100AE300E493F0A3A3DFF9DEF77586008099EB703A
:100AF30008E709F60870FA801B89828A831410E7D5
:100B03000AF593E0A3F60870FA8009F593E493A33A
:100B1300F60870F9ECFAA9F0EDFB2288F0ED60CE4F
:100B23001410E7F0CB700E88828C83F593E709F0FD
:100B3300A370FA80DF1410E71A88848C858B95895B
:100B4300828A83F593758620E0F0A3A370FA7586F5
:100B53000080C188848C858B9589828A83F59375FF
:100B63008620E493F0A3A370F975860080A6E6FCC3
:100B730008E6FD08E6FE08E6FF22E0FCA3E0FDA38D
:100B8300E0FEA3E0FF22E493FC740193FD7402935F
:100B9300FE740393FF22E6FB08E6F908E6FA08E68B
:100BA300CBF822E0F8A3E0F9A3E0FAA3E0FB22E408
:100BB30093F8740193F9740293FA740393FB22EC90
:100BC300F608EDF608EEF608EFF622E6FB08E6FA7D
:100BD30008E6F922E0FBA3E0FAA3E0F922E493FBA1
:100BE300740193FA740293F922BB001CD093D0F0E2
:100BF300D0E0F8D0E0C9FBD0E0FAD0E0CBC8C0E049
:100C0300C0F0C09302000C40BB80005022D093D0B0
:100C1300F0D0E0F8D0E0C9F582D0E0CAF583D0E0A7
:100C2300CB14C8C0E0C0F0C09388930200089ED0E4
:100C330093D083D082D0E0D0E0D0E0E473EBF60829
:100C4300EAF608E9F622E51124FAF582E4341BF505
:100C530083759300E005112290001BF7300B04907D
:100C6300001BFAE475F00112000887020005242036
:100C730004E57F2ED2048018EF540F2490D434401F
:100C8300D4FF30080BEF24BFB41A0050032461FFD4
:100C9300E512600215120515E51570020514300BF7
:100CA3001190001BF7E475F00112000887EF0200B2
:100CB300055602001DC37403D20B8003E4C20BF577
:100CC3001190001BF71200089EE4F512F514F515B8
:100CD300E51260087F2012000C9380F47513FFC2A5
:100CE30005C204C206C207C209C20AC20C12000C22
:100CF3005BFF700E300B067F0012000CA4AF15AE25
:100D03001422B42563C2D5C20812000C5BFF24D0A1
:100D1300B40A00501A75F00A781230D50508B6FFE8
:100D23000106C6A426F620D5047002D20780D82473
:100D3300CFB41A00EF5004C2E5D20802000FE1D28B
:100D43000580C4D20480BED20680BAD2D580B8D280
:100D53000980B27F2012000C932006077401B5129C
:100D63000040F012000C49FF12000C9302000CD358
:100D7300D20CD20A808F12000C49FB12000C49FAE4
:100D830012000C49F94A4B700679EE7A107B8120E8
:100D9300063DE51260397E00E9C0E02EF9EAC0E0C5
:100DA3003400FA12000524F9D0E0FAD0E0C9600655
:100DB3000EEE651370E2C2D5EBC0E0EAC0E0E9C015
:100DC300E0EE12001049D0E0F9D0E0FAD0E0FB12D7
:100DD300000524FF6096EBC0E0EAC0E0E9C0E01242
:100DE300000C93D0E02401F9D0E03400FAD0E0FB0A
:100DF300E5130460DAD513D702000D6FD206808F96
:100E03001200102560F6E51370010412000156A9C3
:100E130013600EE513600A14F513120010D8EF6087
:100E2300F2EA30E702F404C399400402000EB8EA80
:100E3300F425130430E701E404F513800F120010C6
:100E43002560B9EA0513251312000156EA90001C28
:100E530026F030E701E4251304D513042009011417
:100E630012001049E4C0E0120010D890001C26E0E4
:100E7300601420E70814F012000C7B802604F0D0E5
:100E8300E014C0E07F0012000C7BE5136008120041
:100E93000C721513800D30090412000C72D0E0029D
:100EA300000CD3D0E00480BD120010256093E5133D
:100EB300041200015690001C26EAF0E513200902F3
:100EC30060010424041200104974FF04C0E01200FE
:100ED30010D812000C7BE513200902600412000CE9
:100EE30072D0E0B513E57F4512000C8590001C26F7
:100EF300E07F2B30E7047F2DF404C0E012000C9355
:100F0300D0E075F00A84C0F012000C7CD0E012002F
:100F13000C7C02000CD3791080027908C20AC20C3F
:100F23008008D2D5790A8004790AC2D5E513047002
:100F330002F513E4FAFDFEFF12000C49FC7B0820C6
:100F4300051612000C49FD7B1030040C12000C49ED
:100F5300FE12000C49FF7B20EC3382D592D550134F
:100F6300C3E43004069FFFE49EFEE42005039DFDD9
:100F7300E49CFCE4CBF8C205EC700CCFCECDCCE8FE
:100F830024F8F870F38017C3EF33FFEE33FEED332D
:100F9300FDEC33FCEB33FB994002FB0FD8E9EB305C
:100FA3000505F8D0E0C448B205C0E00AEC4D4E4F49
:100FB30078207B0070C2EAB5130040BCC0E0120089
:100FC300104BD0F0D0E0200504C4C0E0C4B205C08B
:100FD300F012000C7CD0F0D5F0EA02000CD3120022
:100FE30008C40D79530F19580D464C0D42420F1D7D
:100FF3004F0F25440F25490D5C430F2B550E4046DB
:101003000EAB450E0347110B500D4A2D0D4E2E0D01
:10101300752B0D52230D732010F72A0D084800007D
:101023000D6BE513B4FF0375130612000C49FC1294
:10103300000C49FD12000C49FE12000C49FF900000
:101043001C1F02000193790AA2D520071430090955
:10105300B910020404B9080104A2D5200A02500100
:101063000420066D9206B512005036C0E07F203092
:10107300071A7F30A206720A72095010120010A4D8
:10108300C206C20AC209C20C7F308010300903E9CC
:10109300C0E012000C93300903D0E0F9D0E0B512A0
:1010A300CA3009197F30B9100D12000C937F5830E4
:1010B30008077F788003B9080412000C93300606F2
:1010C3007F2D02000C937F20200CF77F2B200AF248
:1010D30022920680CC7F00B40700500E241FF582B5
:1010E300E4341CF583759300E0FF22286E756C6C65
:1010F3002900D20512000C493005F7C205781230D9
:10110300D50108F602000D0812000C497F4960085A
:101113007F4310E7027F5814C0E0EF12000C847481
:101123003A12000C84D0E0600DC0E0C412000C7CC5
:10113300D0E012000C7CD20775120402000F1920B4
:1011430020202020202020202020202020202000BC
:1011530000000000000000000000004F000000003D
:10116300000007000700000000147F147F14000034
:1011730000242A7F2A12000000231308646200005F
:10118300003649552250000000000503000000000E
:1011930000001C2241000000000041221C0000004E
:1011A3000014083E081400000008083E0808000068
:1011B300000050300000000000080808080000008C
:1011C300000060600000000000201008040200001E
:1011D300003E5149453E0000000000427F400000B0
:1011E3000042615149460000002141454B31000056
:1011F300001814127F1000000027454545390000F0
:10120300003C4A4949300000000101790503000010
:10121300003649494936000000064949291E0000A5
:1012230000003636000000000000563600000000C3
:1012330000081422410000000014141414140000C8
:1012430000004122140800000002015109060000B9
:1012530000324979413E0000007E1111117E0000E9
:1012630000417F4949360000003E414141220000D0
:1012730000417E4141223C00007E4949494900002A
:10128300007F090909010000003E4141497A00003D
:10129300007F0808087F00000000417F4100000034
:1012A300002040413F010000007F0814224100005C
:1012B300007F404040400000007F020C027F00009E
:1012C300007F0608307F0000003E4141413E0000A0
:1012D300007F090909060000003E4151215E00001C
:1012E300007F0919294600000026494949320000B8
:1012F3000001017F01010000003F4040403F00002A
:10130300001F2040201F0000007F2018207F0000C6
:101313000063140814630000000708700807000046
:10132300006151494543000000007F414100000036
:101333000002040810200000000041417F0000006B
:10134300000402010204000000404000404000008D
:1013530000010204000000000020545454780000EF
:10136300007F4844443800000038444444280000C7
:1013730000384444487F0000003854545418000097
:101383000000087E09020000000C52524C3E00008F
:10139300007F0804047800000000447D4000000042
:1013A300002040443D00000000007F10284400005E
:1013B3000000417F40000000007C047804780000B6
:1013C300007C0804047800000038444444380000DA
:1013D300007E0C12120C0000000C12120C7E000096
:1013E300007C0804040800000058545454640000AE
:1013F30000043F4440200000003C40403C400000CB
:10140300001C2040201C0000003C4030403C0000F9
:101413000044281028440000001CA0A0907C000079
:10142300004464544C4400000000083641000000AE
:1014330000000077000000000000413608000000B3
:10144300000201020402000000FFFFFFFFFF000093
:10145300605A0DF50001811702000281170B00038A
:101463008117160004811721000581172C000681BE
:1014730017330007811738000881174000098117C7
:1014830047000A811752000C811759000D8117601C
:10149300005A811769005C811772005B81177B001A
:1014A300B1811784005F81178D00FE81179A620056
:1014B30016B70000102120423063408450A560C657
:1014C30070E781089129A14AB16BC18CD1ADE1CEFE
:1014D300F1EF123102103273225252B5429472F775
:1014E30062D693398318B37BA35AD3BDC39CF3FF4E
:1014F300E3DE246234430420140164E674C744A485
:101503005485A56AB54B85289509E5EEF5CFC5AC9D
:10151300D58D365326721611063076D766F6569554
:1015230046B4B75BA77A97198738F7DFE7FED79DED
:10153300C7BC48C458E5688678A7084018612802E4
:101543003823C9CCD9EDE98EF9AF89489969A90A3D
:10155300B92B5AF54AD47AB76A961A710A503A33B4
:101563002A12DBFDCBDCFBBFEB9E9B798B58BB3B8D
:10157300AB1A6CA67C874CE45CC52C223C030C6044
:101583001C41EDAEFD8FCDECDDCDAD2ABD0B8D68DD
:101593009D497E976EB65ED54EF43E132E321E5194
:1015A3000E70FF9FEFBEDFDDCFFCBF1BAF3A9F592D
:1015B3008F78918881A9B1CAA1EBD10CC12DF14ECD
:1015C300E16F108000A130C220E350044025704633
:1015D300606783B99398A3FBB3DAC33DD31CE37F5E
:1015E300F35E02B1129022F332D242355214627783
:1015F3007256B5EAA5CB95A88589F56EE54FD52C2E
:10160300C50D34E224C314A00481746664475424D2
:101613004405A7DBB7FA879997B8E75FF77EC71D3D
:10162300D73C26D336F2069116B066577676461522
:101633005634D94CC96DF90EE92F99C889E9B98A8D
:10164300A9AB584448657806682718C008E1388272
:1016530028A3CB7DDB5CEB3FFB1E8BF99BD8ABBB9D
:10166300BB9A4A755A546A377A160AF11AD02AB3C2
:101673003A92FD2EED0FDD6CCD4DBDAAAD8B9DE8ED
:101683008DC97C266C075C644C453CA22C831CE012
:101693000CC1EF1FFF3ECF5DDF7CAF9BBFBA8FD97D
:1016A3009FF86E177E364E555E742E933EB20ED162
:1016B3001EF04818B73230303530313331C10D4464
:1016C3001D907C2F2D5C461CF781CB4B81CB99461B
:1016D3001CFD81CF8481CFBE411D4F014C0006000C
:1016E30000000000000000000000004600000000B1
:1016F300000000004200120000420C14000000D65B
:10170300D0CDBEB0CEBFA800B2BBBFC9CAB6B1F080
:10171300BFA800BFA8C7AEB0FCB4EDCEF300CEB4F3
:10172300C9CFB4ABC1F7CBAE00C7EBB2C9BCAF00F6
:10173300BADABFA800BFA8D2D1B9C6DA00CEDEC8D4
:10174300A8CFDE00BFA8D3E0B6EEB2BBD7E300BF9D
:10175300A8D2D1CBF800C3E2B7D1BFA800BCC7C29F
:10176300BCD2D1C2FA00D6D8B8B4CBA2BFA800C9A4
:10177300E8D6C3B4EDCEF300CAB1D6D3B4EDCEF3FD
:1017830000D3B2BCFEB9CAD5CF00B2BBD6A7B3D67D
:10179300BFA8C0E0D0CD0000B4E6B4A2C8DDC1BF8D
:1017A30000CEEFC0ED4944CEB4C9E8D6C300B1B80A
:1017B300B2CE00D6F7B2CEB4EDCEF300BBD6B8B4FA
:1017C300D6F70057522053455249414C005244200A
:1017D30053455249414C005B25645DB4EDCEF3C2E1
:1017E300EBA3BA25642000252E30326600726561B2
:1017F3006465720045502031004550442031006B30
:101803006579004550203200455044203200455050
:101813002033004550442033004550203400312EFE
:1018230020BAECCDE2CDA8D1B6202000322E20B4D0
:10183300AEBFDACDA8D1B620200020202020202062
:101843002020202020202000C9E8B1B8CEEFC0ED31
:101853004944002530325825303258253032582536
:1018630030325800CFB5CDB3CAB1BCE400B5B1CC6A
:10187300ECD3AAD2B5B6EE00252E30326620D4AA18
:1018830000C7B0D2BBCCECD3AAD2B5B6EE00BBF93D
:10189300B4A1B7D1C2CA00B2C9BCAFCAB1BCE4BC1F
:1018A300E4B8F400256420CCEC00C1ACD0F8CBA2A2
:1018B300BFA800256420C3EB00B5B1C7B0C1F7CB07
:1018C300AEBAC500256C7500CEB4B2C9BCAFBCC7F7
:1018D300C2BC00257520CCF500B3CCD0F2B0E6B184
:1018E300BE00257300303931313237494D00CEB453
:1018F300B2C9BCAFCCECCA00257520CCEC00BADA77
:10190300C3FBB5A5B0E6B1BEBAC5004275696C6448
:10191300004E6F7620333020323030390031303A88
:1019230031313A353200312E20CBA2BFA8CAD5B708
:10193300D1202000322E20B2E9D1AF202020202058
:101943002000332E20CDA8D1B62020202020200037
:10195300001F1C1F1E1F1E1F1F1E1F1E1F8118215D
:1019630081BDB681182F81C18081183D000000819F
:10197300183D000000010DB7000000811929819670
:1019830025811937813E5A81194581D09A75C7AA95
:1019930075C755759D0275C7AA75C75575C6007875
:1019A3007FE4F6D8FD758173020019D90200BBDD0F
:1019B300E493A3F85407240CC8C333C4540F44203E
:1019C300C8834004F456800146F6DFE4800C01022C
:1019D30004081020408090001453E47E019360CCEF
:1019E300A3FF543F30E509541FFEE493A360010EA7
:1019F300CF54E0B4E026E493FBA3E493FAA3E49387
:101A0300F9A3E493C083C08212000556D082D08329
:101A1300A309E970010ADFEADEE880BE54C025E0CD
:101A2300602B408CE493A3FAE493A3F8E493A3C854
:101A3300C582C8CAC583CA759300F0759300A3C84D
:101A4300C582C8CAC583CADFE3DEE1808DE493A300
:101A5300F8E493A34003F68001F208DFF4020019CF
:101A6300DDBD0020EF7F08C2A63392A500D2A6DF1A
:101A7300F6C2A67F64D2A5A2A55002DFFAD2A600C1
:101A830000C2A622BD0120EF7F08C2A73392A500A2
:101A9300D2A7DFF6C2A77F64D2A5A2A55002DFFAC0
:101AA300D2A70000C2A722BD0220EF7F08C296334F
:101AB30092A500D296DFF6C2967F64D2A5A2A55066
:101AC30002DFFAD2960000C29622EF7F08C2973354
:101AD30092A500D297DFF6C2977F64D2A5A2A55044
:101AE30002DFFAD2970000C29722776169747469A2
:101AF3006E672E2E2E0070726F636573732E2E2EFB
:101B030000C9E8D6C3CEEFC0ED4944B3C9B9A600B6
:101B1300D0A3D7BCCAB1D6D3B3ACCAB100D0A3D774
:101B2300BCCAB1D6D3B3C9B9A600636C65617220D0
:101B3300626C61636B2025630070726F63657373FE
:101B4300206F6B00696E697420696E6672617265DD
:101B5300642E2E2E00B4F2BFAABAECCDE2CAA7B00F
:101B6300DC00B4F2BFAAB4AEBFDACAA7B0DC00D2BD
:101B7300A4C2A400C2A2C2A3BD0004D2A2C2A312E3
:101B8300001B8722BF0012D2A100D2A4008B8000C9
:101B9300C2A4C2A112001BAE22D2A000D2A4008B09
:101BA3008000C2A4C2A012001BAE22D2A4C2A4C24F
:101BB300A200D2A37580FF7400BF0014D2A100D28B
:101BC300A400E58000C2A400D2A4C2A120E7ED22B4
:101BD300D2A000D2A40000E58000C2A400D2A4C217
:101BE300A020E7EC22BF00177D09D2A5D2A60000F2
:101BF300C2A60000D2A60020A502DDF4C2A522BF22
:101C030001177D09D2A5D2A70000C2A70000D2A761
:101C13000020A502DDF4C2A522BF02177D09D2A5CB
:101C2300D2960000C2960000D2960020A502DDF4F1
:101C3300C2A5227D09D2A5D2970000C2970000D287
:101C4300970020A502DDF4C2A522BF00127D08D2B1
:101C5300A5C2A600A2A533D2A6DDF6C2A6FF22BF67
:101C630001127D08D2A5C2A700A2A533D2A7DDF633
:101C7300C2A7FF22BF02127D08D2A5C29600A2A569
:101C830033D296DDF6C296FF227D08D2A5C2970015
:101C9300A2A533D297DDF6C297FF2290001BF1E095
:101CA300FFA3E0FEA3E0CF90001BFAF0A3EEF0A3A6
:101CB300EFF090001BF4E0CBF0A3E0CAF0A3E0C97F
:101CC300F07F2290001BFDAD82AC83120005248DB2
:101CD300828C83F0A309E970010ADFEB90001BF407
:101CE300E0FBA3E0FAA3E0F902000CB9BF000E1277
:101CF300001C4DC2A500D2A60000C2A622BF010E41
:101D030012001C4DC2A500D2A70000C2A722BF0229
:101D13000E12001C4DC2A500D2960000C2962212DC
:101D2300001C4DC2A500D2970000C29722BADABFA9
:101D3300A800C3E2B7D1BFA800BFDBBFEE20257365
:101D430020D4AA00D3E0B6EE20257320D4AA00C184
:101D5300F7CBAEBAC55B256C645D00C7EBD6D8CBB9
:101D6300A200BF000AC2A500D2A600D2A50022BFCE
:101D7300010AC2A500D2A700D2A50022BF020AC24F
:101D8300A500D29600D2A50022C2A500D29700D208
:101D9300A50022BF0009D2A500D2A600C2A522BF7A
:101DA3000109D2A500D2A700C2A522BF0209D2A56C
:101DB30000D29600C2A522D2A500D29700C2A522C6
:101DC300EFB40A08740D12001DCF740A309811A8DD
:101DD30099B8130CC2983098FDA899C298B811F617
:101DE3003099FDC299F59922527463546D5F56453B
:101DF300525F312E3031001F1D1F1E1F1E1F1F1E5D
:101E03001F1E1F1F1C1F1E1F1E1F1F1E1F1E1F20E6
:101E1300000D0A0030313233343536373839414218
:101E23004344454600E4FFFE12000524600C0FEF17
:101E330070010E09E970F10A80EE22253032640048
:101E4300253032580075C7AA75C75553D8FD22757A
:101E5300C7AA75C75543D801227E54DEFEDFFA2296
:101E630081CFF881D4C281AC12818C9181667B00D1
:101E7300000081C69481D4B681B04181D49D817123
:101E8300990000000605030102030405060708097B
:101E930090001B2BEB12003BBD90001B29EEF0A31F
:101EA300EFF012003A617422F012003ACF240812C4
:101EB300003A687442F012003ACF241212003A68D2
:101EC30012003B8312003ACF241112003A68E4F067
:101ED30012003ACF240F12003A68E4F0A37405F01D
:101EE30012003ACF240D12003A68E4F0A37420F0F4
:101EF3007B817A1A79ED7D0AE4FF01324812003AB8
:101F0300A312003DFA240F12003A68E4F0A3740A06
:101F1300F012003ACF241112003A68E4F090001B4B
:101F23002B12003AE0240C12003DE112003C36EF84
:101F3300700D7D037F051200CD0750C17FA02212D3
:101F4300003AA312003DFA240B12003A68E4F0A30E
:101F53007420F0C203C201E412003C07F012003AFD
:101F6300CF12003A66E0FF2403F8E690001B2EF040
:101F7300EF240412003C647B817A1A79F91200334E
:101F83002D90001B2EE0120008C42D79552E7D568E
:101F930023CFA12BB1B125DBB22FB2B3276FB4305E
:101FA300F5B52D12B62F1CB72083C2219BC321394F
:101FB300C41FBBC5000031AA12003C4CFB8A83122C
:101FC300003A63E0240412003C6430E05AE4FF90DA
:101FD300001BDD12003C7A240812003A68E09000EE
:101FE3001BDE12003B1E120032ED60030131321280
:101FF300003AA312003B5912003A68E012003ACAB1
:1020030012003A66E07F0412003B0C90001B3DE097
:102013002404F090001B3C12003A9F12003B5A121A
:10202300003A6812003B2790001B30E020E10301D7
:1020330025D612003AA312003B5A12003A68120046
:102043003C8A12004221EF640160030122F1120075
:102053003AA312003B5912003A68E012003ACA123E
:10206300003A66E02406FF12003E012F7F071200AC
:102073003C5590001B3DE0240712003E080125D685
:1020830012003A59E0FF2404F8E6B49909EF240555
:10209300F8E6640860030130FB12003A5912003B72
:1020A300C5781E7C0C7D017F0412003D30EF600378
:1020B3000130FB12003AA3FF12003A61E0240A1236
:1020C300003ACA240812003A687F0412003B4D12FA
:1020D300003AA312003B5A12003A6812003E12C0A3
:1020E30003C00112003D1312003B20D001D0037D39
:1020F300047C001200CC7CE4FF12003CDE74081266
:10210300003AB8240812003A6812003B1912004939
:102113004212003D666401600301313212003AA3AA
:1021230012003B5A12003A6812003B277B817A1B4C
:1021330079047D01804F12003AA3FF12003A61E057
:10214300240312003ACA240812003A6812003B4BD7
:1021530012003AA3120032C140147B817A1B791317
:102163001200332D90001B2F74A1F00131AD12002A
:102173003A5912003BC5120056E0EF60117B817A99
:102183001B79207D037F011200C0780131A49000E8
:102193001B2F74FFF00131AD12003AA3120032C1BC
:1021A3004003012D8390001B30E0FF64016008EFC2
:1021B300640260030130FB12003A5912003C606074
:1021C30008E0640160030130FBEF240612003C01C8
:1021D300EFF0640E6003012BD0E47F40FEFDFC9022
:1021E300001BDD741812003AB8240812003A681272
:1021F300003E1912003B1F120032ED64016003011F
:10220300313290001B2F7401F0D20212003AA31254
:10221300003B5A12003A68E0FF2416F8E664557052
:102223004EEF2417F8E664AA704590001B29A3E03B
:10223300FF12003A61E0240C12003ACA240812008B
:102243003A68E024067F0812003C11EF7002C202D4
:1022530012003AA3FF12003A6112003AC72408128F
:10226300003A6812003C0E12003E204002C20220D7
:10227300020301231F12003AA3FF12003A61E02474
:102283000712003ACA240812003A68E07F0E1200CF
:102293003C5512003AA312003B5A12003A68E0FF81
:1022A30012003BC6EF240EF87C007D007E007F0801
:1022B30012000A9112003AA312003B5912003A6825
:1022C300E02416F8765512003ACF240812003A6833
:1022D300E02417F876AA7F4012003CDD7418120040
:1022E3003AB8240812003A68120032766007900068
:1022F3001B2F01313212003AA312003B5A12003A4B
:102303006812003BC590001B437401F0A3740CF0EA
:10231300A37416F01200CE1012003CEE12003D8B97
:1023230060030123C47F1090001BDD12003AB32425
:102333000812003A6812003E1912003B1F120032C5
:10234300D3600790001B2F01313212003AA3120011
:102353003B5A12003A6812003E127F0612003B0CF1
:102363007E007F077D0012003AB9240812003A6804
:10237300E012003D931200093512003AA312003B0C
:102383005A12003A681200328B8C8312003A63129D
:1023930000324F240812003A681200327660079028
:1023A300001B2F01313212003AAC240812003A68A4
:1023B30012003B19120032CB600790001B2F013132
:1023C30032E412003C07F0D2010131ADC202120027
:1023D3003C3EFD8C83759300241212003A68120070
:1023E3003B8312003C91241412003A687404F0A356
:1023F300E4F012003C9112003A66E0240412003C1F
:1024030001EFF090001B29703112003A5D12003D7C
:102413006DFDE412003C07EDF0D202EF12003D75B2
:102423001200D13312003B8C90001B3DE02400FFCF
:1024330090001B3CE03401FE801912003A5D12004B
:102443003BC51200D13312003B8C90001B3CE0FED5
:10245300A3E0FF12003C3E8C83759300241412000A
:102463003A68EEF0A3EFF0E4FFFE7D08FC90001B5A
:102473003112003B4012003CC4502C12003AA3120C
:10248300003CF512003A68E0FEA3E0FF12003D9B1A
:10249300E0F8A3A3A3E012003CB8E4FBFA7908F840
:1024A300D3120007E350030130FB90001B31A3A3B9
:1024B300A3E0540FFFE4FEFDFCFBFAF9F8C312009E
:1024C30007E36003012BD012003AA312003CF5127C
:1024D300003A68E0FAA3E0FBD39438EA9400503B57
:1024E30012003AFCEB12003C478A8312003A63E085
:1024F3002406F990001BDE12003B1F120032D3604A
:102503000790001B2F013132C20312003AA31200BD
:102513003CFD12003A68E4F00125BF12003AA31211
:10252300003CFD12003A687401F0D203E490001BF2
:102533003AF0A3F012003AA312003CF512003A68F5
:1025430012003CCA5076C3EF9DFFEE12003E2740B7
:10255300047F40800090001B39EFF012003B05120E
:10256300003D9B12003B4012003CB890001B39E039
:1025730090001BDD12003AB8241212003A68E0FA08
:10258300A3E0FB90001B3AE0F8A3E0F582EB258281
:10259300FBEA38FAA90312003BB7120033066009BD
:1025A30090001B2F74B1F0801390001B39E0FF9053
:1025B300001B3BE02F12003E3101253712003AA3E6
:1025C30012003CF512003A68E0FFA3E0CF12003D91
:1025D30052EFF0D2010131A412003AA3120032DB10
:1025E3004003012D83E47F60FEFDFC90001BDD743E
:1025F3002012003AB8240812003A6812003E191259
:10260300003B1F12003306600790001B2F0131327D
:1026130090001B30E0702012003AA3FF12003A61D1
:1026230012003AC7240812003A6812003C0E120046
:102633003E2040030127CF12003A591200330E12F5
:10264300003B8C7FA07E867D017C0090001B3112B5
:10265300003B40FBD3120007E34003012BD01200E1
:102663003A59E0F9240FF8E6D394604003012BD0E4
:10267300E912003D931200D3B890001B3AEEF0A389
:10268300EFF0E4FCFD7B407A7E7905F8C312000786
:10269300CD401090001B3BE0943C90001B3AE0942B
:1026A300005003012BD07E007F207DFF12003AB93A
:1026B300240812003A6812003C8A120009351200FD
:1026C3003AA3FF12003A6112003AC7240812003AF3
:1026D3006812003B4B12003AA312003B5A12003A15
:1026E3006812003C8A7D1E7C00120032AB8C83751D
:1026F3009300240812003A68E0241EF97A007B0054
:102703001200D26F7F6012003CDD742012003AB8D1
:10271300240812003A6812003B19120032CB6007FA
:1027230090001B2F01313212003A59E02406783011
:102733007C0C7F0612003B2E12003A591200330E16
:1027430090000C361200086F12003A59E0FF240F74
:10275300F8E690000C3CF0EF12003D931200D3B862
:1027630090000C3AEEF0A3EFF00131A412003AA36B
:10277300120032DB401112003AA312003CFD12009A
:102783003A68E4F0012FC112003C4CFB8A83759335
:1027930000241112003A68E4F07F807E0D7D03125D
:1027A300003B8B12003DA3602D90000C49E0602696
:1027B30012003C8012003A6612003D74784A7C0C89
:1027C3007D0112003D2E12003E20400A90001B2F77
:1027D3007401F00131AD12003E3BF012003A591280
:1027E300003C606401600301289F12003C3EFDEF42
:1027F30012003BC612003C91241212003A681200E8
:102803003A7312003BD812003A6812003D36C08377
:10281300C08212003B9412003E45D082D083120046
:102823003BF37455F012003ACF241212003A6812A7
:10283300003D3FC083C08212003B9412003E4CD047
:1028430082D083E58212003BE774AA12003AA2FF0A
:1028530012003A61E0240C12003ACA241212003A20
:102863006812003AE87E0012003B62242012003A0C
:102873009A12003BD912003A6812003AE8A807FC02
:102883007D017B017A0C79707E017F0012003B6928
:10289300240012003E533401F0012A4590001B30FE
:1028A300E06402600301298D12003AA3FF12003A8B
:1028B30061E0240712003ACA241212003A68120097
:1028C3003A7312003BD812003A6812003D36C083B7
:1028D300C08212003B9412003E45D082D083120086
:1028E3003BF37455F012003ACF241212003A6812E7
:1028F300003D3FC083C08212003B9412003E4CD087
:1029030082D083E58212003BE774AA12003AA21236
:10291300003BD912003A6812003AE8A807FC7D018F
:102923007B017A0C79507E0012003B672420120051
:102933003A9AFF12003A61E0240D12003ACA2412B7
:1029430012003A6812003AE8A807FC7D017E007F76
:102953003312003B69243312003A9A12003BD91216
:10296300003A68E0FEA3E0FFAA06F97B0112003AF1
:10297300EDA807FC7D017E007FCD12003B6924CDCD
:1029830012003E533400F0012A4590001B30E064EE
:10299300036003012A4212003AA312003BD812003B
:1029A3003A68E0FCA3E0240412003DAB12003ACFE6
:1029B300241212003A6812003A7312003BD8120034
:1029C3003A6812003D36C083C08212003B94120065
:1029D3003E45D082D08312003BF37455F012003A87
:1029E300CF241212003A6812003D3FC083C0821206
:1029F300003B9412003E4CD082D083E58212003B10
:102A0300E774AA12003AA212003BD812003A68E017
:102A1300FCA3E0240A12003DAB12003ACF241212A9
:102A2300003A6812003AE87E0112003B6224201249
:102A3300003E533401F090000C497401F08003010F
:102A430030FB90001B3C7401F0A3742812003AA2DF
:102A530012003BD912003A68E0FEA3E02400FFEE27
:102A63003402FAA9077B017D287C01120032AB8C6A
:102A730083759300241212003A68E0FCA3E024005B
:102A8300FDEC3402FC90001B3DE02DFD90001B3C4F
:102A9300E012003DAD1200D26F90001B3DE0240216
:102AA30012003E08E490001B3AF0A3F090001B3C98
:102AB30012003CCA507FC390001B3DE09DFF900075
:102AC3001B3CE012003E2740047F40800090001B27
:102AD30039EFF012003B0512003D9B12003B401200
:102AE300003CB890001B39E090001BDD12003AB89F
:102AF300241212003A68E0FAA3E02400FBEA34024D
:102B0300FA90001B3AE0F8A3E02BFBE83AFAA9039A
:102B130090001BDE12003BBB120032E560099000FF
:102B23001B2F74B1F0800E90001B3BE02440120079
:102B33003E31012AAF12003E3B12003AA212003B83
:102B4300D912003A6812003AE8784A7C0C12003D28
:102B53001C7E007F0612003B69240812003A9A1279
:102B6300003BD912003A6812003AE878507C0C1204
:102B7300003D1C7E0012003B67242012003A9A128B
:102B8300003BD912003A6812003AE8FAA9077B0120
:102B930078707C0C7D017E017F0012000A91E412A3
:102BA300003C07F090001B2FF0C2010131AD9000F3
:102BB3001B30E0B4550C12003A5912003D6D64AA63
:102BC30060028009EF2406F8E66406600A90001BA1
:102BD3002F74A4F00131AD7E007F027D0012003A14
:102BE300B9240812003A6812003C8A12000935120F
:102BF300003D4812003AB9240812003A6812003C1A
:102C03008A1200CD8C12003AA312003B5A12003AEA
:102C13006812003E12C003C001240312003D1512C6
:102C2300003B20D001D003120032F812003AB9243D
:102C33000812003A6812003BC51200CD8C12003A0C
:102C4300A312003B5A12003A68E0FF12003BC6C0D1
:102C530003C001EF240912003D1512003B20D001EF
:102C6300D003120032F812003AB9240812003A686D
:102C7300E0240CF97A007B001200CAFD12003AA38B
:102C830012003B5912003A68E02417F876FF12004D
:102C93003ACF240812003A681200328B8C83759362
:102CA30000240812003A681200324F240812003A36
:102CB3006812003B19120032E5600790001B2F01D8
:102CC300313212003AAC240812003A6812003B1960
:102CD3001200331B600790001B2F01313290000C50
:102CE3002712003C9B12003D4890000C2312000861
:102CF3006F90000C4112003C9B90000C2274FFF07B
:102D0300E4FFFEFDFC90000C2B1200086F806012A4
:102D1300003C4CFB8A8312003A63E0F9240512005D
:102D23003C01EFF0D39410EE940040030130FB120A
:102D3300003E01240629F8E4F67FD090001BDD1243
:102D4300003C7A12003A66E0240612003B1A120095
:102D5300331B600790001B2F01313212003A5912C6
:102D6300003BC578B77C0D7D017F1012003D7D12BD
:102D7300003CEE0130EB12003AA312003323400370
:102D8300012FC1E4FFFEFD12003B8B90001B30E0DE
:102D930070381200B940EF4E700A90001B2F745D1B
:102DA300F00131ADE4FFFEFDFC90000C2712003B67
:102DB3004012003CC470097FC07E0E7D03FC80344A
:102DC30090000C2712003B00802A12003D8B702AD2
:102DD30012003A5912003D6D640460030130FBEFA9
:102DE30012003BC61200333690001B3512003B0025
:102DF30012009C3E12003B8C80030130FB90001BB1
:102E03003112003B3B12003CC4601512003D489058
:102E1300001B31E0F8A3A3A3E0C3120007E35003B0
:102E23000130FB12003AFC90001BDD744012003AA3
:102E3300B8241212003A6812003BB2120033436006
:102E43000790001B2F01313212003AA3FF12003CFE
:102E5300FD12003A687401F012003ACF24141200F4
:102E63003A68E4F0A37440F012003D517440F0124C
:102E7300003CEED201D2030131AD12003D8B600361
:102E83000130FB12003A5912003D6D6404600301E6
:102E930030FBEF12003BC61200333690000C2712B2
:102EA300003B0090001BDD744012003AB82412125C
:102EB300003A6812003BB212003343600790001BD4
:102EC3002F01313212003AA312003BD912003A68A3
:102ED300E0FEA3E02405FFE43EFAA9077B0112000C
:102EE300CED112003B8C90001B3512003B009000AA
:102EF3001B3112003B4012003CC4600A90001B2FA0
:102F0300745EF00131AD1200816E12003D66600304
:102F13000131ADD201E40130EB12003AA3120033C8
:102F2300234003012FC11200D41212003AA312004E
:102F33003B5A12003A6812003C8A120042211200E6
:102F43003AA312003B5A12003A68E0FF12003DF325
:102F5300C003C001EF12003D1312003B20D001D08B
:102F6300037D037C001200CC7CE47F8012003CDEF6
:102F7300740612003AB8240812003A68E0041200FA
:102F83003B1A12004942EF6401600790001B2F01B6
:102F93003132E490000C3DF090001B2FF0C201127F
:102FA300003C07F07D647F0B12009D630131AD127D
:102FB300003AA3AA06F97B011200AA56400A900020
:102FC3001B2F74A5F00131AD12003DA36003013046
:102FD30073FE7F20FD7B017A0E798712000935E4A9
:102FE3007F207E01FD01306C7F3F7E0D7D037C00E1
:102FF30090001B3112003B4012003CC440030131DE
:10300300AD12003AFC90001BDD742012003B7D12D0
:10301300004942EF6401600790001B2F0131327BAE
:10302300817A1B792D12003AFC7805120007F4EF20
:103033005403FFE4FE74902FF582EE341DF583757F
:103043009300E090001B86F0E4FD7F011200C0783E
:1030530090001B31E0FCA3E0FDA3E0FEA3E02420ED
:10306300FFE43EFEE43DFDE43C12003B8B012FEB0D
:1030730090001B30E0707912003A59E012003C6274
:10308300D3940A40028071E490001B39F012003D92
:10309300B4FEC39F502C12003C3E8C8312003A6353
:1030A300E0240DFFEE25E025E02FF97A007B0012E6
:1030B3000099EE12003D66700990001B39E004F0A0
:1030C30080CB12003DB4C39F50030131AD12003ACF
:1030D3005912003D741200BF6712003D6660030180
:1030E30031AD12003CEEC20112003C07F00131ADDC
:1030F300800612003DA3600A90001B2F745CF00150
:1031030031AD7F607E0D7D037C00740A12003C4765
:103113008A8312003A63E02406F990001BDE120052
:103123003B1F12005C77EF6401600990001B2F7452
:10313300B1F0807612003A59E0FF240DF8E6B45559
:1031430009EF240EF8E664AA6002803612003A59A9
:1031530012003BC57D067C001200CD4A12003C3EA6
:103163008C8312003A63E0FE240CF8E66F601F9034
:10317300000002EE12003BC67D00AE83AF82120058
:10318300093512003A59E0240CF876AA800A120095
:103193003A59E0240CF876FFD20112003D5174072E
:1031A300F012003CEE80037FA32290001B2EE0FF71
:1031B30012003C3EFD8C8312003A63E02403F8A620
:1031C3000790001B2FE0FF12003C9112003A66E0CB
:1031D3002404F8A60720033112003A5912003C8A4E
:1031E30012003E01FDA2019204120098AF90001B51
:1031F30039EFF0FD12003AA312003DFA2409120040
:103203003A68E4F0A3F0FC802012003AA3AA06F97E
:103213007B0112003D24A201920412008F5F501B18
:1032230012003AA3FF12003D2490001B2B12003A18
:10323300E0240612003DE112003C367B817A1B79C3
:103243003CE4FD7F011200C078011F00E02418F95F
:103253007A007B001200D26FE47F10FEFDFC900029
:103263001BDD741AF090001B29E0FAA3E08A837532
:10327300930022E0F990001BDEE4F0A3F0A3E9F051
:1032830012004942EF640122E0F97A007B007D18C5
:103293007C001200C62A90001B3AEEF0A3EFF090D8
:1032A300001B29E0FCA3E0221200C62A90001B3A6F
:1032B300EEF0A3EFF090001B29E0FCA3E022AA06A6
:1032C300F97B011200AA562212004942EF6401223F
:1032D30012005C77EF640122AA06F97B011200AAAF
:1032E300562212004942EF64012212005C779000DB
:1032F3001B2FEFF0227D037C001200CC7CE4FFFE49
:10330300FDFC2212005C77EF640122E0240CF97AC1
:10331300007B001200D1332212004942EF640122E4
:10332300AA06F97B011200AA56227D037F0112002F
:10333300C078221200CED190001B351200086F22F4
:1033430012005C77EF64012290001BFDEFF0A3ED08
:10335300F0A3EBF0A3EAF0A3E9F0E490001C03F080
:10336300A3F090001C06F090001C0DF0A3F0A3F056
:10337300A304F0A3F0E4A3F0A3F0A3F0A3F0A3F05D
:10338300F514F513F512F5111200D38290001BFF0B
:10339300E0FBA3E0FAA3E0F912001E2890001C054D
:1033A300EFF090001C02E0600990001C1774FFF01E
:1033B3008006E490001C17F090001BFDE025E090D0
:1033C300001C04F0A3E0F9FD90001BFEE0FE2DFDC0
:1033D300E433FCC3ED9410EC648094804003013427
:1033E300CDEEC394084042E490001C0DF090001B06
:1033F300FEE0940890001C0EF0E490001C07F0908F
:10340300001C09E9F0E0FFC313FEA3F0E490001CE5
:1034130008F090001C16EEF0EF540190001C0CF025
:10342300E490001C0BF001357C90001BFEE0FF9044
:10343300001C0DF090001C05E0FEFDEF2DFDE433B4
:10344300FCC3ED9408EC64809480500990001C0741
:10345300EEF0E4801790001BFEE0FFC374089FFFAB
:1034630090001C07F090001C05E0C39F90001C090E
:10347300F0E490001C0EF090001C07E0FFC313A3C0
:10348300F090001C15F0EF540190001C0BF090001D
:103493001C09E0FFC313A3F090001C16F0EF5401C6
:1034A30090001C0CF0700301357C90001C0BE07045
:1034B3000301357C90001C0EE004F090001C0AE030
:1034C30004F0E090001C1601357490001BFEE0C36D
:1034D30094084042E490001C0BF090001BFEE0FFB8
:1034E30074109F90001C09F0E490001C07F0A3F0F7
:1034F30090001C0DF0C3EF9408A3F090001C09E0AA
:10350300FFC313A3F090001C16F0EF540190001CAE
:103513000CF06065805C90001BFEE0FFC374089FA5
:1035230090001C07F090001C097408F090001C0D1B
:10353300EFF0E4A3F090001C07E0FFC313A3F090A7
:10354300001C15F0EF5401FF90001C0BF090001CC1
:1035530009E0FEC313A3F090001C16F07408540195
:1035630090001C0CF0EF60117401F090001C0EE051
:1035730004F090001C127401F0E490001C06F0901B
:10358300001C05E0FFA3E0C39F4003013A53120070
:103593001E52E490001C0FF090001C06E0FD90000A
:1035A3001C3E7401F0A3741CF0A37438F090001B4C
:1035B300FFE0FBA3E0FAA3E0F91200B4EEEF64022C
:1035C3006003013A4990001C38E0FEA3E0FF1200BB
:1035D300BD238F148E138D128C117F407E047D04C6
:1035E3007C00AB14AA13A912A811C3120007E3505D
:1035F3005BE4F51575BE01E42514FBE43513FAE528
:10360300123430F9E43511F8E4FCFDFEEB2515FF27
:10361300EE3AFEED39FDEC38FCE42FFFE43EFEED1F
:103623003401FDA907AA06AB0512000524F516E42B
:10363300F5BE74182515F582E4341CF583759300E3
:10364300E516F00515E515B420AA80107E007F204D
:103653007DFF7B017A1C79181200093590001C0844
:10366300E0D39400500301378E90001C15E0FF90C7
:10367300001C13E09F400301378E90001C04E044BC
:10368300B8FB7D01E4FF12001B7290001C10E06088
:103693000B90001C0DE075F008A4801390001C1320
:1036A300E0C454F0FF90001C0DE075F008A42F4413
:1036B30040FB7D01E4FF12001B72E490001C03F049
:1036C30090001C03E0FFC39410502874182FF58258
:1036D300E4341CF583759300E0FF90001C17E0FEB3
:1036E300EF6EFBE4FDFF12001B7290001C03E0046D
:1036F300F080CD90001C04E00444B8FB7D01E4FF9E
:1037030012001B7290001C10E0600B90001C0DE077
:1037130075F008A4801390001C13E0C454F0FF90CC
:10372300001C0DE075F008A42F4440FB7D01E4FF6D
:1037330012001B7290001C037410F090001C03E035
:10374300FFC39420502874182FF582E4341CF583AA
:10375300759300E0FF90001C17E0FEEF6EFBE4FDA5
:10376300FF12001B7290001C03E004F080CDE49074
:10377300001C10F090001C08E014F0E070069000AC
:103783001C0F04F090001C13E004F090001C08E0F0
:103793006003013A4990001C0AE0D39400500301EE
:1037A3003A4990001C0FE064017003013A4990000C
:1037B3001C16E0FF90001C14E09F4003013A49905F
:1037C300001C0CE0700301392C90001C0BE070030B
:1037D30001392C90001C04E044B8FB7D01E4FF1286
:1037E300001B727B787D01E4FF12001B72E49000E2
:1037F3001C03F090001C03E0FFC3940850287418C6
:103803002FF582E4341CF583759300E0FF90001CD0
:1038130017E0FEEF6EFBE4FDFF12001B7290001C2D
:1038230003E004F080CD90001C04E00444B8FB7D69
:1038330001E4FF12001B727B787D01E4FF12001B81
:103843007290001C037410F090001C03E0FFC394FB
:1038530018502874182FF582E4341CF583759300EF
:10386300E0FF90001C17E0FEEF6EFBE4FDFF12008B
:103873001B7290001C03E004F080CD90001C04E058
:1038830044B8FB7D017F0112001B727B407D017FE9
:103893000112001B7290001C037408F090001C03BB
:1038A300E0FFC39410502974182FF582E4341CF5FB
:1038B30083759300E0FF90001C17E0FEEF6EFBE4BE
:1038C300FD7F0112001B7290001C03E004F080CC0A
:1038D30090001C04E00444B8FB7D017F0112001B2F
:1038E300727B407D017F0112001B7290001C0374E8
:1038F30018F090001C03E0FFC394204003013A3208
:1039030074182FF582E4341CF583759300E0FF905F
:10391300001C17E0FEEF6EFBE4FD7F0112001B723B
:1039230090001C03E004F080C990001C04E044B83C
:10393300FB7D017F0112001B7290001C11E0600FE0
:10394300A3E0600B90001C0EE075F008A4801390B8
:10395300001C14E0C454F0FF90001C0EE075F00846
:10396300A42F4440FB7D017F0112001B72E49000F1
:103973001C03F012001E5290001C03E02418F58271
:10398300E4341CF583759300E0FF90001C17E0FE00
:10399300EF6EFBE4FD7F0112001B7290001C03E03D
:1039A30004F0E0C3941040CB90001C04E00444B83E
:1039B300FB7D017F0112001B7290001C11E0600F60
:1039C300A3E0600B90001C0EE075F008A480139038
:1039D300001C14E0C454F0FF90001C0EE075F008C6
:1039E300A42F4440FB7D017F0112001B7290001C39
:1039F300037410F090001C03E0FFC394205029745B
:103A0300182FF582E4341CF583759300E0FF9000D2
:103A13001C17E0FEEF6EFBE4FD7F0112001B7290AA
:103A2300001C03E004F080CC90001C14E004F0E4DC
:103A330090001C0CF090001C0BF090001C11F090F7
:103A4300001C0AE014F090001C06E004F00135822B
:103A5300E4FF0200D38790001B29E0FEA3E08E83DE
:103A63007593002407F582E43583F583759300226B
:103A7300E0FEA3E0FF90001B3EE0FCA3E0FDEF2D82
:103A8300FFEE3CA807FC7D017E007F0612000A9131
:103A930090001B3FE02406F090001B3EE03400F052
:103AA30090001B29E0FEA3E022E47FA090001BDD31
:103AB300FEFDFC741AF090001B29E0FAA3E08A8350
:103AC30075930022E02406F97A007B008F828E83AF
:103AD300759300E58222F8A60790001B40E0FBA344
:103AE300E0FAA3E022E0FEA3E0FF90001B3EE0FC2F
:103AF300A3E0FDEF2DFFEE3C2290001B31E0FCA381
:103B0300E0FDA3E0FEA3E0FF222406F87C007D0095
:103B13007E0002000A91E090001BDEF9E4F0A3F0BE
:103B2300A3E9F022E0781E7C0C7F04F97A007B0085
:103B33007D017E0002000A91E4FFFEFDFCE0F8A394
:103B4300E0F9A3E0FAA3E0227F0CE0F87C007D001B
:103B53007E0002000A91FF8E83759300240822A839
:103B630007FC7D017F2012000A9190001B3FE02299
:103B73007F607E0D7D037C00740AF0A37401F0A3C3
:103B8300740EF0A37487F022FC90001B310200082E
:103B93006F75930090001B3EE475F0010200062050
:103BA300A3E0FAA3E02412F9E43AFA02000636E0AD
:103BB300FAA3E0F990001BDE7401F0A3EAF0A3E995
:103BC300F022E02406F97A007B00222407F9E43A84
:103BD300FA02000524FF8E8375930024122285F0D8
:103BE300837593002FF582E5833EF5837593002259
:103BF300E5822DF582E5833CF58375930022F8E693
:103C0300FF7E00EE90001B3CF0A322E07F06F87CD1
:103C1300007D007E00020009FE7D017B017A0E79A2
:103C2300877E0002000A91E493FB740193FA740205
:103C330093F5828A838B930200092E90001B29E05F
:103C4300FCA3E02290001BDDF090001B29E0FAA307
:103C5300E022F87C007D007E0002000A91E0FF2450
:103C630005F8E690001B30F022FAEF12000556909B
:103C7300001B44E004F022FEFDFC7410F08B828AEA
:103C830083759300E58222E0F97A007B00228D821E
:103C93008C83759300E58222E4FFFEFDFC0200089D
:103CA3006F90001B48A3A3E0FEA3E0FDAC062487AE
:103CB300F582740E222FFFEA3EFEED39FDEC38FC4F
:103CC30022FBC3020007E3E0FEA3E0FF90001B3AE0
:103CD300E0FCA3E0FDC39FEC9E22E4FEFDFC90000C
:103CE3001BDD2290001B43E004F022E490001B2F15
:103CF300F0228E837593002414228E8375930024FF
:103D030011222414F9E43AFAE475F0010200065A88
:103D13002404F990001BDEEB22FAA9077B017D0145
:103D23002290001B3CE0FCA3E0FD227F067E000204
:103D33000009FEE0FCA3E0F5828C8322E0FEA3E011
:103D4300F5828E83227FC07E0E7D037C0022E49069
:103D5300001B3CF0A322759300E0FF90001B47E09B
:103D6300FEEF2290001B2FEFF022E0FF2405F8E680
:103D730022E02407F97A007B00227E0002000A91E8
:103D830090001B43E004F02290001B30E06401220A
:103D93002410F97A007B0022E4FCFD90001B312201
:103DA30090001B30E0649922FDE43CFAA9057B01F5
:103DB3002290001B30E0FF90001B39E022FE9000B0
:103DC3001B40A3E0FAA3E02274872DF582740E3C16
:103DD300F5832278877C0E7D0190001B4022F9E455
:103DE3003AFA120008A7898222FFFDFC0200086F3D
:103DF30004F97A007B0022FF8E83759300229000E2
:103E03001B3CA3E022F090001B3CE03400F022E0D6
:103E13007A00F97B0022E0F990001BDE22C3EF64F5
:103E2300809480229CFEC3EF9440EE940022F09095
:103E3300001B3AE03400F02290001B3E7402F0A312
:103E4300E422ADF0FC75930022AFF0FE75930022DF
:103E5300F090001B3EE02290001B617401F0E4A38C
:103E6300F0A37406F07F01120084E790001B60EF5B
:103E7300F014601624FC602D2403702C90001B6248
:103E8300E0D394004022E014801190001B63E0FF14
:103E930090001B62E0C39F500FE004F090001B6191
:103EA3007401F080037F002290001B61E060B67F05
:103EB300447B017A1B79121200792A90001B62E07D
:103EC300B40700400301413390003ED425E025E0D0
:103ED3007302003EF002003F6602003FAD02003F66
:103EE300EB0200404202004095020040E27481125E
:103EF3000078AC7418F0744B120041A37481F0A3E2
:103F03007418F0A37456F090000C1E12007960F040
:103F130090000C1FE0FFE4120079A890000C20E051
:103F2300FF90001C01E4F0A3EFF090000C21E0FFF0
:103F330090001C03E4120041B47481F0A37418F0E0
:103F43007467120042071200D4127B017A1B795660
:103F5300120042211200793F7B017A1B79567D07BB
:103F63000140DC7481120078AC7418F07470120094
:103F730041A31200790C90000C411200417174812D
:103F8300F0A37418F07484120041C71200790C90E6
:103F9300000C4512007836E4120000CDE4FBFA79F8
:103FA300C878421200002B0140387481120078B3A4
:103FB3007418F07491120041D81200790C90000C1F
:103FC30036120041717481F0A37418F0749A1200D0
:103FD30041C77481F0A37418F0A374A7F090000C88
:103FE3003C1200796001408B7481120078B374181D
:103FF300F074AD120041D87481F0A37418F0A37467
:10400300B6F090000C3AE0FFA3E090001BFDCF1246
:104013000041B47481F0A37418F074BC1200420719
:104023007481120078D57418F0A374C7F090000C53
:104033002B1200783690001BFD1200086F804A7423
:1040430081120078D57418F074CB12004214120058
:10405300B9407481120079187418F0A374D6F0A3D0
:10406300EE120041F87481120079187418F0A374E9
:10407300DCF07A1B7934120041E91200797C7481F7
:10408300F0A37418F0A374E8F07B017A1B7945015F
:10409300412F7481120079997418F074F11200425F
:1040A300147481120079997418F0A374FBF09000D2
:1040B3000C3DE0FF90001BFDE4120041F878347CD6
:1040C3001B7D017B817A19790112000B1E12007985
:1040D3003F7B017A0D79EF7D061200C0FC80519081
:1040E300001BFA7481F0A37419F0A3740EF07A1B09
:1040F3007912120041E91200797C7481F0A37419DA
:10410300F0A37414F07B017A1B792312000CB9908D
:10411300001BFA7481F0A31200797C7481F0A374FC
:1041230019F0A37420F07B017A1B793412000CB9C7
:10413300E490001B61F01200D2E7E490001B60F0F2
:1041430090001B60E0FFC394044003013E68EF75D9
:10415300F011A42412F9741B35F0FA7B01120078D4
:10416300BB1200976A90001B60E004F080D2E0FC71
:10417300A3E0FDA3E0FEA3E0FFE4120000CDE4FB17
:10418300FA79C878421200002B90001BFD12000838
:104193006F7B017A1B792312000CB990001BFA2262
:1041A300A3F07B017A1B791212000CB990001BFA61
:1041B30022F0A3EFF07B017A1B792312000CB99054
:1041C300001BFA22A3F07B017A1B793412000CB98D
:1041D30090001BFA22A3F07B017A1B791212000CC8
:1041E300B990001BFA227B0112000CB990001BFA54
:1041F3007481F0A322F0A3EFF07B017A1B792312E1
:10420300000CB922A3F07B017A1B793412000CB99C
:1042130022A3F07B017A1B791212000CB9229000C1
:104223001B64EBF0A3EAF0A3E9F043F908A3E5FB71
:10423300F0A3E5FCF0E5FD541FA3F0A3E5FEF0A316
:10424300E5FFF090001B67E0FF75F00A84C454F0AB
:10425300FEEF75F00A84E5F0540F2E90001B72F008
:1042630090001B68E0FF75F00A84C454F0FEEF75FC
:10427300F00A84E5F0540F2E90001B71F090001BA0
:1042830069E0FF75F00A84C454F0FEEF75F00A8408
:10429300E5F0540F2E90001B70F090001B6BE09024
:1042A300001B73F090001B6AE090001B74F0E49015
:1042B300001B6CF0A3F090001B7A7407F0A374D07A
:1042C300F012001E521200D030BF012AD390001BFF
:1042D30074E0946E90001B73E09401406E90001B99
:1042E3006DE004F0700790001B6CE004F090001B7D
:1042F30074E024928028D390001B74E0946D9000A6
:104303001B73E09401404490001B6DE004F07007C0
:1043130090001B6CE004F090001B74E02493F09079
:10432300001B73E034FEF090001B7BE004F0700789
:1043330090001B7AE004F0C390001B7BE094849010
:10434300001B7AE0940850030142C490001B6CE008
:10435300FFA3E090001B75CFF0A3EFF090001B6C60
:104363007420F0A3E4F090001B75E0FEA3E0FF7C53
:10437300007D641200057CEF540FFE90001B6DE07E
:104383002400F090001B6CE03EF090001B75E0FEF3
:10439300A3E0FF7C007D641200057C7C007D641239
:1043A30000056AC390001B76E09FF090001B75E048
:1043B3009EF0E0FEA3E0FF7D0A1200057CEFC4F847
:1043C300540FC868FFEF54F0FF90001B6DE02FF00F
:1043D30090001B6CE03400F090001B75E0FEA3E03E
:1043E300FF7C007D0A1200057C7C007D0A1200051B
:1043F3006AC390001B76E09FF090001B75E09EF06F
:10440300A3E0540FFF90001B6DE02FF090001B6C96
:10441300E03400F0E0FFA3E090001B75CFF0A3EFC2
:10442300F090001B75E054F0D3949040037F00227A
:1044330090001B75E0540FD3940940037F00229032
:10444300001B76E054F0D3949040037F0022900049
:104453001B76E0540FD3940940037F00221200D04F
:104463003090001B77BF010D7481F0A3741DF0A37E
:1044730074FAF0800B7481F0A3741EF0A37406F039
:1044830090001B7C7401F090001B7AE4F0A304F00D
:1044930090001B7AE0FEA3E0FFC3940CEE9400505F
:1044A3005890001B77E0FBA3E0FAA3E0F9C3EF9475
:1044B30001FFEE9400FEE92FF9EA3EFA120005240B
:1044C300FF7E00D390001B74E09F90001B73E09E5F
:1044D300402790001B7CE004F090001B74E09FF0E9
:1044E30090001B73E09EF090001B7BE004F070A033
:1044F30090001B7AE004F08097E490001B6EF0902C
:10450300001B7CE0FF75F00A84FEC454F0FD9000AC
:104513001B6EE02DF0EE75F00AA4FEC3EF9E900033
:104523001B7CF0540FFF90001B6EE02FF0E0FFD3D5
:104533009412500AEF540F94095003E070037F0064
:1045430022E490001B6FF090001B73E0A3E0900047
:104553001B7CF0E0FF75F00A84FEC454F0FD90006C
:104563001B6FE02DF0EE75F00AA4FEC3EF9E9000E2
:104573001B7CF0540FFF90001B6FE02FF0E0FFD384
:1045830094315007EF540F940940037F00229000A9
:104593001B64E0FBA3E0FAA3E0F8AC02AD037B01EC
:1045A3007A1B796C7E007F0712000A917F012290AB
:1045B300001B81EBF0A3EAF0A3E9F090001BD87491
:1045C3001AF07E007D0012007605120076499000F5
:1045D3001BD67401F07F10120048C070037FB12214
:1045E3001200770490001BD8E0C39402FD12004828
:1045F300EA704690001BD5F012007611B5061E1224
:1046030000774F1200762E1200778D1200762EB5AA
:10461300060B90001BD5E004F0E0B403DB12007638
:1046230059E490001BD6F090000C2FE0700B7FA094
:104633001200491970037FB12290001BD6E0640178
:104643007059FEFD120076057FA0120048C070036A
:104653007FB12212007649120077047D18120048B8
:10466300EA60037F5C22E490001BD5F01200761110
:104673006E60037F5C221200774F1200762E1200C9
:10468300778D1200762E6E60037F5C2290001BD51F
:10469300E004F0E0B403D5120076597B017A1B796C
:1046A300981200CED190001B81120075FD2405F9EC
:1046B300E43AFA120008371200081A90000C2B1281
:1046C30000086F120077041200D13390000C2312FC
:1046D30000086F120077A31200D13390000C271249
:1046E30000086F90001BA3120077AA90001BD7F05D
:1046F3001200D36550037F0D22120075DCC3120034
:1047030007E37030FC90000C27120076E87FC07E30
:104713000E7D037C00120077A31200CD8C1200776C
:104723003B741BF0A37495F0120077A37D037C0008
:104733001200CC7C120075CD90001B8812007639D4
:10474300E4FFFE7D08FC90001B88120075E5C31290
:104753000007E340317C0090001B88120076E8904C
:10476300000C27120075D1FF90001B88120075E51D
:10477300D3120007E35008E490001BD7F0800790A2
:10478300001BD774FFF0120075CDFF90001B811240
:104793000075FD2437F9E43AFA1200083790001B3C
:1047A30088120075D1FF120077041200CD8C12001D
:1047B300773B741BF0A3748F120077037D037C0097
:1047C3001200CC7C7B017A1B799C1200CED1900025
:1047D3000C411200086F78CE7C1B7D017B017A1B94
:1047E30079A07E007F0312000A9190000C41120011
:1047F30075D1FF90001B81120075FD2411F9E43A75
:10480300FA12000852EF2BFFEE3AFEED39FDEC38B9
:10481300FC90000C411200086F783E7C0C7A1B79E7
:10482300A07F031200766390000C41120075D1FF44
:104833007B017A1B799C1200CAFD90001B81120038
:1048430075FD24051200772AEF1200770B7B017A9E
:104853001B79981200CAFD90000C2B120075D1121F
:1048630000770B90000C2B1200086F90001B88122E
:104873000075D1FF90000C231200086F90001BD726
:10488300E090001BA3120077037D187C001200C682
:104893002A90001B86EEF0A3EFF07B017A1B79A42C
:1048A3001200D26FE47F10120049196401700B905B
:1048B300001BD7120077AA7F00227FB122E4FEFDFE
:1048C300FC90001BD8E090001BDDF0A37401F0A363
:1048D300741BF0A3748CF012005C777E0090001BB5
:1048E30084EEF0A3EFF0227C001200C62A90001B96
:1048F30086EEF0A3EFF07B017A1B79CC1200D26F26
:1049030078CC7C1B7D017B017A1B79A47E007F021E
:10491300120009FEEF22FEFDFC90001BD8E0900080
:104923001BDDF0A37401F0A3741BF0A3748CF012CD
:104933000049427E0090001B84EEF0A3EFF022902A
:10494300001BD91200086FE490001BE1F090001BDC
:10495300DDE0D3945040037F002290001BD9A3A332
:10496300A3E0540FFFE4FEFDFCFBFAF9F8C31200C9
:1049730007E360037F002290001BD9E0FCA3E0FD66
:10498300A3E0FEA3E0FF90001C3E1200086F783CFA
:104993007C1C7D017B017A1C79407E007F02120022
:1049A3000A9190001C3FE01313543F90001C38F011
:1049B30090001C3CE0FFA3E090001C3ACFF0A3EF73
:1049C300F090001C3FE0540390001C39F0E4900089
:1049D3001BE1F012001E527B017A1A792190001C10
:1049E30047E41200B67F7B017A1B79E290001C47F3
:1049F300E41200B67F90001BE2E0FF90001A21E072
:104A0300FE6F6003014CBCEE64426003014B377BD5
:104A1300017A1A792190001C47F0A374561200B64C
:104A23008290001A22E0D394034003014CBC90000F
:104A33001A23E0D394034003014CBCD390001A25FE
:104A4300E094F090001A24E094FF4003014CBC90E2
:104A5300001A26E0D394504003014CBC7E007F56DD
:104A63007D007B017A1B79E2120009357B017A1BF9
:104A730079E290001C47E4F0A374561200B68278E2
:104A8300E27C1B7D017B017A1A79217E007F56121D
:104A93000009FEEF6003014CBC90001A22E0FFA363
:104AA300E0FD90001A26E090001C46F0A37401F08C
:104AB300A3741AF0A37427F090001A241200B7DB32
:104AC300EF7003014CBC7E007F567D007B017A1B97
:104AD30079E21200093590001A22E0FFA3E0FD906D
:104AE300001A26E090001C46F0A37401F0A3741B87
:104AF300F074E21200ACEBEF7003014CBC90001AAF
:104B030026E0FF7E0078277C1A7D017B017A1B79E2
:104B1300E2120009FEEF6003014CBC1200B10A125D
:104B230000B66F90001A21E0FF90001BE2E06F6077
:104B330003014CBC900018BF7441F090001C38E096
:104B4300900018C0F090001C39E0900018C1F0905C
:104B5300001C3AE0FFA3E0900018C2CFF0A3EFF0EF
:104B630090001BDDE0FF900018C4F07E0078C57C48
:104B7300187D0190001BDEE0FBA3E0FAA3E0F9122D
:104B8300000A917B017A1879C090001C47E4F0A3D6
:104B93007455F07F9D7E071200B1247E007F557D02
:104BA300007B017A1B79E2120009357B017A1B79BC
:104BB300E290001C47E4F0A37455F07F9D7E07123A
:104BC30000B68778E27C1B7D017B017A1879C07E71
:104BD300007F55120009FEEF6003014CBC900018E2
:104BE300BF7442F07B017A1879BF1200B11712002B
:104BF300B66F900018BFE0FF90001BE2E06F600308
:104C0300014CBC90001C38E0FFA3E0FD90001BDDCD
:104C1300E090001C46F090001BDEE0F9A3E0FAA34D
:104C2300E090001C47C9F0A3EAF0A3E9F090001C50
:104C33003A1200B7DBEF7003014CBC7E007F507D5E
:104C4300007B017A1B79E21200093590001C38E0E1
:104C5300FFA3E0FD90001BDDE090001C46F0A37471
:104C630001F0A3741BF0A374E2F090001C3A12004D
:104C7300ACF1EF604490001BDDE0FF7E0078E27C46
:104C83001B7D01A3E0FBA3E0FAA3E0F9120009FEF8
:104C9300EF7026900018BF7441F07B017A1879BF3A
:104CA3001200B1171200B66F900018BFE0FF90001A
:104CB3001BE2E0B507037F012290001BE1E004F053
:104CC300E0C3940350030149D67F002290001C5196
:104CD300EEF0A3EFF090001C54EBF0A3EAF0A3E98D
:104CE300F090001C53EDF0E4F569EDD394404003DC
:104CF3007F0022C390001C52E0946490001C51E09A
:104D0300940050037F0022E4F56912001E527B01D8
:104D13007A1A797790001C47E4F0A304F0E4FFFECD
:104D23001200B6877B017A1C795790001C47E4F088
:104D3300A304F0E4FFFE1200B68790001C57E0FFC7
:104D430090001A77E0FE6F6003015024EE64426026
:104D530003014E887B017A1A797790001C47F0A3F0
:104D63007444F0E4FFFE1200B687D390001A79E092
:104D730094FF90001A78E0940740030150249000B8
:104D83001A7AE0D3944440030150247E007F447D8B
:104D9300007B017A1C7957120009357B017A1C7953
:104DA3005790001C47E4F0A37444F0E4FFFE1200A4
:104DB300B68778577C1C7D017B017A1A79777E0050
:104DC3007F44120009FEEF600301502490001A781B
:104DD300E0FEA3E0FF7B017A1A797BA3E0FD90005C
:104DE3001C47E4F0A3EDF01200B12490001A7AE01E
:104DF300FF7E007D007B017A1C79571200093590F4
:104E0300001A78E0FEA3E0FF7B017A1C7957A3E048
:104E1300FD90001C47E4F0A3EDF01200B68790006C
:104E23001A7AE0FF7E00787B7C1A7D017B017A1C75
:104E33007957120009FEEF600301502490001A779E
:104E43007441F07B017A1A797790001C47E4F0A350
:104E530004F0E4FFFE1200B124E490001C57F07B41
:104E6300017A1C795790001C47F0A304F0E4FFFE7D
:104E73001200B68790001A77E0FF90001C57E06F8E
:104E83006003015024900019157441F090001C51E7
:104E9300E0FFA3E090001916CFF0A3EFF090001C01
:104EA30053E0FF90001918F07E0078197C197D01FA
:104EB30090001C54E0FBA3E0FAA3E0F912000A916E
:104EC3007B017A19791690001C47E4F0A37443F030
:104ED3007F017E001200B1247E007F437D007B01B1
:104EE3007A1C7957120009357B017A1C7957900097
:104EF3001C47E4F0A37443F07F017E001200B687E1
:104F030078577C1C7D017B017A1979167E007F43DB
:104F1300120009FEEF60030150249000191574423A
:104F2300F07B017A19791590001C47E4F0A304F093
:104F3300E4FFFE1200B124E490001C57F07B017AD9
:104F43001C795790001C47F0A304F0E4FFFE120005
:104F5300B68790001915E0FF90001C57E06F6003BF
:104F630001502490001C51E0FEA3E0FF90001C546C
:104F7300E0FBA3E0FAA3E0F990001C53E0FD9000EE
:104F83001C47E4F0A3EDF01200B1247E007F407DC6
:104F9300007B017A1C79571200093590001C51E0FF
:104FA300FEA3E0FF7B017A1C7957A3E0FD90001C70
:104FB30047E4F0A3EDF01200B68790001C53E0FF26
:104FC3007E0078577C1C7D01A3E0FBA3E0FAA3E0FD
:104FD300F9120009FEEF7049900019157441F07B36
:104FE300017A19791590001C47E4F0A304F0E4FF5B
:104FF300FE1200B124E490001C57F07B017A1C7967
:105003005790001C47F0A304F0E4FFFE1200B6879C
:1050130090001915E0FF90001C57E0B507037F01CE
:10502300220569E569C394035003014D0D7F0022F6
:105033001200AB35EF6401600F7B817A1779F07D45
:10504300B17C007F5D0152FC1200D4127B017A0D0A
:105053007970120042217F40120078E57418120023
:1050630077E712005365600F7B817A1779F77DB17B
:105073007C007F660152FCE538B45506E53964AA25
:10508300600F7B817A1779FC7D5C7C007F6B01521A
:10509300A178287C007D007B007A0079307F06129E
:1050A300007846600F7B817A1879027D5C7C007FF3
:1050B300700152A190001B437401F0A3740CF0A380
:1050C3007416F07B007A0079281200CE107F6012EC
:1050D3000078E57420120077E71200536560091227
:1050E30000791F7F7B0152FC120078A57D1E7C0096
:1050F3001200536DF07B007A0079421200D26F7870
:10510300407C007B007A007942120078EEEF600F5A
:105113007B817A18790B7D5C7C007F830152A178B7
:10512300307C0C120078047B007A0079281200D1BD
:105133003390000C361200086F90000C3CE52BF006
:105143007B007A00792C1200D3B890000C3AEEF071
:10515300A3EFF0E47F80120078E67406120077E78D
:105163001200537A60091200791F7F8D0152FC12DD
:1051730000796B7400F07428120078A31200538234
:1051830078257C007D007A00792812007842603B04
:1051930078227C001200794F1200781A1200796B82
:1051A3007400F07425120078A3120053827F8012DA
:1051B3000079737406120077E712004942EF640125
:1051C30060091200791F7F970152FC90001AC47482
:1051D30001F0A3740DF0A37471120078A41200C837
:1051E3003090000C3DEFF01200D44C50037F0522A9
:1051F300E490001ABFF0A3F090001ABFE0FAA3E016
:10520300FBC3942AEA9401504CEB2480FFEA340D4B
:10521300FEE43403FDE433FC90001BDD7440F074C2
:10522300872BF9740E3AFAA3740112007852120014
:10523300537A600F7B817A1879117DB17C007FA549
:105243000152FC90001AC0E02440F090001ABFE025
:105253003400F080A3E490000C49F090000E8DE040
:10526300B45506A3E064AA6008120079B17FAC804C
:105273002D7B017A0E79877D287C011200536D12F4
:105283000078A41200D26F78227C007B017A0F7918
:10529300AF120078EEEF600F120079B17FB37E0199
:1052A3001200A3DF7F5C22784A7C0C7A0E79877F19
:1052B30006120078C378507C0C7A0E798F7F201207
:1052C3000078C378707C0C7D017B017A0E79AF7E08
:1052D300017F0012000A91E47FD0120078E6742067
:1052E300120077E712005C77EF640160157B817A27
:1052F30018791C7DB17C007FBD7E011200A3DF7F86
:10530300B12278B77C0D7F1012007806E490000D6F
:10531300C7F01200796C7400F0A37442F0120079A4
:10532300857D047C001200CC7C78427C007D007B70
:10533300007A0079367E007F04120009FEEF6007D1
:10534300E4FFFEFDFC8008120079851200CED190A7
:10535300000C451200086FE490000C2FF01200C8F7
:10536300912212005C77EF6401221200C62A90009A
:105373001ABFEEF0A3EF2212005C77EF6401227DE7
:10538300037C001200CC7C227B017A1B791E120065
:1053930076F97B017A1B7928120076F97F041200D3
:1053A30077C5120076AA7E007F3B7DFF120076BD93
:1053B30012000935120076A2120077C51200C3F35A
:1053C300120076F26003E0FF221200D36550037FE0
:1053D3000D22120077C51200AE9D120076F2601501
:1053E300E024F96007240560030156797F02120067
:1053F30056CB01567990000E7DE0C39401FFE494EF
:1054030000FE74702FF582740C3E1200762EFFE4BA
:10541300FCFDFE90000C36120075E5120006A2E4B6
:105423007B64FAF9F81200072D90001B1A1200088A
:105433006F7E007F147D007B017A1B796D1200095A
:105443003590000E5F120075D1FF90001B3B1200D8
:10545300086F78337C1B7D01120076C478497C1B6E
:105463007D017A0D79717F06120076CA90001B1AAE
:10547300120075D1FF90001B431200086F90001BB0
:1054830084120076B21200B428120076F2600DE0A6
:10549300B45A067F08120056CB01567990001B1AA6
:1054A300120075D1FF90000E65120075E5C312005E
:1054B30007E350097F0F120056D27F092290000E96
:1054C30065120075D1FF90001B3F1200086FE49036
:1054D300001B51F090000E6EE02401FE90000E6D53
:1054E300E0340090001B47F0A3CEF090001B4F74F4
:1054F300FFF0A37401F090001B68F01200A5D11215
:105503000076F2601FE0FBB40617E490001B4FF037
:1055130090001B687402F090001B431200773280E6
:1055230003AF0322120076BD120045B2120076F2D9
:105533006003E0FF22120076A2120076BD1200770C
:10554300857D0112006F73120076F26003E0FF2283
:1055530090001B4FE0701B7B817A1D79307D017FAA
:10556300011200C0781200D4AA7F07120056D27F1E
:10557300062290001B84120076B21200C7CC1200E0
:1055830076F290001B1A120075E590001B3F120083
:1055930075D11200767EFC120077187B017A1B7995
:1055A300281200D3E890001B1A120075D1FF1200D5
:1055B30077187B017A1B791E1200D3E8120077CC8F
:1055C300120075E5C3120007E370087B817A1D7929
:1055D30035801690001B867401F0A3741BF0A3742E
:1055E3001EF07B817A1D793CE4FD7F011200C078B7
:1055F30090001B867401F0A3741BF0A37428F07B46
:10560300817A1D79477F02120056D97B817A1D79F1
:105613005290001B37120075D1FF90001B861200B9
:10562300086F7F03120056D990001B15E0FF604DF1
:10563300B4011E90001B4F7402120076BC12007757
:10564300857D0312006F737F0A7E001200D3FE80F4
:105653001990000C2F7401F01200D2C17B817A1DC6
:10566300795E7D0A7F031200C0781200D4AA7D649C
:105673007F0112009D6390001B15E0FF2290001B29
:105683004F740AF090001B687402120076BC12007B
:1056930077857D0212006F73E490000C2FF01200E7
:1056A300D4AA120077CC120075E5C3120007E37D7C
:1056B3006460047F0980027F0612009D637F0A7E77
:1056C300001200D3FE7F00227D6412009D63227DC1
:1056D3006412009D6322E4FD1200C0782290001B37
:1056E30040EBF0A3EAF0A3E9F0E490001B4AF0A337
:1056F300F0784C7C1B7D0190001B40E0FBA3E0FA9B
:10570300A3E0F97E007F0212000A9190001B4DE096
:10571300540FFF90001B4BE02FF090001B4AE03426
:1057230000F090001B4DE0C4540F75F00AA4FFAEC7
:10573300F090001B4BE02FF090001B4AE03EF090EE
:10574300001B4CE0540F75F064A4FFAEF090001BF7
:105753004BE02FF090001B4AE03EF090001B4CE022
:10576300C4540F7E00540FFF7C037DE81200056ACA
:1057730090001B4BE02FF090001B4AE03EF0C3A3C8
:10578300E094D090001B4AE0940750037F0022E48A
:1057930090001B43F0A3F090001B517407F0A37417
:1057A300D0F090001B4AE0FEA3E0FFC390001B5221
:1057B300E09F90001B51E09E503512001E52900056
:1057C3001B511200D03490001B44E0BF0104246E2F
:1057D3008002246DF090001B43E03401F090001B25
:1057E30052E004F070BC90001B51E004F080B390D1
:1057F300001B40E0FBA3E0FAA3E02402F9E43AFA39
:1058030012000524FFD39412500FEF540FFE940996
:10581300500712000524FD70037F0022EDC4540FCE
:1058230075F00AA42E90001B45F090001B4AE0FE81
:10583300A3E0FF1200D03990001B4EBF010D74810D
:10584300F0A3741DF0A374FAF0800B7481F0A374B9
:105853001EF0A37406F07F0190001B45E0FEEFC32A
:105863009E502990001B4EE0FBA3E475F00112004B
:105873000620A9F0FA12000524FD90001B44E02D38
:10588300F090001B43E03400F00F80CC90001B40ED
:10589300E0FBA3E0FAA3E02403F9E43AFA120005DB
:1058A30024FFD39431500FEF540FFE940950071285
:1058B300000524FD70037F0022EDC4540F75F00A28
:1058C300A42EFF90001B46F090001B44E02FF090A5
:1058D300001B43E03400F090001B40E0FBA3E0FA20
:1058E300A3E02404F9E43AFA12000524FFD3942335
:1058F3005008EF540FFE940940037F002212000565
:1059030024C4540F75F00AA42E90001B47F0900096
:105913001B40E0FBA3E0FAA3E02405F9E43AFA1202
:10592300000524FFD394595008EF540FFE94094007
:10593300037F002212000524C4540F75F00AA42E1D
:1059430090001B48F090001B40E0FBA3E0FAA3E0AB
:105953002406F9E43AFA12000524FFD394595008B7
:10596300EF540FFE940940037F002212000524C464
:10597300540F75F00AA42E90001B49F090001B43AE
:10598300E0FFA3E090001B4ACFF0A3EFF075C7AA96
:1059930075C75543F9040090001B49E0F5FB9000DF
:1059A3001B48E0F5FC90001B47E0F5FD90001B4B06
:1059B300E0F5FE90001B4AE0F5FF7F012290001BFB
:1059C3009712006DA712006EB91200B72890001B42
:1059D300BDEFF06003E0FF2290000E63E025E025B9
:1059E300E090001BBEF07E007F107D0012006DF979
:1059F3001200093512006F5E12006DF912005C5D32
:105A03006003E0FF2212006F1912006F07500E129D
:105A1300006E5912006ED312006F2E80EC12006ECE
:105A2300CE6F7070A3E0606C12006DDE1200B29A4C
:105A330012006D7112006E7BC000C001C002C00372
:105A430012006D7112006E9ED003D002D001D000FF
:105A530012006E9090001BBF12006D95C3120007D9
:105A6300E3701912006D7112006EDAFF90001BC310
:105A7300E0B5F008A3E0B507037F002290001BBE4A
:105A8300E02402FF12006DF912005C6A7003015BEF
:105A930034E0FF2290001BBEE02402FF12006DF9E8
:105AA30012005C5D60037F312212006F1912006FD8
:105AB30007500E12006E5912006ED312006F2E8023
:105AC300EC12006ECEB50704A3E070037F0322122D
:105AD300006DDE1200B29A12006D7112006E7BC06F
