:10000000021B377E11DEFEDFFA00220200CD4B53C9
:10001000E8EF438EC075C7AA75C75543D803227F42
:020020000122BB
:100023000200C86D0200014BEC5D046005E8590451
:100033007004020001411200010C580460F4EC4802
:1000430060F0EC7004FDFEFF22C860D82481C85024
:100053000AC39860025007020001489850C6F5820F
:10006300E9294B4A7006AB820200013775F0007C28
:100073001A7880C3EF9BEE9AED99400DC3EF9BFF77
:10008300EE9AFEED99FDE842F0DC24ACF0D0E0FFFF
:10009300D0E0FED0E0FDAB8220E7101BEB60B8ECB4
:1000A3002CFCEF33FFEE33FEED33FD02000123E8BA
:1000B30003F830E705C0F075F000EF2FFFEE33FED5
:1000C300ED33FD40B730E7C180A975F020800E7590
:1000D300F010800575F0087D007E007F003392D517
:1000E30030D504120007BFEC334010EF33FFEE337B
:1000F300FEED33FDEC33FCD5F0ED22E5F0247EA2DA
:10010300D513CC92E7CDCEFF22E9D2E7C933E8334A
:10011300F892D5EDD2E7CD33EC33FC5002B2D522C1
:10012300EC30E7100FBF000C0EBE00080DBD00043D
:100133000BEB6014A2D5EB13FCED92E7FD2274FFE9
:10014300FCFDFEFF22E480F8A2D574FF13FC7D8042
:10015300E480EFF920E73624F950037907E4F42427
:1001630002FBE582158270021583DBF6E024FB5067
:100173001BE96014E4F0E582158270021583E00444
:10018300F0B40A08E4F0D9EE7401F00A22C2D522D1
:10019300ED33EC3392D5FA602AB4FF33EDC2E77B3B
:1001A3008160067A0179B8E4227A0179C120D50405
:1001B3007A0179BC224E614E002B494E46002D49EF
:1001C3004E4600E47A08F0A3DAFC7B00740722C0F1
:1001D30093C083C082ECC0E0EDC0E0EEC0E0EFC0AE
:1001E300E0EA75F010A4CAABF075F04DA42BFBE464
:1001F30035F0FCEA2410FAEB34C5FBEC34D9FCED02
:10020300C2E7FF75F056A4F42411C5F0F434C58F8A
:10021300F0A42AE5F03BE43CF020E716120004DEEC
:10022300D0E0FFD0E0FED0E0FDD0E0FC1200002BD8
:100233008016F404120004DED0E0FFD0E0FED0E02C
:10024300FDD0E0FC120003A0D082D083D093E0FA6B
:10025300EDD2E7CD33EC332482FBE4C3CF33CFCEEF
:1002630033CECD33CD33DBF37B0775F00A846004E3
:10027300F0A31B0AE5F0F0A38FF0740AA4FFACF01F
:100283008EF0740AA42CFEACF050010C8DF0740AAD
:10029300A42CFDE435F0F0A3DBDE74072202000199
:1002A30041E86480F8E933E83360110460EFED332B
:1002B300EC337009E8FCE9FDEAFEEBFF220460DDA4
:1002C300D3EB9FEA9EE99DE8C2E78CF0C2F795F075
:1002D300400CE8CCF8E9CDF9EACEFAEBCFFB1200FB
:1002E300010C85D0F05804700320D5B1E8047008E0
:1002F3005002B2D50200014B92D5EC0460F6E4CC77
:10030300C0E0C398F8603C94186009400ED0E0FB4D
:1003130002000123E4FBFAC9FC8028E830E406E488
:10032300C9FBE4CAFCE830E305E4C9CACBFCE854E2
:10033300076010F8C3E913F9EA13FAEB13FBEC13A4
:10034300FCD8F130F531C3E49CFCEF9BFFEE9AFE41
:10035300ED99FDD0E0FBEF4E4D4C701322DB040210
:10036300000148EC2CFCEF33FFEE33FEED33FDEDE3
:1003730030E7EA02000123EF2BFFEE3AFEED39FDF1
:10038300D0E0FB50140BBB00040200014BED13FD46
:10039300EE13FEEF13FFEC13FC02000123EC4D60A0
:1003A30011E8497018ED33EC3304600DE4FCFFFEF3
:1003B300FD22E933E8330470F80200014112000121
:1003C3000C58046009E4CC2481500728500B020028
:1003D300014B28400402000148C0E0EB4A7046B9D3
:1003E3008007D0E0FB02000137EF4E701DBD80088F
:1003F300EBFFEAFEE9FD80EAE98DF0A4FEE5F002F9
:1004030000048FE9CDF9EAFEEBFFEF89F0A4FCE5E8
:10041300F0CE89F0A42EFFE435F0CD89F0A42DFEB3
:10042300E435F08067EF4E7005BD80D780C2EF8B57
:10043300F0A4ACF0EE8BF0A42CFCE435F0F8EF8ADA
:10044300F0A42CE5F038FCE433CB8DF0A42CFCE5D0
:10045300F03BF8EE8AF0A42CFCE5F038F8E433CF57
:1004630089F0A42CFCE5F038CF3400CE89F0A42F1A
:10047300FFE5F03EFEE433C98DF0A42EFEE5F0392E
:10048300CD8AF0A42FFFE5F03EFEE43DFD33D0E03E
:10049300FB50080BBB00100200014BEC2CFCEF33AC
:1004A300FFEE33FEED33FD020001233F80000041E8
:1004B30020000042C80000447A0000461C40004768
:1004C300C35000497424004B1896804CBEBC205A7C
:1004D3000E1BCA6753C21C749DC5AEFB600654074E
:1004E3006020232312000511EB5438600C12000422
:1004F300FC1200050C120003A0ECF8EDF9EEFAEF84
:10050300CB22EB1200050C80F0543803241C90001E
:1005130004AEFE93FC0EEE93FD0EEE930ECE93FF10
:1005230022EB7002E72289828A831410E704F59391
:10053300E022F593E49322BB000327F722F8EB892B
:10054300828A831410E706F593E028F022F593E4FA
:10055300932822BB0002F722BB8000500989828ABC
:10056300838B931593F022EF8DF0A4A8F0CF8CF03A
:10057300A428CE8DF0A42EFE22BC000BBE0029EFD2
:100583008DF084FFADF022E4CCF875F008EF2FFF77
:10059300EE33FEEC33FCEE9DEC984005FCEE9DFE45
:1005A3000FD5F0E9E4CEFD22EDF8F5F0EE0084205E
:1005B300D21CFEADF075F008EF2FFFED33FD4007C1
:1005C300985006D5F0F222C398FD0FD5F0EA22C267
:1005D300D5EC30E709B2D5E4C39DFDE49CFCEE30D5
:1005E300E716B2D5E4C39FFFE49EFE1200057CC369
:1005F300E49DFDE49CFC80041200057C30D507C318
:10060300E49FFFE49EFE22C5F0F8A3E028F0C5F0C6
:10061300F8E582158270021583E038F022A3F8E032
:10062300C5F025F0F0E582158270021583E0C83825
:10063300F0E822EB7007E7F5F009E7192289828ACF
:10064300831410E708F593E0F5F0A3E022F593E4B3
:1006530093F5F074019322BB000B09C5F027F7C58E
:10066300F01937F722F8EB89828A831410E707F52C
:1006730093E80200060AF59374019325F0F5F0E47C
:10068300933822BB0006F709A7F01922BB8000505C
:100693000D89828A838B931593F0E5F0A3F022E80A
:1006A3008FF0A4CC8BF0A42CFCE98EF0A42CFC8A54
:1006B300F0EDA42CFCEA8EF0A4CDA8F08BF0A42DD1
:1006C300CC3825F0FDE98FF0A42CCD35F0FCEB8E72
:1006D300F0A4FEA9F0EB8FF0A4CFC5F02ECD39FE28
:1006E300E43CFCEAA42DCE35F0FDE43CFC2275F09D
:1006F30008758200EF2FFFEE33FECD33CDCC33CC24
:10070300C58233C5829BED9AEC99E58298400CF53E
:1007130082EE9BFEED9AFDEC99FC0FD5F0D6E4CE6C
:10072300FBE4CDFAE4CCF9A88222B800C1B90059A0
:10073300BA002DEC8BF084CFCECDFCE5F0CBF9786D
:1007430018EF2FFFEE33FEED33FDEC33FCEB33FB01
:1007530010D703994004EB99FB0FD8E5E4F9FA228B
:100763007818EF2FFFEE33FEED33FDEC33FCC93386
:10077300C910D7059BE99A4007EC9BFCE99AF90F4E
:10078300D8E0E4C9FAE4CCFB2275F010EF2FFFEEBA
:1007930033FEED33FDCC33CCC833C810D7079BEC05
:1007A3009AE899400AED9BFDEC9AFCE899F80FD57D
:1007B300F0DAE4CDFBE4CCFAE4C8F922C3E49FFF0A
:1007C300E49EFEE49DFDE49CFC22EB9FF5F0EA9E93
:1007D30042F0E99D42F0EC6480C864809845F022C1
:1007E300EB9FF5F0EA9E42F0E99D42F0E89C45F06C
:1007F30022E8600FECC313FCED13FDEE13FEEF13C1
:10080300FFD8F122E8600FEFC333FFEE33FEED3381
:10081300FDEC33FCD8F122EB7006E9F802000B91F2
:1008230089828A831410E706F59302000B9DF593E2
:1008330002000BA9BB0006E9F802000BE2BB800033
:10084300500C89828A838B9315930200088F22EBC5
:100853007006E9F802000BB989828A831410E7064F
:10086300F59302000BC6F59302000BD27401FF331C
:1008730095E0FEFDFC080808E62FFFF618E63EFEAD
:10088300F618E63DFDF618E63CFCF622ECF0A3ED87
:10089300F0A3EEF0A3EFF022A42582F582E5F03574
:1008A30083F58322F8E0FBA3A3E0F925F0F0E582CA
:1008B300158270021583E0FA38F022EBF0A3EAF018
:1008C300A3E9F022EB7006E9F802000BEE89828AB5
:1008D300831410E706F59302000BF7F59302000C5F
:1008E30000D093D083D082F8E49370127401937094
:1008F3000DA3A393F8740193F5828883E4737402C0
:10090300936860EFA3A3A380DFD093D083D082E466
:10091300937012740193700DA3A393F8740193F56C
:10092300828883E4737402936C70127403936D7002
:100933000C7404936E70067405936F60DDA3A3A318
:10094300A3A3A380CA8B938A838982159353937F2E
:10095300E473EF4E6022EF60010EEDBB0007F70971
:10096300DFFCA9F022BB8000500E89828A838B931F
:100973001593F0A3DFFCDEFA22EB700C87F009E697
:1009830008B5F019DFF6801589828A831410E70F02
:10099300F593E0F5F0A3E608B5F002DFF5806AF51C
:1009A30093E493F5F0A3E608B5F05EDFF4805ACB49
:1009B300701388828C838B9387F009E493A3B5F03B
:1009C30048DFF580441410E71F88848C858B958954
:1009D300828A83F593758620E0F5F0E493A3A3B5AB
:1009E300F024DFF4DEF2801E88848C858B95898267
:1009F3008A83F593758620E493F5F0E493A3A3B576
:100A0300F004DFF3DEF17586007FFFB5F0020F22FD
:100A130040027F01220200097C809488F0EF60018C
:100A23000E4E60F0ED60EE1410E7EECB701288828C
:100A33008C83F59387F009E0A3B5F0CDDFF680C989
:100A43001410E71E88848C858B9589828A83F5939D
:100A5300758620E0F5F0E0A3A3B5F0AADFF5DEF399
:100A630080A488848C858B9589828A83F593758687
:100A730020E493F5F0E0A3A3B5F08BDFF4DEF2807E
:100A830085EB7008E709F608DFFA801B89828A8301
:100A93001410E70AF593E0A3F608DFFA8009F5934B
:100AA300E493A3F608DFF9ECFAA9F0EDFB2288F052
:100AB300EF60010E4E60F088F0ED60C51410E7E7BB
:100AC300CB700E88828C838B93E709F0A3DFFA80C7
:100AD300D61410E71C88848C858B9589828A83F5CC
:100AE30093758620E0F0A3A3DFFADEF87586008015
:100AF300B688848C858B9589828A83F59375862045
:100B0300E493F0A3A3DFF9DEF77586008099EB7019
:100B130008E709F60870FA801B89828A831410E7B4
:100B23000AF593E0A3F60870FA8009F593E493A31A
:100B3300F60870F9ECFAA9F0EDFB2288F0ED60CE2F
:100B43001410E7F0CB700E88828C83F593E709F0DD
:100B5300A370FA80DF1410E71A88848C858B95893B
:100B6300828A83F593758620E0F0A3A370FA7586D5
:100B73000080C188848C858B9589828A83F59375DF
:100B83008620E493F0A3A370F975860080A6E6FCA3
:100B930008E6FD08E6FE08E6FF22E0FCA3E0FDA36D
:100BA300E0FEA3E0FF22E493FC740193FD7402933F
:100BB300FE740393FF22E6FB08E6F908E6FA08E66B
:100BC300CBF822E0F8A3E0F9A3E0FAA3E0FB22E4E8
:100BD30093F8740193F9740293FA740393FB22EC70
:100BE300F608EDF608EEF608EFF622E6FB08E6FA5D
:100BF30008E6F922E0FBA3E0FAA3E0F922E493FB81
:100C0300740193FA740293F922BB001CD093D0F0C1
:100C1300D0E0F8D0E0C9FBD0E0FAD0E0CBC8C0E028
:100C2300C0F0C09302000C60BB80005022D093D070
:100C3300F0D0E0F8D0E0C9F582D0E0CAF583D0E087
:100C4300CB14C8C0E0C0F0C0938893020008BED0A4
:100C530093D083D082D0E0D0E0D0E0E473EBF60809
:100C6300EAF608E9F622E5112401F582E43416F5E3
:100C730083759300E0051122900015FE300B04905C
:100C8300001601E475F001120008A70200052420F4
:100C930004E57F2ED2048018EF540F2490D43440FF
:100CA300D4FF30080BEF24BFB41A0050032461FFB4
:100CB300E512600215120515E51570020514300BD7
:100CC30011900015FEE475F001120008A7EF020071
:100CD3000556020020037403D20B8003E4C20BF514
:100CE30011900015FE120008BEE4F512F514F51577
:100CF300E51260087F2012000CB380F47513FFC265
:100D030005C204C206C207C209C20AC20C12000C01
:100D13007BFF700E300B067F0012000CC4AF15AEC4
:100D23001422B42563C2D5C20812000C7BFF24D061
:100D3300B40A00501A75F00A781230D50508B6FFC8
:100D43000106C6A426F620D5047002D20780D82453
:100D5300CFB41A00EF5004C2E5D20802001001D24A
:100D63000580C4D20480BED20680BAD2D580B8D260
:100D73000980B27F2012000CB32006077401B5125C
:100D83000040F012000C69FF12000CB302000CF3D8
:100D9300D20CD20A808F12000C69FB12000C69FA84
:100DA30012000C69F94A4B7006790E7A117B812087
:100DB300063DE51260397E00E9C0E02EF9EAC0E0A5
:100DC3003400FA12000524F9D0E0FAD0E0C9600635
:100DD3000EEE651370E2C2D5EBC0E0EAC0E0E9C0F5
:100DE300E0EE12001069D0E0F9D0E0FAD0E0FB1297
:100DF300000524FF6096EBC0E0EAC0E0E9C0E01222
:100E0300000CB3D0E02401F9D0E03400FAD0E0FBC9
:100E1300E5130460DAD513D702000D8FD206808F55
:100E23001200104560F6E51370010412000156A983
:100E330013600EE513600A14F513120010F8EF6047
:100E4300F2EA30E702F404C399400402000ED8EA40
:100E5300F425130430E701E404F513800F120010A6
:100E63004560B9EA0513251312000156EA900016EE
:100E73002DF030E701E4251304D5130420090114F0
:100E830012001069E4C0E0120010F89000162DE083
:100E9300601420E70814F012000C9B802604F0D0A5
:100EA300E014C0E07F0012000C9BE5136008120001
:100EB3000C921513800D30090412000C92D0E0023D
:100EC300000CF3D0E00480BD120010456093E513DD
:100ED30004120001569000162DEAF0E513200902D2
:100EE30060010424041200106974FF04C0E01200BE
:100EF30010F812000C9BE513200902600412000C89
:100F030092D0E0B513E57F4512000CA59000162D95
:100F1300E07F2B30E7047F2DF404C0E012000CB314
:100F2300D0E075F00A84C0F012000C9CD0E01200EF
:100F33000C9C02000CF3791080027908C20AC20CDF
:100F43008008D2D5790A8004790AC2D5E5130470E2
:100F530002F513E4FAFDFEFF12000C69FC7B082086
:100F6300051612000C69FD7B1030040C12000C698D
:100F7300FE12000C69FF7B20EC3382D592D550130F
:100F8300C3E43004069FFFE49EFEE42005039DFDB9
:100F9300E49CFCE4CBF8C205EC700CCFCECDCCE8DE
:100FA30024F8F870F38017C3EF33FFEE33FEED330D
:100FB300FDEC33FCEB33FB994002FB0FD8E9EB303C
:100FC3000505F8D0E0C448B205C0E00AEC4D4E4F29
:100FD30078207B0070C2EAB5130040BCC0E0120069
:100FE300106BD0F0D0E0200504C4C0E0C4B205C04B
:100FF300F012000C9CD0F0D5F0EA02000CF31200C2
:1010030008E40D99530F39580D664C0D62420F3D9C
:101013004F0F45440F45490D7C430F4B550E60461A
:101023000ECB450E2347112B500D6A2D0D6E2E0D41
:10103300952B0D72230D932011172A0D28480000BC
:101043000D8BE513B4FF0375130612000C69FC1234
:10105300000C69FD12000C69FE12000C69FF900080
:10106300162602000193790AA2D520071430090934
:10107300B910020404B9080104A2D5200A025001E0
:101083000420066D9206B512005036C0E07F203072
:10109300071A7F30A206720A72095010120010C498
:1010A300C206C20AC209C20C7F308010300903E9AC
:1010B300C0E012000CB3300903D0E0F9D0E0B51260
:1010C300CA3009197F30B9100D12000CB37F5830A4
:1010D30008077F788003B9080412000CB3300606B2
:1010E3007F2D02000CB37F20200CF77F2B200AF208
:1010F30022920680CC7F00B40700500E2426F5828E
:10110300E43416F583759300E0FF22286E756C6C4A
:101113002900D20512000C693005F7C20578123098
:10112300D50108F602000D2812000C697F496008FA
:101133007F4310E7027F5814C0E0EF12000CA47441
:101143003A12000CA4D0E0600DC0E0C412000C9C65
:10115300D0E012000C9CD20775120402000F392054
:10116300202020202020202020202020202020009C
:1011730000000000000000000000004F000000001D
:10118300000007000700000000147F147F14000014
:1011930000242A7F2A12000000231308646200003F
:1011A30000364955225000000000050300000000EE
:1011B30000001C2241000000000041221C0000002E
:1011C3000014083E081400000008083E0808000048
:1011D300000050300000000000080808080000006C
:1011E30000006060000000000020100804020000FE
:1011F300003E5149453E0000000000427F40000090
:101203000042615149460000002141454B31000035
:10121300001814127F1000000027454545390000CF
:10122300003C4A49493000000001017905030000F0
:10123300003649494936000000064949291E000085
:1012430000003636000000000000563600000000A3
:1012530000081422410000000014141414140000A8
:101263000000412214080000000201510906000099
:1012730000324979413E0000007E1111117E0000C9
:1012830000417F4949360000003E414141220000B0
:1012930000417E4141223C00007E4949494900000A
:1012A300007F090909010000003E4141497A00001D
:1012B300007F0808087F00000000417F4100000014
:1012C300002040413F010000007F0814224100003C
:1012D300007F404040400000007F020C027F00007E
:1012E300007F0608307F0000003E4141413E000080
:1012F300007F090909060000003E4151215E0000FC
:10130300007F091929460000002649494932000097
:101313000001017F01010000003F4040403F000009
:10132300001F2040201F0000007F2018207F0000A6
:101333000063140814630000000708700807000026
:10134300006151494543000000007F414100000016
:101353000002040810200000000041417F0000004B
:10136300000402010204000000404000404000006D
:1013730000010204000000000020545454780000CF
:10138300007F4844443800000038444444280000A7
:1013930000384444487F0000003854545418000077
:1013A3000000087E09020000000C52524C3E00006F
:1013B300007F0804047800000000447D4000000022
:1013C300002040443D00000000007F10284400003E
:1013D3000000417F40000000007C04780478000096
:1013E300007C0804047800000038444444380000BA
:1013F300007E0C12120C0000000C12120C7E000076
:10140300007C08040408000000585454546400008D
:1014130000043F4440200000003C40403C400000AA
:10142300001C2040201C0000003C4030403C0000D9
:101433000044281028440000001CA0A0907C000059
:10144300004464544C44000000000836410000008E
:101453000000007700000000000041360800000093
:10146300000201020402000000FFFFFFFFFF000073
:10147300D6D0CDBEB0CEBFA800B2BBBFC9CAB6B12D
:10148300F0BFA800BFA8C7AEB0FCB4EDCEF300CE4A
:10149300B4C9CFB4ABC1F7CBAE00C7EBB2C9BCAFD5
:1014A30000BADABFA800BFA8D2D1B9C6DA00CEDE2F
:1014B300C8A8CFDE00BFA8D3E0B6EEB2BBD7E30027
:1014C300BFA8D2D1CBF800C3E2B7D1BFA800BCC735
:1014D300C2BCD2D1C2FA00D6D8B8B4CBA2BFA8003E
:1014E300C9E8D6C3B4EDCEF300CAB1D6D3B4EDCEBA
:1014F300F300D3B2BCFEB9CAD5CF00B2BBD6A7B3F3
:10150300D6BFA8C0E0D0CD0000B4E6B4A2C8DDC108
:10151300BF00CEEFC0ED4944CEB4C9E8D6C300B195
:10152300B8B2CE00D6F7B2CEB4EDCEF300BBD6B888
:10153300B4D6F70057522053455249414C00524408
:101543002053455249414C005B25645DB4EDCEF315
:10155300C2EBA3BA25642000252E303266007265E3
:1015630061646572004550203100455044203100CC
:101573006B657900455020320045504420320045C8
:10158300502033004550442033004550203400455B
:1015930050203500312E20BAECCDE2CDA8D1B620B3
:1015A3002000322E20B4AEBFDACDA8D1B620200061
:1015B300332E2047505253CDA8D1B62020002020EF
:1015C300202020202020202020202000C9E8B1B89E
:1015D300CEEFC0ED4944002530325825303258252E
:1015E3003032582530325800CFB5CDB3CAB1BCE440
:1015F30000B5B1CCECD3AAD2B5B6EE00252E30326D
:101603006620D4AA00C7B0D2BBCCECD3AAD2B5B65D
:10161300EE00BBF9B4A1B7D1C2CA00B2C9BCAFCA0C
:10162300B1BCE4BCE4B8F400256420CCEC00C1AC4C
:10163300D0F8CBA2BFA800256420C3EB00B5B1C787
:10164300B0C1F7CBAEBAC500256C7500CEB4B2C934
:10165300BCAFBCC7C2BC00257520CCF500B3CCD051
:10166300F2B0E6B1BE002573003130303232364974
:10167300474300CEB4B2C9BCAFCCECCA0025752039
:10168300CCEC00BADAC3FBB5A5B0E6B1BEBAC5006F
:101693004275696C640041707220313620323031FA
:1016A300300031373A31383A313900B7FECEF1C61E
:1016B300F749500025642E25642E25642E256400E9
:1016C300B7FECEF1C6F7B6CBBFDA00256400312EE4
:1016D30020CBA2BFA8CAD5B7D1202000322E20B27A
:1016E300E9D1AF20202020202000332E20CDA8D107
:1016F300B62020202020200000B00000A40000001D
:10170300DF03005053414D00001F1C1F1E1F1E1FEF
:101713001F1E1F1E1F81159781DA758115A581DD97
:10172300A38115B381D7908115C10000000118EC86
:101733000000008116D181AD9F8116DF8142358182
:1017430016ED81EC51605A193900018114730002BE
:1017530081147C00038114870004811492000581A5
:10176300149D00068114A400078114A900088114A4
:10177300B100098114B8000A8114C3000C8114CA92
:10178300000D8114D1005A8114DA005C8114E30046
:101793005B8114EC00B18114F5005F8114FE00FE3F
:1017A30081150B620021FF000010212042306340AD
:1017B3008450A560C670E781089129A14AB16BC125
:1017C3008CD1ADE1CEF1EF123102103273225252BD
:1017D300B5429472F762D693398318B37BA35AD375
:1017E300BDC39CF3FFE3DE2462344304201401648D
:1017F300E674C744A45485A56AB54B85289509E5C5
:10180300EEF5CFC5ACD58D3653267216110630765C
:10181300D766F6569546B4B75BA77A97198738F714
:10182300DFE7FED79DC7BC48C458E5688678A7089C
:1018330040186128023823C9CCD9EDE98EF9AF8964
:10184300489969A90AB92B5AF54AD47AB76A961AFC
:10185300710A503A332A12DBFDCBDCFBBFEB9E9BB4
:10186300798B58BB3BAB1A6CA67C874CE45CC52CCC
:10187300223C030C601C41EDAEFD8FCDECDDCDAD04
:101883002ABD0B8D689D497E976EB65ED54EF43E9C
:10189300132E321E510E70FF9FEFBEDFDDCFFCBF54
:1018A3001BAF3A9F598F78918881A9B1CAA1EBD117
:1018B3000CC12DF14EE16F108000A130C220E35026
:1018C3000440257046606783B99398A3FBB3DAC3DA
:1018D3003DD31CE37FF35E02B1129022F332D24276
:1018E30035521462777256B5EAA5CB95A88589F56A
:1018F3006EE54FD52CC50D34E224C314A0048174C6
:1019030066644754244405A7DBB7FA879997B8E779
:101913005FF77EC71DD73C26D336F2069116B06615
:1019230057767646155634D94CC96DF90EE92F9979
:10193300C889E9B98AA9AB58444865780668271865
:10194300C008E1388228A3CB7DDB5CEB3FFB1E8B19
:10195300F99BD8ABBBBB9A4A755A546A377A160AB5
:10196300F11AD02AB33A92FD2EED0FDD6CCD4DBDA9
:10197300AAAD8B9DE88DC97C266C075C644C453C05
:10198300A22C831CE00CC1EF1FFF3ECF5DDF7CAFB9
:101993009BBFBA8FD99FF86E177E364E555E742E55
:1019A300933EB20ED11EF04823FF32303035303132
:1019B3003331C10D44275F7C2F2D5CC10E41270FAE
:1019C300014C0006000000000000000000000000C1
:1019D3004600000000000000004200120000420C1C
:1019E30014000041277F0C004F4B0041542B4D49FD
:1019F3005053454E443D25642C2200220D00726550
:101A0300637620657272310041542B4D4950505515
:101A130053483D25640D002B4D495052544350000B
:101A23007265637620657272330075706C6F6164E2
:101A3300207265632065727200646F776E6C6F61EC
:101A43006420626C6B2E2E2E00626C6B20657272AA
:101A53002E2E2E00696E697469616C206461696C55
:101A63000041540D004154206572726F720064612D
:101A7300696C20636D6E65742E2E2E0041542B4DC0
:101A8300495043414C4C3D312C22636D6E657422A9
:101A93000D00007830300078303000783030007836
:101AA300303000636F6E6E20737672202E2E2E0000
:101AB30041542B4D49504F50454E3D25642C2564D0
:101AC3002C2225642E25642E25642E2564222C25A4
:101AD300642C300D0041542B4D4950434C4F53451A
:101AE3003D25640D006D69706F70656E20657272BF
:101AF3006F7200636F6E6E20636D6E657420657226
:101B0300720041542B4D495043414C4C3D300D0024
:101B130081EBB581F08081C33181A9948183700009
:101B2300000081E34C81F07481C94681F05B8189B7
:101B3300E000000075C7AA75C755759D0275C7AA51
:101B430075C75575C600787FE4F6D8FD75817202B6
:101B5300001B800200D04BE493A3F85407240CC865
:101B6300C333C4540F4420C8834004F45680014651
:101B7300F6DFE4800C010204081020408090001777
:101B830048E47E019360CCA3FF543F30E509541F22
:101B9300FEE493A360010ECF54E0B4E026E493FB8C
:101BA300A3E493FAA3E493F9A3E493C083C082125A
:101BB300000556D082D083A309E970010ADFEADE6B
:101BC300E880BE54C025E0602B408CE493A3FAE484
:101BD30093A3F8E493A3C8C582C8CAC583CA7593FF
:101BE30000F0759300A3C8C582C8CAC583CADFE3E2
:101BF300DEE1808DE493A3F8E493A34003F6800130
:101C0300F208DFF402001B847761697474696E67FC
:101C13002E2E2E0070726F636573732E2E2E00C9E5
:101C2300E8D6C3CEEFC0ED4944B3C9B9A600D0A3EB
:101C3300D7BCCAB1D6D3B3ACCAB100D0A3D7BCCA40
:101C4300B1D6D3B3C9B9A600636C65617220626C67
:101C530061636B2025630070726F63657373206F1C
:101C63006B00696E697420696E6672617265642EB9
:101C73002E2E00B4F2BFAABAECCDE2CAA7B0DC00A4
:101C8300696E697420706F732E2E2E00B4F2BFAA92
:101C930047505253CAA7B0DC00B4F2BFAAB4AEBFD8
:101CA300DACAA7B0DC00BD0020EF7F08C2A63392DA
:101CB300A500D2A6DFF6C2A67F64D2A5A2A55002D4
:101CC300DFFAD2A60000C2A622BD0120EF7F08C220
:101CD300A73392A500D2A7DFF6C2A77F64D2A5A23D
:101CE300A55002DFFAD2A70000C2A722BD0220EF4F
:101CF3007F08C2963392A500D296DFF6C2967F6420
:101D0300D2A5A2A55002DFFAD2960000C29622EF16
:101D13007F08C2973392A500D297DFF6C2977F64FC
:101D2300D2A5A2A55002DFFAD2970000C2972200E3
:101D33008400000400801A28010080FA0500008056
:101D4300000000000000000000C000000080000050
:101D53000000900000805001020B01008070000021
:101D630000805401000F00725B25645D775B25786A
:101D73005D5B25785D0000A4000002DF0300000026
:101D83000000805001020B010000000011223344C7
:101D93005566000000000000000000000000000085
:101DA30000000000000000000000D2A4C2A400C292
:101DB300A2C2A3BD0004D2A2C2A312001DC222BFAD
:101DC3000012D2A100D2A4008B8000C2A4C2A1122F
:101DD300001DE922D2A000D2A4008B8000C2A4C2BD
:101DE300A012001DE922D2A4C2A4C2A200D2A375EC
:101DF30080FF7400BF0014D2A100D2A400E58000CC
:101E0300C2A400D2A4C2A120E7ED22D2A000D2A492
:101E13000000E58000C2A400D2A4C2A020E7EC2207
:101E2300BF00177D09D2A5D2A60000C2A60000D22A
:101E3300A60020A502DDF4C2A522BF01177D09D2A9
:101E4300A5D2A70000C2A70000D2A70020A502DDEB
:101E5300F4C2A522BF02177D09D2A5D2960000C203
:101E6300960000D2960020A502DDF4C2A5227D09CA
:101E7300D2A5D2970000C2970000D2970020A502F6
:101E8300DDF4C2A522BF00127D08D2A5C2A600A21E
:101E9300A533D2A6DDF6C2A6FF22BF01127D08D26A
:101EA300A5C2A700A2A533D2A7DDF6C2A7FF22BF12
:101EB30002127D08D2A5C29600A2A533D296DDF602
:101EC300C296FF227D08D2A5C29700A2A533D2975E
:101ED300DDF6C297FF22900015F8E0FFA3E0FEA312
:101EE300E0CF90001601F0A3EEF0A3EFF090001501
:101EF300FBE0CBF0A3E0CAF0A3E0C9F07F2290009F
:101F03001604AD82AC83120005248D828C83F0A36A
:101F130009E970010ADFEB900015FBE0FBA3E0FA8F
:101F2300A3E0F902000CD9BF000E12001E88C2A55F
:101F330000D2A60000C2A622BF010E12001E88C254
:101F4300A500D2A70000C2A722BF020E12001E885E
:101F5300C2A500D2960000C2962212001E88C2A516
:101F630000D2970000C29722BADABFA800C3E2B733
:101F7300D1BFA800BFDBBFEE20257320D4AA00D3B6
:101F8300E0B6EE20257320D4AA00C1F7CBAEBAC5C4
:101F93005B256C645D00C7EBD6D8CBA200090403B4
:101FA3000C05BF000AC2A500D2A600D2A50022BF1D
:101FB300010AC2A500D2A700D2A50022BF020AC20D
:101FC300A500D29600D2A50022C2A500D29700D2C6
:101FD300A50022BF0009D2A500D2A600C2A522BF38
:101FE3000109D2A500D2A700C2A522BF0209D2A52A
:101FF30000D29600C2A522D2A500D29700C2A52284
:10200300EFB40A08740D1200200F740A309811A857
:1020130099B8130CC2983098FDA899C298B811F6D4
:102023003099FDC299F59922527463546D5F5645F8
:10203300525F312E3031001F1D1F1E1F1E1F1F1E1A
:102043001F1E1F1F1C1F1E1F1E1F1F1E1F1E1F20A4
:10205300000D0A00303132333435363738394142D6
:102063004344454600E4FFFE12000524600C0FEFD5
:1020730070010E09E970F10A80EE22253032640006
:10208300253032580075C7AA75C75553D8FD227538
:10209300C7AA75C75543D801227E54DEFEDFFA2254
:1020A3000605030102030405060708099000104E04
:1020B300EEF0A3EFF0A3ECF0A3EDF012003FA7FDC9
:1020C3008C83759300240712003E7A742212003F1A
:1020D30011240812003E7A744212003F1124121296
:1020E300003E7A12003F0B12003E78E412003F11CB
:1020F300240F12003E7AE4F0740512003F10240D01
:1021030012003E7AE4F0A37420F07B817A1C790BF1
:102113007D0AE4FF01358112003E1C120041E924CF
:102123000F12003E7AE4F0A3740AF012003E471245
:10213300003E78E4F090001050E0FCA3E08C83753F
:102143009300240C12003EBFEF700D7D037F051238
:1021530000E7CE50C27FA02212003E1C120041E9CC
:10216300240B12003E7AE4F0A37420F0C203C201F0
:10217300E412003FC1F012003E4712003DDFFF248E
:1021830003F8E690001052F0EF2404120040067B9F
:10219300817A1C79171200367F90001052E01200EA
:1021A30008E4303355313B5625B7A12E67B127A735
:1021B300B2326BB32A55B43395B52FCCB631E1B7F0
:1021C300343AB82930B92299C22392C3232BC421AC
:1021D300D9C5000034E312003FCDFB8A8312003DD2
:1021E300DC24041200400630E059E4FF1200414FA2
:1021F3001200406A240812003DE190001108120009
:102203003E891200362D640160030134AD12003E95
:102213001C12003EE812003DE112003E4212003D56
:10222300DF240612003EA290001061E02404F09027
:1022330000106012003E1812003EE912003DE11248
:10224300003F7D90001054E020E1030127A212001B
:102253003E1C12003EE912003DE1120036ADEF6470
:102263000160030124D412003E1C12003EE8120058
:102273003DE112003E4212003DDF2406FF12004101
:10228300F02F7F0712003EA490001061E024071294
:102293000041F70127A212003DD2FF2404F8E6B45F
:1022A3009909EF2405F8E664086003013459120024
:1022B3003E1CFF12003DDA240A12003E422408129B
:1022C300003DE112003EA212003E1C12003EE91244
:1022D300003DE17A00F97B00C003C0011200408990
:1022E30012003E8BD001D0037D0412003695FF12FD
:1022F300003FFB740812003E31240812003DE11236
:10230300003E8512003642640160030134AD1200C1
:102313003E1C12003EE912003DE112003F7D7B812D
:102323007A1C79227D01805412003E1CFF12003D6D
:10233300DA240312003E42240812003DE17F0C120E
:10234300003EDD12003E1C120035F740187B817AF7
:102353001C79317D037F011200DB8E9000105374D2
:10236300A1F00134E612003DD212003F9112006346
:1023730020EF60117B817A1C793E7D037F0112007F
:10238300DB8E0134369000105374FFF00134E612F3
:10239300003E1C120035F7400301303D90001054FD
:1023A300E0FF64016008EF64026003013459120026
:1023B3003DD2120040036008E06401600301345918
:1023C300EF240612003FBBEFF0640E6003012E877B
:1023D3007F401200414E741812003E31240812004F
:1023E3003DE1F99000110812003E8A1200362D6477
:1023F3000160030134AD900010537401F0D2021256
:10240300003E1C12003EE912003DE1FF2416F8E6EF
:102413006455704CEF2417F8E664AA7043900010DB
:102423004EA3E0FF12003DDA240C12003E422408C2
:1024330012003DE124067F0812003FE6EF7002C25E
:102443000212003E1CFF12003DDA12003E40240837
:1024530012003DE112003FE4120042014002C202B9
:1024630020020301250212003E1CFF12003DDA1276
:10247300003E40240812003DE17F0E12003FB012DF
:10248300003E1C12003EE912003DE1FF12003F91A5
:10249300EF240E7F0812003FB012003E1C12003ED4
:1024A300E812003DE12416F8765512003E47240851
:1024B30012003DE12417F876AA7F4012003FFA7418
:1024C3001812003E31240812003DE1120035AE60BF
:1024D30007900010530134AD12003E1C12003EE978
:1024E30012003DE112003F91900010677401F0A3C8
:1024F3007416F0A3744BF01200E91A120040A412F0
:1025030000416760030125AC7F10900011071200A2
:102513003E2C240812003DE1F99000110812003E00
:102523008A120036136007900010530134AD120075
:102533003E1C12003EE912003DE17A00F97B0024C3
:10254300067F0612003EDD7E007F077D0012003EFF
:1025530032240812003DE12410120040AB12003E69
:102563001C12003EE912003DE1120035C28C8312B9
:10257300003DDC12003588240812003DE1120035CD
:10258300AE6007900010530134AD12003E252408BD
:1025930012003DE112003E851200360B60079000E9
:1025A30010530134AD120040A4E412003FC1F0D235
:1025B300010134E6C20212003FA7FD1200416F126F
:1025C300003E7A12003F0B241412003E7A7404F08A
:1025D300A3E412003F1112003DDF240412003FBBAD
:1025E300EFF09000104E703212003DD6FF2405F834
:1025F300E6FDE412003FC1EDF0D202EF120040B459
:102603001200EC8412003F3B90001061E02400FFB5
:1026130090001060E03401FE801912003DD61200D4
:102623003F911200EC8412003F3B90001060E0FEEB
:10263300A3E0FF12003FA78C8375930024141200BC
:102643003E7AEEF0A3EFF0E4FFFE7D08FC9000106D
:102653005512003EB412004064502B12003E1C126F
:102663000040BC12003DE1FEA3E0FF12004177E011
:10267300F8A3A3A3E012004050E4FBFA7908F8D3CF
:10268300120007E3500301345990001055A3A3A38C
:10269300E0540FFFE4FEFDFCFBFAF9F8C312000758
:1026A300E36003012E8712003E1C120040BC12009F
:1026B3003DE1FAA3E0FBD39438EA940050361200CC
:1026C3003E92EB12003FC88A8312003DDC2406F9D8
:1026D3009000110812003E8A120036136007900022
:1026E30010530134ADC20312003E1C12003E73E4CA
:1026F300F001278C12003E1C12003E737401F0D2CD
:10270300031200407712003E1C120040BC12003D31
:10271300E1120040925072C3EF9DFFEE9CFEC3EFA7
:102723009440EE940040047F4080009000105DEFE1
:10273300F012003E9B1200417712003EB41200409B
:10274300509000105DE09000110712003E312412FA
:1027530012003DE1FAA3E09000105E1200412890C0
:1027630000110812003F2D1200364D600990001031
:102773005374B1F080139000105DE0FF9000105F80
:10278300E02F120040C401270812003E1C12004033
:10279300BC12003DE1FFA3E0CF12004140EFF0D2B5
:1027A3000101343612003E1C120036014003013091
:1027B3003D7F601200414E742012003E3124081206
:1027C300003DE1F99000110812003E8A1200364DD7
:1027D3006007900010530134AD90001054E0702254
:1027E30012003E1CFF12003DDA240612003E422472
:1027F3000812003DE112003FE412004201400301D0
:102803002AB012003DD21200365D12003F3B7FA07A
:102813007E867D017C009000105512003EB4FBD3F0
:10282300120007E34003012E8712003DD2F9240F63
:10283300F8E6D394604003012E87E91200366990CD
:1028430000105EEEF0A3EFF0E4FCFD7B407A7E79AE
:1028530005F8C3120007CD40109000105FE0943CD0
:102863009000105EE094005003012E877E007F20CD
:102873007DFF12003E32240812003DE1120040ABFE
:1028830012003E1CFF12003DDA240612003E4224D1
:102893000812003DE1F87C007D007F0C12004161CD
:1028A30012003E1C12003EE912003DE1F97A007B62
:1028B300007D1E7C00120035E18C83759300240893
:1028C30012003DE1241EF97A007B001200EE217F05
:1028D3006012003FFA742012003E31240812003DBA
:1028E300E112003E851200360B6007900010530181
:1028F30034AD12003DD2240678657C167F061200A3
:102903003DC51200365D9000166B1200088F120051
:102913003DD2FF240FF8E690001671F0EF12003657
:10292300699000166FEEF0A3EFF001343612003E0B
:102933001C12003601400301303D1200405C60036D
:10294300013459120040CE12003E1BFF12003DDA43
:1029530012003E40241212003DE112003E60A8071F
:102963007F3912003FF112003E1C12003F44120057
:102973003DE11200420812003E64CF2439CF3400F7
:10298300A8077FC712003FF112004077120040D81A
:10299300C3EE940150471200410112003FA71200F9
:1029A300416F12003DE1FCA3E0FD8C83120041DF87
:1029B30012003DE6C394054012120040D8120041B4
:1029C3000112003F1212003F9BE4F09000105FE001
:1029D30004F070079000105EE004F080AF12004036
:1029E30077120040D8C3EE94015048EF24C0FFEEA5
:1029F300340EFEE43403FDE433FC9000110774400D
:102A030012003E31241212003DE1FAA3E0900010BF
:102A1300621200412812003F1C120036426401601A
:102A23000574B1F0800D9000105FE0244012004067
:102A3300C480AE12003E1C12003F4412003DE1125E
:102A4300003E6078A57C171200417F7E017F000164
:102A5300302812003E1C1200361B400D12003E1C93
:102A630012003E73E4F001344912003FCDFB8A8328
:102A730012003E75E4F07F807E0D7D0312003F3A25
:102A83001200405C60319000167EE0602A12004024
:102A93006D12003DDF120040B4787F7C167D017E0D
:102AA300007F0612000A1E12004201400A90001025
:102AB300537401F00134E6120040CEF012003DD20F
:102AC3001200400364016003012B7E12003FA7FD47
:102AD30012003F9012003F12241212003DE1120037
:102AE3003DED12003F4312003DE112004187C083D8
:102AF300C08212003EFC12004212D082D083120028
:102B03003FD67455F012003E47241212003DE112E5
:102B130000418FC083C08212003EFC12004219D0D4
:102B230082D08312003F9974AA12003E1BFF120049
:102B33003DDA240C12003E42241212003DE1120041
:102B43003E607E0012003EF1120040E212003E138E
:102B530012003F4412003DE112003E60A807FC7DD5
:102B6300017B017A1679A57E017F0012004046247D
:102B730000120042203401F0012D0E90001054E0A9
:102B830064026003012C5812003E1CFF12003DDA60
:102B930012003E40241212003DE112003DED1200EE
:102BA3003F4312003DE112004187C083C0821200FF
:102BB3003EFC12004212D082D08312003FD67455DD
:102BC300F012003E47241212003DE11200418FC073
:102BD30083C08212003EFC12004219D082D08312BD
:102BE300003F9974AA12003E1B12003F4412003D9D
:102BF300E112003E60A807FC7D017B017A1679850E
:102C03007E0012003EF6120040E212003E13FF1255
:102C1300003DDA240D12003E42241212003DE1125F
:102C2300003E60A8077F3312004041243312003E68
:102C33001312003F4412003DE11200420812003E0D
:102C430064A8077FCD1200404124CD1200422034F6
:102C530000F0012D0E90001054E064036003012D79
:102C63000B12003E1C12003F4312003DE1FCA3E0A7
:102C730024041200419712003E47241212003DE142
:102C830012003DED12003F4312003DE11200418767
:102C9300C083C08212003EFC12004212D082D08355
:102CA30012003FD67455F012003E47241212003D25
:102CB300E11200418FC083C08212003EFC12004229
:102CC30019D082D08312003F9974AA12003E1B12BE
:102CD300003F4312003DE1FCA3E0240A12004197A8
:102CE30012003E47241212003DE112003E607E01B5
:102CF30012003EF1120040E2120042203401F09033
:102D030000167E7401F08003013459900010607442
:102D130001F0A3742812003E1B12003F4412003D31
:102D2300E1FEA3E02400FFEE3402FAA9077B017D54
:102D3300287C01120035E11200416F12003DE1FCD5
:102D4300A3E02400FDEC3402FC90001061E02DFDB3
:102D530090001060E0120041991200EE21900010E3
:102D630061E02402120041F71200407790001060E6
:102D7300E012004092506EC390001061E09DFF90FE
:102D8300001060E09CFEC3EF9420EE940040047FAB
:102D93002080009000105DEFF012003E9B12004176
:102DA3007712003EB4120040509000105DE0900096
:102DB300110712003E31241212003DE1FAA3E02470
:102DC30000FBEA340212003F1C1200362560099012
:102DD30000105374B1F0800D9000105FE0242012B6
:102DE3000040C48087120040CE12003E1B12003FF9
:102DF3004412003DE112003E60FAA9077B01787F8F
:102E03007C167F0612003F8890001063E0240812AE
:102E1300003E1312003F4412003DE112003E607871
:102E2300857C161200417F7E0012003EF6120040A0
:102E3300E212003E1312003F4412003DE112003E35
:102E430060FAA9077B0178A57C167D017E017F00CE
:102E530012000AB1E412003FC1F090001053F0C217
:102E6300010134E690001054E0B4550D12003DD238
:102E7300FF2405F8E664AA60028009EF2406F8E659
:102E83006406600A9000105374A4F00134E67E00D7
:102E93007F027D0012003E32240812003DE1120041
:102EA30040AB1200413612003E32240812003DE1CD
:102EB300F97A007B001200E89612003E1C12003ED5
:102EC300E912003DE17A00F97B00C003C00124034D
:102ED3001200408B12003E8BD001D0031200363813
:102EE300FFFEFDFC12003E32240812003DE11200F9
:102EF3003F911200E89612003E1C12003EE91200B8
:102F03003DE1FF12003F91C003C001EF240912000D
:102F1300408B12003E8BD001D00312003638FFFEE7
:102F2300FDFC12003E32240812003DE1240CF97A24
:102F3300007B001200E5C412003E1C12003EE812A2
:102F4300003DE12417F876FF12003E4724081200E3
:102F53003DE1120035C28C83759300240812003DB5
:102F6300E112003588240812003DE112003E85126B
:102F73000036256007900010530134AD12003E2542
:102F8300240812003DE112003E8512003655600709
:102F9300900010530134AD9000165C1200400E12E5
:102FA300004136900016581200088F9000167612D2
:102FB30000400E9000165774FFF0E4FFFEFDFC90F6
:102FC3000016601200088F806012003FCDFB8A83D9
:102FD30012003DDCF9240512003FBBEFF0D394103F
:102FE300EE94004003013459120041F0240629F8FD
:102FF300E4F67FD012003FFB1200406A12003DDF6F
:10300300240612003E8512003655600790001053C7
:103013000134AD12003DD212003F9178EC7C187D53
:10302300017E007F1012000AB1120040A401338A0E
:1030330012003E1C1200361B4003013449E4FFFE1C
:10304300FD12003F3A90001054E070381200D26431
:10305300EF4E700A90001053745DF00134E6E4FF04
:10306300FEFDFC9000165C12003EB412004064703A
:10307300097FC07E107D03FC80349000165C120033
:103083003E96802A12004167702A12003DD2FF2427
:1030930005F8E66404600301345912003F901200FE
:1030A30036889000105912003E961200B4E61200C2
:1030B3003F3B80030134599000105512003EAF127C
:1030C30000406460151200413690001055E0F8A3EB
:1030D300A3A3E0C3120007E3500301345912003ED7
:1030E3009290001107744012003E31241212003DE9
:1030F300E1FAA3E0F99000110812003F3012003604
:103103009D6007900010530134AD12003E1CFF1266
:10311300003E737401F012003E47241412003E7AFD
:10312300E4F0A37440F01200413F7440F0120040F9
:10313300A4D201D2030134E61200416760030134D3
:103143005912003DD2FF2405F8E6640460030134FC
:103153005912003F90120036889000165C12003E10
:103163009690001107744012003E31241212003D64
:10317300E1FAA3E0F99000110812003F3012003683
:103183009D6007900010530134AD12003E1C1200E5
:103193003F4412003DE1FEA3E02405FFE43EFAA90B
:1031A300077B011200EA1C12003F3B9000105912EA
:1031B300003E969000105512003EB4120040646029
:1031C3000A90001053745EF00134E61200959E12CB
:1031D30000422760030134E6D201E401338A12007E
:1031E3003E1C1200367540030134491200EF9B1256
:1031F300003E1C12003EE912003DE1120036AD1202
:10320300003E1C12003EE912003DE1FF120041D8CE
:10321300C003C001EF1200408912003E8BD001D0E1
:10322300037D03120036957F8012003FFB74061264
:10323300003E31240812003DE10412003E851200D5
:1032430036A56007900010530134ADE49000167268
:10325300F090001053F0C20112003FC1F07D647F73
:103263000B1200B60B0134E612003E1C1200367539
:1032730040030134491200405C6003013313FE7FB5
:1032830020FD120040FA12000955E47F207E01FD63
:1032930080787F3F7E0D7D037C00900010551200E7
:1032A3003EB41200406440030134E612003E9290A3
:1032B300001107742012003F65120036A5600790C5
:1032C3000010530134AD7B817A1C794B12003E927E
:1032D3007805120007F4EF5403FFE4FE745F2FF543
:1032E30082EE342712003DE69000158DF012003671
:1032F3007F90001055E0FCA3E0FDA3E0FEA3E024D3
:1033030020FFE43EFEE43DFDE43C12003F3A8082B0
:1033130090001054E0707812003DD212004004D3A4
:10332300940A4003013459E49000105DF012004107
:10333300A0FEC39F502B12003FA78C8312003DDCDD
:10334300240DFFEE25E025E02FF97A007B00120023
:10335300B1671200422770099000105DE004F0800D
:10336300CC120041A0C39F50030134E612003DD2AA
:10337300120040B41200DB03120042276003013441
:10338300E6120040A4C20112003FC1F00134E6017D
:1033930034591200405C60030134597F607E0D7D17
:1033A300037C00740A12003FC88A8312003DDC24A8
:1033B30006F99000110812003E8A12006B63EF6455
:1033C300016007900010530134AD12003DD2FF2479
:1033D3000DF8E6B45509EF240EF8E664AA600280FE
:1033E3003512003DD212003F917D067C001200E8A9
:1033F3005412003FA78C8312003DDCFE240CF8E638
:103403006F601E90000002EE12003F917D00AE83BC
:10341300AF821200095512003DD2240CF876AA801F
:103423000912003DD2240CF876FFD2011200413F6D
:103433007407F0E40134DC12003E1CAA06F97B0198
:103443001200C24C400A9000105374A5F00134E6F8
:103453001200405C600A90001053745CF00134E683
:1034630012003DD2FF120040B4C003C001EF240D8F
:103473001200408B12003E8BD001D0037D067C00EE
:103483001200E743E47FF012003FFB740C12003F8D
:10349300CC8A8312003DDC240712003E85120055BE
:1034A3004AEF640160099000105374B1F080341244
:1034B300003DD2240778307C197F0412003DC524D7
:1034C3000BF97A007B001200EF4190001934EEF003
:1034D300A3EFF0E412003FC1F090001053F080031B
:1034E3007FA32290001052E0FF12003FA7FD8C83C0
:1034F30012003DDC2403F8A60790001053E0FF12EE
:10350300003F1212003DDF2404F8A6072003321205
:10351300003DD2F97A007B00120041F0FDA2019236
:10352300041200B0299000105DEFF0FD12003E1C64
:10353300120041E9240912003E7AE4F0A3F0FC8072
:103543002012003E1CAA06F97B0112004110A201C1
:1035530092041200A578501C12003E1CFF12004179
:103563001090001050E0FAA3E08A837593002406BC
:1035730012003EBF7B817A1C795AE4FD7F01120061
:10358300DB8E01211A2418F97A007B001200EE2148
:10359300E47F10FEFDFC90001107741AF0900010F8
:1035A3004EE0FAA3E08A8375930022F99000110894
:1035B300E4F0A3F0A3E9F01200554AEF640122F905
:1035C3007A007B007D187C001200E1479000105EBA
:1035D300EEF0A3EFF09000104EE0FCA3E022120007
:1035E300E1479000105EEEF0A3EFF09000104EE084
:1035F300FCA3E022AA06F97B011200C24C22AA0610
:10360300F97B011200C24C221200554AEF640122D9
:1036130012006B63EF640122AA06F97B011200C258
:103623004C221200554AEF64012212006B63900092
:103633001053EFF0227D037C001200E743E42212D3
:1036430000554A90001053EFF02212006B63EF64B1
:1036530001221200554AEF640122240CF97A007BFF
:10366300001200EC84222410F97A007B001200EF90
:103673004122AA06F97B011200C24C22E4FD7F011C
:103683001200DB8E221200EA1C900010591200086F
:103693008F227C001200E743E42212006B63EF6485
:1036A30001221200554AEF640122F97A007B0012CD
:1036B300004E292290001604EFF0A3EDF0A3EBF0E7
:1036C300A3EAF0A3E9F0E49000160AF0A3F0900057
:1036D300160DF090001614F0A3F0A3F0A304F0A3CA
:1036E300F0E4A3F0A3F0A3F0A3F0A3F0F514F51313
:1036F300F512F5111200EF0B90001606E0FBA3E0A4
:10370300FAA3E0F9120020689000160CEFF0900085
:103713001609E060099000161E74FFF08006E4901D
:1037230000161EF090001604E025E09000160BF042
:10373300A3E0F9FD90001605E0FE2DFDE433FCC384
:10374300ED9410EC648094804003013839EEC39407
:10375300084042E490001614F090001605E0940827
:1037630090001615F0E49000160EF090001610E984
:10377300F0E0FFC313FEA3F0E49000160FF09000F7
:10378300161DEEF0EF540190001613F0E4900016AE
:1037930012F00138E890001605E0FF90001614F0CF
:1037A3009000160CE0FEFDEF2DFDE433FCC3ED9419
:1037B30008EC6480948050099000160EEEF0E480CB
:1037C3001790001605E0FFC374089FFF9000160EC4
:1037D300F09000160CE0C39F90001610F0E49000E8
:1037E3001615F09000160EE0FFC313A3F090001619
:1037F3001CF0EF540190001612F090001610E0FF39
:10380300C313A3F09000161DF0EF5401900016139C
:10381300F070030138E890001612E070030138E8F5
:1038230090001615E004F090001611E004F0E0900B
:1038330000161D0138E090001605E0C394084042CD
:10384300E490001612F090001605E0FF74109F90AC
:10385300001610F0E49000160EF0A3F0900016147A
:10386300F0C3EF9408A3F090001610E0FFC313A376
:10387300F09000161DF0EF540190001613F06065F0
:10388300805C90001605E0FFC374089F9000160E3D
:10389300F0900016107408F090001614EFF0E4A3F3
:1038A300F09000160EE0FFC313A3F09000161CF077
:1038B300EF5401FF90001612F090001610E0FEC3C3
:1038C30013A3F09000161DF0740854019000161312
:1038D300F0EF60117401F090001615E004F0900011
:1038E30016197401F0E49000160DF09000160CE028
:1038F300FFA3E0C39F4003013DBF12002092E49069
:10390300001616F09000160DE0FD900016457401A8
:10391300F0A37416F0A3743FF090001606E0FBA327
:10392300E0FAA3E0F91200CE12EF64026003013D56
:10393300B59000163FE0FEA3E0FF1200D9528F14AA
:103943008E138D128C117F407E047D047C00AB149A
:10395300AA13A912A811C3120007E3505BE4F515DB
:1039630075BE01E42514FBE43513FAE5123430F98E
:10397300E43511F8E4FCFDFEEB2515FFEE3AFEED10
:1039830039FDEC38FCE42FFFE43EFEED3401FDA9E4
:1039930007AA06AB0512000524F516E4F5BE741F4D
:1039A3002515F582E43416F583759300E516F005C5
:1039B30015E515B420AA80107E007F207DFF7B01D2
:1039C3007A16791F120009559000160FE0D3940060
:1039D3005003013AFA9000161CE0FF9000161AE01B
:1039E3009F4003013AFA9000160BE044B8FB7D01B7
:1039F300E4FF12001DAD90001617E0600B90001657
:103A030014E075F008A480139000161AE0C454F073
:103A1300FF90001614E075F008A42F4440FB7D01CD
:103A2300E4FF12001DADE49000160AF09000160AA0
:103A3300E0FFC394105028741F2FF582E43416F569
:103A430083759300E0FF9000161EE0FEEF6EFBE42B
:103A5300FDFF12001DAD9000160AE004F080CD902A
:103A630000160BE00444B8FB7D01E4FF12001DAD1A
:103A730090001617E0600B90001614E075F008A490
:103A830080139000161AE0C454F0FF90001614E05F
:103A930075F008A42F4440FB7D01E4FF12001DAD27
:103AA3009000160A7410F09000160AE0FFC39420E9
:103AB3005028741F2FF582E43416F583759300E0C4
:103AC300FF9000161EE0FEEF6EFBE4FDFF12001DEB
:103AD300AD9000160AE004F080CDE490001617F0D4
:103AE3009000160FE014F0E070069000161604F034
:103AF3009000161AE004F09000160FE06003013DF9
:103B0300B590001611E0D394005003013DB5900029
:103B13001616E064017003013DB59000161DE0FF29
:103B23009000161BE09F4003013DB590001613E083
:103B33007003013C9890001612E07003013C9890CA
:103B430000160BE044B8FB7D01E4FF12001DAD7BC2
:103B5300787D01E4FF12001DADE49000160AF09099
:103B630000160AE0FFC394085028741F2FF582E45F
:103B73003416F583759300E0FF9000161EE0FEEF08
:103B83006EFBE4FDFF12001DAD9000160AE004F089
:103B930080CD9000160BE00444B8FB7D01E4FF12D6
:103BA300001DAD7B787D01E4FF12001DAD90001672
:103BB3000A7410F09000160AE0FFC394185028749A
:103BC3001F2FF582E43416F583759300E0FF900010
:103BD300161EE0FEEF6EFBE4FDFF12001DAD90002C
:103BE300160AE004F080CD9000160BE044B8FB7D8C
:103BF300017F0112001DAD7B407D017F0112001D7D
:103C0300AD9000160A7408F09000160AE0FFC39402
:103C1300105029741F2FF582E43416F58375930031
:103C2300E0FF9000161EE0FEEF6EFBE4FD7F011245
:103C3300001DAD9000160AE004F080CC9000160B36
:103C4300E00444B8FB7D017F0112001DAD7B407D84
:103C5300017F0112001DAD9000160A7418F0900048
:103C6300160AE0FFC394204003013D9E741F2FF505
:103C730082E43416F583759300E0FF9000161EE08E
:103C8300FEEF6EFBE4FD7F0112001DAD9000160AEE
:103C9300E004F080C99000160BE044B8FB7D017F7F
:103CA3000112001DAD90001618E0600FA3E0600B39
:103CB30090001615E075F008A480139000161BE021
:103CC300C454F0FF90001615E075F008A42F44408B
:103CD300FB7D017F0112001DADE49000160AF01276
:103CE3000020929000160AE0241FF582E43416F5B2
:103CF30083759300E0FF9000161EE0FEEF6EFBE479
:103D0300FD7F0112001DAD9000160AE004F0E0C330
:103D1300941040CB9000160BE00444B8FB7D017F68
:103D23000112001DAD90001618E0600FA3E0600BB8
:103D330090001615E075F008A480139000161BE0A0
:103D4300C454F0FF90001615E075F008A42F44400A
:103D5300FB7D017F0112001DAD9000160A7410F067
:103D63009000160AE0FFC394205029741F2FF58298
:103D7300E43416F583759300E0FF9000161EE0FE11
:103D8300EF6EFBE4FD7F0112001DAD9000160AE00B
:103D930004F080CC9000161BE004F0E490001613AE
:103DA300F090001612F090001618F090001611E033
:103DB30014F09000160DE004F00138EEE4FF020069
:103DC300EF10F97A007B007D017E0012000AB190AA
:103DD30000104EE0FEA3E08E837593002407F58266
:103DE300E43583F583759300E022FEA3E0FF9000A2
:103DF3001062E0FCA3E0FDEF2DFFEE3CA807FC7D85
:103E0300017E007F0612000AB190001063E02406D1
:103E1300F090001062E03400F09000104EE0FEA33A
:103E2300E022E47FA090001107FEFDFC741AF090DD
:103E330000104EE0FAA3E08A83759300222407F969
:103E43007A007B008F828E83759300E58222F8A629
:103E53000790001064E0FBA3E0FAA3E022FEA3E0D6
:103E6300FF90001062E0FCA3E0FDEF2DFFEE3C228B
:103E73008E837593002411F582E43583F58375935E
:103E8300002290001108F9E4F0A3F0A3E9F02290D6
:103E9300001055E0FCA3E0FDA3E0FEA3E0FF227FBA
:103EA30004F87C007D007E0002000AB1E4FFFEFD01
:103EB300FCE0F8A3E0F9A3E0FAA3E022F582E435FD
:103EC30083F583759300E493FB740193FA7402936F
:103ED300F5828A838B930200094EF87C007D007E75
:103EE3000002000AB1FF8E83759300240822A807FD
:103EF300FC7D017F2002000AB175930090001062DF
:103F0300E475F001020006207419F074CFA3F08D5C
:103F1300828C83759300E58222FA9000105EE0F8AC
:103F2300A3E02BFBE83A90001108FAA9037401F00F
:103F3300A3EAF0A3E9F022FC900010550200088FD9
:103F4300FF8E83759300241222A3E0FAA3E02412C8
:103F5300F9E43AFA020006367F607E0D7D037C00A9
:103F6300740AF0A37401F0A37419F0A374CFF022C0
:103F73002407F9E43AFA02000524F97A007B007871
:103F8300537C167F047D017E0002000AB1EF2406F4
:103F9300F97A007B0022E5822FF582E5833EF583E3
:103FA300759300229000104EE0FCA3E022F87C0001
:103FB3007D007E0002000AB1F8E6FF7E00EE90006D
:103FC3001060F0A32290001107F09000104EE0FA69
:103FD300A3E022E5822DF582E5833CF5837593000A
:103FE300227F06F87C007D007E0002000A1EFC7D15
:103FF300017E0002000AB1E4FEFDFC9000110722DD
:10400300FF2405F8E690001054F022E4FFFEFDFCC7
:104013000200088FFEE5F02403FFE43EFEE92FF9DA
:10402300EA3EFA74C302000556900010CBA3A3E046
:10403300FEA3E0FDAC0624CFF58274193C22FC7D7F
:10404300017E0012000AB190001063E0222FFFEA04
:104053003EFEED39FDEC38FC2290001054E06499EB
:1040630022FBC3020007E37410F08B828A837593EB
:1040730000E58222E49000105EF0A3F0227E107F20
:10408300377C1B7D13222404F990001108EB22FED8
:10409300A3E0FF9000105EE0FCA3E0FDC39FEC9E55
:1040A30022E490001053F022F97A007B0002000909
:1040B300552407F97A007B00228E8375930024141C
:1040C30022F09000105EE03400F022900010627441
:1040D30002F0A3E4229000105EE0FEA3E0FF229032
:1040E300001063E02420222414F9E43AFAE475F082
:1040F300010200065A7D017B017A1979CF229000D3
:104103001063E02FFF90001062E03EFE229000104B
:1041130060E0FCA3E0FD22FAEF12000556900010C8
:1041230068E004F022FBE0F8A3E0F582EB2582FBD4
:10413300EA38227FC07E107D037C0022E4900010C9
:1041430060F0A322FFFDFC0200088FE4FEFDFC905B
:104153000011072290001067E004F0227F067E0022
:1041630002000AB190001054E06401228C8375931D
:1041730000241222E4FCFD9000105522FAA9077BCB
:10418300017D0122FCA3E0F5828C8322FEA3E0F5EE
:10419300828E8322FDE43CFAA9057B012290001064
:1041A30054E0FF9000105DE022FE90001064A3E055
:1041B300FAA3E02274CF2DF58274193CF58322759E
:1041C3009300E0FF900010CAE02278CF7C197D01B4
:1041D300900010C32204F97A007B00227593002F0C
:1041E300F582E5833E22FF8E8375930022900010B3
:1041F30060A3E022F090001060E03400F022C3EFEF
:104203006480948022FEA3E0FFAA06F97B0122AD1D
:10421300F0FC75930022AFF0FE75930022F090003E
:104223001062E02290001053EFF0227DB17C007EFB
:104233000422900010867401F0E4A3F0A37407F045
:104243007F0112009ACC90001085EFF014601624C1
:10425300FC602D2403702C90001087E0D394004061
:1042630022E014801190001088E0FF90001087E096
:10427300C39F500FE004F0900010867401F0800398
:104283007F002290001086E060B67F447B017A10A5
:1042930079371200677490001087E0B40800400378
:1042A300014560900042AF25E025E073020042CF54
:1042B3000200433A02004381020043C20200441554
:1042C30002004464020044AA020044ED7481120017
:1042D30066FA7415F074CF120045D07481F0A3749C
:1042E30015F0A374DAF090001653120067339000B0
:1042F300165412006768900016551200686090000B
:104303001656E0FF9000160AE4120045E17481F0AE
:10431300A37415F074EB120046361200EF9B7B0179
:104323007A10797B12004E29120067E87B017A101C
:10433300797B7D070144A37481120066FA7415F03A
:1043430074F4120045D012006790900016761200A4
:10435300459E7481F0A37416F07408120045F4129C
:104363000067909000167A120066ABE4120000CD4D
:10437300E4FBFA79C878421200002B01440A7481E5
:104383001200670B7416F0741512004605120067CD
:10439300909000166B1200459E7481F0A37416F082
:1043A300741E120045F47481F0A37416F0A3742BE9
:1043B300F090001671E0FF90001604E4014552747A
:1043C300811200670B7416F0743112004605748174
:1043D300F0A37416F0A3743AF09000166F120068FD
:1043E300A9120045E17481F0A37416F07440120021
:1043F30046367481120067237416F0A3744BF09051
:10440300001660120066AB900016041200088F01BC
:1044130045567481120067237416F0744F120046D8
:10442300431200D26474811200675B7416F0A374A4
:104433005AF0A3EEF0EF1200465074811200675B4E
:104443007416F0A37460F07A1079591200461612AC
:104453000068197481F0A37416F0A3746CF001451D
:104463005674811200679C7416F0747612004643EA
:1044730074811200679C7416F0A37480F090001688
:1044830072E090001604120046257B817A16798625
:1044930012006822120067E87B017A1979247D06ED
:1044A3001200DC9E0145607481120068497416F0A5
:1044B300A37493F07A107937120046161200681924
:1044C3007481F0A37416F07499120046507481122B
:1044D300006849120068197481F0A37416F0A3747C
:1044E300A5F07B017A107959806F78377C107D01B4
:1044F3007B817A1679AE12000B3E9000160174810F
:10450300F0A37416F0A374B7F0900019301200678B
:104513003390001931120067689000193212006855
:104523006090001933E09000160A120046257B8143
:104533007A1679C312006822900016017481F0A3E1
:104543007416F0A374CEF090001934120068A9F029
:10455300A3EFF07B017A10796A12000CD9E4900082
:104563001086F01200EE70E490001085F0900010B9
:1045730085E0FFC394044003014243EF75F011A4A7
:104583002437F9741035F0FA7B011200672B1200FF
:10459300AEE490001085E004F080D2E0FCA3E0FDDF
:1045A300A3E0FEA3E0FFE4120000CDE4FBFA79C828
:1045B30078421200002B900016041200088F7B0132
:1045C3007A10794812000CD99000160122A3F07BCF
:1045D300017A10793712000CD99000160122F0A34A
:1045E300EFF07B017A10794812000CD99000160184
:1045F30022A3F07B017A10795912000CD99000168E
:104603000122A3F07B017A10793712000CD99000B4
:104613001601227B0112000CD9900016017481F05F
:10462300A322FFE4F0A3EFF07B017A107948120094
:104633000CD922A3F07B017A10795912000CD922EC
:10464300A3F07B017A10793712000CD922A3F07BF7
:10465300017A10794812000CD92290001037EFF03C
:10466300E490001040F0A3F0A3F0A3F0A3F0A3F0B4
:10467300A3F0A3F0A3F0A3F09000104BF0A3F07FFE
:10468300011200EFAF75BE017B317A00790074F738
:1046930012000556E4F5BE7F0A1200000375BE0141
:1046A3007B317A00790074F812000556790CE41214
:1046B300000556790F12000524F511E4F5BEFF122B
:1046C30000E8237F281200209CE4F5BE9000103CF4
:1046D300E0FFC394014006EFD3940340037F00221D
:1046E30090001037E0FF64016004EFB40405751116
:1046F300F980037511FA75BE017B317A007900E503
:104703001112000556790CE41200055679011200C6
:104713000524F5115311D8E51112000556120005B1
:1047230024F511790574FF12000556E4F5BE7F8068
:104733007E25FDFC90001038E0F8A3E0F9A3E0FA31
:10474300A3E0FBC3120007E370028042E4FF7E4B49
:10475300FDFC90001038E0F8A3E0F9A3E0FAA3E031
:10476300FBC3120007E370057511068024E4FF7E86
:1047730096FDFC90001038E0F8A3E0F9A3E0FAA35B
:10478300E0FBC3120007E370057511038003751185
:104793000C75BE017B317A007902E51112000556D2
:1047A300E4F5BE9000103CE0FFB4010575110880EC
:1047B3000CEFB402057511028003E4F51175BE0117
:1047C3007B317A007907E51112000556790312004F
:1047D3000524F5115311F74311645311FEE511122A
:1047E300000556790612000524F5114311015311F2
:1047F300F7E51112000556E4F5BE7F011200E82328
:1048030075BE017B317A00790C12000524F511E4A1
:10481300F5BE7F321200209C75BE017B317A007990
:104823000C12000524F5117F011200ECE7E41F12BE
:1048330000EC1DE4F5129000104BF0A3F090001073
:104843004BE0FEA3E0FF7DE87C031200EFD7EF60AF
:1048530005E4FF014A7F7B007A0079111200E21F11
:10486300EF601EE4F5BE9000103DE0FBA3E0FAA369
:10487300E02512F9E43AFAE5111200055605128013
:10488300129000104CE004F070B39000104BE00461
:10489300F080AAE49000104BF0A3F090001041F0D8
:1048A30075BE017B31FA790974C012000556790B84
:1048B3007425120005561974801200055679087480
:1048C30065120005567B007A0079111200E21FEF92
:1048D3007003014A1375BE017B317A00790B74258D
:1048E3001200055619748012000556E4F5BE9000B7
:1048F300103DE0FBA3E0FAA3E02512F9E43AFAE560
:104903001112000556E512640170709000103DE02D
:10491300FBA3E0FAA3E02401F9E43AFA1200052428
:10492300FF540F90001041F0EF30E40BA37401F03B
:1049330090001041E004F01200052430E50E9000D1
:1049430010437401F090001041E004F012000524BC
:10495300FF30E60E900010447401F090001041E027
:1049630004F0EF30E70E900010457401F090001052
:1049730041E004F09000104A7402F0E51264027002
:104983005690001042E0604F9000103DE0FBA3E022
:10499300FAA3E02402F9E43AFA12000524540F249E
:1049A300FE600B14601124FB60162407801B90002B
:1049B30010407406F08019900010407403F08010CA
:1049C300900010407401F0800790001040740CF0C8
:1049D3009000104AE004F090001041E0046512706A
:1049E3002BA3E0601CE4F5BE90001040E0F51175C8
:1049F300BE017B317A007902E51112000556E4F518
:104A0300BEE4F5BEFF1200EFAFAF122205128026FF
:104A130075BE017B317A00790E12000524F511E48D
:104A2300F5BEE51120E7030148C8E4FF1200ECE7F7
:104A33001200E811804675BE017B317A00790E12AF
:104A4300000524F511E4F5BEE51130E510900010E2
:104A53004CE004F070079000104BE004F09000105D
:104A63004BE0FEA3E0C3940AEE940050030148C850
:104A7300E4F5BEFF1200ECE71200E8111200EFAFFD
:104A8300221200C5DDEF6401600F7B817A15796125
:104A93007DB17C007F5D014DA41200EF9B7B017A09
:104AA3001879A512004E29E47F401200674A741852
:104AB3001200660A12004E03600F7B817A15796833
:104AC3007DB17C007F66014DA4E538B45506E53918
:104AD30064AA600F7B817A15796D7D5C7C007F6BA6
:104AE300014CC278287C007A0079307F0612006777
:104AF3003FEF600F7B817A1579737D5C7C007F705B
:104B0300014CC2900010677401F0A37416F0A374F3
:104B13004BF07B007A0079281200E91A7F601200BB
:104B2300674974201200660A12004E0360091200DE
:104B330067A37F7B014DA4120067147D1E7C0012C6
:104B4300004E13F07B007A0079421200EE21784088
:104B53007C007A0079427F021200673FEF600F7B8F
:104B6300817A15797C7D5C7C007F83014CC27865FA
:104B73007C16120066177B007A0079281200EC84F9
:104B83009000166B1200088F90001671E52BF07BD6
:104B9300007A00792C1200EF419000166FEEF0A31B
:104BA300EFF0E47F801200674A74061200660A126F
:104BB300004E0B6009120067A37F8D014DA4120004
:104BC30067C27400F074281200671212004E207836
:104BD300257C007D007A007928120066BD603B7851
:104BE300227C00120067F81200663D120067C2744F
:104BF30000F074251200671212004E207F8012000D
:104C0300681074061200660A1200554AEF640160C8
:104C130009120067A37F97014DA490000C1F740134
:104C2300F0A37418F0A374A6120067131200E2E84D
:104C330090001672EFF01200EFFC50037F05221272
:104C430000682C12006878942AEA94015026EB2419
:104C530080FFEA340D1200665512004E0B600F7B85
:104C6300817A1579827DB17C007FA5014DA4120064
:104C730067CA80CFE49000167EF0900019D5E0B4A7
:104C83005506A3E064AA6008120068837FAC802FF6
:104C93007B017A1979CF7D287C0112004E13120013
:104CA30067131200EE2178227C007B017A1A79F7D0
:104CB3007F0212006858EF600F120068837FB37E93
:104CC300011200BD907F5C22787F7C167A1979CF20
:104CD3007F061200670178857C167A1979D77F20C1
:104CE3001200670178A57C167D017B017A1979F79B
:104CF3007E017F0012000AB1E47FD01200674A747C
:104D0300201200660A12006B63EF6401600F7B815F
:104D13007A15798D7DB17C007FBD014DA478EC7C43
:104D2300187F1012006619E4900018FCF012006757
:104D3300C37400F0A37442F0120068357D047C0054
:104D43001200E74378427C007B007A0079367F04C7
:104D530012006858EF6007E4FFFEFDFC80081200B4
:104D630068351200EA1C9000167A1200088FE4904E
:104D7300001664F01200682D12006878EA9401505E
:104D83002FEB24C0FFEA340E1200665512006B634A
:104D9300EF640160157B817A1579927DB17C007F88
:104DA300D17E011200BD907FB122120067CA80C874
:104DB3001200682C90000C1AE0FEA3E0FFC3EE94EF
:104DC30001503874CF2FF58274193EF58375930023
:104DD300E0FFC3940590000C1A400812006801E438
:104DE300F0800612006801EFF090000C1BE004F065
:104DF30070C290000C1AE004F080B91200E3B022F4
:104E030012006B63EF64012212006B63EF640122F3
:104E13001200E14790000C1AEEF0A3EF227D037C11
:104E2300001200E74322900010BCEBF0A3EAF0A3CA
:104E3300E9F043F908A3E5FBF0A3E5FCF0E5FD5435
:104E43001FA3F0A3E5FEF0A3E5FFF0900010BFE081
:104E5300FF75F00A84C454F0FEEF75F00A84E5F0A0
:104E6300540F2E900010CAF0900010C0E0FF75F0B0
:104E73000A84C454F0FEEF75F00A84E5F0540F2E53
:104E8300900010C9F0900010C1E0FF75F00A84C4CF
:104E930054F0FEEF75F00A84E5F0540F2E900010E5
:104EA300C8F0900010C3E0900010CBF0900010C247
:104EB300E0900010CCF0E4900010C4F0A3F0900058
:104EC30010D27407F0A374D0F0120020921200EBFA
:104ED3007FBF012AD3900010CCE0946E900010CBDA
:104EE300E09401406E900010C5E004F0700790005C
:104EF30010C4E004F0900010CCE024928028D390FA
:104F03000010CCE0946D900010CBE09401404490ED
:104F13000010C5E004F07007900010C4E004F090A6
:104F23000010CCE02493F0900010CBE034FEF0901E
:104F33000010D3E004F07007900010D2E004F0C337
:104F4300900010D3E09484900010D2E094085003B2
:104F5300014ECC900010C4E0FFA3E0900010CDCF31
:104F6300F0A3EFF0900010C47420F0A3E4F09000DD
:104F730010CDE0FEA3E0FF7C007D641200057CEF12
:104F8300540FFE900010C5E02400F0900010C4E020
:104F93003EF0900010CDE0FEA3E0FF7C007D6412A4
:104FA30000057C7C007D641200056AC3900010CE6E
:104FB300E09FF0900010CDE09EF0E0FEA3E0FF7DC7
:104FC3000A1200057CEFC4F8540FC868FFEF54F0D1
:104FD300FF900010C5E02FF0900010C4E03400F003
:104FE300900010CDE0FEA3E0FF7C007D0A120005D7
:104FF3007C7C007D0A1200056AC3900010CEE09FFE
:10500300F0900010CDE09EF0A3E0540FFF9000104D
:10501300C5E02FF0900010C4E03400F0E0FFA3E0FF
:10502300900010CDCFF0A3EFF0900010CDE054F03E
:10503300D3949040037F0022900010CDE0540FD30F
:10504300940940037F0022900010CEE054F0D394E3
:105053009040037F0022900010CEE0540FD39409B8
:1050630040037F00221200EB7F900010CFBF010DA1
:105073007481F0A37420F0A3743AF0800B7481F070
:10508300A37420F0A37446F0900010D47401F09040
:105093000010D2E4F0A304F0900010D2E0FEA3E0ED
:1050A300FFC3940CEE94005058900010CFE0FBA384
:1050B300E0FAA3E0F9C3EF9401FFEE9400FEE92FB9
:1050C300F9EA3EFA12000524FF7E00D3900010CCCB
:1050D300E09F900010CBE09E4027900010D4E004A6
:1050E300F0900010CCE09FF0900010CBE09EF09089
:1050F3000010D3E004F070A0900010D2E004F08020
:1051030097E4900010C6F0900010D4E0FF75F00A09
:1051130084FEC454F0FD900010C6E02DF0EE75F04F
:105123000AA4FEC3EF9E900010D4F0540FFF90002A
:1051330010C6E02FF0E0FFD39412500AEF540F94FF
:10514300095003E070037F0022E4900010C7F09041
:105153000010CBE0A3E0900010D4F0E0FF75F00A5C
:1051630084FEC454F0FD900010C7E02DF0EE75F0FE
:105173000AA4FEC3EF9E900010D4F0540FFF9000DA
:1051830010C7E02FF0E0FFD394315007EF540F9492
:105193000940037F0022900010BCE0FBA3E0FAA3C8
:1051A300E0F8AC02AD037B017A1079C47E007F077F
:1051B30012000AB17F0122900010ABEBF0A3EAF0DA
:1051C300A3E9F090001102741AF07E007D00120032
:1051D300881E1200883E900011007401F07F1012A7
:1051E3000054C870037FB122120088F990001102A5
:1051F300E0C39402FD120054F27046900010FFF0D9
:10520300120087FAB5061E1200894412008817128D
:1052130000899012008817B5060B900010FFE00478
:10522300F0E0B403DB1200884EE490001100F0902C
:10523300001664E0700B7FA01200552170037FB14C
:105243002290001100E064017059FEFD1200881ED7
:105253007FA0120054C870037FB1221200883E124F
:105263000088F97D18120054F260037F5C22E490F9
:105273000010FFF0120087FA6E60037F5C221200B9
:1052830089441200881712008990120088176E60F3
:10529300037F5C22900010FFE004F0E0B403D5121A
:1052A30000884E7B017A1079C21200EA1C9000102C
:1052B300AB120087F22405F9E43AFA120008371218
:1052C30000081A900016601200088F120088F91265
:1052D30000EC84900016581200088F120089A61261
:1052E30000EC849000165C1200088F900010CD1221
:1052F3000089AD90001101F01200EEEE50037F0D16
:1053030022120087D1C3120007E37030FC9000160D
:105313005C120088DD7FC07E107D037C0012008953
:10532300A61200E8961200893B7410F0A374BFF034
:10533300120089A67D037C001200E743120087C296
:10534300900010B21200882EE4FFFE7D08FC90004E
:1053530010B2120087DAC3120007E340317C0090D9
:105363000010B2120088DD9000165C120087C6FFA1
:10537300900010B2120087DAD3120007E35008E45A
:1053830090001101F080079000110174FFF01200EA
:1053930087C2FF900010AB120087F22437F9E43A7A
:1053A300FA12000837900010B2120087C6FF1200ED
:1053B30088F91200E8961200893B7410F0A374B9BF
:1053C300120088F87D037C001200E7437B017A100A
:1053D30079C61200EA1C900016761200088F78F83E
:1053E3007C107D017B017A1079CA7E007F03120055
:1053F3000AB190001676120087C6FF900010AB1218
:105403000087F22411F9E43AFA12000852EF2BFF55
:10541300EE3AFEED39FDEC38FC90001676120008EA
:105423008F78737C167A1079CA7F0312008858909C
:10543300001676120087C6FF7B017A1079C6120028
:10544300E5C4900010AB120087F224051200892AEC
:10545300EF120089007B017A1079C21200E5C49033
:10546300001660120087C6120089009000166012B1
:1054730000088F900010B2120087C6FF90001658E4
:105483001200088F90001101E0900010CD120088E7
:10549300F87D187C001200E147900010B0EEF0A3F5
:1054A300EFF07B017A1079CE1200EE21E47F101227
:1054B3000055216401700B90001101120089AD7F2A
:1054C30000227FB122E4FEFDFC90001102E0900077
:1054D3001107F0A37401F0A37410F0A374B6F012D3
:1054E300006B637E00900010AEEEF0A3EFF0227C21
:1054F300001200E147900010B0EEF0A3EFF07B0143
:105503007A1079F61200EE2178F67C107D017B018A
:105513007A1079CE7E007F0212000A1EEF22FEFD72
:10552300FC90001102E090001107F0A37401F0A3B6
:105533007410F0A374B6F01200554A7E0090001068
:10554300AEEEF0A3EFF022900011031200088FE4F7
:105553009000110BF090001107E0D3945040037FAB
:10556300002290001103A3A3A3E0540FFFE4FEFD68
:10557300FCFBFAF9F8C3120007E360037F002290F3
:10558300001103E0FCA3E0FDA3E0FEA3E0FF900015
:1055930011681200088F78667C117D017B017A11F6
:1055A300796A7E007F0212000AB190001169E0134C
:1055B30013543F90001162F090001166E0FFA3E0E6
:1055C30090001164CFF0A3EFF090001169E0540351
:1055D30090001163F0E49000110BF0120020927B15
:1055E300017A25796990001171E41200CFA27B0141
:1055F3007A11790C90001171E41200CFA29000117E
:105603000CE0FF90002569E0FE6F60030158C4EED3
:105613006442600301573F7B017A25796990001149
:1056230071F0A374561200CFA59000256AE0D394BD
:105633000340030158C49000256BE0D39403400357
:105643000158C4D39000256DE094F09000256CE0E0
:1056530094FF40030158C49000256EE0D39450405A
:10566300030158C47E007F567D007B017A11790CBB
:10567300120009557B017A11790C90001171E4F045
:10568300A374561200CFA5780C7C117D017B017A9F
:105693002579697E007F5612000A1EEF60030158C8
:1056A300C49000256AE0FFA3E0FD9000256EE09022
:1056B300001170F0A37401F0A37425F0A3746FF0CC
:1056C3009000256C1200D0FFEF70030158C47E00D8
:1056D3007F567D007B017A11790C120009559000E9
:1056E300256AE0FFA3E0FD9000256EE090001170B5
:1056F300F0A37401F0A37411F0740C1200C794EFBB
:1057030070030158C49000256EE0FF7E00786F7C23
:10571300257D017B017A11790C12000A1EEF6003CB
:105723000158C41200CBBB1200CF9290002569E050
:10573300FF9000110CE06F60030158C49000240730
:105743007441F090001162E090002408F090001181
:1057530063E090002409F090001164E0FFA3E0905F
:1057630000240ACFF0A3EFF090001107E0FF9000B0
:10577300240CF07E00780D7C247D0190001108E05C
:10578300FBA3E0FAA3E0F912000AB17B017A2479C2
:105793000890001171E4F0A37455F07F9D7E071209
:1057A30000CBD57E007F557D007B017A11790C12E9
:1057B3000009557B017A11790C90001171E4F0A373
:1057C3007455F07F9D7E071200CFAA780C7C117D63
:1057D300017B017A2479087E007F5512000A1EEFAF
:1057E30060030158C4900024077442F07B017A24BB
:1057F30079071200CBC81200CF9290002407E0FF74
:105803009000110CE06F60030158C490001162E036
:10581300FFA3E0FD90001107E090001170F09000ED
:105823001108E0F9A3E0FAA3E090001171C9F0A315
:10583300EAF0A3E9F0900011641200D0FFEF7003C7
:105843000158C47E007F507D007B017A11790C12D0
:1058530000095590001162E0FFA3E0FD90001107DD
:10586300E090001170F0A37401F0A37411F0A3741D
:105873000CF0900011641200C79AEF60449000117D
:1058830007E0FF7E00780C7C117D01A3E0FBA3E021
:10589300FAA3E0F912000A1EEF70269000240774A1
:1058A30041F07B017A2479071200CBC81200CF9212
:1058B30090002407E0FF9000110CE0B507037F017F
:1058C300229000110BE004F0E0C394035003015550
:1058D300DE7F0022783F7C107D017B817A1F79A0D7
:1058E3007E007F0512000AB17B017A10794812000D
:1058F30088EE7B017A107952120088EE7F04120041
:1059030089C81200889F7E007F3B7DFF120088B20A
:105913001200095512008897120089C81200CED5CB
:10592300120088E76003E0FF221200EEEE50037FCF
:105933000D22120089C81200B962120088E76015AF
:10594300E024F9600724056003015BD07F021200A5
:105953005C44015BD01200895F74A52FF582741635
:105963003E12008817FFE4FCFDFE9000166B120048
:1059730087DA120006A2E47B64FAF9F81200072D15
:10598300900010441200088F7E007F147D007B017D
:105993007A10799712000955900019A7120087C64B
:1059A300FF900010651200088F785D7C107D011256
:1059B3000088B978737C107D017A1879A67F061266
:1059C3000088BF90001044120087C6FF9000106D3E
:1059D3001200088F900010AE120088A71200813CBD
:1059E300120088E7600DE0B45A067F0812005C4499
:1059F300015BD090001044120087C6FF900019ADE0
:105A0300120087DAC3120007E350097F0F12005C0C
:105A13004B7F0922900019AD120087C6FF9000103A
:105A2300691200088FE49000107BF0900019B6E033
:105A33002401FE900019B5E0340090001071F0A32A
:105A4300CEF09000107974FFF0A37401F090001071
:105A530092F01200C15F120088E7601FE0FBB406FA
:105A630017E490001079F0900010927402F0900007
:105A7300106D120089328003AF0322120088B21224
:105A83000051BA120088E76003E0FF2212008897F2
:105A9300120088B2120089887D011200859C1200D1
:105AA30088E76003E0FF2290001079E0701B7B81A0
:105AB3007A1F796B7D017F011200DB8E1200F06883
:105AC3007F0712005C4B7F0622900010AE12008805
:105AD300A712007585120088E79000104412008712
