:10000000021B307E11DEFEDFFA00220200CC00531C
:10001000E8EF438EC075C7AA75C75543D803227F42
:020020000122BB
:100023000200C5830200014BEC5D046005E859043E
:100033007004020001411200010C580460F4EC4802
:1000430060F0EC7004FDFEFF22C860D82481C85024
:100053000AC39860025007020001489850C6F5820F
:10006300E9294B4A7006AB820200013775F0007C28
:100073001A7880C3EF9BEE9AED99400DC3EF9BFF77
:10008300EE9AFEED99FDE842F0DC24ACF0D0E0FFFF
:10009300D0E0FED0E0FDAB8220E7101BEB60B8ECB4
:1000A3002CFCEF33FFEE33FEED33FD02000123E8BA
:1000B30003F830E705C0F075F000EF2FFFEE33FED5
:1000C300ED33FD40B730E7C180A975F020800E7590
:1000D300F010800575F0087D007E007F003392D517
:1000E30030D504120007BFEC334010EF33FFEE337B
:1000F300FEED33FDEC33FCD5F0ED22E5F0247EA2DA
:10010300D513CC92E7CDCEFF22E9D2E7C933E8334A
:10011300F892D5EDD2E7CD33EC33FC5002B2D522C1
:10012300EC30E7100FBF000C0EBE00080DBD00043D
:100133000BEB6014A2D5EB13FCED92E7FD2274FFE9
:10014300FCFDFEFF22E480F8A2D574FF13FC7D8042
:10015300E480EFF920E73624F950037907E4F42427
:1001630002FBE582158270021583DBF6E024FB5067
:100173001BE96014E4F0E582158270021583E00444
:10018300F0B40A08E4F0D9EE7401F00A22C2D522D1
:10019300ED33EC3392D5FA602AB4FF33EDC2E77B3B
:1001A3008160067A0179B8E4227A0179C120D50405
:1001B3007A0179BC224E614E002B494E46002D49EF
:1001C3004E4600E47A08F0A3DAFC7B00740722C0F1
:1001D30093C083C082ECC0E0EDC0E0EEC0E0EFC0AE
:1001E300E0EA75F010A4CAABF075F04DA42BFBE464
:1001F30035F0FCEA2410FAEB34C5FBEC34D9FCED02
:10020300C2E7FF75F056A4F42411C5F0F434C58F8A
:10021300F0A42AE5F03BE43CF020E716120004DEEC
:10022300D0E0FFD0E0FED0E0FDD0E0FC1200002BD8
:100233008016F404120004DED0E0FFD0E0FED0E02C
:10024300FDD0E0FC120003A0D082D083D093E0FA6B
:10025300EDD2E7CD33EC332482FBE4C3CF33CFCEEF
:1002630033CECD33CD33DBF37B0775F00A846004E3
:10027300F0A31B0AE5F0F0A38FF0740AA4FFACF01F
:100283008EF0740AA42CFEACF050010C8DF0740AAD
:10029300A42CFDE435F0F0A3DBDE74072202000199
:1002A30041E86480F8E933E83360110460EFED332B
:1002B300EC337009E8FCE9FDEAFEEBFF220460DDA4
:1002C300D3EB9FEA9EE99DE8C2E78CF0C2F795F075
:1002D300400CE8CCF8E9CDF9EACEFAEBCFFB1200FB
:1002E300010C85D0F05804700320D5B1E8047008E0
:1002F3005002B2D50200014B92D5EC0460F6E4CC77
:10030300C0E0C398F8603C94186009400ED0E0FB4D
:1003130002000123E4FBFAC9FC8028E830E406E488
:10032300C9FBE4CAFCE830E305E4C9CACBFCE854E2
:10033300076010F8C3E913F9EA13FAEB13FBEC13A4
:10034300FCD8F130F531C3E49CFCEF9BFFEE9AFE41
:10035300ED99FDD0E0FBEF4E4D4C701322DB040210
:10036300000148EC2CFCEF33FFEE33FEED33FDEDE3
:1003730030E7EA02000123EF2BFFEE3AFEED39FDF1
:10038300D0E0FB50140BBB00040200014BED13FD46
:10039300EE13FEEF13FFEC13FC02000123EC4D60A0
:1003A30011E8497018ED33EC3304600DE4FCFFFEF3
:1003B300FD22E933E8330470F80200014112000121
:1003C3000C58046009E4CC2481500728500B020028
:1003D300014B28400402000148C0E0EB4A7046B9D3
:1003E3008007D0E0FB02000137EF4E701DBD80088F
:1003F300EBFFEAFEE9FD80EAE98DF0A4FEE5F002F9
:1004030000048FE9CDF9EAFEEBFFEF89F0A4FCE5E8
:10041300F0CE89F0A42EFFE435F0CD89F0A42DFEB3
:10042300E435F08067EF4E7005BD80D780C2EF8B57
:10043300F0A4ACF0EE8BF0A42CFCE435F0F8EF8ADA
:10044300F0A42CE5F038FCE433CB8DF0A42CFCE5D0
:10045300F03BF8EE8AF0A42CFCE5F038F8E433CF57
:1004630089F0A42CFCE5F038CF3400CE89F0A42F1A
:10047300FFE5F03EFEE433C98DF0A42EFEE5F0392E
:10048300CD8AF0A42FFFE5F03EFEE43DFD33D0E03E
:10049300FB50080BBB00100200014BEC2CFCEF33AC
:1004A300FFEE33FEED33FD020001233F80000041E8
:1004B30020000042C80000447A0000461C40004768
:1004C300C35000497424004B1896804CBEBC205A7C
:1004D3000E1BCA6753C21C749DC5AEFB600654074E
:1004E3006020232312000511EB5438600C12000422
:1004F300FC1200050C120003A0ECF8EDF9EEFAEF84
:10050300CB22EB1200050C80F0543803241C90001E
:1005130004AEFE93FC0EEE93FD0EEE930ECE93FF10
:1005230022EB7002E72289828A831410E704F59391
:10053300E022F593E49322BB000327F722F8EB892B
:10054300828A831410E706F593E028F022F593E4FA
:10055300932822BB0002F722BB8000500989828ABC
:10056300838B931593F022EF8DF0A4A8F0CF8CF03A
:10057300A428CE8DF0A42EFE22BC000BBE0029EFD2
:100583008DF084FFADF022E4CCF875F008EF2FFF77
:10059300EE33FEEC33FCEE9DEC984005FCEE9DFE45
:1005A3000FD5F0E9E4CEFD22EDF8F5F0EE0084205E
:1005B300D21CFEADF075F008EF2FFFED33FD4007C1
:1005C300985006D5F0F222C398FD0FD5F0EA22C267
:1005D300D5EC30E709B2D5E4C39DFDE49CFCEE30D5
:1005E300E716B2D5E4C39FFFE49EFE1200057CC369
:1005F300E49DFDE49CFC80041200057C30D507C318
:10060300E49FFFE49EFE22C5F0F8A3E028F0C5F0C6
:10061300F8E582158270021583E038F022A3F8E032
:10062300C5F025F0F0E582158270021583E0C83825
:10063300F0E822EB7007E7F5F009E7192289828ACF
:10064300831410E708F593E0F5F0A3E022F593E4B3
:1006530093F5F074019322BB000B09C5F027F7C58E
:10066300F01937F722F8EB89828A831410E707F52C
:1006730093E80200060AF59374019325F0F5F0E47C
:10068300933822BB0006F709A7F01922BB8000505C
:100693000D89828A838B931593F0E5F0A3F022E80A
:1006A3008FF0A4CC8BF0A42CFCE98EF0A42CFC8A54
:1006B300F0EDA42CFCEA8EF0A4CDA8F08BF0A42DD1
:1006C300CC3825F0FDE98FF0A42CCD35F0FCEB8E72
:1006D300F0A4FEA9F0EB8FF0A4CFC5F02ECD39FE28
:1006E300E43CFCEAA42DCE35F0FDE43CFC2275F09D
:1006F30008758200EF2FFFEE33FECD33CDCC33CC24
:10070300C58233C5829BED9AEC99E58298400CF53E
:1007130082EE9BFEED9AFDEC99FC0FD5F0D6E4CE6C
:10072300FBE4CDFAE4CCF9A88222B800C1B90059A0
:10073300BA002DEC8BF084CFCECDFCE5F0CBF9786D
:1007430018EF2FFFEE33FEED33FDEC33FCEB33FB01
:1007530010D703994004EB99FB0FD8E5E4F9FA228B
:100763007818EF2FFFEE33FEED33FDEC33FCC93386
:10077300C910D7059BE99A4007EC9BFCE99AF90F4E
:10078300D8E0E4C9FAE4CCFB2275F010EF2FFFEEBA
:1007930033FEED33FDCC33CCC833C810D7079BEC05
:1007A3009AE899400AED9BFDEC9AFCE899F80FD57D
:1007B300F0DAE4CDFBE4CCFAE4C8F922C3E49FFF0A
:1007C300E49EFEE49DFDE49CFC22EB9FF5F0EA9E93
:1007D30042F0E99D42F0EC6480C864809845F022C1
:1007E300EB9FF5F0EA9E42F0E99D42F0E89C45F06C
:1007F30022E8600FECC313FCED13FDEE13FEEF13C1
:10080300FFD8F122E8600FEFC333FFEE33FEED3381
:10081300FDEC33FCD8F122EB7006E9F802000B91F2
:1008230089828A831410E706F59302000B9DF593E2
:1008330002000BA9BB0006E9F802000BE2BB800033
:10084300500C89828A838B9315930200088F22EBC5
:100853007006E9F802000BB989828A831410E7064F
:10086300F59302000BC6F59302000BD27401FF331C
:1008730095E0FEFDFC080808E62FFFF618E63EFEAD
:10088300F618E63DFDF618E63CFCF622ECF0A3ED87
:10089300F0A3EEF0A3EFF022A42582F582E5F03574
:1008A30083F58322F8E0FBA3A3E0F925F0F0E582CA
:1008B300158270021583E0FA38F022EBF0A3EAF018
:1008C300A3E9F022EB7006E9F802000BEE89828AB5
:1008D300831410E706F59302000BF7F59302000C5F
:1008E30000D093D083D082F8E49370127401937094
:1008F3000DA3A393F8740193F5828883E4737402C0
:10090300936860EFA3A3A380DFD093D083D082E466
:10091300937012740193700DA3A393F8740193F56C
:10092300828883E4737402936C70127403936D7002
:100933000C7404936E70067405936F60DDA3A3A318
:10094300A3A3A380CA8B938A838982159353937F2E
:10095300E473EF4E6022EF60010EEDBB0007F70971
:10096300DFFCA9F022BB8000500E89828A838B931F
:100973001593F0A3DFFCDEFA22EB700C87F009E697
:1009830008B5F019DFF6801589828A831410E70F02
:10099300F593E0F5F0A3E608B5F002DFF5806AF51C
:1009A30093E493F5F0A3E608B5F05EDFF4805ACB49
:1009B300701388828C838B9387F009E493A3B5F03B
:1009C30048DFF580441410E71F88848C858B958954
:1009D300828A83F593758620E0F5F0E493A3A3B5AB
:1009E300F024DFF4DEF2801E88848C858B95898267
:1009F3008A83F593758620E493F5F0E493A3A3B576
:100A0300F004DFF3DEF17586007FFFB5F0020F22FD
:100A130040027F01220200097C809488F0EF60018C
:100A23000E4E60F0ED60EE1410E7EECB701288828C
:100A33008C83F59387F009E0A3B5F0CDDFF680C989
:100A43001410E71E88848C858B9589828A83F5939D
:100A5300758620E0F5F0E0A3A3B5F0AADFF5DEF399
:100A630080A488848C858B9589828A83F593758687
:100A730020E493F5F0E0A3A3B5F08BDFF4DEF2807E
:100A830085EB7008E709F608DFFA801B89828A8301
:100A93001410E70AF593E0A3F608DFFA8009F5934B
:100AA300E493A3F608DFF9ECFAA9F0EDFB2288F052
:100AB300EF60010E4E60F088F0ED60C51410E7E7BB
:100AC300CB700E88828C838B93E709F0A3DFFA80C7
:100AD300D61410E71C88848C858B9589828A83F5CC
:100AE30093758620E0F0A3A3DFFADEF87586008015
:100AF300B688848C858B9589828A83F59375862045
:100B0300E493F0A3A3DFF9DEF77586008099EB7019
:100B130008E709F60870FA801B89828A831410E7B4
:100B23000AF593E0A3F60870FA8009F593E493A31A
:100B3300F60870F9ECFAA9F0EDFB2288F0ED60CE2F
:100B43001410E7F0CB700E88828C83F593E709F0DD
:100B5300A370FA80DF1410E71A88848C858B95893B
:100B6300828A83F593758620E0F0A3A370FA7586D5
:100B73000080C188848C858B9589828A83F59375DF
:100B83008620E493F0A3A370F975860080A6E6FCA3
:100B930008E6FD08E6FE08E6FF22E0FCA3E0FDA36D
:100BA300E0FEA3E0FF22E493FC740193FD7402933F
:100BB300FE740393FF22E6FB08E6F908E6FA08E66B
:100BC300CBF822E0F8A3E0F9A3E0FAA3E0FB22E4E8
:100BD30093F8740193F9740293FA740393FB22EC70
:100BE300F608EDF608EEF608EFF622E6FB08E6FA5D
:100BF30008E6F922E0FBA3E0FAA3E0F922E493FB81
:100C0300740193FA740293F922BB001CD093D0F0C1
:100C1300D0E0F8D0E0C9FBD0E0FAD0E0CBC8C0E028
:100C2300C0F0C09302000C60BB80005022D093D070
:100C3300F0D0E0F8D0E0C9F582D0E0CAF583D0E087
:100C4300CB14C8C0E0C0F0C0938893020008BED0A4
:100C530093D083D082D0E0D0E0D0E0E473EBF60809
:100C6300EAF608E9F622E5112453F582E43421F586
:100C730083759300E005112290002150300B0490FE
:100C8300002153E475F001120008A7020005242097
:100C930004E57F2ED2048018EF540F2490D43440FF
:100CA300D4FF30080BEF24BFB41A0050032461FFB4
:100CB300E512600215120515E51570020514300BD7
:100CC3001190002150E475F001120008A7EF020013
:100CD300055602001F817403D20B8003E4C20BF597
:100CE3001190002150120008BEE4F512F514F51519
:100CF300E51260087F2012000CB380F47513FFC265
:100D030005C204C206C207C209C20AC20C12000C01
:100D13007BFF700E300B067F0012000CC4AF15AEC4
:100D23001422B42563C2D5C20812000C7BFF24D061
:100D3300B40A00501A75F00A781230D50508B6FFC8
:100D43000106C6A426F620D5047002D20780D82453
:100D5300CFB41A00EF5004C2E5D20802001001D24A
:100D63000580C4D20480BED20680BAD2D580B8D260
:100D73000980B27F2012000CB32006077401B5125C
:100D83000040F012000C69FF12000CB302000CF3D8
:100D9300D20CD20A808F12000C69FB12000C69FA84
:100DA30012000C69F94A4B7006790E7A117B812087
:100DB300063DE51260397E00E9C0E02EF9EAC0E0A5
:100DC3003400FA12000524F9D0E0FAD0E0C9600635
:100DD3000EEE651370E2C2D5EBC0E0EAC0E0E9C0F5
:100DE300E0EE12001069D0E0F9D0E0FAD0E0FB1297
:100DF300000524FF6096EBC0E0EAC0E0E9C0E01222
:100E0300000CB3D0E02401F9D0E03400FAD0E0FBC9
:100E1300E5130460DAD513D702000D8FD206808F55
:100E23001200104560F6E51370010412000156A983
:100E330013600EE513600A14F513120010F8EF6047
:100E4300F2EA30E702F404C399400402000ED8EA40
:100E5300F425130430E701E404F513800F120010A6
:100E63004560B9EA0513251312000156EA900021E3
:100E73007FF030E701E4251304D51304200901149E
:100E830012001069E4C0E0120010F89000217FE026
:100E9300601420E70814F012000C9B802604F0D0A5
:100EA300E014C0E07F0012000C9BE5136008120001
:100EB3000C921513800D30090412000C92D0E0023D
:100EC300000CF3D0E00480BD120010456093E513DD
:100ED30004120001569000217FEAF0E51320090275
:100EE30060010424041200106974FF04C0E01200BE
:100EF30010F812000C9BE513200902600412000C89
:100F030092D0E0B513E57F4512000CA59000217F38
:100F1300E07F2B30E7047F2DF404C0E012000CB314
:100F2300D0E075F00A84C0F012000C9CD0E01200EF
:100F33000C9C02000CF3791080027908C20AC20CDF
:100F43008008D2D5790A8004790AC2D5E5130470E2
:100F530002F513E4FAFDFEFF12000C69FC7B082086
:100F6300051612000C69FD7B1030040C12000C698D
:100F7300FE12000C69FF7B20EC3382D592D550130F
:100F8300C3E43004069FFFE49EFEE42005039DFDB9
:100F9300E49CFCE4CBF8C205EC700CCFCECDCCE8DE
:100FA30024F8F870F38017C3EF33FFEE33FEED330D
:100FB300FDEC33FCEB33FB994002FB0FD8E9EB303C
:100FC3000505F8D0E0C448B205C0E00AEC4D4E4F29
:100FD30078207B0070C2EAB5130040BCC0E0120069
:100FE300106BD0F0D0E0200504C4C0E0C4B205C04B
:100FF300F012000C9CD0F0D5F0EA02000CF31200C2
:1010030008E40D99530F39580D664C0D62420F3D9C
:101013004F0F45440F45490D7C430F4B550E60461A
:101023000ECB450E2347112B500D6A2D0D6E2E0D41
:10103300952B0D72230D932011172A0D28480000BC
:101043000D8BE513B4FF0375130612000C69FC1234
:10105300000C69FD12000C69FE12000C69FF900080
:10106300217802000193790AA2D5200714300909D7
:10107300B910020404B9080104A2D5200A025001E0
:101083000420066D9206B512005036C0E07F203072
:10109300071A7F30A206720A72095010120010C498
:1010A300C206C20AC209C20C7F308010300903E9AC
:1010B300C0E012000CB3300903D0E0F9D0E0B51260
:1010C300CA3009197F30B9100D12000CB37F5830A4
:1010D30008077F788003B9080412000CB3300606B2
:1010E3007F2D02000CB37F20200CF77F2B200AF208
:1010F30022920680CC7F00B40700500E2478F5823C
:10110300E43421F583759300E0FF22286E756C6C3F
:101113002900D20512000C693005F7C20578123098
:10112300D50108F602000D2812000C697F496008FA
:101133007F4310E7027F5814C0E0EF12000CA47441
:101143003A12000CA4D0E0600DC0E0C412000C9C65
:10115300D0E012000C9CD20775120402000F392054
:10116300202020202020202020202020202020009C
:1011730000000000000000000000004F000000001D
:10118300000007000700000000147F147F14000014
:1011930000242A7F2A12000000231308646200003F
:1011A30000364955225000000000050300000000EE
:1011B30000001C2241000000000041221C0000002E
:1011C3000014083E081400000008083E0808000048
:1011D300000050300000000000080808080000006C
:1011E30000006060000000000020100804020000FE
:1011F300003E5149453E0000000000427F40000090
:101203000042615149460000002141454B31000035
:10121300001814127F1000000027454545390000CF
:10122300003C4A49493000000001017905030000F0
:10123300003649494936000000064949291E000085
:1012430000003636000000000000563600000000A3
:1012530000081422410000000014141414140000A8
:101263000000412214080000000201510906000099
:1012730000324979413E0000007E1111117E0000C9
:1012830000417F4949360000003E414141220000B0
:1012930000417E4141223C00007E4949494900000A
:1012A300007F090909010000003E4141497A00001D
:1012B300007F0808087F00000000417F4100000014
:1012C300002040413F010000007F0814224100003C
:1012D300007F404040400000007F020C027F00007E
:1012E300007F0608307F0000003E4141413E000080
:1012F300007F090909060000003E4151215E0000FC
:10130300007F091929460000002649494932000097
:101313000001017F01010000003F4040403F000009
:10132300001F2040201F0000007F2018207F0000A6
:101333000063140814630000000708700807000026
:10134300006151494543000000007F414100000016
:101353000002040810200000000041417F0000004B
:10136300000402010204000000404000404000006D
:1013730000010204000000000020545454780000CF
:10138300007F4844443800000038444444280000A7
:1013930000384444487F0000003854545418000077
:1013A3000000087E09020000000C52524C3E00006F
:1013B300007F0804047800000000447D4000000022
:1013C300002040443D00000000007F10284400003E
:1013D3000000417F40000000007C04780478000096
:1013E300007C0804047800000038444444380000BA
:1013F300007E0C12120C0000000C12120C7E000076
:10140300007C08040408000000585454546400008D
:1014130000043F4440200000003C40403C400000AA
:10142300001C2040201C0000003C4030403C0000D9
:101433000044281028440000001CA0A0907C000059
:10144300004464544C44000000000836410000008E
:101453000000007700000000000041360800000093
:10146300000201020402000000FFFFFFFFFF000073
:10147300D6D0CDBEB0CEBFA800B2BBBFC9CAB6B12D
:10148300F0BFA800BFA8C7AEB0FCB4EDCEF300CE4A
:10149300B4C9CFB4ABC1F7CBAE00C7EBB2C9BCAFD5
:1014A30000BADABFA800BFA8D2D1B9C6DA00CEDE2F
:1014B300C8A8CFDE00BFA8D3E0B6EEB2BBD7E30027
:1014C300BFA8D2D1CBF800C3E2B7D1BFA800BCC735
:1014D300C2BCD2D1C2FA00D6D8B8B4CBA2BFA8003E
:1014E300C9E8D6C3B4EDCEF300CAB1D6D3B4EDCEBA
:1014F300F300D3B2BCFEB9CAD5CF00B2BBD6A7B3F3
:10150300D6BFA8C0E0D0CD0000B4E6B4A2C8DDC108
:10151300BF00CEEFC0ED4944CEB4C9E8D6C300B195
:10152300B8B2CE00D6F7B2CEB4EDCEF300BBD6B888
:10153300B4D6F70057522053455249414C00524408
:101543002053455249414C005B25645DB4EDCEF315
:10155300C2EBA3BA25642000252E303266007265E3
:1015630061646572004550203100455044203100CC
:101573006B657900455020320045504420320045C8
:10158300502033004550442033004550203400455B
:1015930050203500312E20BAECCDE2CDA8D1B620B3
:1015A3002000322E20B4AEBFDACDA8D1B620200061
:1015B300332E2047505253CDA8D1B62020002020EF
:1015C300202020202020202020202000C9E8B1B89E
:1015D300CEEFC0ED4944002530325825303258252E
:1015E3003032582530325800CFB5CDB3CAB1BCE440
:1015F30000B5B1CCECD3AAD2B5B6EE00252E30326D
:101603006620D4AA00C7B0D2BBCCECD3AAD2B5B65D
:10161300EE00BBF9B4A1B7D1C2CA00B2C9BCAFCA0C
:10162300B1BCE4BCE4B8F400256420CCEC00C1AC4C
:10163300D0F8CBA2BFA800256420C3EB00B5B1C787
:10164300B0C1F7CBAEBAC500256C7500CEB4B2C934
:10165300BCAFBCC7C2BC00257520CCF500B3CCD051
:10166300F2B0E6B1BE002573003130303232364974
:10167300474D00CEB4B2C9BCAFCCECCA002575202F
:10168300CCEC00BADAC3FBB5A5B0E6B1BEBAC5006F
:101693004275696C6400466562203236203230310F
:1016A300300031333A32323A353100B7FECEF1C62B
:1016B300F749500025642E25642E25642E256400E9
:1016C300B7FECEF1C6F7B6CBBFDA00256400312EE4
:1016D30020CBA2BFA8CAD5B7D1202000322E20B27A
:1016E300E9D1AF20202020202000332E20CDA8D107
:1016F300B62020202020200000B00000A40000001D
:10170300DF0300001F1C1F1E1F1E1F1F1E1F1E1F87
:1017130081159781D8748115A581DBA28115B381C9
:10172300D6238115C1000000010EB7000000811609
:10173300D181A97E8116DF8141B38116ED81EC232E
:10174300605A0F040001811473000281147C0003AA
:101753008114870004811492000581149D00068181
:1017630014A400078114A900088114B1000981148D
:10177300B8000A8114C3000C8114CA000D8114D16E
:10178300005A8114DA005C8114E3005B8114EC00DD
:10179300B18114F5005F8114FE00FE81150B620018
:1017A3001BE70000102120423063408450A560C62F
:1017B30070E781089129A14AB16BC18CD1ADE1CE0B
:1017C300F1EF123102103273225252B5429472F782
:1017D30062D693398318B37BA35AD3BDC39CF3FF5B
:1017E300E3DE246234430420140164E674C744A492
:1017F3005485A56AB54B85289509E5EEF5CFC5ACAB
:10180300D58D365326721611063076D766F6569561
:1018130046B4B75BA77A97198738F7DFE7FED79DFA
:10182300C7BC48C458E5688678A7084018612802F1
:101833003823C9CCD9EDE98EF9AF89489969A90A4A
:10184300B92B5AF54AD47AB76A961A710A503A33C1
:101853002A12DBFDCBDCFBBFEB9E9B798B58BB3B9A
:10186300AB1A6CA67C874CE45CC52C223C030C6051
:101873001C41EDAEFD8FCDECDDCDAD2ABD0B8D68EA
:101883009D497E976EB65ED54EF43E132E321E51A1
:101893000E70FF9FEFBEDFDDCFFCBF1BAF3A9F593A
:1018A3008F78918881A9B1CAA1EBD10CC12DF14EDA
:1018B300E16F108000A130C220E350044025704640
:1018C300606783B99398A3FBB3DAC33DD31CE37F6B
:1018D300F35E02B1129022F332D242355214627790
:1018E3007256B5EAA5CB95A88589F56EE54FD52C3B
:1018F300C50D34E224C314A00481746664475424E0
:101903004405A7DBB7FA879997B8E75FF77EC71D4A
:10191300D73C26D336F2069116B06657767646152F
:101923005634D94CC96DF90EE92F99C889E9B98A9A
:10193300A9AB584448657806682718C008E138827F
:1019430028A3CB7DDB5CEB3FFB1E8BF99BD8ABBBAA
:10195300BB9A4A755A546A377A160AF11AD02AB3CF
:101963003A92FD2EED0FDD6CCD4DBDAAAD8B9DE8FA
:101973008DC97C266C075C644C453CA22C831CE01F
:101983000CC1EF1FFF3ECF5DDF7CAF9BBFBA8FD98A
:101993009FF86E177E364E555E742E933EB20ED16F
:1019A3001EF0481DE73230303530313331C10D443C
:1019B30022D37C2F2D5C4122A0014C0006000000A5
:1019C30000000000000000000046000000000000CE
:1019D30000004200120000420C1400004122F50CEA
:1019E300004F4B0041542B4D495053454E443D2528
:1019F300642C2200220D00726563762065727231B9
:101A03000041542B4D4950505553483D25640D001A
:101A13002B4D4950525443500072656376206572D2
:101A230072330075706C6F61642072656320657238
:101A33007200646F776E6C6F616420626C6B2E2E24
:101A43002E00626C6B206572722E2E2E00696E69F9
:101A53007469616C206461696C0041540D004154E8
:101A6300206572726F72006461696C20636D6E65CC
:101A7300742E2E2E0041542B4D495043414C4C3D66
:101A8300312C22636D6E6574220D000078303000B6
:101A9300783030007830300078303000636F6E6E0D
:101AA30020737672202E2E2E0041542B4D49504F19
:101AB30050454E3D25642C25642C2225642E256437
:101AC3002E25642E2564222C25642C300D004154D0
:101AD3002B4D4950434C4F53453D25640D006D69D3
:101AE300706F70656E206572726F7200636F6E6ED9
:101AF30020636D6E6574206572720041542B4D49ED
:101B03005043414C4C3D300D0081EB8781F09F8168
:101B1300C04881A5738180EF00000081E30981F053
:101B23009381C73481F07A81875F00000075C7AA6B
:101B330075C755759D0275C7AA75C75575C60078D3
:101B43007FE4F6D8FD75817F02001B790200D43D46
:101B5300E493A3F85407240CC8C333C4540F44209C
:101B6300C8834004F456800146F6DFE4800C01028A
:101B730004081020408090001743E47E019360CC5A
:101B8300A3FF543F30E509541FFEE493A360010E05
:101B9300CF54E0B4E026E493FBA3E493FAA3E493E5
:101BA300F9A3E493C083C08212000556D082D08388
:101BB300A309E970010ADFEADEE880BE54C025E02C
:101BC300602B408CE493A3FAE493A3F8E493A3C8B3
:101BD300C582C8CAC583CA759300F0759300A3C8AC
:101BE300C582C8CAC583CADFE3DEE1808DE493A35F
:101BF300F8E493A34003F68001F208DFF402001B2C
:101C03007D7761697474696E672E2E2E0070726F12
:101C1300636573732E2E2E00C9E8D6C3CEEFC0EDD5
:101C23004944B3C9B9A600D0A3D7BCCAB1D6D3B36C
:101C3300ACCAB100D0A3D7BCCAB1D6D3B3C9B9A675
:101C430000636C65617220626C61636B20256300C5
:101C530070726F63657373206F6B00696E697420B4
:101C6300696E6672617265642E2E2E00B4F2BFAA8D
:101C7300BAECCDE2CAA7B0DC00696E697420706F5C
:101C8300732E2E2E00B4F2BFAA47505253CAA7B0E8
:101C9300DC00B4F2BFAAB4AEBFDACAA7B0DC00BDA1
:101CA3000020EF7F08C2A63392A500D2A6DFF6C2BA
:101CB300A67F64D2A5A2A55002DFFAD2A60000C275
:101CC300A622BD0120EF7F08C2A73392A500D2A7A9
:101CD300DFF6C2A77F64D2A5A2A55002DFFAD2A77E
:101CE3000000C2A722BD0220EF7F08C2963392A54F
:101CF30000D296DFF6C2967F64D2A5A2A55002DF7A
:101D0300FAD2960000C29622EF7F08C2973392A5BB
:101D130000D297DFF6C2977F64D2A5A2A55002DF57
:101D2300FAD2970000C29722D2A4C2A400C2A2C2D0
:101D3300A3BD0004D2A2C2A312001D4022BF001201
:101D4300D2A100D2A4008B8000C2A4C2A112001DA4
:101D53006722D2A000D2A4008B8000C2A4C2A0122A
:101D6300001D6722D2A4C2A4C2A200D2A37580FF21
:101D73007400BF0014D2A100D2A400E58000C2A465
:101D830000D2A4C2A120E7ED22D2A000D2A4000079
:101D9300E58000C2A400D2A4C2A020E7EC22BF00C9
:101DA300177D09D2A5D2A60000C2A60000D2A600C4
:101DB30020A502DDF4C2A522BF01177D09D2A5D259
:101DC300A70000C2A70000D2A70020A502DDF4C22D
:101DD300A522BF02177D09D2A5D2960000C29600A4
:101DE30000D2960020A502DDF4C2A5227D09D2A56A
:101DF300D2970000C2970000D2970020A502DDF41D
:101E0300C2A522BF00127D08D2A5C2A600A2A53397
:101E1300D2A6DDF6C2A6FF22BF01127D08D2A5C25B
:101E2300A700A2A533D2A7DDF6C2A7FF22BF0212E5
:101E33007D08D2A5C29600A2A533D296DDF6C2963E
:101E4300FF227D08D2A5C29700A2A533D297DDF663
:101E5300C297FF229000214AE0FFA3E0FEA3E0CF58
:101E630090002153F0A3EEF0A3EFF09000214DE09A
:101E7300CBF0A3E0CAF0A3E0C9F07F229000215683
:101E8300AD82AC83120005248D828C83F0A309E913
:101E930070010ADFEB9000214DE0FBA3E0FAA3E021
:101EA300F902000CD9BF000E12001E06C2A500D213
:101EB300A60000C2A622BF010E12001E06C2A50084
:101EC300D2A70000C2A722BF020E12001E06C2A59F
:101ED30000D2960000C2962212001E06C2A500D2AE
:101EE300970000C29722BADABFA800C3E2B7D1BFF6
:101EF300A800BFDBBFEE20257320D4AA00D3E0B631
:101F0300EE20257320D4AA00C1F7CBAEBAC55B255A
:101F13006C645D00C7EBD6D8CBA2000904030C05A3
:101F2300BF000AC2A500D2A600D2A50022BF010AA3
:101F3300C2A500D2A700D2A50022BF020AC2A500F3
:101F4300D29600D2A50022C2A500D29700D2A50046
:101F530022BF0009D2A500D2A600C2A522BF010953
:101F6300D2A500D2A700C2A522BF0209D2A500D2E2
:101F73009600C2A522D2A500D29700C2A522EFB433
:101F83000A08740D12001F8D740A309811A899B8AD
:101F9300130CC2983098FDA899C298B811F63099DD
:101FA300FDC299F59922527463546D5F5645525F91
:101FB300312E3031001F1D1F1E1F1E1F1F1E1F1E0F
:101FC3001F1F1C1F1E1F1E1F1F1E1F1E1F20000D55
:101FD3000A003031323334353637383941424344DD
:101FE300454600E4FFFE12000524600C0FEF70016C
:101FF3000E09E970F10A80EE2225303264002530A3
:1020030032580075C7AA75C75553D8FD2275C7AA9C
:1020130075C75543D801227E54DEFEDFFA2206053A
:102023000301020304050607080990002059EEF096
:10203300A3EFF0A3ECF0A3EDF012003F25FD8C839A
:10204300759300240712003DF8742212003E8F247A
:102053000812003DF8744212003E8F241212003D14
:10206300F812003E8912003DF6E412003E8F240F61
:1020730012003DF8E4F0740512003E8E240D1200A8
:102083003DF8E4F0A37420F07B817A1C79047D0A87
:10209300E4FF0134FF12003D9A12004167240F123E
:1020A300003DF8E4F0A3740AF012003DC512003DB0
:1020B300F6E4F09000205BE0FCA3E08C83759300D2
:1020C300240C12003E3DEF700D7D037F051200E7E7
:1020D300E150C27FA02212003D9A12004167240BF7
:1020E30012003DF8E4F0A37420F0C203C201E4122D
:1020F300003F3FF012003DC512003D5DFF2403F891
:10210300E69000205DF0EF240412003F847B817A87
:102113001C7910120035FD9000205DE0120008E4E8
:102123002FB15530B9562535A12DE5B12725B2314B
:10213300E9B329D3B43313B52F4AB6315FB733B8F4
:10214300B828AEB92217C22310C322A9C42157C588
:102153000000346112003F4BFB8A8312003D5A2476
:102163000412003F8430E059E4FF120040CD120016
:102173003FE8240812003D5F9000211312003E0740
:10218300120035AB6401600301342B12003D9A1237
:10219300003E6612003D5F12003DC012003D5D240B
:1021A3000612003E209000206CE02404F0900020F2
:1021B3006B12003D9612003E6712003D5F12003E17
:1021C300FB9000205FE020E10301272012003D9AED
:1021D30012003E6712003D5F1200362BEF64016070
:1021E3000301245212003D9A12003E6612003D5F25
:1021F30012003DC012003D5D2406FF1200416E2F08
:102203007F0712003E229000206CE0240712004159
:102213007501272012003D50FF2404F8E6B4990904
:10222300EF2405F8E6640860030133D712003D9AF2
:10223300FF12003D58240A12003DC0240812003D3D
:102243005F12003E2012003D9A12003E6712003DCD
:102253005F7A00F97B00C003C0011200400712003F
:102263003E09D001D0037D0412003613FF12003F54
:1022730079740812003DAF240812003D5F12003E3E
:1022830003120035C06401600301342B12003D9A30
:1022930012003E6712003D5F12003EFB7B817A1CF9
:1022A300791B7D01805412003D9AFF12003D582492
:1022B3000312003DC0240812003D5F7F0C12003E54
:1022C3005B12003D9A1200357540187B817A1C79A8
:1022D3002A7D037F011200D98D9000205E74A1F046
:1022E30001346412003D5012003F0F1200629EEF52
:1022F30060117B817A1C79377D037F011200D98DB0
:102303000133B49000205E74FFF001346412003D89
:102313009A120035754003012FBB9000205FE0FF48
:1023230064016008EF640260030133D712003D507B
:1023330012003F816008E0640160030133D7EF249A
:102343000612003F39EFF0640E6003012E057F4053
:10235300120040CC741812003DAF240812003D5FF8
:10236300F99000211312003E08120035AB6401609E
:102373000301342B9000205E7401F0D20212003D61
:102383009A12003E6712003D5FFF2416F8E664557B
:10239300704CEF2417F8E664AA704390002059A309
:1023A300E0FF12003D58240C12003DC02408120027
:1023B3003D5F24067F0812003F64EF7002C20212E1
:1023C300003D9AFF12003D5812003DBE2408120042
:1023D3003D5F12003F621200417F4002C2022002B1
:1023E3000301248012003D9AFF12003D5812003D64
:1023F300BE240812003D5F7F0E12003F2E12003DE7
:102403009A12003E6712003D5FFF12003F0FEF2458
:102413000E7F0812003F2E12003D9A12003E6612F4
:10242300003D5F2416F8765512003DC524081200BE
:102433003D5F2417F876AA7F4012003F7874181284
:10244300003DAF240812003D5F1200352C60079059
:1024530000205E01342B12003D9A12003E671200E9
:102463003D5F12003F0F900020727401F0A3740CC3
:10247300F0A37416F01200E92D120040221200405E
:10248300E5600301252A7F109000211212003DAA66
:10249300240812003D5FF99000211312003E081238
:1024A30000359160079000205E01342B12003D9AA5
:1024B30012003E6712003D5F7A00F97B0024067F1D
:1024C3000612003E5B7E007F077D0012003DB024B4
:1024D3000812003D5F24101200402912003D9A1299
:1024E300003E6712003D5F120035408C8312003DB1
:1024F3005A12003506240812003D5F1200352C6085
:10250300079000205E01342B12003DA32408120023
:102513003D5F12003E031200358960079000205E84
:1025230001342B12004022E412003F3FF0D201019C
:102533003464C20212003F25FD120040ED12003D3B
:10254300F812003E89241412003DF87404F0A3E449
:1025530012003E8F12003D5D240412003F39EFF05C
:1025630090002059703212003D54FF2405F8E6FD17
:10257300E412003F3FEDF0D202EF120040321200AE
:10258300ECBC12003EB99000206CE02400FF9000E8
:10259300206BE03401FE801912003D5412003F0FFE
:1025A3001200ECBC12003EB99000206BE0FEA3E0E9
:1025B300FF12003F258C83759300241412003DF80D
:1025C300EEF0A3EFF0E4FFFE7D08FC900020601224
:1025D300003E3212003FE2502B12003D9A1200409F
:1025E3003A12003D5FFEA3E0FF120040F5E0F8A3BE
:1025F300A3A3E012003FCEE4FBFA7908F8D312005C
:1026030007E350030133D790002060A3A3A3E05452
:102613000FFFE4FEFDFCFBFAF9F8C3120007E360C9
:1026230003012E0512003D9A1200403A12003D5F4D
:10263300FAA3E0FBD39438EA9400503612003E101C
:10264300EB12003F468A8312003D5A2406F990009C
:10265300211312003E081200359160079000205E9E
:1026630001342BC20312003D9A12003DF1E4F00144
:10267300270A12003D9A12003DF17401F0D20312B1
:10268300003FF512003D9A1200403A12003D5F12DE
:102693000040105072C3EF9DFFEE9CFEC3EF9440C9
:1026A300EE940040047F40800090002068EFF01219
:1026B300003E19120040F512003E3212003FCE9048
:1026C300002068E09000211212003DAF2412120096
:1026D3003D5FFAA3E090002069120040A69000211C
:1026E3001312003EAB120035CB60099000205E74DC
:1026F300B1F0801390002068E0FF9000206AE02F83
:102703001200404201268612003D9A1200403A12FE
:10271300003D5FFFA3E0CF120040BEEFF0D2010106
:1027230033B412003D9A1200357F4003012FBB7F63
:1027330060120040CC742012003DAF240812003D0B
:102743005FF99000211312003E08120035CB600799
:102753009000205E01342B9000205FE07022120075
:102763003D9AFF12003D58240612003DC024081272
:10277300003D5F12003F621200417F4003012A2E99
:1027830012003D50120035DB12003EB97FA07E8659
:102793007D017C009000206012003E32FBD31200CA
:1027A30007E34003012E0512003D50F9240FF8E61C
:1027B300D394604003012E05E9120035E790002011
:1027C30069EEF0A3EFF0E4FCFD7B407A7E7905F837
:1027D300C3120007CD40109000206AE0943C9000A3
:1027E3002069E094005003012E057E007F207DFFC9
:1027F30012003DB0240812003D5F12004029120070
:102803003D9AFF12003D58240612003DC0240812D1
:10281300003D5FF87C007D007F0C120040DF12005A
:102823003D9A12003E6712003D5FF97A007B007DFE
:102833001E7C001200355F8C837593002408120000
:102843003D5F241EF97A007B001200EE297F60129F
:10285300003F78742012003DAF240812003D5F1240
:10286300003E031200358960079000205E01342B7F
:1028730012003D50240678307C0C7F0612003D4345
:10288300120035DB90000C361200088F12003D5009
:10289300FF240FF8E690000C3CF0EF120035E790B0
:1028A300000C3AEEF0A3EFF00133B412003D9A129C
:1028B30000357F4003012FBB12003FDA6003013371
:1028C300D71200404C12003D99FF12003D581200F0
:1028D3003DBE241212003D5F12003DDEA8077F3982
:1028E30012003F6F12003D9A12003EC212003D5F7C
:1028F3001200418612003DE2CF2439CF3400A807ED
:102903007FC712003F6F12003FF512004056C3EE1F
:10291300940150471200407F12003F25120040ED02
:1029230012003D5FFCA3E0FD8C831200415D1200A9
:102933003D64C394054012120040561200407F12BA
:10294300003E9012003F19E4F09000206AE004F08A
:10295300700790002069E004F080AF12003FF51289
:10296300004056C3EE94015048EF24C0FFEE340EEE
:10297300FEE43403FDE433FC9000211274401200A2
:102983003DAF241212003D5FFAA3E09000206D12C8
:102993000040A612003E9A120035C064016005741F
:1029A300B1F0800D9000206AE02440120040428084
:1029B300AE12003D9A12003EC212003D5F12003D6E
:1029C300DE78707C0D120040FD7E017F00012FA692
:1029D30012003D9A12003599400D12003D9A1200E3
:1029E3003DF1E4F00133C712003F4BFB8A83120031
:1029F3003DF3E4F07F807E0D7D0312003EB81200AC
:102A03003FDA603190000C49E0602A12003FEB127C
:102A1300003D5D12004032784A7C0C7D017E007FD0
:102A23000612000A1E1200417F400A9000205E74C5
:102A330001F00134641200404CF012003D501200CA
:102A43003F8164016003012AFC12003F25FD12004F
:102A53003F0E12003E90241212003D5F12003D6BA8
:102A630012003EC112003D5F12004105C083C082C7
:102A730012003E7A12004190D082D08312003F545C
:102A83007455F012003DC5241212003D5F1200413F
:102A93000DC083C08212003E7A12004197D082D0CB
:102AA3008312003F1774AA12003D99FF12003D588C
:102AB300240C12003DC0241212003D5F12003DDEC3
:102AC3007E0012003E6F1200406012003D91120022
:102AD3003EC212003D5F12003DDEA807FC7D017B74
:102AE300017A0C79707E017F0012003FC42400122A
:102AF30000419E3401F0012C8C9000205FE06402C1
:102B03006003012BD612003D9AFF12003D581200BC
:102B13003DBE241212003D5F12003D6B12003EC108
:102B230012003D5F12004105C083C08212003E7A4D
:102B330012004190D082D08312003F547455F0129A
:102B4300003DC5241212003D5F1200410DC083C039
:102B53008212003E7A12004197D082D08312003F46
:102B63001774AA12003D9912003EC212003D5F1273
:102B7300003DDEA807FC7D017B017A0C79507E00C5
:102B830012003E741200406012003D91FF12003D9E
:102B930058240D12003DC0241212003D5F12003D67
:102BA300DEA8077F3312003FBF243312003D91128A
:102BB300003EC212003D5F1200418612003DE2A8B2
:102BC300077FCD12003FBF24CD1200419E3400F099
:102BD300012C8C9000205FE064036003012C8912B8
:102BE300003D9A12003EC112003D5FFCA3E02404A5
:102BF3001200411512003DC5241212003D5F120060
:102C03003D6B12003EC112003D5F12004105C083BF
:102C1300C08212003E7A12004190D082D08312000B
:102C23003F547455F012003DC5241212003D5F124B
:102C330000410DC083C08212003E7A12004197D03A
:102C430082D08312003F1774AA12003D9912003EEE
:102C5300C112003D5FFCA3E0240A120041151200DB
:102C63003DC5241212003D5F12003DDE7E011200BD
:102C73003E6F120040601200419E3401F090000C40
:102C8300497401F080030133D79000206B7401F085
:102C9300A3742812003D9912003EC212003D5FFE4C
:102CA300A3E02400FFEE3402FAA9077B017D287C10
:102CB300011200355F120040ED12003D5FFCA3E0FE
:102CC3002400FDEC3402FC9000206CE02DFD90000C
:102CD300206BE0120041171200EE299000206CE0F7
:102CE30024021200417512003FF59000206BE012A0
:102CF300004010506EC39000206CE09DFF900020B8
:102D03006BE09CFEC3EF9420EE940040047F208090
:102D13000090002068EFF012003E19120040F512F7
:102D2300003E3212003FCE90002068E09000211256
:102D330012003DAF241212003D5FFAA3E02400FB12
:102D4300EA340212003E9A120035A3600990002073
:102D53005E74B1F0800D9000206AE02420120040E0
:102D63004280871200404C12003D9912003EC2126D
:102D7300003D5F12003DDEFAA9077B01784A7C0C17
:102D83007F0612003F069000206EE0240812003DEB
:102D93009112003EC212003D5F12003DDE78507C6E
:102DA3000C120040FD7E0012003E741200406012BF
:102DB300003D9112003EC212003D5F12003DDEFA5B
:102DC300A9077B0178707C0C7D017E017F001200D6
:102DD3000AB1E412003F3FF09000205EF0C201010F
:102DE30034649000205FE0B4550D12003D50FF2481
:102DF30005F8E664AA60028009EF2406F8E6640693
:102E0300600A9000205E74A4F00134647E007F02A7
:102E13007D0012003DB0240812003D5F12004029DE
:102E2300120040B412003DB0240812003D5FF97A4D
:102E3300007B001200E8A912003D9A12003E6712BF
:102E4300003D5F7A00F97B00C003C0012403120038
:102E5300400912003E09D001D003120035B6FFFE2F
:102E6300FDFC12003DB0240812003D5F12003F0F2D
:102E73001200E8A912003D9A12003E6712003D5F5E
:102E8300FF12003F0FC003C001EF240912004009E5
:102E930012003E09D001D003120035B6FFFEFDFC3F
:102EA30012003DB0240812003D5F240CF97A007B28
:102EB300001200E5D712003D9A12003E6612003D53
:102EC3005F2417F876FF12003DC5240812003D5F0A
:102ED300120035408C83759300240812003D5F1265
:102EE300003506240812003D5F12003E0312003530
:102EF300A360079000205E01342B12003DA3240839
:102F030012003D5F12003E03120035D360079000AC
:102F1300205E01342B90000C2712003F8C120040DE
:102F2300B490000C231200088F90000C4112003F54
:102F33008C90000C2274FFF0E4FFFEFDFC90000C6B
:102F43002B1200088F806012003F4BFB8A83120014
:102F53003D5AF9240512003F39EFF0D39410EE9453
:102F63000040030133D71200416E240629F8E4F62A
:102F73007FD012003F7912003FE812003D5D240626
:102F830012003E03120035D360079000205E013427
:102F93002B12003D5012003F0F78B77C0E7D017E4F
:102FA300007F1012000AB112004022013308120000
:102FB3003D9A1200359940030133C7E4FFFEFD1229
:102FC300003EB89000205FE070381200D054EF4EFE
:102FD300700A9000205E745DF0013464E4FFFEFD2E
:102FE300FC90000C2712003E3212003FE270097F72
:102FF300C07E107D03FC803490000C2712003E1429
:10300300802A120040E5702A12003D50FF2405F883
:10301300E6640460030133D712003F0E1200360644
:103023009000206412003E141200B0D412003EB986
:1030330080030133D79000206012003E2D12003F21
:10304300E26015120040B490002060E0F8A3A3A34F
:10305300E0C3120007E350030133D712003E109080
:10306300002112744012003DAF241212003D5FFA9A
:10307300A3E0F99000211312003EAE1200361B604C
:10308300079000205E01342B12003D9AFF12003D91
:10309300F17401F012003DC5241412003DF8E4F070
:1030A300A37440F0120040BD7440F012004022D2DD
:1030B30001D203013464120040E560030133D712E7
:1030C300003D50FF2405F8E6640460030133D71282
:1030D300003F0E1200360690000C2712003E14909B
:1030E300002112744012003DAF241212003D5FFA1A
:1030F300A3E0F99000211312003EAE1200361B60CC
:10310300079000205E01342B12003D9A12003EC24C
:1031130012003D5FFEA3E02405FFE43EFAA9077B0E
:10312300011200E9EE12003EB99000206412003E45
:10313300149000206012003E3212003FE2600A90B9
:1031430000205E745EF00134641200931D1200418E
:10315300A56003013464D201E401330812003D9AEF
:10316300120035F340030133C71200EFC812003DCC
:103173009A12003E6712003D5F1200362B12003D8B
:103183009A12003E6712003D5FFF12004156C003D2
:10319300C001EF1200400712003E09D001D0037DA9
:1031A30003120036137F8012003F79740612003D2C
:1031B300AF240812003D5F0412003E0312003623C1
:1031C30060079000205E01342BE490000C3DF090EA
:1031D30000205EF0C20112003F3FF07D647F0B12BE
:1031E30000B31C01346412003D9A120035F340030E
:1031F3000133C712003FDA6003013291FE7F20FDE5
:103203001200407812000955E47F207E01FD80788A
:103213007F3F7E0D7D037C009000206012003E32D4
:1032230012003FE2400301346412003E109000217B
:1032330012742012003EE312003623600790002030
:103243005E01342B7B817A1C794412003E10780591
:10325300120007F4EF5403FFE4FE74D32FF582EE5C
:10326300342212003D64900020DFF0120035FD90FF
:10327300002060E0FCA3E0FDA3E0FEA3E02420FF28
:10328300E43EFEE43DFDE43C12003EB88082900043
:10329300205FE0707812003D5012003F82D3940A01
:1032A30040030133D7E490002068F01200411EFE72
:1032B300C39F502B12003F258C8312003D5A240DCF
:1032C300FFEE25E025E02FF97A007B001200AE7DAA
:1032D300120041A5700990002068E004F080CC1230
:1032E30000411EC39F500301346412003D5012007D
:1032F30040321200D902120041A560030134641266
:10330300004022C20112003F3FF00134640133D771
:1033130012003FDA60030133D77F607E0D7D037CAB
:1033230000740A12003F468A8312003D5A2406F9AC
:103333009000211312003E0812006D87EF640160B4
:10334300079000205E01342B12003D50FF240DF83E
:10335300E6B45509EF240EF8E664AA60028035123C
:10336300003D5012003F0F7D067C001200E86712FB
:10337300003F258C8312003D5AFE240CF8E66F6053
:103383001E90000002EE12003F0F7D00AE83AF825D
:103393001200095512003D50240CF876AA80091238
:1033A300003D50240CF876FFD201120040BD740793
:1033B300F0E401345A12003D9AAA06F97B01120087
:1033C300BF63400A9000205E74A5F00134641200CC
:1033D3003FDA600A9000205E745CF00134641200EE
:1033E3003D50FF12004032C003C001EF240D120014
:1033F300400912003E09D001D0037D067C00120073
:10340300E756E47FF012003F79740C12003F4A8ABA
:103413008312003D5A240712003E03120054C8EFE2
:10342300640160099000205E74B1F0803412003DA5
:1034330050240778FB7C0E7F0412003D43240BF9D4
:103443007A007B001200EF6E90000EFFEEF0A3EF08
:10345300F0E412003F3FF09000205EF080037FA372
:10346300229000205DE0FF12003F25FD8C831200B7
:103473003D5A2403F8A6079000205EE0FF12003EA9
:103483009012003D5D2404F8A60720033212003D8C
:1034930050F97A007B001200416EFDA201920412E2
:1034A30000AC0890002068EFF0FD12003D9A120076
:1034B3004167240912003DF8E4F0A3F0FC802012D8
:1034C300003D9AAA06F97B011200408EA2019204E4
:1034D3001200A157501C12003D9AFF1200408E901B
:1034E30000205BE0FAA3E08A8375930024061200B0
:1034F3003E3D7B817A1C7953E4FD7F011200D98D17
:103503000120982418F97A007B001200EE29E47F49
:1035130010FEFDFC90002112741AF090002059E077
:10352300FAA3E08A8375930022F990002113E4F053
:10353300A3F0A3E9F0120054C8EF640122F97A0062
:103543007B007D187C001200E0A090002069EEF063
:10355300A3EFF090002059E0FCA3E0221200E0A0CA
:1035630090002069EEF0A3EFF090002059E0FCA357
:10357300E022AA06F97B011200BF6322AA06F97BA7
:10358300011200BF6322120054C8EF64012212002B
:103593006D87EF640122AA06F97B011200BF632243
:1035A300120054C8EF64012212006D879000205E60
:1035B300EFF0227D037C001200E756E42212005450
:1035C300C89000205EEFF02212006D87EF640122A5
:1035D300120054C8EF640122240CF97A007B001214
:1035E30000ECBC222410F97A007B001200EF6E225B
:1035F300AA06F97B011200BF6322E4FD7F011200DA
:10360300D98D221200E9EE900020641200088F2267
:103613007C001200E756E42212006D87EF6401225A
:10362300120054C8EF640122F97A007B0012004DA6
:10363300A72290002156EFF0A3EDF0A3EBF0A3EA4D
:10364300F0A3E9F0E49000215CF0A3F09000215F87
:10365300F090002166F0A3F0A3F0A304F0A3F0E43C
:10366300A3F0A3F0A3F0A3F0A3F0F514F513F51260
:10367300F5111200EF3890002158E0FBA3E0FAA304
:10368300E0F912001FE69000215EEFF09000215B4D
:10369300E060099000217074FFF08006E49000213F
:1036A30070F090002156E025E09000215DF0A3E04A
:1036B300F9FD90002157E0FE2DFDE433FCC3ED94AA
:1036C30010EC6480948040030137B7EEC394084044
:1036D30042E490002166F090002157E094089000A6
:1036E3002167F0E490002160F090002162E9F0E0AE
:1036F300FFC313FEA3F0E490002161F09000216F5B
:10370300EEF0EF540190002165F0E490002164F0A5
:1037130001386690002157E0FF90002166F0900089
:10372300215EE0FEFDEF2DFDE433FCC3ED9408ECD8
:1037330064809480500990002160EEF0E48017903B
:10374300002157E0FFC374089FFF90002160F090B1
:1037530000215EE0C39F90002162F0E490002167A6
:10376300F090002160E0FFC313A3F09000216EF0FE
:10377300EF540190002164F090002162E0FFC31335
:10378300A3F09000216FF0EF540190002165F070D9
:103793000301386690002164E070030138669000ED
:1037A3002167E004F090002163E004F0E090002141
:1037B3006F01385E90002157E0C394084042E490C3
:1037C300002164F090002157E0FF74109F900021C6
:1037D30062F0E490002160F0A3F090002166F0C352
:1037E300EF9408A3F090002162E0FFC313A3F090CD
:1037F30000216FF0EF540190002165F06065805C5B
:1038030090002157E0FFC374089F90002160F0905F
:103813000021627408F090002166EFF0E4A3F090B9
:10382300002160E0FFC313A3F09000216EF0EF547A
:1038330001FF90002164F090002162E0FEC313A316
:10384300F09000216FF07408540190002165F0EFAF
:1038530060117401F090002167E004F09000216B87
:103863007401F0E49000215FF09000215EE0FFA37B
:10387300E0C39F4003013D3D12002010E49000216E
:1038830068F09000215FE0FD900021977401F0A3A0
:103893007421F0A37491F090002158E0FBA3E0FAA7
:1038A300A3E0F91200CCC7EF64026003013D33903B
:1038B300002191E0FEA3E0FF1200D7518F148E1375
:1038C3008D128C117F407E047D047C00AB14AA13FF
:1038D300A912A811C3120007E3505BE4F51575BEE6
:1038E30001E42514FBE43513FAE5123430F9E43529
:1038F30011F8E4FCFDFEEB2515FFEE3AFEED39FD74
:10390300EC38FCE42FFFE43EFEED3401FDA907AAE9
:1039130006AB0512000524F516E4F5BE74712515F2
:10392300F582E43421F583759300E516F00515E57A
:1039330015B420AA80107E007F207DFF7B017A21B1
:1039430079711200095590002161E0D3940050036E
:10395300013A789000216EE0FF9000216CE09F40D7
:1039630003013A789000215DE044B8FB7D01E4FF58
:1039730012001D2B90002169E0600B90002166E08E
:1039830075F008A480139000216CE0C454F0FF90FC
:10399300002166E075F008A42F4440FB7D01E4FF9D
:1039A30012001D2BE49000215CF09000215CE0FFED
:1039B300C39410502874712FF582E43421F5837574
:1039C3009300E0FF90002170E0FEEF6EFBE4FDFF4B
:1039D30012001D2B9000215CE004F080CD900021AB
:1039E3005DE00444B8FB7D01E4FF12001D2B900051
:1039F3002169E0600B90002166E075F008A4801354
:103A03009000216CE0C454F0FF90002166E075F053
:103A130008A42F4440FB7D01E4FF12001D2B9000FE
:103A2300215C7410F09000215CE0FFC394205028C7
:103A330074712FF582E43421F583759300E0FF90D0
:103A4300002170E0FEEF6EFBE4FDFF12001D2B90E2
:103A530000215CE004F080CDE490002169F0900047
:103A63002161E014F0E070069000216804F09000FA
:103A7300216CE004F090002161E06003013D33908C
:103A8300002163E0D394005003013D33900021688B
:103A9300E064017003013D339000216FE0FF90006B
:103AA300216DE09F4003013D3390002165E07003E9
:103AB300013C1690002164E07003013C1690002144
:103AC3005DE044B8FB7D01E4FF12001D2B7B787D94
:103AD30001E4FF12001D2BE49000215CF090002113
:103AE3005CE0FFC39408502874712FF582E43421FD
:103AF300F583759300E0FF90002170E0FEEF6EFB0D
:103B0300E4FDFF12001D2B9000215CE004F080CD4A
:103B13009000215DE00444B8FB7D01E4FF12001D29
:103B23002B7B787D01E4FF12001D2B9000215C7438
:103B330010F09000215CE0FFC39418502874712F9B
:103B4300F582E43421F583759300E0FF9000217042
:103B5300E0FEEF6EFBE4FDFF12001D2B9000215CE5
:103B6300E004F080CD9000215DE044B8FB7D017F4F
:103B73000112001D2B7B407D017F0112001D2B9044
:103B830000215C7408F09000215CE0FFC3941050A6
:103B93002974712FF582E43421F583759300E0FFD6
:103BA30090002170E0FEEF6EFBE4FD7F0112001D2B
:103BB3002B9000215CE004F080CC9000215DE004B8
:103BC30044B8FB7D017F0112001D2B7B407D017FEB
:103BD3000112001D2B9000215C7418F09000215CF1
:103BE300E0FFC394204003013D1C74712FF582E470
:103BF3003421F583759300E0FF90002170E0FEEF20
:103C03006EFBE4FD7F0112001D2B9000215CE0049C
:103C1300F080C99000215DE044B8FB7D017F011273
:103C2300001D2B9000216AE0600FA3E0600B900061
:103C33002167E075F008A480139000216DE0C4545F
:103C4300F0FF90002167E075F008A42F4440FB7D4E
:103C5300017F0112001D2BE49000215CF012002073
:103C6300109000215CE02471F582E43421F5837522
:103C73009300E0FF90002170E0FEEF6EFBE4FD7F18
:103C83000112001D2B9000215CE004F0E0C39410AE
:103C930040CB9000215DE00444B8FB7D017F01121D
:103CA300001D2B9000216AE0600FA3E0600B9000E1
:103CB3002167E075F008A480139000216DE0C454DF
:103CC300F0FF90002167E075F008A42F4440FB7DCE
:103CD300017F0112001D2B9000215C7410F09000F5
:103CE300215CE0FFC39420502974712FF582E434E2
:103CF30021F583759300E0FF90002170E0FEEF6EE5
:103D0300FBE4FD7F0112001D2B9000215CE004F019
:103D130080CC9000216DE004F0E490002165F090E8
:103D2300002164F09000216AF090002163E014F018
:103D33009000215FE004F001386CE4FF0200EF3DE6
:103D4300F97A007B007D017E0012000AB190002009
:103D530059E0FEA3E08E837593002407F582E435D2
:103D630083F583759300E022FEA3E0FF9000206DAE
:103D7300E0FCA3E0FDEF2DFFEE3CA807FC7D017EF8
:103D8300007F0612000AB19000206EE02406F09036
:103D930000206DE03400F090002059E0FEA3E02203
:103DA300E47FA090002112FEFDFC741AF090002025
:103DB30059E0FAA3E08A83759300222407F97A0075
:103DC3007B008F828E83759300E58222F8A607908D
:103DD30000206FE0FBA3E0FAA3E022FEA3E0FF9044
:103DE30000206DE0FCA3E0FDEF2DFFEE3C228E836F
:103DF3007593002411F582E43583F58375930022CE
:103E030090002113F9E4F0A3F0A3E9F0229000203D
:103E130060E0FCA3E0FDA3E0FEA3E0FF227F04F843
:103E23007C007D007E0002000AB1E4FFFEFDFCE0A1
:103E3300F8A3E0F9A3E0FAA3E022F582E43583F5E1
:103E430083759300E493FB740193FA740293F582F0
:103E53008A838B930200094EF87C007D007E00026A
:103E6300000AB1FF8E83759300240822A807FC7D06
:103E7300017F2002000AB17593009000206DE47564
:103E8300F00102000620740FF0749AA3F08D828C67
:103E930083759300E58222FA90002069E0F8A3E09D
:103EA3002BFBE83A90002113FAA9037401F0A3EA6B
:103EB300F0A3E9F022FC900020600200088FFF8E3F
:103EC30083759300241222A3E0FAA3E02412F9E4F9
:103ED3003AFA020006367F607E0D7D037C00740A89
:103EE300F0A37401F0A3740FF0A3749AF0222407D3
:103EF300F9E43AFA02000524F97A007B00781E7C83
:103F03000C7F047D017E0002000AB1EF2406F97ADA
:103F1300007B0022E5822FF582E5833EF5837593CE
:103F2300002290002059E0FCA3E022F87C007D00F1
:103F33007E0002000AB1F8E6FF7E00EE9000206BDF
:103F4300F0A32290002112F090002059E0FAA3E0A0
:103F530022E5822DF582E5833CF583759300227F6C
:103F630006F87C007D007E0002000A1EFC7D017EB7
:103F73000002000AB1E4FEFDFC9000211222FF249E
:103F830005F8E69000205FF022E4FFFEFDFC02004E
:103F9300088FFEE5F02403FFE43EFEE92FF9EA3E35
:103FA300FA74C302000556900020D6A3A3E0FEA333
:103FB300E0FDAC06249AF582740F3C22FC7D017E61
:103FC3000012000AB19000206EE0222FFFEA3EFEAD
:103FD300ED39FDEC38FC229000205FE0649922FB70
:103FE300C3020007E37410F08B828A83759300E5A4
:103FF3008222E490002069F0A3F0227E207F427C9D
:104003001B7D0C222404F990002113EB22FEA3E074
:10401300FF90002069E0FCA3E0FDC39FEC9E22E437
:104023009000205EF022F97A007B000200095524FB
:1040330007F97A007B00228E83759300241422F003
:1040430090002069E03400F0229000206D7402F0AB
:10405300A3E42290002069E0FEA3E0FF2290002069
:104063006EE02420222414F9E43AFAE475F0010204
:1040730000065A7D017B017A0F799A229000206E07
:10408300E02FFF9000206DE03EFE229000206BE0C9
:10409300FCA3E0FD22FAEF1200055690002073E026
:1040A30004F022FBE0F8A3E0F582EB2582FBEA387B
:1040B300227FC07E107D037C0022E49000206BF001
:1040C300A322FFFDFC0200088FE4FEFDFC9000210B
:1040D300122290002072E004F0227F067E0002008C
:1040E3000AB19000205FE06401228C837593002461
:1040F3001222E4FCFD9000206022FAA9077B017DD7
:104103000122FCA3E0F5828C8322FEA3E0F5828EDC
:104113008322FDE43CFAA9057B01229000205FE0A5
:10412300FF90002068E022FE9000206FA3E0FAA336
:10413300E022749A2DF582740F3CF5832275930067
:10414300E0FF900020D5E022789A7C0F7D0190005B
:1041530020CE2204F97A007B00227593002FF5828A
:10416300E5833E22FF8E83759300229000206BA38C
:10417300E022F09000206BE03400F022C3EF648073
:10418300948022FEA3E0FFAA06F97B0122ADF0FC96
:1041930075930022AFF0FE75930022F09000206D1E
:1041A300E0229000205EEFF0227DB17C007E0422AD
:1041B300900020917401F0E4A3F0A37407F07F0151
:1041C3001200984B90002090EFF014601624FC60CE
:1041D3002D2403702C90002092E0D394004022E021
:1041E30014801190002093E0FF90002092E0C39F81
:1041F300500FE004F0900020917401F080037F00E1
:104203002290002091E060B67F447B017A207942BE
:10421300120069A690002092E0B408004003014414
:10422300DE9000422D25E025E0730200424D02009E
:1042330042B8020042FF02004340020043930200DF
:1042430043E2020044280200446B74811200692C8B
:104253007415F074CF1200454E7481F0A37415F0F9
:10426300A374DAF090000C1E1200696590000C1F15
:104273001200699A90000C2012006A8690000C21AB
:10428300E0FF9000215CE41200455F7481F0A374A9
:1042930015F074EB120045B41200EFC87B017A20CD
:1042A300798612004DA712006A0E7B017A20798667
:1042B3007D0701442174811200692C7415F074F494
:1042C3001200454E120069C290000C411200451CB9
:1042D3007481F0A37416F074081200457212006919
:1042E300C290000C45120068DDE4120000CDE4FB2F
:1042F300FA79C878421200002B01438874811200B6
:10430300693D7416F0741512004583120069C2905A
:10431300000C361200451C7481F0A37416F0741E51
:10432300120045727481F0A37416F0A3742BF090FD
:10433300000C3CE0FF90002156E40144D07481124C
:1043430000693D7416F07431120045837481F0A343
:104353007416F0A3743AF090000C3A12006AC31278
:1043630000455F7481F0A37416F07440120045B4E5
:104373007481120069557416F0A3744BF090000C0D
:104383002B120068DD900021561200088F0144D4DF
:104393007481120069557416F0744F120045C112EE
:1043A30000D05474811200698D7416F0A3745AF00E
:1043B300A3EEF0EF120045CE74811200698D7416DE
:1043C300F0A37460F07A2079641200459412006AB5
:1043D3003F7481F0A37416F0A3746CF00144D47499
:1043E30081120069CE7416F07476120045C174818F
:1043F300120069CE7416F0A37480F090000C3DE0B7
:1044030090002156120045A37B817A16798612000B
:104413006A4812006A0E7B017A0E79EF7D0612005C
:10442300DA9D0144DE748112006A6F7416F0A3747E
:1044330093F07A2079421200459412006A3F748106
:10444300F0A37416F07499120045CE748112006AB9
:104453006F12006A3F7481F0A37416F0A374A5F081
:104463007B017A207964806F78427C207D017B8197
:104473007A1679AE12000B3E900021537481F0A39B
:104483007416F0A374B7F090000EFB1200696590E8
:10449300000EFC1200699A90000EFD12006A8690CD
:1044A300000EFEE09000215C120045A37B817A168A
:1044B30079C312006A48900021537481F0A37416E3
:1044C300F0A374CEF090000EFF12006AC3F0A3EFC6
:1044D300F07B017A20797512000CD9E490002091C9
:1044E300F01200EE9DE490002090F090002090E008
:1044F300FFC3940440030141C1EF75F011A42442AA
:10450300F9742035F0FA7B011200695D1200AAC329
:1045130090002090E004F080D2E0FCA3E0FDA3E053
:10452300FEA3E0FFE4120000CDE4FBFA79C8784271
:104533001200002B900021561200088F7B017A2075
:10454300795312000CD99000215322A3F07B017AF6
:1045530020794212000CD99000215322F0A3EFF0EE
:104563007B017A20795312000CD99000215322A3A6
:10457300F07B017A20796412000CD9900021532238
:10458300A3F07B017A20794212000CD990002153C9
:10459300227B0112000CD9900021537481F0A322D5
:1045A300FFE4F0A3EFF07B017A20795312000CD9DA
:1045B30022A3F07B017A20796412000CD922A3F0A4
:1045C3007B017A20794212000CD922A3F07B017A75
:1045D30020795312000CD92290002231EFF0E4909D
:1045E30000223AF0A3F0A3F0A3F0A3F0A3F0A3F00A
:1045F300A3F0A3F0A3F090002245F0A3F07F0112F3
:1046030000EFDC75BE017B317A00790074F712008C
:104613000556E4F5BE7F0A1200000375BE017B3127
:104623007A00790074F812000556790CE41200053B
:1046330056790F12000524F56EE4F5BEFF1200E86B
:10464300367F281200201AE4F5BE90002236E0FFE0
:10465300C394014006EFD3940340037F00229000EC
:104663002231E0FF64016004EFB40405756EF98044
:1046730003756EFA75BE017B317A007900E56E121F
:10468300000556790CE41200055679011200052441
:10469300F56E536ED8E56E1200055612000524F52B
:1046A3006E790574FF12000556E4F5BE7F807E2502
:1046B300FDFC90002232E0F8A3E0F9A3E0FAA3E0C6
:1046C300FBC3120007E370028042E4FF7E4BFDFC54
:1046D30090002232E0F8A3E0F9A3E0FAA3E0FBC3E1
:1046E300120007E37005756E068024E4FF7E96FDD5
:1046F300FC90002232E0F8A3E0F9A3E0FAA3E0FB88
:10470300C3120007E37005756E038003756E0C75A5
:10471300BE017B317A007902E56E12000556E4F59D
:10472300BE90002236E0FFB40105756E08800CEFE1
:10473300B40205756E028003E4F56E75BE017B312C
:104743007A007907E56E12000556790312000524F5
:10475300F56E536EF7436E64536EFEE56E120005FD
:1047630056790612000524F56E436E01536EF7E584
:104773006E12000556E4F5BE7F011200E83675BEE1
:10478300017B317A00790C12000524F56EE4F5BE45
:104793007F321200201A75BE017B317A00790C1228
:1047A300000524F56E7F011200ED1FE41F1200EBDC
:1047B300EFE4F56F90002245F0A3F090002245E06E
:1047C300FEA3E0FF7DE87C031200F004EF6005E444
:1047D300FF0149FD7B007A00796E1200E178EF60FA
:1047E3001EE4F5BE90002237E0FBA3E0FAA3E02528
:1047F3006FF9E43AFAE56E12000556056F801290E0
:10480300002246E004F070B390002245E004F080FB
:10481300AAE490002245F0A3F09000223BF075BE7D
:10482300017B31FA790974C012000556790B74259E
:104833001200055619748012000556790874651222
:104843000005567B007A00796E1200E178EF700361
:1048530001499175BE017B317A00790B74251200F1
:10486300055619748012000556E4F5BE90002237F0
:10487300E0FBA3E0FAA3E0256FF9E43AFAE56E1250
:10488300000556E56F6401707090002237E0FBA3CA
:10489300E0FAA3E02401F9E43AFA12000524FF54F4
:1048A3000F9000223BF0EF30E40BA37401F0900073
:1048B300223BE004F01200052430E50E9000223D77
:1048C3007401F09000223BE004F012000524FF3055
:1048D300E60E9000223E7401F09000223BE004F0CB
:1048E300EF30E70E9000223F7401F09000223BE08E
:1048F30004F0900022447402F0E56F640270569055
:1049030000223CE0604F90002237E0FBA3E0FAA3D3
:10491300E02402F9E43AFA12000524540F24FE605D
:104923000B14601124FB60162407801B9000223AAD
:104933007406F080199000223A7403F080109000FE
:10494300223A7401F080079000223A740CF0900030
:104953002244E004F09000223BE004656F702BA337
:10496300E0601CE4F5BE9000223AE0F56E75BE01EE
:104973007B317A007902E56E12000556E4F5BEE458
:10498300F5BEFF1200EFDCAF6F22056F802675BE08
:10499300017B317A00790E12000524F56EE4F5BE31
:1049A300E56E20E703014846E4FF1200ED1F120005
:1049B300E824804675BE017B317A00790E1200052A
:1049C30024F56EE4F5BEE56E30E51090002246E076
:1049D30004F0700790002245E004F090002245E0C7
:1049E300FEA3E0C3940AEE94005003014846E4F5A5
:1049F300BEFF1200ED1F1200E8241200EFDC2212AA
:104A030000C2F4EF6401600F7B817A1579617DB197
:104A13007C007F5D014D221200EFC87B017A0E7985
:104A23007012004DA7E47F401200697C74181200D5
:104A3300683C12004D81600F7B817A1579687DB1E6
:104A43007C007F66014D22E538B45506E53964AA3A
:104A5300600F7B817A15796D7D5C7C007F6B014CE7
:104A63004078287C007A0079307F0612006971EF64
:104A7300600F7B817A1579737D5C7C007F70014CBC
:104A830040900020727401F0A3740CF0A37416F02C
:104A93007B007A0079281200E92D7F601200697B80
:104AA30074201200683C12004D816009120069D520
:104AB3007F7B014D22120069467D1E7C0012004D52
:104AC30091F07B007A0079421200EE2978407C0055
:104AD3007A0079427F0212006971EF600F7B817A5D
:104AE30015797C7D5C7C007F83014C4078307C0CA5
:104AF300120068497B007A0079281200ECBC900010
:104B03000C361200088F90000C3CE52BF07B007AEA
:104B130000792C1200EF6E90000C3AEEF0A3EFF048
:104B2300E47F801200697C74061200683C12004D19
:104B3300896009120069D57F8D014D22120069E851
:104B43007400F074281200694412004D9E78257C8D
:104B5300007D007A007928120068EF603B78227CA0
:104B63000012006A1E1200686F120069E87400F0F8
:104B730074251200694412004D9E7F8012006A362C
:104B830074061200683C120054C8EF6401600912F5
:104B93000069D57F97014D2290001FF47401F0A3A3
:104BA300740EF0A37471120069451200E241900083
:104BB3000C3DEFF01200F02950037F052212006A2A
:104BC3005212006A92942AEA94015026EB2480FF41
:104BD300EA340D1200688712004D89600F7B817AD9
:104BE3001579827DB17C007FA5014D22120069F009
:104BF30080CFE490000C49F090000FA0E0B455067C
:104C0300A3E064AA600812006A9D7FAC802F7B0139
:104C13007A0F799A7D287C0112004D911200694523
:104C23001200EE2978227C007B017A1079C27F0280
:104C330012006A7EEF600F12006A9D7FB37E01123D
:104C430000BAA67F5C22784A7C0C7A0F799A7F0699
:104C53001200693378507C0C7A0F79A27F201200FE
:104C6300693378707C0C7D017B017A0F79C27E01F8
:104C73007F0012000AB1E47FD01200697C74201215
:104C830000683C12006D87EF6401600F7B817A1529
:104C9300798D7DB17C007FBD014D2278B77C0E7F7D
:104CA300101200684BE490000EC7F0120069E9741B
:104CB30000F0A37442F012006A5B7D047C001200D2
:104CC300E75678427C007B007A0079367F04120035
:104CD3006A7EEF6007E4FFFEFDFC800812006A5B5A
:104CE3001200E9EE90000C451200088FE490000CCE
:104CF3002FF012006A5312006A92EA9401502FEBCC
:104D030024C0FFEA340E1200688712006D87EF6437
:104D13000160157B817A1579927DB17C007FD17E0C
:104D2300011200BAA67FB122120069F080C81200F6
:104D33006A5290001FEFE0FEA3E0FFC3EE94015020
:104D430038749A2FF582740F3EF583759300E0FF54
:104D5300C3940590001FEF400812006A27E4F08017
:104D63000612006A27EFF090001FF0E004F070C213
:104D730090001FEFE004F080B91200E36D221200EF
:104D83006D87EF64012212006D87EF640122120028
:104D9300E0A090001FEFEEF0A3EF227D037C001252
:104DA30000E75622900020C7EBF0A3EAF0A3E9F056
:104DB30043F908A3E5FBF0A3E5FCF0E5FD541FA3CD
:104DC300F0A3E5FEF0A3E5FFF0900020CAE0FF7535
:104DD300F00A84C454F0FEEF75F00A84E5F0540F32
:104DE3002E900020D5F0900020CBE0FF75F00A84D0
:104DF300C454F0FEEF75F00A84E5F0540F2E9000D2
:104E030020D4F0900020CCE0FF75F00A84C454F065
:104E1300FEEF75F00A84E5F0540F2E900020D3F0D6
:104E2300900020CEE0900020D6F0900020CDE090BE
:104E33000020D7F0E4900020CFF0A3F0900020DD15
:104E43007407F0A374D0F0120020101200EB51BFCE
:104E5300012AD3900020D7E0946E900020D6E094EE
:104E630001406E900020D0E004F07007900020CF46
:104E7300E004F0900020D7E024928028D390002013
:104E8300D7E0946D900020D6E09401404490002038
:104E9300D0E004F07007900020CFE004F0900020F1
:104EA300D7E02493F0900020D6E034FEF090002069
:104EB300DEE004F07007900020DDE004F0C3900012
:104EC30020DEE09484900020DDE094085003014E3E
:104ED3004A900020CFE0FFA3E0900020D8CFF0A3BA
:104EE300EFF0900020CF7420F0A3E4F0900020D8DE
:104EF300E0FEA3E0FF7C007D641200057CEF540F0D
:104F0300FE900020D0E02400F0900020CFE03EF09F
:104F1300900020D8E0FEA3E0FF7C007D6412000532
:104F23007C7C007D641200056AC3900020D9E09F59
:104F3300F0900020D8E09EF0E0FEA3E0FF7D0A128F
:104F430000057CEFC4F8540FC868FFEF54F0FF90DE
:104F53000020D0E02FF0900020CFE03400F090004C
:104F630020D8E0FEA3E0FF7C007D0A1200057C7CD4
:104F7300007D0A1200056AC3900020D9E09FF090DB
:104F83000020D8E09EF0A3E0540FFF900020D0E073
:104F93002FF0900020CFE03400F0E0FFA3E090007A
:104FA30020D8CFF0A3EFF0900020D8E054F0D394B2
:104FB3009040037F0022900020D8E0540FD394093F
:104FC30040037F0022900020D9E054F0D394904016
:104FD300037F0022900020D9E0540FD394094003AB
:104FE3007F00221200EB51900020DABF010D748183
:104FF300F0A3741FF0A374B8F0800B7481F0A37452
:105003001FF0A374C4F0900020DF7401F09000201F
:10501300DDE4F0A304F0900020DDE0FEA3E0FFC395
:10502300940CEE94005058900020DAE0FBA3E0FAD1
:10503300A3E0F9C3EF9401FFEE9400FEE92FF9EA30
:105043003EFA12000524FF7E00D3900020D7E09F94
:10505300900020D6E09E4027900020DFE004F090EF
:105063000020D7E09FF0900020D6E09EF090002033
:10507300DEE004F070A0900020DDE004F08097E40F
:10508300900020D1F0900020DFE0FF75F00A84FE4D
:10509300C454F0FD900020D1E02DF0EE75F00AA489
:1050A300FEC3EF9E900020DFF0540FFF900020D14D
:1050B300E02FF0E0FFD39412500AEF540F940950FD
:1050C30003E070037F0022E4900020D2F0900020E0
:1050D300D6E0A3E0900020DFF0E0FF75F00A84FE45
:1050E300C454F0FD900020D2E02DF0EE75F00AA438
:1050F300FEC3EF9E900020DFF0540FFF900020D2FC
:10510300E02FF0E0FFD394315007EF540F940940A0
:10511300037F0022900020C7E0FBA3E0FAA3E0F89E
:10512300AC02AD037B017A2079CF7E007F071200AA
:105133000AB17F0122900020B6EBF0A3EAF0A3E9C5
:10514300F09000210D741AF07E007D001200859D01
:10515300120085BD9000210B7401F07F10120054E2
:105163004670037FB122120086789000210DE0C3C0
:105173009402FD1200547070469000210AF0120050
:105183008579B5061E120086C31200859612008724
:105193000F12008596B5060B9000210AE004F0E09B
:1051A300B403DB120085CDE49000210BF090000CDA
:1051B3002FE0700B7FA01200549F70037FB12290E9
:1051C30000210BE064017059FEFD1200859D7FA054
:1051D3001200544670037FB122120085BD1200866F
:1051E300787D181200547060037F5C22E4900021E4
:1051F3000AF0120085796E60037F5C22120086C379
:10520300120085961200870F120085966E60037F49
:105213005C229000210AE004F0E0B403D51200857B
:10522300CD7B017A2079CD1200E9EE900020B612F1
:105233000085712405F9E43AFA12000837120008D0
:105243001A90000C2B1200088F120086781200ECC3
:10525300BC90000C231200088F120087251200EC6B
:10526300BC90000C271200088F900020D8120087F2
:105273002C9000210CF01200EF1B50037F0D221223
:10528300008550C3120007E37030FC90000C271216
:1052930000865C7FC07E107D037C00120087251290
:1052A30000E8A9120086BA7420F0A374CAF01200B1
:1052B30087257D037C001200E7561200854190008C
:1052C30020BD120085ADE4FFFE7D08FC900020BDEB
:1052D30012008559C3120007E340317C009000207F
:1052E300BD1200865C90000C2712008545FF9000DC
:1052F30020BD12008559D3120007E35008E4900043
:10530300210CF080079000210C74FFF012008541FE
:10531300FF900020B6120085712437F9E43AFA129F
:10532300000837900020BD12008545FF12008678E3
:105333001200E8A9120086BA7420F0A374C4120004
:1053430086777D037C001200E7567B017A2079D1B2
:105353001200E9EE90000C411200088F78037C21C3
:105363007D017B017A2079D57E007F0312000AB18B
:1053730090000C4112008545FF900020B612008575
:10538300712411F9E43AFA12000852EF2BFFEE3AB6
:10539300FEED39FDEC38FC90000C411200088F78CB
:1053A3003E7C0C7A2079D57F03120085D790000CC0
:1053B3004112008545FF7B017A2079D11200E5D7A0
:1053C300900020B6120085712405120086A9EF1201
:1053D30000867F7B017A2079CD1200E5D790000CFF
:1053E3002B120085451200867F90000C2B120008BB
:1053F3008F900020BD12008545FF90000C23120002
:10540300088F9000210CE0900020D8120086777D51
:10541300187C001200E0A0900020BBEEF0A3EFF098
:105423007B017A2079D91200EE29E47F101200540F
:105433009F6401700B9000210C1200872C7F0022C7
:105443007FB122E4FEFDFC9000210DE090002112CB
:10545300F0A37401F0A37420F0A374C1F012006DE3
:10546300877E00900020B9EEF0A3EFF0227C0012BB
:1054730000E0A0900020BBEEF0A3EFF07B017A21C7
:1054830079011200EE2978017C217D017B017A20CC
:1054930079D97E007F0212000A1EEF22FEFDFC90E6
:1054A30000210DE090002112F0A37401F0A37420F9
:1054B300F0A374C1F0120054C87E00900020B9EE2E
:1054C300F0A3EFF0229000210E1200088FE4900069
:1054D3002116F090002112E0D3945040037F002264
:1054E3009000210EA3A3A3E0540FFFE4FEFDFCFBF9
:1054F300FAF9F8C3120007E360037F00229000214A
:105503000EE0FCA3E0FDA3E0FEA3E0FF9000217307
:105513001200088F78717C217D017B017A217975D6
:105523007E007F0212000AB190002174E01313542D
:105533003F9000216DF090002171E0FFA3E0900007
:10554300216FCFF0A3EFF090002174E0540390009B
:10555300216EF0E490002116F0120020107B017AF6
:105563001F79519000217CE41200CD9A7B017A21AE
:1055730079179000217CE41200CD9A90002117E066
:10558300FF90001F51E0FE6F6003015842EE64423A
:1055930060030156BD7B017A1F79519000217CF095
:1055A300A374561200CD9D90001F52E0D394034084
:1055B3000301584290001F53E0D394034003015862
:1055C30042D390001F55E094F090001F54E094FFE5
:1055D300400301584290001F56E0D394504003010A
:1055E30058427E007F567D007B017A217917120095
:1055F30009557B017A2179179000217CE4F0A3748B
:10560300561200CD9D78177C217D017B017A1F798D
:10561300517E007F5612000A1EEF6003015842902C
:10562300001F52E0FFA3E0FD90001F56E090002111
:105633007BF0A37401F0A3741FF0A37457F09000E0
:105643001F541200CE43EF70030158427E007F5671
:105653007D007B017A2179171200095590001F52B2
:10566300E0FFA3E0FD90001F56E09000217BF0A334
:105673007401F0A37421F074171200C4AAEF70032D
:1056830001584290001F56E0FF7E0078577C1F7D33
:10569300017B017A21791712000A1EEF600301587A
:1056A300421200C9A91200CD8A90001F51E0FF9059
:1056B300002117E06F600301584290001DEF744111
:1056C300F09000216DE090001DF0F09000216EE05D
:1056D30090001DF1F09000216FE0FFA3E090001D0A
:1056E300F2CFF0A3EFF090002112E0FF90001DF441
:1056F300F07E0078F57C1D7D0190002113E0FBA373
:10570300E0FAA3E0F912000AB17B017A1D79F09067
:1057130000217CE4F0A37455F07F9D7E071200C93D
:10572300C37E007F557D007B017A21791712000922
:10573300557B017A2179179000217CE4F0A37455FD
:10574300F07F9D7E071200CDA278177C217D017B1F
:10575300017A1D79F07E007F5512000A1EEF600367
:1057630001584290001DEF7442F07B017A1D79EFDE
:105773001200C9B61200CD8A90001DEFE0FF900021
:105783002117E06F60030158429000216DE0FFA3F1
:10579300E0FD90002112E09000217BF090002113A6
:1057A300E0F9A3E0FAA3E09000217CC9F0A3EAF0BA
:1057B300A3E9F09000216F1200CE43EF700301586C
:1057C300427E007F507D007B017A21791712000908
:1057D300559000216DE0FFA3E0FD90002112E090C1
:1057E30000217BF0A37401F0A37421F0A37417F0DC
:1057F3009000216F1200C4B0EF604490002112E0CA
:10580300FF7E0078177C217D01A3E0FBA3E0FAA3D0
:10581300E0F912000A1EEF702690001DEF7441F0AC
:105823007B017A1D79EF1200C9B61200CD8A900070
:105833001DEFE0FF90002117E0B507037F012290E1
:10584300002116E004F0E0C39403500301555C7F8C
:105853000022784A7C207D017B817A1F791E7E009D
:105863007F0512000AB17B017A2079531200866DFD
:105873007B017A20795D1200866D7F0412008747D1
:105883001200861E7E007F3B7DFF120086311200D0
:10589300095512008616120087471200DF551200C1
:1058A30086666003E0FF221200EF1B50037F0D2288
:1058B300120087471200C3D1120086666015E024E8
:1058C300F9600724056003015B4E7F0212005BC28F
:1058D300015B4E120086DE74702FF582740C3E124B
:1058E300008596FFE4FCFDFE90000C3612008559FE
:1058F300120006A2E47B64FAF9F81200072D900067
:10590300204F1200088F7E007F147D007B017A20D8
:1059130079A21200095590000F7212008545FF907D
:105923000020701200088F78687C207D01120086A9
:1059330038787E7C207D017A0E79717F061200868D
:105943003E9000204F12008545FF90002078120002
:10595300088F900020B9120086261200B88F12001B
:105963008666600DE0B45A067F0812005BC2015BD5
:105973004E9000204F12008545FF90000F781200D3
:105983008559C3120007E350097F0F12005BC97FDB
:10599300092290000F7812008545FF9000207412B1
:1059A30000088FE490002086F090000F81E024012E
:1059B300FE90000F80E034009000207CF0A3CEF036
:1059C3009000208474FFF0A37401F09000209DF0F8
:1059D3001200BC9A12008666601FE0FBB40617E44F
:1059E30090002084F09000209D7402F090002078B5
:1059F300120086B18003AF032212008631120051D8
:105A030038120086666003E0FF2212008616120039
:105A13008631120087077D011200831B1200866600
:105A23006003E0FF2290002084E0701B7B817A1EDC
:105A330079E97D017F011200D98D1200F0877F077C
:105A430012005BC97F0622900020B912008626123D
:105A530000E2A5120086669000204F12008559903F
:105A630000207412008545120085F2FC120086970F
:105A73007B017A20795D1200EF9E9000204F120087
:105A83008545FF120086977B017A2079531200EF38
:105A93009E1200874E12008559C3120007E3700857
:105AA3007B817A1E79EE8016900020DF7401F0A3CB
:105AB3007420F0A37453F07B817A1E79F5E4FD7FA3
:105AC300011200D98D900020DF7401F0A37420F03F
:105AD300A3745DF07B817A1F79007F0212005BD093
