:10000000021B0E7E11DEFEDFFA00220200BFDE536D
:10001000E8EF438EC075C7AA75C75543D803227F42
:020020000122BB
:100023000200B9630200014BEC5D046005E859046A
:100033007004020001411200010C580460F4EC4802
:1000430060F0EC7004FDFEFF22C860D82481C85024
:100053000AC39860025007020001489850C6F5820F
:10006300E9294B4A7006AB820200013775F0007C28
:100073001A7880C3EF9BEE9AED99400DC3EF9BFF77
:10008300EE9AFEED99FDE842F0DC24ACF0D0E0FFFF
:10009300D0E0FED0E0FDAB8220E7101BEB60B8ECB4
:1000A3002CFCEF33FFEE33FEED33FD02000123E8BA
:1000B30003F830E705C0F075F000EF2FFFEE33FED5
:1000C300ED33FD40B730E7C180A975F020800E7590
:1000D300F010800575F0087D007E007F003392D517
:1000E30030D504120007BFEC334010EF33FFEE337B
:1000F300FEED33FDEC33FCD5F0ED22E5F0247EA2DA
:10010300D513CC92E7CDCEFF22E9D2E7C933E8334A
:10011300F892D5EDD2E7CD33EC33FC5002B2D522C1
:10012300EC30E7100FBF000C0EBE00080DBD00043D
:100133000BEB6014A2D5EB13FCED92E7FD2274FFE9
:10014300FCFDFEFF22E480F8A2D574FF13FC7D8042
:10015300E480EFF920E73624F950037907E4F42427
:1001630002FBE582158270021583DBF6E024FB5067
:100173001BE96014E4F0E582158270021583E00444
:10018300F0B40A08E4F0D9EE7401F00A22C2D522D1
:10019300ED33EC3392D5FA602AB4FF33EDC2E77B3B
:1001A3008160067A0179B8E4227A0179C120D50405
:1001B3007A0179BC224E614E002B494E46002D49EF
:1001C3004E4600E47A08F0A3DAFC7B00740722C0F1
:1001D30093C083C082ECC0E0EDC0E0EEC0E0EFC0AE
:1001E300E0EA75F010A4CAABF075F04DA42BFBE464
:1001F30035F0FCEA2410FAEB34C5FBEC34D9FCED02
:10020300C2E7FF75F056A4F42411C5F0F434C58F8A
:10021300F0A42AE5F03BE43CF020E716120004DEEC
:10022300D0E0FFD0E0FED0E0FDD0E0FC1200002BD8
:100233008016F404120004DED0E0FFD0E0FED0E02C
:10024300FDD0E0FC120003A0D082D083D093E0FA6B
:10025300EDD2E7CD33EC332482FBE4C3CF33CFCEEF
:1002630033CECD33CD33DBF37B0775F00A846004E3
:10027300F0A31B0AE5F0F0A38FF0740AA4FFACF01F
:100283008EF0740AA42CFEACF050010C8DF0740AAD
:10029300A42CFDE435F0F0A3DBDE74072202000199
:1002A30041E86480F8E933E83360110460EFED332B
:1002B300EC337009E8FCE9FDEAFEEBFF220460DDA4
:1002C300D3EB9FEA9EE99DE8C2E78CF0C2F795F075
:1002D300400CE8CCF8E9CDF9EACEFAEBCFFB1200FB
:1002E300010C85D0F05804700320D5B1E8047008E0
:1002F3005002B2D50200014B92D5EC0460F6E4CC77
:10030300C0E0C398F8603C94186009400ED0E0FB4D
:1003130002000123E4FBFAC9FC8028E830E406E488
:10032300C9FBE4CAFCE830E305E4C9CACBFCE854E2
:10033300076010F8C3E913F9EA13FAEB13FBEC13A4
:10034300FCD8F130F531C3E49CFCEF9BFFEE9AFE41
:10035300ED99FDD0E0FBEF4E4D4C701322DB040210
:10036300000148EC2CFCEF33FFEE33FEED33FDEDE3
:1003730030E7EA02000123EF2BFFEE3AFEED39FDF1
:10038300D0E0FB50140BBB00040200014BED13FD46
:10039300EE13FEEF13FFEC13FC02000123EC4D60A0
:1003A30011E8497018ED33EC3304600DE4FCFFFEF3
:1003B300FD22E933E8330470F80200014112000121
:1003C3000C58046009E4CC2481500728500B020028
:1003D300014B28400402000148C0E0EB4A7046B9D3
:1003E3008007D0E0FB02000137EF4E701DBD80088F
:1003F300EBFFEAFEE9FD80EAE98DF0A4FEE5F002F9
:1004030000048FE9CDF9EAFEEBFFEF89F0A4FCE5E8
:10041300F0CE89F0A42EFFE435F0CD89F0A42DFEB3
:10042300E435F08067EF4E7005BD80D780C2EF8B57
:10043300F0A4ACF0EE8BF0A42CFCE435F0F8EF8ADA
:10044300F0A42CE5F038FCE433CB8DF0A42CFCE5D0
:10045300F03BF8EE8AF0A42CFCE5F038F8E433CF57
:1004630089F0A42CFCE5F038CF3400CE89F0A42F1A
:10047300FFE5F03EFEE433C98DF0A42EFEE5F0392E
:10048300CD8AF0A42FFFE5F03EFEE43DFD33D0E03E
:10049300FB50080BBB00100200014BEC2CFCEF33AC
:1004A300FFEE33FEED33FD020001233F80000041E8
:1004B30020000042C80000447A0000461C40004768
:1004C300C35000497424004B1896804CBEBC205A7C
:1004D3000E1BCA6753C21C749DC5AEFB600654074E
:1004E3006020232312000511EB5438600C12000422
:1004F300FC1200050C120003A0ECF8EDF9EEFAEF84
:10050300CB22EB1200050C80F0543803241C90001E
:1005130004AEFE93FC0EEE93FD0EEE930ECE93FF10
:1005230022EB7002E72289828A831410E704F59391
:10053300E022F593E49322BB000327F722F8EB892B
:10054300828A831410E706F593E028F022F593E4FA
:10055300932822BB0002F722BB8000500989828ABC
:10056300838B931593F022EF8DF0A4A8F0CF8CF03A
:10057300A428CE8DF0A42EFE22BC000BBE0029EFD2
:100583008DF084FFADF022E4CCF875F008EF2FFF77
:10059300EE33FEEC33FCEE9DEC984005FCEE9DFE45
:1005A3000FD5F0E9E4CEFD22EDF8F5F0EE0084205E
:1005B300D21CFEADF075F008EF2FFFED33FD4007C1
:1005C300985006D5F0F222C398FD0FD5F0EA22C267
:1005D300D5EC30E709B2D5E4C39DFDE49CFCEE30D5
:1005E300E716B2D5E4C39FFFE49EFE1200057CC369
:1005F300E49DFDE49CFC80041200057C30D507C318
:10060300E49FFFE49EFE22C5F0F8A3E028F0C5F0C6
:10061300F8E582158270021583E038F022A3F8E032
:10062300C5F025F0F0E582158270021583E0C83825
:10063300F0E822EB7007E7F5F009E7192289828ACF
:10064300831410E708F593E0F5F0A3E022F593E4B3
:1006530093F5F074019322BB000B09C5F027F7C58E
:10066300F01937F722F8EB89828A831410E707F52C
:1006730093E80200060AF59374019325F0F5F0E47C
:10068300933822BB0006F709A7F01922BB8000505C
:100693000D89828A838B931593F0E5F0A3F022E80A
:1006A3008FF0A4CC8BF0A42CFCE98EF0A42CFC8A54
:1006B300F0EDA42CFCEA8EF0A4CDA8F08BF0A42DD1
:1006C300CC3825F0FDE98FF0A42CCD35F0FCEB8E72
:1006D300F0A4FEA9F0EB8FF0A4CFC5F02ECD39FE28
:1006E300E43CFCEAA42DCE35F0FDE43CFC2275F09D
:1006F30008758200EF2FFFEE33FECD33CDCC33CC24
:10070300C58233C5829BED9AEC99E58298400CF53E
:1007130082EE9BFEED9AFDEC99FC0FD5F0D6E4CE6C
:10072300FBE4CDFAE4CCF9A88222B800C1B90059A0
:10073300BA002DEC8BF084CFCECDFCE5F0CBF9786D
:1007430018EF2FFFEE33FEED33FDEC33FCEB33FB01
:1007530010D703994004EB99FB0FD8E5E4F9FA228B
:100763007818EF2FFFEE33FEED33FDEC33FCC93386
:10077300C910D7059BE99A4007EC9BFCE99AF90F4E
:10078300D8E0E4C9FAE4CCFB2275F010EF2FFFEEBA
:1007930033FEED33FDCC33CCC833C810D7079BEC05
:1007A3009AE899400AED9BFDEC9AFCE899F80FD57D
:1007B300F0DAE4CDFBE4CCFAE4C8F922C3E49FFF0A
:1007C300E49EFEE49DFDE49CFC22EB9FF5F0EA9E93
:1007D30042F0E99D42F0EC6480C864809845F022C1
:1007E300EB9FF5F0EA9E42F0E99D42F0E89C45F06C
:1007F30022E8600FECC313FCED13FDEE13FEEF13C1
:10080300FFD8F122E8600FEFC333FFEE33FEED3381
:10081300FDEC33FCD8F122EB7006E9F802000B7112
:1008230089828A831410E706F59302000B7DF59302
:1008330002000B89BB0006E9F802000BC2BB800073
:10084300500C89828A838B9315930200086F22EBE5
:100853007006E9F802000B9989828A831410E7066F
:10086300F59302000BA6F59302000BB2ECF0A3ED97
:10087300F0A3EEF0A3EFF022A42582F582E5F03594
:1008830083F58322F8E0FBA3A3E0F925F0F0E582EA
:10089300158270021583E0FA38F022EBF0A3EAF038
:1008A300A3E9F022EB7006E9F802000BCE89828AF5
:1008B300831410E706F59302000BD7F59302000BA0
:1008C300E0D093D083D082F8E493701274019370D4
:1008D3000DA3A393F8740193F5828883E4737402E0
:1008E300936860EFA3A3A380DFD093D083D082E487
:1008F300937012740193700DA3A393F8740193F58D
:10090300828883E4737402936C70127403936D7022
:100913000C7404936E70067405936F60DDA3A3A338
:10092300A3A3A380CA8B938A838982159353937F4E
:10093300E473EF4E6022EF60010EEDBB0007F70991
:10094300DFFCA9F022BB8000500E89828A838B933F
:100953001593F0A3DFFCDEFA22EB700C87F009E6B7
:1009630008B5F019DFF6801589828A831410E70F22
:10097300F593E0F5F0A3E608B5F002DFF5806AF53C
:1009830093E493F5F0A3E608B5F05EDFF4805ACB69
:10099300701388828C838B9387F009E493A3B5F05B
:1009A30048DFF580441410E71F88848C858B958974
:1009B300828A83F593758620E0F5F0E493A3A3B5CB
:1009C300F024DFF4DEF2801E88848C858B95898287
:1009D3008A83F593758620E493F5F0E493A3A3B596
:1009E300F004DFF3DEF17586007FFFB5F0020F221E
:1009F30040027F01220200095C809488F0EF6001CD
:100A03000E4E60F0ED60EE1410E7EECB70128882AC
:100A13008C83F59387F009E0A3B5F0CDDFF680C9A9
:100A23001410E71E88848C858B9589828A83F593BD
:100A3300758620E0F5F0E0A3A3B5F0AADFF5DEF3B9
:100A430080A488848C858B9589828A83F5937586A7
:100A530020E493F5F0E0A3A3B5F08BDFF4DEF2809E
:100A630085EB7008E709F608DFFA801B89828A8321
:100A73001410E70AF593E0A3F608DFFA8009F5936B
:100A8300E493A3F608DFF9ECFAA9F0EDFB2288F072
:100A9300EF60010E4E60F088F0ED60C51410E7E7DB
:100AA300CB700E88828C838B93E709F0A3DFFA80E7
:100AB300D61410E71C88848C858B9589828A83F5EC
:100AC30093758620E0F0A3A3DFFADEF87586008035
:100AD300B688848C858B9589828A83F59375862065
:100AE300E493F0A3A3DFF9DEF77586008099EB703A
:100AF30008E709F60870FA801B89828A831410E7D5
:100B03000AF593E0A3F60870FA8009F593E493A33A
:100B1300F60870F9ECFAA9F0EDFB2288F0ED60CE4F
:100B23001410E7F0CB700E88828C83F593E709F0FD
:100B3300A370FA80DF1410E71A88848C858B95895B
:100B4300828A83F593758620E0F0A3A370FA7586F5
:100B53000080C188848C858B9589828A83F59375FF
:100B63008620E493F0A3A370F975860080A6E6FCC3
:100B730008E6FD08E6FE08E6FF22E0FCA3E0FDA38D
:100B8300E0FEA3E0FF22E493FC740193FD7402935F
:100B9300FE740393FF22E6FB08E6F908E6FA08E68B
:100BA300CBF822E0F8A3E0F9A3E0FAA3E0FB22E408
:100BB30093F8740193F9740293FA740393FB22EC90
:100BC300F608EDF608EEF608EFF622E6FB08E6FA7D
:100BD30008E6F922E0FBA3E0FAA3E0F922E493FBA1
:100BE300740193FA740293F922BB001CD093D0F0E2
:100BF300D0E0F8D0E0C9FBD0E0FAD0E0CBC8C0E049
:100C0300C0F0C09302000C40BB80005022D093D0B0
:100C1300F0D0E0F8D0E0C9F582D0E0CAF583D0E0A7
:100C2300CB14C8C0E0C0F0C09388930200089ED0E4
:100C330093D083D082D0E0D0E0D0E0E473EBF60829
:100C4300EAF608E9F622E511242AF582E4341CF5D4
:100C530083759300E005112290001C27300B04904C
:100C6300001C2AE475F00112000887020005242005
:100C730004E57F2ED2048018EF540F2490D434401F
:100C8300D4FF30080BEF24BFB41A0050032461FFD4
:100C9300E512600215120515E51570020514300BF7
:100CA3001190001C27E475F00112000887EF020081
:100CB300055602001F5A7403D20B8003E4C20BF5DE
:100CC3001190001C271200089EE4F512F514F51587
:100CD300E51260087F2012000C9380F47513FFC2A5
:100CE30005C204C206C207C209C20AC20C12000C22
:100CF3005BFF700E300B067F0012000CA4AF15AE25
:100D03001422B42563C2D5C20812000C5BFF24D0A1
:100D1300B40A00501A75F00A781230D50508B6FFE8
:100D23000106C6A426F620D5047002D20780D82473
:100D3300CFB41A00EF5004C2E5D20802000FE1D28B
:100D43000580C4D20480BED20680BAD2D580B8D280
:100D53000980B27F2012000C932006077401B5129C
:100D63000040F012000C49FF12000C9302000CD358
:100D7300D20CD20A808F12000C49FB12000C49FAE4
:100D830012000C49F94A4B700679EE7A107B8120E8
:100D9300063DE51260397E00E9C0E02EF9EAC0E0C5
:100DA3003400FA12000524F9D0E0FAD0E0C9600655
:100DB3000EEE651370E2C2D5EBC0E0EAC0E0E9C015
:100DC300E0EE12001049D0E0F9D0E0FAD0E0FB12D7
:100DD300000524FF6096EBC0E0EAC0E0E9C0E01242
:100DE300000C93D0E02401F9D0E03400FAD0E0FB0A
:100DF300E5130460DAD513D702000D6FD206808F96
:100E03001200102560F6E51370010412000156A9C3
:100E130013600EE513600A14F513120010D8EF6087
:100E2300F2EA30E702F404C399400402000EB8EA80
:100E3300F425130430E701E404F513800F120010C6
:100E43002560B9EA0513251312000156EA90001C28
:100E530056F030E701E4251304D5130420090114E7
:100E630012001049E4C0E0120010D890001C56E0B4
:100E7300601420E70814F012000C7B802604F0D0E5
:100E8300E014C0E07F0012000C7BE5136008120041
:100E93000C721513800D30090412000C72D0E0029D
:100EA300000CD3D0E00480BD120010256093E5133D
:100EB300041200015690001C56EAF0E513200902C3
:100EC30060010424041200104974FF04C0E01200FE
:100ED30010D812000C7BE513200902600412000CE9
:100EE30072D0E0B513E57F4512000C8590001C56C7
:100EF300E07F2B30E7047F2DF404C0E012000C9355
:100F0300D0E075F00A84C0F012000C7CD0E012002F
:100F13000C7C02000CD3791080027908C20AC20C3F
:100F23008008D2D5790A8004790AC2D5E513047002
:100F330002F513E4FAFDFEFF12000C49FC7B0820C6
:100F4300051612000C49FD7B1030040C12000C49ED
:100F5300FE12000C49FF7B20EC3382D592D550134F
:100F6300C3E43004069FFFE49EFEE42005039DFDD9
:100F7300E49CFCE4CBF8C205EC700CCFCECDCCE8FE
:100F830024F8F870F38017C3EF33FFEE33FEED332D
:100F9300FDEC33FCEB33FB994002FB0FD8E9EB305C
:100FA3000505F8D0E0C448B205C0E00AEC4D4E4F49
:100FB30078207B0070C2EAB5130040BCC0E0120089
:100FC300104BD0F0D0E0200504C4C0E0C4B205C08B
:100FD300F012000C7CD0F0D5F0EA02000CD3120022
:100FE30008C40D79530F19580D464C0D42420F1D7D
:100FF3004F0F25440F25490D5C430F2B550E4046DB
:101003000EAB450E0347110B500D4A2D0D4E2E0D01
:10101300752B0D52230D732010F72A0D084800007D
:101023000D6BE513B4FF0375130612000C49FC1294
:10103300000C49FD12000C49FE12000C49FF900000
:101043001C4F02000193790AA2D520071430090925
:10105300B910020404B9080104A2D5200A02500100
:101063000420066D9206B512005036C0E07F203092
:10107300071A7F30A206720A72095010120010A4D8
:10108300C206C20AC209C20C7F308010300903E9CC
:10109300C0E012000C93300903D0E0F9D0E0B512A0
:1010A300CA3009197F30B9100D12000C937F5830E4
:1010B30008077F788003B9080412000C93300606F2
:1010C3007F2D02000C937F20200CF77F2B200AF248
:1010D30022920680CC7F00B40700500E244FF58285
:1010E300E4341CF583759300E0FF22286E756C6C65
:1010F3002900D20512000C493005F7C205781230D9
:10110300D50108F602000D0812000C497F4960085A
:101113007F4310E7027F5814C0E0EF12000C847481
:101123003A12000C84D0E0600DC0E0C412000C7CC5
:10113300D0E012000C7CD20775120402000F1920B4
:1011430020202020202020202020202020202000BC
:1011530000000000000000000000004F000000003D
:10116300000007000700000000147F147F14000034
:1011730000242A7F2A12000000231308646200005F
:10118300003649552250000000000503000000000E
:1011930000001C2241000000000041221C0000004E
:1011A3000014083E081400000008083E0808000068
:1011B300000050300000000000080808080000008C
:1011C300000060600000000000201008040200001E
:1011D300003E5149453E0000000000427F400000B0
:1011E3000042615149460000002141454B31000056
:1011F300001814127F1000000027454545390000F0
:10120300003C4A4949300000000101790503000010
:10121300003649494936000000064949291E0000A5
:1012230000003636000000000000563600000000C3
:1012330000081422410000000014141414140000C8
:1012430000004122140800000002015109060000B9
:1012530000324979413E0000007E1111117E0000E9
:1012630000417F4949360000003E414141220000D0
:1012730000417E4141223C00007E4949494900002A
:10128300007F090909010000003E4141497A00003D
:10129300007F0808087F00000000417F4100000034
:1012A300002040413F010000007F0814224100005C
:1012B300007F404040400000007F020C027F00009E
:1012C300007F0608307F0000003E4141413E0000A0
:1012D300007F090909060000003E4151215E00001C
:1012E300007F0919294600000026494949320000B8
:1012F3000001017F01010000003F4040403F00002A
:10130300001F2040201F0000007F2018207F0000C6
:101313000063140814630000000708700807000046
:10132300006151494543000000007F414100000036
:101333000002040810200000000041417F0000006B
:10134300000402010204000000404000404000008D
:1013530000010204000000000020545454780000EF
:10136300007F4844443800000038444444280000C7
:1013730000384444487F0000003854545418000097
:101383000000087E09020000000C52524C3E00008F
:10139300007F0804047800000000447D4000000042
:1013A300002040443D00000000007F10284400005E
:1013B3000000417F40000000007C047804780000B6
:1013C300007C0804047800000038444444380000DA
:1013D300007E0C12120C0000000C12120C7E000096
:1013E300007C0804040800000058545454640000AE
:1013F30000043F4440200000003C40403C400000CB
:10140300001C2040201C0000003C4030403C0000F9
:101413000044281028440000001CA0A0907C000079
:10142300004464544C4400000000083641000000AE
:1014330000000077000000000000413608000000B3
:10144300000201020402000000FFFFFFFFFF000093
:10145300D6D0CDBEB0CEBFA800B2BBBFC9CAB6B14D
:10146300F0BFA800BFA8C7AEB0FCB4EDCEF300CE6A
:10147300B4C9CFB4ABC1F7CBAE00C7EBB2C9BCAFF5
:1014830000BADABFA800BFA8D2D1B9C6DA00CEDE4F
:10149300C8A8CFDE00BFA8D3E0B6EEB2BBD7E30047
:1014A300BFA8D2D1CBF800C3E2B7D1BFA800BCC755
:1014B300C2BCD2D1C2FA00D6D8B8B4CBA2BFA8005E
:1014C300C9E8D6C3B4EDCEF300CAB1D6D3B4EDCEDA
:1014D300F300D3B2BCFEB9CAD5CF00B2BBD6A7B313
:1014E300D6BFA8C0E0D0CD0000B4E6B4A2C8DDC129
:1014F300BF00CEEFC0ED4944CEB4C9E8D6C300B1B6
:10150300B8B2CE00D6F7B2CEB4EDCEF300BBD6B8A8
:10151300B4D6F70057522053455249414C00524428
:101523002053455249414C005B25645DB4EDCEF335
:10153300C2EBA3BA25642000252E30326600726503
:1015430061646572004550203100455044203100EC
:101553006B657900455020320045504420320045E8
:10156300502033004550442033004550203400318F
:101573002E20BAECCDE2CDA8D1B6202000322E2009
:10158300B4AEBFDACDA8D1B6202000332E20475009
:101593005253CDA8D1B62020002020202020202087
:1015A30020202020202000C9E8B1B8CEEFC0ED49AB
:1015B30044002530325825303258253032582530F2
:1015C300325800CFB5CDB3CAB1BCE400B5B1CCEC51
:1015D300D3AAD2B5B6EE00252E30326620D4AA00A7
:1015E300C7B0D2BBCCECD3AAD2B5B6EE00BBF9B42C
:1015F300A1B7D1C2CA00B2C9BCAFCAB1BCE4BCE492
:10160300B8F400256420CCEC00C1ACD0F8CBA2BF69
:10161300A800256420C3EB00B5B1C7B0C1F7CBAEBA
:10162300BAC500256C7500CEB4B2C9BCAFBCC7C285
:10163300BC00257520CCF500B3CCD0F2B0E6B1BE2A
:101643000025730030393131323749474D00CEB46C
:10165300B2C9BCAFCCECCA00257520CCEC00BADA19
:10166300C3FBB5A5B0E6B1BEBAC5004275696C64EB
:10167300004E6F7620323820323030390031313A23
:1016830034303A323000B7FECEF1C6F74950002568
:10169300642E25642E25642E256400B7FECEF1C684
:1016A300F7B6CBBFDA00256400312E20CBA2BFA84A
:1016B300CAD5B7D1202000322E20B2E9D1AF2020E5
:1016C3002020202000332E20CDA8D1B6202020209A
:1016D300202000001F1C1F1E1F1E1F1F1E1F1E1F5A
:1016E30081157281CCB381158081D0FE81158E81E5
:1016F300CB8C81159C000000010DB7000000811602
:10170300AC81A08C8116BA813C158116C881E00793
:10171300605A0DFE0001811453000281145C000322
:101723008114670004811472000581147D00068111
:10173300148400078114890008811491000981141D
:1017430098000A8114A3000C8114AA000D8114B11E
:10175300005A8114BA005C8114C3005B8114CC006D
:10176300B18114D5005F8114DE00FE8114EB6200A9
:1017730016C00000102120423063408450A560C68B
:1017830070E781089129A14AB16BC18CD1ADE1CE3B
:10179300F1EF123102103273225252B5429472F7B2
:1017A30062D693398318B37BA35AD3BDC39CF3FF8B
:1017B300E3DE246234430420140164E674C744A4C2
:1017C3005485A56AB54B85289509E5EEF5CFC5ACDB
:1017D300D58D365326721611063076D766F6569592
:1017E30046B4B75BA77A97198738F7DFE7FED79D2B
:1017F300C7BC48C458E5688678A708401861280222
:101803003823C9CCD9EDE98EF9AF89489969A90A7A
:10181300B92B5AF54AD47AB76A961A710A503A33F1
:101823002A12DBFDCBDCFBBFEB9E9B798B58BB3BCA
:10183300AB1A6CA67C874CE45CC52C223C030C6081
:101843001C41EDAEFD8FCDECDDCDAD2ABD0B8D681A
:101853009D497E976EB65ED54EF43E132E321E51D1
:101863000E70FF9FEFBEDFDDCFFCBF1BAF3A9F596A
:101873008F78918881A9B1CAA1EBD10CC12DF14E0A
:10188300E16F108000A130C220E350044025704670
:10189300606783B99398A3FBB3DAC33DD31CE37F9B
:1018A300F35E02B1129022F332D2423552146277C0
:1018B3007256B5EAA5CB95A88589F56EE54FD52C6B
:1018C300C50D34E224C314A0048174666447542410
:1018D3004405A7DBB7FA879997B8E75FF77EC71D7B
:1018E300D73C26D336F2069116B066577676461560
:1018F3005634D94CC96DF90EE92F99C889E9B98ACB
:10190300A9AB584448657806682718C008E13882AF
:1019130028A3CB7DDB5CEB3FFB1E8BF99BD8ABBBDA
:10192300BB9A4A755A546A377A160AF11AD02AB3FF
:101933003A92FD2EED0FDD6CCD4DBDAAAD8B9DE82A
:101943008DC97C266C075C644C453CA22C831CE04F
:101953000CC1EF1FFF3ECF5DDF7CAF9BBFBA8FD9BA
:101963009FF86E177E364E555E742E933EB20ED19F
:101973001EF04818C03230303530313331C10D4498
:101983001D937C2F2D5C461D0881DABA81DB084646
:101993001D0E81DEF381DF2D411D60014C00060029
:1019A30000000000000000000000004600000000EE
:1019B300000000004200120000420C140000004F1F
:1019C3004B0041542B4D495053454E443D25642C07
:1019D3002200220D00726563762065727231004128
:1019E300542B4D4950505553483D25640D002B4D04
:1019F30049505254435000726563762065727233C6
:101A03000075706C6F61642072656320657272008B
:101A1300646F776E6C6F616420626C6B2E2E2E0088
:101A2300626C6B206572722E2E2E00696E6974696A
:101A3300616C206461696C0041540D004154206560
:101A430072726F72006461696C20636D6E65742ECF
:101A53002E2E0041542B4D495043414C4C3D312CCB
:101A630022636D6E6574220D00007830300078308B
:101A730030007830300078303000636F6E6E207342
:101A83007672202E2E2E0041542B4D49504F504537
:101A93004E3D25642C25642C2225642E25642E2599
:101AA300642E2564222C25642C300D0041542B4DCB
:101AB3004950434C4F53453D25640D006D69706F8C
:101AC30070656E206572726F7200636F6E6E206355
:101AD3006D6E6574206572720041542B4D495043FD
:101AE300414C4C3D300D0081DF6781E42F81B41DF3
:101AF3008196E281713400000081D66B81E42381F9
:101B0300BB1281E40A817E7B00000075C7AA75C7FA
:101B130055759D0275C7AA75C75575C600787FE4CC
:101B2300F6D8FD75817102001B570200C9A6E49324
:101B3300A3F85407240CC8C333C4540F4420C883E8
:101B43004004F456800146F6DFE4800C01020408E9
:101B53001020408090001713E47E019360CCA3FF14
:101B6300543F30E509541FFEE493A360010ECF54A4
:101B7300E0B4E026E493FBA3E493FAA3E493F9A38C
:101B8300E493C083C08212000556D082D083A30998
:101B9300E970010ADFEADEE880BE54C025E0602B6D
:101BA300408CE493A3FAE493A3F8E493A3C8C58217
:101BB300C8CAC583CA759300F0759300A3C8C582CC
:101BC300C8CAC583CADFE3DEE1808DE493A3F8E4EA
:101BD30093A34003F68001F208DFF402001B5B7756
:101BE30061697474696E672E2E2E0070726F63655F
:101BF30073732E2E2E00C9E8D6C3CEEFC0ED494431
:101C0300B3C9B9A600D0A3D7BCCAB1D6D3B3ACCAA3
:101C1300B100D0A3D7BCCAB1D6D3B3C9B9A60063A8
:101C23006C65617220626C61636B20256300707266
:101C33006F63657373206F6B00696E697420696EDF
:101C43006672617265642E2E2E00B4F2BFAABAECDE
:101C5300CDE2CAA7B0DC00696E697420706F732E81
:101C63002E2E00B4F2BFAA47505253CAA7B0DC00CD
:101C7300B4F2BFAAB4AEBFDACAA7B0DC00BD00207D
:101C8300EF7F08C2A63392A500D2A6DFF6C2A67FD5
:101C930064D2A5A2A55002DFFAD2A60000C2A622F2
:101CA300BD0120EF7F08C2A73392A500D2A7DFF6BC
:101CB300C2A77F64D2A5A2A55002DFFAD2A7000073
:101CC300C2A722BD0220EF7F08C2963392A500D29D
:101CD30096DFF6C2967F64D2A5A2A55002DFFAD2A0
:101CE300960000C29622EF7F08C2973392A500D2D6
:101CF30097DFF6C2977F64D2A5A2A55002DFFAD27E
:101D0300970000C29722D2A4C2A400C2A2C2A3BD5C
:101D13000004D2A2C2A312001D1E22BF0012D2A130
:101D230000D2A4008B8000C2A4C2A112001D4522D0
:101D3300D2A000D2A4008B8000C2A4C2A012001DB6
:101D43004522D2A4C2A4C2A200D2A37580FF74000C
:101D5300BF0014D2A100D2A400E58000C2A400D227
:101D6300A4C2A120E7ED22D2A000D2A40000E58006
:101D730000C2A400D2A4C2A020E7EC22BF00177DBA
:101D830009D2A5D2A60000C2A60000D2A60020A5B3
:101D930002DDF4C2A522BF01177D09D2A5D2A70097
:101DA30000C2A70000D2A70020A502DDF4C2A5222D
:101DB300BF02177D09D2A5D2960000C2960000D2B9
:101DC300960020A502DDF4C2A5227D09D2A5D297F3
:101DD3000000C2970000D2970020A502DDF4C2A53F
:101DE30022BF00127D08D2A5C2A600A2A533D2A6A7
:101DF300DDF6C2A6FF22BF01127D08D2A5C2A7004D
:101E0300A2A533D2A7DDF6C2A7FF22BF02127D0827
:101E1300D2A5C29600A2A533D296DDF6C296FF22C2
:101E23007D08D2A5C29700A2A533D297DDF6C2974B
:101E3300FF2290001C21E0FFA3E0FEA3E0CF90006F
:101E43001C2AF0A3EEF0A3EFF090001C24E0CBF0EB
:101E5300A3E0CAF0A3E0C9F07F2290001C2DAD825D
:101E6300AC83120005248D828C83F0A309E97001F1
:101E73000ADFEB90001C24E0FBA3E0FAA3E0F902E5
:101E8300000CB9BF000E12001DE4C2A500D2A600CB
:101E930000C2A622BF010E12001DE4C2A500D2A7F4
:101EA3000000C2A722BF020E12001DE4C2A500D289
:101EB300960000C2962212001DE4C2A500D297002C
:101EC30000C29722BADABFA800C3E2B7D1BFA80005
:101ED300BFDBBFEE20257320D4AA00D3E0B6EE20EB
:101EE300257320D4AA00C1F7CBAEBAC55B256C64B9
:101EF3005D00C7EBD6D8CBA200BF000AC2A500D2B3
:101F0300A600D2A50022BF010AC2A500D2A700D213
:101F1300A50022BF020AC2A500D29600D2A50022C4
:101F2300C2A500D29700D2A50022BF0009D2A50006
:101F3300D2A600C2A522BF0109D2A500D2A700C222
:101F4300A522BF0209D2A500D29600C2A522D2A51E
:101F530000D29700C2A522EFB40A08740D12001F25
:101F630066740A309811A899B8130CC2983098FD7A
:101F7300A899C298B811F63099FDC299F5992252E1
:101F83007463546D5F5645525F312E3031001F1D0F
:101F93001F1E1F1E1F1F1E1F1E1F1F1C1F1E1F1E57
:101FA3001F1F1E1F1E1F20000D0A00303132333445
:101FB300353637383941424344454600E4FFFE1283
:101FC300000524600C0FEF70010E09E970F10A801F
:101FD300EE222530326400253032580075C7AA75C9
:101FE300C75553D8FD2275C7AA75C75543D80122D3
:101FF3007E54DEFEDFFA2206050301020304050612
:1020030007080990001B34EB120041AD90001B320E
:10201300EEF0A3EFF08E837593002407120040DFE8
:102023007422F0120040BF2408120040DF7442F013
:10203300120040BF2412120040DF1200417412004C
:1020430040BF120040DDE4F0120040BF240F120035
:1020530040DFE4F0A37405F0120040BF240D12002A
:1020630040DFE4F0A37420F07B817A1B79E27D0AE0
:10207300E4FF0133DC12004094120043E4240F1206
:102083000040DFE4F0A3740AF0120040BF120040E6
:10209300DDE4F090001B34120040D0240C12004306
:1020A300D2120041D8EF700D7D037F051200DC765C
:1020B30050C37FA02212004094120043E4240B1269
:1020C3000040DFE4F0A37420F0C203C201E4120075
:1020D30041FAF0120040BF12004057FF2403F8E614
:1020E30090001B37F0EF24041200425B7B817A1BC4
:1020F30079EE120034C590001B37E0120008C42E9D
:102103009D552F9D562527A12CD7B12726B230C523
:10211300B328ADB431F6B52E3CB6303BB7329BB8DD
:1021230021F1C22304C322A1C42133C50000333FDC
:1021330012004213FB8A831200405424041200420B
:102143005B30E057E4FF12004365120042B62408F7
:102153001200405990001BE712004101120034881D
:102163006003013309120040941200414A120040F7
:1021730059120040BA1200405724061200411A9027
:10218300001B46E02404F090001B4512004090120F
:1021930000414B120040591200413790001B39E0B7
:1021A30020E103012721120040941200414B120049
:1021B3004059120034F3EF64016003012448120014
:1021C30040941200414A12004059120040BA1200D2
:1021D30040572406FF120043EB2F7F071200411CD8
:1021E30090001B46E02407120043F201272112004E
:1021F300404AFF2404F8E6B49909EF2405F8E6649D
:102203000860030132B51200404A120041E1781E12
:102213007C0C7D017F0412004332EF60030132B571
:1022230012004094FF12004052240A120040BA24C4
:1022330008120040591200411A1200409412004142
:102243004B120040597A00F97B00C003C001120011
:1022530042CC12004103D001D0037D04120034DBD1
:10226300FF120042507408120040A92408120040D3
:1022730059120040FD12004B5E1200435D64016081
:1022830003013309120040941200414B12004059DC
:10229300120041377B817A1B79F97D01805012004E
:1022A3004094FF120040522403120040BA24081243
:1022B3000040597F0C120041E9120040941200348F
:1022C3005240147B817A1C7908120034C590001B9C
:1022D3003874A1F00133421200404A120041E11266
:1022E300005C58EF60117B817A1C79157D037F01B7
:1022F3001200CF7501329790001B3874FFF0013341
:102303004212004094120034524003012EA7900061
:102313001B39E0FF64016008EF640260030132B51A
:102323001200404A120042586008E0640160030151
:1023330032B5EF2406120041F4EFF0640E6003019E
:102343002CF77F40120043647418120040A924083C
:1023530012004059F990001BE712004102120034A9
:10236300886401600301330990001B387401F0D2C3
:1023730002120040941200414B12004059FF2416F0
:10238300F8E66455704CEF2417F8E664AA7043909E
:10239300001B32A3E0FF12004052240C120040BA8B
:1023A30024081200405924067F0812004203EF70EC
:1023B30002C20212004094FF12004052120040B8C1
:1023C30024081200405912004201120043FC40024B
:1023D300C20220020301247612004094FF1200403F
:1023E300522407120040BA2408120040597F0E12EB
:1023F30000426C120040941200414B12004059FFFE
:10240300120041E1EF240E7F081200426C120040DB
:10241300941200414A120040592416F876551200CE
:1024230040BF2408120040592417F876AA7F4012AF
:1024330000424F7418120040A92408120040591298
:10244300003409600790001B3801330912004094DF
:102453001200414B12004059120041E190001B4C05
:102463007401F0A3740CF0A37416F01200DD7F1254
:1024730000436D1200437C600301251C7F10900014
:102483001BE6120040A4240812004059F990001BD7
:10249300E7120041021200346E600790001B3801FE
:1024A3003309120040941200414B120040597A0044
:1024B300F97B0024067F06120041E97E007F077D39
:1024C30000120040AA2408120040592410120042AE
:1024D300EF120040941200414B1200405912003495
:1024E3001D8C8312004054120033E3240812004071
:1024F3005912003409600790001B38013309120098
:10250300409D240812004059120040FD1200345C23
:10251300600790001B38013309E4120041FAF0D23E
:1025230001013342C20212004246FD8C83759300BF
:102533002412120040DF1200417412004285241459
:10254300120040DF7404F0A3E4F01200428512008D
:1025530040572404120041F4EFF090001B32703214
:102563001200404EFF2405F8E6FDE4120041FAEDA7
:10257300F0D202EF120042F81200E0A01200417DF7
:1025830090001B46E02400FF90001B45E03401FE51
:1025930080191200404E120041E11200E0A0120027
:1025A300417D90001B45E0FEA3E0FF120042468CF4
:1025B300837593002414120040DFEEF0A3EFF0E4E0
:1025C300FFFE7D08FC90001B3A1200412C120042D2
:1025D300B0502B120040941200430012004059FEE9
:1025E300A3E0FF12004384E0F8A3A3A3E012004298
:1025F300A4E4FBFA7908F8D3120007E3500301328D
:10260300B590001B3AA3A3A3E0540FFFE4FEFDFC27
:10261300FBFAF9F8C3120007E36003012CF7120079
:1026230040941200430012004059FAA3E0FBD394F4
:1026330038EA940050361200410AEB1200420E8A27
:1026430083120040542406F990001BE71200410254
:102653001200346E600790001B38013309C2031265
:10266300004094120040D8E4F001270B120040947C
:10267300120040D87401F0D203E490001B43F0A38E
:10268300F01200409412004300120040591200421D
:10269300D55075C3EF9DFFEE1200440340047F4005
:1026A300800090001B42EFF012004113120043849C
:1026B3001200412C120042A490001B42E090001B28
:1026C300E6120040A9241212004059FAA3E0FB903D
:1026D300001B43E0F8A3E0F582EB2582FBEA38FA1E
:1026E300A903120041A71200349D600990001B3812
:1026F30074B1F0801390001B42E0FF90001B44E094
:102703002F1200440D01268412004094120043004E
:1027130012004059FFA3E0CF12004342EFF0D20171
:1027230001329712004094120034644003012EA733
:102733007F60120043647420120040A92408120031
:102743004059F990001BE7120041021200349D60CA
:102753000790001B3801330990001B39E0702012E9
:10276300004094FF12004052120040B824081200A7
:10277300405912004201120043FC40030129041294
:1027830000404A120034AD1200417D7FA07E867D59
:10279300017C0090001B3A1200412CFBD31200076E
:1027A300E34003012CF71200404AF9240FF8E6D363
:1027B30094604003012CF7E9120034B990001B43E5
:1027C300EEF0A3EFF0E4FCFD7B407A7E7905F8C3DD
:1027D300120007CD401090001B44E0943C90001B76
:1027E30043E094005003012CF77E007F207DFF120D
:1027F3000040AA240812004059120042EF12004080
:1028030094FF12004052120040B8240812004059AD
:10281300F87C007D007E007F0C12000A91120040BC
:10282300941200414B12004059F97A007B007D1E3F
:102833007C001200343C8C83759300240812004002
:1028430059241EF97A007B001200E1DC7F6012003C
:10285300424F7420120040A924081200405912006C
:1028630040FD1200345C600790001B3801330912ED
:1028730000404A240678307C0C7F061200403D124B
:102883000034AD90000C361200086F1200404AFF6E
:10289300240FF8E690000C3CF0EF120034B99000DE
:1028A3000C3AEEF0A3EFF0013297120040941200BD
:1028B3003464400D12004094120040D8E4F0013219
:1028C300A512004213FB8A83120040DAE4F07F80F2
:1028D3007E0D7D031200417C12004308602D9000A1
:1028E3000C49E06026120042B91200405712004220
:1028F300F8784A7C0C7D0112004330120043FC40FF
:102903000A90001B387401F001334212004417F09F
:102913001200404A12004258640160030129D01298
:10292300004246FD120041E01200428524121200CB
:10293300405912004065120041BF12004059120075
:10294300438CC083C0821200418512004421D0828F
:10295300D0831200421C7455F0120040BF2412129F
:1029630000405912004394C083C082120041851273
:10297300004428D082D0831200422A74AA12004055
:1029830093FF12004052240C120040BA241212008A
:102993004059120040EA7E001200415324201200E5
:1029A300408B120041C012004059120040EAA807B0
:1029B300FC7D017B017A0C79707E017F001200415E
:1029C3005A24001200442F3401F0012B6D90001B98
:1029D30039E064026003012AB912004094FF120037
:1029E30040522407120040BA241212004059120028
:1029F3004065120041BF120040591200438CC0834E
:102A0300C0821200418512004421D082D08312007B
:102A1300421C7455F0120040BF2412120040591298
:102A2300004394C083C0821200418512004428D021
:102A330082D0831200422A74AA12004093120041EA
:102A4300C012004059120040EAA807FC7D017B0137
:102A53007A0C79507E001200415824201200408BDA
:102A6300FF12004052240D120040BA2412120040FB
:102A730059120040EAA807FC7D017E007F33120053
:102A8300415A24331200408B120041C012004059B6
:102A9300FEA3E0FFAA06F97B01120040EEA807FCA3
:102AA3007D017E007FCD1200415A24CD1200442FB8
:102AB3003400F0012B6D90001B39E06403600301C7
:102AC3002B6A12004094120041BF12004059FCA32C
:102AD300E024041200439C120040BF241212004061
:102AE3005912004065120041BF12004059120043C1
:102AF3008CC083C0821200418512004421D082D051
:102B0300831200421C7455F0120040BF24121200BD
:102B1300405912004394C083C082120041851200C1
:102B23004428D082D0831200422A74AA1200409310
:102B3300120041BF12004059FCA3E0240A120043D3
:102B43009C120040BF241212004059120040EA7E3A
:102B5300011200415324201200442F3401F090004D
:102B63000C497401F080030132B590001B457401D8
:102B7300F0A3742812004093120041C01200405980
:102B8300FEA3E02400FFEE3402FAA9077B017D28AF
:102B93007C011200343C8C83759300241212004094
:102BA30059FCA3E02400FDEC3402FC90001B46E03A
:102BB3002DFD90001B45E01200439E1200E1DC90C6
:102BC300001B46E02402120043F2E490001B43F092
:102BD300A3F090001B45E0120042D5507EC3900045
:102BE3001B46E09DFF90001B45E012004403400498
:102BF3007F40800090001B42EFF01200411312004F
:102C030043841200412C120042A490001B42E09026
:102C1300001BE6120040A9241212004059FAA3E057
:102C23002400FBEA3402FA90001B43E0F8A3E02BF4
:102C3300FBE83AFAA90390001BE7120041AB12002C
:102C43003476600990001B3874B1F0800E90001B3D
:102C530044E024401200440D012BD5120044171206
:102C6300004093120041C012004059120040EA781C
:102C73004A7C0C1200431E7E007F061200415A2438
:102C8300081200408B120041C0120040591200404C
:102C9300EA78507C0C1200431E7E00120041582437
:102CA300201200408B120041C01200405912004014
:102CB300EAFAA9077B0178707C0C7D017E017F0015
:102CC30012000A91E4120041FAF090001B38F0C29E
:102CD3000101334290001B39E0B4550D1200404A04
:102CE300FF2405F8E664AA60028009EF2406F8E6EB
:102CF3006406600A90001B3874A4F00133427E001E
:102D03007F027D00120040AA2408120040591200DD
:102D130042EF12004338120040AA2408120040591F
:102D2300F97A007B001200DCFB1200409412004190
:102D33004B120040597A00F97B00C003C001240301
:102D4300120042CE12004103D001D0031200347EA0
:102D5300FFFEFDFC120040AA240812004059120095
:102D630041E11200DCFB120040941200414B1200BF
:102D73004059FF120041E1C003C001EF24091200D2
:102D830042CE12004103D001D0031200347EFFFE75
:102D9300FDFC120040AA240812004059240CF97AC1
:102DA300007B001200DA6C120040941200414A12B8
:102DB3000040592417F876FF120040BF2408120080
:102DC30040591200341D8C8375930024081200406F
:102DD30059120033E3240812004059120040FD1237
:102DE300003476600790001B380133091200409DC0
:102DF300240812004059120040FD120034A5600758
:102E030090001B3801330990000C27120042631213
:102E130000433890000C231200086F90000C4112FD
:102E230000426390000C2274FFF0E4FFFEFDFC906F
:102E3300000C2B1200086F805A12004213FB8A8386
:102E430012004054F92405120041F4EFF0D394101A
:102E5300EE940040030132B5120043EB240629F837
:102E6300E4F67FD012004250120042B612004057DF
:102E73002406120040FD120034A5600790001B38A1
:102E83000133091200404A240678B77C0D7F1012E3
:102E930000413D1200436D0131EB120040941200DA
:102EA300349340030132A5E4FFFEFD1200417C9000
:102EB300001B39E070381200C5BDEF4E700A900058
:102EC3001B38745DF0013342E4FFFEFDFC90000CFF
:102ED300271200412C120042B070097FC07E0E7D84
:102EE30003FC803490000C271200410E802A12004C
:102EF300437C702A1200404AFF2405F8E66404600C
:102F0300030132B5120041E0120034CE90001B3EA3
:102F13001200410E1200A6A31200417D800301326C
:102F2300B590001B3A12004127120042B0601512FF
:102F330000433890001B3AE0F8A3A3A3E0C31200B8
:102F430007E350030132B51200410A90001BE674F7
:102F530040120040A9241212004059120041A3124A
:102F63000034E3600790001B3801330912004094DA
:102F7300FF120040D87401F0120040BF2414120065
:102F830040DFE4F0A37440F0120043417440F012B8
:102F930000436DD201D2030133421200437C60032C
:102FA3000132B51200404AFF2405F8E664046003C9
:102FB3000132B5120041E0120034CE90000C27120A
:102FC30000410E90001BE67440120040A924121227
:102FD300004059120041A3120034E3600790001B24
:102FE3003801330912004094120041C012004059C5
:102FF300FEA3E02405FFE43EFAA9077B011200DEED
:10300300401200417D90001B3E1200410E90001BB8
:103013003A1200412C120042B0600A90001B38742F
:103023005EF001334212008A2D1200435D600301FA
:103033003342D201E40131EB120040941200349385
:1030430040030132A51200E37F12004094120041B5
:103053004B12004059120034F31200409412004105
:103063004B12004059FF120043DDC003C001EF12B1
:103073000042CC12004103D001D0037D031200347F
:10308300DB7F80120042507406120040A92408120C
:1030930000405904120040FD120034EB6007900019
:1030A3001B38013309E490000C3DF090001B38F00D
:1030B300C201120041FAF07D647F0B1200A8EA01FD
:1030C300334212004094120034FD40030132A51232
:1030D3000043086003013174FE7F20FD7B017A0EFB
:1030E300799012000935E47F207E01FD807C7F3FCB
:1030F3007E0D7D037C0090001B3A1200412C1200D0
:1031030042B040030133421200410A90001BE674AF
:10311300201200416E120034EB600790001B38014F
:1031230033097B817A1C79221200410A7805120047
:1031330007F4EF5403FFE4FE74932FF582EE341D7E
:103143001200405E90001BB6F0E4FD7F011200CF39
:103153007590001B3AE0FCA3E0FDA3E0FEA3E0248E
:1031630020FFE43EFEE43DFDE43C1200417C0130DF
:10317300F190001B39E070781200404A1200425966
:10318300D3940A40030132B5E490001B42F01200CD
:1031930043A5FEC39F502B120042468C831200406E
:1031A30054240DFFEE25E025E02FF97A007B001271
:1031B30000A4551200435D700990001B42E004F027
:1031C30080CC120043A5C39F500301334212004039
:1031D3004A120042F81200CE621200435D600301FE
:1031E30033421200436DC201120041FAF00133422F
:1031F3000132B51200430860030132B57F607E0DD2
:103203007D037C00740A1200420E8A83120040542C
:103213002406F990001BE71200410212006494EFA8
:103223006401600790001B380133091200404AFF14
:10323300240DF8E6B45509EF240EF8E664AA6002FB
:1032430080351200404A120041E17D067C001200E5
:10325300DCB9120042468C8312004054FE240CF861
:10326300E66F601E90000002EE120041E17D00AEA9
:1032730083AF82120009351200404A240CF876AA63
:1032830080091200404A240CF876FFD20112004351
:10329300417407F0E401333812004094120034FD06
:1032A300400A90001B3874A5F00133421200430812
:1032B300600A90001B38745CF00133421200404AEC
:1032C300FF120042F8C003C001EF240D120042CEEA
:1032D30012004103D001D0037D067C001200DBEB1A
:1032E300E47FF012004250740C120042128A8312DF
:1032F3000040542407120040FD12004B5EEF6401AE
:10330300600990001B3874B1F080341200404A24E5
:103313000778F57C0D7F041200403D240BF97A00F9
:103323007B001200E32590000DF9EEF0A3EFF0E42B
:10333300120041FAF090001B38F080037FA3229023
:10334300001B37E0FF12004246FD8C8312004054FD
:103353002403F8A60790001B38E0FF1200428512F1
:103363000040572404F8A6072003321200404AF90C
:103373007A007B00120043EBFDA20192041200A32A
:103383001690001B42EFF0FD12004094120043E43C
:103393002409120040DFE4F0A3F0FC802012004077
:1033A30094AA06F97B0112004326A201920412009B
:1033B30099C0501B12004094FF1200432690001B3B
:1033C30034120040D02406120043D2120041D87BAD
:1033D300817A1C7931E4FD7F011200CF75012078D9
:1033E3002418F97A007B001200E1DCE47F10FEFD73
:1033F300FC90001BE6741AF090001B32E0FAA3E085
:103403008A8375930022F990001BE7E4F0A3F0A3ED
:10341300E9F012004B5EEF640122F97A007B007D34
:10342300187C001200D59990001B43EEF0A3EFF037
:1034330090001B32E0FCA3E0221200D59990001B00
:1034430043EEF0A3EFF090001B32E0FCA3E022AACE
:1034530006F97B011200B3332212004B5EEF6401C5
:1034630022AA06F97B011200B3332212006494EFFF
:1034730064012212004B5EEF6401227D037C001283
:1034830000DBEBE4221200649490001B38EFF0227F
:10349300AA06F97B011200B3332212006494EF648D
:1034A300012212004B5EEF640122240CF97A007BA7
:1034B300001200E0A0222410F97A007B001200E33E
:1034C30025227D037F011200CF75221200DE40907A
:1034D300001B3E1200086F227C001200DBEBE4228B
:1034E30012006494EF64012212004B5EEF64012228
:1034F300F97A007B001200443D22AA06F97B0112EF
:1035030000B3332290001C2DEFF0A3EDF0A3EBF0FA
:10351300A3EAF0A3E9F0E490001C33F0A3F09000D9
:103523001C36F090001C3DF0A3F0A3F0A304F0A31D
:10353300F0E4A3F0A3F0A3F0A3F0A3F0F514F513C4
:10354300F512F5111200E2EF90001C2FE0FBA3E04F
:10355300FAA3E0F912001FBF90001C35EFF09000B2
:103563001C32E0600990001C4774FFF08006E49071
:10357300001C47F090001C2DE025E090001C34F067
:10358300A3E0F9FD90001C2EE0FE2DFDE433FCC307
:10359300ED9410EC648094804003013689EEC3946B
:1035A300084042E490001C3DF090001C2EE094087B
:1035B30090001C3EF0E490001C37F090001C39E9A9
:1035C300F0E0FFC313FEA3F0E490001C38F090007A
:1035D3001C46EEF0EF540190001C3CF0E490001CFC
:1035E3003BF001373890001C2EE0FF90001C3DF0AB
:1035F30090001C35E0FEFDEF2DFDE433FCC3ED949C
:1036030008EC64809480500990001C37EEF0E4804D
:103613001790001C2EE0FFC374089FFF90001C3717
:10362300F090001C35E0C39F90001C39F0E490003B
:103633001C3EF090001C37E0FFC313A3F090001C66
:1036430045F0EF540190001C3BF090001C39E0FF63
:10365300C313A3F090001C46F0EF540190001C3CF0
:10366300F0700301373890001C3BE07003013738DA
:1036730090001C3EE004F090001C3AE004F0E0905F
:10368300001C4601373090001C2EE0C394084042D2
:10369300E490001C3BF090001C2EE0FF74109F9000
:1036A300001C39F0E490001C37F0A3F090001C3D9F
:1036B300F0C3EF9408A3F090001C39E0FFC313A3F9
:1036C300F090001C46F0EF540190001C3CF0606544
:1036D300805C90001C2EE0FFC374089F90001C3791
:1036E300F090001C397408F090001C3DEFF0E4A347
:1036F300F090001C37E0FFC313A3F090001C45F0CB
:10370300EF5401FF90001C3BF090001C39E0FEC316
:1037130013A3F090001C46F07408540190001C3C65
:10372300F0EF60117401F090001C3EE004F0900093
:103733001C427401F0E490001C36F090001C35E04C
:10374300FFA3E0C39F4003013C0F12001FE9E49075
:10375300001C3FF090001C36E0FD90001C6E7401CD
:10376300F0A3741CF0A37468F090001C2FE0FBA37B
:10377300E0FAA3E0F91200C16BEF64026003013CBD
:103783000590001C68E0FEA3E0FF1200CC208F141C
:103793008E138D128C117F407E047D047C00AB144C
:1037A300AA13A912A811C3120007E3505BE4F5158D
:1037B30075BE01E42514FBE43513FAE5123430F940
:1037C300E43511F8E4FCFDFEEB2515FFEE3AFEEDC2
:1037D30039FDEC38FCE42FFFE43EFEED3401FDA996
:1037E30007AA06AB0512000524F516E4F5BE7448D6
:1037F3002515F582E4341CF583759300E516F00571
:1038030015E515B420AA80107E007F207DFF7B0183
:103813007A1C79481200093590001C38E0D39400D3
:10382300500301394A90001C45E0FF90001C43E01F
:103833009F400301394A90001C34E044B8FB7D01EA
:10384300E4FF12001D0990001C40E0600B90001C77
:103853003DE075F008A4801390001C43E0C454F0CD
:10386300FF90001C3DE075F008A42F4440FB7D0150
:10387300E4FF12001D09E490001C33F090001C3398
:10388300E0FFC39410502874482FF582E4341CF5EC
:1038930083759300E0FF90001C47E0FEEF6EFBE4AE
:1038A300FDFF12001D0990001C33E004F080CD9051
:1038B300001C34E00444B8FB7D01E4FF12001D0941
:1038C30090001C40E0600B90001C3DE075F008A4E4
:1038D300801390001C43E0C454F0FF90001C3DE0B3
:1038E30075F008A42F4440FB7D01E4FF12001D097D
:1038F30090001C337410F090001C33E0FFC394203D
:10390300502874482FF582E4341CF583759300E046
:10391300FF90001C47E0FEEF6EFBE4FDFF12001D6D
:103923000990001C33E004F080CDE490001C40F0CB
:1039330090001C38E014F0E0700690001C3F04F087
:1039430090001C43E004F090001C38E06003013C4D
:103953000590001C3AE0D394005003013C0590000D
:103963001C3FE064017003013C0590001C46E0FF2E
:1039730090001C44E09F4003013C0590001C3CE088
:103983007003013AE890001C3BE07003013AE890B1
:10399300001C34E044B8FB7D01E4FF12001D097BE9
:1039A300787D01E4FF12001D09E490001C33F090C0
:1039B300001C33E0FFC39408502874482FF582E4B9
:1039C300341CF583759300E0FF90001C47E0FEEF85
:1039D3006EFBE4FDFF12001D0990001C33E004F0B0
:1039E30080CD90001C34E00444B8FB7D01E4FF1259
:1039F300001D097B787D01E4FF12001D0990001C66
:103A0300337410F090001C33E0FFC39418502874F3
:103A1300482FF582E4341CF583759300E0FF900092
:103A23001C47E0FEEF6EFBE4FDFF12001D09900052
:103A33001C33E004F080CD90001C34E044B8FB7DDF
:103A4300017F0112001D097B407D017F0112001DD2
:103A53000990001C337408F090001C33E0FFC394FA
:103A630010502974482FF582E4341CF583759300B4
:103A7300E0FF90001C47E0FEEF6EFBE4FD7F0112C8
:103A8300001D0990001C33E004F080CC90001C342E
:103A9300E00444B8FB7D017F0112001D097B407DDA
:103AA300017F0112001D0990001C337418F090006F
:103AB3001C33E0FFC394204003013BEE74482FF511
:103AC30082E4341CF583759300E0FF90001C47E00B
:103AD300FEEF6EFBE4FD7F0112001D0990001C3315
:103AE300E004F080C990001C34E044B8FB7D017F02
:103AF3000112001D0990001C41E0600FA3E0600B60
:103B030090001C3EE075F008A4801390001C44E074
:103B1300C454F0FF90001C3EE075F008A42F44400D
:103B2300FB7D017F0112001D09E490001C33F0129C
:103B3300001FE990001C33E02448F582E4341CF5AF
:103B430083759300E0FF90001C47E0FEEF6EFBE4FB
:103B5300FD7F0112001D0990001C33E004F0E0C357
:103B6300941040CB90001C34E00444B8FB7D017FEB
:103B73000112001D0990001C41E0600FA3E0600BDF
:103B830090001C3EE075F008A4801390001C44E0F4
:103B9300C454F0FF90001C3EE075F008A42F44408D
:103BA300FB7D017F0112001D0990001C337410F08E
:103BB30090001C33E0FFC39420502974482FF582F2
:103BC300E4341CF583759300E0FF90001C47E0FE8E
:103BD300EF6EFBE4FD7F0112001D0990001C33E032
:103BE30004F080CC90001C44E004F0E490001C3C02
:103BF300F090001C3BF090001C41F090001C3AE058
:103C030014F090001C36E004F001373EE4FF02009C
:103C1300E2F490001B6A7401F0E4A3F0A37407F0CC
:103C23007F0112008DA690001B69EFF0146016242B
:103C3300FC602D2403702C90001B6BE0D394004098
:103C430022E014801190001B6CE0FF90001B6BE0DE
:103C5300C39F500FE004F090001B6A7401F08003CF
:103C63007F002290001B6AE060B67F447B017A1BD1
:103C7300791B1200750590001B6BE0B4080040032C
:103C8300013F4090003C8F25E025E07302003CAFEC
:103C930002003D1A02003D6102003DA202003DF513
:103CA30002003E4402003E8A02003ECD74811200AF
:103CB300744F7415F074AA12003FB07481F0A374AA
:103CC30015F0A374B5F090000C1E120074889000D8
:103CD3000C1F120074B690000C2012007591900016
:103CE3000C21E0FF90001C33E412003FC17481F00B
:103CF300A37415F074C6120040161200E37F7B0113
:103D03007A1B795F1200443D1200751A7B017A1BFE
:103D1300795F7D07013E8374811200744F7415F03F
:103D230074CF12003FB0120074DF90000C411200F8
:103D33003F7E7481F0A37415F074E312003FD41234
:103D43000074DF90000C45120073E4E4120000CD10
:103D5300E4FBFA79C878421200002B013DEA748132
:103D63001200745E7415F074F012003FE5120074D3
:103D7300DF90000C3612003F7E7481F0A37415F0BF
:103D830074F912003FD47481F0A37416F0A374067F
:103D9300F090000C3CE0FF90001C2DE4013F3274D6
:103DA300811200745E7416F0740C12003FE5748186
:103DB300F0A37416F0A37415F090000C3A1200757A
:103DC300B612003FC17481F0A37416F0741B120085
:103DD30040167481120074787416F0A37426F09060
:103DE300000C2B120073E490001C2D1200086F01CD
:103DF3003F367481120074787416F0742A120040EE
:103E0300231200C5BD7481120074AF7416F0A3743D
:103E130035F0A3EEF0EF120040307481120074AF5E
:103E23007416F0A3743BF07A1B793D12003FF6122F
:103E33000075427481F0A37416F0A37447F0013F38
:103E4300367481120074EB7416F07451120040231F
:103E53007481120074EB7416F0A3745BF090000C81
:103E63003DE090001C2D120040057B817A1679619C
:103E73001200754B1200751A7B017A0D79EF7D06DE
:103E83001200CFF9013F407481120075697416F076
:103E9300A3746EF07A1B791B12003FF61200754271
:103EA3007481F0A37416F07474120040307481129C
:103EB300007569120075427481F0A37416F0A3743F
:103EC30080F07B017A1B793D806F781B7C1B7D0121
:103ED3007B817A16798912000B1E90001C2A74814B
:103EE300F0A37416F0A37492F090000DF512007411
:103EF3008890000DF6120074B690000DF71200754D
:103F03009190000DF8E090001C33120040057B8176
:103F13007A16799E1200754B90001C2A7481F0A3C7
:103F23007416F0A374A9F090000DF9120075B6F0A1
:103F3300A3EFF07B017A1B794E12000CB9E49000D9
:103F43001B6AF01200E254E490001B69F090001B1E
:103F530069E0FFC394044003013C23EF75F011A40F
:103F6300241BF9741B35F0FA7B01120074801200D4
:103F7300A1D190001B69E004F080D2E0FCA3E0FD36
:103F8300A3E0FEA3E0FFE4120000CDE4FBFA79C84E
:103F930078421200002B90001C2D1200086F7B0149
:103FA3007A1B792C12000CB990001C2A22A3F07BF7
:103FB300017A1B791B12000CB990001C2A22F0A372
:103FC300EFF07B017A1B792C12000CB990001C2AAC
:103FD30022A3F07B017A1B793D12000CB990001CDF
:103FE3002A22A3F07B017A1B791B12000CB99000E3
:103FF3001C2A227B0112000CB990001C2A7481F048
:10400300A322FFE4F0A3EFF07B017A1B792C1200CB
:104013000CB922A3F07B017A1B793D12000CB92263
:10402300A3F07B017A1B791B12000CB922A3F07B4E
:10403300017A1B792C12000CB922F97A007B007DDE
:10404300017E0012000A9190001B32E0FEA3E08E75
:10405300837593002407F582E43583F58375930014
:10406300E022FEA3E0FF90001B47E0FCA3E0FDEF8E
:104073002DFFEE3CA807FC7D017E007F0612000A9F
:104083009190001B48E02406F090001B47E03400A9
:10409300F090001B32E0FEA3E022E47FA090001B1F
:1040A300E6FEFDFC741AF090001B32E0FAA3E08AEE
:1040B30083759300222406F97A007B008F828E8316
:1040C300759300E58222F8A60790001B49E0FBA345
:1040D300E0FAA3E0228E837593002411F582E43580
:1040E30083F58375930022FEA3E0FF90001B47E056
:1040F300FCA3E0FDEF2DFFEE3C2290001BE7F9E46B
:10410300F0A3F0A3E9F02290001B3AE0FCA3E0FD4A
:10411300A3E0FEA3E0FF227F04F87C007D007E0085
:1041230002000A91E4FFFEFDFCE0F8A3E0F9A3E03E
:10413300FAA3E022781E7C0C7F04F97A007B007DD1
:10414300017E0002000A91FF8E83759300240822EA
:10415300A807FC7D017F2012000A9190001B48E014
:10416300227F607E0D7D037C00740AF0A37401F04E
:10417300A3740EF0A37490F022FC90001B3A02008B
:10418300086F75930090001B47E475F00102000669
:1041930020A3E0FAA3E02412F9E43AFA0200063677
:1041A300FAA3E0F990001BE77401F0A3EAF0A3E996
:1041B300F0222407F9E43AFA02000524FF8E8375FE
:1041C300930024122290001AEAE493FB740193FAF9
:1041D300740293F5828A838B930200092EEF2406DF
:1041E300F97A007B0022F87C007D007E0002000A41
:1041F30091F8E6FF7E00EE90001B45F0A3227F06B8
:10420300F87C007D007E00020009FE90001BE6F0B2
:1042130090001B32E0FAA3E022E5822DF582E583CC
:104223003CF58375930022E5822FF582E5833EF505
:1042330083759300227D017B017A0E79907E0002C3
:10424300000A9190001B32E0FCA3E022E4FEFDFC97
:1042530090001BE622FF2405F8E690001B39F022AC
:10426300E4FFFEFDFC0200086FF87C007D007E0089
:1042730002000A91FAEF1200055690001B4DE0046C
:10428300F0228D828C83759300E5822290001BAD12
:10429300A3A3E0FEA3E0FDAC062490F582740E3CDC
:1042A300222FFFEA3EFEED39FDEC38FC22FBC30270
:1042B3000007E37410F08B828A83759300E58222F2
:1042C3007E1B7F1B7C1A7DEA222404F990001BE7E6
:1042D300EB22FEA3E0FF90001B43E0FCA3E0FDC341
:1042E3009FEC9E2290001B4CE004F022F97A007BA5
:1042F30000020009352407F97A007B00228E8375BA
:10430300930024142290001B39E06499222414F9A9
:10431300E43AFAE475F0010200065AFAA9077B01B0
:104323007D012290001B45E0FCA3E0FD227F067E79
:1043330000020009FE7FC07E0E7D037C0022E49014
:10434300001B45F0A322FFFDFC0200086F759300DC
:10435300E0FF90001BACE0FEEF2290001B38EFF073
:1043630022E4FEFDFC90001BE622E490001B38F0E3
:104373002290001B4CE004F02290001B39E0640102
:1043830022E4FCFD90001B3A22FCA3E0F5828C831F
:1043930022FEA3E0F5828E8322FDE43CFAA9057B8D
:1043A300012290001B39E0FF90001B42E022FE90A7
:1043B300001B49A3E0FAA3E02274902DF582740E4A
:1043C3003CF5832278907C0E7D0190001BA522F999
:1043D300E43AFA120008A789822204F97A007B00E2
:1043E30022FF8E837593002290001B45A3E022F0E9
:1043F30090001B45E03400F022C3EF6480948022D8
:104403009CFEC3EF9440EE940022F090001B43E027
:104413003400F02290001B477402F0A3E422ADF0B5
:10442300FC75930022AFF0FE75930022F090001B01
:1044330047E0227DB17C007E042290001B9EEBF0BE
:10444300A3EAF0A3E9F043F908A3E5FBF0A3E5FC35
:10445300F0E5FD541FA3F0A3E5FEF0A3E5FFF09004
:10446300001BA1E0FF75F00A84C454F0FEEF75F061
:104473000A84E5F0540F2E90001BACF090001BA2B1
:10448300E0FF75F00A84C454F0FEEF75F00A84E58A
:10449300F0540F2E90001BABF090001BA3E0FF75B0
:1044A300F00A84C454F0FEEF75F00A84E5F0540F6B
:1044B3002E90001BAAF090001BA5E090001BADF00E
:1044C30090001BA4E090001BAEF0E490001BA6F04C
:1044D300A3F090001BB47407F0A374D0F012001F74
:1044E300E91200DF9DBF012AD390001BAEE0946E5A
:1044F30090001BADE09401406E90001BA7E004F018
:10450300700790001BA6E004F090001BAEE024921D
:104513008028D390001BAEE0946D90001BADE09417
:1045230001404490001BA7E004F0700790001BA615
:10453300E004F090001BAEE02493F090001BADE08C
:1045430034FEF090001BB5E004F0700790001BB43C
:10455300E004F0C390001BB5E0948490001BB4E02A
:10456300940850030144E090001BA6E0FFA3E090F1
:10457300001BAFCFF0A3EFF090001BA67420F0A3B5
:10458300E4F090001BAFE0FEA3E0FF7C007D64122B
:1045930000057CEF540FFE90001BA7E02400F09071
:1045A300001BA6E03EF090001BAFE0FEA3E0FF7C03
:1045B300007D641200057C7C007D641200056AC3E3
:1045C30090001BB0E09FF090001BAFE09EF0E0FE78
:1045D300A3E0FF7D0A1200057CEFC4F8540FC868FE
:1045E300FFEF54F0FF90001BA7E02FF090001BA6F5
:1045F300E03400F090001BAFE0FEA3E0FF7C007D01
:104603000A1200057C7C007D0A1200056AC3900033
:104613001BB0E09FF090001BAFE09EF0A3E0540FAF
:10462300FF90001BA7E02FF090001BA6E03400F0E2
:10463300E0FFA3E090001BAFCFF0A3EFF090001BCF
:10464300AFE054F0D3949040037F002290001BAF5F
:10465300E0540FD3940940037F002290001BB0E085
:1046630054F0D3949040037F002290001BB0E05499
:104673000FD3940940037F00221200DF9D90001B9B
:10468300B1BF010D7481F0A3741FF0A37491F08086
:104693000B7481F0A3741FF0A3749DF090001BB6FC
:1046A3007401F090001BB4E4F0A304F090001BB479
:1046B300E0FEA3E0FFC3940CEE9400505890001B5F
:1046C300B1E0FBA3E0FAA3E0F9C3EF9401FFEE949A
:1046D30000FEE92FF9EA3EFA12000524FF7E00D31B
:1046E30090001BAEE09F90001BADE09E4027900022
:1046F3001BB6E004F090001BAEE09FF090001BADF2
:10470300E09EF090001BB5E004F070A090001BB495
:10471300E004F08097E490001BA8F090001BB6E043
:10472300FF75F00A84FEC454F0FD90001BA8E02D31
:10473300F0EE75F00AA4FEC3EF9E90001BB6F05492
:104743000FFF90001BA8E02FF0E0FFD39412500A54
:10475300EF540F94095003E070037F0022E49000AC
:104763001BA9F090001BADE0A3E090001BB6F0E0A6
:10477300FF75F00A84FEC454F0FD90001BA9E02DE0
:10478300F0EE75F00AA4FEC3EF9E90001BB6F05442
:104793000FFF90001BA9E02FF0E0FFD394315007E7
:1047A300EF540F940940037F002290001B9EE0FB0F
:1047B300A3E0FAA3E0F8AC02AD037B017A1B79A670
:1047C3007E007F0712000A917F012290001B8AEB73
:1047D300F0A3EAF0A3E9F090001BE1741AF07E0065
:1047E3007D00120080C91200810D90001BDF74014F
:1047F300F07F1012004ADC70037FB122120081C8DF
:1048030090001BE1E0C39402FD12004B067046903A
:10481300001BDEF0120080D5B5061E1200821312B3
:104823000080F212008251120080F2B5060B900054
:104833001BDEE004F0E0B403DB1200811DE4900012
:104843001BDFF090000C2FE0700B7FA012004B35A4
:1048530070037FB12290001BDFE064017059FEFDFD
:10486300120080C97FA012004ADC70037FB12212BC
:1048730000810D120081C87D1812004B0660037F72
:104883005C22E490001BDEF0120080D56E60037F93
:104893005C2212008213120080F212008251120075
:1048A30080F26E60037F5C2290001BDEE004F0E088
:1048B300B403D51200811D7B017A1B79A11200DE9E
:1048C3004090001B8A120080C12405F9E43AFA12D1
:1048D3000008371200081A90000C2B1200086F1200
:1048E3000081C81200E0A090000C231200086F1290
:1048F3000082671200E0A090000C271200086F905E
:10490300001BAC1200826E90001BE0F01200E2D29A
:1049130050037F0D22120080A0C3120007E3703002
:10492300FC90000C27120081AC7FC07E0E7D037CBF
:1049330000120082671200DCFB120081FF741BF07F
:10494300A3749EF0120082677D037C001200DBEBF0
:104953001200809190001B91120080FDE4FFFE7D08
:1049630008FC90001B91120080A9C3120007E340CA
:10497300317C0090001B91120081AC90000C271237
:10498300008095FF90001B91120080A9D3120007AD
:10499300E35008E490001BE0F0800790001BE074F4
:1049A300FFF012008091FF90001B8A120080C12447
:1049B30037F9E43AFA1200083790001B911200808D
:1049C30095FF120081C81200DCFB120081FF741BEB
:1049D300F0A37498120081C77D037C001200DBEB07
:1049E3007B017A1B79A51200DE4090000C41120076
:1049F300086F78D77C1B7D017B017A1B79A97E0028
:104A03007F0312000A9190000C4112008095FF90E1
:104A1300001B8A120080C12411F9E43AFA1200083B
:104A230052EF2BFFEE3AFEED39FDEC38FC90000C13
:104A3300411200086F783E7C0C7A1B79A97F031220
:104A430000812790000C4112008095FF7B017A1BA7
:104A530079A51200DA6C90001B8A120080C124052C
:104A6300120081EEEF120081CF7B017A1B79A11234
:104A730000DA6C90000C2B12008095120081CF900D
:104A8300000C2B1200086F90001B9112008095FF01
:104A930090000C231200086F90001BE0E090001BB5
:104AA300AC120081C77D187C001200D59990001BC1
:104AB3008FEEF0A3EFF07B017A1B79AD1200E1DCFE
:104AC300E47F1012004B356401700B90001BE01261
:104AD30000826E7F00227FB122E4FEFDFC90001B6A
:104AE300E1E090001BE6F0A37401F0A3741BF0A3B4
:104AF3007495F0120064947E0090001B8DEEF0A379
:104B0300EFF0227C001200D59990001B8FEEF0A3EA
:104B1300EFF07B017A1B79D51200E1DC78D57C1BA1
:104B23007D017B017A1B79AD7E007F02120009FEB5
:104B3300EF22FEFDFC90001BE1E090001BE6F0A3DA
:104B43007401F0A3741BF0A37495F012004B5E7E06
:104B53000090001B8DEEF0A3EFF02290001BE212F9
:104B630000086FE490001BEAF090001BE6E0D3948A
:104B73005040037F002290001BE2A3A3A3E0540F45
:104B8300FFE4FEFDFCFBFAF9F8C3120007E3600340
:104B93007F002290001BE2E0FCA3E0FDA3E0FEA364
:104BA300E0FF90001C471200086F78457C1C7D01D4
:104BB3007B017A1C79497E007F0212000A919000E2
:104BC3001C48E01313543F90001C41F090001C4517
:104BD300E0FFA3E090001C43CFF0A3EFF090001C94
:104BE30048E0540390001C42F0E490001BEAF012EA
:104BF300001FE97B017A1A792A90001C50E4120005
:104C0300C2FC7B017A1B79EB90001C50E41200C2BA
:104C1300FC90001BEBE0FF90001A2AE0FE6F60039C
:104C2300014ED8EE64426003014D537B017A1A7939
:104C33002A90001C50F0A374561200C2FF90001A71
:104C43002BE0D394034003014ED890001A2CE0D3F9
:104C530094034003014ED8D390001A2EE094F090B1
:104C6300001A2DE094FF4003014ED890001A2FE064
:104C7300D394504003014ED87E007F567D007B01C4
:104C83007A1B79EB120009357B017A1B79EB9000D3
:104C93001C50E4F0A374561200C2FF78EB7C1B7D1A
:104CA300017B017A1A792A7E007F56120009FEEFF2
:104CB3006003014ED890001A2BE0FFA3E0FD9000A3
:104CC3001A2FE090001C4FF0A37401F0A3741AF0A4
:104CD300A37430F090001A2D1200C458EF70030132
:104CE3004ED87E007F567D007B017A1B79EB120044
:104CF300093590001A2BE0FFA3E0FD90001A2FE086
:104D030090001C4FF0A37401F0A3741BF074EB121A
:104D130000B88AEF7003014ED890001A2FE0FF7E8F
:104D23000078307C1A7D017B017A1B79EB12000934
:104D3300FEEF6003014ED81200BD871200C2EC9053
:104D4300001A2AE0FF90001BEBE06F6003014ED8CE
:104D5300900018C87441F090001C41E0900018C9FD
:104D6300F090001C42E0900018CAF090001C43E051
:104D7300FFA3E0900018CBCFF0A3EFF090001BE669
:104D8300E0FF900018CDF07E0078CE7C187D019076
:104D9300001BE7E0FBA3E0FAA3E0F912000A917B12
:104DA300017A1879C990001C50E4F0A37455F07F80
:104DB3009D7E071200BDA17E007F557D007B017A99
:104DC3001B79EB120009357B017A1B79EB90001CF0
:104DD30050E4F0A37455F07F9D7E071200C304785E
:104DE300EB7C1B7D017B017A1879C97E007F55120C
:104DF3000009FEEF6003014ED8900018C87442F01A
:104E03007B017A1879C81200BD941200C2EC90009D
:104E130018C8E0FF90001BEBE06F6003014ED890D1
:104E2300001C41E0FFA3E0FD90001BE6E090001CA6
:104E33004FF090001BE7E0F9A3E0FAA3E090001C19
:104E430050C9F0A3EAF0A3E9F090001C431200C498
:104E530058EF7003014ED87E007F507D007B017AAE
:104E63001B79EB1200093590001C41E0FFA3E0FD24
:104E730090001BE6E090001C4FF0A37401F0A374B4
:104E83001BF0A374EBF090001C431200B890EF608A
:104E93004490001BE6E0FF7E0078EB7C1B7D01A3C2
:104EA300E0FBA3E0FAA3E0F9120009FEEF702690FD
:104EB3000018C87441F07B017A1879C81200BD94B8
:104EC3001200C2EC900018C8E0FF90001BEBE0B5A5
:104ED30007037F012290001BEAE004F0E0C3940380
:104EE3005003014BF27F002290001C74EEF0A3EFFD
:104EF300F090001C77EBF0A3EAF0A3E9F090001C1C
:104F030076EDF0E4F569EDD3944040037F0022C3CE
:104F130090001C75E0946490001C74E094005003AE
:104F23007F0022E4F56912001FE97B017A1A798078
:104F330090001C50E4F0A304F0E4FFFE1200C3044D
:104F43007B017A1C797A90001C50E4F0A304F0E40E
:104F5300FFFE1200C30490001C7AE0FF90001A8049
:104F6300E0FE6F6003015240EE644260030150A40F
:104F73007B017A1A798090001C50F0A37444F0E40A
:104F8300FFFE1200C304D390001A82E094FF900046
:104F93001A81E09407400301524090001A83E0D342
:104FA300944440030152407E007F447D007B017A9C
:104FB3001C797A120009357B017A1C797A90001CDE
:104FC30050E4F0A37444F0E4FFFE1200C304787AC3
:104FD3007C1C7D017B017A1A79807E007F4412005C
:104FE30009FEEF600301524090001A81E0FEA3E046
:104FF300FF7B017A1A7984A3E0FD90001C50E4F052
:10500300A3EDF01200BDA190001A83E0FF7E007DA6
:10501300007B017A1C797A1200093590001A81E02D
:10502300FEA3E0FF7B017A1C797AA3E0FD90001CCC
:1050330050E4F0A3EDF01200C30490001A83E0FFE4
:105043007E0078847C1A7D017B017A1C797A1200B8
:1050530009FEEF600301524090001A807441F07B17
:10506300017A1A798090001C50E4F0A304F0E4FF65
:10507300FE1200BDA1E490001C7AF07B017A1C793A
:105083007A90001C50F0A304F0E4FFFE1200C30466
:1050930090001A80E0FF90001C7AE06F60030152D9
:1050A300409000191E7441F090001C74E0FFA3E0CF
:1050B3009000191FCFF0A3EFF090001C76E0FF9053
:1050C300001921F07E0078227C197D0190001C7765
:1050D300E0FBA3E0FAA3E0F912000A917B017A193D
:1050E300791F90001C50E4F0A37443F07F017E000D
:1050F3001200BDA17E007F437D007B017A1C797A7B
:10510300120009357B017A1C797A90001C50E4F077
:10511300A37443F07F017E001200C304787A7C1CE1
:105123007D017B017A19791F7E007F43120009FEFE
:10513300EF60030152409000191E7442F07B017A24
:1051430019791E90001C50E4F0A304F0E4FFFE1252
:1051530000BDA1E490001C7AF07B017A1C797A905F
:10516300001C50F0A304F0E4FFFE1200C3049000FF
:10517300191EE0FF90001C7AE06F6003015240901B
:10518300001C74E0FEA3E0FF90001C77E0FBA3E0AB
:10519300FAA3E0F990001C76E0FD90001C50E4F0C7
:1051A300A3EDF01200BDA17E007F407D007B017A5C
:1051B3001C797A1200093590001C74E0FEA3E0FF0D
:1051C3007B017A1C797AA3E0FD90001C50E4F0A3E4
:1051D300EDF01200C30490001C76E0FF7E00787AA5
:1051E3007C1C7D01A3E0FBA3E0FAA3E0F912000914
:1051F300FEEF70499000191E7441F07B017A197912
:105203001E90001C50E4F0A304F0E4FFFE1200BD66
:10521300A1E490001C7AF07B017A1C797A90001C3F
:1052230050F0A304F0E4FFFE1200C3049000191E23
:10523300E0FF90001C7AE0B507037F01220569E5D2
:1052430069C394035003014F297F002290001BA5DB
:10525300120067FBA3EBF012006757240B120067E1
:1052630048E4F0A3F01200679E240D12006748E49F
:10527300F0A37440F01200679E2411120067487473
:1052830001F01200679E240D12006748E0FEA3E0C0
:10529300FF1200691F1200674312006870120009B1
:1052A300357E017F001200691F75930024121200DE
:1052B3006748E0FAA3E0F97B0112000935120067A1
:1052C300BE2412120067481200683174811200680C
:1052D300FE7419F074C51200681312000CB91200A1
:1052E30067BE2412120067481200683112001FBF04
:1052F300120068B3759300241412006748EEF0A3FC
:10530300EFF090001BA712006831C003C002C00178
:10531300A3E0FD12006757241412006748E0FAA3C4
:10532300E0FB1200679E241212006748E0FEA3E030
:105333002BFFEE3AFAA90790001BB51200694CD077
:1053430001D002D0031200D60390001BA9E025E090
:105353001200684E759300241412006748E48FF01E
:105363001200060A12006809241412006748E0FEBE
:10537300A3E0FF12006809241212006748E0FCA3AF
:10538300E02FFFEC3EA807FC7D017B817A1979D5DC
:1053930012000B1E12006757241412006748E475AD
:1053A300F0021200060A1200679E241412006748D6
:1053B300E0FEA3E01200684E75930024121200670A
:1053C30048120069257593002FF582E5833EF58326
:1053D30075930012006807240912006748E4F0A3DC
:1053E300F0120067572414120067481200685B121A
:1053F30000677E12006753240B12006748E4F0A392
:10540300F01200679E2414120067487401F0A3741D
:1054130054F07F3212001FF3120067667D547C0143
:105423001200092EEF4E70117B817A1979D87D1401
:105433007F011200CF757F61221200675724091282
:105443000067481200679924121200674812006728
:10545300A8241212006748120068311200690F1263
:1054630000BBE6E94A4B70037F6122120067BE244A
:1054730012120067481200683190001C2A7481F0F0
:10548300A37419F074E21200681312000CB912002D
:1054930067572411120067487401F0120068B3754E
:1054A30093002414120067481200685B1200677EA1
:1054B3001200092E120067667D147C001200092E6B
:1054C3007F3212001FF31200675724091200674846
:1054D300E4F0A3F01200676F7D547C011200675360
:1054E30024091200674812006799241212006748C2
:1054F300120067A824121200674812006831900056
:105503001BB47481F0A37419F0A374F1F01200BBFF
:10551300E690001BAEEB1200694E4A4B70117B8183
:105523007A1979FA7D147F011200CF757F622212F6
:105533000067BE240912006748E0FEA3E0C394019C
:10554300FFEE9400FE90001BAE120067F32FF9EA02
:105553003EFA12000524642C6010D3EF9400EE94FD
:10556300004007EF1F70DE1E80DBEF4E70037F618C
:1055730022E92401F9E43AFAC002C001120068B337
:10558300759300240912006748A3E0C39FFD9000B0
:105593001BAAE0FEA3E0AA06F990001BB51200695E
:1055A3004CD001D0021200D4BD7F00227B017A1BB4
:1055B3007927120081BD7B017A1B7931120081BDED
:1055C3007F04120082891200816E7E007F3B7DFF83
:1055D300120081811200093512008166120082894E
:1055E3001200D364120081B66003E0FF221200E2CE
:1055F300D250037F0D22120082891200BA3C12009E
:1056030081B66015E024F960072405600301589D05
:105613007F02120058EF01589D90000E86E0C3945C
:1056230001FFE49400FE74702FF582740C3E1200A7
:1056330080F2FFE4FCFDFE90000C36120080A912FC
:105643000006A2E47B64FAF9F81200072D90001B10
:10565300231200086F7E007F147D007B017A1B7983
:10566300761200093590000E6812008095FF9000B5
:105673001B441200086F783C7C1B7D01120081885B
:1056830078527C1B7D017A0D79717F061200818E21
:1056930090001B2312008095FF90001B4C12000802
:1056A3006F90001B8D120081761200C0A51200813D
:1056B300B6600DE0B45A067F08120058EF01589DFA
:1056C30090001B2312008095FF90000E6E12008045
:1056D300A9C3120007E350097F0F120058F67F0990
:1056E3002290000E6E12008095FF90001B4812005E
:1056F300086FE490001B5AF090000E77E02401FE3F
:1057030090000E76E0340090001B50F0A3CEF09092
:10571300001B5874FFF0A37401F090001B71F0128A
:1057230000B157120081B6601FE0FBB40617E49086
:10573300001B58F090001B717402F090001B4C1278
:105743000081F68003AF032212008181120047CE4D
:10575300120081B66003E0FF22120081661200810D
:1057630081120082497D0112007A3E120081B660E7
:1057730003E0FF2290001B58E0701B7B817A1E79A7
:10578300C77D017F011200CF751200E4177F071256
:105793000058F67F062290001B8D120081761200BE
:1057A300D739120081B690001B23120080A9900004
:1057B3001B481200809512008142FC120081DC7BA1
:1057C300017A1B79311200E35590001B23120080EC
:1057D30095FF120081DC7B017A1B79271200E355C8
:1057E30012008290120080A9C3120007E370087BA5
:1057F300817A1E79CC801690001BB67401F0A374D5
:105803001BF0A37427F07B817A1E79D3E4FD7F011B
:105813001200CF7590001BB67401F0A3741BF0A3A4
:105823007431F07B817A1E79DE7F02120058FD7B92
:10583300817A1E79E990001B4012008095FF900049
:105843001BB61200086F7F03120058FD90001B1E49
:10585300E0FF604DB4011E90001B587402120081DA
:1058630080120082497D0312007A3E7F0A7E001275
:1058730000E36B801990000C2F7401F01200E22EEC
:105883007B817A1E79F57D0A7F031200CF751200A2
:10589300E4177D647F011200A8EA90001B1EE0FF5D
:1058A3002290001B58740AF090001B7174021200BE
:1058B3008180120082497D0212007A3EE490000C3E
:1058C3002FF01200E41712008290120080A9C31275
:1058D3000007E37D6460047F0980027F061200A84D
:1058E300EA7F0A7E001200E36B7F00227D641200D0
:1058F300A8EA227D641200A8EA22E4FD1200CF7513
:10590300221200B7ADEF6401600F7B817A157941F4
:105913007DB17C007F5D015BCD1200E37F7B017A6B
:105923000D79701200443DE47F40120074A774188F
:105933001200739512005C32600F7B817A157948EF
:105943007DB17C007F66015BCDE538B45506E53952
:1059530064AA600F7B817A15794D7D5C7C007F6B37
:10596300015B7278287C007A0079307F061200741C
:1059730094EF600F7B817A1579537D5C7C007F7097
:10598300015B7290001B4C7401F0A3740CF0A374C0
:1059930016F07B007A0079281200DD7F7F60120009
:1059A30074A674201200739512005C326009120011
:1059B30074F27F7B015BCD120074677D1E7C001245
:1059C300005C3AF07B007A0079421200E1DC784017
:1059D3007C007A0079427F0212007494EF600F7B9F
:1059E300817A15795C7D5C7C007F83015B72783002
:1059F3007C0C120073B27B007A0079281200E0A0BD
:105A030090000C361200086F90000C3CE52BF07BE5
:105A1300007A00792C1200E32590000C3AEEF0A3F3
:105A2300EFF0E47F80120074A774061200739512DE
:105A3300005C476009120074F27F8D015BCD120098
:105A430074FD7400F074281200746512005C4F78C2
:105A5300257C007D007A007928120073F6603B787C
:105A6300227C0012007530120073C8120074FD749A
:105A730000F074251200746512005C4F7F801200E1
:105A8300753974061200739512004B5EEF64016062
:105A930009120074F27F97015BCD90001ACD740157
:105AA300F0A3740DF0A37471120074661200D79DF5
:105AB30090000C3DEFF01200E3B950037F0522E4A0
:105AC30090001AC8F0A3F090001AC8E0FAA3E0FB14
:105AD300C3942AEA9401504CEB2480FFEA340DFE70
