:10000000021CB27E11DEFEDFFA00220200CE205377
:10001000E8EF438EC075C7AA75C75543D803227F42
:020020000022BC
:100023000200C94E0200014BEC5D046005E859046F
:100033007004020001411200010C580460F4EC4802
:1000430060F0EC7004FDFEFF22C860D82481C85024
:100053000AC39860025007020001489850C6F5820F
:10006300E9294B4A7006AB820200013775F0007C28
:100073001A7880C3EF9BEE9AED99400DC3EF9BFF77
:10008300EE9AFEED99FDE842F0DC24ACF0D0E0FFFF
:10009300D0E0FED0E0FDAB8220E7101BEB60B8ECB4
:1000A3002CFCEF33FFEE33FEED33FD02000123E8BA
:1000B30003F830E705C0F075F000EF2FFFEE33FED5
:1000C300ED33FD40B730E7C180A975F020800E7590
:1000D300F010800575F0087D007E007F003392D517
:1000E30030D504120007E9EC334010EF33FFEE3351
:1000F300FEED33FDEC33FCD5F0ED22E5F0247EA2DA
:10010300D513CC92E7CDCEFF22E9D2E7C933E8334A
:10011300F892D5EDD2E7CD33EC33FC5002B2D522C1
:10012300EC30E7100FBF000C0EBE00080DBD00043D
:100133000BEB6014A2D5EB13FCED92E7FD2274FFE9
:10014300FCFDFEFF22E480F8A2D574FF13FC7D8042
:10015300E480EFF920E73624F950037907E4F42427
:1001630002FBE582158270021583DBF6E024FB5067
:100173001BE96014E4F0E582158270021583E00444
:10018300F0B40A08E4F0D9EE7401F00A22C2D522D1
:10019300ED33EC3392D5FA602AB4FF33EDC2E77B3B
:1001A3008160067A0179B8E4227A0179C120D50405
:1001B3007A0179BC224E614E002B494E46002D49EF
:1001C3004E4600E47A08F0A3DAFC7B00740722C0F1
:1001D30093C083C082ECC0E0EDC0E0EEC0E0EFC0AE
:1001E300E0EA75F010A4CAABF075F04DA42BFBE464
:1001F30035F0FCEA2410FAEB34C5FBEC34D9FCED02
:10020300C2E7FF75F056A4F42411C5F0F434C58F8A
:10021300F0A42AE5F03BE43CF020E716120004DEEC
:10022300D0E0FFD0E0FED0E0FDD0E0FC1200002BD8
:100233008016F404120004DED0E0FFD0E0FED0E02C
:10024300FDD0E0FC120003A0D082D083D093E0FA6B
:10025300EDD2E7CD33EC332482FBE4C3CF33CFCEEF
:1002630033CECD33CD33DBF37B0775F00A846004E3
:10027300F0A31B0AE5F0F0A38FF0740AA4FFACF01F
:100283008EF0740AA42CFEACF050010C8DF0740AAD
:10029300A42CFDE435F0F0A3DBDE74072202000199
:1002A30041E86480F8E933E83360110460EFED332B
:1002B300EC337009E8FCE9FDEAFEEBFF220460DDA4
:1002C300D3EB9FEA9EE99DE8C2E78CF0C2F795F075
:1002D300400CE8CCF8E9CDF9EACEFAEBCFFB1200FB
:1002E300010C85D0F05804700320D5B1E8047008E0
:1002F3005002B2D50200014B92D5EC0460F6E4CC77
:10030300C0E0C398F8603C94186009400ED0E0FB4D
:1003130002000123E4FBFAC9FC8028E830E406E488
:10032300C9FBE4CAFCE830E305E4C9CACBFCE854E2
:10033300076010F8C3E913F9EA13FAEB13FBEC13A4
:10034300FCD8F130F531C3E49CFCEF9BFFEE9AFE41
:10035300ED99FDD0E0FBEF4E4D4C701322DB040210
:10036300000148EC2CFCEF33FFEE33FEED33FDEDE3
:1003730030E7EA02000123EF2BFFEE3AFEED39FDF1
:10038300D0E0FB50140BBB00040200014BED13FD46
:10039300EE13FEEF13FFEC13FC02000123EC4D60A0
:1003A30011E8497018ED33EC3304600DE4FCFFFEF3
:1003B300FD22E933E8330470F80200014112000121
:1003C3000C58046009E4CC2481500728500B020028
:1003D300014B28400402000148C0E0EB4A7046B9D3
:1003E3008007D0E0FB02000137EF4E701DBD80088F
:1003F300EBFFEAFEE9FD80EAE98DF0A4FEE5F002F9
:1004030000048FE9CDF9EAFEEBFFEF89F0A4FCE5E8
:10041300F0CE89F0A42EFFE435F0CD89F0A42DFEB3
:10042300E435F08067EF4E7005BD80D780C2EF8B57
:10043300F0A4ACF0EE8BF0A42CFCE435F0F8EF8ADA
:10044300F0A42CE5F038FCE433CB8DF0A42CFCE5D0
:10045300F03BF8EE8AF0A42CFCE5F038F8E433CF57
:1004630089F0A42CFCE5F038CF3400CE89F0A42F1A
:10047300FFE5F03EFEE433C98DF0A42EFEE5F0392E
:10048300CD8AF0A42FFFE5F03EFEE43DFD33D0E03E
:10049300FB50080BBB00100200014BEC2CFCEF33AC
:1004A300FFEE33FEED33FD020001233F80000041E8
:1004B30020000042C80000447A0000461C40004768
:1004C300C35000497424004B1896804CBEBC205A7C
:1004D3000E1BCA6753C21C749DC5AEFB600654074E
:1004E3006020232312000511EB5438600C12000422
:1004F300FC1200050C120003A0ECF8EDF9EEFAEF84
:10050300CB22EB1200050C80F0543803241C90001E
:1005130004AEFE93FC0EEE93FD0EEE930ECE93FF10
:1005230022EB7002E72289828A831410E704F59391
:10053300E022F593E49322BB000327F722F8EB892B
:10054300828A831410E706F593E028F022F593E4FA
:10055300932822BB0002F722BB8000500989828ABC
:10056300838B931593F022EF8DF0A4A8F0CF8CF03A
:10057300A428CE8DF0A42EFE22BC000BBE0029EFD2
:100583008DF084FFADF022E4CCF875F008EF2FFF77
:10059300EE33FEEC33FCEE9DEC984005FCEE9DFE45
:1005A3000FD5F0E9E4CEFD22EDF8F5F0EE0084205E
:1005B300D21CFEADF075F008EF2FFFED33FD4007C1
:1005C300985006D5F0F222C398FD0FD5F0EA22C267
:1005D300D5EC30E709B2D5E4C39DFDE49CFCEE30D5
:1005E300E716B2D5E4C39FFFE49EFE1200057CC369
:1005F300E49DFDE49CFC80041200057C30D507C318
:10060300E49FFFE49EFE22C5F0F8A3E028F0C5F0C6
:10061300F8E582158270021583E038F022A3F8E032
:10062300C5F025F0F0E582158270021583E0C83825
:10063300F0E822EB7007E7F5F009E7192289828ACF
:10064300831410E708F593E0F5F0A3E022F593E4B3
:1006530093F5F074019322F8EB700C09E5F027C7CA
:10066300F5F019E837C72289828A831410E707F562
:1006730093E802000620F593E4740193F5F0E49304
:1006830022BB000B09C5F027F7C5F01937F722F88D
:10069300EB89828A831410E707F593E80200060AC0
:1006A300F59374019325F0F5F0E4933822BB00062B
:1006B300F709A7F01922BB8000500D89828A838B2A
:1006C300931593F0E5F0A3F022E88FF0A4CC8BF020
:1006D300A42CFCE98EF0A42CFC8AF0EDA42CFCEAFB
:1006E3008EF0A4CDA8F08BF0A42DCC3825F0FDE935
:1006F3008FF0A42CCD35F0FCEB8EF0A4FEA9F0EB2B
:100703008FF0A4CFC5F02ECD39FEE43CFCEAA42D36
:10071300CE35F0FDE43CFC2275F008758200EF2F26
:10072300FFEE33FECD33CDCC33CCC58233C5829BB4
:10073300ED9AEC99E58298400CF582EE9BFEED9ADA
:10074300FDEC99FC0FD5F0D6E4CEFBE4CDFAE4CC76
:10075300F9A88222B800C1B90059BA002DEC8BF078
:1007630084CFCECDFCE5F0CBF97818EF2FFFEE3335
:10077300FEED33FDEC33FCEB33FB10D70399400460
:10078300EB99FB0FD8E5E4F9FA227818EF2FFFEE87
:1007930033FEED33FDEC33FCC933C910D7059BE9B8
:1007A3009A4007EC9BFCE99AF90FD8E0E4C9FAE414
:1007B300CCFB2275F010EF2FFFEE33FEED33FDCCB3
:1007C30033CCC833C810D7079BEC9AE899400AED9D
:1007D3009BFDEC9AFCE899F80FD5F0DAE4CDFBE445
:1007E300CCFAE4C8F922C3E49FFFE49EFEE49DFD36
:1007F300E49CFC22EB9FF5F0EA9E42F0E99D42F077
:10080300EC6480C864809845F022EB9FF5F0EA9E83
:1008130042F0E99D42F0E89C45F022E8600FECC30A
:1008230013FCED13FDEE13FEEF13FFD8F122E86086
:100833000FEFC333FFEE33FEED33FDEC33FCD8F1A2
:1008430022EB7006E9F802000B6F89828A83141089
:10085300E706F59302000B7BF59302000B87BB00C1
:1008630006E9F802000BC0BB8000500C89828A8322
:100873008B9315930200089922EB7006E9F80200A6
:100883000B9789828A831410E706F59302000BA461
:10089300F59302000BB0ECF0A3EDF0A3EEF0A3EFA1
:1008A300F022A42582F582E5F03583F58322F8E072
:1008B300FBA3A3E0F925F0F0E5821582700215830E
:1008C300E0FA38F022EBF0A3EAF0A3E9F022EB70B0
:1008D30006E9F802000BCC89828A831410E706F537
:1008E3009302000BDEF59302000BE7BB001CD093D1
:1008F300D0F0D0E0F8D0E0C9FBD0E0FAD0E0CBC82C
:10090300C0E0C0F0C09302000BD5BB80005022D0E2
:1009130093D0F0D0E0F8D0E0C9F582D0E0CAF583F7
:10092300D0E0CB14C8C0E0C0F0C0938893020008A5
:10093300C8D093D083D082D0E0D0E0D0E0E473D0AD
:1009430093D083D082F8E4937012740193700DA353
:10095300A393F8740193F5828883E4737402936814
:1009630060EFA3A3A380DFD093D083D082E49370FE
:1009730012740193700DA3A393F8740193F5828805
:1009830083E4737402936C70127403936D700C742C
:1009930004936E70067405936F60DDA3A3A3A3A3F2
:1009A300A380CA8B938A838982159353937FE473BD
:1009B300EF4E6022EF60010EEDBB0007F709DFFC8D
:1009C300A9F022BB8000500E89828A838B931593F2
:1009D300F0A3DFFCDEFA22EB700C87F009E608B522
:1009E300F019DFF6801589828A831410E70FF593D7
:1009F300E0F5F0A3E608B5F002DFF5806AF593E4CD
:100A030093F5F0A3E608B5F05EDFF4805ACB7013DC
:100A130088828C838B9387F009E493A3B5F048DF36
:100A2300F580441410E71F88848C858B9589828A0E
:100A330083F593758620E0F5F0E493A3A3B5F02442
:100A4300DFF4DEF2801E88848C858B9589828A830D
:100A5300F593758620E493F5F0E493A3A3B5F0042E
:100A6300DFF3DEF17586007FFFB5F0020F2240024F
:100A73007F0122020009DA809488F0EF60010E4EB4
:100A830060F0ED60EE1410E7EECB701288828C8379
:100A9300F59387F009E0A3B5F0CDDFF680C9141014
:100AA300E71E88848C858B9589828A83F593758666
:100AB30020E0F5F0E0A3A3B5F0AADFF5DEF380A410
:100AC30088848C858B9589828A83F593758620E447
:100AD30093F5F0E0A3A3B5F08BDFF4DEF28085EBB2
:100AE3007008E709F608DFFA801B89828A831410ED
:100AF300E70AF593E0A3F608DFFA8009F593E49398
:100B0300A3F608DFF9ECFAA9F0EDFB2288F0EF6019
:100B1300010E4E60F088F0ED60C51410E7E7CB706E
:100B23000E88828C838B93E709F0A3DFFA80D614B7
:100B330010E71C88848C858B9589828A83F593754D
:100B43008620E0F0A3A3DFFADEF875860080B6887E
:100B5300848C858B9589828A83F593758620E493AB
:100B6300F0A3A3DFF9DEF77586008099E6FC08E6BB
:100B7300FD08E6FE08E6FF22E0FCA3E0FDA3E0FE9D
:100B8300A3E0FF22E493FC740193FD740293FE74CB
:100B93000393FF22E6FB08E6F908E6FA08E6CBF83A
:100BA30022E0F8A3E0F9A3E0FAA3E0FB22E493F840
:100BB300740193F9740293FA740393FB22ECF6081D
:100BC300EDF608EEF608EFF622E6FB08E6FA08E68D
:100BD300F922EBF608EAF608E9F622E0FBA3E0FACD
:100BE300A3E0F922E493FB740193FA740293F922CC
:100BF300E51124C6F582E43417F583759300E00507
:100C03001122900017C3300B04900017C6E475F04F
:100C130001120008B1020005242004E57F2ED2044E
:100C23008018EF540F2490D43440D4FF30080BEFD6
:100C330024BFB41A0050032461FFE51260021512A9
:100C43000515E51570020514300B11900017C3E468
:100C530075F001120008B1EF020005560200217180
:100C63007403D20B8003E4C20BF511900017C31277
:100C73000008C8E4F512F514F515E51260087F20A5
:100C830012000C3D80F47513FFC205C204C206C2F4
:100C930007C209C20AC20C12000C05FF700E300B0A
:100CA300067F0012000C4EAF15AE1422B42563C2AA
:100CB300D5C20812000C05FF24D0B40A00501A75DF
:100CC300F00A781230D50508B6FF0106C6A426F649
:100CD30020D5047002D20780D824CFB41A00EF5075
:100CE30004C2E5D20802000F8BD20580C4D204806F
:100CF300BED20680BAD2D580B8D20980B27F201284
:100D0300000C3D2006077401B5120040F012000BE1
:100D1300F3FF12000C3D02000C7DD20CD20A808F2F
:100D230012000BF3FB12000BF3FA12000BF3F94A58
:100D33004B700679987A107B8120063DE512603965
:100D43007E00E9C0E02EF9EAC0E03400FA120005A3
:100D530024F9D0E0FAD0E0C960060EEE651370E224
:100D6300C2D5EBC0E0EAC0E0E9C0E0EE12000FF349
:100D7300D0E0F9D0E0FAD0E0FB12000524FF609642
:100D8300EBC0E0EAC0E0E9C0E012000C3DD0E02493
:100D930001F9D0E03400FAD0E0FBE5130460DAD5C2
:100DA30013D702000D19D206808F12000FCF60F601
:100DB300E51370010412000156A913600EE51360D8
:100DC3000A14F51312001082EF60F2EA30E702F41E
:100DD30004C399400402000E62EAF425130430E7C9
:100DE30001E404F513800F12000FCF60B9EA051375
:100DF300251312000156EA900017F2F030E701E4E0
:100E0300251304D513042009011412000FF3E4C0C1
:100E1300E012001082900017F2E0601420E708143B
:100E2300F012000C25802604F0D0E014C0E07F000F
:100E330012000C25E513600812000C1C1513800D1D
:100E430030090412000C1CD0E002000C7DD0E00439
:100E530080BD12000FCF6093E5130412000156907A
:100E63000017F2EAF0E513200902600104240412DA
:100E7300000FF374FF04C0E01200108212000C256F
:100E8300E513200902600412000C1CD0E0B513E541
:100E93007F4512000C2F900017F2E07F2B30E70400
:100EA3007F2DF404C0E012000C3DD0E075F00A84FD
:100EB300C0F012000C26D0E012000C2602000C7DBC
:100EC300791080027908C20AC20C8008D2D5790A47
:100ED3008004790AC2D5E513047002F513E4FAFD20
:100EE300FEFF12000BF3FC7B0820051612000BF328
:100EF300FD7B1030040C12000BF3FE12000BF3FF0A
:100F03007B20EC3382D592D55013C3E43004069F83
:100F1300FFE49EFEE42005039DFDE49CFCE4CBF886
:100F2300C205EC700CCFCECDCCE824F8F870F3807A
:100F330017C3EF33FFEE33FEED33FDEC33FCEB333E
:100F4300FB994002FB0FD8E9EB300505F8D0E0C46C
:100F530048B205C0E00AEC4D4E4F78207B0070C2CA
:100F6300EAB5130040BCC0E012000FF5D0F0D0E0AA
:100F7300200504C4C0E0C4B205C0F012000C26D0A2
:100F8300F0D5F0EA02000C7D120009420D23530E46
:100F9300C3580CF04C0CEC420EC74F0ECF440ECF8F
:100FA300490D06430ED5550DEA460E55450DAD4781
:100FB30010B5500CF42D0CF82E0D1F2B0CFC230D2B
:100FC3001D2010A12A0CB24800000D15E513B4FF33
:100FD3000375130612000BF3FC12000BF3FD120052
:100FE3000BF3FE12000BF3FF900017EB02000193CB
:100FF300790AA2D5200714300909B910020404B9EB
:10100300080104A2D5200A0250010420066D9206AD
:10101300B512005036C0E07F2030071A7F30A20699
:10102300720A720950101200104EC206C20AC20997
:10103300C20C7F308010300903E9C0E012000C3D80
:10104300300903D0E0F9D0E0B512CA3009197F3076
:10105300B9100D12000C3D7F583008077F788003CC
:10106300B9080412000C3D3006067F2D02000C3D2A
:101073007F20200CF77F2B200AF222920680CC7F60
:1010830000B40700500E24EBF582E43417F58375A2
:101093009300E0FF22286E756C6C2900D2051200C4
:1010A3000BF33005F7C205781230D50108F60200BC
:1010B3000CB212000BF37F4960087F4310E7027FF5
:1010C3005814C0E0EF12000C2E743A12000C2ED00C
:1010D300E0600DC0E0C412000C26D0E012000C2624
:1010E300D20775120402000EC3D6D0CDBEB0CEBF58
:1010F300A800B2BBBFC9CAB6B1F0BFA800BFA8C79A
:10110300AEB0FCB4EDCEF300CEB4C9CFB4ABC1F7EF
:10111300CBAE00C7EBB2C9BCAF00BADABFA800BF01
:10112300A8D2D1B9C6DA00CEDEC8A8CFDE00BFA8E8
:10113300D3E0B6EEB2BBD7E300BFA8D2D1CBF80061
:10114300C3E2B7D1BFA800BCC7C2BCD2D1C2FA00A8
:10115300D6D8B8B4CBA2BFA800C9E8D6C3B4EDCEE5
:10116300F300CAB1D6D3B4EDCEF300D3B2BCFEB90B
:10117300CAD5CF0000CEEFC0ED4944CEB4C9E8D6FE
:10118300C300D6F7B2CEB4EDCEF300575220534589
:101193005249414C0052442053455249414C005B53
:1011A30025645DB4EDCEF3C2EBA3BA25642000B68B
:1011B300C1D0B4B4EDCEF3002530325800693136D6
:1011C3005B253034585D00252E30326600B6C1BF32
:1011D300A8C6F7D2ECB3A3007265616420307834FB
:1011E3003020616464720A00B6C1454550524F4DC8
:1011F300203100454550524F4D20446174612031E8
:1012030000776F726B206B657900776F726B206B61
:1012130065790A00B6C1454550524F4D203200450D
:101223004550524F4D2044617461203200D0B44583
:101233004550524F4D203200646179735B25645DE4
:101243005B25645D00B6C1454550524F4D203300C8
:10125300454550524F4D2044617461203300B6C15F
:10126300454550524F4D203400646973706C617969
:10127300206D656E750A00312E20BAECCDE2CDA843
:10128300D1B6202000322E20B4AEBFDACDA8D1B61D
:10129300202000332E2047505253CDA8D1B6202012
:1012A3000020202020202020202020202020002576
:1012B3006C750025732C5B25640A00C9E8B1B8CEB0
:1012C300EFC0ED49440025303258253032582530DF
:1012D30032582530325800CFB5CDB3CAB1BCE40083
:1012E300B5B1CCECD3AAD2B5B6EE00252E3032661A
:1012F30020D4AA00C7B0D2BBCCECD3AAD2B5B6EEE9
:1013030000BBF9B4A1B7D1C2CA00B2C9BCAFCAB15C
:10131300BCE4BCE4B8F400256420CCEC00C1ACD040
:10132300F8CBA2BFA800256420C3EB00B5B1C7B0BA
:10133300C1F7CBAEBAC500CEB4B2C9BCAFBCC7C24D
:10134300BC00257520CCF500B3CCD0F2B0E6B1BE1D
:1013530000257300303930363236494D5F62310033
:10136300CEB4B2C9BCAFCCECCA00257520CCEC001E
:101373004275696C64004A756E2032362032303013
:10138300390032333A31333A343200312E20CBA292
:10139300BFA8CAD5B7D1202000322E20B2E9D1AFE1
:1013A30020202020202000332E20CDA8D1B62020BD
:1013B3002020202000B3F5CABCBBAFB4EDCEF300B0
:1013C300B3F5CABCBBAFB3C9B9A600001F1C1F1E2F
:1013D3001F1E1F1F1E1F1E1F81127A81C5DF811250
:1013E3008881CBC381129681EE248112A400000070
:1013F300010DB700000081138E81A8FB81139C812E
:1014030053758113AA81EAB32020202020202020B5
:1014130020202020202020200000000000000000C9
:10142300000000004F00000000000007000700005C
:101433000000147F147F14000000242A7F2A120066
:10144300000023130864620000003649552250004F
:1014530000000005030000000000001C2241000002
:1014630000000041221C0000000014083E08140084
:10147300000008083E08080000000050300000008B
:101483000000080808080000000000606000000079
:10149300000020100804020000003E5149453E00B0
:1014A30000000000427F40000000426151494600B5
:1014B30000002141454B310000001814127F100039
:1014C300000027454545390000003C4A49493000A2
:1014D300000001017905030000003649494936003F
:1014E3000000064949291E000000003636000000AE
:1014F30000000056360000000000081422410000DE
:1015030000001414141414000000004122140800F5
:1015130000000201510906000000324979413E00F2
:1015230000007E1111117E000000417F4949360001
:1015330000003E41414122000000417E4141223CE6
:1015430000007E494949490000007F09090901005B
:1015530000003E4141497A0000007F0808087F00EF
:10156300000000417F41000000002040413F010096
:1015730000007F081422410000007F4040404000EB
:1015830000007F020C027F0000007F0608307F000E
:1015930000003E4141413E0000007F090909060069
:1015A30000003E4151215E0000007F0919294600D9
:1015B3000000264949493200000001017F01010072
:1015C30000003F4040403F0000001F2040201F001C
:1015D30000007F2018207F000000631408146300BC
:1015E30000000708700807000000615149454300E7
:1015F3000000007F414100000000020408102000A9
:1016030000000041417F00000000040201020400C9
:1016130000004040004040000000010204000000C0
:10162300000020545454780000007F48444438009C
:1016330000003844444428000000384444487F00F4
:101643000000385454541800000000087E090200BA
:1016530000000C52524C3E0000007F080404780046
:10166300000000447D40000000002040443D000095
:101673000000007F10284400000000417F4000006C
:1016830000007C047804780000007C0804047800DF
:10169300000038444444380000007E0C12120C0051
:1016A30000000C12120C7E0000007C0804040800E9
:1016B30000005854545464000000043F4440200088
:1016C30000003C40403C400000001C2040201C0027
:1016D30000003C4030403C000000442810284400F7
:1016E30000001CA0A0907C0000004464544C440003
:1016F30000000008364100000000000077000000F1
:10170300000000413608000000000201020402004C
:101713000000FFFFFFFFFF000025303264000000E0
:10172300102120423063408450A560C670E78108D1
:101733009129A14AB16BC18CD1ADE1CEF1EF123148
:1017430002103273225252B5429472F762D6933921
:101753008318B37BA35AD3BDC39CF3FFE3DE246298
:1017630034430420140164E674C744A45485A56A71
:10177300B54B85289509E5EEF5CFC5ACD58D365328
:1017830026721611063076D766F6569546B4B75BC1
:10179300A77A97198738F7DFE7FED79DC7BC48C4F8
:1017A30058E5688678A70840186128023823C9CC11
:1017B300D9EDE98EF9AF89489969A90AB92B5AF588
:1017C3004AD47AB76A961A710A503A332A12DBFD61
:1017D300CBDCFBBFEB9E9B798B58BB3BAB1A6CA658
:1017E3007C874CE45CC52C223C030C601C41EDAEB1
:1017F300FD8FCDECDDCDAD2ABD0B8D689D497E9768
:101803006EB65ED54EF43E132E321E510E70FF9F00
:10181300EFBEDFDDCFFCBF1BAF3A9F598F789188B6
:1018230081A9B1CAA1EBD10CC12DF14EE16F10809A
:1018330000A130C220E3500440257046606783B99D
:101843009398A3FBB3DAC33DD31CE37FF35E02B1EA
:10185300129022F332D24235521462777256B5EAAD
:10186300A5CB95A88589F56EE54FD52CC50D34E23A
:1018730024C314A004817466644754244405A7DB7D
:10188300B7FA879997B8E75FF77EC71DD73C26D38A
:1018930036F2069116B06657767646155634D94C0D
:1018A300C96DF90EE92F99C889E9B98AA9AB5844DA
:1018B30048657806682718C008E1388228A3CB7DDD
:1018C300DB5CEB3FFB1E8BF99BD8ABBBBB9A4A752A
:1018D3005A546A377A160AF11AD02AB33A92FD2E6D
:1018E300ED0FDD6CCD4DBDAAAD8B9DE88DC97C267A
:1018F3006C075C644C453CA22C831CE00CC1EF1FBD
:10190300FF3ECF5DDF7CAF9BBFBA8FD99FF86E17C9
:101913007E364E555E742E933EB20ED11EF06C6F22
:101923006164206B6579210A006C6F67696E2066BC
:1019330061696C642025640A0073656C65637420B7
:10194300636172640A006C6F67696E207365637408
:1019530020310A007265616420626C6F636B20340E
:101963000A00323025303264253032642530326447
:10197300006C6F67696E207365637420350A0072AB
:1019830065616420626C6F636B2032300A006361AF
:101993007264207265636F72640A00696E746572A3
:1019A30076616C206964785B25645D0A00777269EF
:1019B30074652073657269616C20736563745B255C
:1019C300645D0A00736563745B25645D626C6F63B9
:1019D3006B5B25645D0A00777269746520736563C8
:1019E3007420350A00777269746520626C6F636BCB
:1019F3005B353A32315D0A006C6F67696E20636153
:101A0300726420707572736520736563740A007263
:101A130065616420707572736520626C6F636B0A15
:101A23000072656164207075727365206261636B17
:101A330075700A006C6F67696E206361726420338E
:101A430020736563740A0072656164206361726464
:101A530020313220626C6F636B0A0072656164200F
:101A6300626C6B2031340A00726561642070757298
:101A730073650A00636865636B20636172640A00BF
:101A8300000506060607070708080800020001020A
:101A93000001020001027265616420707472200A01
:101AA30000777269746520707472206261636B0AD7
:101AB300007265616420707472206261636B0A0056
:101AC3006261636B20707472206372630A006261E7
:101AD3006B20707472206372630A007265636F72A5
:101AE300642066756C6C0A0075706461746520709F
:101AF3007265206D6F6E65790A006D6F6E65795B37
:101B0300256C755D5B256C755D007570646174652E
:101B130020707472206572726F720A006572726F40
:101B2300722073657269616C5B25645D0A0072657E
:101B3300636F72642066756C6C5B256C755D5B25E9
:101B43006C755D0A00676574206E65787420736533
:101B53007269616C0A007265636F726420736572E7
:101B630069616C0A00BADABFA800C3E2B7D1BFA8A3
:101B730000BFDBBFEE20257320D4AA00D3E0B6EE6E
:101B830020257320D4AA00C1F7CBAEBAC55B256C60
:101B9300645D00C7EBD6D8CBA200636F6E73756D1F
:101BA30065205B25645D0A00C7EBC1AACFB5B9DC2C
:101BB300C0EDD4B100C7EBBCECB2E9504F53BBFA54
:101BC300007761697474696E672E2E2E00626567F3
:101BD300696E20726571756573742E2E2E0A0070FE
:101BE300726F636573732E2E2E00C9E8D6C3CEEFD2
:101BF300C0ED4944B3C9B9A600D0A3D7BCCAB1D676
:101C0300D3B3ACCAB100D0A3D7BCCAB1D6D3B3C97E
:101C1300B9A6007772697465206572726F722C3091
:101C23007834300A006E6F7420737570706F72743D
:101C330020636D645B25645D0A0070726F63657376
:101C430073206F6B002020202020202020202000E4
:101C5300696E697420696E6672617265642E2E2ED8
:101C630000B2BBD6A7B3D6BAECCDE200B4F2BFAA9A
:101C7300BAECCDE2CAA7B0DC00636F6D6D756E6917
:101C8300636174696F6E2E2E2E00B2BBD6A7B3D6D6
:101C9300B4AEBFDA00B4F2BFAAB4AEBFDACAA7B01B
:101CA300DC00696E697420706F732E2E2E0A007526
:101CB300C7AA75C755759D0275C7AA75C75575C659
:101CC30000787FE4F6D8FD75816C02001CFB0200EE
:101CD300CA27E493A3F85407240CC8C333C4540F8E
:101CE3004420C8834004F456800146F6DFE4800CA8
:101CF300010204081020408090001ED5E47E019369
:101D030060CCA3FF543F30E509541FFEE493A36066
:101D1300010ECF54E0B4E026E493FBA3E493FAA3CB
:101D2300E493F9A3E493C083C08212000556D082E2
:101D3300D083A309E970010ADFEADEE880BE54C05C
:101D430025E0602B408CE493A3FAE493A3F8E49397
:101D5300A3C8C582C8CAC583CA759300F07593002A
:101D6300A3C8C582C8CAC583CADFE3DEE1808DE4A8
:101D730093A3F8E493A34003F68001F208DFF4028F
:101D8300001CFF6F70656E20706F72745B25645D5D
:101D93005B256C755D0A00636C6F736520706F72F1
:101DA300745B25645D0072656376207374783120FB
:101DB3006572720A007061636B206C656E206572D8
:101DC300722C5B25645D0A0072656376206572720E
:101DD3002C5B25645D5B25645D0A00726563762078
:101DE3006275662065787431215B25645D0A007233
:101DF3006567697374657220696E66726172656482
:101E030020706F72740A006F70656E20636F6D6D62
:101E130020706F72745B25645D5B256C755D0A00D1
:101E2300636C6F736520636F6D6D20706F72745B8D
:101E330025645D0A00726567697374657220636F58
:101E43006D6D20706F72740A00BD0020EF7F08C2B1
:101E5300A63392A500D2A6DFF6C2A67F64D2A5A2BE
:101E6300A55002DFFAD2A60000C2A622BD0120EFD0
:101E73007F08C2A73392A500D2A7DFF6C2A77F646B
:101E8300D2A5A2A55002DFFAD2A70000C2A722BDA5
:101E93000220EF7F08C2963392A500D296DFF6C2E6
:101EA300967F64D2A5A2A55002DFFAD2960000C2A3
:101EB3009622EF7F08C2973392A500D297DFF6C22E
:101EC300977F64D2A5A2A55002DFFAD2970000C281
:101ED300972260550DCB00018110EC00028110F5B3
:101EE3000003811100000481110B0005811116000C
:101EF3000681111D0007811122000881112A0009A2
:101F0300811131000A81113C000C811143000D81C4
:101F1300114A005A811153005C81115C005B8111ED
:101F23006500B181116E00FE811177411D41014CA5
:101F33000006000000000000000000000000460052
:101F4300000000000000004200120000420C1400D8
:101F53000000D2A4C2A400C2A2C2A3BD0004D2A2A4
:101F6300C2A312001F6A22BF0012D2A100D2A40092
:101F73008B8000C2A4C2A112001F9122D2A000D262
:101F8300A4008B8000C2A4C2A012001F9122D2A47D
:101F9300C2A4C2A200D2A37580FF7400BF0014D2F2
:101FA300A100D2A400E58000C2A400D2A4C2A12053
:101FB300E7ED22D2A000D2A40000E58000C2A40075
:101FC300D2A4C2A020E7EC22BF00177D09D2A5D27C
:101FD300A60000C2A60000D2A60020A502DDF4C21E
:101FE300A522BF01177D09D2A5D2A70000C2A70071
:101FF30000D2A70020A502DDF4C2A522BF02177DEF
:1020030009D2A5D2960000C2960000D2960020A560
:1020130002DDF4C2A5227D09D2A5D2970000C297A2
:102023000000D2970020A502DDF4C2A522BF001252
:102033007D08D2A5C2A600A2A533D2A6DDF6C2A60C
:10204300FF22BF01127D08D2A5C2A700A2A533D2E9
:10205300A7DDF6C2A7FF22BF02127D08D2A5C29652
:1020630000A2A533D296DDF6C296FF227D08D2A543
:10207300C29700A2A533D297DDF6C297FF22900044
:1020830017BDE0FFA3E0FEA3E0CF900017C6F0A3C7
:10209300EEF0A3EFF0900017C0E0CBF0A3E0CAF09E
:1020A300A3E0C9F07F22900017C9AD82AC83120070
:1020B30005248D828C83F0A309E970010ADFEB907C
:1020C3000017C0E0FBA3E0FAA3E0F902000C63BF32
:1020D300000E12002030C2A500D2A60000C2A62224
:1020E300BF010E12002030C2A500D2A70000C2A774
:1020F30022BF020E12002030C2A500D2960000C2F9
:10210300962212002030C2A500D2970000C2972267
:10211300BF000AC2A500D2A600D2A50022BF010AB1
:10212300C2A500D2A700D2A50022BF020AC2A50001
:10213300D29600D2A50022C2A500D29700D2A50054
:1021430022BF0009D2A500D2A600C2A522BF010961
:10215300D2A500D2A700C2A522BF0209D2A500D2F0
:102163009600C2A522D2A500D29700C2A522EFB441
:102173000A08740D1200217D740A309811A899B8C9
:10218300130CC2983098FDA899C298B811F63099EB
:10219300FDC299F59922527463546D5F5645525F9F
:1021A300312E3031001F1D1F1E1F1E1F1F1E1F1E1D
:1021B3001F1F1C1F1E1F1E1F1F1E1F1E1F20000D63
:1021C3000A003031323334353637383941424344EB
:1021D300454600E4FFFE12000524600C0FEF70017A
:1021E3000E09E970F10A80EE2275C7AA75C7555327
:1021F300D8FD2275C7AA75C75543D801227E54DE80
:10220300FEDFFA2206050301020304050607080997
:1022130090001714EBF0A3EAF0A3E9F07B007A0037
:102223007922C003C002C00190001714E0FBA3E0B1
:10223300FAA3E02407F9E43AFA120008EE7B007AE5
:10224300007942C003C002C00190001714E0FBA351
:10225300E0FAA3E0240AF9E43AFA120008EE7B015B
:102263007A0E7958C003C002C00190001714E0FB36
:10227300A3E0FAA3E02416F9E43AFA120008EE9078
:10228300001714E0FBA3E0FAA3E02415F9E43AFAFB
:10229300E41200055690001714E0FBA3E0FAA3E054
:1022A3002413F9E43AFAE475F005120006B090003D
:1022B3001714E0FBA3E0FAA3E02411F9E43AFAE4EB
:1022C30075F020120006B07B817A1B79C47D0AE485
:1022D300FF1200D94590001714E0FBA3E0FAA3E036
:1022E3002413F9E43AFAE475F00A120006B09000F8
:1022F3001714E0FBA3E0FAA3E02415F9E43AFAE4A7
:102303001200055690001714E0FBA3E0FAA3E0F9CE
:10231300C003C002C001A3E0FBA3E0FAA3E02412C0
:10232300F9E43AFA120008D189828A838B93D001A7
:10233300D002D003120009ACEF700C7F03FE120031
:10234300E9CF50917FA02290001714E0FBA3E0FA9D
:10235300A3E0240FF9E43AFAE475F020120006B082
:10236300C203C201E490001728F0A3F090001714F1
:10237300E0FBA3E0FAA3E02407F9E43AFA12000829
:10238300D1E92403F9E43AFA120005249000171A5C
:10239300F090001714E0FBA3E0FAA3E02407F9E4AC
:1023A3003AFA120008D1E92404F9E43AFA120005D2
:1023B300249000171CF07B817A1B79E27D037F0157
:1023C3001200D9459000171AE0120009423D475503
:1023D3003EE8562C3CA139B8B12F64B2325DB43C0F
:1023E30069B6406DB72578C227A5C326FAC423F87A
:1023F300C50000414F90001714E0FBA3E0FAA3E0EF
:102403002407F9E43AFA120008D1E92404F9E43A7A
:10241300FA120005249000171CF020E0030124DFCA
:10242300E4FFFEFDFC900017307410F0A37401F07C
:1024330090001714E0FBA3E0FAA3E0240AF9E43ABE
:10244300FA120008D190001732EBF0A3EAF0A3E9E7
:10245300F01200D0709000171BEFF06003014134BD
:1024630090001714E0FBA3E0FAA3E0240AF9E43A8E
:10247300FA120008D1C003C002C00190001714E093
:10248300FBA3E0FAA3E02407F9E43AFA120008D127
:10249300E92406F9E43AA801FCAD03D001D002D047
:1024A300037E007F0412000B0F90001729E0240421
:1024B300F090001728E03400F090001714E0FBA31D
:1024C300E0FAA3E0240AF9E43AFA120008D1781EEC
:1024D3007C0C7D017E007F0412000B0F9000171C03
:1024E300E020E103012F5F1200EE3A90001714E0A1
:1024F300FBA3E0FAA3E0240AF9E43AFA120008D1B4
:102503001200681DEF64016003012A7E9000171416
:10251300E0FBA3E0FAA3E0240AF9E43AFA12000884
:10252300D1C003C002C00190001714E0FBA3E0FA7E
:10253300A3E02407F9E43AFA120008D1E92406F9E2
:10254300E43AFA90001728E0FEA3E029F9EA3EA84E
:1025530001FCAD03D001D002D0037E007F0712003F
:102563000B0F90001729E02407F090001728E034A0
:1025730000F0012F5F90001714E0FBA3E0FAA3E043
:102583002407F9E43AFA120008D1E92404F9E43AF9
:10259300FA12000524B4992490001714E0FBA3E079
:1025A300FAA3E02407F9E43AFA120008D1E9240572
:1025B300F9E43AFA1200052464086003013FFC9031
:1025C300001714E0FBA3E0FAA3E02407F9E43AFAC6
:1025D300120008D1E92406F9E43AFA781E7C0C7D4E
:1025E300017E007F0412000A7CEF6003013FFC9030
:1025F300001714E0FBA3E0FAA3E02407F9E43AFA96
:10260300120008D1E9240AF9E43AFAC003C002C06F
:102613000190001714E0FBA3E0FAA3E0240AF9E415
:102623003AFA120008D1A801AC02AD03D001D002DE
:10263300D0037E007F0412000B0F90001714E0FB01
:10264300A3E0FAA3E0240AF9E43AFA120008D1C09D
:1026530003C002C00190001714E0FBA3E0FAA3E05B
:10266300240AF9E43AFA120008D1E92404F9E43A15
:10267300FA900017C6EBF0A3EAF0A3E9F0D001D07B
:1026830002D0037D047C001200E432E4FFFEFDFC73
:10269300900017C57408F090001714E0FBA3E0FA4C
:1026A300A3E0240AF9E43AFA120008D1900017C60D
:1026B300EBF0A3EAF0A3E9F012006BAE9000171B56
:1026C300EFF06401600301413490001714E0FBA3B1
:1026D300E0FAA3E0240AF9E43AFA120008D1781EDA
:1026E3007C0C7D017E007F0412000B0F7B817A1B23
:1026F30079ED7D0101279290001714E0FBA3E0FA26
:10270300A3E02407F9E43AFA120008D1E92403F913
:10271300E43AFAC003C002C00190001714E0FBA31F
:10272300E0FAA3E0240AF9E43AFA120008D1A80176
:10273300AC02AD03D001D002D0037E007F0C1200A7
:102743000B0F1200AFC440187B817A1B79FC7D0309
:102753007F011200D9459000171B74A1F00141526B
:102763001200EE3A90001714E0FBA3E0FAA3E02472
:1027730007F9E43AFA120008D1E92406F9E43AFA2F
:1027830012007594EF60117B817A1C79097D037FB8
:10279300011200D9450132549000171B74FFF00158
:1027A30041521200AFC44003013D4D9000171CE09D
:1027B300FF64016008EF64026003013FFC900017AF
:1027C30014E0FBA3E0FAA3E02407F9E43AFA1200C9
:1027D30008D1E92405F9E43AFA1200052490001718
:1027E3001CF06008E064016003013FFC90001714D3
:1027F300E0FBA3E0FAA3E02407F9E43AFA120008A5
:10280300D1E92406F9E43AFA12000524FF7E009088
:10281300001728EEF0A3EFF0640E6003013A0AE418
:102823007F40FEFDFC900017A97418F09000171468
:10283300E0FBA3E0FAA3E0240AF9E43AFA12000861
:10284300D1900017AAEBF0A3EAF0A3E9F012007B02
:102853001D9000171BEFF0640160030141349000E9
:10286300171B7401F0D20290001714E0FBA3E0FAE7
:10287300A3E0240AF9E43AFA120008D1E92416F98C
:10288300E43AFA12000524645560030129629000BA
:102893001714E0FBA3E0FAA3E0240AF9E43AFA12DE
:1028A3000008D1E92417F9E43AFA1200052464AACE
:1028B300600301296290001714E0FBA3E0FAA3E090
:1028C3002407F9E43AFA120008D1E9240CF9E43AAE
:1028D300FAC003C002C00190001714E0FBA3E0FAA2
:1028E300A3E0240AF9E43AFA120008D1E92406F92C
:1028F300E43AA801FCAD03D001D002D0037E007FEF
:102903000812000A7CEF7002C20290001714E0FB69
:10291300A3E0FAA3E02407F9E43AFA120008D1E9A4
:102923002406F9E43AFAC003C002C0019000171468
:10293300E0FBA3E0FAA3E0240AF9E43AFA12000860
:10294300D1A801AC02AD03D001D002D0037E007F39
:102953000612000A7CC3EF648094804002C2022006
:102963000203012AB590001714E0FBA3E0FAA3E0E9
:102973002407F9E43AFA120008D1E92407F9E43A02
:10298300FAC003C002C00190001714E0FBA3E0FAF1
:10299300A3E0240AF9E43AFA120008D1A801AC0230
:1029A300AD03D001D002D0037E007F0E12000B0FC7
:1029B30090001714E0FBA3E0FAA3E0240AF9E43A39
:1029C300FA120008D1E92406F9E43AFAC003C00276
:1029D300C00190001714E0FBA3E0FAA3E0240AF976
:1029E300E43AFA120008D1E9240EF9E43AA801FC0A
:1029F300AD03D001D002D0037E007F0812000B0F7D
:102A030090001714E0FBA3E0FAA3E0240AF9E43AE8
:102A1300FA120008D1E92416F9E43AFA74551200BF
:102A2300055690001714E0FBA3E0FAA3E0240AF98B
:102A3300E43AFA120008D1E92417F9E43AFA74AA3D
:102A430012000556E47F40FEFDFC900017C5741884
:102A5300F090001714E0FBA3E0FAA3E0240AF9E4E2
:102A63003AFA120008D1900017C6EBF0A3EAF0A3DC
:102A7300E9F012006BAEEF640160079000171B01D1
:102A8300413490001714E0FBA3E0FAA3E0240AF911
:102A9300E43AFA120008D1E92406F9E43AFA78167E
:102AA3007C0C7D017E007F0812000B0FE490001761
:102AB3001BF09000171CE064016003012C2F7F10B2
:102AC300FEFDFC900017A9741AF090001714E0FBA8
:102AD300A3E0FAA3E0240AF9E43AFA120008D19039
:102AE3000017AAEBF0A3EAF0A3E9F012007B1DEFB5
:102AF300640160079000171B01413490001714E034
:102B0300FBA3E0FAA3E0240AF9E43AFA120008D19D
:102B1300C003C002C00190001714E0FBA3E0FAA3B6
:102B2300E0240AF9E43AFA120008D1E92406F9E4A8
:102B33003AA801FCAD03D001D002D0037E007F068A
:102B430012000B0F7E007F077D0090001714E0FB3F
:102B5300A3E0FAA3E0240AF9E43AFA120008D1E95F
:102B63002410F9E43AFA120009B390001714E0FBB9
:102B7300A3E0FAA3E0240AF9E43AFA120008D17DAB
:102B8300187C001200DCCE90001726EEF0A3EFF0C5
:102B930090001714E0FBA3E0FAA3E02407F9E43A5A
:102BA300FA120008D1E92418F9E43AFA1200EBEA20
:102BB300E47F10FEFDFC900017C5741AF090001717
:102BC30014E0FBA3E0FAA3E0240AF9E43AFA1200C2
:102BD30008D1900017C6EBF0A3EAF0A3E9F01200C6
:102BE3006BAEEF640160079000171B014134E47F73
:102BF300A0FEFDFC900017C5741AF090001714E0B6
:102C0300FBA3E0FAA3E0240AF9E43AFA120008D19C
:102C1300900017C6EBF0A3EAF0A3E9F012006BAE45
:102C2300EF640160079000171B014134E490001723
:102C330028F0A3F0D201014152C2027B017A0E793E
:102C430058C003C002C00190001714E0FBA3E0FAD0
:102C5300A3E02416F9E43AFA120008EE90001714E0
:102C6300E0FBA3E0FAA3E02419F9E43AFA7404754B
:102C7300F000120006B090001714E0FBA3E0FAA3E3
:102C8300E02407F9E43AFA120008D1E92404F9E44C
:102C93003AFA12000524FF7E0090001728EEF0A3F5
:102CA300EFF0900017147062E0FBA3E0FAA3E024B6
:102CB30007F9E43AFA120008D1E92405F9E43AFAEB
:102CC30012000524FF90001728EEF0A3EFF0D202C4
:102CD30090001714E0FBA3E0FAA3E02407F9E43A19
:102CE300FA120008D1E92407F9E43AFA1200D75F8F
:102CF3009000171D1200089990001729E02400FF87
:102D030090001728E03401FE802DE0FBA3E0FAA336
:102D1300E02407F9E43AFA120008D1E92406F9E4B9
:102D23003AFA1200D75F9000171D1200089990001D
:102D33001728E0FEA3E0FF90001714E0FBA3E0FADE
:102D4300A3E02419F9E43AFAEE8FF0120006B0E496
:102D5300FFFE7D08FC9000171DE0F8A3E0F9A3E057
:102D6300FAA3E0FBC31200080D504090001714E0D3
:102D7300FBA3E0FAA3E02419F9E43AFA12000636B9
:102D8300FFE4FCFD9000171DE0F8A3E0F9A3E0FACF
:102D9300A3E02FFFEA35F0FEED39FDEC38FCE4FB50
:102DA300FA7908F8D31200080D5003013FFC900094
:102DB300171DA3A3A3E0540FFFE4FEFDFCFBFAF9E8
:102DC300F8C31200080D6003013A0A90001714E0DB
:102DD300FBA3E0FAA3E02419F9E43AFA1200063659
:102DE300FBAAF0D39438EA940050689000171DE0D2
:102DF300FCA3E0FDA3E0FEA3E0FF900017A9EBF026
:102E030090001714E0FBA3E0FAA3E02407F9E43AE7
:102E1300FA120008D1E92406F9E43AFA900017AA55
:102E2300EBF0A3EAF0A3E9F012007B1DEF6401606D
:102E3300079000171B014134C20390001714E0FBF5
:102E4300A3E0FAA3E02415F9E43AFAE412000556E4
:102E5300012F3F90001714E0FBA3E0FAA3E0241531
:102E6300F9E43AFA740112000556D203E49000170C
:102E730026F0A3F090001714E0FBA3E0FAA3E024EC
:102E830019F9E43AFA12000636FFAEF0900017265D
:102E9300E0FCA3E0FDC39FEC9E4003012F3FC3EF83
:102EA3009DFFEE9CFEC3EF9440EE940040047F40F0
:102EB300800090001725EFF0A3E0FEA3E0FFE4FC01
:102EC300FD9000171DE0F8A3E0F9A3E0FAA3E02FBB
:102ED300FFEA3EFEED39FDEC38FC90001725E0904B
:102EE3000017A9F090001714E0FBA3E0FAA3E02475
:102EF30016F9E43AFA120008D190001726E0F8A375
:102F0300E029F9EA38FA900017AAEBF0A3EAF0A354
:102F1300E9F012007B1DEF640160099000171B7438
:102F2300B1F0801890001725E0FF90001727E02FDD
:102F3300F090001726E03400F0012E77900017146C
:102F4300E0FBA3E0FAA3E02419F9E43AFA1200063D
:102F530036FF90001728E5F0F0A3EFF0D20101321D
:102F6300541200AFC44003013D4DE47F60FEFDFCFD
:102F7300900017A97420F090001714E0FBA3E0FA67
:102F8300A3E0240AF9E43AFA120008D1900017AA40
:102F9300EBF0A3EAF0A3E9F012007B1DEF640160FC
:102FA300079000171B0141349000171CE0705690E6
:102FB300001714E0FBA3E0FAA3E02407F9E43AFACC
:102FC300120008D1E92406F9E43AFAC003C002C0AA
:102FD3000190001714E0FBA3E0FAA3E0240AF9E44C
:102FE3003AFA120008D1A801AC02AD03D001D00215
:102FF300D0037E007F0612000A7CC3EF64809480B6
:1030030040030132E390001714E0FBA3E0FAA3E0CE
:103013002407F9E43AFA120008D1E9240CF9E43A56
:10302300FA1200D75F9000171D120008997FA07E47
:10303300867D017C009000171DE0F8A3E0F9A3E072
:10304300FAA3E0FBD31200080D4003013A0A9000F3
:103053001714E0FBA3E0FAA3E02407F9E43AFA1219
:103063000008D1E9240FF9E43AFA12000524D394B5
:10307300604003013A0A90001714E0FBA3E0FAA3AF
:10308300E02407F9E43AFA120008D1E92410F9E43C
:103093003AFA1200EDF490001726EEF0A3EFF0E4F5
:1030A300FCFD7B407A7E7905F8C3120007F74010D8
:1030B30090001727E0943C90001726E094005003FB
:1030C300013A0A7E007F207DFF90001714E0FBA3E6
:1030D300E0FAA3E0240AF9E43AFA120008D1120054
:1030E30009B390001714E0FBA3E0FAA3E02407F967
:1030F300E43AFA120008D1E92406F9E43AFAC003E3
:10310300C002C00190001714E0FBA3E0FAA3E0247F
:103113000AF9E43AFA120008D1A801AC02AD03D0CF
:1031230001D002D0037E007F0C12000B0F9000171A
:1031330014E0FBA3E0FAA3E0240AF9E43AFA12004C
:1031430008D17D1E7C001200DCCE90001726EEF025
:10315300A3EFF090001714E0FBA3E0FAA3E0240A26
:10316300F9E43AFA120008D1E9241EF9E43AFA1212
:1031730000EBEAE47F60FEFDFC900017C57420F0CD
:1031830090001714E0FBA3E0FAA3E0240AF9E43A61
:10319300FA120008D1900017C6EBF0A3EAF0A3E9F6
:1031A300F012006BAEEF640160079000171B014142
:1031B3003490001714E0FBA3E0FAA3E02407F9E43A
:1031C3003AFA120008D1E92406F9E43AFA78307C95
:1031D3000C7D017E007F0612000B0F90001714E098
:1031E300FBA3E0FAA3E02407F9E43AFA120008D1BA
:1031F300E9240CF9E43AFA1200D75F90000C361276
:1032030000089990001714E0FBA3E0FAA3E0240759
:10321300F9E43AFA120008D1E9240FF9E43AFA1270
:1032230000052490000C3CF090001714E0FBA3E091
:10323300FAA3E02407F9E43AFA120008D1E92410CA
:10324300F9E43AFA1200EDF490000C3AEEF0A3EF31
:10325300F0E49000171BF00141521200AFC4401973
:1032630090001714E0FBA3E0FAA3E02415F9E43A75
:10327300FAE41200055601407390001714E0FBA313
:10328300E0FAA3E02415F9E43AFAE4120005567FC4
:10329300807E0D7D03FC9000171D1200089990009D
:1032A300171CE06499604390000C49E0603C900077
:1032B3001714E0FBA3E0FAA3E02407F9E43AFA12B7
:1032C3000008D1E92407F9E43AFA784A7C0C7D0135
:1032D3007E007F0612000A7CC3EF64809480400A5C
:1032E3009000171B7401F00141529000172A7402D9
:1032F300F0A3E4F090001714E0FBA3E0FAA3E024AA
:1033030007F9E43AFA120008D1E92405F9E43AFA94
:10331300120005249000171CF0640160030134942B
:1033230090001714E0FBA3E0FAA3E02407F9E43AC2
:10333300FA120008D1E92406F9E43AFAC003C002FC
:10334300C00190001714E0FBA3E0FAA3E02416F9F0
:10335300E43AFA120008D19000172AE0FEA3E0290C
:10336300F9EA3EA801FCAD03D001D002D0037E00F0
:103373007F0612000B0F9000172BE02406F090003D
:10338300172AE03400F090001714E0FBA3E0FAA33F
:10339300E02416F9E43AFA120008D19000172AE45F
:1033A30075F00112000620FEE925F0F9EA3EFA74F1
:1033B300551200055690001714E0FBA3E0FAA3E0B2
:1033C3002416F9E43AFA120008D19000172AE4759A
:1033D300F00112000620FEE925F0F9EA3EFA74AA8C
:1033E3001200055690001714E0FBA3E0FAA3E024B3
:1033F30007F9E43AFA120008D1E9240CF9E43AFA9D
:10340300C003C002C00190001714E0FBA3E0FAA3BD
:10341300E02416F9E43AFA120008D19000172AE0E2
:10342300FEA3E029F9EA3EA801FCAD03D001D002D6
:10343300D0037E007F2012000B0F9000172BE02497
:1034430020F09000172AE03400F090001714E0FBFE
:10345300A3E0FAA3E02416F9E43AFA120008D190A3
:1034630000172AE0FEA3E029F9EA3EA801FCAD0318
:103473007B017A0C79707E017F0012000B0F9000A4
:10348300172BE02400F09000172AE03401F00137F5
:10349300B29000171CE064026003013670900017BD
:1034A30014E0FBA3E0FAA3E02407F9E43AFA1200DC
:1034B30008D1E92407F9E43AFAC003C002C0019035
:1034C300001714E0FBA3E0FAA3E02416F9E43AFAA8
:1034D300120008D19000172AE0FEA3E029F9EA3E82
:1034E300A801FCAD03D001D002D0037E007F0612F9
:1034F300000B0F9000172BE02406F09000172AE032
:103503003400F090001714E0FBA3E0FAA3E02416C4
:10351300F9E43AFA120008D19000172AE475F00191
:1035230012000620FEE925F0F9EA3EFA745512006E
:10353300055690001714E0FBA3E0FAA3E02416F964
:10354300E43AFA120008D19000172AE475F0011248
:10355300000620FEE925F0F9EA3EFA74AA120005F6
:103563005690001714E0FBA3E0FAA3E02416F9E455
:103573003AFA120008D19000172AE0FEA3E029F9D5
:10358300EA3EA801FCAD037B017A0C79507E007FF3
:103593002012000B0F9000172BE02420F09000174F
:1035A3002AE03400F090001714E0FBA3E0FAA3E054
:1035B3002407F9E43AFA120008D1E9240DF9E43AB0
:1035C300FAC003C002C00190001714E0FBA3E0FAA5
:1035D300A3E02416F9E43AFA120008D19000172A5E
:1035E300E0FEA3E029F9EA3EA801FCAD03D001D037
:1035F30002D0037E007F3312000B0F9000172BE0E5
:103603002433F09000172AE03400F090001714E000
:10361300FBA3E0FAA3E02416F9E43AFA120008D176
:10362300C003C002C00190001714E0FBA3E0FAA39B
:10363300E02416F9E43AFA120008D19000172AE0C0
:10364300FEA3E029F9EA3EA801FCAD03D001D002B4
:10365300D0037E007FCD12000B0F9000172BE024C8
:10366300CDF09000172AE03400F00137B290001734
:103673001CE0640360030137AF90001714E0FBA361
:10368300E0FAA3E02416F9E43AFA120008D1E92497
:1036930004F9E43AFAC003C002C00190001714E031
:1036A300FBA3E0FAA3E02416F9E43AFA120008D1E6
:1036B3009000172AE0FEA3E029F9EA3EA801FCAD39
:1036C30003D001D002D0037E007F0612000B0F90BF
:1036D30000172BE02406F09000172AE03400F09046
:1036E300001714E0FBA3E0FAA3E02416F9E43AFA86
:1036F300120008D19000172AE475F0011200062089
:10370300FEE925F0F9EA3EFA7455120005569000D9
:103713001714E0FBA3E0FAA3E02416F9E43AFA1243
:103723000008D19000172AE475F00112000620FE6C
:10373300E925F0F9EA3EFA74AA120005569000173B
:1037430014E0FBA3E0FAA3E02416F9E43AFA12002A
:1037530008D1E9240AF9E43AFAC003C002C001908F
:10376300001714E0FBA3E0FAA3E02416F9E43AFA05
:10377300120008D19000172AE0FEA3E029F9EA3EDF
:10378300A801FCAD03D001D002D0037E017F20123B
:10379300000B0F9000172BE02420F09000172AE075
:1037A3003401F090000C497401F08003013FFC9058
:1037B3000017287401F0A37428F090001714E0FB9D
:1037C300A3E0FAA3E02416F9E43AFA120008D1E4DC
:1037D30029F9EA3402FA7D287C011200DCCE90003C
:1037E3001726EEF0A3EFF090001714E0FBA3E0FA26
:1037F300A3E02416F9E43AFA120008D1E429F9EA1D
:103803003402FA90001728E0FCA3E029F9EA3CFA15
:103813001200EBEA90001729E02402F09000172829
:10382300E03400F0E490001726F0A3F0900017288E
:10383300E0FEA3E0FF90001726E0FCA3E0FDC39F9A
:10384300EC9E40030138F2C390001729E09DFF90DE
:10385300001728E09CFEC3EF9440EE940040047FE1
:1038630040800090001725EFF0A3E0FEA3E0FFE403
:10387300FCFD9000171DE0F8A3E0F9A3E0FAA3E034
:103883002FFFEA3EFEED39FDEC38FC90001725E0F2
:10389300900017C5F090001714E0FBA3E0FAA3E033
:1038A3002416F9E43AFA120008D1E429F9EA3402B9
:1038B300FA90001726E0F8A3E029F9EA38FA900015
:1038C30017C6EBF0A3EAF0A3E9F012006BAEEF64C6
:1038D3000160099000171B74B1F080139000172743
:1038E300E02440F090001726E03400F001382F90D8
:1038F30000172A7402F0A3E4F090001714E0FBA36E
:10390300E0FAA3E02416F9E43AFA120008D1E42914
:10391300F9EA3402FA784A7C0C7D017E007F0612B4
:10392300000B0F9000172BE02408F09000172AE0FB
:103933003400F090001714E0FBA3E0FAA3E0241690
:10394300F9E43AFA120008D19000172AE0FEA3E046
:1039530029F9EA3EFA78507C0C7D017E007F201223
:10396300000B0F9000172BE02420F09000172AE0A3
:103973003400F090001714E0FBA3E0FAA3E0241650
:10398300F9E43AFA120008D19000172AE0FEA3E006
:1039930029F9EA3EFA78707C0C7D017E017F0012E2
:1039A300000B0FE490001728F0A3F09000171BF012
:1039B300C2010141529000171CE0B4552490001736
:1039C30014E0FBA3E0FAA3E02407F9E43AFA1200B7
:1039D30008D1E92405F9E43AFA1200052464AA603F
:1039E30002802490001714E0FBA3E0FAA3E024076D
:1039F300F9E43AFA120008D1E92406F9E43AFA1292
:103A03000005246406600A9000171B74A4F00141AA
:103A1300527E007F027D0090001714E0FBA3E0FAC2
:103A2300A3E0240AF9E43AFA120008D1120009B318
:103A33007FC07E0E7D037C0090001714E0FBA3E0A3
:103A4300FAA3E0240AF9E43AFA120008D11200E1D9
:103A53004C90001714E0FBA3E0FAA3E0240AF9E476
:103A63003AFA120008D1C003C002C0019000171433
:103A7300E0FBA3E0FAA3E0240AF9E43AFA1200080F
:103A8300D1E92403F9E43AFA900017C6EBF0A3EA6C
:103A9300F0A3E9F0D001D002D0037D037C00120033
:103AA300E432E4FFFEFDFC90001714E0FBA3E0FA10
:103AB300A3E0240AF9E43AFA120008D1E92406F94A
:103AC300E43AFA1200E14C90001714E0FBA3E0FA89
:103AD300A3E0240AF9E43AFA120008D1E92406F92A
:103AE300E43AFAC003C002C00190001714E0FBA33C
:103AF300E0FAA3E0240AF9E43AFA120008D1E9242F
:103B030009F9E43AFA900017C6EBF0A3EAF0A3E947
:103B1300F0D001D002D0037D037C001200E4329088
:103B2300000C2BE0FCA3E0FDA3E0FEA3E0FF90006C
:103B33001714E0FBA3E0FAA3E0240AF9E43AFA122B
:103B43000008D1E9240CF9E43AFA1200D9E2900012
:103B53001714E0FBA3E0FAA3E0240AF9E43AFA120B
:103B63000008D1E92417F9E43AFA74FF1200055664
:103B730090001714E0FBA3E0FAA3E0240AF9E43A67
:103B8300FA120008D17D187C001200DCCE900017D9
:103B930026EEF0A3EFF090001714E0FBA3E0FAA3E6
:103BA300E0240AF9E43AFA120008D1E92418F9E406
:103BB3003AFA1200EBEAE47F10FEFDFC900017C511
:103BC300741AF090001714E0FBA3E0FAA3E0240AB0
:103BD300F9E43AFA120008D1900017C6EBF0A3EA11
:103BE300F0A3E9F012006BAEEF64016007900017D9
:103BF3001B014134E47FA0FEFDFC900017C5741A3D
:103C0300F090001714E0FBA3E0FAA3E0240AF9E420
:103C13003AFA120008D1900017C6EBF0A3EAF0A31A
:103C2300E9F012006BAEEF640160079000171B010F
:103C33004134E4FFFEFDFC90000C27120008997F3D
:103C4300C07E0E7D037C0090000C2312000899E4D3
:103C5300FFFEFDFC90000C411200089990000C221D
:103C630074FFF0013D3E90001714E0FBA3E0FAA3BC
:103C7300E02407F9E43AFA120008D1E92405F9E44B
:103C83003AFA12000524FF7E0090001728EEF0A3F5
:103C9300EFF0D39410EE94004003013FFC90001723
:103CA30014E0FBA3E0FAA3E02407F9E43AFA1200D4
:103CB30008D190001729E02406FF90001728E0346C
:103CC30000FEE92FF9EA3EFAE4120005567FD0FE22
:103CD300FDFC900017C57410F090001714E0FBA3CF
:103CE300E0FAA3E02407F9E43AFA120008D1E92440
:103CF30006F9E43AFA900017C6EBF0A3EAF0A3E959
:103D0300F012006BAEEF640160079000171B0141D6
:103D13003490001714E0FBA3E0FAA3E02407F9E4CE
:103D23003AFA120008D1E92406F9E43AFA78B77CA2
:103D33000D7D017E007F1012000B0FE49000171B16
:103D4300F00141461200AFC44003014073E4FFFE9B
:103D5300FDFC9000171D120008999000171CE070DD
:103D6300471200BBBAEF4E700A9000171B745DF048
:103D7300014152E4FFFEFDFC90000C27E0F8A3E0B4
:103D8300F9A3E0FAA3E0FBC31200080D70097FC09A
:103D93007E0E7D03FC807C90000C27E0FCA3E0FDFD
:103DA300A3E0FEA3E0FF806B9000171CE0640170AA
:103DB3006C90001714E0FBA3E0FAA3E02407F9E4F6
:103DC3003AFA120008D1E92405F9E43AFA12000597
:103DD3002464046003013FFC90001714E0FBA3E09C
:103DE300FAA3E02407F9E43AFA120008D1E9240619
:103DF300F9E43AFA1200C4FF90001721120008995F
:103E030090001721E0FCA3E0FDA3E0FEA3E0FF1276
:103E13000099319000171D120008998003013FFC9F
:103E2300E4FFFEFDFC9000171DE0F8A3E0F9A3E01A
:103E3300FAA3E0FBC31200080D60197FC07E0E7D5C
:103E4300037C009000171DE0F8A3A3A3E0C31200B6
:103E5300080D5003013FFC9000171DE0FCA3E0FD9B
:103E6300A3E0FEA3E0FF900017A97440F0900017B1
:103E730014E0FBA3E0FAA3E02416F9E43AFA1200F3
:103E830008D1900017AAEBF0A3EAF0A3E9F012001F
:103E93007B1DEF640160079000171B014134900004
:103EA3001714E0FBA3E0FAA3E02415F9E43AFA744B
:103EB300011200055690001714E0FBA3E0FAA3E0FB
:103EC3002419F9E43AFAE475F040120006B09000C0
:103ED3001728E4F0A37440F0E49000171BF0D2011C
:103EE300D2030141529000171CE064016003013FBB
:103EF300FC90001714E0FBA3E0FAA3E02407F9E425
:103F03003AFA120008D1E92405F9E43AFA12000555
:103F13002464046003013FFC90001714E0FBA3E05A
:103F2300FAA3E02407F9E43AFA120008D1E92406D7
:103F3300F9E43AFA1200C4FF90001721120008991D
:103F430090001721E0FCA3E0FDA3E0FEA3E0FF1235
:103F53000099319000171D12000899E4FFFEFDFC43
:103F63009000171DE0F8A3E0F9A3E0FAA3E0FBC378
:103F73001200080D60197FC07E0E7D037C00900047
:103F8300171DE0F8A3A3A3E0C31200080D5002809D
:103F9300689000171DE0FCA3E0FDA3E0FEA3E0FF93
:103FA30090000C27E0F8A3E0F9A3E0FAA3E0FBC339
:103FB3001200080D60030140539000171DE0FCA39D
:103FC300E0FDA3E0FEA3E0FF900017A97440F0908A
:103FD300001714E0FBA3E0FAA3E02416F9E43AFA8D
:103FE300120008D1900017AAEBF0A3EAF0A3E9F0BE
:103FF30012007B1DEF6401600A9000171B745CF0D4
:1040030001415290001714E0FBA3E0FAA3E0241649
:10401300F9E43AFA120008D1E92405F9E43AFA126C
:1040230000C4FF9000171D1200089990001721E0AB
:10403300FCA3E0FDA3E0FEA3E0FF9000171DE0F862
:10404300A3E0F9A3E0FAA3E0FBC31200080D600AA2
:104053009000171B745EF0014152120080399000EA
:10406300171BEFF0D201E40141461200AFC4400A2E
:104073009000171B74A5F00141521200EE3A900014
:104083001714E0FBA3E0FAA3E0240AF9E43AFA12D6
:104093000008D11200681D90001714E0FBA3E0FA9A
:1040A300A3E0240AF9E43AFA120008D1E92401F959
:1040B300E43AFAC003C002C00190001714E0FBA366
:1040C300E0FAA3E0240AF9E43AFA120008D1E92459
:1040D30004F9E43AFA900017C6EBF0A3EAF0A3E977
:1040E300F0D001D002D0037D037C001200E432E45F
:1040F3007F80FEFDFC900017C57406F09000171436
:10410300E0FBA3E0FAA3E0240AF9E43AFA12000878
:10411300D1E92401F9E43AFA900017C6EBF0A3EAD7
:10412300F0A3E9F012006BAEEF6401600990001791
:104133001B74B1F08019E490000C3DF09000171B44
:10414300F0C20190001728F0A3F080037FA3229010
:1041530000171AE0FF90001714E0FBA3E0FAA3E0B6
:104163002407F9E43AFA120008D1E92403F9E43AFE
:10417300FAEF120005569000171BE0FF900017148A
:10418300E0FBA3E0FAA3E02407F9E43AFA120008FB
:10419300D1E92404F9E43AFAEF1200055620035B4F
:1041A30090001714E0FBA3E0FAA3E02407F9E43A34
:1041B300FA120008D190001728A3E0FDA20192048F
:1041C3001200A1A490001725EFF090001714E0FB54
:1041D300A3E0FAA3E0240DF9E43AFAE4F5F01200BF
:1041E30006B090001714E0FBA3E0FAA3E0F9C003C4
:1041F300C002C001EFFD7C00A3803E90001714E0D5
:10420300FBA3E0FAA3E0F990001728E0FCA3E0FD8C
:10421300A201920412008745504090001714E0FB5E
:10422300A3E0FAA3E0F9C003C002C001900017287D
:10423300E0FCA3E0FD90001717E0FBA3E0FAA3E086
:104243002406F9E43AFA120008D189828A838B930F
:10425300D001D002D003120009AC7B817A1C793DD6
:104263007D0A7F011200D9457B817A1C79487D0143
:104273007F011200D9457F017E001200EDC80122A3
:10428300D8900017C9EFF0A3EDF0A3EBF0A3EAF089
:10429300A3E9F0E4900017CFF0A3F0900017D2F059
:1042A300900017D9F0A3F0A3F0A304F0A3F0E4A3C4
:1042B300F0A3F0A3F0A3F0A3F0F514F513F512F5B2
:1042C300111200ED8E900017CBE0FBA3E0FAA3E000
:1042D300F9120021D6900017D1EFF0900017CEE02D
:1042E3006009900017E374FFF08006E4900017E381
:1042F300F0900017C9E025E0900017D0F0A3E0F993
:10430300FD900017CAE0FE2DFDE433FCC3ED9410CD
:10431300EC648094804003014406EEC39408404259
:10432300E4900017D9F0900017CAE09408900017A2
:10433300DAF0E4900017D3F0900017D5E9F0E0FF2E
:10434300C313FEA3F0E4900017D4F0900017E2EE3D
:10435300F0EF5401900017D8F0E4900017D7F00164
:1043630044B5900017CAE0FF900017D9F0900017EA
:10437300D1E0FEFDEF2DFDE433FCC3ED9408EC64C6
:104383008094805009900017D3EEF0E480179000DA
:1043930017CAE0FFC374089FFF900017D3F0900083
:1043A30017D1E0C39F900017D5F0E4900017DAF01F
:1043B300900017D3E0FFC313A3F0900017E1F0EFD1
:1043C3005401900017D7F0900017D5E0FFC313A353
:1043D300F0900017E2F0EF5401900017D8F070034B
:1043E3000144B5900017D7E070030144B59000175E
:1043F300DAE004F0900017D6E004F0E0900017E252
:104403000144AD900017CAE0C394084042E4900011
:1044130017D7F0900017CAE0FF74109F900017D5CC
:10442300F0E4900017D3F0A3F0900017D9F0C3EF96
:104433009408A3F0900017D5E0FFC313A3F09000F6
:1044430017E2F0EF5401900017D8F06065805C909C
:104453000017CAE0FFC374089F900017D3F09000C1
:1044630017D57408F0900017D9EFF0E4A3F090008B
:1044730017D3E0FFC313A3F0900017E1F0EF54014B
:10448300FF900017D7F0900017D5E0FEC313A3F0F9
:10449300900017E2F074085401900017D8F0EF6011
:1044A300117401F0900017DAE004F0900017DE7445
:1044B30001F0E4900017D2F0900017D1E0FFA3E0E1
:1044C300C39F400301498C120021F6E4900017DBDF
:1044D300F0900017D2E0FD9000180A7401F0A37465
:1044E30018F0A37404F0900017CBE0FBA3E0FAA349
:1044F300E0F91200CFADEF6402600301498290003E
:104503001804E0FEA3E0FF1200DBAB8F148E138DC3
:10451300128C117F407E047D047C00AB14AA13A986
:1045230012A811C31200080D505BE4F51575BE0106
:10453300E42514FBE43513FAE5123430F9E43511BC
:10454300F8E4FCFDFEEB2515FFEE3AFEED39FDEC3C
:1045530038FCE42FFFE43EFEED3401FDA907AA0673
:10456300AB0512000524F516E4F5BE74E42515F534
:1045730082E43417F583759300E516F00515E51508
:10458300B420AA80107E007F207DFF7B017A1779FB
:10459300E4120009B3900017D4E0D3940050030150
:1045A30046C7900017E1E0FF900017DFE09F40034C
:1045B3000146C7900017D0E044B8FB7D01E4FF1229
:1045C300001F55900017DCE0600B900017D9E075D1
:1045D300F008A48013900017DFE0C454F0FF9000AC
:1045E30017D9E075F008A42F4440FB7D01E4FF12C6
:1045F300001F55E4900017CFF0900017CFE0FFC3E2
:104603009410502874E42FF582E43417F5837593DE
:1046130000E0FF900017E3E0FEEF6EFBE4FDFF1206
:10462300001F55900017CFE004F080CD900017D005
:10463300E00444B8FB7D01E4FF12001F559000170E
:10464300DCE0600B900017D9E075F008A4801390AC
:104653000017DFE0C454F0FF900017D9E075F008AD
:10466300A42F4440FB7D01E4FF12001F5590001767
:10467300CF7410F0900017CFE0FFC394205028743C
:10468300E42FF582E43417F583759300E0FF90007F
:1046930017E3E0FEEF6EFBE4FDFF12001F559000F1
:1046A30017CFE004F080CDE4900017DCF090001702
:1046B300D4E014F0E07006900017DB04F0900017CC
:1046C300DFE004F0900017D4E0600301498290001A
:1046D30017D6E0D394005003014982900017DBE022
:1046E30064017003014982900017E2E0FF90001714
:1046F300E0E09F4003014982900017D8E070030176
:104703004865900017D7E07003014865900017D003
:10471300E044B8FB7D01E4FF12001F557B787D0167
:10472300E4FF12001F55E4900017CFF0900017CF5D
:10473300E0FFC39408502874E42FF582E43417F59E
:1047430083759300E0FF900017E3E0FEEF6EFBE458
:10475300FDFF12001F55900017CFE004F080CD90AD
:104763000017D0E00444B8FB7D01E4FF12001F559D
:104773007B787D01E4FF12001F55900017CF741062
:10478300F0900017CFE0FFC39418502874E42FF57E
:1047930082E43417F583759300E0FF900017E3E09C
:1047A300FEEF6EFBE4FDFF12001F55900017CFE0F4
:1047B30004F080CD900017D0E044B8FB7D017F0169
:1047C30012001F557B407D017F0112001F55900091
:1047D30017CF7408F0900017CFE0FFC3941050294F
:1047E30074E42FF582E43417F583759300E0FF90AA
:1047F3000017E3E0FEEF6EFBE4FD7F0112001F559F
:10480300900017CFE004F080CC900017D0E0044470
:10481300B8FB7D017F0112001F557B407D017F01A5
:1048230012001F55900017CF7418F0900017CFE0B7
:10483300FFC39420400301496B74E42FF582E434F1
:1048430017F583759300E0FF900017E3E0FEEF6E2A
:10485300FBE4FD7F0112001F55900017CFE004F029
:1048630080C9900017D0E044B8FB7D017F0112009E
:104873001F55900017DDE0600FA3E0600B90001759
:10488300DAE075F008A48013900017E0E0C454F058
:10489300FF900017DAE075F008A42F4440FB7D0178
:1048A3007F0112001F55E4900017CFF0120021F68C
:1048B300900017CFE024E4F582E43417F583759371
:1048C30000E0FF900017E3E0FEEF6EFBE4FD7F01E5
:1048D30012001F55900017CFE004F0E0C39410407E
:1048E300CB900017D0E00444B8FB7D017F01120098
:1048F3001F55900017DDE0600FA3E0600B900017D9
:10490300DAE075F008A48013900017E0E0C454F0D7
:10491300FF900017DAE075F008A42F4440FB7D01F7
:104923007F0112001F55900017CF7410F0900017ED
:10493300CFE0FFC39420502974E42FF582E43417A9
:10494300F583759300E0FF900017E3E0FEEF6EFB45
:10495300E4FD7F0112001F55900017CFE004F080A3
:10496300CC900017E0E004F0E4900017D8F090003A
:1049730017D7F0900017DDF0900017D6E014F090F1
:104983000017D2E004F00144BBE4FF0200ED939072
:1049930000174DEBF0A3EAF0A3E9F0900017A4741D
:1049A3001AF07E007F407D007B017A177958120050
:1049B30009B37E007F027D007B017A17799812008C
:1049C30009B3900017A27401F0E47F10FEFDFC9080
:1049D3000017A4E0900017A9F0A37401F0A37417C3
:1049E300F0A37458F012007B1D7E0090001750EE68
:1049F300F0A3EFF070037FB1227B017A177958900F
:104A03000017A4E0C39402FD7C001200DCCE9000EA
:104A13001752EEF0A3EFF07B017A1779981200EBAF
:104A2300EA78987C177D017B017A1779707E007F85
:104A33000212000A7CEF6003014AEA900017A1F01A
:104A4300900017A1E0FF245BF582E43417F583752A
:104A53009300E0F4FE74582FF582E43417F5837560
:104A63009300E0B50631900017A1E0FF2461F582C1
:104A7300E43417F583759300E0F4FE745E2FF5823A
:104A8300E43417F583759300E0B5060B900017A186
:104A9300E004F0E0B403A978777C0D7D017B017A13
:104AA3001779587E007F4012000B0FE4900017A285
:104AB300F090000C2FE0702F7FA0FEFDFC900017FC
:104AC300A4E0900017C5F0A37401F0A37417F0A33A
:104AD3007458F012006BAE7E0090001750EEF0A3F6
:104AE300EFF070037FB122900017A2E0640160032E
:104AF300014BF6FE7F40FD7B017A177958120009BE
:104B0300B3E47FA0FEFDFC900017A4E0900017A97A
:104B1300F0A37401F0A37417F0A37458F012007B90
:104B23001D7E0090001750EEF0A3EFF070037FB1ED
:104B3300227E007F027D007B017A1779981200099B
:104B4300B37B017A1779587D187C001200DCCE9074
:104B5300001752EEF0A3EFF07B017A177998120059
:104B6300EBEA78987C177D017B017A1779707E00D8
:104B73007F0212000A7CEF60037F5C22E49000173F
:104B8300A1F0900017A1E0FF245BF582E43417F550
:104B930083759300E0F4FE74582FF582E43417F51F
:104BA30083759300E06E60037F5C22900017A1E0A1
:104BB300FF2461F582E43417F583759300E0F4FE76
:104BC300745E2FF582E43417F583759300E06E600D
:104BD300037F5C22900017A1E004F0E0B403A37804
:104BE300777C0D7D017B017A1779587E007F401217
:104BF300000B0F7B017A1779641200C4FF90001732
:104C03004DE0FBA3E0FAA3E02405F9E43AFA12002D
:104C130008611200084490000C2B120008997B01D4
:104C23007A1779581200D75F90000C231200089965
:104C33007B017A17795E1200D75F90000C27120070
:104C430008999000176FE090000C22F0900017A3D2
:104C5300F01200EBBA50037F0D22E4FFFEFDFC903F
:104C6300000C27E0F8A3E0F9A3E0FAA3E0FBC312EA
:104C730000080D703E7FC07E0E7D03FC90000C2764
:104C8300120008997FC07E0E7D037C007B017A179A
:104C9300795E1200E14C900017C67401F0A37417FB
:104CA300F0A37461F07B017A17795E7D037C0012B7
:104CB30000E43290000C23E0FCA3E0FDA3E0FEA39C
:104CC300E02440FFE43EFEE43DFDE43CFC9000179D
:104CD3005412000899E4FFFE7D08FC90001754E08D
:104CE300F8A3E0F9A3E0FAA3E0FBC31200080D4028
:104CF300167FC07E0E7D037C0090001754120008BF
:104D030099E4900017A3F090001754E0FCA3E0FD92
:104D1300A3E0FEA3E0FF7B017A1779581200E14C70
:104D2300900017C67401F0A37417F0A3745BF07BB3
:104D3300017A1779587D037C001200E4327B017AF3
:104D43001779681200C4FF90000C4112000899788B
:104D53009A7C177D017B017A17796C7E007F0312A1
:104D6300000B0F78717C0D7D017B017A17799A7E98
:104D7300007F0312000A7CD3EF64809480406E7836
:104D83006C7C177D017B017A0D79717E007F0312A4
:104D9300000B0F90000C41E0FCA3E0FDA3E0FEA399
:104DA300E0FF1200E0D690001750EEF0A3EFF04EB4
:104DB300600890001750A3E0FF229000174DE0FB1E
:104DC300A3E0FAA3E02411F9E43AFA1200084490AC
:104DD300000C4112000899786C7C177D017B017AE5
:104DE3000D79717E007F0312000B0F803890000C49
:104DF30041E0FCA3E0FDA3E0FEA3E0FF9000174D1C
:104E0300E0FBA3E0FAA3E02411F9E43AFA12000864
:104E13007CEF2BFFEE3AFEED39FDEC38FC90000CF5
:104E23004112000899783E7C0C7D017B017A177949
:104E33006C7E007F0312000B0F90000C41E0FCA37B
:104E4300E0FDA3E0FEA3E0FF7B017A17796812007F
:104E5300D9E29000174DE0FBA3E0FAA3E02405F9A3
:104E6300E43AFA12000844EF2401FFE43EFEE43D75
:104E7300FDE43CFC7B017A1779641200D9E29000CF
:104E830017A3E09000176FF07B017A1779587D180C
:104E93007C001200DCCE90001752EEF0A3EFF07B03
:104EA300017A1779701200EBEAE47F10FEFDFC90A3
:104EB3000017A4E0900017C5F0A37401F0A37417C2
:104EC300F0A37458F012006BAE7E0090001750EE02
:104ED300F0A3EFF064017002FF22900017A3E090AB
:104EE300000C22F07FB12290001764EBF0A3EAF0EC
:104EF300A3E9F0786E7C177D017B817A1A79837E32
:104F0300007F0B12000B0F78797C177D017B817A70
:104F13001A798E7E007F0B12000B0F7B017A0E79BC
:104F2300207D051200C7AE9000176AEFF06003E022
:104F3300FF229000176C7414F07B007A0079227DB5
:104F430001FF1200E7FC9000176AEFF06003E0FF37
:104F5300229000176CE004FF7B007A0079327D0118
:104F63001200E7FC9000176AEFF06003E0FF227B7A
:104F7300007A0079227D0F1200E1C692037B007A4A
:104F83000079327D0F1200E1C6920430030301530E
:104F930032300403015332E522D39400500301510C
:104FA30000746E2522F582E43417F583759300E0CF
:104FB300FF90001764E0FBA3E0FAA3E02401F9E407
:104FC3003AFAEF1200055612000524FD25E025E00C
:104FD300FF74792522F582E43417F583759300E095
:104FE3002F9000176DF07B017A0E79201200C7AE67
:104FF3009000176AEFF06003E0FF229000176DE066
:10500300FF7B007A0079427D011200E7FC900017D4
:105013006AEFF06003E0FF229000176B7420F02426
:1050230022F9E4FAFBC003C002C00190001767E055
:10503300FBA3E0FAA3E02420F9E43AA801FCAD03C2
:10504300D001D002D0037E007F0412000B0F90002A
:10505300176BE02404F0E02422F9E4FAFBC003C058
:1050630002C00190001767E0FBA3E0FAA3E0242449
:10507300F9E43AA801FCAD03D001D002D0037E00CD
:105083007F0412000B0F9000176BE02404F0E02460
:1050930022F9E4FAFB1200C4FF90001767E0FBA3B8
:1050A300E0FAA3E02428F9E43AFA12000861900038
:1050B300176BE02404F0E02422F9E4FAFB1200D792
:1050C3005F90001767E0FBA3E0FAA3E0242CF9E468
:1050D3003AFA120008619000176BE02403F0E02411
:1050E30022F8E6FFE4FCFDFE90001767E0FBA3E077
:1050F300FAA3E02430F9E43AFA1200086178227C3A
:10510300007D007B007A0079327E007F1012000A56
:105113007CEF60030152E5E5220490000E56F0D3C4
:10512300940A40037401F090000E56E0F522246EB9
:10513300F582E43417F583759300E0FF900017645C
:10514300E0FBA3E0FAA3E02402F9E43AFAEF120049
:1051530005561200052425E025E0FF90000E56E0D9
:105163002479F582E43417F583759300E02FFF90DB
:10517300001764E0FBA3E0FAA3E02403F9E43AFA9E
:10518300EF1200055690001767E0FBA3E0FAA3E0D7
:10519300F91200B73F50037F5A2290001764E0FBD7
:1051A300A3E0FAA3E02402F9E43AFA12000524FD8D
:1051B3007B017A0E79201200C7AE9000176AEFF0D8
:1051C3006003E0FF229000176B7420F02422F9E4BF
:1051D300A801FCFD7B017A0C791EFE7F0412000BF3
:1051E3000F9000176BE02404F0E02422F9E4A801F7
:1051F300FCFD7B017A0D7973FE7F0412000B0F9087
:1052030000176BE02404F090001767E0FBA3E0FABB
:10521300A3E0240DF9E43AFA120008449000176B56
:10522300E02422F9E4FAFB1200D9E29000176BE0C4
:105233002404F090001767E0FBA3E0FAA3E0241135
:10524300F9E43AFA120008449000176BE02422F9BB
:10525300E4FAFB1200E14C9000176BE02403F0E04A
:105263002422F8760A90001764E0FBA3E0FAA3E097
:105273002403F9E43AFA12000524FF7B007A00794B
:10528300427D031200E6339000176AEFF06003E0FB
:10529300FF227B017A0E79207D051200C7AE9000B4
:1052A300176AEFF0E4A3F0F5319000176BE0FFC34A
:1052B300940F500E74222FF8E62531F531E004F0F7
:1052C30080E79000176CE0FF7B007A0079227D0372
:1052D3001200E6339000176AEFF06003E0FF227FCD
:1052E300002290001767E0FBA3E0FAA3E0F91200A5
:1052F300DF6A50387B017A0E79207D051200C7AE34
:105303009000176AEFF06003E0FF229000176CE053
:1053130004FF7B007A0079227D031200E6339000BC
:10532300176AEFF06003E0FF227F5A227F002220FA
:105333000303014F9A20041078227C007D007B0038
:105343007A0079327E0080217E007F107DFF7B0012
:105353007A007922120009B3E4F522752301783229
:105363007C00FDFB7A007922FE7F1012000B0F01F7
:105373004F9A9000172F7401F0E4A3F0A37406F082
:105383007F0112009CCE9000172EEFF014601624BC
:10539300FC602D2403702C90001730E0D394004060
:1053A30022E014801190001731E0FF90001730E0E5
:1053B300C39F500FE004F09000172F7401F0800397
:1053C3007F00229000172FE060B67E007F447D00AF
:1053D3007B017A1679E0120009B390001730E06080
:1053E3000301549A900017C67481F0A37412F0A3BA
:1053F30074BEF07B017A1679E012000C63900017FB
:10540300C67481F0A37412F0A374C9F090000C1E4B
:10541300E0FF900017C9E4F0A3EFF090000C1FE049
:10542300FF900017CBE4F0A3EFF090000C20E0FF17
:10543300900017CDE4F0A3EFF090000C21E0FF9073
:105443000017CFE4F0A3EFF07B017A1679F1120095
:105453000C63900017C67481F0A37412F0A374DA7E
:10546300F07B017A17790212000C631200EE3A7B8B
:10547300017A1779241200681D9000176A7401F0ED
:10548300A37417F0A37413F07B017A1779247D07B3
:105493001200D8A50157AD90001730E064016003F6
:1054A300015549900017C67481F0A37412F0A374D8
:1054B300E3F07B017A1679E012000C63900017C6C3
:1054C3007481F0A37412F0A374EEF090000C41E029
:1054D300FCA3E0FDA3E0FEA3E0FFE4120000CDE4A3
:1054E300FBFA79C878421200002B900017C912000A
:1054F30008997B017A1679F112000C63900017C6A4
:105503007481F0A37412F0A374F7F07B017A177916
:105513000212000C63900017C67481F0A37412F09A
:10552300A374EEF090000C45E0FCA3E0FDA3E0FEC5
:10553300A3E0FFE4120000CDE4FBFA79C87842123D
:1055430000002B01566D90001730E06402600301E8
:1055530055E7900017C67481F0A37413F0A3740485
:10556300F07B017A1679E012000C63900017C67481
:1055730081F0A37412F0A374EEF090000C36E0FCFB
:10558300A3E0FDA3E0FEA3E0FFE4120000CDE4FBF3
:10559300FA79C878421200002B900017C91200084C
:1055A300997B017A1679F112000C63900017C67487
:1055B30081F0A37413F0A3740DF07B017A177902C1
:1055C30012000C63900017C67481F0A37413F0A348
:1055D300741AF090000C3CE0FF900017C9E4F0A3AC
:1055E300EF0156EF90001730E06403600301567734
:1055F300900017C67481F0A37413F0A37420F07B9A
:10560300017A1679E012000C63900017C67481F0DA
:10561300A37413F0A37429F090000C3AE0FFA3E005
:10562300900017C9CFF0A3EFF07B017A1679F1123E
:10563300000C63900017C67481F0A37413F0A37475
:105643002FF07B017A17790212000C63900017C6C2
:105653007481F0A37412F0A374B2F090000C2BE0E9
:10566300FCA3E0FDA3E0FEA3E0FF900017C9120036
:105673000899807990001730E064047079900017DE
:10568300C67481F0A37413F0A3743AF07B017A1605
:1056930079E012000C631200BBBA900017C6748144
:1056A300F0A37413F0A37445F0A3EEF0A3EFF07B23
:1056B300017A1679F112000C63900017C67481F019
:1056C300A37413F0A3744BF07B017A1779021200D1
:1056D3000C63900017C67481F0A37413F0A3745481
:1056E300F0A37481F0A37413F0A37457F07B017AD1
:1056F3001779130157A990001730E06405703F90A4
:105703000017C67481F0A37413F0A37463F07B01D4
:105713007A1679E012000C63900017C67481F0A327
:105723007413F0A3746DF090000C3DE0FF9000172C
:10573300C9E4F0A3EFF07B017A1679F18068900059
:105743001730E064067063900017C67481F0A37489
:1057530013F0A37473F07B017A1679E012000C63E3
:10576300900017C67481F0A37413F0A37454F0A3CC
:105773007481F0A37413F0A37479F07B017A167922
:10578300F112000C63900017C67481F0A37413F038
:10579300A37454F0A37481F0A37413F0A37485F07D
:1057A3007B017A17790212000C63E49000172FF043
:1057B3001200ED10E49000172EF09000172EE0FF7A
:1057C300C394044003015383EF75F011A424E0F95B
:1057D300741635F0FA7B01E4900017C2F0FD120055
:1057E300B3A99000172EE004F080CF9000174DEB83
:1057F300F0A3EAF0A3E9F0ED64016003015BA0907C
:10580300001752F09000174DE0FBA3E0FAA3E0F974
:1058130012000524FF90001752E0FE90001751E09C
:10582300FD2EF8A607A3E004F0E0FFED2FF87C00BF
:105833007D007B017A0C791E7E007F0412000B0F22
:1058430090001752E02404F09000174DE0FBA3E012
:10585300FAA3E02405F9E43AFA1200084490001789
:1058630052E0FB90001751E02BF97A007B00120005
:10587300D9E290001752E02404F09000174DE0FBAA
:10588300A3E0FAA3E02409F9E43AFA1200084490E9
:10589300001752E0FB90001751E02BF97A007B00D0
:1058A3001200E14C90001752E02403F09000174DD2
:1058B300E0FBA3E0FAA3E0240DF9E43AFA120008AE
:1058C3004490001752E0FB90001751E02BF97A0047
:1058D3007B001200D9E290001752E02404F09000FC
:1058E300174DE0FBA3E0FAA3E02411F9E43AFA121E
:1058F30000084490001752E0FB90001751E02BF989
:105903007A007B001200E14C90001752E02403F070
:105913009000174DE0FBA3E0FAA3E02415F9E43A65
:10592300FA90001752E0FF90001751E02FF87C0027
:105933007D007E007F0212000B0F90001752E024BF
:1059430002F09000174DE0FBA3E0FAA3E02417F95F
:10595300E43AFA90001752E0FF90001751E02FF855
:105963007C007D007E007F0612000B0F9000175213
:10597300E02406F09000174DE0FBA3E0FAA3E02437
:105983001DF9E43AFA12000524FF90001751E0FED6
:10599300F8A3E0FD04F0E82DF8A6079000174DE00A
:1059A300FBA3E0FAA3E0241EF9E43AFA120005246B
:1059B300FFA80690001752E0FE04F0E82EF8A607B1
:1059C3009000174DE0FBA3E0FAA3E0241FF9E43AAB
:1059D300FA12000524FF90001751E0FEF8A3E0FD42
:1059E30004F0E82DF8A6079000174DE0FBA3E0FABA
:1059F300A3E02420F9E43AFA90001752E0FFEE2FD7
:105A0300F87C007D007E007F0412000B0F900017CE
:105A130052E02404F09000174DE0FBA3E0FAA3E06A
:105A23002424F9E43AFA90001752E0FF900017514A
:105A3300E02FF87C007D007E007F0412000B0F90A6
:105A4300001752E02404F09000174DE0FBA3E0FAA6
:105A5300A3E02428F9E43AFA12000844900017520C
:105A6300E0FB90001751E02BF97A007B001200D97C
:105A7300E290001752E02404F09000174DE0FBA3DE
:105A8300E0FAA3E0242CF9E43AFA12000844900067
:105A93001752E0FB90001751E02BF97A007B0012BC
:105AA30000E14C90001752E02403F09000174DE002
:105AB300FBA3E0FAA3E02430F9E43AFA1200084425
:105AC30090001751E0F9F8A3E0FE04F0E82EF8A6E1
:105AD30007E0240FF07A007B00E0FD7C001200DC7D
