:10000000021DB87E11DEFEDFFA00220200D10C5381
:10001000E8EF438EC075C7AA75C75543D803227F42
:020020000122BB
:100023000200CD080200014BEC5D046005E85904B1
:100033007004020001411200010C580460F4EC4802
:1000430060F0EC7004FDFEFF22C860D82481C85024
:100053000AC39860025007020001489850C6F5820F
:10006300E9294B4A7006AB820200013775F0007C28
:100073001A7880C3EF9BEE9AED99400DC3EF9BFF77
:10008300EE9AFEED99FDE842F0DC24ACF0D0E0FFFF
:10009300D0E0FED0E0FDAB8220E7101BEB60B8ECB4
:1000A3002CFCEF33FFEE33FEED33FD02000123E8BA
:1000B30003F830E705C0F075F000EF2FFFEE33FED5
:1000C300ED33FD40B730E7C180A975F020800E7590
:1000D300F010800575F0087D007E007F003392D517
:1000E30030D504120007E9EC334010EF33FFEE3351
:1000F300FEED33FDEC33FCD5F0ED22E5F0247EA2DA
:10010300D513CC92E7CDCEFF22E9D2E7C933E8334A
:10011300F892D5EDD2E7CD33EC33FC5002B2D522C1
:10012300EC30E7100FBF000C0EBE00080DBD00043D
:100133000BEB6014A2D5EB13FCED92E7FD2274FFE9
:10014300FCFDFEFF22E480F8A2D574FF13FC7D8042
:10015300E480EFF920E73624F950037907E4F42427
:1001630002FBE582158270021583DBF6E024FB5067
:100173001BE96014E4F0E582158270021583E00444
:10018300F0B40A08E4F0D9EE7401F00A22C2D522D1
:10019300ED33EC3392D5FA602AB4FF33EDC2E77B3B
:1001A3008160067A0179B8E4227A0179C120D50405
:1001B3007A0179BC224E614E002B494E46002D49EF
:1001C3004E4600E47A08F0A3DAFC7B00740722C0F1
:1001D30093C083C082ECC0E0EDC0E0EEC0E0EFC0AE
:1001E300E0EA75F010A4CAABF075F04DA42BFBE464
:1001F30035F0FCEA2410FAEB34C5FBEC34D9FCED02
:10020300C2E7FF75F056A4F42411C5F0F434C58F8A
:10021300F0A42AE5F03BE43CF020E716120004DEEC
:10022300D0E0FFD0E0FED0E0FDD0E0FC1200002BD8
:100233008016F404120004DED0E0FFD0E0FED0E02C
:10024300FDD0E0FC120003A0D082D083D093E0FA6B
:10025300EDD2E7CD33EC332482FBE4C3CF33CFCEEF
:1002630033CECD33CD33DBF37B0775F00A846004E3
:10027300F0A31B0AE5F0F0A38FF0740AA4FFACF01F
:100283008EF0740AA42CFEACF050010C8DF0740AAD
:10029300A42CFDE435F0F0A3DBDE74072202000199
:1002A30041E86480F8E933E83360110460EFED332B
:1002B300EC337009E8FCE9FDEAFEEBFF220460DDA4
:1002C300D3EB9FEA9EE99DE8C2E78CF0C2F795F075
:1002D300400CE8CCF8E9CDF9EACEFAEBCFFB1200FB
:1002E300010C85D0F05804700320D5B1E8047008E0
:1002F3005002B2D50200014B92D5EC0460F6E4CC77
:10030300C0E0C398F8603C94186009400ED0E0FB4D
:1003130002000123E4FBFAC9FC8028E830E406E488
:10032300C9FBE4CAFCE830E305E4C9CACBFCE854E2
:10033300076010F8C3E913F9EA13FAEB13FBEC13A4
:10034300FCD8F130F531C3E49CFCEF9BFFEE9AFE41
:10035300ED99FDD0E0FBEF4E4D4C701322DB040210
:10036300000148EC2CFCEF33FFEE33FEED33FDEDE3
:1003730030E7EA02000123EF2BFFEE3AFEED39FDF1
:10038300D0E0FB50140BBB00040200014BED13FD46
:10039300EE13FEEF13FFEC13FC02000123EC4D60A0
:1003A30011E8497018ED33EC3304600DE4FCFFFEF3
:1003B300FD22E933E8330470F80200014112000121
:1003C3000C58046009E4CC2481500728500B020028
:1003D300014B28400402000148C0E0EB4A7046B9D3
:1003E3008007D0E0FB02000137EF4E701DBD80088F
:1003F300EBFFEAFEE9FD80EAE98DF0A4FEE5F002F9
:1004030000048FE9CDF9EAFEEBFFEF89F0A4FCE5E8
:10041300F0CE89F0A42EFFE435F0CD89F0A42DFEB3
:10042300E435F08067EF4E7005BD80D780C2EF8B57
:10043300F0A4ACF0EE8BF0A42CFCE435F0F8EF8ADA
:10044300F0A42CE5F038FCE433CB8DF0A42CFCE5D0
:10045300F03BF8EE8AF0A42CFCE5F038F8E433CF57
:1004630089F0A42CFCE5F038CF3400CE89F0A42F1A
:10047300FFE5F03EFEE433C98DF0A42EFEE5F0392E
:10048300CD8AF0A42FFFE5F03EFEE43DFD33D0E03E
:10049300FB50080BBB00100200014BEC2CFCEF33AC
:1004A300FFEE33FEED33FD020001233F80000041E8
:1004B30020000042C80000447A0000461C40004768
:1004C300C35000497424004B1896804CBEBC205A7C
:1004D3000E1BCA6753C21C749DC5AEFB600654074E
:1004E3006020232312000511EB5438600C12000422
:1004F300FC1200050C120003A0ECF8EDF9EEFAEF84
:10050300CB22EB1200050C80F0543803241C90001E
:1005130004AEFE93FC0EEE93FD0EEE930ECE93FF10
:1005230022EB7002E72289828A831410E704F59391
:10053300E022F593E49322BB000327F722F8EB892B
:10054300828A831410E706F593E028F022F593E4FA
:10055300932822BB0002F722BB8000500989828ABC
:10056300838B931593F022EF8DF0A4A8F0CF8CF03A
:10057300A428CE8DF0A42EFE22BC000BBE0029EFD2
:100583008DF084FFADF022E4CCF875F008EF2FFF77
:10059300EE33FEEC33FCEE9DEC984005FCEE9DFE45
:1005A3000FD5F0E9E4CEFD22EDF8F5F0EE0084205E
:1005B300D21CFEADF075F008EF2FFFED33FD4007C1
:1005C300985006D5F0F222C398FD0FD5F0EA22C267
:1005D300D5EC30E709B2D5E4C39DFDE49CFCEE30D5
:1005E300E716B2D5E4C39FFFE49EFE1200057CC369
:1005F300E49DFDE49CFC80041200057C30D507C318
:10060300E49FFFE49EFE22C5F0F8A3E028F0C5F0C6
:10061300F8E582158270021583E038F022A3F8E032
:10062300C5F025F0F0E582158270021583E0C83825
:10063300F0E822EB7007E7F5F009E7192289828ACF
:10064300831410E708F593E0F5F0A3E022F593E4B3
:1006530093F5F074019322F8EB700C09E5F027C7CA
:10066300F5F019E837C72289828A831410E707F562
:1006730093E802000620F593E4740193F5F0E49304
:1006830022BB000B09C5F027F7C5F01937F722F88D
:10069300EB89828A831410E707F593E80200060AC0
:1006A300F59374019325F0F5F0E4933822BB00062B
:1006B300F709A7F01922BB8000500D89828A838B2A
:1006C300931593F0E5F0A3F022E88FF0A4CC8BF020
:1006D300A42CFCE98EF0A42CFC8AF0EDA42CFCEAFB
:1006E3008EF0A4CDA8F08BF0A42DCC3825F0FDE935
:1006F3008FF0A42CCD35F0FCEB8EF0A4FEA9F0EB2B
:100703008FF0A4CFC5F02ECD39FEE43CFCEAA42D36
:10071300CE35F0FDE43CFC2275F008758200EF2F26
:10072300FFEE33FECD33CDCC33CCC58233C5829BB4
:10073300ED9AEC99E58298400CF582EE9BFEED9ADA
:10074300FDEC99FC0FD5F0D6E4CEFBE4CDFAE4CC76
:10075300F9A88222B800C1B90059BA002DEC8BF078
:1007630084CFCECDFCE5F0CBF97818EF2FFFEE3335
:10077300FEED33FDEC33FCEB33FB10D70399400460
:10078300EB99FB0FD8E5E4F9FA227818EF2FFFEE87
:1007930033FEED33FDEC33FCC933C910D7059BE9B8
:1007A3009A4007EC9BFCE99AF90FD8E0E4C9FAE414
:1007B300CCFB2275F010EF2FFFEE33FEED33FDCCB3
:1007C30033CCC833C810D7079BEC9AE899400AED9D
:1007D3009BFDEC9AFCE899F80FD5F0DAE4CDFBE445
:1007E300CCFAE4C8F922C3E49FFFE49EFEE49DFD36
:1007F300E49CFC22EB9FF5F0EA9E42F0E99D42F077
:10080300EC6480C864809845F022EB9FF5F0EA9E83
:1008130042F0E99D42F0E89C45F022E8600FECC30A
:1008230013FCED13FDEE13FEEF13FFD8F122E86086
:100833000FEFC333FFEE33FEED33FDEC33FCD8F1A2
:1008430022EB7006E9F802000B6F89828A83141089
:10085300E706F59302000B7BF59302000B87BB00C1
:1008630006E9F802000BC0BB8000500C89828A8322
:100873008B9315930200089922EB7006E9F80200A6
:100883000B9789828A831410E706F59302000BA461
:10089300F59302000BB0ECF0A3EDF0A3EEF0A3EFA1
:1008A300F022A42582F582E5F03583F58322F8E072
:1008B300FBA3A3E0F925F0F0E5821582700215830E
:1008C300E0FA38F022EBF0A3EAF0A3E9F022EB70B0
:1008D30006E9F802000BCC89828A831410E706F537
:1008E3009302000BDEF59302000BE7BB001CD093D1
:1008F300D0F0D0E0F8D0E0C9FBD0E0FAD0E0CBC82C
:10090300C0E0C0F0C09302000BD5BB80005022D0E2
:1009130093D0F0D0E0F8D0E0C9F582D0E0CAF583F7
:10092300D0E0CB14C8C0E0C0F0C0938893020008A5
:10093300C8D093D083D082D0E0D0E0D0E0E473D0AD
:1009430093D083D082F8E4937012740193700DA353
:10095300A393F8740193F5828883E4737402936814
:1009630060EFA3A3A380DFD093D083D082E49370FE
:1009730012740193700DA3A393F8740193F5828805
:1009830083E4737402936C70127403936D700C742C
:1009930004936E70067405936F60DDA3A3A3A3A3F2
:1009A300A380CA8B938A838982159353937FE473BD
:1009B300EF4E6022EF60010EEDBB0007F709DFFC8D
:1009C300A9F022BB8000500E89828A838B931593F2
:1009D300F0A3DFFCDEFA22EB700C87F009E608B522
:1009E300F019DFF6801589828A831410E70FF593D7
:1009F300E0F5F0A3E608B5F002DFF5806AF593E4CD
:100A030093F5F0A3E608B5F05EDFF4805ACB7013DC
:100A130088828C838B9387F009E493A3B5F048DF36
:100A2300F580441410E71F88848C858B9589828A0E
:100A330083F593758620E0F5F0E493A3A3B5F02442
:100A4300DFF4DEF2801E88848C858B9589828A830D
:100A5300F593758620E493F5F0E493A3A3B5F0042E
:100A6300DFF3DEF17586007FFFB5F0020F2240024F
:100A73007F0122020009DA809488F0EF60010E4EB4
:100A830060F0ED60EE1410E7EECB701288828C8379
:100A9300F59387F009E0A3B5F0CDDFF680C9141014
:100AA300E71E88848C858B9589828A83F593758666
:100AB30020E0F5F0E0A3A3B5F0AADFF5DEF380A410
:100AC30088848C858B9589828A83F593758620E447
:100AD30093F5F0E0A3A3B5F08BDFF4DEF28085EBB2
:100AE3007008E709F608DFFA801B89828A831410ED
:100AF300E70AF593E0A3F608DFFA8009F593E49398
:100B0300A3F608DFF9ECFAA9F0EDFB2288F0EF6019
:100B1300010E4E60F088F0ED60C51410E7E7CB706E
:100B23000E88828C838B93E709F0A3DFFA80D614B7
:100B330010E71C88848C858B9589828A83F593754D
:100B43008620E0F0A3A3DFFADEF875860080B6887E
:100B5300848C858B9589828A83F593758620E493AB
:100B6300F0A3A3DFF9DEF77586008099E6FC08E6BB
:100B7300FD08E6FE08E6FF22E0FCA3E0FDA3E0FE9D
:100B8300A3E0FF22E493FC740193FD740293FE74CB
:100B93000393FF22E6FB08E6F908E6FA08E6CBF83A
:100BA30022E0F8A3E0F9A3E0FAA3E0FB22E493F840
:100BB300740193F9740293FA740393FB22ECF6081D
:100BC300EDF608EEF608EFF622E6FB08E6FA08E68D
:100BD300F922EBF608EAF608E9F622E0FBA3E0FACD
:100BE300A3E0F922E493FB740193FA740293F922CC
:100BF300E511241CF582E4341CF583759300E005AC
:100C0300112290001C19300B0490001C1CE475F099
:100C130001120008B1020005242004E57F2ED2044E
:100C23008018EF540F2490D43440D4FF30080BEFD6
:100C330024BFB41A0050032461FFE51260021512A9
:100C43000515E51570020514300B1190001C19E40D
:100C530075F001120008B1EF02000556020021F5FC
:100C63007403D20B8003E4C20BF51190001C19121C
:100C73000008C8E4F512F514F515E51260087F20A5
:100C830012000C3D80F47513FFC205C204C206C2F4
:100C930007C209C20AC20C12000C05FF700E300B0A
:100CA300067F0012000C4EAF15AE1422B42563C2AA
:100CB300D5C20812000C05FF24D0B40A00501A75DF
:100CC300F00A781230D50508B6FF0106C6A426F649
:100CD30020D5047002D20780D824CFB41A00EF5075
:100CE30004C2E5D20802000F8BD20580C4D204806F
:100CF300BED20680BAD2D580B8D20980B27F201284
:100D0300000C3D2006077401B5120040F012000BE1
:100D1300F3FF12000C3D02000C7DD20CD20A808F2F
:100D230012000BF3FB12000BF3FA12000BF3F94A58
:100D33004B700679987A107B8120063DE512603965
:100D43007E00E9C0E02EF9EAC0E03400FA120005A3
:100D530024F9D0E0FAD0E0C960060EEE651370E224
:100D6300C2D5EBC0E0EAC0E0E9C0E0EE12000FF349
:100D7300D0E0F9D0E0FAD0E0FB12000524FF609642
:100D8300EBC0E0EAC0E0E9C0E012000C3DD0E02493
:100D930001F9D0E03400FAD0E0FBE5130460DAD5C2
:100DA30013D702000D19D206808F12000FCF60F601
:100DB300E51370010412000156A913600EE51360D8
:100DC3000A14F51312001082EF60F2EA30E702F41E
:100DD30004C399400402000E62EAF425130430E7C9
:100DE30001E404F513800F12000FCF60B9EA051375
:100DF300251312000156EA90001C48F030E701E485
:100E0300251304D513042009011412000FF3E4C0C1
:100E1300E01200108290001C48E0601420E70814E0
:100E2300F012000C25802604F0D0E014C0E07F000F
:100E330012000C25E513600812000C1C1513800D1D
:100E430030090412000C1CD0E002000C7DD0E00439
:100E530080BD12000FCF6093E5130412000156907A
:100E6300001C48EAF0E5132009026001042404127F
:100E7300000FF374FF04C0E01200108212000C256F
:100E8300E513200902600412000C1CD0E0B513E541
:100E93007F4512000C2F90001C48E07F2B30E704A5
:100EA3007F2DF404C0E012000C3DD0E075F00A84FD
:100EB300C0F012000C26D0E012000C2602000C7DBC
:100EC300791080027908C20AC20C8008D2D5790A47
:100ED3008004790AC2D5E513047002F513E4FAFD20
:100EE300FEFF12000BF3FC7B0820051612000BF328
:100EF300FD7B1030040C12000BF3FE12000BF3FF0A
:100F03007B20EC3382D592D55013C3E43004069F83
:100F1300FFE49EFEE42005039DFDE49CFCE4CBF886
:100F2300C205EC700CCFCECDCCE824F8F870F3807A
:100F330017C3EF33FFEE33FEED33FDEC33FCEB333E
:100F4300FB994002FB0FD8E9EB300505F8D0E0C46C
:100F530048B205C0E00AEC4D4E4F78207B0070C2CA
:100F6300EAB5130040BCC0E012000FF5D0F0D0E0AA
:100F7300200504C4C0E0C4B205C0F012000C26D0A2
:100F8300F0D5F0EA02000C7D120009420D23530E46
:100F9300C3580CF04C0CEC420EC74F0ECF440ECF8F
:100FA300490D06430ED5550DEA460E55450DAD4781
:100FB30010B5500CF42D0CF82E0D1F2B0CFC230D2B
:100FC3001D2010A12A0CB24800000D15E513B4FF33
:100FD3000375130612000BF3FC12000BF3FD120052
:100FE3000BF3FE12000BF3FF90001C410200019370
:100FF300790AA2D5200714300909B910020404B9EB
:10100300080104A2D5200A0250010420066D9206AD
:10101300B512005036C0E07F2030071A7F30A20699
:10102300720A720950101200104EC206C20AC20997
:10103300C20C7F308010300903E9C0E012000C3D80
:10104300300903D0E0F9D0E0B512CA3009197F3076
:10105300B9100D12000C3D7F583008077F788003CC
:10106300B9080412000C3D3006067F2D02000C3D2A
:101073007F20200CF77F2B200AF222920680CC7F60
:1010830000B40700500E2441F582E4341CF5837547
:101093009300E0FF22286E756C6C2900D2051200C4
:1010A3000BF33005F7C205781230D50108F60200BC
:1010B3000CB212000BF37F4960087F4310E7027FF5
:1010C3005814C0E0EF12000C2E743A12000C2ED00C
:1010D300E0600DC0E0C412000C26D0E012000C2624
:1010E300D20775120402000EC3D6D0CDBEB0CEBF58
:1010F300A800B2BBBFC9CAB6B1F0BFA800BFA8C79A
:10110300AEB0FCB4EDCEF300CEB4C9CFB4ABC1F7EF
:10111300CBAE00C7EBB2C9BCAF00BADABFA800BF01
:10112300A8D2D1B9C6DA00CEDEC8A8CFDE00BFA8E8
:10113300D3E0B6EEB2BBD7E300BFA8D2D1CBF80061
:10114300C3E2B7D1BFA800BCC7C2BCD2D1C2FA00A8
:10115300D6D8B8B4CBA2BFA800C9E8D6C3B4EDCEE5
:10116300F300CAB1D6D3B4EDCEF300D3B2BCFEB90B
:10117300CAD5CF00B2BBD6A7B3D6BFA8C0E0D0CDE7
:101183000000B4E6B4A2C8DDC1BF00CEEFC0ED4994
:1011930044CEB4C9E8D6C300B1B8B2CE00D6F7B2D4
:1011A300CEB4EDCEF300BBD6B8B4D6F70057522079
:1011B30053455249414C0052442053455249414CF6
:1011C3000073746172742C77725B256C755D2C727D
:1011D300645B256C755D2C73657269616C5B256C52
:1011E300755D0A005B25645DB4EDCEF3C2EBA3BA73
:1011F30025642000252E30326600B6C1BFA8C6F78D
:10120300D2ECB3A30072656164203078343020617E
:101213006464720A00B6C1454550524F4D203100F7
:10122300454550524F4D2044617461203100776F22
:10123300726B206B657900B6C1454550524F4D2006
:101243003200454550524F4D2044617461203200B5
:10125300D0B4454550524F4D203200646179735BE1
:1012630025645D5B25645D00B6C1454550524F4D15
:10127300203300454550524F4D2044617461203363
:1012830000B6C1454550524F4D2034006469737018
:101293006C6179206D656E750A00312E20BAECCD34
:1012A300E2CDA8D1B6202000322E20B4AEBFDACDD5
:1012B300A8D1B6202000202020202020202020207C
:1012C30020202000256C750025732C5B25640A0003
:1012D300C9E8B1B8CEEFC0ED4944002530325825F6
:1012E300303258253032582530325800CFB5CDB37F
:1012F300CAB1BCE400B5B1CCECD3AAD2B5B6EE000A
:10130300252E30326620D4AA00C7B0D2BBCCECD392
:10131300AAD2B5B6EE00BBF9B4A1B7D1C2CA00B226
:10132300C9BCAFCAB1BCE4BCE4B8F400256420CCAA
:10133300EC00C1ACD0F8CBA2BFA800256420C3EB5E
:1013430000B5B1C7B0C1F7CBAEBAC500CEB4B2C910
:10135300BCAFBCC7C2BC00257520CCF500B3CCD054
:10136300F2B0E6B1BE002573003039313131304976
:101373004D615F723100CEB4B2C9BCAFCCECCA00D0
:10138300257520CCEC004275696C64004E6F7620A5
:10139300313020323030390031363A32393A313453
:1013A30000312E20CBA2BFA8CAD5B7D1202000324E
:1013B3002E20B2E9D1AF20202020202000332E2080
:1013C300CDA8D1B620202020202000626567696E59
:1013D3005B256C755D656E645B256C755D0A0062EB
:1013E3006C6B5B25756C5D2C5B25756C5D2C5B25CF
:1013F300756C5D2C5B25645D0A00001F1C1F1E1F9E
:101403001E1F1F1E1F1E1F81129D81C99A8112ABB1
:1014130081CEAF8112B90000008112B90000000132
:101423000DB70000008113A4819FE58113B28151A0
:10143300268113C081EE4720202020202020202059
:1014430020202020202020000000000000000000B9
:101453000000004F0000000000000700070000002C
:1014630000147F147F14000000242A7F2A12000036
:10147300002313086462000000364955225000001F
:10148300000005030000000000001C2241000000D2
:10149300000041221C0000000014083E0814000054
:1014A3000008083E0808000000005030000000005B
:1014B3000008080808000000000060600000000049
:1014C3000020100804020000003E5149453E000080
:1014D300000000427F400000004261514946000085
:1014E300002141454B310000001814127F10000009
:1014F3000027454545390000003C4A494930000072
:10150300000101790503000000364949493600000E
:1015130000064949291E000000003636000000007D
:1015230000005636000000000008142241000000AD
:1015330000141414141400000000412214080000C5
:10154300000201510906000000324979413E0000C2
:10155300007E1111117E000000417F4949360000D1
:10156300003E41414122000000417E4141223C00B6
:10157300007E494949490000007F0909090100002B
:10158300003E4141497A0000007F0808087F0000BF
:101593000000417F41000000002040413F01000066
:1015A300007F081422410000007F404040400000BB
:1015B300007F020C027F0000007F0608307F0000DE
:1015C300003E4141413E0000007F09090906000039
:1015D300003E4151215E0000007F091929460000A9
:1015E30000264949493200000001017F0101000042
:1015F300003F4040403F0000001F2040201F0000EC
:10160300007F2018207F000000631408146300008B
:1016130000070870080700000061514945430000B6
:1016230000007F4141000000000204081020000078
:10163300000041417F000000000402010204000099
:101643000040400040400000000102040000000090
:101653000020545454780000007F4844443800006C
:10166300003844444428000000384444487F0000C4
:1016730000385454541800000000087E090200008A
:10168300000C52524C3E0000007F08040478000016
:101693000000447D40000000002040443D00000065
:1016A30000007F10284400000000417F400000003C
:1016B300007C047804780000007C080404780000AF
:1016C3000038444444380000007E0C12120C000021
:1016D300000C12120C7E0000007C080404080000B9
:1016E300005854545464000000043F444020000058
:1016F300003C40403C400000001C2040201C0000F7
:10170300003C4030403C00000044281028440000C6
:10171300001CA0A0907C0000004464544C440000D2
:1017230000000836410000000000007700000000C0
:10173300000041360800000000020102040200001C
:1017430000FFFFFFFFFF0000605A0E15000181102C
:10175300EC00028110F50003811100000481110BDC
:101763000005811116000681111D00078111220059
:101773000881112A0009811131000A81113C000CF2
:10178300811143000D81114A005A811153005C817C
:10179300115C005B81116500B181116E005F8111E5
:1017A3007700FE811184620016D7000010212042C9
:1017B3003063408450A560C670E781089129A14A2F
:1017C300B16BC18CD1ADE1CEF1EF123102103273A6
:1017D300225252B5429472F762D693398318B37B7F
:1017E300A35AD3BDC39CF3FFE3DE24623443042036
:1017F300140164E674C744A45485A56AB54B8528CF
:101803009509E5EEF5CFC5ACD58D36532672161185
:10181300063076D766F6569546B4B75BA77A97191E
:101823008738F7DFE7FED79DC7BC48C458E568860D
:1018330078A70840186128023823C9CCD9EDE98E6E
:10184300F9AF89489969A90AB92B5AF54AD47AB7E5
:101853006A961A710A503A332A12DBFDCBDCFBBFBE
:10186300EB9E9B798B58BB3BAB1A6CA67C874CE4F5
:101873005CC52C223C030C601C41EDAEFD8FCDEC0E
:10188300DDCDAD2ABD0B8D689D497E976EB65ED5C5
:101893004EF43E132E321E510E70FF9FEFBEDFDD5E
:1018A300CFFCBF1BAF3A9F598F78918881A9B1CAEA
:1018B300A1EBD10CC12DF14EE16F108000A130C21C
:1018C30020E3500440257046606783B99398A3FBD7
:1018D300B3DAC33DD31CE37FF35E02B1129022F36C
:1018E30032D24235521462777256B5EAA5CB95A827
:1018F3008589F56EE54FD52CC50D34E224C314A0BC
:1019030004817466644754244405A7DBB7FA8799B6
:1019130097B8E75FF77EC71DD73C26D336F206910B
:1019230016B06657767646155634D94CC96DF90EFE
:10193300E92F99C889E9B98AA9AB5844486578065B
:10194300682718C008E1388228A3CB7DDB5CEB3F16
:10195300FB1E8BF99BD8ABBBBB9A4A755A546A37AB
:101963007A160AF11AD02AB33A92FD2EED0FDD6CE6
:10197300CD4DBDAAAD8B9DE88DC97C266C075C64FB
:101983004C453CA22C831CE00CC1EF1FFF3ECF5DF6
:10199300DF7CAF9BBFBA8FD99FF86E177E364E554B
:1019A3005E742E933EB20ED11EF04818D7323030FB
:1019B3003530313331C10D411D53014C0006000058
:1019C30000000000000000000000460000000000CE
:1019D3000000004200120000420C1400000063618A
:1019E300726420626C61636B20666C61675B253097
:1019F30032585D0A007265616420707472200A00B7
:101A0300777269746520707472206261636B0A0077
:101A13007265616420707472206261636B0A006294
:101A230061636B20707472206372630A0062616B7E
:101A330020707472206372630A007265636F72644C
:101A43002066756C6C0A007570646174652070742F
:101A530072206572726F720A0072657665727365C1
:101A63002073657269616C0A006572726F7220730C
:101A7300657269616C5B25645D0A007265636F72F0
:101A8300642073657269616C5B256C755D0A007512
:101A93007064207265632C5B256C755D0A0072654A
:101AA300636F72642066756C6C5B256C755D5B257A
:101AB3006C755D0A00676574206E657874207365C4
:101AC3007269616C0A007265636F72642073657278
:101AD30069616C0A00BADABFA800C3E2B7D1BFA834
:101AE30000BFDBBFEE20257320D4AA00D3E0B6EEFF
:101AF30020257320D4AA00C1F7CBAEBAC55B256CF1
:101B0300645D00C7EBD6D8CBA200636F6E73756DAF
:101B130065205B25645D0A00C7EBC1AACFB5B9DCBC
:101B2300C0EDD4B100C7EBBCECB2E9504F53BBFAE4
:101B330000C7EBB2C9BCAF00636E745B256C755D07
:101B43005B256C755D0A00616464725B256C755D71
:101B53005B256C755D2C5B256C755D5B256C755D1C
:101B63000A0073657269616C20616464725B256C41
:101B7300755D0A00757064207074725B256C755D09
:101B83005B256C755D0A006C6F6164206B65792160
:101B93000A006C6F67696E206661696C6420256456
:101BA3000A0073656C65637420636172640A006C78
:101BB3006F67696E207365637420310A0072656113
:101BC3006420626C6F636B20340A0032302530323C
:101BD30064253032642530326400636F6E73756D33
:101BE30065206461746520657175616C730A006EAC
:101BF3006F7420777269746520636172640A006888
:101C0300616420777269746520636172640A006C91
:101C13006F67696E206361726420707572736520EB
:101C2300736563740A00726561642070757273650D
:101C330020626C6F636B0A00726561642070757259
:101C43007365206261636B75700A0072656164205D
:101C5300696E646578200A006C6F67696E20636142
:101C63007264203320736563740A007265616420B3
:101C73006361726420313220626C6F636B0A00729D
:101C830065616420626C6B2031340A0072656164A3
:101C93002070757273650A00636865636B20636106
:101CA30072640A007761697474696E672E2E2E0060
:101CB300626567696E20726571756573742E2E2E69
:101CC3000A0070726F636573732E2E2E00C9E8D6F7
:101CD300C3CEEFC0ED4944B3C9B9A600D0A3D7BC66
:101CE300CAB1D6D3B3ACCAB100D0A3D7BCCAB1D69C
:101CF300D3B3C9B9A6007772697465206572726F30
:101D0300722C307834300A00636F6C20736572690B
:101D13002C5B256C755D2C5B256C755D0A0073650A
:101D23007269616C206E6F200A007570646174655E
:101D3300207265630A007772697465206164647256
:101D43005B256C755D0A006E6F7420737570706F20
:101D5300727420636D645B25645D0A0070726F6347
:101D6300657373206F6B00696E697420696E6672A8
:101D7300617265642E2E2E00B2BBD6A7B3D6BAEC21
:101D8300CDE200B4F2BFAABAECCDE2CAA7B0DC0040
:101D9300B2BBD6A7B3D6B4AEBFDA00B4F2BFAAB40F
:101DA300AEBFDACAA7B0DC00696E697420706F73C6
:101DB3002E2E2E0A0075C7AA75C755759D0275C7C5
:101DC300AA75C75575C600787FE4F6D8FD75816C92
:101DD30002001E010200D591E493A3F85407240CDA
:101DE300C8C333C4540F4420C8834004F45680014D
:101DF30046F6DFE4800C01020408102040809000C6
:101E0300174BE47E019360CCA3FF543F30E50954A4
:101E13001FFEE493A360010ECF54E0B4E026E493E5
:101E2300FBA3E493FAA3E493F9A3E493C083C082EE
:101E330012000556D082D083A309E970010ADFEAB4
:101E4300DEE880BE54C025E0602B408CE493A3FA07
:101E5300E493A3F8E493A3C8C582C8CAC583CA752B
:101E63009300F0759300A3C8C582C8CAC583CADFAF
:101E7300E3DEE1808DE493A3F8E493A34003F680CB
:101E830001F208DFF402001E056F70656E20706FAB
:101E930072745B25645D5B256C755D0A00636C6F12
:101EA300736520706F72745B25645D007265637681
:101EB300206865616465720A007061636B206C65FC
:101EC3006E206572722C5B25645D0A007265637611
:101ED300206572722C5B25645D5B25645D0A00726C
:101EE300656376206275662065787431215B2564AD
:101EF3005D0A00726567697374657220696E667244
:101F03006172656420706F72740A006F70656E2071
:101F1300636F6D6D20706F72745B25645D5B256C00
:101F2300755D0A00636C6F736520636F6D6D207060
:101F33006F72745B25645D0A00726567697374650B
:101F43007220636F6D6D20706F72740A00BD002084
:101F5300EF7F08C2A63392A500D2A6DFF6C2A67F02
:101F630064D2A5A2A55002DFFAD2A60000C2A6221F
:101F7300BD0120EF7F08C2A73392A500D2A7DFF6E9
:101F8300C2A77F64D2A5A2A55002DFFAD2A70000A0
:101F9300C2A722BD0220EF7F08C2963392A500D2CA
:101FA30096DFF6C2967F64D2A5A2A55002DFFAD2CD
:101FB300960000C29622EF7F08C2973392A500D203
:101FC30097DFF6C2977F64D2A5A2A55002DFFAD2AB
:101FD300970000C29722D2A4C2A400C2A2C2A3BD8A
:101FE3000004D2A2C2A312001FEE22BF0012D2A18C
:101FF30000D2A4008B8000C2A4C2A112002015222B
:10200300D2A000D2A4008B8000C2A4C2A0120020E0
:102013001522D2A4C2A4C2A200D2A37580FF740069
:10202300BF0014D2A100D2A400E58000C2A400D254
:10203300A4C2A120E7ED22D2A000D2A40000E58033
:1020430000C2A400D2A4C2A020E7EC22BF00177DE7
:1020530009D2A5D2A60000C2A60000D2A60020A5E0
:1020630002DDF4C2A522BF01177D09D2A5D2A700C4
:1020730000C2A70000D2A70020A502DDF4C2A5225A
:10208300BF02177D09D2A5D2960000C2960000D2E6
:10209300960020A502DDF4C2A5227D09D2A5D29720
:1020A3000000C2970000D2970020A502DDF4C2A56C
:1020B30022BF00127D08D2A5C2A600A2A533D2A6D4
:1020C300DDF6C2A6FF22BF01127D08D2A5C2A7007A
:1020D300A2A533D2A7DDF6C2A7FF22BF02127D0855
:1020E300D2A5C29600A2A533D296DDF6C296FF22F0
:1020F3007D08D2A5C29700A2A533D297DDF6C29779
:10210300FF2290001C13E0FFA3E0FEA3E0CF9000AA
:102113001C1CF0A3EEF0A3EFF090001C16E0CBF034
:10212300A3E0CAF0A3E0C9F07F2290001C1FAD8298
:10213300AC83120005248D828C83F0A309E970011E
:102143000ADFEB90001C16E0FBA3E0FAA3E0F90220
:10215300000C63BF000E120020B4C2A500D2A6007B
:1021630000C2A622BF010E120020B4C2A500D2A74E
:102173000000C2A722BF020E120020B4C2A500D2E3
:10218300960000C29622120020B4C2A500D2970086
:1021930000C29722BF000AC2A500D2A600D2A500A2
:1021A30022BF010AC2A500D2A700D2A50022BF0206
:1021B3000AC2A500D29600D2A50022C2A500D297DA
:1021C30000D2A50022BF0009D2A500D2A600C2A555
:1021D30022BF0109D2A500D2A700C2A522BF0209CE
:1021E300D2A500D29600C2A522D2A500D29700C2E2
:1021F300A522EFB40A08740D12002201740A309864
:1022030011A899B8130CC2983098FDA899C298B830
:1022130011F63099FDC299F59922527463546D5F9A
:102223005645525F312E3031001F1D1F1E1F1E1FCA
:102233001F1E1F1E1F1F1C1F1E1F1E1F1F1E1F1EB4
:102243001F20000D0A003031323334353637383928
:1022530041424344454600E4FFFE12000524600C5E
:102263000FEF70010E09E970F10A80EE2275C7AA1B
:1022730075C75553D8FD2275C7AA75C75543D801ED
:10228300227E54DEFEDFFA22253032640006050387
:1022930001020304050607080990001B6AEBF0A37B
:1022A300EAF0A3E9F07B007A007922C003C002C000
:1022B3000190001B6AE0FBA3E0FAA3E02407F9E422
:1022C3003AFA120008EE7B007A007942C003C0029A
:1022D300C00190001B6AE0FBA3E0FAA3E0240AF923
:1022E300E43AFA120008EE7B017A0E79A7C003C024
:1022F30002C00190001B6AE0FBA3E0FAA3E02416EE
:10230300F9E43AFA120008EE90001B6AE0FBA3E03E
:10231300FAA3E02415F9E43AFAE412000556900012
:102323001B6AE0FBA3E0FAA3E02413F9E43AFAE41E
:1023330075F005120006B090001B6AE0FBA3E0FAFB
:10234300A3E02411F9E43AFAE475F020120006B090
:102353007B817A1C79A77D0AE4FF0144DB90001B93
:102363006AE0FBA3E0FAA3E02413F9E43AFAE47584
:10237300F00A120006B090001B6AE0FBA3E0FAA388
:10238300E02415F9E43AFAE41200055690001B6ABA
:10239300E0FBA3E0FAA3E0F9C003C002C001A3E09D
:1023A300FBA3E0FAA3E02412F9E43AFA120008D1FD
:1023B30089828A838B93D001D002D003120009ACA7
:1023C300EF700C7F03FE1200ED6350917FA022900B
:1023D300001B6AE0FBA3E0FAA3E0240FF9E43AFA56
:1023E300E475F020120006B0C203C201E490001BA2
:1023F3007EF0A3F090001B6AE0FBA3E0FAA3E024C5
:1024030007F9E43AFA120008D1E92403F9E43AFAA5
:102413001200052490001B70F090001B6AE0FBA3E0
:10242300E0FAA3E02407F9E43AFA120008D1E92418
:1024330004F9E43AFA1200052490001B72F07B8140
:102443007A1C79C57D037F011200DC3390001B7079
:10245300E0120009423DD7553F78562CCFA13A45AB
:10246300B12FF7B2416BB332EAB442E5B53CF9B6EA
:10247300408DB72606C22833C32788C42486C500E7
:102483000043C390001B6AE0FBA3E0FAA3E0240728
:10249300F9E43AFA120008D1E92404F9E43AFA1209
:1024A30000052490001B72F020E00301256DE4FF7A
:1024B300FEFDFC90001B867410F0A37401F09000E5
:1024C3001B6AE0FBA3E0FAA3E0240AF9E43AFA1258
:1024D3000008D190001B88EBF0A3EAF0A3E9F01207
:1024E30000D35C90001B71EFF0600301433C90004C
:1024F3001B6AE0FBA3E0FAA3E0240AF9E43AFA1228
:102503000008D1C003C002C00190001B6AE0FBA316
:10251300E0FAA3E02407F9E43AFA120008D1E92427
:1025230006F9E43AA801FCAD03D001D002D0037E42
:10253300007F0412000B0F90001B7FE02404F09037
:10254300001B7EE03400F090001B6AE0FBA3E0FA7E
:10255300A3E0240AF9E43AFA120008D1781E7C0CAD
:102563007D017E007F0412000B0F90001B72E020A0
:10257300E103012FF21200F20B90001B6AE0FBA3B0
:10258300E0FAA3E0240AF9E43AFA120008D11200AF
:10259300617BEF64016003012B0C90001B6AE0FB7D
:1025A300A3E0FAA3E0240AF9E43AFA120008D1C03E
:1025B30003C002C00190001B6AE0FBA3E0FAA3E0A2
:1025C3002407F9E43AFA120008D1E92406F9E43AB7
:1025D300FA90001B7EE0FEA3E029F9EA3EA801FC85
:1025E300AD03D001D002D0037E007F0712000B0F92
:1025F30090001B7FE02407F090001B7EE03400F086
:10260300012FF290001B6AE0FBA3E0FAA3E024078A
:10261300F9E43AFA120008D1E92404F9E43AFA1287
:10262300000524B4992490001B6AE0FBA3E0FAA3FD
:10263300E02407F9E43AFA120008D1E92405F9E4A1
:102643003AFA12000524640860030142EE90001B6D
:102653006AE0FBA3E0FAA3E02407F9E43AFA1200E4
:1026630008D1E92406F9E43AFA781E7C0C7D017E50
:10267300007F0412000A7CEF60030142EE90001B0E
:102683006AE0FBA3E0FAA3E02407F9E43AFA1200B4
:1026930008D1E9240AF9E43AFAC003C002C0019060
:1026A300001B6AE0FBA3E0FAA3E0240AF9E43AFA88
:1026B300120008D1A801AC02AD03D001D002D003AF
:1026C3007E007F0412000B0F90001B6AE0FBA3E067
:1026D300FAA3E0240AF9E43AFA120008D1C003C0CD
:1026E30002C00190001B6AE0FBA3E0FAA3E0240A06
:1026F300F9E43AFA120008D1E92404F9E43AFA9029
:10270300001C00EBF0A3EAF0A3E9F0D001D002D063
:10271300037D047C001200E80CE4FFFEFDFC900046
:102723001BFF7408F090001B6AE0FBA3E0FAA3E030
:10273300240AF9E43AFA120008D190001C00EBF0E5
:10274300A3EAF0A3E9F01200689990001B71EFF07F
:102753006401600301433C90001B6AE0FBA3E0FAC1
:10276300A3E0240AF9E43AFA120008D1781E7C0C9B
:102773007D017E007F0412000B0F7B817A1C79D0D0
:102783007D0101282090001B6AE0FBA3E0FAA3E08F
:102793002407F9E43AFA120008D1E92403F9E43AE8
:1027A300FAC003C002C00190001B6AE0FBA3E0FA79
:1027B300A3E0240AF9E43AFA120008D1A801AC0212
:1027C300AD03D001D002D0037E007F0C12000B0FAB
:1027D3001200B27F40187B817A1C79DF7D037F0171
:1027E3001200DC3390001B7174A1F00143C6120088
:1027F300F20B90001B6AE0FBA3E0FAA3E02407F9C5
:10280300E43AFA120008D1E92406F9E43AFA12008C
:102813007640EF60117B817A1C79EC7D037F011296
:1028230000DC330143BB90001B7174FFF00143C60E
:102833001200B27F4003013DDD90001B72E0FF6494
:10284300016008EF640260030142EE90001B6AE03E
:10285300FBA3E0FAA3E02407F9E43AFA120008D153
:10286300E92405F9E43AFA1200052490001B72F0FA
:102873006008E0640160030142EE90001B6AE0FB24
:10288300A3E0FAA3E02407F9E43AFA120008D1E935
:102893002406F9E43AFA12000524FF7E0090001B97
:1028A3007EEEF0A3EFF0640E6003013A97E47F40FD
:1028B300FEFDFC90001BFF7418F090001B6AE0FB08
:1028C300A3E0FAA3E0240AF9E43AFA120008D1904B
:1028D300001C00EBF0A3EAF0A3E9F012007BF590F3
:1028E300001B71EFF06401600301433C90001B7116
:1028F3007401F0D20290001B6AE0FBA3E0FAA3E0AC
:10290300240AF9E43AFA120008D1E92416F9E43A60
:10291300FA12000524645560030129F090001B6A34
:10292300E0FBA3E0FAA3E0240AF9E43AFA12000870
:10293300D1E92417F9E43AFA1200052464AA6003E2
:102943000129F090001B6AE0FBA3E0FAA3E024074F
:10295300F9E43AFA120008D1E9240CF9E43AFAC08E
:1029630003C002C00190001B6AE0FBA3E0FAA3E0EE
:10297300240AF9E43AFA120008D1E92406F9E43A00
:10298300A801FCAD03D001D002D0037E007F081262
:10299300000A7CEF7002C20290001B6AE0FBA3E016
:1029A300FAA3E02407F9E43AFA120008D1E924066D
:1029B300F9E43AFAC003C002C00190001B6AE0FBCD
:1029C300A3E0FAA3E0240AF9E43AFA120008D1A832
:1029D30001AC02AD03D001D002D0037E007F06120A
:1029E300000A7CC3EF648094804002C20220020389
:1029F300012B4890001B6AE0FBA3E0FAA3E0240745
:102A0300F9E43AFA120008D1E92407F9E43AFAC0E2
:102A130003C002C00190001B6AE0FBA3E0FAA3E03D
:102A2300240AF9E43AFA120008D1A801AC02AD0372
:102A3300D001D002D0037E007F0E12000B0F900056
:102A43001B6AE0FBA3E0FAA3E0240AF9E43AFA12D2
:102A53000008D1E92406F9E43AFAC003C002C00130
:102A630090001B6AE0FBA3E0FAA3E0240AF9E43A2E
:102A7300FA120008D1E9240EF9E43AA801FCAD03E7
:102A8300D001D002D0037E007F0812000B0F90000C
:102A93001B6AE0FBA3E0FAA3E0240AF9E43AFA1282
:102AA3000008D1E92416F9E43AFA745512000556E0
:102AB30090001B6AE0FBA3E0FAA3E0240AF9E43ADE
:102AC300FA120008D1E92417F9E43AFA74AA1200B9
:102AD3000556E47F40FEFDFC90001BFF7418F09048
:102AE300001B6AE0FBA3E0FAA3E0240AF9E43AFA44
:102AF300120008D190001C00EBF0A3EAF0A3E9F068
:102B030012006899EF6401600790001B7101433C58
:102B130090001B6AE0FBA3E0FAA3E0240AF9E43A7D
:102B2300FA120008D1E92406F9E43AFA90001B8569
:102B33007401F0A3740CF0A37416F01200E863E4BC
:102B430090001B71F090001B72E064016003012C84
:102B5300C27F10FEFDFC90001BFF741AF090001B57
:102B63006AE0FBA3E0FAA3E0240AF9E43AFA1200CC
:102B730008D190001C00EBF0A3EAF0A3E9F01200E7
:102B83007BF5EF6401600790001B7101433C9000EB
:102B93001B6AE0FBA3E0FAA3E0240AF9E43AFA1281
:102BA3000008D1C003C002C00190001B6AE0FBA370
:102BB300E0FAA3E0240AF9E43AFA120008D1E9247E
:102BC30006F9E43AA801FCAD03D001D002D0037E9C
:102BD300007F0612000B0F7E007F077D0090001B15
:102BE3006AE0FBA3E0FAA3E0240AF9E43AFA12004C
:102BF30008D1E92410F9E43AFA120009B390001B52
:102C03006AE0FBA3E0FAA3E0240AF9E43AFA12002B
:102C130008D17D187C001200E59990001B7CEEF032
:102C2300A3EFF090001B6AE0FBA3E0FAA3E0240704
:102C3300F9E43AFA120008D1E92418F9E43AFA124D
:102C430000EFB2E47F10FEFDFC90001BFF741AF04E
:102C530090001B6AE0FBA3E0FAA3E0240AF9E43A3C
:102C6300FA120008D190001C00EBF0A3EAF0A3E9EC
:102C7300F012006899EF6401600790001B71014333
:102C83003CE47FA0FEFDFC90001BFF741AF0900053
:102C93001B6AE0FBA3E0FAA3E0240AF9E43AFA1280
:102CA3000008D190001C00EBF0A3EAF0A3E9F012B6
:102CB300006899EF6401600790001B7101433CE4D5
:102CC30090001B7EF0A3F0D2010143C6C2027B0138
:102CD3007A0E79A7C003C002C00190001B6AE0FB13
:102CE300A3E0FAA3E02416F9E43AFA120008EE90FE
:102CF300001B6AE0FBA3E0FAA3E02419F9E43AFA23
:102D0300740475F000120006B090001B6AE0FBA388
:102D1300E0FAA3E02407F9E43AFA120008D1E9241F
:102D230004F9E43AFA12000524FF7E0090001B7EAA
:102D3300EEF0A3EFF090001B6A7062E0FBA3E0FAF1
:102D4300A3E02407F9E43AFA120008D1E92405F9CB
:102D5300E43AFA12000524FF90001B7EEEF0A3EF85
:102D6300F0D20290001B6AE0FBA3E0FAA3E0240781
:102D7300F9E43AFA120008D1E92407F9E43AFA121D
:102D830000DA4D90001B731200089990001B7FE03E
:102D93002400FF90001B7EE03401FE802DE0FBA3A6
:102DA300E0FAA3E02407F9E43AFA120008D1E9248F
:102DB30006F9E43AFA1200DA4D90001B7312000888
:102DC3009990001B7EE0FEA3E0FF90001B6AE0FBEE
:102DD300A3E0FAA3E02419F9E43AFAEE8FF0120023
:102DE30006B0E4FFFE7D08FC90001B73E0F8A3E04F
:102DF300F9A3E0FAA3E0FBC31200080D50409000D2
:102E03001B6AE0FBA3E0FAA3E02419F9E43AFA12FF
:102E1300000636FFE4FCFD90001B73E0F8A3E0F925
:102E2300A3E0FAA3E02FFFEA35F0FEED39FDEC381D
:102E3300FCE4FBFA7908F8D31200080D50030142B1
:102E4300EE90001B73A3A3A3E0540FFFE4FEFDFC6D
:102E5300FBFAF9F8C31200080D6003013A979000DA
:102E63001B6AE0FBA3E0FAA3E02419F9E43AFA129F
:102E7300000636FBAAF0D39438EA94005068900019
:102E83001B73E0FCA3E0FDA3E0FEA3E0FF90001BA7
:102E9300FFEBF090001B6AE0FBA3E0FAA3E024073A
:102EA300F9E43AFA120008D1E92406F9E43AFA906F
:102EB300001C00EBF0A3EAF0A3E9F012007BF5EFAE
:102EC3006401600790001B7101433CC20390001B27
:102ED3006AE0FBA3E0FAA3E02415F9E43AFAE4126A
:102EE300000556012FD290001B6AE0FBA3E0FAA372
:102EF300E02415F9E43AFA740112000556D203E40A
:102F030090001B7CF0A3F090001B6AE0FBA3E0FAA7
:102F1300A3E02419F9E43AFA12000636FFAEF09062
:102F2300001B7CE0FCA3E0FDC39FEC9E4003012F4C
:102F3300D2C3EF9DFFEE9CFEC3EF9440EE9400409E
:102F4300047F40800090001B7BEFF0A3E0FEA3E032
:102F5300FFE4FCFD90001B73E0F8A3E0F9A3E0FAA3
:102F6300A3E02FFFEA3EFEED39FDEC38FC90001B99
:102F73007BE090001BFFF090001B6AE0FBA3E0FAEC
:102F8300A3E02416F9E43AFA120008D190001B7C5E
:102F9300E0F8A3E029F9EA38FA90001C00EBF0A36B
:102FA300EAF0A3E9F012007BF5EF640160099000F9
:102FB3001B7174B1F0801890001B7BE0FF90001B25
:102FC3007DE02FF090001B7CE03400F0012F0A908D
:102FD300001B6AE0FBA3E0FAA3E02419F9E43AFA40
:102FE30012000636FF90001B7EE5F0F0A3EFF0D24F
:102FF300010143BB1200B27F4003013DDDE47F606A
:10300300FEFDFC90001BFF7420F090001B6AE0FBA8
:10301300A3E0FAA3E0240AF9E43AFA120008D190F3
:10302300001C00EBF0A3EAF0A3E9F012007BF5EF3C
:103033006401600790001B7101433C90001B72E028
:10304300705690001B6AE0FBA3E0FAA3E02407F9A3
:10305300E43AFA120008D1E92406F9E43AFAC00383
:10306300C002C00190001B6AE0FBA3E0FAA3E024C6
:103073000AF9E43AFA120008D1A801AC02AD03D070
:1030830001D002D0037E007F0612000A7CC3EF64E6
:10309300809480400301337090001B6AE0FBA3E03F
:1030A300FAA3E02407F9E43AFA120008D1E9240C60
:1030B300F9E43AFA1200DA4D90001B7312000899F2
:1030C3007FA07E867D017C0090001B73E0F8A3E067
:1030D300F9A3E0FAA3E0FBD31200080D4003013A81
:1030E3009790001B6AE0FBA3E0FAA3E02407F9E44E
:1030F3003AFA120008D1E9240FF9E43AFA1200056A
:1031030024D394604003013A9790001B6AE0FBA329
:10311300E0FAA3E02407F9E43AFA120008D1E9241B
:1031230010F9E43AFA1200F1C790001B7CEEF0A309
:10313300EFF0E4FCFD7B407A7E7905F8C3120007CB
:10314300F7401090001B7DE0943C90001B7CE094C2
:10315300005003013A977E007F207DFF90001B6A99
:10316300E0FBA3E0FAA3E0240AF9E43AFA12000828
:10317300D1120009B390001B6AE0FBA3E0FAA3E0BD
:103183002407F9E43AFA120008D1E92406F9E43AEB
:10319300FAC003C002C00190001B6AE0FBA3E0FA7F
:1031A300A3E0240AF9E43AFA120008D1A801AC0218
:1031B300AD03D001D002D0037E007F0C12000B0FB1
:1031C30090001B6AE0FBA3E0FAA3E0240AF9E43AC7
:1031D300FA120008D17D1E7C001200E59990001BB5
:1031E3007CEEF0A3EFF090001B6AE0FBA3E0FAA3F0
:1031F300E0240AF9E43AFA120008D1E9241EF9E4BA
:103203003AFA1200EFB2E47F60FEFDFC90001BFF70
:103213007420F090001B6AE0FBA3E0FAA3E0240A09
:10322300F9E43AFA120008D190001C00EBF0A3EA8B
:10323300F0A3E9F012006899EF6401600790001BA6
:103243007101433C90001B6AE0FBA3E0FAA3E02476
:1032530007F9E43AFA120008D1E92406F9E43AFA44
:1032630078307C0C7D017E007F0612000B0F9000EE
:103273001B6AE0FBA3E0FAA3E02407F9E43AFA129D
:103283000008D1E9240CF9E43AFA1200DA4D90006F
:103293000C361200089990001B6AE0FBA3E0FAA326
:1032A300E02407F9E43AFA120008D1E9240FF9E41B
:1032B3003AFA1200052490000C3CF090001B6AE0DF
:1032C300FBA3E0FAA3E02407F9E43AFA120008D1D9
:1032D300E92410F9E43AFA1200F1C790000C3AEE2F
:1032E300F0A3EFF00143BB1200B27F401990001B23
:1032F3006AE0FBA3E0FAA3E02415F9E43AFAE41246
:1033030000055601417190001B6AE0FBA3E0FAA39C
:10331300E02415F9E43AFAE4120005567F807E0DA5
:103323007D03FC90001B731200089990001B72E050
:103333006499604390000C49E0603C90001B6AE094
:10334300FBA3E0FAA3E02407F9E43AFA120008D158
:10335300E92407F9E43AFA784A7C0C7D017E007F80
:103363000612000A7CC3EF64809480400A90001B1D
:10337300717401F00143C690001B807402F0A3E452
:10338300F090001B6AE0FBA3E0FAA3E02407F9E452
:103393003AFA120008D1E92405F9E43AFA120005D1
:1033A3002490001B72F06401600301352190001B1F
:1033B3006AE0FBA3E0FAA3E02407F9E43AFA120077
:1033C30008D1E92406F9E43AFAC003C002C0019027
:1033D300001B6AE0FBA3E0FAA3E02416F9E43AFA3F
:1033E300120008D190001B80E0FEA3E029F9EA3E19
:1033F300A801FCAD03D001D002D0037E007F0612EA
:10340300000B0F90001B81E02406F090001B80E06E
:103413003400F090001B6AE0FBA3E0FAA3E024165B
:10342300F9E43AFA120008D190001B80E475F00128
:1034330012000620FEE925F0F9EA3EFA745512005F
:10344300055690001B6AE0FBA3E0FAA3E02416F9FB
:10345300E43AFA120008D190001B80E475F00112DF
:10346300000620FEE925F0F9EA3EFA74AA120005E7
:103473005690001B6AE0FBA3E0FAA3E02407F9E4FB
:103483003AFA120008D1E9240CF9E43AFAC003C06D
:1034930002C00190001B6AE0FBA3E0FAA3E024163C
:1034A300F9E43AFA120008D190001B80E0FEA3E091
:1034B30029F9EA3EA801FCAD03D001D002D0037E76
:1034C300007F2012000B0F90001B81E02420F0905E
:1034D300001B80E03400F090001B6AE0FBA3E0FADD
:1034E300A3E02416F9E43AFA120008D190001B80F5
:1034F300E0FEA3E029F9EA3EA801FCAD037B017AD3
:103503000C79707E017F0012000B0F90001B81E08D
:103513002400F090001B80E03401F001383F90005C
:103523001B72E0640260030136FD90001B6AE0FB3E
:10353300A3E0FAA3E02407F9E43AFA120008D1E978
:103543002407F9E43AFAC003C002C00190001B6AE1
:10355300E0FBA3E0FAA3E02416F9E43AFA12000828
:10356300D190001B80E0FEA3E029F9EA3EA801FC0C
:10357300AD03D001D002D0037E007F0612000B0FF3
:1035830090001B81E02406F090001B80E03400F0E3
:1035930090001B6AE0FBA3E0FAA3E02416F9E43AE7
:1035A300FA120008D190001B80E475F001120006A6
:1035B30020FEE925F0F9EA3EFA745512000556900B
:1035C300001B6AE0FBA3E0FAA3E02416F9E43AFA4D
:1035D300120008D190001B80E475F0011200062050
:1035E300FEE925F0F9EA3EFA74AA120005569000A6
:1035F3001B6AE0FBA3E0FAA3E02416F9E43AFA120B
:103603000008D190001B80E0FEA3E029F9EA3EA860
:1036130001FCAD037B017A0C79507E007F20120000
:103623000B0F90001B81E02420F090001B80E034FE
:1036330000F090001B6AE0FBA3E0FAA3E02407F983
:10364300E43AFA120008D1E9240DF9E43AFAC00386
:10365300C002C00190001B6AE0FBA3E0FAA3E024D0
:1036630016F9E43AFA120008D190001B80E0FEA399
:10367300E029F9EA3EA801FCAD03D001D002D00352
:103683007E007F3312000B0F90001B81E02433F088
:1036930090001B80E03400F090001B6AE0FBA3E085
:1036A300FAA3E02416F9E43AFA120008D1C003C0E1
:1036B30002C00190001B6AE0FBA3E0FAA3E024161A
:1036C300F9E43AFA120008D190001B80E0FEA3E06F
:1036D30029F9EA3EA801FCAD03D001D002D0037E54
:1036E300007FCD12000B0F90001B81E024CDF090E2
:1036F300001B80E03400F001383F90001B72E0644F
:1037030003600301383C90001B6AE0FBA3E0FAA3CB
:10371300E02416F9E43AFA120008D1E92404F9E4A2
:103723003AFAC003C002C00190001B6AE0FBA3E0A9
:10373300FAA3E02416F9E43AFA120008D190001B28
:1037430080E0FEA3E029F9EA3EA801FCAD03D00125
:10375300D002D0037E007F0612000B0F90001B8166
:10376300E02406F090001B80E03400F090001B6A18
:10377300E0FBA3E0FAA3E02416F9E43AFA12000806
:10378300D190001B80E475F00112000620FEE925AC
:10379300F0F9EA3EFA74551200055690001B6AE0F0
:1037A300FBA3E0FAA3E02416F9E43AFA120008D1E5
:1037B30090001B80E475F00112000620FEE925F05D
:1037C300F9EA3EFA74AA1200055690001B6AE0FB60
:1037D300A3E0FAA3E02416F9E43AFA120008D1E9C7
:1037E300240AF9E43AFAC003C002C00190001B6A3C
:1037F300E0FBA3E0FAA3E02416F9E43AFA12000886
:10380300D190001B80E0FEA3E029F9EA3EA801FC69
:10381300AD03D001D002D0037E017F2012000B0F35
:1038230090001B81E02420F090001B80E03401F025
:1038330090000C497401F080030142EE90001B7E5E
:103843007401F0A37428F090001B6AE0FBA3E0FA74
:10385300A3E02416F9E43AFA120008D1E429F9EABC
:103863003402FA7D287C011200E59990001B7CEE5E
:10387300F0A3EFF090001B6AE0FBA3E0FAA3E024BF
:1038830016F9E43AFA120008D1E429F9EA3402FA03
:1038930090001B7EE0FCA3E029F9EA3CFA1200EF5A
:1038A300B290001B7FE02402F090001B7EE0340006
:1038B300F0E490001B7CF0A3F090001B7EE0FEA3DD
:1038C300E0FF90001B7CE0FCA3E0FDC39FEC9E4067
:1038D3000301397FC390001B7FE09DFF90001B7E97
:1038E300E09CFEC3EF9440EE940040047F408000D0
:1038F30090001B7BEFF0A3E0FEA3E0FFE4FCFD9050
:10390300001B73E0F8A3E0F9A3E0FAA3E02FFFEABA
:103913003EFEED39FDEC38FC90001B7BE090001B74
:10392300FFF090001B6AE0FBA3E0FAA3E02416F982
:10393300E43AFA120008D1E429F9EA3402FA9000D1
:103943001B7CE0F8A3E029F9EA38FA90001C00EBAD
:10395300F0A3EAF0A3E9F012006899EF64016009AB
:1039630090001B7174B1F0801390001B7DE0244024
:10397300F090001B7CE03400F00138BC90001B8009
:103983007402F0A3E4F090001B6AE0FBA3E0FAA347
:10399300E02416F9E43AFA120008D1E429F9EA34EA
:1039A30002FA784A7C0C7D017E007F0612000B0F21
:1039B30090001B81E02408F090001B80E03400F0AD
:1039C30090001B6AE0FBA3E0FAA3E02416F9E43AB3
:1039D300FA120008D190001B80E0FEA3E029F9EA67
:1039E3003EFA78507C0C7D017E007F2012000B0F85
:1039F30090001B81E02420F090001B80E03400F055
:103A030090001B6AE0FBA3E0FAA3E02416F9E43A72
:103A1300FA120008D190001B80E0FEA3E029F9EA26
:103A23003EFA78707C0C7D017E017F0012000B0F43
:103A3300E490001B7EF0A3F090001B71F0C2010123
:103A430043C690001B72E0B4552490001B6AE0FB50
:103A5300A3E0FAA3E02407F9E43AFA120008D1E953
:103A63002405F9E43AFA1200052464AA60028024CA
:103A730090001B6AE0FBA3E0FAA3E02407F9E43A11
:103A8300FA120008D1E92406F9E43AFA12000524EF
:103A93006406600A90001B7174A4F00143C67E00A3
:103AA3007F027D0090001B6AE0FBA3E0FAA3E02401
:103AB3000AF9E43AFA120008D1120009B37FC07E72
:103AC3000E7D037C0090001B6AE0FBA3E0FAA3E0F9
:103AD300240AF9E43AFA120008D11200E4439000F0
:103AE3001B6AE0FBA3E0FAA3E0240AF9E43AFA1222
:103AF3000008D1C003C002C00190001B6AE0FBA311
:103B0300E0FAA3E0240AF9E43AFA120008D1E9241E
:103B130003F9E43AFA90001C00EBF0A3EAF0A3E9FE
:103B2300F0D001D002D0037D037C001200E80CE446
:103B3300FFFEFDFC90001B6AE0FBA3E0FAA3E02478
:103B43000AF9E43AFA120008D1E92406F9E43AFA48
:103B53001200E44390001B6AE0FBA3E0FAA3E02415
:103B63000AF9E43AFA120008D1E92406F9E43AFA28
:103B7300C003C002C00190001B6AE0FBA3E0FAA3EC
:103B8300E0240AF9E43AFA120008D1E92409F9E435
:103B93003AFA90001C00EBF0A3EAF0A3E9F0D0019D
:103BA300D002D0037D037C001200E80CE4FFFEFD8D
:103BB300FC90001B6AE0FBA3E0FAA3E0240AF9E40B
:103BC3003AFA120008D1E9240CF9E43AFA1200DCBB
:103BD300D090001B6AE0FBA3E0FAA3E0240AF9E417
:103BE3003AFA120008D1E92417F9E43AFA74FF12F9
:103BF30000055690001B6AE0FBA3E0FAA3E0240A49
:103C0300F9E43AFA120008D17D187C001200E59914
:103C130090001B7CEEF0A3EFF090001B6AE0FBA387
:103C2300E0FAA3E0240AF9E43AFA120008D1E924FD
:103C330018F9E43AFA1200EFB2E47F10FEFDFC90AB
:103C4300001BFF741AF090001B6AE0FBA3E0FAA3C9
:103C5300E0240AF9E43AFA120008D190001C00EBC0
:103C6300F0A3EAF0A3E9F012006899EF640160079A
:103C730090001B7101433CE47FA0FEFDFC90001B00
:103C8300FF741AF090001B6AE0FBA3E0FAA3E024A0
:103C93000AF9E43AFA120008D190001C00EBF0A3F1
:103CA300EAF0A3E9F012006899EF6401600790005D
:103CB3001B7101433CE4FFFEFDFC90000C27120046
:103CC30008997FC07E0E7D037C0090000C231200B8
:103CD3000899E4FFFEFDFC90000C41120008999046
:103CE300000C2274FFF0E4FFFEFDFC90000C2B128D
:103CF300000899013DCE90001B6AE0FBA3E0FAA304
:103D0300E02407F9E43AFA120008D1E92405F9E4BA
:103D13003AFA12000524FF7E0090001B7EEEF0A30A
:103D2300EFF0D39410EE940040030142EE90001B99
:103D33006AE0FBA3E0FAA3E02407F9E43AFA1200ED
:103D430008D190001B7FE02406FF90001B7EE03427
:103D530000FEE92FF9EA3EFAE4120005567FD0FE91
:103D6300FDFC90001BFF7410F090001B6AE0FBA3A6
:103D7300E0FAA3E02407F9E43AFA120008D1E924AF
:103D830006F9E43AFA90001C00EBF0A3EAF0A3E989
:103D9300F012006899EF6401600790001B71014302
:103DA3003C90001B6AE0FBA3E0FAA3E02407F9E4DC
:103DB3003AFA120008D1E92406F9E43AFA78B77C12
:103DC3000D7D017E007F1012000B0FE490001B712C
:103DD300F00140831200B27F4003014171E4FFFE12
:103DE300FDFC90001B731200089990001B72E07099
:103DF300471200B9E7EF4E700A90001B71745DF033
:103E03000143C6E4FFFEFDFC90000C27E0F8A3E0AD
:103E1300F9A3E0FAA3E0FBC31200080D70097FC009
:103E23007E0E7D03FC807C90000C27E0FCA3E0FD6C
:103E3300A3E0FEA3E0FF806B90001B72E0640170BF
:103E43006C90001B6AE0FBA3E0FAA3E02407F9E40B
:103E53003AFA120008D1E92405F9E43AFA12000506
:103E630024640460030142EE90001B6AE0FBA3E0BC
:103E7300FAA3E02407F9E43AFA120008D1E9240688
:103E8300F9E43AFA1200C8BA90001B7712000899B5
:103E930090001B77E0FCA3E0FDA3E0FEA3E0FF128C
:103EA300009C7F90001B731200089980030142EE6F
:103EB300E4FFFEFDFC90001B73E0F8A3E0F9A3E030
:103EC300FAA3E0FBC31200080D60197FC07E0E7DCC
:103ED300037C0090001B73E0F8A3A3A3E0C31200CC
:103EE300080D50030142EE90001B73E0FCA3E0FDBC
:103EF300A3E0FEA3E0FF90001BFF7440F090001BC3
:103F03006AE0FBA3E0FAA3E02416F9E43AFA12000C
:103F130008D190001C00EBF0A3EAF0A3E9F0120033
:103F23007BF5EF6401600790001B7101433C900037
:103F33001B6AE0FBA3E0FAA3E02415F9E43AFA7460
:103F4300011200055690001B6AE0FBA3E0FAA3E010
:103F53002419F9E43AFAE475F040120006B090002F
:103F63001B7EE4F0A37440F0E490001B71F0D201D7
:103F7300D2030143C690001B72E064016003014257
:103F8300EE90001B6AE0FBA3E0FAA3E02407F9E448
:103F93003AFA120008D1E92405F9E43AFA120005C5
:103FA30024640460030142EE90001B6AE0FBA3E07B
:103FB300FAA3E02407F9E43AFA120008D1E9240647
:103FC300F9E43AFA1200C8BA90001B771200089974
:103FD30090000C27E0FCA3E0FDA3E0FEA3E0FF902C
:103FE300001BFF7440F090001B6AE0FBA3E0FAA300
:103FF300E02416F9E43AFA120008D190001C00EB11
:10400300F0A3EAF0A3E9F012007BF5EF6401600787
:1040130090001B7101433C90001B6AE0FBA3E0FA94
:10402300A3E02416F9E43AFA120008D1E92405F9C9
:10403300E43AFA1200C8BA90001B73120008999070
:10404300001B77E0FCA3E0FDA3E0FEA3E0FF9000EC
:104053001B73E0F8A3E0F9A3E0FAA3E0FBC31200AB
:10406300080D600A90001B71745EF00143C61200D4
:104073007E9A90001B71EFF060030143C6D201E406
:1040830090001B7EF0A3F00143C61200B27F4003F1
:104093000141711200F20B90001B6AE0FBA3E0FAEE
:1040A300A3E0240AF9E43AFA120008D11200617B72
:1040B30090001B6AE0FBA3E0FAA3E0240AF9E43AC8
:1040C300FA120008D1E92401F9E43AFAC003C00264
:1040D300C00190001B6AE0FBA3E0FAA3E0240AF905
:1040E300E43AFA120008D1E92404F9E43AFA900018
:1040F3001C00EBF0A3EAF0A3E9F0D001D002D00357
:104103007D037C001200E80CE47F80FEFDFC900040
:104113001BFF7406F090001B6AE0FBA3E0FAA3E028
:10412300240AF9E43AFA120008D1E92401F9E43A3D
:10413300FA90001C00EBF0A3EAF0A3E9F012006888
:1041430099EF6401600790001B7101433CE4900008
:104153000C3DF090001B71F0C20190001B7EF0A398
:10416300F07D647F0B0142DC1200B27F400A9000B5
:104173001B7174A5F00143C690001B72E064996043
:1041830003014214FE7F20FD7B017A0E79A7120002
:1041930009B3E47F207E01FD806C7F3F7E0D7D03AC
:1041A3007C0090001B73E0F8A3E0F9A3E0FAA3E01E
:1041B300FBC31200080D40030143C690001B73E0CC
:1041C300FCA3E0FDA3E0FEA3E0FF90001BFF74202F
:1041D300F0A37401F0A3740EF0A374A7F0120068A7
:1041E30099EF6401600790001B7101433C90001B31
:1041F30073E0FCA3E0FDA3E0FEA3E02420FFE43E84
:10420300FEE43DFDE43CFC90001B73120008998022
:104213008990001B72E060030142E390001B6AE097
:10422300FBA3E0FAA3E02407F9E43AFA120008D169
:10423300E92405F9E43AFA1200052490001B72F010
:10424300D3940A40030142EEE490001B7BF09000FC
:104253001B72E0FF90001B7BE0FEC39F503D90006C
:104263001B6AE0FBA3E0FAA3E02407F9E43AFA129D
:104273000008D1E9240DF9E43AFAEE25E025E07EC1
:104283000029F9EE3AFA1200B51390001B71EFF012
:10429300700990001B7BE004F080B390001B6AE080
:1042A300FBA3E0FAA3E02407F9E43AFA120008D1E9
:1042B300E92407F9E43AFA1200D41E90001B71EFC7
:1042C300F060030143C6E490001B71F0C20190004B
:1042D3001B7EF0A3F07D647F0A1200BC330143C64A
:1042E300800990001B72E06499600A90001B71744E
:1042F3005CF00143C67F607E0D7D037C0090001B54
:10430300FF740AF090001B6AE0FBA3E0FAA3E02429
:1043130007F9E43AFA120008D1E92406F9E43AFA73
:1043230090001C00EBF0A3EAF0A3E9F012007BF588
:10433300EF6401600A90001B7174B1F00143C690F1
:10434300001B6AE0FBA3E0FAA3E02407F9E43AFACE
:10435300120008D1E92406F9E43AFA7D067C00123A
:1043630000E95E90001B6AE0FBA3E0FAA3E02407E8
:10437300F9E43AFA120008D1E9240CF9E43AFA1202
:104383000005246F60267E007F027D0090001B6A7B
:10439300E0FBA3E0FAA3E02407F9E43AFA120008E9
:1043A300D1E92406F9E43AFA120009B3D2019000E4
:1043B3001B7EE4F0A37406F0E490001B71F080030D
:1043C3007FA32290001B70E0FF90001B6AE0FBA319
:1043D300E0FAA3E02407F9E43AFA120008D1E92449
:1043E30003F9E43AFAEF1200055690001B71E0FF5F
:1043F30090001B6AE0FBA3E0FAA3E02407F9E43A88
:10440300FA120008D1E92404F9E43AFAEF1200059C
:104413005620035B90001B6AE0FBA3E0FAA3E024B1
:1044230007F9E43AFA120008D190001B7EA3E0FDDD
:10443300A20192041200A31A90001B7BEFF09000DC
:104443001B6AE0FBA3E0FAA3E0240DF9E43AFAE4E3
:10445300F5F0120006B090001B6AE0FBA3E0FAA39C
:10446300E0F9C003C002C001EFFD7C00A3803E90D1
:10447300001B6AE0FBA3E0FAA3E0F990001B7EE0D7
:10448300FCA3E0FDA201920412008A9D504090001B
:104493001B6AE0FBA3E0FAA3E0F9C003C002C0017A
:1044A30090001B7EE0FCA3E0FD90001B6DE0FBA3EE
:1044B300E0FAA3E02406F9E43AFA120008D189826B
:1044C3008A838B93D001D002D003120009AC7B8185
:1044D3007A1D795FE4FD7F011200DC3301236090D4
:1044E300001C1FEFF0A3EDF0A3EBF0A3EAF0A3E9A8
:1044F300F0E490001C25F0A3F090001C28F090003D
:104503001C2FF0A3F0A3F0A304F0A3F0E4A3F0A303
:10451300F0A3F0A3F0A3F0F514F513F512F51112BF
:1045230000F17990001C21E0FBA3E0FAA3E0F9126B
:1045330000225A90001C27EFF090001C24E0600931
:1045430090001C3974FFF08006E490001C39F09051
:10455300001C1FE025E090001C26F0A3E0F9FD906D
:10456300001C20E0FE2DFDE433FCC3ED9410EC644D
:104573008094804003014664EEC394084042E49073
:10458300001C2FF090001C20E0940890001C30F0D9
:10459300E490001C29F090001C2BE9F0E0FFC3130A
:1045A300FEA3F0E490001C2AF090001C38EEF0EF1C
:1045B300540190001C2EF0E490001C2DF0014713D1
:1045C30090001C20E0FF90001C2FF090001C27E0BF
:1045D300FEFDEF2DFDE433FCC3ED9408EC64809401
:1045E30080500990001C29EEF0E4801790001C20F5
:1045F300E0FFC374089FFF90001C29F090001C2764
:10460300E0C39F90001C2BF0E490001C30F090005E
:104613001C29E0FFC313A3F090001C37F0EF5401F3
:1046230090001C2DF090001C2BE0FFC313A3F0900F
:10463300001C38F0EF540190001C2EF0700301476A
:104643001390001C2DE0700301471390001C30E011
:1046530004F090001C2CE004F0E090001C380147AB
:104663000B90001C20E0C394084042E490001C2DF2
:10467300F090001C20E0FF74109F90001C2BF0E4CE
:1046830090001C29F0A3F090001C2FF0C3EF9408B6
:10469300A3F090001C2BE0FFC313A3F090001C3881
:1046A300F0EF540190001C2EF06065805C90001CBC
:1046B30020E0FFC374089F90001C29F090001C2B7E
:1046C3007408F090001C2FEFF0E4A3F090001C2975
:1046D300E0FFC313A3F090001C37F0EF5401FF90E9
:1046E300001C2DF090001C2BE0FEC313A3F09000E0
:1046F3001C38F07408540190001C2EF0EF60117404
:1047030001F090001C30E004F090001C347401F0C0
:10471300E490001C28F090001C27E0FFA3E0C39F57
:104723004003014BEA1200227AE490001C31F0901E
:10473300001C28E0FD90001C607401F0A3741CF0C1
:10474300A3745AF090001C21E0FBA3E0FAA3E0F964
:104753001200D299EF64026003014BE090001C5AEF
:10476300E0FEA3E0FF1200DF2C8F148E138D128C5A
:10477300117F407E047D047C00AB14AA13A912A808
:1047830011C31200080D505BE4F51575BE01E42555
:1047930014FBE43513FAE5123430F9E43511F8E487
:1047A300FCFDFEEB2515FFEE3AFEED39FDEC38FC82
:1047B300E42FFFE43EFEED3401FDA907AA06AB0595
:1047C30012000524F516E4F5BE743A2515F582E4C6
:1047D300341CF583759300E516F00515E515B42033
:1047E300AA80107E007F207DFF7B017A1C793A121C
:1047F3000009B390001C2AE0D3940050030149251B
:1048030090001C37E0FF90001C35E09F40030149F6
:104813002590001C26E044B8FB7D01E4FF12001F35
:10482300D990001C32E0600B90001C2FE075F0085B
:10483300A4801390001C35E0C454F0FF90001C2F9B
:10484300E075F008A42F4440FB7D01E4FF12001F34
:10485300D9E490001C25F090001C25E0FFC39410C0
:104863005028743A2FF582E4341CF583759300E0E5
:10487300FF90001C39E0FEEF6EFBE4FDFF12001F0A
:10488300D990001C25E004F080CD90001C26E004A4
:1048930044B8FB7D01E4FF12001FD990001C32E0F5
:1048A300600B90001C2FE075F008A4801390001C8F
:1048B30035E0C454F0FF90001C2FE075F008A42FDE
:1048C3004440FB7D01E4FF12001FD990001C2574B6
:1048D30010F090001C25E0FFC394205028743A2F59
:1048E300F582E4341CF583759300E0FF90001C39D6
:1048F300E0FEEF6EFBE4FDFF12001FD990001C25C4
:10490300E004F080CDE490001C32F090001C2AE01B
:1049130014F0E0700690001C3104F090001C35E0A8
:1049230004F090001C2AE06003014BE090001C2C73
:10493300E0D394005003014BE090001C31E064018C
:104943007003014BE090001C38E0FF90001C36E040
:104953009F4003014BE090001C2EE07003014AC30B
:1049630090001C2DE07003014AC390001C26E04414
:10497300B8FB7D01E4FF12001FD97B787D01E4FFC2
:1049830012001FD9E490001C25F090001C25E0FFC5
:10499300C394085028743A2FF582E4341CF58375C8
:1049A3009300E0FF90001C39E0FEEF6EFBE4FDFF97
:1049B30012001FD990001C25E004F080CD90001C4C
:1049C30026E00444B8FB7D01E4FF12001FD97B7885
:1049D3007D01E4FF12001FD990001C257410F09094
:1049E300001C25E0FFC394185028743A2FF582E485
:1049F300341CF583759300E0FF90001C39E0FEEF53
:104A03006EFBE4FDFF12001FD990001C25E004F0AB
:104A130080CD90001C26E044B8FB7D017F0112008D
:104A23001FD97B407D017F0112001FD990001C25F7
:104A33007408F090001C25E0FFC394105029743AC9
:104A43002FF582E4341CF583759300E0FF90001C7E
:104A530039E0FEEF6EFBE4FD7F0112001FD99000E9
:104A63001C25E004F080CC90001C26E00444B8FB35
:104A73007D017F0112001FD97B407D017F01120060
:104A83001FD990001C257418F090001C25E0FFC36B
:104A930094204003014BC9743A2FF582E4341CF58A
:104AA30083759300E0FF90001C39E0FEEF6EFBE49A
:104AB300FD7F0112001FD990001C25E004F080C97E
:104AC30090001C26E044B8FB7D017F0112001FD932
:104AD30090001C33E0600FA3E0600B90001C30E0FB
:104AE30075F008A4801390001C36E0C454F0FF90C6
:104AF300001C30E075F008A42F4440FB7D017F01CA
:104B030012001FD9E490001C25F01200227A9000B5
:104B13001C25E0243AF582E4341CF583759300E008
:104B2300FF90001C39E0FEEF6EFBE4FD7F011200F5
:104B33001FD990001C25E004F0E0C3941040CB90F3
:104B4300001C26E00444B8FB7D017F0112001FD93D
:104B530090001C33E0600FA3E0600B90001C30E07A
:104B630075F008A4801390001C36E0C454F0FF9045
:104B7300001C30E075F008A42F4440FB7D017F0149
:104B830012001FD990001C257410F090001C25E022
:104B9300FFC394205029743A2FF582E4341CF58323
:104BA300759300E0FF90001C39E0FEEF6EFBE4FD1F
:104BB3007F0112001FD990001C25E004F080CC90E7
:104BC300001C36E004F0E490001C2EF090001C2D35
:104BD300F090001C33F090001C2CE014F090001CAB
:104BE30028E004F0014719E4FF0200F17E90001B66
:104BF300A3EBF0A3EAF0A3E9F090001BFA741AF018
:104C03007E007F407D007B017A1B79AE120009B3E1
:104C13007E007F027D007B017A1B79EE120009B3CF
:104C230090001BF87401F0E47F10FEFDFC90001B64
:104C3300FAE090001BFFF0A37401F0A3741BF0A330
:104C430074AEF012007BF57E0090001BA6EEF0A37D
:104C5300EFF070037FB1227B017A1B79AE90001BCA
:104C6300FAE0C39402FD7C001200E59990001BA8B2
:104C7300EEF0A3EFF07B017A1B79EE1200EFB2782E
:104C8300EE7C1B7D017B017A1B79C67E007F0212BD
:104C9300000A7CEF6003014D4890001BF7F0900081
:104CA3001BF7E0FF24B1F582E4341BF58375930011
:104CB300E0F4FE74AE2FF582E4341BF583759300A4
:104CC300E0B5063190001BF7E0FF24B7F582E4342A
:104CD3001BF583759300E0F4FE74B42FF582E4347E
:104CE3001BF583759300E0B5060B90001BF7E004FA
:104CF300F0E0B403A978777C0D7D017B017A1B7901
:104D0300AE7E007F4012000B0FE490001BF8F09082
:104D1300000C2FE0702F7FA0FEFDFC90001BFAE03B
:104D230090001BFFF0A37401F0A3741BF0A374AEF7
:104D3300F0120068997E0090001BA6EEF0A3EFF03E
:104D430070037FB12290001BF8E064016003014E01
:104D530054FE7F40FD7B017A1B79AE120009B3E458
:104D63007FA0FEFDFC90001BFAE090001BFFF0A368
:104D73007401F0A3741BF0A374AEF012007BF57EF4
:104D83000090001BA6EEF0A3EFF070037FB1227E2C
:104D9300007F027D007B017A1B79EE120009B37B51
:104DA300017A1B79AE7D187C001200E59990001BF7
:104DB300A8EEF0A3EFF07B017A1B79EE1200EFB2BD
:104DC30078EE7C1B7D017B017A1B79C67E007F0216
:104DD30012000A7CEF60037F5C22E490001BF7F073
:104DE30090001BF7E0FF24B1F582E4341BF58375D3
:104DF3009300E0F4FE74AE2FF582E4341BF5837563
:104E03009300E06E60037F5C2290001BF7E0FF24B9
:104E1300B7F582E4341BF583759300E0F4FE74B4B4
:104E23002FF582E4341BF583759300E06E60037FF6
:104E33005C2290001BF7E004F0E0B403A378777CD6
:104E43000D7D017B017A1B79AE7E007F4012000B42
:104E53000F7B017A1B79BA1200C8BA90001BA3E03A
:104E6300FBA3E0FAA3E02405F9E43AFA120008618F
:104E73001200084490000C2B120008997B017A1B46
:104E830079AE1200DA4D90000C23120008997B01D1
:104E93007A1B79B41200DA4D90000C27120008999E
:104EA30090001BC5E090000C22F090001BF9F0125B
:104EB30000EF8250037F0D22E4FFFEFDFC90000C07
:104EC30027E0F8A3E0F9A3E0FAA3E0FBC31200088C
:104ED3000D703E7FC07E0E7D03FC90000C271200F8
:104EE30008997FC07E0E7D037C007B017A1B79B419
:104EF3001200E44390001C007401F0A3741BF0A3A0
:104F030074B7F07B017A1B79B47D037C001200E84F
:104F13000C90000C23E0FCA3E0FDA3E0FEA3E0243F
:104F230040FFE43EFEE43DFDE43CFC90001BAA127E
:104F3300000899E4FFFE7D08FC90001BAAE0F8A39B
:104F4300E0F9A3E0FAA3E0FBC31200080D40447F9D
:104F5300C07E0E7D037C0090001BAA12000899906E
:104F6300000C27E0FCA3E0FDA3E0FEA3E0FF90001C
:104F73001BAAE0F8A3E0F9A3E0FAA3E0FBD3120035
:104F8300080D5008E490001BF9F0800790001BF90E
:104F930074FFF090001BAAE0FCA3E0FDA3E0FEA3D6
:104FA300E0FF7B017A1B79AE1200E44390001C0002
:104FB3007401F0A3741BF0A374B1F07B017A1B7925
:104FC300AE7D037C001200E80C7B017A1B79BE12D4
:104FD30000C8BA90000C411200089978F07C1B7D40
:104FE300017B017A1B79C27E007F0312000B0F90B5
:104FF300000C41E0FCA3E0FDA3E0FEA3E0FF900072
:105003001BA3E0FBA3E0FAA3E02411F9E43AFA12AC
:1050130000087CEF2BFFEE3AFEED39FDEC38FC90F7
:10502300000C4112000899783E7C0C7D017B017ACB
:105033001B79C27E007F0312000B0F90000C41E02E
:10504300FCA3E0FDA3E0FEA3E0FF7B017A1B79BE96
:105053001200DCD090001BA3E0FBA3E0FAA3E02442
:1050630005F9E43AFA12000844EF2401FFE43EFE96
:10507300E43DFDE43CFC7B017A1B79BA1200DCD0F1
:1050830090000C2BE0FCA3E0FDA3E0FEA3E02401D1
:10509300FFE43EFEE43DFDE43CFC90000C2B1200DB
:1050A300089990001BAAE0FCA3E0FDA3E0FEA3E0A7
:1050B300FF90000C231200089990001BF9E0900068
:1050C3001BC5F07B017A1B79AE7D187C001200E5CD
:1050D3009990001BA8EEF0A3EFF07B017A1B79C631
:1050E3001200EFB2E47F10FEFDFC90001BFAE0908B
:1050F300001BFFF0A37401F0A3741BF0A374AEF0C4
:10510300120068997E0090001BA6EEF0A3EFF064F6
:1051130001700D90001BF9E090000C22F07F00223B
:105123007FB12290001B857401F0E4A3F0A3740601
:10513300F07F0112009E4090001B84EFF014601674
:1051430024FC602D2403702C90001B86E0D3940074
:105153004022E014801190001B87E0FF90001B8623
:10516300E0C39F500FE004F090001B857401F080B2
:10517300037F002290001B85E060B67E007F447DA4
:10518300007B017A1B7936120009B390001B86E07D
:10519300B407004003015547900051A425E025E0E2
:1051A30073020051C00200527302005316020053EF
:1051B300A80200542C020054A5020054E490001CE1
:1051C3001C7481F0A37412F0A374D3F07B017A1BD7
:1051D300793612000C6390001C1C7481F0A37412C6
:1051E300F0A374DEF090000C1EE0FF90001C1FE49F
:1051F300F0A3EFF090000C1FE0FF90001C21E4F0FF
:10520300A3EFF090000C20E0FF90001C23E4F0A338
:10521300EFF090000C21E0FF90001C25E4F0A3EFD9
:10522300F07B017A1B794712000C6390001C1C74FD
:1052330081F0A37412F0A374EFF07B017A1B795809
:1052430012000C631200F20B7B017A1B797A1200B5
:10525300617B90001BC07401F0A3741BF0A37469FD
:10526300F07B017A1B797A7D071200DB93015547A6
:1052730090001C1C7481F0A37412F0A374F8F07BEB
:10528300017A1B793612000C6390001C1C7481F0A8
:10529300A37413F0A37403F090000C41E0FCA3E0AB
:1052A300FDA3E0FEA3E0FFE4120000CDE4FBFA79E6
:1052B300C878421200002B90001C1F120008997B33
:1052C300017A1B794712000C6390001C1C7481F057
:1052D300A37413F0A3740CF07B017A1B79581200AA
:1052E3000C6390001C1C7481F0A37413F0A374036B
:1052F300F090000C45E0FCA3E0FDA3E0FEA3E0FF7B
:10530300E4120000CDE4FBFA79C878421200002BC6
:1053130001542290001C1C7481F0A37413F0A37435
:1053230019F07B017A1B793612000C6390001C1C68
:105333007481F0A37413F0A37403F090000C36E0AF
:10534300FCA3E0FDA3E0FEA3E0FFE4120000CDE434
:10535300FBFA79C878421200002B90001C1F120040
:1053630008997B017A1B794712000C6390001C1C7F
:105373007481F0A37413F0A37422F07B017A1B7978
:105383005812000C6390001C1C7481F0A37413F07A
:10539300A3742FF090000C3CE0FF90001C1FE4F07E
:1053A300A3EF01549B90001C1C7481F0A37413F0B1
:1053B300A37435F07B017A1B793612000C639000DD
:1053C3001C1C7481F0A37413F0A3743EF090000CC2
:1053D3003AE0FFA3E090001C1FCFF0A3EFF07B01A6
:1053E3007A1B794712000C6390001C1C7481F0A394
:1053F3007413F0A37444F07B017A1B795812000CE8
:105403006390001C1C7481F0A37412F0A374C7F0A2
:1054130090000C2BE0FCA3E0FDA3E0FEA3E0FF90D3
:10542300001C1F12000899807090001C1C7481F0EE
:10543300A37413F0A3744FF07B017A1B7936120027
:105443000C631200B9E790001C1C7481F0A3741361
:10545300F0A3745AF0A3EEF0A3EFF07B017A1B796B
:105463004712000C6390001C1C7481F0A37413F0AA
:10547300A37460F07B017A1B795812000C639000CF
:105483001C1C7481F0A37413F0A37469F0A37481DA
:10549300F0A37413F0A3746CF07B017A1B79690198
:1054A300554390001C1C7481F0A37413F0A374790A
:1054B300F07B017A1B793612000C6390001C1C747C
:1054C30081F0A37413F0A37483F090000C3DE0FF0C
:1054D30090001C1FE4F0A3EFF07B017A1B79478057
:1054E3005F90001C1C7481F0A37413F0A37489F003
:1054F3007B017A1B793612000C6390001C1C7481AB
:10550300F0A37413F0A37469F0A37481F0A374136C
:10551300F0A3748FF07B017A1B794712000C639020
:10552300001C1C7481F0A37413F0A37469F0A374BA
:1055330081F0A37413F0A3749BF07B017A1B795859
:1055430012000C63E490001B85F01200F0FBE49062
:10555300001B84F090001B84E0FFC394044003010C
:105563005134EF75F011A42436F9741B35F0FA7B2E
:1055730001E490001C18F0FD1200B3CE90001B84D0
:10558300E004F080CF1200CA77EF6401600F7B81E3
:105593007A1179FD7DB17C007F5601591C1200F20E
:1055A3000B7B017A0D79701200617BE47F40FEFD75
:1055B300FC90001BFF7418F0A3E4F0A37400F0A3A5
:1055C3007422F012007BF5EF6401600F7B817A1285
:1055D30079187DB17C007F5F01591CE538B455060D
:1055E300E53964AA600F7B817A1279237D5C7C00A4
:1055F3007F640158AA78287C007D007B007A0079BB
:10560300307E007F0612000A7CEF600F7B817A12E6
:1056130079317D5C7C007F690158AA90001B8574F9
:1056230001F0A3740CF0A37416F07B007A007928C0
:105633001200E863E47F60FEFDFC90001BFF742012
:10564300F0A3E4F0A37400F0A37422F012007BF53E
:10565300EF6401600F7B817A12793A7DB17C007F20
:105663007401591C7B007A0079227D1E7C00120094
:10567300E59990001ADFEEF0A3EFF07B007A007952
:10568300421200EFB278407C007D007B007A007903
:10569300427E007F0212000A7CEF600F7B817A1248
:1056A30079457D5C7C007F7C0158AA78307C0C7D39
:1056B300017B007A0079227E007F0612000B0F7BAC
:1056C300007A0079281200DA4D90000C3612000897
:1056D3009990000C3CE52BF07B007A00792C1200AA
:1056E300F1C790000C3AEEF0A3EFF0E47F80FEFDEB
:1056F300FC90001BFF7406F0A3E4F0A37400F0A376
:105703007422F012007BF5EF6401600F7B817A1243
:10571300793A7DB17C007F8601591C90001C00E41E
:10572300F0A37400F0A37428F07B007A0079227D43
:10573300037C001200E80C78257C007D007B007A56
:105743000079287E007F0312000A7CEF60607822D4
:105753007C007D007B017A0D79717E007F0312004E
:105763000B0F90001C00E4F0A37400F0A37425F069
:105773007B007A0079227D037C001200E80CE47F31
:1057830080FEFDFC90001BFF7406F0A3E4F0A374FD
:1057930000F0A37422F012006899EF6401600F7B9C
:1057A300817A1279537DB17C007F9001591C90005E
:1057B3001AE87401F0A3740DF0A37471F07B007AFE
:1057C3000079221200E74D90000C3DEFF01200F239
:1057D3004550037F0522E490001ADFF0A3F0900008
:1057E3001ADFE0FAA3E0FBC3942AEA94015052EBD8
:1057F3002480FFEA340DFEE43403FDE433FC90001F
:105803001BFF7440F074A72BF9740E3AFAA37401CA
:10581300F0A3EAF0A3E9F012007BF5EF6401600F57
:105823007B817A12796B7DB17C007F9E01591C903C
:10583300001AE0E02440F090001ADFE03400F0802A
:105843009DE490000C49F090000EADE0B45506A322
:10585300E064AA600E7B817A1279767D5C7C007F9E
:10586300A580447B017A0E79A77D287C011200E58F
:105873009990001ADFEEF0A3EFF07B007A00792213
:105883001200EFB278227C007D007B017A0F79CF82
:105893007E007F0212000A7CEF60157B817A127909
:1058A300767D5C7C007FAC7E011200B1327F5C228E
:1058B300784A7C0C7D017B017A0E79A77E007F06F6
:1058C30012000B0F78507C0C7D017B017A0E79AFAF
:1058D3007E007F2012000B0F78707C0C7D017B0112
:1058E3007A0E79CF7E017F0012000B0FE47FD0FE8A
:1058F300FDFC90001BFF7420F0A3E4F0A37400F000
:10590300A37422F012007BF5EF640160157B817AAA
:105913001279847DB17C007FB67E011200B1327FA3
:10592300B12278B77C0D7D017B007A0079227E005D
:105933007F1012000B0FE490000DC7F090001C00C5
:10594300F0A37400F0A37442F07B007A0079327DF7
:10595300047C001200E80C78427C007D007B007A16
:105963000079367E007F0412000A7CEF6007E4FFB3
:10597300FEFDFC800A7B007A0079321200C8BA90DF
:10598300000C4512000899E490000C2FF01200E27D
:105993005E227E007F0A7D007B017A1B7940120024
:1059A30009B37E007F0A7D007B017A1B794A1200CE
:1059B30009B37E007F047DFF7B017A1B793A1200D5
:1059C30009B37E007F3B7DFF7B017A1B7954120074
:1059D30009B37E007F407DFF7B007A0079221200AD
:1059E30009B37B017A1B793A1200DE9990001B39C7
:1059F300EFF06003E0FF221200EF8250037F0D22DD
:105A03007B017A1B793A1200A18290001B39EFF0D7
:105A13006003E0FF2290000E9DE0C39401FFE49435
:105A230000FE74702FF582740C3EF583759300E0CD
:105A3300FFE4FCFDFE90000C36E0F8A3E0F9A3E0E0
:105A4300FAA3E0FB120006CCE47B64FAF9F8120037
:105A5300075790001B3EEEF0A3EFF07E007F147D0E
:105A6300007B017A1B798F120009B390000E7FE04F
:105A7300FCA3E0FDA3E0FEA3E0FF90001B5D12008A
:105A8300089978557C1B7D017B017A0C791E7E0079
:105A93007F0412000B0F786B7C1B7D017B017A0D59
:105AA30079717E007F0612000B0F90001B3EE0FE13
:105AB300A3E0FFE4FCFD90001B6512000899900031
:105AC3001BA67401F0A3741BF0A3748FF07B017AFF
:105AD3001B79541200C44590001B39EFF0600FE0AE
