:10000000021AED7E11DEFEDFFA00220200DECF537F
:10001000E8EF438EC075C7AA75C75543D803227F42
:020020000122BB
:100023000200D9290200014BEC5D046005E8590484
:100033007004020001411200010C580460F4EC4802
:1000430060F0EC7004FDFEFF22C860D82481C85024
:100053000AC39860025007020001489850C6F5820F
:10006300E9294B4A7006AB820200013775F0007C28
:100073001A7880C3EF9BEE9AED99400DC3EF9BFF77
:10008300EE9AFEED99FDE842F0DC24ACF0D0E0FFFF
:10009300D0E0FED0E0FDAB8220E7101BEB60B8ECB4
:1000A3002CFCEF33FFEE33FEED33FD02000123E8BA
:1000B30003F830E705C0F075F000EF2FFFEE33FED5
:1000C300ED33FD40B730E7C180A975F020800E7590
:1000D300F010800575F0087D007E007F003392D517
:1000E30030D504120007BFEC334010EF33FFEE337B
:1000F300FEED33FDEC33FCD5F0ED22E5F0247EA2DA
:10010300D513CC92E7CDCEFF22E9D2E7C933E8334A
:10011300F892D5EDD2E7CD33EC33FC5002B2D522C1
:10012300EC30E7100FBF000C0EBE00080DBD00043D
:100133000BEB6014A2D5EB13FCED92E7FD2274FFE9
:10014300FCFDFEFF22E480F8A2D574FF13FC7D8042
:10015300E480EFF920E73624F950037907E4F42427
:1001630002FBE582158270021583DBF6E024FB5067
:100173001BE96014E4F0E582158270021583E00444
:10018300F0B40A08E4F0D9EE7401F00A22C2D522D1
:10019300ED33EC3392D5FA602AB4FF33EDC2E77B3B
:1001A3008160067A0179B8E4227A0179C120D50405
:1001B3007A0179BC224E614E002B494E46002D49EF
:1001C3004E4600E47A08F0A3DAFC7B00740722C0F1
:1001D30093C083C082ECC0E0EDC0E0EEC0E0EFC0AE
:1001E300E0EA75F010A4CAABF075F04DA42BFBE464
:1001F30035F0FCEA2410FAEB34C5FBEC34D9FCED02
:10020300C2E7FF75F056A4F42411C5F0F434C58F8A
:10021300F0A42AE5F03BE43CF020E716120004DEEC
:10022300D0E0FFD0E0FED0E0FDD0E0FC1200002BD8
:100233008016F404120004DED0E0FFD0E0FED0E02C
:10024300FDD0E0FC120003A0D082D083D093E0FA6B
:10025300EDD2E7CD33EC332482FBE4C3CF33CFCEEF
:1002630033CECD33CD33DBF37B0775F00A846004E3
:10027300F0A31B0AE5F0F0A38FF0740AA4FFACF01F
:100283008EF0740AA42CFEACF050010C8DF0740AAD
:10029300A42CFDE435F0F0A3DBDE74072202000199
:1002A30041E86480F8E933E83360110460EFED332B
:1002B300EC337009E8FCE9FDEAFEEBFF220460DDA4
:1002C300D3EB9FEA9EE99DE8C2E78CF0C2F795F075
:1002D300400CE8CCF8E9CDF9EACEFAEBCFFB1200FB
:1002E300010C85D0F05804700320D5B1E8047008E0
:1002F3005002B2D50200014B92D5EC0460F6E4CC77
:10030300C0E0C398F8603C94186009400ED0E0FB4D
:1003130002000123E4FBFAC9FC8028E830E406E488
:10032300C9FBE4CAFCE830E305E4C9CACBFCE854E2
:10033300076010F8C3E913F9EA13FAEB13FBEC13A4
:10034300FCD8F130F531C3E49CFCEF9BFFEE9AFE41
:10035300ED99FDD0E0FBEF4E4D4C701322DB040210
:10036300000148EC2CFCEF33FFEE33FEED33FDEDE3
:1003730030E7EA02000123EF2BFFEE3AFEED39FDF1
:10038300D0E0FB50140BBB00040200014BED13FD46
:10039300EE13FEEF13FFEC13FC02000123EC4D60A0
:1003A30011E8497018ED33EC3304600DE4FCFFFEF3
:1003B300FD22E933E8330470F80200014112000121
:1003C3000C58046009E4CC2481500728500B020028
:1003D300014B28400402000148C0E0EB4A7046B9D3
:1003E3008007D0E0FB02000137EF4E701DBD80088F
:1003F300EBFFEAFEE9FD80EAE98DF0A4FEE5F002F9
:1004030000048FE9CDF9EAFEEBFFEF89F0A4FCE5E8
:10041300F0CE89F0A42EFFE435F0CD89F0A42DFEB3
:10042300E435F08067EF4E7005BD80D780C2EF8B57
:10043300F0A4ACF0EE8BF0A42CFCE435F0F8EF8ADA
:10044300F0A42CE5F038FCE433CB8DF0A42CFCE5D0
:10045300F03BF8EE8AF0A42CFCE5F038F8E433CF57
:1004630089F0A42CFCE5F038CF3400CE89F0A42F1A
:10047300FFE5F03EFEE433C98DF0A42EFEE5F0392E
:10048300CD8AF0A42FFFE5F03EFEE43DFD33D0E03E
:10049300FB50080BBB00100200014BEC2CFCEF33AC
:1004A300FFEE33FEED33FD020001233F80000041E8
:1004B30020000042C80000447A0000461C40004768
:1004C300C35000497424004B1896804CBEBC205A7C
:1004D3000E1BCA6753C21C749DC5AEFB600654074E
:1004E3006020232312000511EB5438600C12000422
:1004F300FC1200050C120003A0ECF8EDF9EEFAEF84
:10050300CB22EB1200050C80F0543803241C90001E
:1005130004AEFE93FC0EEE93FD0EEE930ECE93FF10
:1005230022EB7002E72289828A831410E704F59391
:10053300E022F593E49322BB000327F722F8EB892B
:10054300828A831410E706F593E028F022F593E4FA
:10055300932822BB0002F722BB8000500989828ABC
:10056300838B931593F022EF8DF0A4A8F0CF8CF03A
:10057300A428CE8DF0A42EFE22BC000BBE0029EFD2
:100583008DF084FFADF022E4CCF875F008EF2FFF77
:10059300EE33FEEC33FCEE9DEC984005FCEE9DFE45
:1005A3000FD5F0E9E4CEFD22EDF8F5F0EE0084205E
:1005B300D21CFEADF075F008EF2FFFED33FD4007C1
:1005C300985006D5F0F222C398FD0FD5F0EA22C267
:1005D300D5EC30E709B2D5E4C39DFDE49CFCEE30D5
:1005E300E716B2D5E4C39FFFE49EFE1200057CC369
:1005F300E49DFDE49CFC80041200057C30D507C318
:10060300E49FFFE49EFE22C5F0F8A3E028F0C5F0C6
:10061300F8E582158270021583E038F022A3F8E032
:10062300C5F025F0F0E582158270021583E0C83825
:10063300F0E822EB7007E7F5F009E7192289828ACF
:10064300831410E708F593E0F5F0A3E022F593E4B3
:1006530093F5F074019322BB000B09C5F027F7C58E
:10066300F01937F722F8EB89828A831410E707F52C
:1006730093E80200060AF59374019325F0F5F0E47C
:10068300933822BB0006F709A7F01922BB8000505C
:100693000D89828A838B931593F0E5F0A3F022E80A
:1006A3008FF0A4CC8BF0A42CFCE98EF0A42CFC8A54
:1006B300F0EDA42CFCEA8EF0A4CDA8F08BF0A42DD1
:1006C300CC3825F0FDE98FF0A42CCD35F0FCEB8E72
:1006D300F0A4FEA9F0EB8FF0A4CFC5F02ECD39FE28
:1006E300E43CFCEAA42DCE35F0FDE43CFC2275F09D
:1006F30008758200EF2FFFEE33FECD33CDCC33CC24
:10070300C58233C5829BED9AEC99E58298400CF53E
:1007130082EE9BFEED9AFDEC99FC0FD5F0D6E4CE6C
:10072300FBE4CDFAE4CCF9A88222B800C1B90059A0
:10073300BA002DEC8BF084CFCECDFCE5F0CBF9786D
:1007430018EF2FFFEE33FEED33FDEC33FCEB33FB01
:1007530010D703994004EB99FB0FD8E5E4F9FA228B
:100763007818EF2FFFEE33FEED33FDEC33FCC93386
:10077300C910D7059BE99A4007EC9BFCE99AF90F4E
:10078300D8E0E4C9FAE4CCFB2275F010EF2FFFEEBA
:1007930033FEED33FDCC33CCC833C810D7079BEC05
:1007A3009AE899400AED9BFDEC9AFCE899F80FD57D
:1007B300F0DAE4CDFBE4CCFAE4C8F922C3E49FFF0A
:1007C300E49EFEE49DFDE49CFC22EB9FF5F0EA9E93
:1007D30042F0E99D42F0EC6480C864809845F022C1
:1007E300EB9FF5F0EA9E42F0E99D42F0E89C45F06C
:1007F30022E8600FECC313FCED13FDEE13FEEF13C1
:10080300FFD8F122E8600FEFC333FFEE33FEED3381
:10081300FDEC33FCD8F122EB7006E9F802000B7112
:1008230089828A831410E706F59302000B7DF59302
:1008330002000B89BB0006E9F802000BC2BB800073
:10084300500C89828A838B9315930200086F22EBE5
:100853007006E9F802000B9989828A831410E7066F
:10086300F59302000BA6F59302000BB2ECF0A3ED97
:10087300F0A3EEF0A3EFF022A42582F582E5F03594
:1008830083F58322F8E0FBA3A3E0F925F0F0E582EA
:10089300158270021583E0FA38F022EBF0A3EAF038
:1008A300A3E9F022EB7006E9F802000BCE89828AF5
:1008B300831410E706F59302000BD7F59302000BA0
:1008C300E0D093D083D082F8E493701274019370D4
:1008D3000DA3A393F8740193F5828883E4737402E0
:1008E300936860EFA3A3A380DFD093D083D082E487
:1008F300937012740193700DA3A393F8740193F58D
:10090300828883E4737402936C70127403936D7022
:100913000C7404936E70067405936F60DDA3A3A338
:10092300A3A3A380CA8B938A838982159353937F4E
:10093300E473EF4E6022EF60010EEDBB0007F70991
:10094300DFFCA9F022BB8000500E89828A838B933F
:100953001593F0A3DFFCDEFA22EB700C87F009E6B7
:1009630008B5F019DFF6801589828A831410E70F22
:10097300F593E0F5F0A3E608B5F002DFF5806AF53C
:1009830093E493F5F0A3E608B5F05EDFF4805ACB69
:10099300701388828C838B9387F009E493A3B5F05B
:1009A30048DFF580441410E71F88848C858B958974
:1009B300828A83F593758620E0F5F0E493A3A3B5CB
:1009C300F024DFF4DEF2801E88848C858B95898287
:1009D3008A83F593758620E493F5F0E493A3A3B596
:1009E300F004DFF3DEF17586007FFFB5F0020F221E
:1009F30040027F01220200095C809488F0EF6001CD
:100A03000E4E60F0ED60EE1410E7EECB70128882AC
:100A13008C83F59387F009E0A3B5F0CDDFF680C9A9
:100A23001410E71E88848C858B9589828A83F593BD
:100A3300758620E0F5F0E0A3A3B5F0AADFF5DEF3B9
:100A430080A488848C858B9589828A83F5937586A7
:100A530020E493F5F0E0A3A3B5F08BDFF4DEF2809E
:100A630085EB7008E709F608DFFA801B89828A8321
:100A73001410E70AF593E0A3F608DFFA8009F5936B
:100A8300E493A3F608DFF9ECFAA9F0EDFB2288F072
:100A9300EF60010E4E60F088F0ED60C51410E7E7DB
:100AA300CB700E88828C838B93E709F0A3DFFA80E7
:100AB300D61410E71C88848C858B9589828A83F5EC
:100AC30093758620E0F0A3A3DFFADEF87586008035
:100AD300B688848C858B9589828A83F59375862065
:100AE300E493F0A3A3DFF9DEF77586008099EB703A
:100AF30008E709F60870FA801B89828A831410E7D5
:100B03000AF593E0A3F60870FA8009F593E493A33A
:100B1300F60870F9ECFAA9F0EDFB2288F0ED60CE4F
:100B23001410E7F0CB700E88828C83F593E709F0FD
:100B3300A370FA80DF1410E71A88848C858B95895B
:100B4300828A83F593758620E0F0A3A370FA7586F5
:100B53000080C188848C858B9589828A83F59375FF
:100B63008620E493F0A3A370F975860080A6E6FCC3
:100B730008E6FD08E6FE08E6FF22E0FCA3E0FDA38D
:100B8300E0FEA3E0FF22E493FC740193FD7402935F
:100B9300FE740393FF22E6FB08E6F908E6FA08E68B
:100BA300CBF822E0F8A3E0F9A3E0FAA3E0FB22E408
:100BB30093F8740193F9740293FA740393FB22EC90
:100BC300F608EDF608EEF608EFF622E6FB08E6FA7D
:100BD30008E6F922E0FBA3E0FAA3E0F922E493FBA1
:100BE300740193FA740293F922BB001CD093D0F0E2
:100BF300D0E0F8D0E0C9FBD0E0FAD0E0CBC8C0E049
:100C0300C0F0C09302000C40BB80005022D093D0B0
:100C1300F0D0E0F8D0E0C9F582D0E0CAF583D0E0A7
:100C2300CB14C8C0E0C0F0C09388930200089ED0E4
:100C330093D083D082D0E0D0E0D0E0E473EBF60829
:100C4300EAF608E9F622E5112437F582E4341CF5C7
:100C530083759300E005112290001C34300B04903F
:100C6300001C37E475F001120008870200052420F8
:100C730004E57F2ED2048018EF540F2490D434401F
:100C8300D4FF30080BEF24BFB41A0050032461FFD4
:100C9300E512600215120515E51570020514300BF7
:100CA3001190001C34E475F00112000887EF020074
:100CB300055602001F1B7403D20B8003E4C20BF51D
:100CC3001190001C341200089EE4F512F514F5157A
:100CD300E51260087F2012000C9380F47513FFC2A5
:100CE30005C204C206C207C209C20AC20C12000C22
:100CF3005BFF700E300B067F0012000CA4AF15AE25
:100D03001422B42563C2D5C20812000C5BFF24D0A1
:100D1300B40A00501A75F00A781230D50508B6FFE8
:100D23000106C6A426F620D5047002D20780D82473
:100D3300CFB41A00EF5004C2E5D20802000FE1D28B
:100D43000580C4D20480BED20680BAD2D580B8D280
:100D53000980B27F2012000C932006077401B5129C
:100D63000040F012000C49FF12000C9302000CD358
:100D7300D20CD20A808F12000C49FB12000C49FAE4
:100D830012000C49F94A4B700679EE7A107B8120E8
:100D9300063DE51260397E00E9C0E02EF9EAC0E0C5
:100DA3003400FA12000524F9D0E0FAD0E0C9600655
:100DB3000EEE651370E2C2D5EBC0E0EAC0E0E9C015
:100DC300E0EE12001049D0E0F9D0E0FAD0E0FB12D7
:100DD300000524FF6096EBC0E0EAC0E0E9C0E01242
:100DE300000C93D0E02401F9D0E03400FAD0E0FB0A
:100DF300E5130460DAD513D702000D6FD206808F96
:100E03001200102560F6E51370010412000156A9C3
:100E130013600EE513600A14F513120010D8EF6087
:100E2300F2EA30E702F404C399400402000EB8EA80
:100E3300F425130430E701E404F513800F120010C6
:100E43002560B9EA0513251312000156EA90001C28
:100E530063F030E701E4251304D5130420090114DA
:100E630012001049E4C0E0120010D890001C63E0A7
:100E7300601420E70814F012000C7B802604F0D0E5
:100E8300E014C0E07F0012000C7BE5136008120041
:100E93000C721513800D30090412000C72D0E0029D
:100EA300000CD3D0E00480BD120010256093E5133D
:100EB300041200015690001C63EAF0E513200902B6
:100EC30060010424041200104974FF04C0E01200FE
:100ED30010D812000C7BE513200902600412000CE9
:100EE30072D0E0B513E57F4512000C8590001C63BA
:100EF300E07F2B30E7047F2DF404C0E012000C9355
:100F0300D0E075F00A84C0F012000C7CD0E012002F
:100F13000C7C02000CD3791080027908C20AC20C3F
:100F23008008D2D5790A8004790AC2D5E513047002
:100F330002F513E4FAFDFEFF12000C49FC7B0820C6
:100F4300051612000C49FD7B1030040C12000C49ED
:100F5300FE12000C49FF7B20EC3382D592D550134F
:100F6300C3E43004069FFFE49EFEE42005039DFDD9
:100F7300E49CFCE4CBF8C205EC700CCFCECDCCE8FE
:100F830024F8F870F38017C3EF33FFEE33FEED332D
:100F9300FDEC33FCEB33FB994002FB0FD8E9EB305C
:100FA3000505F8D0E0C448B205C0E00AEC4D4E4F49
:100FB30078207B0070C2EAB5130040BCC0E0120089
:100FC300104BD0F0D0E0200504C4C0E0C4B205C08B
:100FD300F012000C7CD0F0D5F0EA02000CD3120022
:100FE30008C40D79530F19580D464C0D42420F1D7D
:100FF3004F0F25440F25490D5C430F2B550E4046DB
:101003000EAB450E0347110B500D4A2D0D4E2E0D01
:10101300752B0D52230D732010F72A0D084800007D
:101023000D6BE513B4FF0375130612000C49FC1294
:10103300000C49FD12000C49FE12000C49FF900000
:101043001C5C02000193790AA2D520071430090918
:10105300B910020404B9080104A2D5200A02500100
:101063000420066D9206B512005036C0E07F203092
:10107300071A7F30A206720A72095010120010A4D8
:10108300C206C20AC209C20C7F308010300903E9CC
:10109300C0E012000C93300903D0E0F9D0E0B512A0
:1010A300CA3009197F30B9100D12000C937F5830E4
:1010B30008077F788003B9080412000C93300606F2
:1010C3007F2D02000C937F20200CF77F2B200AF248
:1010D30022920680CC7F00B40700500E245CF58278
:1010E300E4341CF583759300E0FF22286E756C6C65
:1010F3002900D20512000C493005F7C205781230D9
:10110300D50108F602000D0812000C497F4960085A
:101113007F4310E7027F5814C0E0EF12000C847481
:101123003A12000C84D0E0600DC0E0C412000C7CC5
:10113300D0E012000C7CD20775120402000F1920B4
:1011430020202020202020202020202020202000BC
:1011530000000000000000000000004F000000003D
:10116300000007000700000000147F147F14000034
:1011730000242A7F2A12000000231308646200005F
:10118300003649552250000000000503000000000E
:1011930000001C2241000000000041221C0000004E
:1011A3000014083E081400000008083E0808000068
:1011B300000050300000000000080808080000008C
:1011C300000060600000000000201008040200001E
:1011D300003E5149453E0000000000427F400000B0
:1011E3000042615149460000002141454B31000056
:1011F300001814127F1000000027454545390000F0
:10120300003C4A4949300000000101790503000010
:10121300003649494936000000064949291E0000A5
:1012230000003636000000000000563600000000C3
:1012330000081422410000000014141414140000C8
:1012430000004122140800000002015109060000B9
:1012530000324979413E0000007E1111117E0000E9
:1012630000417F4949360000003E414141220000D0
:1012730000417E4141223C00007E4949494900002A
:10128300007F090909010000003E4141497A00003D
:10129300007F0808087F00000000417F4100000034
:1012A300002040413F010000007F0814224100005C
:1012B300007F404040400000007F020C027F00009E
:1012C300007F0608307F0000003E4141413E0000A0
:1012D300007F090909060000003E4151215E00001C
:1012E300007F0919294600000026494949320000B8
:1012F3000001017F01010000003F4040403F00002A
:10130300001F2040201F0000007F2018207F0000C6
:101313000063140814630000000708700807000046
:10132300006151494543000000007F414100000036
:101333000002040810200000000041417F0000006B
:10134300000402010204000000404000404000008D
:1013530000010204000000000020545454780000EF
:10136300007F4844443800000038444444280000C7
:1013730000384444487F0000003854545418000097
:101383000000087E09020000000C52524C3E00008F
:10139300007F0804047800000000447D4000000042
:1013A300002040443D00000000007F10284400005E
:1013B3000000417F40000000007C047804780000B6
:1013C300007C0804047800000038444444380000DA
:1013D300007E0C12120C0000000C12120C7E000096
:1013E300007C0804040800000058545454640000AE
:1013F30000043F4440200000003C40403C400000CB
:10140300001C2040201C0000003C4030403C0000F9
:101413000044281028440000001CA0A0907C000079
:10142300004464544C4400000000083641000000AE
:1014330000000077000000000000413608000000B3
:10144300000201020402000000FFFFFFFFFF000093
:10145300D6D0CDBEB0CEBFA800B2BBBFC9CAB6B14D
:10146300F0BFA800BFA8C7AEB0FCB4EDCEF300CE6A
:10147300B4C9CFB4ABC1F7CBAE00C7EBB2C9BCAFF5
:1014830000BADABFA800BFA8D2D1B9C6DA00CEDE4F
:10149300C8A8CFDE00BFA8D3E0B6EEB2BBD7E30047
:1014A300BFA8D2D1CBF800C3E2B7D1BFA800BCC755
:1014B300C2BCD2D1C2FA00D6D8B8B4CBA2BFA8005E
:1014C300C9E8D6C3B4EDCEF300CAB1D6D3B4EDCEDA
:1014D300F300D3B2BCFEB9CAD5CF00B2BBD6A7B313
:1014E300D6BFA8C0E0D0CD0000B4E6B4A2C8DDC129
:1014F300BF00CEEFC0ED4944CEB4C9E8D6C300B1B6
:10150300B8B2CE00D6F7B2CEB4EDCEF300BBD6B8A8
:10151300B4D6F70057522053455249414C00524428
:101523002053455249414C005B25645DB4EDCEF335
:10153300C2EBA3BA25642000252E30326600726503
:1015430061646572004550203100455044203100EC
:101553006B657900455020320045504420320045E8
:10156300502033004550442033004550203400318F
:101573002E2047505253CDA8D1B6202000322E2022
:10158300B4AEBFDACDA8D1B6202000202020202081
:10159300202020202020202000C9E8B1B8CEEFC0B1
:1015A300ED49440025303258253032582530325821
:1015B3002530325800CFB5CDB3CAB1BCE400B5B1C4
:1015C300CCECD3AAD2B5B6EE00252E30326620D4A9
:1015D300AA00C7B0D2BBCCECD3AAD2B5B6EE00BB3F
:1015E300F9B4A1B7D1C2CA00B2C9BCAFCAB1BCE495
:1015F300BCE4B8F400256420CCEC00C1ACD0F8CB3B
:10160300A2BFA800256420C3EB00B5B1C7B0C1F7E2
:10161300CBAEBAC500256C7500CEB4B2C9BCAFBCA5
:10162300C7C2BC00257520CCF500B3CCD0F2B0E620
:10163300B1BE00257300303931313237474D00CE0A
:10164300B4B2C9BCAFCCECCA00257520CCEC00BA4F
:10165300DAC3FBB5A5B0E6B1BEBAC5004275696C85
:1016630064004E6F7620323720323030390031300B
:101673003A30353A303400B7FECEF1C6F749500060
:1016830025642E25642E25642E256400B7FECEF135
:10169300C6F7B6CBBFDA00256400312E20CBA2BF3C
:1016A300A8CAD5B7D1202000322E20B2E9D1AF206D
:1016B300202020202000332E20CDA8D1B6202020AA
:1016C30020202000001F1C1F1E1F1E1F1F1E1F1E69
:1016D3001F81157281E11B81158081EADA81158EE4
:1016E30000000081158E000000010DB7000000818D
:1016F300169D81BA078116AB8156CC8116B981FB41
:101703000A605A0DFE0001811453000281145C002B
:10171300038114670004811472000581147D00069F
:1017230081148400078114890008811491000981C0
:101733001498000A8114A3000C8114AA000D8114CB
:10174300B1005A8114BA005C8114C3005B8114CCCC
:1017530000B18114D5005F8114DE00FE8114EB62B9
:101763000016C00000102120423063408450A56061
:10177300C670E781089129A14AB16BC18CD1ADE153
:10178300CEF1EF123102103273225252B5429472EB
:10179300F762D693398318B37BA35AD3BDC39CF3A3
:1017A300FFE3DE246234430420140164E674C74477
:1017B300A45485A56AB54B85289509E5EEF5CFC5F3
:1017C300ACD58D365326721611063076D766F6568B
:1017D3009546B4B75BA77A97198738F7DFE7FED743
:1017E3009DC7BC48C458E5688678A7084018612897
:1017F300023823C9CCD9EDE98EF9AF89489969A993
:101803000AB92B5AF54AD47AB76A961A710A503A2A
:10181300332A12DBFDCBDCFBBFEB9E9B798B58BBE2
:101823003BAB1A6CA67C874CE45CC52C223C030CB6
:10183300601C41EDAEFD8FCDECDDCDAD2ABD0B8D32
:10184300689D497E976EB65ED54EF43E132E321ECA
:10185300510E70FF9FEFBEDFDDCFFCBF1BAF3A9F82
:10186300598F78918881A9B1CAA1EBD10CC12DF10F
:101873004EE16F108000A130C220E3500440257078
:1018830046606783B99398A3FBB3DAC33DD31CE3E4
:101893007FF35E02B1129022F332D24235521462C8
:1018A300777256B5EAA5CB95A88589F56EE54FD530
:1018B3002CC50D34E224C314A00481746664475418
:1018C300244405A7DBB7FA879997B8E75FF77EC784
:1018D3001DD73C26D336F2069116B0665776764668
:1018E300155634D94CC96DF90EE92F99C889E9B950
:1018F3008AA9AB584448657806682718C008E138B8
:101903008228A3CB7DDB5CEB3FFB1E8BF99BD8AB23
:10191300BBBB9A4A755A546A377A160AF11AD02A07
:10192300B33A92FD2EED0FDD6CCD4DBDAAAD8B9D6F
:10193300E88DC97C266C075C644C453CA22C831C57
:10194300E00CC1EF1FFF3ECF5DDF7CAF9BBFBA8FC3
:10195300D99FF86E177E364E555E742E933EB20EA7
:10196300D11EF04818C03230303530313331C10D1B
:10197300441DA57C2F2D5C461D1581F70781F75566
:10198300461D1B81FA9681FAD0411D6D014C00065C
:1019930000000000000000000000000046000000FE
:1019A30000000000004200120000420C140000007E
:1019B3004F4B0041542B4D495053454E443D2564F4
:1019C3002C2200220D00726563762065727231004D
:1019D30041542B4D4950505553483D25640D002B20
:1019E3004D495052544350007265637620657272BC
:1019F300330075706C6F6164207265632065727269
:101A030000646F776E6C6F616420626C6B2E2E2E98
:101A130000626C6B206572722E2E2E00696E6974E3
:101A230069616C206461696C0041540D004154206C
:101A33006572726F72006461696C20636D6E6574A8
:101A43002E2E2E0041542B4D495043414C4C3D31D9
:101A53002C22636D6E6574220D000078303000789F
:101A63003030007830300078303000636F6E6E2095
:101A7300737672202E2E2E0041542B4D49504F5019
:101A8300454E3D25642C25642C2225642E25642E89
:101A930025642E2564222C25642C300D0041542B03
:101AA3004D4950434C4F53453D25640D006D6970BE
:101AB3006F70656E206572726F7200636F6E6E2059
:101AC300636D6E6574206572720041542B4D4950ED
:101AD30043414C4C3D300D0081F95E81FF1A81A1D9
:101AE300DD818F1781644300000075C7AA75C75550
:101AF300759D0275C7AA75C75575C600787FE4F64C
:101B0300D8FD75817102001B360200E7D1E493A36F
:101B1300F85407240CC8C333C4540F4420C883406B
:101B230004F456800146F6DFE4800C010204081039
:101B330020408090001704E47E019360CCA3FF54FF
:101B43003F30E509541FFEE493A360010ECF54E038
:101B5300B4E026E493FBA3E493FAA3E493F9A3E4A8
:101B630093C083C08212000556D082D083A309E9B3
:101B730070010ADFEADEE880BE54C025E0602B4036
:101B83008CE493A3FAE493A3F8E493A3C8C582C8AF
:101B9300CAC583CA759300F0759300A3C8C582C8EC
:101BA300CAC583CADFE3DEE1808DE493A3F8E4933F
:101BB300A34003F68001F208DFF402001B3ABD00E4
:101BC30020EF7F08C2A63392A500D2A6DFF6C2A6F5
:101BD3007F64D2A5A2A55002DFFAD2A60000C2A656
:101BE30022BD0120EF7F08C2A73392A500D2A7DF51
:101BF300F6C2A77F64D2A5A2A55002DFFAD2A7003E
:101C030000C2A722BD0220EF7F08C2963392A5002F
:101C1300D296DFF6C2967F64D2A5A2A55002DFFA60
:101C2300D2960000C29622EF7F08C2973392A50096
:101C3300D297DFF6C2977F64D2A5A2A55002DFFA3E
:101C4300D2970000C297227761697474696E672E18
:101C53002E2E0070726F636573732E2E2E00C9E8EB
:101C6300D6C3CEEFC0ED4944B3C9B9A600D0A3D7BC
:101C7300BCCAB1D6D3B3ACCAB100D0A3D7BCCAB126
:101C8300D6D3B3C9B9A600636C65617220626C6177
:101C9300636B2025630070726F63657373206F6BD2
:101CA30000696E697420706F732E2E2E00B4F2BF1C
:101CB300AA47505253CAA7B0DC00B4F2BFAAB4AECD
:101CC300BFDACAA7B0DC00D2A4C2A400C2A2C2A3D6
:101CD300BD0004D2A2C2A312001CDF22BF0012D295
:101CE300A100D2A4008B8000C2A4C2A112001D06D1
:101CF30022D2A000D2A4008B8000C2A4C2A01200F2
:101D03001D0622D2A4C2A4C2A200D2A37580FF746E
:101D130000BF0014D2A100D2A400E58000C2A40039
:101D2300D2A4C2A120E7ED22D2A000D2A40000E5F4
:101D33008000C2A400D2A4C2A020E7EC22BF0017F7
:101D43007D09D2A5D2A60000C2A60000D2A600201B
:101D5300A502DDF4C2A522BF01177D09D2A5D2A732
:101D63000000C2A70000D2A70020A502DDF4C2A58F
:101D730022BF02177D09D2A5D2960000C2960000A9
:101D8300D2960020A502DDF4C2A5227D09D2A5D2F8
:101D9300970000C2970000D2970020A502DDF4C28D
:101DA300A522BF00127D08D2A5C2A600A2A533D2E8
:101DB300A6DDF6C2A6FF22BF01127D08D2A5C2A7E7
:101DC30000A2A533D2A7DDF6C2A7FF22BF02127D70
:101DD30008D2A5C29600A2A533D296DDF6C296FF1D
:101DE300227D08D2A5C29700A2A533D297DDF6C201
:101DF30097FF2290001C2EE0FFA3E0FEA3E0CF900C
:101E0300001C37F0A3EEF0A3EFF090001C31E0CB01
:101E1300F0A3E0CAF0A3E0C9F07F2290001C3AAD22
:101E230082AC83120005248D828C83F0A309E970B0
:101E3300010ADFEB90001C31E0FBA3E0FAA3E0F919
:101E430002000CB9BF000E12001DA5C2A500D2A648
:101E53000000C2A622BF010E12001DA5C2A500D21A
:101E6300A70000C2A722BF020E12001DA5C2A50033
:101E7300D2960000C2962212001DA5C2A500D297D9
:101E83000000C29722BADABFA800C3E2B7D1BFA845
:101E930000BFDBBFEE20257320D4AA00D3E0B6EE4B
:101EA30020257320D4AA00C1F7CBAEBAC55B256C3D
:101EB300645D00C7EBD6D8CBA200BF000AC2A50061
:101EC300D2A600D2A50022BF010AC2A500D2A70054
:101ED300D2A50022BF020AC2A500D29600D2A50055
:101EE30022C2A500D29700D2A50022BF0009D2A525
:101EF30000D2A600C2A522BF0109D2A500D2A70025
:101F0300C2A522BF0209D2A500D29600C2A522D241
:101F1300A500D29700C2A522EFB40A08740D1200DF
:101F23001F27740A309811A899B8130CC2983098D7
:101F3300FDA899C298B811F63099FDC299F5992276
:101F4300527463546D5F5645525F312E3031001F1A
:101F53001D1F1E1F1E1F1F1E1F1E1F1F1C1F1E1F98
:101F63001E1F1F1E1F1E1F20000D0A00303132339B
:101F730034353637383941424344454600E4FFFEA1
:101F830012000524600C0FEF70010E09E970F10ACD
:101F930080EE222530326400253032580075C7AAFE
:101FA30075C75553D8FD2275C7AA75C75543D801C0
:101FB300227E54DEFEDFFA22060503010203040536
:101FC3000607080990001B34EBF0A3EAF0A3E9F03D
:101FD30090001B32EEF0A3EFF08E8375930024077D
:101FE300F582E43583F5837593007422F08F828E36
:101FF30083759300E5822408F582E43583F58375C0
:1020030093007442F08F828E83759300E5822412CD
:10201300F582E43583F583759300740EF0A3749011
:10202300F08F828E83759300E5822411F582E43567
:1020330083F583759300E4F08F828E83759300E5B7
:1020430082240FF582E43583F583759300E4F0A3CE
:102053007405F08F828E83759300E582240DF582DB
:10206300E43583F583759300E4F0A37420F07B815A
:102073007A1C794A7D0AE4FF0143CC90001B32E0CD
:10208300FEA3E0FF8E83759300240FF582E435836E
:10209300F583759300E4F0A3740AF08F828E837541
:1020A3009300E5822411F582E43583F5837593006B
:1020B300E4F090001B34E0FBA3E0FAA3E0240CF966
:1020C300E43AFA120008A789828A838B93120009E3
:1020D3002EEF700D7D037F051200F83C509D7FA00D
:1020E3002290001B32E0FEA3E0FF8E837593002451
:1020F3000BF582E43583F583759300E4F0A3742034
:10210300F0C203C201E490001B45F0A3F08F828E5E
:1021130083759300E5822407F582E43583F583759F
:102123009300E0FF2403F8E690001B37F0EF24044C
:10213300F8E690001B39F07B817A1C79567D037F8A
:10214300011200E86F90001B37E0120008C43B48FF
:10215300553CE6562944A137EFB12C8CB23EC7B3A8
:102163002F7BB44086B53A8DB63DF4B741B7B8235B
:1021730001C22507C32461C42182C5000042CE9059
:10218300001B32E0FAA3E0FB8A837593002407F572
:1021930082E43583F583759300E02404F8E6900028
:1021A3001B39F020E00301226BE4FFFEFDFC9000ED
:1021B3001BE67410F08B828A83759300E5822408F2
:1021C300F582E43583F583759300E0F990001BE70E
:1021D300E4F0A3F0A3E9F01200802890001B38EF8D
:1021E300F0600301425D90001B32E0FEA3E0FF8E2E
:1021F300837593002408F582E43583F58375930092
:10220300E0F97A007B008F828E83759300E5822448
:1022130007F582E43583F583759300E02406F87CA3
:10222300007D007E007F0412000A9190001B46E0AF
:102233002404F090001B45E03400F090001B32E0D2
:10224300FEA3E08E837593002408F582E43583F5BD
:1022530083759300E0F97A007B00781E7C0C7D0186
:102263007E007F0412000A9190001B39E020E103F5
:10227300012C8790001B32E0FEA3E08E8375930050
:102283002408F582E43583F583759300E0F97A0039
:102293007B0012006BF8EF64016003012774900068
:1022A3001B32E0FEA3E0FF8E837593002408F582C2
:1022B300E43583F583759300E0F97A007B008F8220
:1022C3008E83759300E5822407F582E43583F583D5
:1022D300759300E02406FF90001B45A3E02FF87CD4
:1022E300007D007E007F0712000A9190001B46E0EC
:1022F3002407F090001B45E03400F0012C87900088
:102303001B32E0FEA3E08E837593002407F582E47D
:102313003583F583759300E0FF2404F8E6B4990947
:10232300EF2405F8E6640860030141D090001B32F6
:10233300E0FEA3E08E837593002407F582E43583E2
:10234300F583759300E02406F97A007B00781E7C00
:102353000C7D017E007F04120009FEEF6003014142
:10236300D090001B32E0FEA3E0FF8E837593002420
:1023730007F582E43583F583759300E0240AF97A3F
:10238300007B008F828E83759300E5822408F5829B
:10239300E43583F583759300E0F87C007D007E00CF
:1023A3007F0412000A9190001B32E0FEA3E08E83AB
:1023B3007593002408F582E43583F583759300E073
:1023C3007A00F97B00C003C0012404F990001BE7E5
:1023D300EBF0A3F0A3E9F0D001D0037D047C00125D
:1023E30000F56DE4FFFEFDFC90001BE67408F09021
:1023F300001B32E0FAA3E08A837593002408F58278
:10240300E43583F583759300E0F990001BE7E4F06E
:10241300A3F0A3E9F012006F8990001B38EFF0647A
:1024230001600301425D90001B32E0FEA3E08E8356
:102433007593002408F582E43583F583759300E0F2
:10244300F97A007B00781E7C0C7D017E007F0412EC
:10245300000A917B817A1C79617D010124F490004B
:102463001B32E0FEA3E0FF8E837593002407F58201
:10247300E43583F583759300E02403F97A007B0048
:102483008F828E83759300E5822408F582E4358379
:10249300F583759300E0F87C007D007E007F0C12CD
:1024A300000A911200C0A840187B817A1C79707DC4
:1024B300037F011200E86F90001B3874A1F0014202
:1024C300D190001B32E0FEA3E08E837593002407B6
:1024D300F582E43583F583759300E02406F97A00E9
:1024E3007B0012007D48EF60117B817A1C797D7D32
:1024F300037F011200E86F0141B390001B3874FFA2
:10250300F00142D11200C0A84003013B4E90001BD2
:1025130039E0FF64016008EF640260030141D09079
:10252300001B32E0FEA3E08E837593002407F5823F
:10253300E43583F583759300E0FF2405F8E6900006
:102543001B39F06008E0640160030141D0EF240609
:10255300F8E6FF7E0090001B45EEF0A3EFF0640E5B
:102563006003013825E47F40FEFDFC90001BE67408
:1025730018F090001B32E0FAA3E08A8375930024DD
:1025830008F582E43583F583759300E0F990001B29
:10259300E7E4F0A3F0A3E9F01200802890001B38D1
:1025A300EFF06401600301425D90001B387401F099
:1025B300D20290001B32E0FEA3E08E8375930024C9
:1025C30008F582E43583F583759300E0FF2416F85C
:1025D300E664556003012680EF2417F8E664AA60D9
:1025E3000301268090001B32A3E0FF8E83759300C6
:1025F3002407F582E43583F583759300E0240CF911
:102603007A007B008F828E83759300E5822408F520
:1026130082E43583F583759300E02406F87C007D1E
:10262300007E007F08120009FEEF7002C2029000D4
:102633001B32E0FEA3E0FF8E837593002407F5822F
:10264300E43583F583759300E02406F97A007B0073
:102653008F828E83759300E5822408F582E43583A7
:10266300F583759300E0F87C007D007E007F061201
:102673000009FEC3EF648094804002C2022002037B
:102683000127B590001B32E0FEA3E0FF8E83759314
:10269300002407F582E43583F583759300E024076E
:1026A300F97A007B008F828E83759300E58224087C
:1026B300F582E43583F583759300E0F87C007D00B3
:1026C3007E007F0E12000A9190001B32E0FEA3E011
:1026D3008E837593002408F582E43583F58375931F
:1026E30000E0FF2406F97A007B00EF240EF87C005B
:1026F3007D007E007F0812000A9190001B32E0FEED
:10270300A3E0FF8E837593002408F582E43583F5F7
:1027130083759300E02416F876558F828E83759324
:1027230000E5822408F582E43583F583759300E0A0
:102733002417F876AAE47F40FEFDFC90001BE674A4
:1027430018F090001B32E0FAA3E08A83759300240B
:1027530008F582E43583F583759300E0F990001B57
:10276300E7E4F0A3F0A3E9F012006F89EF640160DE
:102773000790001B3801425D90001B32E0FEA3E08E
:102783008E837593002408F582E43583F58375936E
:1027930000E02406F97A007B0090001B4C7401F0E2
:1027A300A3740CF0A37416F01200F5C4E490001B9C
:1027B30038F090001B39E0640160030129377F1072
:1027C300FEFDFC90001BE6741AF090001B32E0FA49
:1027D300A3E08A837593002408F582E43583F583A7
:1027E300759300E0F990001BE7E4F0A3F0A3E9F090
:1027F30012008028EF6401600790001B3801425DDE
:1028030090001B32E0FEA3E08E837593002408F54D
:1028130082E43583F583759300E07A00F97B002425
:1028230006F87C007D007E007F0612000A917E0080
:102833007F077D0090001B32E0FAA3E08A83759343
:10284300002408F582E43583F583759300E02410B2
:10285300F97A007B001200093590001B32E0FEA3D9
:10286300E08E837593002408F582E43583F5837540
:102873009300E0F97A007B007D187C001200F36F6F
:1028830090001B43EEF0A3EFF090001B32E0FCA39B
:10289300E08C837593002407F582E43583F5837513
:1028A3009300E02418F97A007B001200FC71E47FA6
:1028B30010FEFDFC90001BE6741AF090001B32E042
:1028C300FAA3E08A837593002408F582E43583F53F
:1028D30083759300E0F990001BE7E4F0A3F0A3E90C
:1028E300F012006F89EF6401600790001B3801420A
:1028F3005DE47FA0FEFDFC90001BE6741AF09000DF
:102903001B32E0FAA3E08A837593002408F582E47E
:102913003583F583759300E0F990001BE7E4F0A39A
:10292300F0A3E9F012006F89EF6401600790001BC8
:102933003801425DE490001B45F0A3F0D20101424F
:10294300D1C20290001B32E0FCA3E0FD8C8375939F
:10295300002412F582E43583F583759300740EF039
:10296300A37490F08D828C83759300E5822414F513
:1029730082E43583F5837593007404F0A3E4F08D4A
:10298300828C83759300E5822407F582E43583F511
:1029930083759300E02404F8E6FF7E0090001B4556
:1029A300EEF0A3EFF090001B32704DE0FEA3E08E3B
:1029B300837593002407F582E43583F583759300CB
:1029C300E0FF2405F8E6FD90001B45E4F0A3EDF0DD
:1029D300D202EF2407F97A007B001200E5EB9000A6
:1029E3001B3A1200086F90001B46E02400FF900082
:1029F3001B45E03401FE8032E0FEA3E08E83759335
:102A0300002407F582E43583F583759300E02406FB
:102A1300F97A007B001200E5EB90001B3A120008E4
:102A23006F90001B45E0FEA3E0FF90001B32E0FC2B
:102A3300A3E08C837593002414F582E43583F58336
:102A4300759300EEF0A3EFF0E4FFFE7D08FC900029
:102A53001B3AE0F8A3E0F9A3E0FAA3E0FBC31200FA
:102A630007E3504390001B32E0FEA3E08E8375938F
:102A7300002414F582E43583F583759300E0FEA307
:102A8300E0FFE4FCFD90001B3AE0F8A3A3A3E02FD2
:102A9300FFEA3EFEED39FDEC38FCE4FBFA7908F879
:102AA300D3120007E350030141D090001B3AA3A3C4
:102AB300A3E0540FFFE4FEFDFCFBFAF9F8C3120098
:102AC30007E3600301382590001B32E0FEA3E08E8C
:102AD300837593002414F582E43583F5837593009D
:102AE300E0FAA3E0FBD39438EA9400506D90001B06
:102AF3003AE0FCA3E0FDA3E0FEA3E0FF90001BE6A9
:102B0300EBF090001B32E0FAA3E08A837593002474
:102B130007F582E43583F583759300E02406F99085
:102B2300001BE7E4F0A3F0A3E9F012008028EF64B0
:102B330001600790001B3801425DC20390001B3205
:102B4300E0FEA3E08E837593002411F582E43583C0
:102B5300F583759300E4F0012C6190001B32E0FED5
:102B6300A3E08E837593002411F582E43583F58306
:102B73007593007401F0D203E490001B43F0A3F0BB
:102B830090001B32E0FEA3E08E837593002414F5BE
:102B930082E43583F583759300E0FEA3E0FF9000A4
:102BA3001B43E0FCA3E0FDC39FEC9E4003012C61AB
:102BB300C3EF9DFFEE9CFEC3EF9440EE94004004F0
:102BC3007F40800090001B42EFF0A3E0FEA3E0FFF4
:102BD300E4FCFD90001B3AE0F8A3E0F9A3E0FAA3BC
:102BE300E02FFFEA3EFEED39FDEC38FC90001B427E
:102BF300E090001BE6F090001B32E0FAA3E08A832A
:102C03007593002412F582E43583F583759300E010
:102C1300FAA3E0FB90001B43E0F8A3E0F582EB2569
:102C230082FBEA38FAA90390001BE77401F0A3EAD8
:102C3300F0A3E9F012008028EF6401600990001B03
:102C43003874B1F0801890001B42E0FF90001B44E1
:102C5300E02FF090001B43E03400F0012B83900041
:102C63001B32E0FEA3E08E837593002414F582E407
:102C73003583F583759300E0FFA3E090001B45CFF8
:102C8300F0A3EFF0D2010141B31200C0A840030149
:102C93003B4EE47F60FEFDFC90001BE67420F09049
:102CA300001B32E0FAA3E08A837593002408F582BF
:102CB300E43583F583759300E0F990001BE7E4F0B6
:102CC300A3F0A3E9F012008028EF640160079000ED
:102CD3001B3801425D90001B39E0705090001B329D
:102CE300E0FEA3E0FF8E837593002407F582E435AD
:102CF30083F583759300E02406F97A007B008F82C5
:102D03008E83759300E5822408F582E43583F58389
:102D1300759300E0F87C007D007E007F06120009B9
:102D2300FEC3EF64809480400301300D90001B329A
:102D3300E0FEA3E08E837593002407F582E43583D8
:102D4300F583759300E0240CF97A007B001200E50B
:102D5300EB90001B3A1200086F7FA07E867D017CFA
:102D63000090001B3AE0F8A3E0F9A3E0FAA3E0FB2C
:102D7300D3120007E3400301382590001B32E0FE25
:102D8300A3E08E837593002407F582E43583F583EE
:102D9300759300E0F9240FF8E6D3946040030138FB
:102DA30025E92410F97A007B001200FE3F90001BF6
:102DB30043EEF0A3EFF0E4FCFD7B407A7E7905F867
:102DC300C3120007CD401090001B44E0943C9000D8
:102DD3001B43E0940050030138257E007F207DFFD4
:102DE30090001B32E0FAA3E08A837593002408F570
:102DF30082E43583F583759300E0F97A007B001252
:102E030000093590001B32E0FEA3E0FF8E8375932B
:102E1300002407F582E43583F583759300E02406E7
:102E2300F97A007B008F828E83759300E5822408F4
:102E3300F582E43583F583759300E0F87C007D002B
:102E43007E007F0C12000A9190001B32E0FEA3E08B
:102E53008E837593002408F582E43583F583759397
:102E630000E0F97A007B007D1E7C001200F36F9076
:102E7300001B43EEF0A3EFF090001B32E0FCA3E055
:102E83008C837593002408F582E43583F583759369
:102E930000E0241EF97A007B001200FC71E47F60DD
:102EA300FEFDFC90001BE67420F090001B32E0FA5C
:102EB300A3E08A837593002408F582E43583F583C0
:102EC300759300E0F990001BE7E4F0A3F0A3E9F0A9
:102ED30012006F89EF6401600790001B3801425DA7
:102EE30090001B32E0FEA3E08E837593002407F568
:102EF30082E43583F583759300E02406F97A007B39
:102F03000078307C0C7D017E007F0612000A9190D0
:102F1300001B32E0FEA3E08E837593002407F58245
:102F2300E43583F583759300E0240CF97A007B0084
:102F33001200E5EB90000C361200086F90001B3274
:102F4300E0FEA3E08E837593002407F582E43583C6
:102F5300F583759300E0FF240FF8E690000C3CF036
:102F6300EF2410F97A007B001200FE3F90000C3A28
:102F7300EEF0A3EFF00141B31200C0A8401E900091
:102F83001B32E0FEA3E08E837593002411F582E4E7
:102F93003583F583759300E4F00141BD90001B3246
:102FA300E0FAA3E0FB8A837593002411F582E435EC
:102FB30083F583759300E4F07F807E0D7D03FC90A1
:102FC300001B3A1200086F90001B39E064996044BB
:102FD30090000C49E0603D8B828A83759300E58203
:102FE3002407F582E43583F583759300E02407F91C
:102FF3007A007B00784A7C0C7D017E007F061200FC
:1030030009FEC3EF64809480400A90001B3874016A
:10301300F00142D190001B477402F0A3E4F090004A
:103023001B32E0FEA3E08E837593002407F582E450
:103033003583F583759300E0FF2405F8E690001BC4
:1030430039F0640160030131F490001B32E0FCA30A
:10305300E0FDEF2406F97A007B008D828C83759363
:1030630000E5822412F582E43583F583759300E04D
:10307300FEA3E0FF90001B47E0FCA3E0FDEF2DFF64
:10308300EE3CA807FC7D017E007F0612000A9190AA
:10309300001B48E02406F090001B47E03400F0904A
:1030A300001B32E0FEA3E0FF8E837593002412F52C
:1030B30082E43583F583759300E0FCA3E0F5828C0D
:1030C30083C083C08275930090001B47E475F001B1
:1030D30012000620ADF0FC759300D082D083E58208
:1030E3002DF582E5833CF5837593007455F08F824B
:1030F3008E83759300E5822412F582E43583F5838C
:10310300759300E0FEA3E0F5828E83C083C08275D1
:10311300930090001B47E475F00112000620AFF006
:10312300FE759300D082D083E5822FF582E5833E3E
:10313300F58375930074AAF090001B32E0FEA3E0C0
:10314300FF8E837593002407F582E43583F5837539
:103153009300E0240CF97A007B008F828E837593B1
:1031630000E5822412F582E43583F583759300E04C
:10317300FEA3E0FF90001B47E0FCA3E0FDEF2DFF63
:10318300EE3CA807FC7D017E007F2012000A91908F
:10319300001B48E02420F090001B47E03400F0902F
:1031A300001B32E0FEA3E08E837593002412F582A8
:1031B300E43583F583759300E0FEA3E0FF90001BE5
:1031C30047E0FCA3E0FDEF2DFFEE3CA807FC7D01EB
:1031D3007B017A0C79707E017F0012000A919000C6
:1031E3001B48E02400F090001B47E03401F0013558
:1031F3009290001B39E06402600301340790001BC6
:1032030032E0FEA3E0FF8E837593002407F582E48A
:103213003583F583759300E02407F97A007B008FEB
:10322300828E83759300E5822412F582E43583F55B
:1032330083759300E0FEA3E0FF90001B47E0FCA32F
:10324300E0FDEF2DFFEE3CA807FC7D017E007F062D
:1032530012000A9190001B48E02406F090001B47DF
:10326300E03400F090001B32E0FEA3E0FF8E837594
:1032730093002412F582E43583F583759300E0FC13
:10328300A3E0F5828C83C083C08275930090001BFA
:1032930047E475F00112000620ADF0FC759300D0F1
:1032A30082D083E5822DF582E5833CF58375930017
:1032B3007455F08F828E83759300E5822412F58214
:1032C300E43583F583759300E0FEA3E0F5828E83F6
:1032D300C083C08275930090001B47E475F0011210
:1032E300000620AFF0FE759300D082D083E5822FD5
:1032F300F582E5833EF58375930074AAF090001B75
:1033030032E0FEA3E08E837593002412F582E43548
:1033130083F583759300E0FEA3E0FF90001B47E075
:10332300FCA3E0FDEF2DFFEE3CA807FC7D017B0134
:103333007A0C79507E007F2012000A9190001B487E
:10334300E02420F090001B47E03400F090001B3293
:10335300E0FEA3E0FF8E837593002407F582E43536
:1033630083F583759300E0240DF97A007B008F8247
:103373008E83759300E5822412F582E43583F58309
:10338300759300E0FEA3E0FF90001B47E0FCA3E081
:10339300FDEF2DFFEE3CA807FC7D017E007F33127D
:1033A300000A9190001B48E02433F090001B47E093
:1033B3003400F090001B32E0FEA3E08E837593008F
:1033C3002412F582E43583F583759300E0FEA3E0D0
:1033D300FFAA06F97B0190001B47E0FCA3E0FDEF89
:1033E3002DFFEE3CA807FC7D017E007FCD12000A75
:1033F3009190001B48E024CDF090001B47E034007F
:10340300F001359290001B39E06403600301358FAE
:1034130090001B32E0FEA3E0FF8E8375930024121D
:10342300F582E43583F583759300E0FCA3E024047F
:10343300FDE43CFAA9057B018F828E83759300E539
:10344300822412F582E43583F583759300E0FEA3AD
:10345300E0FF90001B47E0FCA3E0FDEF2DFFEE3CF7
:10346300A807FC7D017E007F0612000A9190001BD5
:1034730048E02406F090001B47E03400F090001B66
:1034830032E0FEA3E0FF8E837593002412F582E4FD
:103493003583F583759300E0FCA3E0F5828C83C04C
:1034A30083C08275930090001B47E475F0011200FE
:1034B3000620ADF0FC759300D082D083E5822DF514
:1034C30082E5833CF5837593007455F08F828E8378
:1034D300759300E5822412F582E43583F5837593B1
:1034E30000E0FEA3E0F5828E83C083C08275930063
:1034F30090001B47E475F00112000620AFF0FE7543
:103503009300D082D083E5822FF582E5833EF58355
:1035130075930074AAF090001B32E0FEA3E0FF8EC7
:10352300837593002412F582E43583F58375930044
:10353300E0FCA3E0240AFDE43CFAA9057B018F82A9
:103543008E83759300E5822412F582E43583F58337
:10355300759300E0FEA3E0FF90001B47E0FCA3E0AF
:10356300FDEF2DFFEE3CA807FC7D017E017F2012BD
:10357300000A9190001B48E02420F090001B47E0D4
:103583003401F090000C497401F080030141D090A4
:10359300001B457401F0A37428F090001B32E0FE79
:1035A300A3E08E837593002412F582E43583F583BB
:1035B300759300E0FEA3E02400FFEE3402FAA907AE
:1035C3007B017D287C011200F36F90001B43EEF01A
:1035D300A3EFF090001B32E0FCA3E08C8375930013
:1035E3002412F582E43583F583759300E0FCA3E0B0
:1035F3002400FDEC3402FC90001B46E02DFD9000FE
:103603001B45E03CFAA9057B011200FC7190001BED
:1036130046E02402F090001B45E03400F0E4900003
:103623001B43F0A3F090001B45E0FEA3E0FF9000D6
:103633001B43E0FCA3E0FDC39FEC9E40030136F671
:10364300C390001B46E09DFF90001B45E09CFEC31A
:10365300EF9440EE940040047F40800090001B42B2
:10366300EFF0A3E0FEA3E0FFE4FCFD90001B3AE0D3
:10367300F8A3E0F9A3E0FAA3E02FFFEA3EFEED3959
:10368300FDEC38FC90001B42E090001BE6F090003C
:103693001B32E0FAA3E08A837593002412F582E4D7
:1036A3003583F583759300E0FAA3E02400FBEA3445
:1036B30002FA90001B43E0F8A3E02BFBE83AFAA9D7
:1036C3000390001BE77401F0A3EAF0A3E9F01200F2
:1036D3006F89EF6401600990001B3874B1F08013A7
:1036E30090001B44E02440F090001B43E03400F0C2
:1036F30001362890001B477402F0A3E4F090001BEE
:1037030032E0FEA3E08E837593002412F582E43544
:1037130083F583759300E0FEA3E0FF90001B47E071
:10372300FCA3E0FDEF2DFFEE3CFAA9077B01784AED
:103733007C0C7D017E007F0612000A9190001B48DD
:10374300E02408F090001B47E03400F090001B32A7
:10375300E0FEA3E08E837593002412F582E43583A3
:10376300F583759300E0FEA3E0FF90001B47E0FCA8
:10377300A3E0FDEF2DFFEE3CFAA9077B0178507C17
:103783000C7D017E007F2012000A9190001B48E00F
:103793002420F090001B47E03400F090001B32E03F
:1037A300FEA3E08E837593002412F582E43583F53E
:1037B30083759300E0FEA3E0FF90001B47E0FCA3AA
:1037C300E0FDEF2DFFEE3CFAA9077B0178707C0C3E
:1037D3007D017E017F0012000A91E490001B45F0F9
:1037E300A3F090001B38F0C2010142D190001B39B5
:1037F300E0B4552390001B32E0FEA3E08E83759363
:10380300002407F582E43583F583759300E0FF24F4
:1038130005F8E664AA60028009EF2406F8E6640668
:10382300600A90001B3874A4F00142D17E007F022D
:103833007D0090001B32E0FAA3E08A837593002495
:1038430008F582E43583F583759300E0F97A007B0C
:1038530000120009357FC07E0E7D037C0090001BA3
:1038630032E0FAA3E08A837593002408F582E435F5
:1038730083F583759300E0F97A007B001200F21957
:1038830090001B32E0FEA3E08E837593002408F5BD
:1038930082E43583F583759300E07A00F97B00C0F9
:1038A30003C0012403F990001BE7EBF0A3F0A3E9A5
:1038B300F0D001D0037D037C001200F56DE4FFFE20
:1038C300FDFC90001B32E0FAA3E08A837593002489
:1038D30008F582E43583F583759300E02406F97ACD
:1038E300007B001200F21990001B32E0FEA3E08E71
:1038F300837593002408F582E43583F5837593007B
:10390300E0FF2406F97A007B00C003C001EF24091D
:10391300F990001BE7EBF0A3F0A3E9F0D001D0038B
:103923007D037C001200F56DE4FFFEFDFC90001B9F
:1039330032E0FAA3E08A837593002408F582E43524
:1039430083F583759300E0240CF97A007B00120061
:10395300E9A790001B32E0FEA3E0FF8E837593007E
:103963002408F582E43583F583759300E02417F882
:1039730076FF8F828E83759300E5822408F582E4B7
:103983003583F583759300E0F97A007B007D187C1D
:10399300001200F36F90001B43EEF0A3EFF09000D2
:1039A3001B32E0FCA3E08C837593002408F582E4CA
:1039B3003583F583759300E02418F97A007B0012B0
:1039C30000FC71E47F10FEFDFC90001BE6741AF00E
:1039D30090001B32E0FAA3E08A837593002408F574
:1039E30082E43583F583759300E0F990001BE7E4E7
:1039F300F0A3F0A3E9F012006F89EF640160079070
:103A0300001B3801425DE47FA0FEFDFC90001BE635
:103A1300741AF090001B32E0FAA3E08A83759300D6
:103A23002408F582E43583F583759300E0F990006B
:103A33001BE7E4F0A3F0A3E9F012006F89EF640140
:103A4300600790001B3801425DE4FFFEFDFC90001F
:103A53000C271200086F7FC07E0E7D037C00900050
:103A63000C231200086FE4FFFEFDFC90000C4112D2
:103A730000086F90000C2274FFF0E4FFFEFDFC9041
:103A8300000C2B1200086F013B3F90001B32E0FA41
:103A9300A3E0FB8A837593002407F582E43583F55D
:103AA30083759300E0F92405F8E6FF7E0090001B80
:103AB30045EEF0A3EFF0D39410EE940040030141E0
:103AC300D090001B45A3E0240629F8E4F67FD0FE3E
:103AD300FDFC90001BE67410F08B828A83759300C3
:103AE300E5822407F582E43583F583759300E024AA
:103AF30006F990001BE7E4F0A3F0A3E9F012006FCE
:103B030089EF6401600790001B3801425D90001B40
:103B130032E0FEA3E08E837593002407F582E4353B
:103B230083F583759300E02406F97A007B0078B768
:103B33007C0D7D017E007F1012000A91E490001B32
:103B430038F00140791200C0A840030141BDE4FFF1
:103B5300FEFDFC90001B3A1200086F90001B39E039
:103B630070471200C5A1EF4E700A90001B38745DB8
:103B7300F00142D1E4FFFEFDFC90000C27E0F8A326
:103B8300E0F9A3E0FAA3E0FBC3120007E370097FA7
:103B9300C07E0E7D03FC806790000C27E0FCA3E051
:103BA300FDA3E0FEA3E0FF805690001B39E0640113
:103BB300705790001B32E0FEA3E08E8375930024C0
:103BC30007F582E43583F583759300E0FF2405F858
:103BD300E6640460030141D0EF2406F97A007B0018
:103BE3001200D5B890001B3E1200086F90001B3ED8
:103BF300E0FCA3E0FDA3E0FEA3E0FF1200A76190B9
:103C0300001B3A1200086F80030141D0E4FFFEFD60
:103C1300FC90001B3AE0F8A3E0F9A3E0FAA3E0FB71
:103C2300C3120007E360197FC07E0E7D037C009002
:103C3300001B3AE0F8A3A3A3E0C3120007E3500379
:103C43000141D090001B3AE0FCA3E0FDA3E0FEA3FA
:103C5300E0FF90001BE67440F090001B32E0FAA3F3
:103C6300E08A837593002412F582E43583F5837526
:103C73009300E0FAA3E0F990001BE77401F0A3EAD4
:103C8300F0A3E9F012008028EF6401600790001BA5
:103C93003801425D90001B32E0FEA3E0FF8E837586
:103CA30093002411F582E43583F583759300740141
:103CB300F08F828E83759300E5822414F582E435B8
:103CC30083F583759300E4F0A37440F090001B45E3
:103CD300E4F0A37440F0E490001B38F0D201D20367
:103CE3000142D190001B39E0640160030141D0908F
:103CF300001B32E0FEA3E08E837593002407F58258
:103D0300E43583F583759300E0FF2405F8E6640446
:103D130060030141D0EF2406F97A007B001200D53D
:103D2300B890001B3E1200086F90000C27E0FCA324
:103D3300E0FDA3E0FEA3E0FF90001BE67440F090DB
:103D4300001B32E0FAA3E08A837593002412F58204
:103D5300E43583F583759300E0FAA3E0F990001B43
:103D6300E77401F0A3EAF0A3E9F012008028EF64FE
:103D730001600790001B3801425D90001B32E0FE9A
:103D8300A3E08E837593002412F582E43583F583D3
:103D9300759300E0FEA3E02405FFE43EFAA9077B48
:103DA300011200D5B890001B3A1200086F90001B57
:103DB3003EE0FCA3E0FDA3E0FEA3E0FF90001B3A7E
:103DC300E0F8A3E0F9A3E0FAA3E0FBC3120007E3E2
:103DD300600A90001B38745EF00142D1120082CD5C
:103DE30090001B38EFF060030142D1D201E401409F
:103DF300791200C0A840030141BD1200FE83900068
:103E03001B32E0FEA3E08E837593002408F582E461
:103E13003583F583759300E0F97A007B0012006B1C
:103E2300F890001B32E0FEA3E08E83759300240814
:103E3300F582E43583F583759300E0FF04F97A0096
:103E43007B00C003C001EF2404F990001BE7EBF0F3
:103E5300A3F0A3E9F0D001D0037D037C001200F5A9
:103E63006DE47F80FEFDFC90001BE67406F090007D
:103E73001B32E0FAA3E08A837593002408F582E4F9
:103E83003583F583759300E004F990001BE7E4F0B4
:103E9300A3F0A3E9F012006F89EF640160079000BB
:103EA3001B3801425DE490000C3DF090001B38F09C
:103EB300C20190001B45F0A3F07D647F0B1200C785
:103EC300ED0142D11200C0A840030141BD90001B87
:103ED30039E064996003013FA7FE7F20FD7B017AEF
:103EE3000E799012000935E47F207E01FD013F9B8E
:103EF3007F3F7E0D7D037C0090001B3AE0F8A3E03A
:103F0300F9A3E0FAA3E0FBC3120007E34003014275
:103F1300D190001B3AE0FCA3E0FDA3E0FEA3E0FF89
:103F230090001BE67420F0A37401F0A3740EF0A3B9
:103F33007490F012006F89EF6401600790001B38E2
:103F430001425D7B817A1C798A90001B3AE0FCA3D5
:103F5300E0FDA3E0FEA3E0FF7805120007F4EF54B1
:103F630003FFE4FE74A52FF582EE341DF5837593EC
:103F730000E090001BC3F0E4FD7F011200E86F90A6
:103F8300001B3AE0FCA3E0FDA3E0FEA3E02420FF36
:103F9300E43EFEE43DFDE43CFC90001B3A120008C5
:103FA3006F013EF390001B39E060030140839000F2
:103FB3001B32E0FEA3E08E837593002407F582E4B1
:103FC3003583F583759300E02405F8E690001B39EB
:103FD300F0D3940A40030141D0E490001B42F090D7
:103FE300001B39E0FF90001B42E0FEC39F503D9051
:103FF300001B32E0FCA3E08C837593002407F58259
:10400300E43583F583759300E0240DFFEE25E02569
:10401300E02FF97A007B001200AADD90001B38EF35
:10402300F0700990001B42E004F080B390001B394C
:10403300E0FF90001B42E0C39F50030142D1900078
:104043001B32E0FEA3E08E837593002407F582E420
:104053003583F583759300E02407F97A007B00121A
:1040630000DA0290001B38EFF060030142D1E490C4
:10407300001B38F0C20190001B45F0A3F00142D1B0
:104083000141D090001B39E0649960030141D07F66
:10409300607E0D7D037C0090001BE6740AF09000A7
:1040A3001B32E0FAA3E08A837593002407F582E4C8
:1040B3003583F583759300E02406F990001BE7E44C
:1040C300F0A3F0A3E9F012008028EF6401600790E9
:1040D300001B3801425D90001B32E0FEA3E08E839B
:1040E3007593002407F582E43583F583759300E027
:1040F300FF240DF8E6B45509EF240EF8E664AA6030
:1041030002806190001B32E0FEA3E08E8375930072
:104113002407F582E43583F583759300E02406F9DB
:104123007A007B007D067C001200F61990001B329A
:10413300E0FCA3E08C837593002407F582E43583C8
:10414300F583759300E0FE240CF8E66F603790006A
:104153000002EE2406F97A007B007D00AE83AF8275
:104163001200093590001B32E0FEA3E08E837593A5
:10417300002407F582E43583F583759300E0240C6E
:10418300F876AA801F90001B32E0FEA3E08E8375B1
:1041930093002407F582E43583F583759300E024C7
:1041A3000CF876FFD20190001B45E4F0A37407F0EE
:1041B300E40142C71200C0A8400A90001B3874A54E
:1041C300F00142D190001B39E06499600A90001B12
:1041D30038745CF00142D190001B32E0FEA3E08E04
:1041E300837593002407F582E43583F58375930083
:1041F300E0FF2407F97A007B00C003C001EF240D20
:10420300F990001BE7EBF0A3F0A3E9F0D001D00392
:104213007D067C001200F56DE47FF0FEFDFC90004E
:104223001BE6740CF090001B32E0FAA3E08A83755E
:1042330093002407F582E43583F583759300E02426
:1042430007F990001BE7E4F0A3F0A3E9F012006F75
:1042530089EF6401600990001B3874B1F0806F909E
:10426300001B32E0FEA3E08E837593002407F582E2
:10427300E43583F583759300E02407F97A007B0026
:1042830078F57C0D7D017E007F0412000A91900079
:104293001B32E0FEA3E08E837593002407F582E4CE
:1042A3003583F583759300E0240BF97A007B0012C4
:1042B30000FE3F90000DF9EEF0A3EFF0E490001B39
:1042C30045F0A3F090001B38F080037FA3229000F9
:1042D3001B37E0FF90001B32E0FCA3E0FD8C8375ED
:1042E30093002407F582E43583F583759300E02476
:1042F30003F8A60790001B38E0FF8D828C8375932B
:1043030000E5822407F582E43583F583759300E0A5
:104313002404F8A60720035690001B32E0FEA3E016
:104323008E837593002407F582E43583F5837593B3
:1043330000E0F97A007B0090001B45A3E0FDA20199
:1043430092041200AFEA90001B42EFF0FD90001BB5
:1043530032E0FEA3E0FF8E837593002409F582E427
:104363003583F583759300E4F0A3F0FC803290006D
:104373001B32E0FEA3E0AA06F97B0190001B45E097
:10438300FCA3E0FDA2019204120095E950319000D4
:104393001B32E0FEA3E0FF90001B45E0FCA3E0FD21
:1043A30090001B34E0FBA3E0FAA3E02406F9E43A0F
:1043B300FA120008A789828A838B931200092E7B45
:1043C300817A1C7999E4FD7F011200E86F01207E58
:1043D30090001C3AEFF0A3EDF0A3EBF0A3EAF0A3F7
:1043E300E9F0E490001C40F0A3F090001C43F0902F
:1043F300001C4AF0A3F0A3F0A304F0A3F0E4A3F09D
:10440300A3F0A3F0A3F0A3F0F514F513F512F5113F
:104413001200FDF190001C3CE0FBA3E0FAA3E0F9DD
:1044230012001F8090001C42EFF090001C3FE060E0
:104433000990001C5474FFF08006E490001C54F0B3
:1044430090001C3AE025E090001C41F0A3E0F9FD48
:1044530090001C3BE0FE2DFDE433FCC3ED9410EC17
:10446300648094804003014555EEC394084042E4C0
:1044730090001C4AF090001C3BE0940890001C4BF9
:10448300F0E490001C44F090001C46E9F0E0FFC308
:1044930013FEA3F0E490001C45F090001C53EEF0D3
:1044A300EF540190001C49F0E490001C48F00146D1
:1044B3000490001C3BE0FF90001C4AF090001C425B
:1044C300E0FEFDEF2DFDE433FCC3ED9408EC6480C6
:1044D3009480500990001C44EEF0E4801790001C77
:1044E3003BE0FFC374089FFF90001C44F090001C46
:1044F30042E0C39F90001C46F0E490001C4BF090F8
:10450300001C44E0FFC313A3F090001C52F0EF54CF
:104513000190001C48F090001C46E0FFC313A3F079
:1045230090001C53F0EF540190001C49F0700301FC
:10453300460490001C48E0700301460490001C4BA5
:10454300E004F090001C47E004F0E090001C5301ED
:1045530045FC90001C3BE0C394084042E490001CDF
:1045630048F090001C3BE0FF74109F90001C46F045
:10457300E490001C44F0A3F090001C4AF0C3EF94B5
:1045830008A3F090001C46E0FFC313A3F090001CA7
:1045930053F0EF540190001C49F06065805C90007B
:1045A3001C3BE0FFC374089F90001C44F090001C68
:1045B300467408F090001C4AEFF0E4A3F090001C4E
:1045C30044E0FFC313A3F090001C52F0EF5401FF2B
:1045D30090001C48F090001C46E0FEC313A3F0902B
:1045E300001C53F07408540190001C49F0EF601153
:1045F3007401F090001C4BE004F090001C4F740118
:10460300F0E490001C43F090001C42E0FFA3E0C3E1
:104613009F4003014ADB12001FAAE490001C4CF0E8
:1046230090001C43E0FD90001C7B7401F0A3741CFC
:10463300F0A37475F090001C3CE0FBA3E0FAA3E048
:10464300F91200DF96EF64026003014AD190001C67
:1046530075E0FEA3E0FF1200EC028F148E138D129F
:104663008C117F407E047D047C00AB14AA13A91235
:10467300A811C3120007E3505BE4F51575BE01E40E
:104683002514FBE43513FAE5123430F9E43511F857
:10469300E4FCFDFEEB2515FFEE3AFEED39FDEC38AB
:1046A300FCE42FFFE43EFEED3401FDA907AA06ABAF
:1046B3000512000524F516E4F5BE74552515F5829B
:1046C300E4341CF583759300E516F00515E515B480
:1046D30020AA80107E007F207DFF7B017A1C795504
:1046E3001200093590001C45E0D3940050030148A3
:1046F3001690001C52E0FF90001C50E09F40030105
:10470300481690001C41E044B8FB7D01E4FF120011
:104713001CCA90001C4DE0600B90001C4AE075F031
:1047230008A4801390001C50E0C454F0FF90001CB8
:104733004AE075F008A42F4440FB7D01E4FF12001A
:104743001CCAE490001C40F090001C40E0FFC3949E
:1047530010502874552FF582E4341CF583759300AB
:10476300E0FF90001C54E0FEEF6EFBE4FDFF12003F
:104773001CCA90001C40E004F080CD90001C41E076
:104783000444B8FB7D01E4FF12001CCA90001C4DD9
:10479300E0600B90001C4AE075F008A480139000C1
:1047A3001C50E0C454F0FF90001C4AE075F008A4CC
:1047B3002F4440FB7D01E4FF12001CCA90001C4003
:1047C3007410F090001C40E0FFC3942050287455EF
:1047D3002FF582E4341CF583759300E0FF90001CF1
:1047E30054E0FEEF6EFBE4FDFF12001CCA90001CB8
:1047F30040E004F080CDE490001C4DF090001C4597
:10480300E014F0E0700690001C4C04F090001C5083
:10481300E004F090001C45E06003014AD190001CC5
:1048230047E0D394005003014AD190001C4CE0644C
:10483300017003014AD190001C53E0FF90001C510A
:10484300E09F4003014AD190001C49E070030149F5
:10485300B490001C48E070030149B490001C41E08F
:1048630044B8FB7D01E4FF12001CCA7B787D01E4A0
:10487300FF12001CCAE490001C40F090001C40E0B2
:10488300FFC39408502874552FF582E4341CF58334
:10489300759300E0FF90001C54E0FEEF6EFBE4FD17
:1048A300FF12001CCA90001C40E004F080CD900071
:1048B3001C41E00444B8FB7D01E4FF12001CCA7BE9
:1048C300787D01E4FF12001CCA90001C407410F0B4
:1048D30090001C40E0FFC39418502874552FF582B4
:1048E300E4341CF583759300E0FF90001C54E0FE54
:1048F300EF6EFBE4FDFF12001CCA90001C40E004B5
:10490300F080CD90001C41E044B8FB7D017F011293
:10491300001CCA7B407D017F0112001CCA90001C51
:10492300407408F090001C40E0FFC39410502974B9
:10493300552FF582E4341CF583759300E0FF900056
:104943001C54E0FEEF6EFBE4FD7F0112001CCA90D5
:10495300001C40E004F080CC90001C41E00444B80B
:10496300FB7D017F0112001CCA7B407D017F011288
:10497300001CCA90001C407418F090001C40E0FF1B
:10498300C394204003014ABA74552FF582E4341CC2
:10499300F583759300E0FF90001C54E0FEEF6EFB7F
:1049A300E4FD7F0112001CCA90001C40E004F0806B
:1049B300C990001C41E044B8FB7D017F0112001C3B
:1049C300CA90001C4EE0600FA3E0600B90001C4BEC
:1049D300E075F008A4801390001C51E0C454F0FF6C
:1049E30090001C4BE075F008A42F4440FB7D017F31
:1049F3000112001CCAE490001C40F012001FAA9090
:104A0300001C40E02455F582E4341CF583759300C3
:104A1300E0FF90001C54E0FEEF6EFBE4FD7F01120B
:104A2300001CCA90001C40E004F0E0C3941040CB8B
:104A330090001C41E00444B8FB7D017F0112001C7F
:104A4300CA90001C4EE0600FA3E0600B90001C4B6B
:104A5300E075F008A4801390001C51E0C454F0FFEB
:104A630090001C4BE075F008A42F4440FB7D017FB0
:104A73000112001CCA90001C407410F090001C40EE
:104A8300E0FFC39420502974552FF582E4341CF5BC
:104A930083759300E0FF90001C54E0FEEF6EFBE48F
:104AA300FD7F0112001CCA90001C40E004F080CC82
:104AB30090001C51E004F0E490001C49F090001CAD
:104AC30048F090001C4EF090001C47E014F090005A
:104AD3001C43E004F001460AE4FF0200FDF69000E7
:104AE3001BAAEEF0A3EFF0A3ECF0A3EDF0A3EBF021
:104AF30090001BAAE0FEA3E0FF8E83759300240BB6
:104B0300F582E43583F583759300E4F0A3F08F8297
:104B13008E83759300E582240DF582E43583F58356
:104B2300759300E4F0A37440F08F828E8375930035
:104B3300E5822411F582E43583F5837593007401CE
:104B4300F08F828E83759300E582240DF582E43520
:104B530083F583759300E0FEA3E0FF7D0090001BC7
:104B6300AAE0FAA3E08A837593002407F582E4356B
:104B730083F583759300E0F97A007B001200093511
:104B83007E017F007D0090001BAAE0FAA3E08A83E8
:104B93007593002412F582E43583F583759300E061
:104BA300FAA3E0F97B011200093590001BAAE0FE8D
:104BB300A3E08E837593002412F582E43583F58395
:104BC300759300E0FEA3E0AA06F97B0190001C3771
:104BD3007481F0A37419F0A374B6F090000DFBE098
:104BE300FF90001C3AE4F0A3EFF012000CB9900020
:104BF3001BAAE0FEA3E08E837593002412F582E4E2
:104C03003583F583759300E0FEA3E0AA06F97B01E3
:104C130012001F8090001BAAE0FCA3E08C83759315
:104C2300002414F582E43583F583759300EEF0A335
:104C3300EFF090001BACE0FEA3E0AA06F97B01C0F5
:104C430003C002C001A3E0FD90001BAAE0FEA3E0A5
:104C5300FF8E837593002414F582E43583F5837501
:104C63009300E0FAA3E0FB8F828E83759300E582C5
:104C73002412F582E43583F583759300E0FEA3E007
:104C83002BFFEE3AFAA90790001BC27401F0A3EAC6
:104C9300F0A3E9F0D001D002D0031200EFB79000E7
:104CA3001BAEE025E0FF90001BAAE0FCA3E0FD8C17
:104CB300837593002414F582E43583F5837593009B
:104CC300E48FF01200060A8D828C83759300E582CF
:104CD3002414F582E43583F583759300E0FEA3E0A5
:104CE300FF8D828C83759300E5822412F582E4356F
:104CF30083F583759300E0FCA3E02FFFEC3EA80748
:104D0300FC7D017B817A1979C612000B1E90001B72
:104D1300AAE0FEA3E0FF8E837593002414F582E4DA
:104D23003583F583759300E475F0021200060A8F4C
:104D3300828E83759300E5822414F582E43583F52E
:104D430083759300E0FEA3E0FF90001BAAE0FCA3A1
:104D5300E0FD8C837593002412F582E43583F5839B
:104D6300759300E0FAA3E08A837593002FF582E53B
:104D7300833EF583759300E4F08D828C83759300F5
:104D8300E5822409F582E43583F583759300E4F025
:104D9300A3F090001BAAE0FEA3E0FF8E83759300AF
:104DA3002414F582E43583F583759300E0FCA3E0D6
:104DB300FD90001BB1E0FAA3E08A837593002406FB
:104DC300F582E43583F583759300E493FB740193D3
:104DD300FA740293F5828A838B931200092E900052
:104DE3001BAAE0FEA3E0FF8E83759300240BF582DC
:104DF300E43583F583759300E4F0A3F08F828E830B
:104E0300759300E5822414F582E43583F583759365
:104E1300007401F0A37454F07F3212001FB49000A9
:104E23001BAAE0FEA3E0FF90001BB1E0FCA3E08C13
:104E3300837593002409F582E43583F58375930024
:104E4300E493FB740193FA740293F5828A838B9340
:104E53007D547C011200092EEF4E70117B817A196B
:104E630079C97D147F011200E86F7F612290001BD6
:104E7300AAE0FEA3E0FF8E837593002409F582E484
:104E83003583F583759300E0FCA3E0FD8F828E8369
:104E9300759300E5822412F582E43583F5837593D7
:104EA30000E0FEA3E08E837593002DF582E5833C3D
:104EB300F583759300E4F090001BAAE0FEA3E08E57
:104EC300837593002412F582E43583F5837593008B
:104ED300E0FEA3E0AA06F97B0190001BC17481F0F8
:104EE300A37419F0A374B3F01200DAD6E94A4B7035
:104EF300037F612290001BAAE0FEA3E08E837593DB
:104F0300002412F582E43583F583759300E0FEA354
:104F1300E0AA06F97B0190001C377481F0A3741991
:104F2300F0A374D3F090000DFBE0FF90001C3AE473
:104F3300F0A3EFF012000CB990001BAAE0FEA3E06F
:104F4300FF8E837593002411F582E43583F5837511
:104F530093007401F090001BAAE0FCA3E08C83751E
:104F630093002414F582E43583F583759300E0FC04
:104F7300A3E0FD90001BB1E0FAA3E08A83759300E0
:104F83002406F582E43583F583759300E493FB747B
:104F93000193FA740293F5828A838B931200092E8C
:104FA30090001BAAE0FEA3E0FF90001BB1E0FCA36E
:104FB300E08C837593002409F582E43583F58375CA
:104FC3009300E493FB740193FA740293F5828A834A
:104FD3008B937D147C001200092E7F3212001FB4C4
:104FE30090001BAAE0FEA3E0FF8E837593002409C3
:104FF300F582E43583F583759300E4F0A3F0900024
:105003001BB1E0FCA3E08C837593002409F582E4D3
:105013003583F583759300E493FB740193FA74026B
:1050230093F5828A838B937D547C011200092E9021
:10503300001BAAE0FEA3E0FF8E837593002409F50D
:1050430082E43583F583759300E0FCA3E0FD8F8252
:105053008E83759300E5822412F582E43583F5830C
:10506300759300E0FEA3E08E837593002DF582E532
:10507300833CF583759300E4F090001BAAE0FEA344
:10508300E08E837593002412F582E43583F58375EE
:105093009300E0FEA3E0AA06F97B0190001BC17414
:1050A30081F0A37419F0A374E2F01200DAD6900031
:1050B3001BB4EBF0A3EAF0A3E9F04A4B70117B8138
:1050C3007A1979EB7D147F011200E86F7F622290D9
:1050D300001BAAE0FEA3E08E837593002409F582EA
:1050E300E43583F583759300E0FEA3E0C39401FFE9
:1050F300EE9400FE90001BB4E0FBA3E0FAA3E02FC4
:10510300F9EA3EFA12000524642C6010D3EF9400F0
:10511300EE94004007EF1F70DB1E80D8EF4E700344
:105123007F6122E92401F9E43AFAC002C001900048
:105133001BAAE0FCA3E08C837593002409F582E4A9
:105143003583F583759300A3E0C39FFD90001BAFE8
:10515300E0FEA3E0AA06F990001BC27401F0A3EAE3
:10516300F0A3E9F0D001D0021200EF377F002290C4
:10517300001B8AEBF0A3EAF0A3E9F090001BE174B3
:105183001AF07E007F407D007B017A1B7995120027
:1051930009357E007F027D007B017A1B79D51200E1
:1051A300093590001BDF7401F0E47F10FEFDFC90D5
:1051B300001BE1E090001BE6F0A37401F0A3741B55
:1051C300F0A37495F0120080287E0090001B8DEEF2
:1051D300F0A3EFF070037FB1227B017A1B799590E6
:1051E300001BE1E0C39402FD7C001200F36F90000A
:1051F3001B8FEEF0A3EFF07B017A1B79D51200FC35
:105203007178D57C1B7D017B017A1B79AD7E007F94
:1052130002120009FEEF60030152CA90001BDEF088
:1052230090001BDEE0FF2498F582E4341BF58375C0
:105233009300E0F4FE74952FF582E4341BF5837537
:105243009300E0B5063190001BDEE0FF249EF5825B
:10525300E4341BF583759300E0F4FE749B2FF58211
:10526300E4341BF583759300E0B5060B90001BDE59
:10527300E004F0E0B403A978777C0D7D017B017A2B
:105283001B79957E007F4012000A91E490001BDF9A
:10529300F090000C2FE0702F7FA0FEFDFC90001B10
:1052A300E1E090001BE6F0A37401F0A3741BF0A3EC
:1052B3007495F012006F897E0090001B8DEEF0A3B1
:1052C300EFF070037FB12290001BDFE06401600305
:1052D3000153D6FE7F40FD7B017A1B7995120009AD
:1052E30035E47FA0FEFDFC90001BE1E090001BE68F
:1052F300F0A37401F0A3741BF0A37495F012008063
:10530300287E0090001B8DEEF0A3EFF070037FB1B9
:10531300227E007F027D007B017A1B79D512000972
:10532300357B017A1B79957D187C001200F36F9011
:10533300001B8FEEF0A3EFF07B017A1B79D51200EF
:10534300FC7178D57C1B7D017B017A1B79AD7E00D6
:105353007F02120009FEEF60037F5C22E490001BD2
:10536300DEF090001BDEE0FF2498F582E4341BF5A9
:1053730083759300E0F4FE74952FF582E4341BF5F6
:1053830083759300E06E60037F5C2290001BDEE078
:10539300FF249EF582E4341BF583759300E0F4FE4D
:1053A300749B2FF582E4341BF583759300E06E60E4
:1053B300037F5C2290001BDEE004F0E0B403A378DB
:1053C300777C0D7D017B017A1B79957E007F4012EE
:1053D300000A917B017A1B79A11200D5B890001BBA
:1053E3008AE0FBA3E0FAA3E02405F9E43AFA120009
:1053F30008371200081A90000C2B1200086F7B016B
:105403007A1B79951200E5EB90000C231200086FCC
:105413007B017A1B799B1200E5EB90000C271200AD
:10542300086F90001BACE090000C22F090001BE092
:10543300F01200FC4150037F0D22E4FFFEFDFC90BF
:10544300000C27E0F8A3E0F9A3E0FAA3E0FBC31202
:105453000007E3703E7FC07E0E7D03FC90000C27A7
:105463001200086F7FC07E0E7D037C007B017A1BD8
:10547300799B1200F21990001BE77401F0A3741BCF
:10548300F0A3749EF07B017A1B799B7D037C001251
:1054930000F56D90000C23E0FCA3E0FDA3E0FEA368
:1054A300E02440FFE43EFEE43DFDE43CFC90001BB1
:1054B300911200086FE4FFFE7D08FC90001B91E051
:1054C300F8A3E0F9A3E0FAA3E0FBC3120007E3406B
:1054D300447FC07E0E7D037C0090001B9112000868
:1054E3006F90000C27E0FCA3E0FDA3E0FEA3E0FF28
:1054F30090001B91E0F8A3E0F9A3E0FAA3E0FBD34B
:10550300120007E35008E490001BE0F080079000CE
:105513001BE074FFF090000C23E0FCA3E0FDA3E08C
:10552300FEA3E0FF90001B8AE0FBA3E0FAA3E024C4
:1055330037F9E43AFA1200083790001B91E0FCA314
:10554300E0FDA3E0FEA3E0FF7B017A1B7995120047
:10555300F21990001BE77401F0A3741BF0A3749875
:10556300F07B017A1B79957D037C001200F56D7B3E
:10557300017A1B79A51200D5B890000C41120008DE
:105583006F78D77C1B7D017B017A1B79A97E007F15
:105593000312000A9190000C41E0FCA3E0FDA3E09C
:1055A300FEA3E0FF90001B8AE0FBA3E0FAA3E02444
:1055B30011F9E43AFA12000852EF2BFFEE3AFEED2E
:1055C30039FDEC38FC90000C411200086F783E7CEA
:1055D3000C7D017B017A1B79A97E007F0312000AEF
:1055E3009190000C41E0FCA3E0FDA3E0FEA3E0FFEB
:1055F3007B017A1B79A51200E9A790001B8AE0FBC7
:10560300A3E0FAA3E02405F9E43AFA1200081AEF3A
:105613002401FFE43EFEE43DFDE43CFC7B017A1BF8
:1056230079A11200E9A790000C2BE0FCA3E0FDA3F5
:10563300E0FEA3E02401FFE43EFEE43DFDE43CFC88
:1056430090000C2B1200086F90001B91E0FCA3E06C
:10565300FDA3E0FEA3E0FF90000C231200086F906F
:10566300001BE0E090001BACF07B017A1B79957D79
:10567300187C001200F36F90001B8FEEF0A3EFF085
:105683007B017A1B79AD1200FC71E47F10FEFDFCF7
:1056930090001BE1E090001BE6F0A37401F0A374FB
:1056A3001BF0A37495F012006F897E0090001B8D90
:1056B300EEF0A3EFF06401700D90001BE0E09000AA
:1056C3000C22F07F00227FB12290001B6A7401F04C
:1056D300E4A3F0A37407F07F011200AE4590001B12
:1056E30069EFF014601624FC602D2403702C9000E5
:1056F3001B6BE0D394004022E014801190001B6CDC
:10570300E0FF90001B6BE0C39F500FE004F090009C
:105713001B6A7401F080037F002290001B6AE06023
:10572300B67E007F447D007B017A1B791B12000942
:105733003590001B6BE0B408004003015BB390009D
:10574300574A25E025E0730200576A020058190200
:105753000058BC0200594B020059D002005A4302C0
:10576300005AB202005B1490001C377481F0A374DA
:1057730015F0A3749CF07B017A1B791B12000CB902
:1057830090001C377481F0A37415F0A374A7F090F4
:10579300000C1EE0FF90001C3AE4F0A3EFF0900031
:1057A3000C1FE0FF90001C3CE4F0A3EFF090000C12
:1057B30020E0FF90001C3EE4F0A3EFF090000C21EA
:1057C300E0FF90001C40E4F0A3EFF07B017A1B792B
:1057D3002C12000CB990001C377481F0A37415F0DF
:1057E300A374B8F07B017A1B793D12000CB9120047
:1057F300FE837B017A1B795F12006BF890001B71AB
:105803007401F0A3741BF0A3744EF07B017A1B792F
:105813005F7D07015AAB90001C377481F0A37415A8
:10582300F0A374C1F07B017A1B791B12000CB990B1
:10583300001C377481F0A37415F0A374CCF09000AE
:105843000C41E0FCA3E0FDA3E0FEA3E0FFE41200B3
:1058530000CDE4FBFA79C878421200002B90001CBB
:105863003A1200086F7B017A1B792C12000CB99055
:10587300001C377481F0A37415F0A374D5F07B0179
:105883007A1B793D12000CB990001C377481F0A388
:105893007415F0A374CCF090000C45E0FCA3E0FD7C
:1058A300A3E0FEA3E0FFE4120000CDE4FBFA79C815
:1058B30078421200002B0159C590001C377481F007
:1058C300A37415F0A374E2F07B017A1B791B120019
:1058D3000CB990001C377481F0A37415F0A374CC39
:1058E300F090000C36E0FCA3E0FDA3E0FEA3E0FF94
:1058F300E4120000CDE4FBFA79C878421200002BD1
:1059030090001C3A1200086F7B017A1B792C12005D
:105913000CB990001C377481F0A37415F0A374EBD9
:10592300F07B017A1B793D12000CB990001C37748F
:1059330081F0A37415F0A374F8F090000C3CE0FF21
:1059430090001C3AE4015BA590001C377481F0A31E
:105953007415F0A374FEF07B017A1B791B12000C03
:10596300B990001C377481F0A37416F0A37407F088
:1059730090000C3AE0FFA3E090001C3ACFF0A3EFB5
:10598300F07B017A1B792C12000CB990001C377440
:1059930081F0A37416F0A3740DF07B017A1B793D9B
:1059A30012000CB990001C377481F0A37416F0A395
:1059B3007418F090000C2BE0FCA3E0FDA3E0FEA321
:1059C300E0FF90001C3A1200086F015BA990001CD5
:1059D300377481F0A37416F0A3741CF07B017A1B57
:1059E300791B12000CB91200C5A190001C377481F9
:1059F300F0A37416F0A37427F0A3EEF0A3EFF07BEB
:105A0300017A1B792C12000CB990001C377481F0B9
:105A1300A37416F0A3742DF07B017A1B793D120059
:105A23000CB990001C377481F0A37416F0A374367C
:105A3300F0A37481F0A37416F0A37439F0015BA989
:105A430090001C377481F0A37416F0A37442F07BAA
:105A5300017A1B791B12000CB990001C377481F07A
:105A6300A37416F0A3744CF090000C3DE0FF90007B
:105A73001C3AE4F0A3EFF07B017A1B792C12000CA3
:105A8300B9783D7C1B7D017B817A16795212000B1C
:105A93001E90001B717401F0A3741BF0A3744EF0ED
:105AA3007B017A0D79EF7D061200E731015BB3903C
:105AB300001C377481F0A37416F0A3745FF07B01AC
:105AC3007A1B791B12000CB990001C377481F0A368
:105AD3007416F0A37436F0A37481F0A37416F0A3C4
