:10000000021B597E11DEFEDFFA00220200CE64538D
:10001000E8EF438EC075C7AA75C75543D803227F42
:020020000122BB
:100023000200C8B60200014BEC5D046005E8590408
:100033007004020001411200010C580460F4EC4802
:1000430060F0EC7004FDFEFF22C860D82481C85024
:100053000AC39860025007020001489850C6F5820F
:10006300E9294B4A7006AB820200013775F0007C28
:100073001A7880C3EF9BEE9AED99400DC3EF9BFF77
:10008300EE9AFEED99FDE842F0DC24ACF0D0E0FFFF
:10009300D0E0FED0E0FDAB8220E7101BEB60B8ECB4
:1000A3002CFCEF33FFEE33FEED33FD02000123E8BA
:1000B30003F830E705C0F075F000EF2FFFEE33FED5
:1000C300ED33FD40B730E7C180A975F020800E7590
:1000D300F010800575F0087D007E007F003392D517
:1000E30030D504120007BFEC334010EF33FFEE337B
:1000F300FEED33FDEC33FCD5F0ED22E5F0247EA2DA
:10010300D513CC92E7CDCEFF22E9D2E7C933E8334A
:10011300F892D5EDD2E7CD33EC33FC5002B2D522C1
:10012300EC30E7100FBF000C0EBE00080DBD00043D
:100133000BEB6014A2D5EB13FCED92E7FD2274FFE9
:10014300FCFDFEFF22E480F8A2D574FF13FC7D8042
:10015300E480EFF920E73624F950037907E4F42427
:1001630002FBE582158270021583DBF6E024FB5067
:100173001BE96014E4F0E582158270021583E00444
:10018300F0B40A08E4F0D9EE7401F00A22C2D522D1
:10019300ED33EC3392D5FA602AB4FF33EDC2E77B3B
:1001A3008160067A0179B8E4227A0179C120D50405
:1001B3007A0179BC224E614E002B494E46002D49EF
:1001C3004E4600E47A08F0A3DAFC7B00740722C0F1
:1001D30093C083C082ECC0E0EDC0E0EEC0E0EFC0AE
:1001E300E0EA75F010A4CAABF075F04DA42BFBE464
:1001F30035F0FCEA2410FAEB34C5FBEC34D9FCED02
:10020300C2E7FF75F056A4F42411C5F0F434C58F8A
:10021300F0A42AE5F03BE43CF020E716120004DEEC
:10022300D0E0FFD0E0FED0E0FDD0E0FC1200002BD8
:100233008016F404120004DED0E0FFD0E0FED0E02C
:10024300FDD0E0FC120003A0D082D083D093E0FA6B
:10025300EDD2E7CD33EC332482FBE4C3CF33CFCEEF
:1002630033CECD33CD33DBF37B0775F00A846004E3
:10027300F0A31B0AE5F0F0A38FF0740AA4FFACF01F
:100283008EF0740AA42CFEACF050010C8DF0740AAD
:10029300A42CFDE435F0F0A3DBDE74072202000199
:1002A30041E86480F8E933E83360110460EFED332B
:1002B300EC337009E8FCE9FDEAFEEBFF220460DDA4
:1002C300D3EB9FEA9EE99DE8C2E78CF0C2F795F075
:1002D300400CE8CCF8E9CDF9EACEFAEBCFFB1200FB
:1002E300010C85D0F05804700320D5B1E8047008E0
:1002F3005002B2D50200014B92D5EC0460F6E4CC77
:10030300C0E0C398F8603C94186009400ED0E0FB4D
:1003130002000123E4FBFAC9FC8028E830E406E488
:10032300C9FBE4CAFCE830E305E4C9CACBFCE854E2
:10033300076010F8C3E913F9EA13FAEB13FBEC13A4
:10034300FCD8F130F531C3E49CFCEF9BFFEE9AFE41
:10035300ED99FDD0E0FBEF4E4D4C701322DB040210
:10036300000148EC2CFCEF33FFEE33FEED33FDEDE3
:1003730030E7EA02000123EF2BFFEE3AFEED39FDF1
:10038300D0E0FB50140BBB00040200014BED13FD46
:10039300EE13FEEF13FFEC13FC02000123EC4D60A0
:1003A30011E8497018ED33EC3304600DE4FCFFFEF3
:1003B300FD22E933E8330470F80200014112000121
:1003C3000C58046009E4CC2481500728500B020028
:1003D300014B28400402000148C0E0EB4A7046B9D3
:1003E3008007D0E0FB02000137EF4E701DBD80088F
:1003F300EBFFEAFEE9FD80EAE98DF0A4FEE5F002F9
:1004030000048FE9CDF9EAFEEBFFEF89F0A4FCE5E8
:10041300F0CE89F0A42EFFE435F0CD89F0A42DFEB3
:10042300E435F08067EF4E7005BD80D780C2EF8B57
:10043300F0A4ACF0EE8BF0A42CFCE435F0F8EF8ADA
:10044300F0A42CE5F038FCE433CB8DF0A42CFCE5D0
:10045300F03BF8EE8AF0A42CFCE5F038F8E433CF57
:1004630089F0A42CFCE5F038CF3400CE89F0A42F1A
:10047300FFE5F03EFEE433C98DF0A42EFEE5F0392E
:10048300CD8AF0A42FFFE5F03EFEE43DFD33D0E03E
:10049300FB50080BBB00100200014BEC2CFCEF33AC
:1004A300FFEE33FEED33FD020001233F80000041E8
:1004B30020000042C80000447A0000461C40004768
:1004C300C35000497424004B1896804CBEBC205A7C
:1004D3000E1BCA6753C21C749DC5AEFB600654074E
:1004E3006020232312000511EB5438600C12000422
:1004F300FC1200050C120003A0ECF8EDF9EEFAEF84
:10050300CB22EB1200050C80F0543803241C90001E
:1005130004AEFE93FC0EEE93FD0EEE930ECE93FF10
:1005230022EB7002E72289828A831410E704F59391
:10053300E022F593E49322BB000327F722F8EB892B
:10054300828A831410E706F593E028F022F593E4FA
:10055300932822BB0002F722BB8000500989828ABC
:10056300838B931593F022EF8DF0A4A8F0CF8CF03A
:10057300A428CE8DF0A42EFE22BC000BBE0029EFD2
:100583008DF084FFADF022E4CCF875F008EF2FFF77
:10059300EE33FEEC33FCEE9DEC984005FCEE9DFE45
:1005A3000FD5F0E9E4CEFD22EDF8F5F0EE0084205E
:1005B300D21CFEADF075F008EF2FFFED33FD4007C1
:1005C300985006D5F0F222C398FD0FD5F0EA22C267
:1005D300D5EC30E709B2D5E4C39DFDE49CFCEE30D5
:1005E300E716B2D5E4C39FFFE49EFE1200057CC369
:1005F300E49DFDE49CFC80041200057C30D507C318
:10060300E49FFFE49EFE22C5F0F8A3E028F0C5F0C6
:10061300F8E582158270021583E038F022A3F8E032
:10062300C5F025F0F0E582158270021583E0C83825
:10063300F0E822EB7007E7F5F009E7192289828ACF
:10064300831410E708F593E0F5F0A3E022F593E4B3
:1006530093F5F074019322BB000B09C5F027F7C58E
:10066300F01937F722F8EB89828A831410E707F52C
:1006730093E80200060AF59374019325F0F5F0E47C
:10068300933822BB0006F709A7F01922BB8000505C
:100693000D89828A838B931593F0E5F0A3F022E80A
:1006A3008FF0A4CC8BF0A42CFCE98EF0A42CFC8A54
:1006B300F0EDA42CFCEA8EF0A4CDA8F08BF0A42DD1
:1006C300CC3825F0FDE98FF0A42CCD35F0FCEB8E72
:1006D300F0A4FEA9F0EB8FF0A4CFC5F02ECD39FE28
:1006E300E43CFCEAA42DCE35F0FDE43CFC2275F09D
:1006F30008758200EF2FFFEE33FECD33CDCC33CC24
:10070300C58233C5829BED9AEC99E58298400CF53E
:1007130082EE9BFEED9AFDEC99FC0FD5F0D6E4CE6C
:10072300FBE4CDFAE4CCF9A88222B800C1B90059A0
:10073300BA002DEC8BF084CFCECDFCE5F0CBF9786D
:1007430018EF2FFFEE33FEED33FDEC33FCEB33FB01
:1007530010D703994004EB99FB0FD8E5E4F9FA228B
:100763007818EF2FFFEE33FEED33FDEC33FCC93386
:10077300C910D7059BE99A4007EC9BFCE99AF90F4E
:10078300D8E0E4C9FAE4CCFB2275F010EF2FFFEEBA
:1007930033FEED33FDCC33CCC833C810D7079BEC05
:1007A3009AE899400AED9BFDEC9AFCE899F80FD57D
:1007B300F0DAE4CDFBE4CCFAE4C8F922C3E49FFF0A
:1007C300E49EFEE49DFDE49CFC22EB9FF5F0EA9E93
:1007D30042F0E99D42F0EC6480C864809845F022C1
:1007E300EB9FF5F0EA9E42F0E99D42F0E89C45F06C
:1007F30022E8600FECC313FCED13FDEE13FEEF13C1
:10080300FFD8F122E8600FEFC333FFEE33FEED3381
:10081300FDEC33FCD8F122EB7006E9F802000B91F2
:1008230089828A831410E706F59302000B9DF593E2
:1008330002000BA9BB0006E9F802000BE2BB800033
:10084300500C89828A838B9315930200088F22EBC5
:100853007006E9F802000BB989828A831410E7064F
:10086300F59302000BC6F59302000BD27401FF331C
:1008730095E0FEFDFC080808E62FFFF618E63EFEAD
:10088300F618E63DFDF618E63CFCF622ECF0A3ED87
:10089300F0A3EEF0A3EFF022A42582F582E5F03574
:1008A30083F58322F8E0FBA3A3E0F925F0F0E582CA
:1008B300158270021583E0FA38F022EBF0A3EAF018
:1008C300A3E9F022EB7006E9F802000BEE89828AB5
:1008D300831410E706F59302000BF7F59302000C5F
:1008E30000D093D083D082F8E49370127401937094
:1008F3000DA3A393F8740193F5828883E4737402C0
:10090300936860EFA3A3A380DFD093D083D082E466
:10091300937012740193700DA3A393F8740193F56C
:10092300828883E4737402936C70127403936D7002
:100933000C7404936E70067405936F60DDA3A3A318
:10094300A3A3A380CA8B938A838982159353937F2E
:10095300E473EF4E6022EF60010EEDBB0007F70971
:10096300DFFCA9F022BB8000500E89828A838B931F
:100973001593F0A3DFFCDEFA22EB700C87F009E697
:1009830008B5F019DFF6801589828A831410E70F02
:10099300F593E0F5F0A3E608B5F002DFF5806AF51C
:1009A30093E493F5F0A3E608B5F05EDFF4805ACB49
:1009B300701388828C838B9387F009E493A3B5F03B
:1009C30048DFF580441410E71F88848C858B958954
:1009D300828A83F593758620E0F5F0E493A3A3B5AB
:1009E300F024DFF4DEF2801E88848C858B95898267
:1009F3008A83F593758620E493F5F0E493A3A3B576
:100A0300F004DFF3DEF17586007FFFB5F0020F22FD
:100A130040027F01220200097C809488F0EF60018C
:100A23000E4E60F0ED60EE1410E7EECB701288828C
:100A33008C83F59387F009E0A3B5F0CDDFF680C989
:100A43001410E71E88848C858B9589828A83F5939D
:100A5300758620E0F5F0E0A3A3B5F0AADFF5DEF399
:100A630080A488848C858B9589828A83F593758687
:100A730020E493F5F0E0A3A3B5F08BDFF4DEF2807E
:100A830085EB7008E709F608DFFA801B89828A8301
:100A93001410E70AF593E0A3F608DFFA8009F5934B
:100AA300E493A3F608DFF9ECFAA9F0EDFB2288F052
:100AB300EF60010E4E60F088F0ED60C51410E7E7BB
:100AC300CB700E88828C838B93E709F0A3DFFA80C7
:100AD300D61410E71C88848C858B9589828A83F5CC
:100AE30093758620E0F0A3A3DFFADEF87586008015
:100AF300B688848C858B9589828A83F59375862045
:100B0300E493F0A3A3DFF9DEF77586008099EB7019
:100B130008E709F60870FA801B89828A831410E7B4
:100B23000AF593E0A3F60870FA8009F593E493A31A
:100B3300F60870F9ECFAA9F0EDFB2288F0ED60CE2F
:100B43001410E7F0CB700E88828C83F593E709F0DD
:100B5300A370FA80DF1410E71A88848C858B95893B
:100B6300828A83F593758620E0F0A3A370FA7586D5
:100B73000080C188848C858B9589828A83F59375DF
:100B83008620E493F0A3A370F975860080A6E6FCA3
:100B930008E6FD08E6FE08E6FF22E0FCA3E0FDA36D
:100BA300E0FEA3E0FF22E493FC740193FD7402933F
:100BB300FE740393FF22E6FB08E6F908E6FA08E66B
:100BC300CBF822E0F8A3E0F9A3E0FAA3E0FB22E4E8
:100BD30093F8740193F9740293FA740393FB22EC70
:100BE300F608EDF608EEF608EFF622E6FB08E6FA5D
:100BF30008E6F922E0FBA3E0FAA3E0F922E493FB81
:100C0300740193FA740293F922BB001CD093D0F0C1
:100C1300D0E0F8D0E0C9FBD0E0FAD0E0CBC8C0E028
:100C2300C0F0C09302000C60BB80005022D093D070
:100C3300F0D0E0F8D0E0C9F582D0E0CAF583D0E087
:100C4300CB14C8C0E0C0F0C0938893020008BED0A4
:100C530093D083D082D0E0D0E0D0E0E473EBF60809
:100C6300EAF608E9F622E5112401F582E43416F5E3
:100C730083759300E0051122900015FE300B04905C
:100C8300001601E475F001120008A70200052420F4
:100C930004E57F2ED2048018EF540F2490D43440FF
:100CA300D4FF30080BEF24BFB41A0050032461FFB4
:100CB300E512600215120515E51570020514300BD7
:100CC30011900015FEE475F001120008A7EF020071
:100CD3000556020020257403D20B8003E4C20BF5F2
:100CE30011900015FE120008BEE4F512F514F51577
:100CF300E51260087F2012000CB380F47513FFC265
:100D030005C204C206C207C209C20AC20C12000C01
:100D13007BFF700E300B067F0012000CC4AF15AEC4
:100D23001422B42563C2D5C20812000C7BFF24D061
:100D3300B40A00501A75F00A781230D50508B6FFC8
:100D43000106C6A426F620D5047002D20780D82453
:100D5300CFB41A00EF5004C2E5D20802001001D24A
:100D63000580C4D20480BED20680BAD2D580B8D260
:100D73000980B27F2012000CB32006077401B5125C
:100D83000040F012000C69FF12000CB302000CF3D8
:100D9300D20CD20A808F12000C69FB12000C69FA84
:100DA30012000C69F94A4B7006790E7A117B812087
:100DB300063DE51260397E00E9C0E02EF9EAC0E0A5
:100DC3003400FA12000524F9D0E0FAD0E0C9600635
:100DD3000EEE651370E2C2D5EBC0E0EAC0E0E9C0F5
:100DE300E0EE12001069D0E0F9D0E0FAD0E0FB1297
:100DF300000524FF6096EBC0E0EAC0E0E9C0E01222
:100E0300000CB3D0E02401F9D0E03400FAD0E0FBC9
:100E1300E5130460DAD513D702000D8FD206808F55
:100E23001200104560F6E51370010412000156A983
:100E330013600EE513600A14F513120010F8EF6047
:100E4300F2EA30E702F404C399400402000ED8EA40
:100E5300F425130430E701E404F513800F120010A6
:100E63004560B9EA0513251312000156EA900016EE
:100E73002DF030E701E4251304D5130420090114F0
:100E830012001069E4C0E0120010F89000162DE083
:100E9300601420E70814F012000C9B802604F0D0A5
:100EA300E014C0E07F0012000C9BE5136008120001
:100EB3000C921513800D30090412000C92D0E0023D
:100EC300000CF3D0E00480BD120010456093E513DD
:100ED30004120001569000162DEAF0E513200902D2
:100EE30060010424041200106974FF04C0E01200BE
:100EF30010F812000C9BE513200902600412000C89
:100F030092D0E0B513E57F4512000CA59000162D95
:100F1300E07F2B30E7047F2DF404C0E012000CB314
:100F2300D0E075F00A84C0F012000C9CD0E01200EF
:100F33000C9C02000CF3791080027908C20AC20CDF
:100F43008008D2D5790A8004790AC2D5E5130470E2
:100F530002F513E4FAFDFEFF12000C69FC7B082086
:100F6300051612000C69FD7B1030040C12000C698D
:100F7300FE12000C69FF7B20EC3382D592D550130F
:100F8300C3E43004069FFFE49EFEE42005039DFDB9
:100F9300E49CFCE4CBF8C205EC700CCFCECDCCE8DE
:100FA30024F8F870F38017C3EF33FFEE33FEED330D
:100FB300FDEC33FCEB33FB994002FB0FD8E9EB303C
:100FC3000505F8D0E0C448B205C0E00AEC4D4E4F29
:100FD30078207B0070C2EAB5130040BCC0E0120069
:100FE300106BD0F0D0E0200504C4C0E0C4B205C04B
:100FF300F012000C9CD0F0D5F0EA02000CF31200C2
:1010030008E40D99530F39580D664C0D62420F3D9C
:101013004F0F45440F45490D7C430F4B550E60461A
:101023000ECB450E2347112B500D6A2D0D6E2E0D41
:10103300952B0D72230D932011172A0D28480000BC
:101043000D8BE513B4FF0375130612000C69FC1234
:10105300000C69FD12000C69FE12000C69FF900080
:10106300162602000193790AA2D520071430090934
:10107300B910020404B9080104A2D5200A025001E0
:101083000420066D9206B512005036C0E07F203072
:10109300071A7F30A206720A72095010120010C498
:1010A300C206C20AC209C20C7F308010300903E9AC
:1010B300C0E012000CB3300903D0E0F9D0E0B51260
:1010C300CA3009197F30B9100D12000CB37F5830A4
:1010D30008077F788003B9080412000CB3300606B2
:1010E3007F2D02000CB37F20200CF77F2B200AF208
:1010F30022920680CC7F00B40700500E2426F5828E
:10110300E43416F583759300E0FF22286E756C6C4A
:101113002900D20512000C693005F7C20578123098
:10112300D50108F602000D2812000C697F496008FA
:101133007F4310E7027F5814C0E0EF12000CA47441
:101143003A12000CA4D0E0600DC0E0C412000C9C65
:10115300D0E012000C9CD20775120402000F392054
:10116300202020202020202020202020202020009C
:1011730000000000000000000000004F000000001D
:10118300000007000700000000147F147F14000014
:1011930000242A7F2A12000000231308646200003F
:1011A30000364955225000000000050300000000EE
:1011B30000001C2241000000000041221C0000002E
:1011C3000014083E081400000008083E0808000048
:1011D300000050300000000000080808080000006C
:1011E30000006060000000000020100804020000FE
:1011F300003E5149453E0000000000427F40000090
:101203000042615149460000002141454B31000035
:10121300001814127F1000000027454545390000CF
:10122300003C4A49493000000001017905030000F0
:10123300003649494936000000064949291E000085
:1012430000003636000000000000563600000000A3
:1012530000081422410000000014141414140000A8
:101263000000412214080000000201510906000099
:1012730000324979413E0000007E1111117E0000C9
:1012830000417F4949360000003E414141220000B0
:1012930000417E4141223C00007E4949494900000A
:1012A300007F090909010000003E4141497A00001D
:1012B300007F0808087F00000000417F4100000014
:1012C300002040413F010000007F0814224100003C
:1012D300007F404040400000007F020C027F00007E
:1012E300007F0608307F0000003E4141413E000080
:1012F300007F090909060000003E4151215E0000FC
:10130300007F091929460000002649494932000097
:101313000001017F01010000003F4040403F000009
:10132300001F2040201F0000007F2018207F0000A6
:101333000063140814630000000708700807000026
:10134300006151494543000000007F414100000016
:101353000002040810200000000041417F0000004B
:10136300000402010204000000404000404000006D
:1013730000010204000000000020545454780000CF
:10138300007F4844443800000038444444280000A7
:1013930000384444487F0000003854545418000077
:1013A3000000087E09020000000C52524C3E00006F
:1013B300007F0804047800000000447D4000000022
:1013C300002040443D00000000007F10284400003E
:1013D3000000417F40000000007C04780478000096
:1013E300007C0804047800000038444444380000BA
:1013F300007E0C12120C0000000C12120C7E000076
:10140300007C08040408000000585454546400008D
:1014130000043F4440200000003C40403C400000AA
:10142300001C2040201C0000003C4030403C0000D9
:101433000044281028440000001CA0A0907C000059
:10144300004464544C44000000000836410000008E
:101453000000007700000000000041360800000093
:10146300000201020402000000FFFFFFFFFF000073
:10147300D6D0CDBEB0CEBFA800B2BBBFC9CAB6B12D
:10148300F0BFA800BFA8C7AEB0FCB4EDCEF300CE4A
:10149300B4C9CFB4ABC1F7CBAE00C7EBB2C9BCAFD5
:1014A30000BADABFA800BFA8D2D1B9C6DA00CEDE2F
:1014B300C8A8CFDE00BFA8D3E0B6EEB2BBD7E30027
:1014C300BFA8D2D1CBF800C3E2B7D1BFA800BCC735
:1014D300C2BCD2D1C2FA00D6D8B8B4CBA2BFA8003E
:1014E300C9E8D6C3B4EDCEF300CAB1D6D3B4EDCEBA
:1014F300F300D3B2BCFEB9CAD5CF00B2BBD6A7B3F3
:10150300D6BFA8C0E0D0CD0000B4E6B4A2C8DDC108
:10151300BF00CEEFC0ED4944CEB4C9E8D6C300B195
:10152300B8B2CE00D6F7B2CEB4EDCEF300BBD6B888
:10153300B4D6F70057522053455249414C00524408
:101543002053455249414C005B25645DB4EDCEF315
:10155300C2EBA3BA25642000252E303266007265E3
:1015630061646572004550203100455044203100CC
:101573006B657900455020320045504420320045C8
:10158300502033004550442033004550203400455B
:1015930050203500312E20BAECCDE2CDA8D1B620B3
:1015A3002000322E20B4AEBFDACDA8D1B620200061
:1015B300332E2047505253CDA8D1B62020002020EF
:1015C300202020202020202020202000C9E8B1B89E
:1015D300CEEFC0ED4944002530325825303258252E
:1015E3003032582530325800CFB5CDB3CAB1BCE440
:1015F30000B5B1CCECD3AAD2B5B6EE00252E30326D
:101603006620D4AA00C7B0D2BBCCECD3AAD2B5B65D
:10161300EE00BBF9B4A1B7D1C2CA00B2C9BCAFCA0C
:10162300B1BCE4BCE4B8F400256420CCEC00C1AC4C
:10163300D0F8CBA2BFA800256420C3EB00B5B1C787
:10164300B0C1F7CBAEBAC500256C7500CEB4B2C934
:10165300BCAFBCC7C2BC00257520CCF500B3CCD051
:10166300F2B0E6B1BE002573003130303630314977
:10167300474300CEB4B2C9BCAFCCECCA0025752039
:10168300CCEC00BADAC3FBB5A5B0E6B1BEBAC5006F
:101693004275696C64004A756E20303120323031F6
:1016A300300030393A33333A313700B7FECEF1C622
:1016B300F749500025642E25642E25642E256400E9
:1016C300B7FECEF1C6F7B6CBBFDA00256400312EE4
:1016D30020CBA2BFA8CAD5B7D1202000322E20B27A
:1016E300E9D1AF20202020202000332E20CDA8D107
:1016F300B62020202020200000B00000A40000001D
:10170300DF03006C6F6164696E67207073616D2025
:101713002E2E2E2E005053414D006C6F6164696E66
:1017230067207073616D204F4B00001F1C1F1E1F2D
:101733001E1F1F1E1F1E1F81159781DADA8115A533
:1017430081DE088115B381D7F58115C10000000141
:1017530018EC0000008116D181ADE88116DF8142CB
:10176300578116ED81ECB6605A1939000181147363
:10177300000281147C000381148700048114920009
:101783000581149D00068114A400078114A9000893
:101793008114B100098114B8000A8114C3000C81BB
:1017A30014CA000D8114D1005A8114DA005C81142B
:1017B300E3005B8114EC00B18114F5005F8114FE3A
:1017C30000FE81150B620021FF0000102120423032
:1017D30063408450A560C670E781089129A14AB18E
:1017E3006BC18CD1ADE1CEF1EF1231021032732215
:1017F3005252B5429472F762D693398318B37BA3DE
:101803005AD3BDC39CF3FFE3DE24623443042014A4
:101813000164E674C744A45485A56AB54B8528952D
:1018230009E5EEF5CFC5ACD58D36532672161106F4
:101833003076D766F6569546B4B75BA77A9719877D
:1018430038F7DFE7FED79DC7BC48C458E5688678FC
:10185300A70840186128023823C9CCD9EDE98EF9CD
:10186300AF89489969A90AB92B5AF54AD47AB76A54
:10187300961A710A503A332A12DBFDCBDCFBBFEB1D
:101883009E9B798B58BB3BAB1A6CA67C874CE45C64
:10189300C52C223C030C601C41EDAEFD8FCDECDD6D
:1018A300CDAD2ABD0B8D689D497E976EB65ED54E34
:1018B300F43E132E321E510E70FF9FEFBEDFDDCFBD
:1018C300FCBF1BAF3A9F598F78918881A9B1CAA1F8
:1018D300EBD10CC12DF14EE16F108000A130C2207D
:1018E300E3500440257046606783B99398A3FBB324
:1018F300DAC33DD31CE37FF35E02B1129022F332CD
:10190300D24235521462777256B5EAA5CB95A885B3
:1019130089F56EE54FD52CC50D34E224C314A0041C
:10192300817466644754244405A7DBB7FA87999703
:10193300B8E75FF77EC71DD73C26D336F20691166C
:10194300B06657767646155634D94CC96DF90EE90B
:101953002F99C889E9B98AA9AB58444865780668BC
:101963002718C008E1388228A3CB7DDB5CEB3FFB63
:101973001E8BF99BD8ABBBBB9A4A755A546A377A0C
:10198300160AF11AD02AB33A92FD2EED0FDD6CCD73
:101993004DBDAAAD8B9DE88DC97C266C075C644C5C
:1019A300453CA22C831CE00CC1EF1FFF3ECF5DDF43
:1019B3007CAF9BBFBA8FD99FF86E177E364E555EAC
:1019C300742E933EB20ED11EF04823FF32303035D1
:1019D30030313331C10D44275F7C2F2D5CC10E4163
:1019E300270F014C0006000000000000000000006B
:1019F300000046000000000000000042001200004A
:101A0300420C14000041277F0C004F4B0041542B24
:101A13004D495053454E443D25642C2200220D0070
:101A23007265637620657272310041542B4D4950C3
:101A3300505553483D25640D002B4D495052544396
:101A430050007265637620657272330075706C6F37
:101A53006164207265632065727200646F776E6CD7
:101A63006F616420626C6B2E2E2E00626C6B20659E
:101A730072722E2E2E00696E697469616C20646126
:101A8300696C0041540D004154206572726F7200FD
:101A93006461696C20636D6E65742E2E2E00415453
:101AA3002B4D495043414C4C3D312C22636D6E65A7
:101AB30074220D00007830300078303000783030F8
:101AC3000078303000636F6E6E20737672202E2E96
:101AD3002E0041542B4D49504F50454E3D25642C0B
:101AE30025642C2225642E25642E25642E2564224C
:101AF3002C25642C300D0041542B4D4950434C4F41
:101B030053453D25640D006D69706F70656E2065EA
:101B130072726F7200636F6E6E20636D6E657420F8
:101B23006572720041542B4D495043414C4C3D303A
:101B33000D0081EC1A81F0E581C37A81A9DD8183EF
:101B4300B900000081E3B181F0D981C98F81F0C070
:101B5300818A2900000075C7AA75C755759D02754E
:101B6300C7AA75C75575C600787FE4F6D8FD758199
:101B73007202001BA20200CB36E493A3F85407249D
:101B83000CC8C333C4540F4420C8834004F45680A4
:101B93000146F6DFE4800C01020408102040809027
:101BA30000176AE47E019360CCA3FF543F30E5093C
:101BB300541FFEE493A360010ECF54E0B4E026E487
:101BC30093FBA3E493FAA3E493F9A3E493C083C040
:101BD3008212000556D082D083A309E970010ADF7F
:101BE300EADEE880BE54C025E0602B408CE493A37A
:101BF300FAE493A3F8E493A3C8C582C8CAC583CA09
:101C0300759300F0759300A3C8C582C8CAC583CA7B
:101C1300DFE3DEE1808DE493A3F8E493A34003F6CE
:101C23008001F208DFF402001BA67761697474690E
:101C33006E672E2E2E0070726F636573732E2E2EB9
:101C430000C9E8D6C3CEEFC0ED4944B3C9B9A60075
:101C5300D0A3D7BCCAB1D6D3B3ACCAB100D0A3D733
:101C6300BCCAB1D6D3B3C9B9A600636C656172208F
:101C7300626C61636B2025630070726F63657373BD
:101C8300206F6B00696E697420696E66726172659C
:101C9300642E2E2E00B4F2BFAABAECCDE2CAA7B0CE
:101CA300DC00696E697420706F732E2E2E00B4F2FF
:101CB300BFAA47505253CAA7B0DC00B4F2BFAAB4BC
:101CC300AEBFDACAA7B0DC00BD0020EF7F08C2A612
:101CD3003392A500D2A6DFF6C2A67F64D2A5A2A541
:101CE3005002DFFAD2A60000C2A622BD0120EF7F78
:101CF30008C2A73392A500D2A7DFF6C2A77F64D29A
:101D0300A5A2A55002DFFAD2A70000C2A722BD02F6
:101D130020EF7F08C2963392A500D296DFF6C296D3
:101D23007F64D2A5A2A55002DFFAD2960000C29624
:101D330022EF7F08C2973392A500D297DFF6C297AE
:101D43007F64D2A5A2A55002DFFAD2970000C29702
:101D530022008400000400801A28010080FA050094
:101D63000080000000000000000000C000000080B0
:101D730000000000900000805001020B0100807001
:101D8300000000805401000F00725B25645D775BE7
:101D930025785D5B25785D0000A4000002DF030069
:101DA30000000000805001020B010000000011221E
:101DB30033445566000000000000000000000000EE
:101DC300000000000000000000000000D2A4C2A434
:101DD30000C2A2C2A3BD0004D2A2C2A312001DE48A
:101DE30022BF0012D2A100D2A4008B8000C2A4C2E1
:101DF300A112001E0B22D2A000D2A4008B8000C22D
:101E0300A4C2A012001E0B22D2A4C2A4C2A200D25A
:101E1300A37580FF7400BF0014D2A100D2A400E513
:101E23008000C2A400D2A4C2A120E7ED22D2A00068
:101E3300D2A40000E58000C2A400D2A4C2A020E77F
:101E4300EC22BF00177D09D2A5D2A60000C2A600CE
:101E530000D2A60020A502DDF4C2A522BF01177D92
:101E630009D2A5D2A70000C2A70000D2A70020A5CF
:101E730002DDF4C2A522BF02177D09D2A5D29600C6
:101E830000C2960000D2960020A502DDF4C2A5226E
:101E93007D09D2A5D2970000C2970000D2970020F7
:101EA300A502DDF4C2A522BF00127D08D2A5C2A6F9
:101EB30000A2A533D2A6DDF6C2A6FF22BF01127D82
:101EC30008D2A5C2A700A2A533D2A7DDF6C2A7FFF9
:101ED30022BF02127D08D2A5C29600A2A533D296D4
:101EE300DDF6C296FF227D08D2A5C29700A2A533D4
:101EF300D297DDF6C297FF22900015F8E0FFA3E02A
:101F0300FEA3E0CF90001601F0A3EEF0A3EFF09054
:101F13000015FBE0CBF0A3E0CAF0A3E0C9F07F22F9
:101F230090001604AD82AC83120005248D828C834D
:101F3300F0A309E970010ADFEB900015FBE0FBA3B6
:101F4300E0FAA3E0F902000CD9BF000E12001EAAAA
:101F5300C2A500D2A60000C2A622BF010E12001E17
:101F6300AAC2A500D2A70000C2A722BF020E120078
:101F73001EAAC2A500D2960000C2962212001EAA73
:101F8300C2A500D2970000C29722BADABFA800C345
:101F9300E2B7D1BFA800BFDBBFEE20257320D4AAD0
:101FA30000D3E0B6EE20257320D4AA00C1F7CBAE50
:101FB300BAC55B256C645D00C7EBD6D8CBA200091C
:101FC30004030C05BF000AC2A500D2A600D2A500D7
:101FD30022BF010AC2A500D2A700D2A50022BF02D8
:101FE3000AC2A500D29600D2A50022C2A500D297AC
:101FF30000D2A50022BF0009D2A500D2A600C2A527
:1020030022BF0109D2A500D2A700C2A522BF02099F
:10201300D2A500D29600C2A522D2A500D29700C2B3
:10202300A522EFB40A08740D12002031740A309807
:1020330011A899B8130CC2983098FDA899C298B802
:1020430011F63099FDC299F59922527463546D5F6C
:102053005645525F312E3031001F1D1F1E1F1E1F9C
:102063001F1E1F1E1F1F1C1F1E1F1E1F1F1E1F1E86
:102073001F20000D0A0030313233343536373839FA
:1020830041424344454600E4FFFE12000524600C30
:102093000FEF70010E09E970F10A80EE222530324C
:1020A3006400253032580075C7AA75C75553D8FD4B
:1020B3002275C7AA75C75543D801227E54DEFEDFB9
:1020C300FA22060503010203040506070809900026
:1020D300104EEEF0A3EFF0A3ECF0A3EDF012003FEF
:1020E300C9FD8C83759300240712003E9C74221251
:1020F300003F33240812003E9C744212003F3324F5
:102103001212003E9C12003F2D12003E9AE4120070
:102113003F33240F12003E9CE4F0740512003F325B
:10212300240D12003E9CE4F0A37420F07B817A1C02
:10213300792D7D0AE4FF0135A312003E3E120042D1
:102143000B240F12003E9CE4F0A3740AF012003E2D
:102153006912003E9AE4F090001050E0FCA3E08C7A
:1021630083759300240C12003EE1EF700D7D037F15
:10217300051200E83350C27FA02212003E3E120037
:10218300420B240B12003E9CE4F0A37420F0C20324
:10219300C201E412003FE3F012003E6912003E0167
:1021A300FF2403F8E690001052F0EF2404120040DD
:1021B300287B817A1C7939120036A190001052E0F5
:1021C300120008E4305555315D5625D9A12E89B149
:1021D30027C9B2328DB32A77B433B7B52FEEB632EF
:1021E30003B7345CB82952B922BBC223B4C3234D0D
:1021F300C421FBC50000350512003FEFFB8A8312A3
:10220300003DFE24041200402830E059E4FF120090
:1022130041711200408C240812003E039000110803
:1022230012003EAB1200364F640160030134CF123B
:10223300003E3E12003F0A12003E0312003E6412AB
:10224300003E01240612003EC490001061E0240405
:10225300F09000106012003E3A12003F0B12003E55
:102263000312003F9F90001054E020E1030127C4B4
:1022730012003E3E12003F0B12003E03120036CF07
:10228300EF640160030124F612003E3E12003F0A90
:1022930012003E0312003E6412003E012406FF12A8
:1022A3000042122F7F0712003EC690001061E02407
:1022B30007120042190127C412003DF4FF2404F859
:1022C300E6B49909EF2405F8E66408600301347B5A
:1022D30012003E3EFF12003DFC240A12003E64241D
:1022E3000812003E0312003EC412003E3E12003F9D
:1022F3000B12003E037A00F97B00C003C0011200F9
:1023030040AB12003EADD001D0037D04120036B7BE
:10231300FF1200401D740812003E53240812003EB1
:102323000312003EA712003664640160030134CF38
:1023330012003E3E12003F0B12003E0312003F9F6D
:102343007B817A1C79447D01805412003E3EFF124A
:10235300003DFC240312003E64240812003E037F68
:102363000C12003EFF12003E3E1200361940187B4D
:10237300817A1C79537D037F011200DBF3900010F7
:102383005374A1F001350812003DF412003FB3125B
:10239300006342EF60117B817A1C79607D037F01CA
:1023A3001200DBF30134589000105374FFF0013531
:1023B3000812003E3E12003619400301305F9000C0
:1023C3001054E0FF64016008EF6402600301347B92
:1023D30012003DF4120040256008E064016003012F
:1023E300347BEF240612003FDDEFF0640E6003013F
:1023F3002EA97F4012004170741812003E53240826
:1024030012003E03F99000110812003EAC12003690
:102413004F640160030134CF900010537401F0D274
:102423000212003E3E12003F0B12003E03FF241631
:10243300F8E66455704CEF2417F8E664AA704390ED
:1024430000104EA3E0FF12003DFC240C12003E647A
:10245300240812003E0324067F0812004008EF7090
:1024630002C20212003E3EFF12003DFC12003E6219
:10247300240812003E0312004006120042234002C9
:10248300C20220020301252412003E3EFF12003D3A
:10249300FC12003E62240812003E037F0E12003F2E
:1024A300D212003E3E12003F0B12003E03FF120009
:1024B3003FB3EF240E7F0812003FD212003E3E12BC
:1024C300003F0A12003E032416F8765512003E69B7
:1024D300240812003E032417F876AA7F4012004016
:1024E3001C741812003E53240812003E03120035D8
:1024F300D06007900010530134CF12003E3E12000B
:102503003F0B12003E0312003FB3900010677401AB
:10251300F0A37416F0A3744BF01200E97F1200408D
:10252300C61200418960030125CE7F109000110778
:1025330012003E4E240812003E03F99000110812C7
:10254300003EAC120036356007900010530134CFC3
:1025530012003E3E12003F0B12003E037A00F97B4D
:102563000024067F0612003EFF7E007F077D0012D7
:10257300003E54240812003E032410120040CD12E2
:10258300003E3E12003F0B12003E03120035E48C66
:102593008312003DFE120035AA240812003E0312E6
:1025A3000035D06007900010530134CF12003E472E
:1025B300240812003E0312003EA71200362D6007C6
:1025C300900010530134CF120040C6E412003FE3E1
:1025D300F0D201013508C20212003FC9FD120041C9
:1025E3009112003E9C12003F2D241412003E9C7455
:1025F30004F0A3E412003F3312003E01240412004E
:102603003FDDEFF09000104E703212003DF8FF24D2
:1026130005F8E6FDE412003FE3EDF0D202EF12000D
:1026230040D61200ECE912003F5D90001061E024F7
:1026330000FF90001060E03401FE801912003DF8A5
:1026430012003FB31200ECE912003F5D90001060EE
:10265300E0FEA3E0FF12003FC98C837593002414AE
:1026630012003E9CEEF0A3EFF0E4FFFE7D08FC9029
:1026730000105512003ED612004086502B12003E29
:102683003E120040DE12003E03FEA3E0FF120041B3
:1026930099E0F8A3A3A3E012004072E4FBFA7908DF
:1026A300F8D3120007E3500301347B90001055A3C5
:1026B300A3A3E0540FFFE4FEFDFCFBFAF9F8C312F9
:1026C3000007E36003012EA912003E3E120040DE24
:1026D30012003E03FAA3E0FBD39438EA9400503689
:1026E30012003EB4EB12003FEA8A8312003DFE243F
:1026F30006F99000110812003EAC1200363560074F
:10270300900010530134CFC20312003E3E12003E2C
:1027130095E4F00127AE12003E3E12003E9574018F
:10272300F0D2031200409912003E3E120040DE1226
:10273300003E03120040B45072C3EF9DFFEE9CFEB7
:10274300C3EF9440EE940040047F4080009000105B
:102753005DEFF012003EBD1200419912003ED61209
:102763000040729000105DE09000110712003E538C
:10277300241212003E03FAA3E09000105E120041FF
:102783004A9000110812003F4F1200366F60099003
:1027930000105374B1F080139000105DE0FF9000BF
:1027A300105FE02F120040E601272A12003E3E127E
:1027B3000040DE12003E03FFA3E0CF12004162EFB0
:1027C300F0D20101345812003E3E1200362340037A
:1027D30001305F7F6012004170742012003E532469
:1027E3000812003E03F99000110812003EAC1200DB
:1027F300366F6007900010530134CF90001054E0FF
:10280300702212003E3EFF12003DFC240612003EE1
:1028130064240812003E03120040061200422340C3
:1028230003012AD212003DF41200367F12003F5DED
:102833007FA07E867D017C009000105512003ED65D
:10284300FBD3120007E34003012EA912003DF4F964
:10285300240FF8E6D394604003012EA9E912003651
:102863008B9000105EEEF0A3EFF0E4FCFD7B407A6A
:102873007E7905F8C3120007CD40109000105FE089
:10288300943C9000105EE094005003012EA97E005A
:102893007F207DFF12003E54240812003E031200E5
:1028A30040CD12003E3EFF12003DFC240612003EC6
:1028B30064240812003E03F87C007D007F0C1200A4
:1028C300418312003E3E12003F0B12003E03F97A91
:1028D300007B007D1E7C00120036038C8375930001
:1028E300240812003E03241EF97A007B001200EE36
:1028F300867F601200401C742012003E532408128D
:10290300003E0312003EA71200362D600790001010
:10291300530134CF12003DF4240678657C167F06FC
:1029230012003DE71200367F9000166B1200088FED
:1029330012003DF4FF240FF8E690001671F0EF1239
:1029430000368B9000166FEEF0A3EFF001345812AF
:10295300003E3E12003623400301305F1200407EEA
:10296300600301347B120040F012003E3DFF120071
:102973003DFC12003E62241212003E0312003E820E
:10298300A8077F391200401312003E3E12003F6633
:1029930012003E031200422A12003E86CF2439CF92
:1029A3003400A8077FC71200401312004099120099
:1029B30040FAC3EE940150471200412312003FC96D
:1029C3001200419112003E03FCA3E0FD8C83120030
:1029D300420112003E08C394054012120040FA124D
:1029E30000412312003F3412003FBDE4F090001079
:1029F3005FE004F070079000105EE004F080AF1217
:102A0300004099120040FAC3EE94015048EF24C0ED
:102A1300FFEE340EFEE43403FDE433FC90001107B3
:102A2300744012003E53241212003E03FAA3E090B6
:102A33000010621200414A12003F3E1200366464E5
:102A430001600574B1F0800D9000105FE024401226
:102A53000040E680AE12003E3E12003F6612003E8A
:102A63000312003E8278A57C17120041A17E017FEC
:102A73000001304A12003E3E1200363D400D120066
:102A83003E3E12003E95E4F001346B12003FEFFB33
:102A93008A8312003E97E4F07F807E0D7D0312004F
:102AA3003F5C1200407E60319000167EE0602A1287
:102AB30000408F12003E01120040D6787F7C167DC5
:102AC300017E007F0612000A1E12004223400A9074
:102AD3000010537401F0013508120040F0F01200A9
:102AE3003DF41200402564016003012BA012003F56
:102AF300C9FD12003FB212003F34241212003E03FC
:102B030012003E0F12003F6512003E03120041A95E
:102B1300C083C08212003F1E12004234D082D08391
:102B230012003FF87455F012003E69241212003E61
:102B330003120041B1C083C08212003F1E12004243
:102B43003BD082D08312003FBB74AA12003E3DFFEC
:102B530012003DFC240C12003E64241212003E03BA
:102B630012003E827E0012003F1312004104120045
:102B73003E3512003F6612003E0312003E82A80754
:102B8300FC7D017B017A1679A57E017F001200404E
:102B9300682400120042423401F0012D30900010ED
:102BA30054E064026003012C7A12003E3EFF1200DF
:102BB3003DFC12003E62241212003E0312003E0F3F
:102BC30012003F6512003E03120041A9C083C08278
:102BD30012003F1E12004234D082D08312003FF80D
:102BE3007455F012003E69241212003E0312004194
:102BF300B1C083C08212003F1E1200423BD082D07C
:102C03008312003FBB74AA12003E3D12003F6612BE
:102C1300003E0312003E82A807FC7D017B017A1669
:102C230079857E0012003F181200410412003E35E0
:102C3300FF12003DFC240D12003E64241212003EDC
:102C43000312003E82A8077F33120040632433122D
:102C5300003E3512003F6612003E031200422A1264
:102C6300003E86A8077FCD1200406324CD120042A8
:102C7300423400F0012D3090001054E064036003EF
:102C8300012D2D12003E3E12003F6512003E03FC53
:102C9300A3E02404120041B912003E692412120079
:102CA3003E0312003E0F12003F6512003E03120066
:102CB30041A9C083C08212003F1E12004234D08259
:102CC300D08312003FF87455F012003E69241212AB
:102CD300003E03120041B1C083C08212003F1E12A6
:102CE30000423BD082D08312003FBB74AA12003E45
:102CF3003D12003F6512003E03FCA3E0240A1200CC
:102D030041B912003E69241212003E0312003E82B2
:102D13007E0112003F1312004104120042423401AB
:102D2300F09000167E7401F0800301347B90001054
:102D3300607401F0A3742812003E3D12003F661236
:102D4300003E03FEA3E02400FFEE3402FAA9077B52
:102D5300017D287C01120036031200419112003ECE
:102D630003FCA3E02400FDEC3402FC90001061E0BE
:102D73002DFD90001060E0120041BB1200EE869022
:102D8300001061E0240212004219120040999000E1
:102D93001060E0120040B4506EC390001061E09DDB
:102DA300FF90001060E09CFEC3EF9420EE9400407F
:102DB300047F2080009000105DEFF012003EBD12F2
:102DC30000419912003ED6120040729000105DE05F
:102DD3009000110712003E53241212003E03FAA37F
:102DE300E02400FBEA340212003F3E120036476043
:102DF300099000105374B1F0800D9000105FE0242F
:102E030020120040E68087120040F012003E3D127F
:102E1300003F6612003E0312003E82FAA9077B01BF
:102E2300787F7C167F0612003FAA90001063E0248F
:102E33000812003E3512003F6612003E0312003EA8
:102E43008278857C16120041A17E0012003F181281
:102E530000410412003E3512003F6612003E031289
:102E6300003E82FAA9077B0178A57C167D017E01CD
:102E73007F0012000AB1E412003FE3F09000105308
:102E8300F0C20101350890001054E0B4550D120052
:102E93003DF4FF2405F8E664AA60028009EF2406E6
:102EA300F8E66406600A9000105374A4F001350834
:102EB3007E007F027D0012003E54240812003E0370
:102EC300120040CD1200415812003E542408120053
:102ED3003E03F97A007B001200E8FB12003E3E122B
:102EE300003F0B12003E037A00F97B00C003C001D0
:102EF3002403120040AD12003EADD001D0031200F6
:102F0300365AFFFEFDFC12003E54240812003E0315
:102F130012003FB31200E8FB12003E3E12003F0BCB
:102F230012003E03FF12003FB3C003C001EF2409A8
:102F3300120040AD12003EADD001D0031200365A4C
:102F4300FFFEFDFC12003E54240812003E03240C35
:102F5300F97A007B001200E62912003E3E12003F80
:102F63000A12003E032417F876FF12003E69240874
:102F730012003E03120035E48C837593002408127B
:102F8300003E03120035AA240812003E0312003E3D
:102F9300A7120036476007900010530134CF120088
:102FA3003E47240812003E0312003EA71200367764
:102FB3006007900010530134CF9000165C1200405C
:102FC3003012004158900016581200088F900016D6
:102FD30076120040309000165774FFF0E4FFFEFDB8
:102FE300FC900016601200088F806012003FEFFB18
:102FF3008A8312003DFEF9240512003FDDEFF0D372
:103003009410EE9400400301347B12004212240614
:1030130029F8E4F67FD01200401D1200408C120004
:103023003E01240612003EA7120036776007900087
:1030330010530134CF12003DF412003FB378EC7CFF
:10304300187D017E007F1012000AB1120040C601F4
:1030530033AC12003E3E1200363D400301346BE4B4
:10306300FFFEFD12003F5C90001054E07038120028
:10307300D2C9EF4E700A90001053745DF001350809
:10308300E4FFFEFDFC9000165C12003ED6120040E9
:103093008670097FC07E107D03FC80349000165C2F
:1030A30012003EB8802A12004189702A12003DF4B2
:1030B300FF2405F8E66404600301347B12003FB289
:1030C300120036AA9000105912003EB81200B52F14
:1030D30012003F5D800301347B9000105512003EC7
:1030E300D11200408660151200415890001055E03F
:1030F300F8A3A3A3E0C3120007E3500301347B1238
:10310300003EB490001107744012003E5324121283
:10311300003E03FAA3E0F99000110812003F521297
:103123000036BF6007900010530134CF12003E3EBB
:10313300FF12003E957401F012003E692414120040
:103143003E9CE4F0A37440F0120041617440F0121D
:103153000040C6D201D20301350812004189600341
:1031630001347B12003DF4FF2405F8E66404600398
:1031730001347B12003FB2120036AA9000165C1293
:10318300003EB890001107744012003E53241212FF
:10319300003E03FAA3E0F99000110812003F521217
:1031A3000036BF6007900010530134CF12003E3E3B
:1031B30012003F6612003E03FEA3E02405FFE43E37
:1031C300FAA9077B011200EA8112003F5D9000100B
:1031D3005912003EB89000105512003ED61200401E
:1031E30086600A90001053745EF001350812009552
:1031F300E7120042496003013508D201E40133AC10
:1032030012003E3E12003697400301346B1200F069
:103213000012003E3E12003F0B12003E0312003626
:10322300CF12003E3E12003F0B12003E03FF12007E
:1032330041FAC003C001EF120040AB12003EADD013
:1032430001D0037D03120036B77F801200401D7446
:103253000612003E53240812003E030412003EA748
:10326300120036C76007900010530134CFE490007A
:103273001672F090001053F0C20112003FE3F07D8C
:10328300647F0B1200B65401350812003E3E120053
:103293003697400301346B1200407E6003013335DF
:1032A300FE7F20FD1200411C12000955E47F207EA1
:1032B30001FD80787F3F7E0D7D037C0090001055DB
:1032C30012003ED612004086400301350812003E2C
:1032D300B490001107742012003F87120036C760B4
:1032E30007900010530134CF7B817A1C796D120053
:1032F3003EB47805120007F4EF5403FFE4FE745F55
:103303002FF582EE342712003E089000158DF0123F
:103313000036A190001055E0FCA3E0FDA3E0FEA35E
:10332300E02420FFE43EFEE43DFDE43C12003F5C6C
:10333300808290001054E0707812003DF412004037
:1033430026D3940A400301347BE49000105DF0120D
:103353000041C2FEC39F502B12003FC98C83120051
:103363003DFE240DFFEE25E025E02FF97A007B00DA
:103373001200B1B01200424970099000105DE004E0
:10338300F080CC120041C2C39F50030135081200E4
:103393003DF4120040D61200DB681200424960037C
:1033A300013508120040C6C20112003FE3F00135A7
:1033B3000801347B1200407E600301347B7F607E12
:1033C3000D7D037C00740A12003FEA8A8312003DDC
:1033D300FE2406F99000110812003EAC12006B8522
:1033E300EF64016007900010530134CF12003DF4E5
:1033F300FF240DF8E6B45509EF240EF8E664AA603D
:1034030002803512003DF412003FB37D067C0012AA
:1034130000E8B912003FC98C8312003DFEFE240C64
:10342300F8E66F601E90000002EE12003FB37D00CD
:10343300AE83AF821200095512003DF4240CF876D6
:10344300AA800912003DF4240CF876FFD201120081
:1034530041617407F0E40134FE12003E3EAA06F90E
:103463007B011200C295400A9000105374A5F0012D
:1034730035081200407E600A90001053745CF0011E
:10348300350812003DF4FF120040D6C003C001EF1F
:10349300240D120040AD12003EADD001D0037D06D5
:1034A3007C001200E7A8E47FF01200401D740C12A8
:1034B300003FEE8A8312003DFE240712003EA7124E
:1034C30000556CEF640160099000105374B1F080F3
:1034D3003412003DF4240778307C197F0412003D38
:1034E300E7240BF97A007B001200EFA69000193451
:1034F300EEF0A3EFF0E412003FE3F090001053F07E
:1035030080037FA32290001052E0FF12003FC9FD09
:103513008C8312003DFE2403F8A60790001053E0AD
:10352300FF12003F3412003E012404F8A6072003D3
:103533003212003DF4F97A007B0012004212FDA220
:103543000192041200B0729000105DEFF0FD1200C2
:103553003E3E1200420B240912003E9CE4F0A3F00D
:10356300FC802012003E3EAA06F97B011200413284
:10357300A20192041200A5C1501C12003E3EFF128C
:1035830000413290001050E0FAA3E08A8375930063
:10359300240612003EE17B817A1C797CE4FD7F01E5
:1035A3001200DBF301213C2418F97A007B0012009E
:1035B300EE86E47F10FEFDFC90001107741AF09074
:1035C30000104EE0FAA3E08A8375930022F990007D
:1035D3001108E4F0A3F0A3E9F01200556CEF6401C5
:1035E30022F97A007B007D187C001200E1AC900088
:1035F300105EEEF0A3EFF09000104EE0FCA3E0228B
:103603001200E1AC9000105EEEF0A3EFF09000101A
:103613004EE0FCA3E022AA06F97B011200C2952228
:10362300AA06F97B011200C295221200556CEF64C1
:10363300012212006B85EF640122AA06F97B0112B5
:1036430000C295221200556CEF64012212006B85B3
:1036530090001053EFF0227D037C001200E7A8E4F2
:10366300221200556C90001053EFF02212006B856C
:10367300EF6401221200556CEF640122240CF97AE5
:10368300007B001200ECE9222410F97A007B00127F
:1036930000EFA622AA06F97B011200C29522E4FDDF
:1036A3007F011200DBF3221200EA8190001059120D
:1036B30000088F227C001200E7A8E42212006B8529
:1036C300EF6401221200556CEF640122F97A007B4A
:1036D3000012004E4B2290001604EFF0A3EDF0A36E
:1036E300EBF0A3EAF0A3E9F0E49000160AF0A3F0EC
:1036F3009000160DF090001614F0A3F0A3F0A304AD
:10370300F0A3F0E4A3F0A3F0A3F0A3F0A3F0F51467
:10371300F513F512F5111200EF7090001606E0FB99
:10372300A3E0FAA3E0F91200208A9000160CEFF050
:1037330090001609E060099000161E74FFF08006E1
:10374300E49000161EF090001604E025E0900016A9
:103753000BF0A3E0F9FD90001605E0FE2DFDE43328
:10376300FCC3ED9410EC64809480400301385BEE5D
:10377300C394084042E490001614F090001605E04C
:10378300940890001615F0E49000160EF0900016C1
:1037930010E9F0E0FFC313FEA3F0E49000160FF06E
:1037A3009000161DEEF0EF540190001613F0E49014
:1037B300001612F001390A90001605E0FF9000167A
:1037C30014F09000160CE0FEFDEF2DFDE433FCC376
:1037D300ED9408EC6480948050099000160EEEF08E
:1037E300E4801790001605E0FFC374089FFF900064
:1037F300160EF09000160CE0C39F90001610F0E434
:1038030090001615F09000160EE0FFC313A3F0907E
:1038130000161CF0EF540190001612F090001610E1
:10382300E0FFC313A3F09000161DF0EF54019000C6
:103833001613F0700301390A90001612E0700301A9
:10384300390A90001615E004F090001611E004F018
:10385300E09000161D01390290001605E0C394089C
:103863004042E490001612F090001605E0FF741039
:103873009F90001610F0E49000160EF0A3F0900055
:103883001614F0C3EF9408A3F090001610E0FFC3E2
:1038930013A3F09000161DF0EF540190001613F0DF
:1038A3006065805C90001605E0FFC374089F90007C
:1038B300160EF0900016107408F090001614EFF036
:1038C300E4A3F09000160EE0FFC313A3F0900016DC
:1038D3001CF0EF5401FF90001612F090001610E058
:1038E300FEC313A3F09000161DF07408540190005A
:1038F3001613F0EF60117401F090001615E004F058
:10390300900016197401F0E49000160DF090001663
:103913000CE0FFA3E0C39F4003013DE1120020B48C
:10392300E490001616F09000160DE0FD9000164589
:103933007401F0A37416F0A3743FF090001606E030
:10394300FBA3E0FAA3E0F91200CF2BEF64026003BC
:10395300013DD79000163FE0FEA3E0FF1200D9B768
:103963008F148E138D128C117F407E047D047C0096
:10397300AB14AA13A912A811C3120007E3505BE406
:10398300F51575BE01E42514FBE43513FAE512348D
:1039930030F9E43511F8E4FCFDFEEB2515FFEE3AB2
:1039A300FEED39FDEC38FCE42FFFE43EFEED34017F
:1039B300FDA907AA06AB0512000524F516E4F5BE1A
:1039C300741F2515F582E43416F583759300E51607
:1039D300F00515E515B420AA80107E007F207DFF39
:1039E3007B017A16791F120009559000160FE0D358
:1039F30094005003013B1C9000161CE0FF9000163E
:103A03001AE09F4003013B1C9000160BE044B8FBF7
:103A13007D01E4FF12001DCF90001617E0600B90AC
:103A2300001614E075F008A480139000161AE0C481
:103A330054F0FF90001614E075F008A42F4440FBE7
:103A43007D01E4FF12001DCFE49000160AF0900000
:103A5300160AE0FFC394105028741F2FF582E43434
:103A630016F583759300E0FF9000161EE0FEEF6EDF
:103A7300FBE4FDFF12001DCF9000160AE004F08066
:103A8300CD9000160BE00444B8FB7D01E4FF120067
:103A93001DCF90001617E0600B90001614E075F030
:103AA30008A480139000161AE0C454F0FF90001687
:103AB30014E075F008A42F4440FB7D01E4FF1200DD
:103AC3001DCF9000160A7410F09000160AE0FFC391
:103AD30094205028741F2FF582E43416F5837593D0
:103AE30000E0FF9000161EE0FEEF6EFBE4FDFF1208
:103AF300001DCF9000160AE004F080CDE49000167C
:103B030017F09000160FE014F0E070069000161600
:103B130004F09000161AE004F09000160FE0600322
:103B2300013DD790001611E0D394005003013DD717
:103B330090001616E064017003013DD79000161D36
:103B4300E0FF9000161BE09F4003013DD790001655
:103B530013E07003013CBA90001612E07003013CBD
:103B6300BA9000160BE044B8FB7D01E4FF12001D80
:103B7300CF7B787D01E4FF12001DCFE49000160A8D
:103B8300F09000160AE0FFC394085028741F2FF525
:103B930082E43416F583759300E0FF9000161EE06F
:103BA300FEEF6EFBE4FDFF12001DCF9000160AE04E
:103BB30004F080CD9000160BE00444B8FB7D01E4D3
:103BC300FF12001DCF7B787D01E4FF12001DCF9013
:103BD30000160A7410F09000160AE0FFC394185000
:103BE30028741F2FF582E43416F583759300E0FFE4
:103BF3009000161EE0FEEF6EFBE4FDFF12001DCFEA
:103C03009000160AE004F080CD9000160BE044B853
:103C1300FB7D017F0112001DCF7B407D017F0112DF
:103C2300001DCF9000160A7408F09000160AE0FFFA
:103C3300C394105029741F2FF582E43416F583754D
:103C43009300E0FF9000161EE0FEEF6EFBE4FD7FA5
:103C53000112001DCF9000160AE004F080CC900002
:103C6300160BE00444B8FB7D017F0112001DCF7BDE
:103C7300407D017F0112001DCF9000160A7418F0D9
:103C83009000160AE0FFC394204003013DC0741F57
:103C93002FF582E43416F583759300E0FF90001648
:103CA3001EE0FEEF6EFBE4FD7F0112001DCF9000CE
:103CB300160AE004F080C99000160BE044B8FB7DBF
:103CC300017F0112001DCF90001618E0600FA3E0E2
:103CD300600B90001615E075F008A4801390001691
:103CE3001BE0C454F0FF90001615E075F008A42FF4
:103CF3004440FB7D017F0112001DCFE49000160AB2
:103D0300F0120020B49000160AE0241FF582E43478
:103D130016F583759300E0FF9000161EE0FEEF6E2C
:103D2300FBE4FD7F0112001DCF9000160AE004F0B2
:103D3300E0C3941040CB9000160BE00444B8FB7D25
:103D4300017F0112001DCF90001618E0600FA3E061
:103D5300600B90001615E075F008A4801390001610
:103D63001BE0C454F0FF90001615E075F008A42F73
:103D73004440FB7D017F0112001DCF9000160A74A1
:103D830010F09000160AE0FFC394205029741F2FEF
:103D9300F582E43416F583759300E0FF9000161E58
:103DA300E0FEEF6EFBE4FD7F0112001DCF900016D5
:103DB3000AE004F080CC9000161BE004F0E49000CD
:103DC3001613F090001612F090001618F0900016DB
:103DD30011E014F09000160DE004F0013910E4FF37
:103DE3000200EF75F97A007B007D017E0012000A64
:103DF300B19000104EE0FEA3E08E8375930024077C
:103E0300F582E43583F583759300E022FEA3E0FF9A
:103E130090001062E0FCA3E0FDEF2DFFEE3CA8074D
:103E2300FC7D017E007F0612000AB190001063E062
:103E33002406F090001062E03400F09000104EE091
:103E4300FEA3E022E47FA090001107FEFDFC741A9C
:103E5300F09000104EE0FAA3E08A837593002224C9
:103E630007F97A007B008F828E83759300E58222A7
:103E7300F8A60790001064E0FBA3E0FAA3E022FE9B
:103E8300A3E0FF90001062E0FCA3E0FDEF2DFFEE46
:103E93003C228E837593002411F582E43583F583E8
:103EA3007593002290001108F9E4F0A3F0A3E9F060
:103EB3002290001055E0FCA3E0FDA3E0FEA3E0FF89
:103EC300227F04F87C007D007E0002000AB1E4FF3B
:103ED300FEFDFCE0F8A3E0F9A3E0FAA3E022F582FB
:103EE300E43583F583759300E493FB740193FA74CB
:103EF3000293F5828A838B930200094EF87C007D3E
:103F0300007E0002000AB1FF8E837593002408220D
:103F1300A807FC7D017F2002000AB1759300900081
:103F23001062E475F001020006207419F074CFA347
:103F3300F08D828C83759300E58222FA9000105EE7
:103F4300E0F8A3E02BFBE83A90001108FAA9037408
:103F530001F0A3EAF0A3E9F022FC9000105502005F
:103F6300088FFF8E83759300241222A3E0FAA3E047
:103F73002412F9E43AFA020006367F607E0D7D03CF
:103F83007C00740AF0A37401F0A37419F0A374CF36
:103F9300F0222407F9E43AFA02000524F97A007BB7
:103FA3000078537C167F047D017E0002000AB1EF86
:103FB3002406F97A007B0022E5822FF582E5833E11
:103FC300F583759300229000104EE0FCA3E022F8E5
:103FD3007C007D007E0002000AB1F8E6FF7E00EE61
:103FE30090001060F0A32290001107F09000104E93
:103FF300E0FAA3E022E5822DF582E5833CF58375A3
:104003009300227F06F87C007D007E0002000A1EDA
:10401300FC7D017E0002000AB1E4FEFDFC9000116C
:104023000722FF2405F8E690001054F022E4FFFE77
:10403300FDFC0200088FFEE5F02403FFE43EFEE9E9
:104043002FF9EA3EFA74C302000556900010CBA381
:10405300A3E0FEA3E0FDAC0624CFF58274193C2255
:10406300FC7D017E0012000AB190001063E0222F54
:10407300FFEA3EFEED39FDEC38FC2290001054E0DF
:10408300649922FBC3020007E37410F08B828A83D6
:10409300759300E58222E49000105EF0A3F0227E87
:1040A300107F377C1B7D35222404F990001108EB27
:1040B30022FEA3E0FF9000105EE0FCA3E0FDC39F9F
:1040C300EC9E22E490001053F022F97A007B000268
:1040D3000009552407F97A007B00228E837593002B
:1040E300241422F09000105EE03400F022900010BF
:1040F300627402F0A3E4229000105EE0FEA3E0FFEE
:104103002290001063E02420222414F9E43AFAE414
:1041130075F0010200065A7D017B017A1979CF22DD
:1041230090001063E02FFF90001062E03EFE2290AB
:10413300001060E0FCA3E0FD22FAEF1200055690A8
:10414300001068E004F022FBE0F8A3E0F582EB2521
:1041530082FBEA38227FC07E107D037C0022E4903C
:10416300001060F0A322FFFDFC0200088FE4FEFDB7
:10417300FC900011072290001067E004F0227F06F4
:104183007E0002000AB190001054E06401228C8387
:10419300759300241222E4FCFD9000105522FAA925
:1041A300077B017D0122FCA3E0F5828C8322FEA321
:1041B300E0F5828E8322FDE43CFAA9057B0122907F
:1041C300001054E0FF9000105DE022FE90001064A8
:1041D300A3E0FAA3E02274CF2DF58274193CF58392
:1041E30022759300E0FF900010CAE02278CF7C197B
:1041F3007D01900010C32204F97A007B002275939D
:10420300002FF582E5833E22FF8E83759300229073
:10421300001060A3E022F090001060E03400F02270
:10422300C3EF6480948022FEA3E0FFAA06F97B011A
:1042330022ADF0FC75930022AFF0FE75930022F0DF
:1042430090001062E02290001053EFF0227DB17CC9
:10425300007E0422900010867401F0E4A3F0A3749E
:1042630007F07F0112009B1590001085EFF014609A
:104273001624FC602D2403702C90001087E0D39447
:10428300004022E014801190001088E0FF9000109D
:1042930087E0C39F500FE004F0900010867401F094
:1042A30080037F002290001086E060B67F447B018C
:1042B3007A1079371200679690001087E0B40800EF
:1042C3004003014582900042D125E025E0730200BE
:1042D30042F10200435C020043A3020043E40200F4
:1042E300443702004486020044CC0200450F748127
:1042F3001200671C7415F074CF120045F27481F03C
:10430300A37415F0A374DAF09000165312006755E6
:10431300900016541200678A9000165512006882A6
:1043230090001656E0FF9000160AE412004603744C
:1043330081F0A37415F074EB120046581200F000DC
:104343007B017A10797B12004E4B1200680A7B01C5
:104353007A10797B7D070144C574811200671C7450
:1043630015F074F4120045F2120067B2900016764D
:10437300120045C07481F0A37416F074081200464D
:1043830016120067B29000167A120066CDE412008E
:1043930000CDE4FBFA79C878421200002B01442CCB
:1043A30074811200672D7416F074151200462712DB
:1043B3000067B29000166B120045C07481F0A374BD
:1043C30016F0741E120046167481F0A37416F0A33F
:1043D300742BF090001671E0FF90001604E4014581
:1043E3007474811200672D7416F07431120046271D
:1043F3007481F0A37416F0A3743AF09000166F1250
:104403000068CB120046037481F0A37416F0744065
:10441300120046587481120067457416F0A3744B5A
:10442300F090001660120066CD900016041200088A
:104433008F0145787481120067457416F0744F122A
:104443000046651200D2C974811200677D7416F0AC
:10445300A3745AF0A3EEF0EF1200467274811200B7
:10446300677D7416F0A37460F07A107959120046D0
:10447300381200683B7481F0A37416F0A3746CF0D7
:104483000145787481120067BE7416F074761200C9
:1044930046657481120067BE7416F0A37480F090B1
:1044A300001672E090001604120046477B817A16CC
:1044B3007986120068441200680A7B017A1979240C
:1044C3007D061200DD0301458274811200686B745E
:1044D30016F0A37493F07A1079371200463812005D
:1044E300683B7481F0A37416F074991200467274D9
:1044F300811200686B1200683B7481F0A37416F09C
:10450300A374A5F07B017A107959806F78377C10FA
:104513007D017B817A1679AE12000B3E9000160165
:104523007481F0A37416F0A374B7F09000193012DD
:10453300006755900019311200678A9000193212F2
:1045430000688290001933E09000160A1200464773
:104553007B817A1679C31200684490001601748136
:10456300F0A37416F0A374CEF0900019341200680F
:10457300CBF0A3EFF07B017A10796A12000CD9E437
:1045830090001086F01200EED5E490001085F090B4
:10459300001085E0FFC394044003014265EF75F00A
:1045A30011A42437F9741035F0FA7B011200674D1A
:1045B3001200AF2D90001085E004F080D2E0FCA340
:1045C300E0FDA3E0FEA3E0FFE4120000CDE4FBFA6C
:1045D30079C878421200002B900016041200088F4D
:1045E3007B017A10794812000CD99000160122A39E
:1045F300F07B017A10793712000CD9900016012252
:10460300F0A3EFF07B017A10794812000CD99000E7
:10461300160122A3F07B017A10795912000CD9906C
:1046230000160122A3F07B017A10793712000CD90E
:1046330090001601227B0112000CD9900016017420
:1046430081F0A322FFE4F0A3EFF07B017A10794815
:1046530012000CD922A3F07B017A10795912000CB5
:10466300D922A3F07B017A10793712000CD922A347
:10467300F07B017A10794812000CD9229000103790
:10468300EFF0E490001040F0A3F0A3F0A3F0A3F048
:10469300A3F0A3F0A3F0A3F0A3F09000104BF0A3BA
:1046A300F07F011200F01475BE017B317A007900AE
:1046B30074F712000556E4F5BE7F0A120000037575
:1046C300BE017B317A00790074F812000556790C2B
:1046D300E412000556790F12000524F511E4F5BE26
:1046E300FF1200E8887F28120020BEE4F5BE900088
:1046F300103CE0FFC394014006EFD3940340037FD3
:10470300002290001037E0FF64016004EFB4040559
:104713007511F980037511FA75BE017B317A007941
:1047230000E51112000556790CE4120005567901D3
:1047330012000524F5115311D8E511120005561284
:10474300000524F511790574FF12000556E4F5BE42
:104753007F807E25FDFC90001038E0F8A3E0F9A3EC
:10476300E0FAA3E0FBC3120007E370028042E4FF18
:104773007E4BFDFC90001038E0F8A3E0F9A3E0FACB
:10478300A3E0FBC3120007E370057511068024E460
:10479300FF7E96FDFC90001038E0F8A3E0F9A3E05B
:1047A300FAA3E0FBC3120007E3700575110380034E
:1047B30075110C75BE017B317A007902E511120087
:1047C3000556E4F5BE9000103CE0FFB401057511F9
:1047D30008800CEFB402057511028003E4F511752E
:1047E300BE017B317A007907E51112000556790382
:1047F30012000524F5115311F74311645311FEE51B
:104803001112000556790612000524F51143110112
:104813005311F7E51112000556E4F5BE7F011200AE
:10482300E88875BE017B317A00790C12000524F506
:1048330011E4F5BE7F32120020BE75BE017B317AD2
:1048430000790C12000524F5117F011200ED4CE4F0
:104853001F1200EC82E4F5129000104BF0A3F090CD
:1048630000104BE0FEA3E0FF7DE87C031200F03C68
:10487300EF6005E4FF014AA17B007A007911120081
:10488300E284EF601EE4F5BE9000103DE0FBA3E080
:10489300FAA3E02512F9E43AFAE5111200055605E8
:1048A3001280129000104CE004F070B39000104B93
:1048B300E004F080AAE49000104BF0A3F090001005
:1048C30041F075BE017B31FA790974C012000556B7
:1048D300790B742512000556197480120005567958
:1048E300087465120005567B007A0079111200E204
:1048F30084EF7003014A3575BE017B317A00790B71
:1049030074251200055619748012000556E4F5BE8D
:104913009000103DE0FBA3E0FAA3E02512F9E43A8E
:10492300FAE51112000556E512640170709000104B
:104933003DE0FBA3E0FAA3E02401F9E43AFA120014
:104943000524FF540F90001041F0EF30E40BA374E3
:1049530001F090001041E004F01200052430E50E50
:10496300900010437401F090001041E004F0120035
:104973000524FF30E60E900010447401F0900010FF
:1049830041E004F0EF30E70E900010457401F09021
:10499300001041E004F09000104A7402F0E5126444
:1049A30002705690001042E0604F9000103DE0FB13
:1049B300A3E0FAA3E02402F9E43AFA12000524542E
:1049C3000F24FE600B14601124FB60162407801B68
:1049D300900010407406F08019900010407403F0AA
:1049E3008010900010407401F08007900010407414
:1049F3000CF09000104AE004F090001041E00465D0
:104A030012702BA3E0601CE4F5BE90001040E0F5AB
:104A13001175BE017B317A007902E511120005564A
:104A2300E4F5BEE4F5BEFF1200F014AF1222051246
:104A3300802675BE017B317A00790E12000524F5BC
:104A430011E4F5BEE51120E7030148EAE4FF120093
:104A5300ED4C1200E876804675BE017B317A007911
:104A63000E12000524F511E4F5BEE51130E51090B2
:104A730000104CE004F070079000104BE004F0903D
:104A830000104BE0FEA3E0C3940AEE940050030130
:104A930048EAE4F5BEFF1200ED4C1200E87612007E
:104AA300F014221200C626EF6401600F7B817A1591
:104AB30079617DB17C007F5D014DC61200F0007B02
:104AC300017A1879A512004E4BE47F401200676CFF
:104AD30074181200662C12004E25600F7B817A1524
:104AE30079687DB17C007F66014DC6E538B4550613
:104AF300E53964AA600F7B817A15796D7D5C7C0052
:104B03007F6B014CE478287C007A0079307F0612B1
:104B1300006761EF600F7B817A1579737D5C7C00A0
:104B23007F70014CE4900010677401F0A37416F0D9
:104B3300A3744BF07B007A0079281200E97F7F6031
:104B43001200676B74201200662C12004E25600958
:104B5300120067C57F7B014DC6120067367D1E7C40
:104B63000012004E35F07B007A0079421200EE8687
:104B730078407C007A0079427F0212006761EF601F
:104B83000F7B817A15797C7D5C7C007F83014CE40B
:104B930078657C16120066397B007A00792812004A
:104BA300ECE99000166B1200088F90001671E52B4C
:104BB300F07B007A00792C1200EFA69000166FEEBE
:104BC300F0A3EFF0E47F801200676C7406120066B6
:104BD3002C12004E2D6009120067C57F8D014DC652
:104BE300120067E47400F074281200673412004E58
:104BF3004278257C007D007A007928120066DF6008
:104C03003B78227C001200681A1200665F1200676C
:104C1300E47400F074251200673412004E427F8062
:104C23001200683274061200662C1200556CEF6491
:104C3300016009120067C57F97014DC690000C1FE4
:104C43007401F0A37418F0A374A612006735120060
:104C5300E34D90001672EFF01200F06150037F05F0
:104C6300221200684E1200689A942AEA9401502690
:104C7300EB2480FFEA340D1200667712004E2D609C
:104C83000F7B817A1579827DB17C007FA5014DC6AA
:104C9300120067EC80CFE49000167EF0900019D5E7
:104CA300E0B45506A3E064AA6008120068A57FACCF
:104CB300802F7B017A1979CF7D287C0112004E3534
:104CC300120067351200EE8678227C007B017A1A87
:104CD30079F77F021200687AEF600F120068A57FF0
:104CE300B37E011200BDD97F5C22787F7C167A19CE
:104CF30079CF7F061200672378857C167A1979D7D6
:104D03007F201200672378A57C167D017B017A1929
:104D130079F77E017F0012000AB1E47FD0120067A9
:104D23006C74201200662C12006B85EF6401600F17
:104D33007B817A15798D7DB17C007FBD014DC6786D
:104D4300EC7C187F101200663BE4900018FCF01214
:104D53000067E57400F0A37442F0120068577D0405
:104D63007C001200E7A878427C007B007A00793649
:104D73007F041200687AEF6007E4FFFEFDFC800801
:104D8300120068571200EA819000167A1200088F09
:104D9300E490001664F01200684F1200689AEA94D7
:104DA30001502FEB24C0FFEA340E12006677120085
:104DB3006B85EF640160157B817A1579927DB17CF7
:104DC300007FD17E011200BDD97FB122120067ECB2
:104DD30080C81200684E90000C1AE0FEA3E0FFC3E7
:104DE300EE9401503874CF2FF58274193EF5837514
:104DF3009300E0FFC3940590000C1A40081200686A
:104E030023E4F0800612006823EFF090000C1BE00F
:104E130004F070C290000C1AE004F080B91200E4B0
:104E2300152212006B85EF64012212006B85EF647B
:104E330001221200E1AC90000C1AEEF0A3EF227DE8
:104E4300037C001200E7A822900010BCEBF0A3EA59
:104E5300F0A3E9F043F908A3E5FBF0A3E5FCF0E5D3
:104E6300FD541FA3F0A3E5FEF0A3E5FFF0900010AF
:104E7300BFE0FF75F00A84C454F0FEEF75F00A84B6
:104E8300E5F0540F2E900010CAF0900010C0E0FF20
:104E930075F00A84C454F0FEEF75F00A84E5F0540B
:104EA3000F2E900010C9F0900010C1E0FF75F00ABA
:104EB30084C454F0FEEF75F00A84E5F0540F2E908D
:104EC3000010C8F0900010C3E0900010CBF09000E9
:104ED30010C2E0900010CCF0E4900010C4F0A3F0F6
:104EE300900010D27407F0A374D0F0120020B41213
:104EF30000EBE4BF012AD3900010CCE0946E900045
:104F030010CBE09401406E900010C5E004F07007F0
:104F1300900010C4E004F0900010CCE024928028AC
:104F2300D3900010CCE0946D900010CBE09401403E
:104F330044900010C5E004F07007900010C4E00432
:104F4300F0900010CCE02493F0900010CBE034FEFE
:104F5300F0900010D3E004F07007900010D2E0044A
:104F6300F0C3900010D3E09484900010D2E0940832
:104F73005003014EEE900010C4E0FFA3E090001038
:104F8300CDCFF0A3EFF0900010C47420F0A3E4F0B1
:104F9300900010CDE0FEA3E0FF7C007D64120005CD
:104FA3007CEF540FFE900010C5E02400F090001039
:104FB300C4E03EF0900010CDE0FEA3E0FF7C007D56
:104FC300641200057C7C007D641200056AC39000B6
:104FD30010CEE09FF0900010CDE09EF0E0FEA3E045
:104FE300FF7D0A1200057CEFC4F8540FC868FFEF79
:104FF30054F0FF900010C5E02FF0900010C4E0348F
:1050030000F0900010CDE0FEA3E0FF7C007D0A12CB
:1050130000057C7C007D0A1200056AC3900010CE57
:10502300E09FF0900010CDE09EF0A3E0540FFF90BE
:105033000010C5E02FF0900010C4E03400F0E0FF52
:10504300A3E0900010CDCFF0A3EFF0900010CDE0DF
:1050530054F0D3949040037F0022900010CDE0548D
:105063000FD3940940037F0022900010CEE054F048
:10507300D3949040037F0022900010CEE0540FD3CE
:10508300940940037F00221200EBE4900010CFBF8D
:10509300010D7481F0A37420F0A3745CF0800B7491
:1050A30081F0A37420F0A37468F0900010D474010D
:1050B300F0900010D2E4F0A304F0900010D2E0FED0
:1050C300A3E0FFC3940CEE94005058900010CFE07F
:1050D300FBA3E0FAA3E0F9C3EF9401FFEE9400FE13
:1050E300E92FF9EA3EFA12000524FF7E00D390006F
:1050F30010CCE09F900010CBE09E4027900010D48E
:10510300E004F0900010CCE09FF0900010CBE09E04
:10511300F0900010D3E004F070A0900010D2E004EF
:10512300F08097E4900010C6F0900010D4E0FF7573
:10513300F00A84FEC454F0FD900010C6E02DF0EE9A
:1051430075F00AA4FEC3EF9E900010D4F0540FFF35
:10515300900010C6E02FF0E0FFD39412500AEF54F2
:105163000F94095003E070037F0022E4900010C7FE
:10517300F0900010CBE0A3E0900010D4F0E0FF75B6
:10518300F00A84FEC454F0FD900010C7E02DF0EE49
:1051930075F00AA4FEC3EF9E900010D4F0540FFFE5
:1051A300900010C7E02FF0E0FFD394315007EF5485
:1051B3000F940940037F0022900010BCE0FBA3E0A2
:1051C300FAA3E0F8AC02AD037B017A1079C47E0048
:1051D3007F0712000AB17F0122900010ABEBF0A30E
:1051E300EAF0A3E9F090001102741AF07E007D004A
:1051F3001200886712008887900011007401F07F05
:1052030010120054EA70037FB12212008942900009
:105213001102E0C39402FD12005514704690001071
:10522300FFF012008843B5061E1200898D12008814
:1052330060120089D912008860B5060B900010FF38
:10524300E004F0E0B403DB12008897E4900011005F
:10525300F090001664E0700B7FA0120055437003BA
:105263007FB12290001100E064017059FEFD12002D
:1052730088677FA0120054EA70037FB1221200886E
:1052830087120089427D181200551460037F5C2247
:10529300E4900010FFF0120088436E60037F5C22ED
:1052A3001200898D12008860120089D9120088606B
:1052B3006E60037F5C22900010FFE004F0E0B40313
:1052C300D5120088977B017A1079C21200EA819087
:1052D3000010AB1200883B2405F9E43AFA120008E7
:1052E300371200081A900016601200088F12008906
:1052F300421200ECE9900016581200088F12008940
:10530300EF1200ECE99000165C1200088F90001079
:10531300CD120089F690001101F01200EF535003F3
:105323007F0D221200881AC3120007E37030FC902D
:1053330000165C120089267FC07E107D037C00125C
:105343000089EF1200E8FB120089847410F0A37443
:10535300BFF0120089EF7D037C001200E7A8120062
:10536300880B900010B212008877E4FFFE7D08FCE2
:10537300900010B212008823C3120007E340317C6F
:1053830000900010B2120089269000165C1200886B
:105393000FFF900010B212008823D3120007E350CE
:1053A30008E490001101F080079000110174FFF0F0
:1053B3001200880BFF900010AB1200883B2437F9D2
:1053C300E43AFA12000837900010B21200880FFF77
:1053D300120089421200E8FB120089847410F0A3C2
:1053E30074B9120089417D037C001200E7A87B0198
:1053F3007A1079C61200EA81900016761200088F9F
:1054030078F87C107D017B017A1079CA7E007F03D6
:1054130012000AB1900016761200880FFF90001058
:10542300AB1200883B2411F9E43AFA12000852EF58
:105433002BFFEE3AFEED39FDEC38FC9000167612A8
:1054430000088F78737C167A1079CA7F031200885C
:10545300A1900016761200880FFF7B017A1079C69F
:105463001200E629900010AB1200883B24051200BD
:105473008973EF120089497B017A1079C21200E621
:1054830029900016601200880F12008949900016B7
:10549300601200088F900010B21200880FFF900076
:1054A30016581200088F90001101E0900010CD12E1
:1054B3000089417D187C001200E1AC900010B0EE31
:1054C300F0A3EFF07B017A1079CE1200EE86E47F31
:1054D30010120055436401700B90001101120089F2
:1054E300F67F00227FB122E4FEFDFC90001102E072
:1054F30090001107F0A37401F0A37410F0A374B625
:10550300F012006B857E00900010AEEEF0A3EFF07A
:10551300227C001200E1AC900010B0EEF0A3EFF09B
:105523007B017A1079F61200EE8678F67C107D0105
:105533007B017A1079CE7E007F0212000A1EEF22D1
:10554300FEFDFC90001102E090001107F0A374012E
:10555300F0A37410F0A374B6F01200556C7E0090A3
:105563000010AEEEF0A3EFF022900011031200083A
:105573008FE49000110BF090001107E0D39450409A
:10558300037F002290001103A3A3A3E0540FFFE4C1
:10559300FEFDFCFBFAF9F8C3120007E360037F008A
:1055A3002290001103E0FCA3E0FDA3E0FEA3E0FFD3
:1055B300900011681200088F78667C117D017B01D1
:1055C3007A11796A7E007F0212000AB19000116994
:1055D300E01313543F90001162F090001166E0FF56
:1055E300A3E090001164CFF0A3EFF090001169E005
:1055F300540390001163F0E49000110BF0120020AB
:10560300B47B017A25796990001171E41200D0BB53
:105613007B017A11790C90001171E41200D0BB90D8
:1056230000110CE0FF90002569E0FE6F6003015854
:10563300E6EE644260030157617B017A2579699044
:10564300001171F0A374561200D0BE9000256AE0D9
:10565300D3940340030158E69000256BE0D39403F1
:1056630040030158E6D39000256DE094F0900025A7
:105673006CE094FF40030158E69000256EE0D3945C
:105683005040030158E67E007F567D007B017A116E
:10569300790C120009557B017A11790C9000117174
:1056A300E4F0A374561200D0BE780C7C117D017B0C
:1056B300017A2579697E007F5612000A1EEF600386
:1056C3000158E69000256AE0FFA3E0FD9000256EF7
:1056D300E090001170F0A37401F0A37425F0A3749B
:1056E3006FF09000256C1200D164EF70030158E64F
:1056F3007E007F567D007B017A11790C12000955DB
:105703009000256AE0FFA3E0FD9000256EE0900085
:105713001170F0A37401F0A37411F0740C1200C79C
:10572300DDEF70030158E69000256EE0FF7E007800
:105733006F7C257D017B017A11790C12000A1EEF23
:1057430060030158E61200CCD41200D0AB900025C0
:1057530069E0FF9000110CE06F60030158E69000D0
:1057630024077441F090001162E090002408F09047
:10577300001163E090002409F090001164E0FFA39E
:10578300E09000240ACFF0A3EFF090001107E0FFB0
:105793009000240CF07E00780D7C247D0190001194
:1057A30008E0FBA3E0FAA3E0F912000AB17B017A57
:1057B30024790890001171E4F0A37455F07F9D7E65
:1057C300071200CCEE7E007F557D007B017A1179B4
:1057D3000C120009557B017A11790C90001171E4C8
:1057E300F0A37455F07F9D7E071200D0C3780C7C24
:1057F300117D017B017A2479087E007F5512000A0E
:105803001EEF60030158E6900024077442F07B0109
:105813007A2479071200CCE11200D0AB9000240760
:10582300E0FF9000110CE06F60030158E690001157
:1058330062E0FFA3E0FD90001107E090001170F01B
:1058430090001108E0F9A3E0FAA3E090001171C9F8
:10585300F0A3EAF0A3E9F0900011641200D164EF21
:1058630070030158E67E007F507D007B017A117939
:105873000C1200095590001162E0FFA3E0FD9000B7
:105883001107E090001170F0A37401F0A37411F0FC
:10589300A3740CF0900011641200C7E3EF6044900E
:1058A300001107E0FF7E00780C7C117D01A3E0FB73
:1058B300A3E0FAA3E0F912000A1EEF702690002479
:1058C300077441F07B017A2479071200CCE11200BE
:1058D300D0AB90002407E0FF9000110CE0B5070364
:1058E3007F01229000110BE004F0E0C39403500306
:1058F3000156007F0022783F7C107D017B817A1F57
:1059030079C27E007F0512000AB17B017A107948C3
:10591300120089377B017A107952120089377F048C
:1059230012008A11120088E87E007F3B7DFF12007F
:1059330088FB12000955120088E012008A11120038
:10594300CFEE120089306003E0FF221200EF5350C4
:10595300037F0D2212008A111200B9AB12008930A5
:105963006015E024F9600724056003015BF27F0200
:1059730012005C66015BF2120089A874A52FF58200
:1059830074163E12008860FFE4FCFDFE9000166B67
:1059930012008823120006A2E47B64FAF9F81200CD
:1059A300072D900010441200088F7E007F147D00A5
:1059B3007B017A10799712000955900019A71200FC
:1059C300880FFF900010651200088F785D7C107DB2
:1059D300011200890278737C107D017A1879A67F01
:1059E3000612008908900010441200880FFF9000EF
:1059F300106D1200088F900010AE120088F0120094
:105A03007CD512008930600DE0B45A067F0812007D
:105A13005C66015BF2900010441200880FFF900057
:105A230019AD12008823C3120007E350097F0F1238
:105A3300005C6D7F0922900019AD1200880FFF9062
:105A43000010691200088FE49000107BF090001999
:105A5300B6E02401FE900019B5E034009000107107
:105A6300F0A3CEF09000107974FFF0A37401F090CE
:105A7300001092F01200C1A812008930601FE0FBF1
:105A8300B40617E490001079F0900010927402F0BD
:105A93009000106D1200897B8003AF0322120088EF
:105AA300FB120051DC120089306003E0FF22120078
:105AB30088E0120088FB120089D17D01120085E580
:105AC300120089306003E0FF2290001079E0701B20
:105AD3007B817A1F798D7D017F011200DBF3120038
