:10000000021CD57E11DEFEDFFA00220200D4085366
:10001000E8EF438EC075C7AA75C75543D803227F42
:020020000022BC
:100023000200CE550200014BEC5D046005E8590463
:100033007004020001411200010C580460F4EC4802
:1000430060F0EC7004FDFEFF22C860D82481C85024
:100053000AC39860025007020001489850C6F5820F
:10006300E9294B4A7006AB820200013775F0007C28
:100073001A7880C3EF9BEE9AED99400DC3EF9BFF77
:10008300EE9AFEED99FDE842F0DC24ACF0D0E0FFFF
:10009300D0E0FED0E0FDAB8220E7101BEB60B8ECB4
:1000A3002CFCEF33FFEE33FEED33FD02000123E8BA
:1000B30003F830E705C0F075F000EF2FFFEE33FED5
:1000C300ED33FD40B730E7C180A975F020800E7590
:1000D300F010800575F0087D007E007F003392D517
:1000E30030D504120007E9EC334010EF33FFEE3351
:1000F300FEED33FDEC33FCD5F0ED22E5F0247EA2DA
:10010300D513CC92E7CDCEFF22E9D2E7C933E8334A
:10011300F892D5EDD2E7CD33EC33FC5002B2D522C1
:10012300EC30E7100FBF000C0EBE00080DBD00043D
:100133000BEB6014A2D5EB13FCED92E7FD2274FFE9
:10014300FCFDFEFF22E480F8A2D574FF13FC7D8042
:10015300E480EFF920E73624F950037907E4F42427
:1001630002FBE582158270021583DBF6E024FB5067
:100173001BE96014E4F0E582158270021583E00444
:10018300F0B40A08E4F0D9EE7401F00A22C2D522D1
:10019300ED33EC3392D5FA602AB4FF33EDC2E77B3B
:1001A3008160067A0179B8E4227A0179C120D50405
:1001B3007A0179BC224E614E002B494E46002D49EF
:1001C3004E4600E47A08F0A3DAFC7B00740722C0F1
:1001D30093C083C082ECC0E0EDC0E0EEC0E0EFC0AE
:1001E300E0EA75F010A4CAABF075F04DA42BFBE464
:1001F30035F0FCEA2410FAEB34C5FBEC34D9FCED02
:10020300C2E7FF75F056A4F42411C5F0F434C58F8A
:10021300F0A42AE5F03BE43CF020E716120004DEEC
:10022300D0E0FFD0E0FED0E0FDD0E0FC1200002BD8
:100233008016F404120004DED0E0FFD0E0FED0E02C
:10024300FDD0E0FC120003A0D082D083D093E0FA6B
:10025300EDD2E7CD33EC332482FBE4C3CF33CFCEEF
:1002630033CECD33CD33DBF37B0775F00A846004E3
:10027300F0A31B0AE5F0F0A38FF0740AA4FFACF01F
:100283008EF0740AA42CFEACF050010C8DF0740AAD
:10029300A42CFDE435F0F0A3DBDE74072202000199
:1002A30041E86480F8E933E83360110460EFED332B
:1002B300EC337009E8FCE9FDEAFEEBFF220460DDA4
:1002C300D3EB9FEA9EE99DE8C2E78CF0C2F795F075
:1002D300400CE8CCF8E9CDF9EACEFAEBCFFB1200FB
:1002E300010C85D0F05804700320D5B1E8047008E0
:1002F3005002B2D50200014B92D5EC0460F6E4CC77
:10030300C0E0C398F8603C94186009400ED0E0FB4D
:1003130002000123E4FBFAC9FC8028E830E406E488
:10032300C9FBE4CAFCE830E305E4C9CACBFCE854E2
:10033300076010F8C3E913F9EA13FAEB13FBEC13A4
:10034300FCD8F130F531C3E49CFCEF9BFFEE9AFE41
:10035300ED99FDD0E0FBEF4E4D4C701322DB040210
:10036300000148EC2CFCEF33FFEE33FEED33FDEDE3
:1003730030E7EA02000123EF2BFFEE3AFEED39FDF1
:10038300D0E0FB50140BBB00040200014BED13FD46
:10039300EE13FEEF13FFEC13FC02000123EC4D60A0
:1003A30011E8497018ED33EC3304600DE4FCFFFEF3
:1003B300FD22E933E8330470F80200014112000121
:1003C3000C58046009E4CC2481500728500B020028
:1003D300014B28400402000148C0E0EB4A7046B9D3
:1003E3008007D0E0FB02000137EF4E701DBD80088F
:1003F300EBFFEAFEE9FD80EAE98DF0A4FEE5F002F9
:1004030000048FE9CDF9EAFEEBFFEF89F0A4FCE5E8
:10041300F0CE89F0A42EFFE435F0CD89F0A42DFEB3
:10042300E435F08067EF4E7005BD80D780C2EF8B57
:10043300F0A4ACF0EE8BF0A42CFCE435F0F8EF8ADA
:10044300F0A42CE5F038FCE433CB8DF0A42CFCE5D0
:10045300F03BF8EE8AF0A42CFCE5F038F8E433CF57
:1004630089F0A42CFCE5F038CF3400CE89F0A42F1A
:10047300FFE5F03EFEE433C98DF0A42EFEE5F0392E
:10048300CD8AF0A42FFFE5F03EFEE43DFD33D0E03E
:10049300FB50080BBB00100200014BEC2CFCEF33AC
:1004A300FFEE33FEED33FD020001233F80000041E8
:1004B30020000042C80000447A0000461C40004768
:1004C300C35000497424004B1896804CBEBC205A7C
:1004D3000E1BCA6753C21C749DC5AEFB600654074E
:1004E3006020232312000511EB5438600C12000422
:1004F300FC1200050C120003A0ECF8EDF9EEFAEF84
:10050300CB22EB1200050C80F0543803241C90001E
:1005130004AEFE93FC0EEE93FD0EEE930ECE93FF10
:1005230022EB7002E72289828A831410E704F59391
:10053300E022F593E49322BB000327F722F8EB892B
:10054300828A831410E706F593E028F022F593E4FA
:10055300932822BB0002F722BB8000500989828ABC
:10056300838B931593F022EF8DF0A4A8F0CF8CF03A
:10057300A428CE8DF0A42EFE22BC000BBE0029EFD2
:100583008DF084FFADF022E4CCF875F008EF2FFF77
:10059300EE33FEEC33FCEE9DEC984005FCEE9DFE45
:1005A3000FD5F0E9E4CEFD22EDF8F5F0EE0084205E
:1005B300D21CFEADF075F008EF2FFFED33FD4007C1
:1005C300985006D5F0F222C398FD0FD5F0EA22C267
:1005D300D5EC30E709B2D5E4C39DFDE49CFCEE30D5
:1005E300E716B2D5E4C39FFFE49EFE1200057CC369
:1005F300E49DFDE49CFC80041200057C30D507C318
:10060300E49FFFE49EFE22C5F0F8A3E028F0C5F0C6
:10061300F8E582158270021583E038F022A3F8E032
:10062300C5F025F0F0E582158270021583E0C83825
:10063300F0E822EB7007E7F5F009E7192289828ACF
:10064300831410E708F593E0F5F0A3E022F593E4B3
:1006530093F5F074019322F8EB700C09E5F027C7CA
:10066300F5F019E837C72289828A831410E707F562
:1006730093E802000620F593E4740193F5F0E49304
:1006830022BB000B09C5F027F7C5F01937F722F88D
:10069300EB89828A831410E707F593E80200060AC0
:1006A300F59374019325F0F5F0E4933822BB00062B
:1006B300F709A7F01922BB8000500D89828A838B2A
:1006C300931593F0E5F0A3F022E88FF0A4CC8BF020
:1006D300A42CFCE98EF0A42CFC8AF0EDA42CFCEAFB
:1006E3008EF0A4CDA8F08BF0A42DCC3825F0FDE935
:1006F3008FF0A42CCD35F0FCEB8EF0A4FEA9F0EB2B
:100703008FF0A4CFC5F02ECD39FEE43CFCEAA42D36
:10071300CE35F0FDE43CFC2275F008758200EF2F26
:10072300FFEE33FECD33CDCC33CCC58233C5829BB4
:10073300ED9AEC99E58298400CF582EE9BFEED9ADA
:10074300FDEC99FC0FD5F0D6E4CEFBE4CDFAE4CC76
:10075300F9A88222B800C1B90059BA002DEC8BF078
:1007630084CFCECDFCE5F0CBF97818EF2FFFEE3335
:10077300FEED33FDEC33FCEB33FB10D70399400460
:10078300EB99FB0FD8E5E4F9FA227818EF2FFFEE87
:1007930033FEED33FDEC33FCC933C910D7059BE9B8
:1007A3009A4007EC9BFCE99AF90FD8E0E4C9FAE414
:1007B300CCFB2275F010EF2FFFEE33FEED33FDCCB3
:1007C30033CCC833C810D7079BEC9AE899400AED9D
:1007D3009BFDEC9AFCE899F80FD5F0DAE4CDFBE445
:1007E300CCFAE4C8F922C3E49FFFE49EFEE49DFD36
:1007F300E49CFC22EB9FF5F0EA9E42F0E99D42F077
:10080300EC6480C864809845F022EB9FF5F0EA9E83
:1008130042F0E99D42F0E89C45F022E8600FECC30A
:1008230013FCED13FDEE13FEEF13FFD8F122E86086
:100833000FEFC333FFEE33FEED33FDEC33FCD8F1A2
:1008430022EB7006E9F802000B6F89828A83141089
:10085300E706F59302000B7BF59302000B87BB00C1
:1008630006E9F802000BC0BB8000500C89828A8322
:100873008B9315930200089922EB7006E9F80200A6
:100883000B9789828A831410E706F59302000BA461
:10089300F59302000BB0ECF0A3EDF0A3EEF0A3EFA1
:1008A300F022A42582F582E5F03583F58322F8E072
:1008B300FBA3A3E0F925F0F0E5821582700215830E
:1008C300E0FA38F022EBF0A3EAF0A3E9F022EB70B0
:1008D30006E9F802000BCC89828A831410E706F537
:1008E3009302000BDEF59302000BE7BB001CD093D1
:1008F300D0F0D0E0F8D0E0C9FBD0E0FAD0E0CBC82C
:10090300C0E0C0F0C09302000BD5BB80005022D0E2
:1009130093D0F0D0E0F8D0E0C9F582D0E0CAF583F7
:10092300D0E0CB14C8C0E0C0F0C0938893020008A5
:10093300C8D093D083D082D0E0D0E0D0E0E473D0AD
:1009430093D083D082F8E4937012740193700DA353
:10095300A393F8740193F5828883E4737402936814
:1009630060EFA3A3A380DFD093D083D082E49370FE
:1009730012740193700DA3A393F8740193F5828805
:1009830083E4737402936C70127403936D700C742C
:1009930004936E70067405936F60DDA3A3A3A3A3F2
:1009A300A380CA8B938A838982159353937FE473BD
:1009B300EF4E6022EF60010EEDBB0007F709DFFC8D
:1009C300A9F022BB8000500E89828A838B931593F2
:1009D300F0A3DFFCDEFA22EB700C87F009E608B522
:1009E300F019DFF6801589828A831410E70FF593D7
:1009F300E0F5F0A3E608B5F002DFF5806AF593E4CD
:100A030093F5F0A3E608B5F05EDFF4805ACB7013DC
:100A130088828C838B9387F009E493A3B5F048DF36
:100A2300F580441410E71F88848C858B9589828A0E
:100A330083F593758620E0F5F0E493A3A3B5F02442
:100A4300DFF4DEF2801E88848C858B9589828A830D
:100A5300F593758620E493F5F0E493A3A3B5F0042E
:100A6300DFF3DEF17586007FFFB5F0020F2240024F
:100A73007F0122020009DA809488F0EF60010E4EB4
:100A830060F0ED60EE1410E7EECB701288828C8379
:100A9300F59387F009E0A3B5F0CDDFF680C9141014
:100AA300E71E88848C858B9589828A83F593758666
:100AB30020E0F5F0E0A3A3B5F0AADFF5DEF380A410
:100AC30088848C858B9589828A83F593758620E447
:100AD30093F5F0E0A3A3B5F08BDFF4DEF28085EBB2
:100AE3007008E709F608DFFA801B89828A831410ED
:100AF300E70AF593E0A3F608DFFA8009F593E49398
:100B0300A3F608DFF9ECFAA9F0EDFB2288F0EF6019
:100B1300010E4E60F088F0ED60C51410E7E7CB706E
:100B23000E88828C838B93E709F0A3DFFA80D614B7
:100B330010E71C88848C858B9589828A83F593754D
:100B43008620E0F0A3A3DFFADEF875860080B6887E
:100B5300848C858B9589828A83F593758620E493AB
:100B6300F0A3A3DFF9DEF77586008099E6FC08E6BB
:100B7300FD08E6FE08E6FF22E0FCA3E0FDA3E0FE9D
:100B8300A3E0FF22E493FC740193FD740293FE74CB
:100B93000393FF22E6FB08E6F908E6FA08E6CBF83A
:100BA30022E0F8A3E0F9A3E0FAA3E0FB22E493F840
:100BB300740193F9740293FA740393FB22ECF6081D
:100BC300EDF608EEF608EFF622E6FB08E6FA08E68D
:100BD300F922EBF608EAF608E9F622E0FBA3E0FACD
:100BE300A3E0F922E493FB740193FA740293F922CC
:100BF300E5132421F582E43418F583759300E005A9
:100C030013229000181E300C0490001821E475F094
:100C130001120008B1020005242005E57F2ED2054C
:100C23008018EF540F2490D43440D4FF30090BEFD5
:100C330024BFB41A0050032461FFE51460021514A5
:100C43000517E51770020516300C119000181EE405
:100C530075F001120008B1EF020005560200219958
:100C63007403D20C8003E4C20CF5139000181E1217
:100C73000008C8E4F514F516F517E51460087F209D
:100C830012000C3D80F47515FFC206C205C207C2EF
:100C930008C20AC20BC20D12000C05FF700E300C05
:100CA300067F0012000C4EAF17AE1622B42563C2A6
:100CB300D5C20912000C05FF24D0B40A00501A75DE
:100CC300F00A781430D50508B6FF0106C6A426F647
:100CD30020D5047002D20880D824CFB41A00EF5074
:100CE30004C2E5D20902000F8BD20680C4D205806C
:100CF300BED20780BAD2D580B8D20A80B27F201282
:100D0300000C3D2007077401B5140040F012000BDE
:100D1300F3FF12000C3D02000C7DD20DD20B808F2D
:100D230012000BF3FB12000BF3FA12000BF3F94A58
:100D33004B700679987A107B8120073DE514603962
:100D43007E00E9C0E02EF9EAC0E03400FA120005A3
:100D530024F9D0E0FAD0E0C960060EEE651570E222
:100D6300C2D5EBC0E0EAC0E0E9C0E0EE12000FF349
:100D7300D0E0F9D0E0FAD0E0FB12000524FF609642
:100D8300EBC0E0EAC0E0E9C0E012000C3DD0E02493
:100D930001F9D0E03400FAD0E0FBE5150460DAD5C0
:100DA30015D702000D19D207808F12000FCF60F6FE
:100DB300E51570010412000156A915600EE51560D2
:100DC3000A14F51512001082EF60F2EA30E702F41C
:100DD30004C399400402000E62EAF425150430E7C7
:100DE30001E404F515800F12000FCF60B9EA051571
:100DF300251512000156EA9000184DF030E701E482
:100E0300251504D51504200A011412000FF3E4C0BC
:100E1300E0120010829000184DE0601420E70814DF
:100E2300F012000C25802604F0D0E014C0E07F000F
:100E330012000C25E515600812000C1C1515800D19
:100E4300300A0412000C1CD0E002000C7DD0E00438
:100E530080BD12000FCF6093E51504120001569078
:100E630000184DEAF0E515200A026001042404127B
:100E7300000FF374FF04C0E01200108212000C256F
:100E8300E515200A02600412000C1CD0E0B515E53C
:100E93007F4512000C2F9000184DE07F2B30E704A4
:100EA3007F2DF404C0E012000C3DD0E075F00A84FD
:100EB300C0F012000C26D0E012000C2602000C7DBC
:100EC300791080027908C20BC20D8008D2D5790A45
:100ED3008004790AC2D5E515047002F515E4FAFD1C
:100EE300FEFF12000BF3FC7B0820061612000BF327
:100EF300FD7B1030050C12000BF3FE12000BF3FF09
:100F03007B20EC3382D592D55013C3E43005069F82
:100F1300FFE49EFEE42006039DFDE49CFCE4CBF885
:100F2300C206EC700CCFCECDCCE824F8F870F38079
:100F330017C3EF33FFEE33FEED33FDEC33FCEB333E
:100F4300FB994002FB0FD8E9EB300605F8D0E0C46B
:100F530048B206C0E00AEC4D4E4F78207B0070C2C9
:100F6300EAB5150040BCC0E012000FF5D0F0D0E0A8
:100F7300200604C4C0E0C4B206C0F012000C26D0A0
:100F8300F0D5F0EA02000C7D120009420D23530E46
:100F9300C3580CF04C0CEC420EC74F0ECF440ECF8F
:100FA300490D06430ED5550DEA460E55450DAD4781
:100FB30010B5500CF42D0CF82E0D1F2B0CFC230D2B
:100FC3001D2010A12A0CB24800000D15E515B4FF31
:100FD3000375150612000BF3FC12000BF3FD120050
:100FE3000BF3FE12000BF3FF90001846020001936F
:100FF300790AA2D5200814300A09B910020404B9E9
:10100300080104A2D5200B0250010420076D9207AA
:10101300B514005036C0E07F2030081A7F30A20795
:10102300720B720A50101200104EC207C20BC20A92
:10103300C20D7F308010300A03E9C0E012000C3D7E
:10104300300A03D0E0F9D0E0B514CA300A197F3072
:10105300B9100D12000C3D7F583009077F788003CB
:10106300B9080412000C3D3007067F2D02000C3D29
:101073007F20200DF77F2B200BF222920780CC7F5D
:1010830000B40700500E2446F582E43418F5837546
:101093009300E0FF22286E756C6C2900D2061200C3
:1010A3000BF33006F7C206781430D50108F60200B8
:1010B3000CB212000BF37F4960087F4310E7027FF5
:1010C3005814C0E0EF12000C2E743A12000C2ED00C
:1010D300E0600DC0E0C412000C26D0E012000C2624
:1010E300D20875140402000EC3D6D0CDBEB0CEBF55
:1010F300A800B2BBBFC9CAB6B1F0BFA800BFA8C79A
:10110300AEB0FCB4EDCEF300CEB4C9CFB4ABC1F7EF
:10111300CBAE00C7EBB2C9BCAF00BADABFA800BF01
:10112300A8D2D1B9C6DA00CEDEC8A8CFDE00BFA8E8
:10113300D3E0B6EEB2BBD7E300BFA8D2D1CBF80061
:10114300C3E2B7D1BFA800BCC7C2BCD2D1C2FA00A8
:10115300D6D8B8B4CBA2BFA800C9E8D6C3B4EDCEE5
:10116300F300CAB1D6D3B4EDCEF300D3B2BCFEB90B
:10117300CAD5CF00B2BBD6A7B3D6BFA8C0E0D0CDE7
:101183000000CEEFC0ED4944CEB4C9E8D6C300D6C3
:10119300F7B2CEB4EDCEF300575220534552494136
:1011A3004C0052442053455249414C005B25645D39
:1011B300B4EDCEF3C2EBA3BA25642000B6C1D0B41C
:1011C300B4EDCEF30025303258006931365B25305B
:1011D30034585D00252E30326600B6C1BFA8C6F76D
:1011E300D2ECB3A30072656164203078343020619F
:1011F3006464720A00B6C1454550524F4D20310018
:10120300454550524F4D2044617461203100776F42
:10121300726B206B657900776F726B206B65790A4F
:1012230000B6C1454550524F4D20320045455052FE
:101233004F4D2044617461203200D0B44545505273
:101243004F4D203200646179735B25645D5B2564D7
:101253005D00B6C1454550524F4D203300454550C2
:10126300524F4D2044617461203300B6C14545504F
:10127300524F4D203400646973706C6179206D6541
:101283006E750A00312E20BAECCDE2CDA8D1B6207E
:101293002000322E20B4AEBFDACDA8D1B620200074
:1012A300332E2047505253CDA8D1B6202000202002
:1012B300202020202020202020202000256C7500C5
:1012C30025732C5B25640A00C9E8B1B8CEEFC0EDE5
:1012D30049440025303258253032582530325825BC
:1012E30030325800CFB5CDB3CAB1BCE400B5B1CCF0
:1012F300ECD3AAD2B5B6EE00252E30326620D4AA9E
:1013030000C7B0D2BBCCECD3AAD2B5B6EE00BBF9C2
:10131300B4A1B7D1C2CA00B2C9BCAFCAB1BCE4BCA4
:10132300E4B8F400256420CCEC00C1ACD0F8CBA227
:10133300BFA800256420C3EB00B5B1C7B0C1F7CB8C
:10134300AEBAC500CEB4B2C9BCAFBCC7C2BC0025DF
:101353007520CCF500B3CCD0F2B0E6B1BE00257356
:1013630000303930373032494D5F623200CEB4B28B
:10137300C9BCAFCCECCA00257520CCEC0042756922
:101383006C64004A756C20303220323030390031C1
:10139300363A30353A303600312E20CBA2BFA8CAB8
:1013A300D5B7D1202000322E20B2E9D1AF202020A2
:1013B30020202000332E20CDA8D1B62020202020AD
:1013C3002000B3F5CABCBBAFB4EDCEF300B3F5CA8E
:1013D300BCBBAFB3C9B9A600001F1C1F1E1F1E1F35
:1013E3001F1E1F1E1F81128781CBC181129581D0C1
:1013F300068112A381F5478112B1000000010DB7E8
:1014030000000081139B81A2428113A9815563814E
:1014130013B781F1D6202020202020202020202057
:101423002020202020000000000000000000000019
:10143300004F000000000000070007000000001438
:101443007F147F14000000242A7F2A120000002347
:101453001308646200000036495522500000000062
:1014630005030000000000001C22410000000000F2
:1014730041221C0000000014083E0814000000086C
:10148300083E08080000000050300000000000087B
:101493000808080000000000606000000000002051
:1014A300100804020000003E5149453E00000000C0
:1014B30000427F4000000042615149460000002184
:1014C30041454B310000001814127F100000002723
:1014D300454545390000003C4A49493000000001B8
:1014E300017905030000003649494936000000062A
:1014F3004949291E000000003636000000000000A4
:1015030056360000000000081422410000000014B9
:1015130014141414000000004122140800000002F7
:1015230001510906000000324979413E0000007E66
:101533001111117E000000417F4949360000003E31
:1015430041414122000000417E4141223C00007E96
:10155300494949490000007F090909010000003E8B
:101563004141497A0000007F0808087F000000001D
:10157300417F41000000002040413F010000007F07
:10158300081422410000007F404040400000007FDB
:10159300020C027F0000007F0608307F0000003E3F
:1015A3004141413E0000007F090909060000003E59
:1015B3004151215E0000007F0919294600000026E1
:1015C3004949493200000001017F01010000003F49
:1015D3004040403F0000001F2040201F0000007FCC
:1015E3002018207F00000063140814630000000724
:1015F30008700807000000615149454300000000DE
:101603007F41410000000002040810200000000098
:1016130041417F0000000004020102040000004079
:1016230040004040000000010204000000000020D0
:10163300545454780000007F484444380000003874
:1016430044444428000000384444487F00000038E4
:101653005454541800000000087E09020000000CD6
:1016630052524C3E0000007F080404780000000042
:10167300447D40000000002040443D000000000085
:101683007F10284400000000417F40000000007CE0
:10169300047804780000007C080404780000003813
:1016A300444444380000007E0C12120C0000000C6D
:1016B30012120C7E0000007C08040408000000588D
:1016C30054545464000000043F4440200000003C94
:1016D30040403C400000001C2040201C0000003C17
:1016E3004030403C00000044281028440000001C07
:1016F300A0A0907C0000004464544C44000000000F
:1017030008364100000000000077000000000000E0
:10171300413608000000000201020402000000FF3D
:10172300FFFFFFFF0000253032640000001021207E
:10173300423063408450A560C670E781089129A1B7
:101743004AB16BC18CD1ADE1CEF1EF12310210324F
:1017530073225252B5429472F762D693398318B307
:101763007BA35AD3BDC39CF3FFE3DE24623443045B
:1017730020140164E674C744A45485A56AB54B8557
:10178300289509E5EEF5CFC5ACD58D3653267216EF
:1017930011063076D766F6569546B4B75BA77A97A7
:1017A300198738F7DFE7FED79DC7BC48C458E568FB
:1017B3008678A70840186128023823C9CCD9EDE9F7
:1017C3008EF9AF89489969A90AB92B5AF54AD47A8F
:1017D300B76A961A710A503A332A12DBFDCBDCFB47
:1017E300BFEB9E9B798B58BB3BAB1A6CA67C874C9B
:1017F300E45CC52C223C030C601C41EDAEFD8FCD97
:10180300ECDDCDAD2ABD0B8D689D497E976EB65E2E
:10181300D54EF43E132E321E510E70FF9FEFBEDFE6
:10182300DDCFFCBF1BAF3A9F598F78918881A9B157
:10183300CAA1EBD10CC12DF14EE16F108000A13094
:10184300C220E3500440257046606783B99398A390
:10185300FBB3DAC33DD31CE37FF35E02B1129022E4
:10186300F332D24235521462777256B5EAA5CB955C
:10187300A88589F56EE54FD52CC50D34E224C31434
:10188300A004817466644754244405A7DBB7FA8730
:101893009997B8E75FF77EC71DD73C26D336F20684
:1018A3009116B06657767646155634D94CC96DF9FC
:1018B3000EE92F99C889E9B98AA9AB5844486578D4
:1018C30006682718C008E1388228A3CB7DDB5CEBD0
:1018D3003FFB1E8BF99BD8ABBBBB9A4A755A546A24
:1018E300377A160AF11AD02AB33A92FD2EED0FDD9C
:1018F3006CCD4DBDAAAD8B9DE88DC97C266C075C74
:10190300644C453CA22C831CE00CC1EF1FFF3ECF6F
:101913005DDF7CAF9BBFBA8FD99FF86E177E364EC3
:10192300555E742E933EB20ED11EF06C6F6164202F
:101933006B6579210A006C6F67696E206661696C5B
:10194300642025640A0073656C65637420636172A7
:10195300640A006C6F67696E207365637420310AD3
:10196300007265616420626C6F636B20340A00321D
:101973003025303264253032642530326400726998
:101983006768745B25645D0A00725B25645D5B2593
:10199300645D0A006C6F67696E207365637420353C
:1019A3000A007265616420626C6F636B2032300AD7
:1019B3000063617264207265636F72640A00696E0A
:1019C30074657276616C206964785B25645D0A00D6
:1019D30077726974652073657269616C20736563DE
:1019E300745B25645D0A00736563745B25645D62E3
:1019F3006C6F636B5B25645D0A00777269746520A5
:101A03007365637420350A00777269746520626CAC
:101A13006F636B5B353A32315D0A006C6F67696ED9
:101A230020636172642070757273652073656374DB
:101A33000A007265616420707572736520626C6F51
:101A4300636B0A007265616420707572736520624E
:101A530061636B75700A006C6F67696E20636172F6
:101A630064203320736563740A00726561642063C4
:101A730061726420313220626C6F636B0A0072659D
:101A8300616420626C6B2031340A007265616420EA
:101A930070757273650A00636865636B20636172B6
:101AA300640A00000506060607070708080800027F
:101AB300000102000102000102726561642070747A
:101AC30072200A00777269746520707472206261F3
:101AD300636B0A00726561642070747220626163D3
:101AE3006B0A006261636B20707472206372630A15
:101AF3000062616B20707472206372630A00726506
:101B0300636F72642066756C6C0A0075706461742F
:101B13006520707265206D6F6E65790A006D6F6E5A
:101B230065795B256C755D5B256C755D007570640F
:101B330061746520707472206572726F720A006539
:101B430072726F722073657269616C5B25645D0AE2
:101B5300007265636F72642066756C6C5B256C75CF
:101B63005D5B256C755D0A00676574206E6578742E
:101B73002073657269616C0A007265636F72642019
:101B830073657269616C0A00BADABFA800C3E2B771
:101B9300D1BFA800BFDBBFEE20257320D4AA00D39A
:101BA300E0B6EE20257320D4AA00C1F7CBAEBAC5A8
:101BB3005B256C645D00C7EBD6D8CBA200636F6E68
:101BC30073756D65205B25645D0A00C7EBC1AACF01
:101BD300B5B9DCC0EDD4B100C7EBBCECB2E9504FF2
:101BE30053BBFA007761697474696E672E2E2E00F9
:101BF300626567696E20726571756573742E2E2E2A
:101C03000A0070726F636573732E2E2E00C9E8D6B7
:101C1300C3CEEFC0ED4944B3C9B9A600D0A3D7BC26
:101C2300CAB1D6D3B3ACCAB100D0A3D7BCCAB1D65C
:101C3300D3B3C9B9A6007772697465206572726FF0
:101C4300722C307834300A006E6F742073757070A4
:101C53006F727420636D645B25645D0A0070726F3C
:101C630063657373206F6B002020202020202020C9
:101C7300202000696E697420696E66726172656402
:101C83002E2E2E00B2BBD6A7B3D6BAECCDE200B44B
:101C9300F2BFAABAECCDE2CAA7B0DC00636F6D6DE8
:101CA300756E69636174696F6E2E2E2E00B2BBD69A
:101CB300A7B3D6B4AEBFDA00B4F2BFAAB4AEBFDAEC
:101CC300CAA7B0DC00696E697420706F732E2E2E64
:101CD3000A0075C7AA75C755759D0275C7AA75C74A
:101CE3005575C600787FE4F6D8FD75816D02001D39
:101CF3001E0200CF2EE493A3F85407240CC8C33369
:101D0300C4540F4420C8834004F456800146F6DFD0
:101D1300E4800C010204081020408090001EF8E4C7
:101D23007E019360CCA3FF543F30E509541FFEE4CA
:101D330093A360010ECF54E0B4E026E493FBA3E445
:101D430093FAA3E493F9A3E493C083C0821200053A
:101D530056D082D083A309E970010ADFEADEE88066
:101D6300BE54C025E0602B408CE493A3FAE493A314
:101D7300F8E493A3C8C582C8CAC583CA759300F0A3
:101D8300759300A3C8C582C8CAC583CADFE3DEE171
:101D9300808DE493A3F8E493A34003F68001F20853
:101DA300DFF402001D226F70656E20706F72745B2A
:101DB30025645D5B256C755D0A00636C6F7365203C
:101DC300706F72745B25645D007265637620737453
:101DD3007831206572720A007061636B206C656EE6
:101DE300206572722C5B25645D0A00726563762040
:101DF3006572722C5B25645D5B25645D0A00726508
:101E03006376206275662065787431215B25645D95
:101E13000A00726567697374657220696E66726120
:101E230072656420706F72740A006F70656E206350
:101E33006F6D6D20706F72745B25645D5B256C75CF
:101E43005D0A00636C6F736520636F6D6D20706F47
:101E530072745B25645D0A007265676973746572E9
:101E630020636F6D6D20706F72740A00BD0020EFE8
:101E73007F08C2A63392A500D2A6DFF6C2A67F646E
:101E8300D2A5A2A55002DFFAD2A60000C2A622BDA7
:101E93000120EF7F08C2A73392A500D2A7DFF6C2C5
:101EA300A77F64D2A5A2A55002DFFAD2A70000C281
:101EB300A722BD0220EF7F08C2963392A500D296D7
:101EC300DFF6C2967F64D2A5A2A55002DFFAD296AE
:101ED3000000C29622EF7F08C2973392A500D297E3
:101EE300DFF6C2977F64D2A5A2A55002DFFAD2978C
:101EF3000000C29722605A0DCB00018110EC000252
:101F03008110F50003811100000481110B0005818C
:101F13001116000681111D0007811122000881118D
:101F23002A0009811131000A81113C000C811143FF
:101F3300000D81114A005A811153005C81115C002C
:101F43005B81116500B181116E005F81117700FE25
:101F5300811184411D3A014C00060000000000007D
:101F630000000000000046000000000000000042E6
:101F730000120000420C14000000D2A4C2A400C24C
:101F8300A2C2A3BD0004D2A2C2A312001F9222BF09
:101F93000012D2A100D2A4008B8000C2A4C2A1125D
:101FA300001FB922D2A000D2A4008B8000C2A4C219
:101FB300A012001FB922D2A4C2A4C2A200D2A37548
:101FC30080FF7400BF0014D2A100D2A400E58000FA
:101FD300C2A400D2A4C2A120E7ED22D2A000D2A4C1
:101FE3000000E58000C2A400D2A4C2A020E7EC2236
:101FF300BF00177D09D2A5D2A60000C2A60000D259
:10200300A60020A502DDF4C2A522BF01177D09D2D7
:10201300A5D2A70000C2A70000D2A70020A502DD19
:10202300F4C2A522BF02177D09D2A5D2960000C231
:10203300960000D2960020A502DDF4C2A5227D09F8
:10204300D2A5D2970000C2970000D2970020A50224
:10205300DDF4C2A522BF00127D08D2A5C2A600A24C
:10206300A533D2A6DDF6C2A6FF22BF01127D08D298
:10207300A5C2A700A2A533D2A7DDF6C2A7FF22BF40
:1020830002127D08D2A5C29600A2A533D296DDF630
:10209300C296FF227D08D2A5C29700A2A533D2978C
:1020A300DDF6C297FF2290001818E0FFA3E0FEA31D
:1020B300E0CF90001821F0A3EEF0A3EFF09000180A
:1020C3001BE0CBF0A3E0CAF0A3E0C9F07F229000AD
:1020D3001824AD82AC83120005248D828C83F0A377
:1020E30009E970010ADFEB9000181BE0FBA3E0FA9B
:1020F300A3E0F902000C63BF000E12002058C2A532
:1021030000D2A60000C2A622BF010E12002058C2B0
:10211300A500D2A70000C2A722BF020E12002058BA
:10212300C2A500D2960000C2962212002058C2A572
:1021330000D2970000C29722BF000AC2A500D2A610
:1021430000D2A50022BF010AC2A500D2A700D2A5D2
:102153000022BF020AC2A500D29600D2A50022C265
:10216300A500D29700D2A50022BF0009D2A500D2B4
:10217300A600C2A522BF0109D2A500D2A700C2A50D
:1021830022BF0209D2A500D29600C2A522D2A50081
:10219300D29700C2A522EFB40A08740D120021A53C
:1021A300740A309811A899B8130CC2983098FDA8F6
:1021B30099C298B811F63099FDC299F599225274D3
:1021C30063546D5F5645525F312E3031001F1D1F22
:1021D3001E1F1E1F1F1E1F1E1F1F1C1F1E1F1E1F15
:1021E3001F1E1F1E1F20000D0A00303132333435ED
:1021F3003637383941424344454600E4FFFE120076
:102203000524600C0FEF70010E09E970F10A80EEEE
:102213002275C7AA75C75553D8FD2275C7AA75C7B6
:102223005543D801227E54DEFEDFFA220605030160
:10223300020304050607080990001719EBF0A3EA47
:10224300F0A3E9F07B007A007922C003C002C00149
:1022530090001719E0FBA3E0FAA3E02407F9E43A9E
:10226300FA120008EE7B007A007942C003C002C074
:102273000190001719E0FBA3E0FAA3E0240AF9E4B4
:102283003AFA120008EE7B017A0E795DC003C002B0
:10229300C00190001719E0FBA3E0FAA3E02416F9AC
:1022A300E43AFA120008EE90001719E0FBA3E0FAF3
:1022B300A3E02415F9E43AFAE41200055690001756
:1022C30019E0FBA3E0FAA3E02413F9E43AFAE47576
:1022D300F005120006B090001719E0FBA3E0FAA383
:1022E300E02411F9E43AFAE475F020120006B07B19
:1022F300817A1B79E77D0AE4FF1200DFC87B817ACC
:102303001B79F31200EA8490001719E0FBA3E0FAAB
:10231300A3E02413F9E43AFAE475F00A120006B0D4
:1023230090001719E0FBA3E0FAA3E02415F9E43ABF
:10233300FAE41200055690001719E0FBA3E0FAA394
:10234300E0F9C003C002C001A3E0FBA3E0FAA3E0ED
:102353002412F9E43AFA120008D189828A838B9312
:10236300D001D002D003120009ACEF700C7F03FE42
:102373001200F08250917FA02290001719E0FBA376
:10238300E0FAA3E0240FF9E43AFAE475F02012002E
:1023930006B0C203C201E49000172DF0A3F0900031
:1023A3001719E0FBA3E0FAA3E02407F9E43AFA12D1
:1023B3000008D1E92403F9E43AFA12000524900055
:1023C300171FF090001719E0FBA3E0FAA3E024071E
:1023D300F9E43AFA120008D1E92404F9E43AFA12CA
:1023E30000052490001721F07B817A1C79057D0379
:1023F3007F011200DFC89000171FE0120009423D61
:1024030086553F27562C78A139F4B12FA0B23299C3
:10241300B43CA8B640ACB725AAC227D7C3272CC45F
:10242300242AC50000418E90001719E0FBA3E0FAAF
:10243300A3E02407F9E43AFA120008D1E92404F9E5
:10244300E43AFA1200052490001721F020E003017A
:102453002511E4FFFEFDFC900017357410F0A37402
:1024630001F090001719E0FBA3E0FAA3E0240AF9B6
:10247300E43AFA120008D190001737EBF0A3EAF020
:10248300A3E9F01200D65890001720EFF060030183
:10249300417390001719E0FBA3E0FAA3E0240AF9C3
:1024A300E43AFA120008D1C003C002C00190001739
:1024B30019E0FBA3E0FAA3E02407F9E43AFA1200D7
:1024C30008D1E92406F9E43AA801FCAD03D001D010
:1024D30002D0037E007F0412000B0F9000172EE042
:1024E3002404F09000172DE03400F090001719E059
:1024F300FBA3E0FAA3E0240AF9E43AFA120008D1B4
:10250300781E7C0C7D017E007F0412000B0F90006F
:102513001721E020E103012F9B1200F55D900017C6
:1025230019E0FBA3E0FAA3E0240AF9E43AFA120063
:1025330008D112006AB8EF64016003012B339000E5
:102543001719E0FBA3E0FAA3E0240AF9E43AFA122C
:102553000008D1C003C002C00190001719E0FBA31B
:10256300E0FAA3E02407F9E43AFA120008D1E924D7
:1025730006F9E43AFA9000172DE0FEA3E029F9EA00
:102583003EA801FCAD03D001D002D0037E007F073B
:1025930012000B0F9000172EE02407F09000172D68
:1025A300E03400F0012F9B90001719E0FBA3E0FA41
:1025B300A3E02407F9E43AFA120008D1E92404F964
:1025C300E43AFA12000524B4992490001719E0FBA9
:1025D300A3E0FAA3E02407F9E43AFA120008D1E9E8
:1025E3002405F9E43AFA1200052464086003014063
:1025F3003B90001719E0FBA3E0FAA3E02407F9E4FA
:102603003AFA120008D1E92406F9E43AFA781E7C72
:102613000C7D017E007F0412000A7CEF6003014001
:102623003B90001719E0FBA3E0FAA3E02407F9E4C9
:102633003AFA120008D1E9240AF9E43AFAC003C0CD
:1026430002C00190001719E0FBA3E0FAA3E0240AFB
:10265300F9E43AFA120008D1A801AC02AD03D001A3
:10266300D002D0037E007F0412000B0F90001719D5
:10267300E0FBA3E0FAA3E0240AF9E43AFA12000823
:10268300D1C003C002C00190001719E0FBA3E0FA18
:10269300A3E0240AF9E43AFA120008D1E92404F980
:1026A300E43AFA900017CBEBF0A3EAF0A3E9F0D0F9
:1026B30001D002D0037D047C001200EB3DE4FFFE59
:1026C300FDFC900017CA7408F090001719E0FBA3F3
:1026D300E0FAA3E0240AF9E43AFA120008D19000E0
:1026E30017CBEBF0A3EAF0A3E9F012006E499000D8
:1026F3001720EFF06401600301417390001719E0A4
:10270300FBA3E0FAA3E0240AF9E43AFA120008D1A1
:10271300781E7C0C7D017E007F0412000B0F7B81F1
:102723007A1C79107D010127C490001719E0FBA3DF
:10273300E0FAA3E02407F9E43AFA120008D1E92405
:1027430003F9E43AFAC003C002C00190001719E08C
:10275300FBA3E0FAA3E0240AF9E43AFA120008D151
:10276300A801AC02AD03D001D002D0037E007F0CE0
:1027730012000B0F1200B53840187B817A1C791FA9
:102783007D037F011200DFC89000172074A1F001C0
:1027930041AA1200F55D90001719E0FBA3E0FAA32C
:1027A300E02407F9E43AFA120008D1E92406F9E42F
:1027B3003AFA12007B8AEF60117B817A1C792C7DB7
:1027C300037F011200DFC80132909000172074FFCD
:1027D300F00141AA1200B5384003013D8C90001767
:1027E30021E0FF64016008EF6402600301403B9055
:1027F300001719E0FBA3E0FAA3E02407F9E43AFA8F
:10280300120008D1E92405F9E43AFA1200052490EC
:10281300001721F06008E06401600301403B900071
:102823001719E0FBA3E0FAA3E02407F9E43AFA124C
:102833000008D1E92406F9E43AFA12000524FF7EE0
:10284300009000172DEEF0A3EFF0640E6003013A41
:1028530046E47F40FEFDFC900017AE7418F0900034
:102863001719E0FBA3E0FAA3E0240AF9E43AFA1209
:102873000008D1900017AFEBF0A3EAF0A3E9F01240
:10288300007E6A90001720EFF0640160030141733A
:10289300900017207401F0D20290001719E0FBA3F7
:1028A300E0FAA3E0240AF9E43AFA120008D1E92491
:1028B30016F9E43AFA1200052464556003012994D9
:1028C30090001719E0FBA3E0FAA3E0240AF9E43A25
:1028D300FA120008D1E92417F9E43AFA12000524A0
:1028E30064AA600301299490001719E0FBA3E0FA9E
:1028F300A3E02407F9E43AFA120008D1E9240CF919
:10290300E43AFAC003C002C00190001719E0FBA328
:10291300E0FAA3E0240AF9E43AFA120008D1E92420
:1029230006F9E43AA801FCAD03D001D002D0037E3E
:10293300007F0812000A7CEF7002C2029000171990
:10294300E0FBA3E0FAA3E02407F9E43AFA12000853
:10295300D1E92406F9E43AFAC003C002C0019000A9
:102963001719E0FBA3E0FAA3E0240AF9E43AFA1208
:102973000008D1A801AC02AD03D001D002D0037E80
:10298300007F0612000A7CC3EF648094804002C279
:1029930002200203012AF190001719E0FBA3E0FAD9
:1029A300A3E02407F9E43AFA120008D1E92407F96D
:1029B300E43AFAC003C002C00190001719E0FBA378
:1029C300E0FAA3E0240AF9E43AFA120008D1A801D4
:1029D300AC02AD03D001D002D0037E007F0E120003
:1029E3000B0F90001719E0FBA3E0FAA3E0240AF908
:1029F300E43AFA120008D1E92406F9E43AFAC003EA
:102A0300C002C00190001719E0FBA3E0FAA3E02481
:102A13000AF9E43AFA120008D1E9240EF9E43AA8D3
:102A230001FCAD03D001D002D0037E007F08120069
:102A33000B0F90001719E0FBA3E0FAA3E0240AF9B7
:102A4300E43AFA120008D1E92416F9E43AFA745583
:102A53001200055690001719E0FBA3E0FAA3E02447
:102A63000AF9E43AFA120008D1E92417F9E43AFA28
:102A730074AA12000556E47F40FEFDFC900017CABD
:102A83007418F090001719E0FBA3E0FAA3E0240AFE
:102A9300F9E43AFA120008D1900017CBEBF0A3EA5D
:102AA300F0A3E9F012006E49EF640160117B817AB3
:102AB3001C79391200EA84900017200141739000B9
:102AC3001719E0FBA3E0FAA3E0240AF9E43AFA12A7
:102AD3000008D1E92406F9E43AFA78167C0C7D0162
:102AE3007E007F0812000B0FE490001720F0900087
:102AF3001721E064016003012C6B7F10FEFDFC9045
:102B03000017AE741AF090001719E0FBA3E0FAA3C4
:102B1300E0240AF9E43AFA120008D1900017AFEB67
:102B2300F0A3EAF0A3E9F012007E6AEF6401600704
:102B33009000172001417390001719E0FBA3E0FAFE
:102B4300A3E0240AF9E43AFA120008D1C003C00250
:102B5300C00190001719E0FBA3E0FAA3E0240AF9EF
:102B6300E43AFA120008D1E92406F9E43AA801FC90
:102B7300AD03D001D002D0037E007F0612000B0FFD
:102B83007E007F077D0090001719E0FBA3E0FAA306
:102B9300E0240AF9E43AFA120008D1E92410F9E42E
:102BA3003AFA120009B390001719E0FBA3E0FAA365
:102BB300E0240AF9E43AFA120008D17D187C0012E5
:102BC30000E3E99000172BEEF0A3EFF09000171944
:102BD300E0FBA3E0FAA3E02407F9E43AFA120008C1
:102BE300D1E92418F9E43AFA1200F30DE47F10FE58
:102BF300FDFC900017CA741AF090001719E0FBA3AC
:102C0300E0FAA3E0240AF9E43AFA120008D19000AA
:102C130017CBEBF0A3EAF0A3E9F012006E49EF64DF
:102C230001600790001720014173E47FA0FEFDFCC3
:102C3300900017CA741AF090001719E0FBA3E0FA8A
:102C4300A3E0240AF9E43AFA120008D1900017CB62
:102C5300EBF0A3EAF0A3E9F012006E49EF64016020
:102C63000790001720014173E49000172DF0A3F0A3
:102C7300D2010141AAC2027B017A0E795DC003C071
:102C830002C00190001719E0FBA3E0FAA3E02416A9
:102C9300F9E43AFA120008EE90001719E0FBA3E0FA
:102CA300FAA3E02419F9E43AFA740475F000120067
:102CB30006B090001719E0FBA3E0FAA3E02407F99C
:102CC300E43AFA120008D1E92404F9E43AFA1200CA
:102CD3000524FF7E009000172DEEF0A3EFF0900087
:102CE30017197062E0FBA3E0FAA3E02407F9E43AC2
:102CF300FA120008D1E92405F9E43AFA120005248E
:102D0300FF9000172DEEF0A3EFF0D20290001719F9
:102D1300E0FBA3E0FAA3E02407F9E43AFA1200087F
:102D2300D1E92407F9E43AFA1200DD4490001722AE
:102D3300120008999000172EE02400FF9000172D31
:102D4300E03401FE802DE0FBA3E0FAA3E02407F9C1
:102D5300E43AFA120008D1E92406F9E43AFA120037
:102D6300DD4490001722120008999000172DE0FE11
:102D7300A3E0FF90001719E0FBA3E0FAA3E02419F6
:102D8300F9E43AFAEE8FF0120006B0E4FFFE7D0894
:102D9300FC90001722E0F8A3E0F9A3E0FAA3E0FB1C
:102DA300C31200080D504090001719E0FBA3E0FA8E
:102DB300A3E02419F9E43AFA12000636FFE4FCFD15
:102DC30090001722E0F8A3E0F9A3E0FAA3E02FFFB5
:102DD300EA35F0FEED39FDEC38FCE4FBFA7908F84E
:102DE300D31200080D500301403B90001722A3A308
:102DF300A3E0540FFFE4FEFDFCFBFAF9F8C3120055
:102E0300080D6003013A4690001719E0FBA3E0FAAE
:102E1300A3E02419F9E43AFA12000636FBAAF0D328
:102E23009438EA9400506890001722E0FCA3E0FD78
:102E3300A3E0FEA3E0FF900017AEEBF0900017199C
:102E4300E0FBA3E0FAA3E02407F9E43AFA1200084E
:102E5300D1E92406F9E43AFA900017AFEBF0A3EABC
:102E6300F0A3E9F012007E6AEF6401600790001797
:102E730020014173C20390001719E0FBA3E0FAA3FA
:102E8300E02415F9E43AFAE412000556012F7B9089
:102E9300001719E0FBA3E0FAA3E02415F9E43AFADA
:102EA300740112000556D203E49000172BF0A3F02F
:102EB30090001719E0FBA3E0FAA3E02419F9E43A20
:102EC300FA12000636FFAEF09000172BE0FCA3E0E9
:102ED300FDC39FEC9E4003012F7BC3EF9DFFEE9C40
:102EE300FEC3EF9440EE940040047F4080009000C6
:102EF300172AEFF0A3E0FEA3E0FFE4FCFD90001728
:102F030022E0F8A3E0F9A3E0FAA3E02FFFEA3EFEF4
:102F1300ED39FDEC38FC9000172AE0900017AEF075
:102F230090001719E0FBA3E0FAA3E02416F9E43AB2
:102F3300FA120008D19000172BE0F8A3E029F9EA70
:102F430038FA900017AFEBF0A3EAF0A3E9F0120010
:102F53007E6AEF640160099000172074B1F0801855
:102F63009000172AE0FF9000172CE02FF090001735
:102F73002BE03400F0012EB390001719E0FBA3E01F
:102F8300FAA3E02419F9E43AFA12000636FF900096
:102F9300172DE5F0F0A3EFF0D2010132901200B546
:102FA300384003013D8CE47F60FEFDFC900017AECA
:102FB3007420F090001719E0FBA3E0FAA3E0240AC1
:102FC300F9E43AFA120008D1900017AFEBF0A3EA44
:102FD300F0A3E9F012007E6AEF6401600790001726
:102FE3002001417390001721E0705690001719E0FB
:102FF300FBA3E0FAA3E02407F9E43AFA120008D1AC
:10300300E92406F9E43AFAC003C002C001900017AC
:1030130019E0FBA3E0FAA3E0240AF9E43AFA120068
:1030230008D1A801AC02AD03D001D002D0037E00C9
:103033007F0612000A7CC3EF64809480400301334F
:103043001F90001719E0FBA3E0FAA3E02407F9E4BB
:103053003AFA120008D1E9240CF9E43AFA1200DD35
:103063004490001722120008997FA07E867D017C80
:103073000090001722E0F8A3E0F9A3E0FAA3E0FB35
:10308300D31200080D4003013A4690001719E0FBE4
:10309300A3E0FAA3E02407F9E43AFA120008D1E91D
:1030A300240FF9E43AFA12000524D3946040030193
:1030B3003A4690001719E0FBA3E0FAA3E02407F9CE
:1030C300E43AFA120008D1E92410F9E43AFA1200BA
:1030D300F5179000172BEEF0A3EFF0E4FCFD7B4017
:1030E3007A7E7905F8C3120007F740109000172C79
:1030F300E0943C9000172BE094005003013A467E85
:10310300007F207DFF90001719E0FBA3E0FAA3E006
:10311300240AF9E43AFA120008D1120009B3900024
:103123001719E0FBA3E0FAA3E02407F9E43AFA1243
:103133000008D1E92406F9E43AFAC003C002C00149
:1031430090001719E0FBA3E0FAA3E0240AF9E43A9C
:10315300FA120008D1A801AC02AD03D001D002D00D
:10316300037E007F0C12000B0F90001719E0FBA3E6
:10317300E0FAA3E0240AF9E43AFA120008D17D1E2A
:103183007C001200E3E99000172BEEF0A3EFF09020
:10319300001719E0FBA3E0FAA3E0240AF9E43AFAE2
:1031A300120008D1E9241EF9E43AFA1200F30DE4FF
:1031B3007F60FEFDFC900017CA7420F09000171981
:1031C300E0FBA3E0FAA3E0240AF9E43AFA120008C8
:1031D300D1900017CBEBF0A3EAF0A3E9F012006E55
:1031E30049EF6401600790001720014173900017B5
:1031F30019E0FBA3E0FAA3E02407F9E43AFA12008A
:1032030008D1E92406F9E43AFA78307C0C7D017E92
:10321300007F0612000B0F90001719E0FBA3E0FAE2
:10322300A3E02407F9E43AFA120008D1E9240CF9DF
:10323300E43AFA1200DD4490000C3612000899902B
:10324300001719E0FBA3E0FAA3E02407F9E43AFA34
:10325300120008D1E9240FF9E43AFA120005249088
:10326300000C3CF090001719E0FBA3E0FAA3E02464
:1032730007F9E43AFA120008D1E92410F9E43AFA1A
:103283001200F51790000C3AEEF0A3EFF0E4900073
:103293001720F00141AA1200B53840199000171900
:1032A300E0FBA3E0FAA3E02415F9E43AFAE4120000
:1032B30005560140B290001719E0FBA3E0FAA3E022
:1032C3002415F9E43AFAE4120005567F807E0D7D59
:1032D30003FC900017221200089990001721E06464
:1032E30099604390000C49E0603C90001719E0FBA3
:1032F300A3E0FAA3E02407F9E43AFA120008D1E9BB
:103303002407F9E43AFA784A7C0C7D017E007F06B3
:1033130012000A7CC3EF64809480400A9000172057
:103323007401F00141AA9000172F7402F0A3E4F096
:1033330090001719E0FBA3E0FAA3E02407F9E43AAD
:10334300FA120008D1E92405F9E43AFA1200052437
:1033530090001721F0640160030134D09000171925
:10336300E0FBA3E0FAA3E02407F9E43AFA12000829
:10337300D1E92406F9E43AFAC003C002C00190007F
:103383001719E0FBA3E0FAA3E02416F9E43AFA12D2
:103393000008D19000172FE0FEA3E029F9EA3EA828
:1033A30001FCAD03D001D002D0037E007F061200E2
:1033B3000B0F90001730E02406F09000172FE03435
:1033C30000F090001719E0FBA3E0FAA3E02416F93C
:1033D300E43AFA120008D19000172FE475F00112B5
:1033E300000620FEE925F0F9EA3EFA7455120005BD
:1033F3005690001719E0FBA3E0FAA3E02416F9E4C2
:103403003AFA120008D19000172FE475F001120068
:103413000620FEE925F0F9EA3EFA74AA12000556E1
:1034230090001719E0FBA3E0FAA3E02407F9E43ABC
:10343300FA120008D1E9240CF9E43AFAC003C002F5
:10344300C00190001719E0FBA3E0FAA3E02416F9EA
:10345300E43AFA120008D19000172FE0FEA3E02906
:10346300F9EA3EA801FCAD03D001D002D0037E00EF
:103473007F2012000B0F90001730E02420F0900003
:10348300172FE03400F090001719E0FBA3E0FAA334
:10349300E02416F9E43AFA120008D19000172FE05D
:1034A300FEA3E029F9EA3EA801FCAD037B017A0CF7
:1034B30079707E017F0012000B0F90001730E0241B
:1034C30000F09000172FE03401F00137EE90001761
:1034D30021E0640260030136AC90001719E0FBA3FE
:1034E300E0FAA3E02407F9E43AFA120008D1E92448
:1034F30007F9E43AFAC003C002C00190001719E0CB
:10350300FBA3E0FAA3E02416F9E43AFA120008D187
:103513009000172FE0FEA3E029F9EA3EA801FCADD5
:1035230003D001D002D0037E007F0612000B0F9060
:10353300001730E02406F09000172FE03400F090DD
:10354300001719E0FBA3E0FAA3E02416F9E43AFA22
:10355300120008D19000172FE475F0011200062025
:10356300FEE925F0F9EA3EFA74551200055690007B
:103573001719E0FBA3E0FAA3E02416F9E43AFA12E0
:103583000008D19000172FE475F00112000620FE09
:10359300E925F0F9EA3EFA74AA12000556900017DD
:1035A30019E0FBA3E0FAA3E02416F9E43AFA1200C7
:1035B30008D19000172FE0FEA3E029F9EA3EA80105
:1035C300FCAD037B017A0C79507E007F2012000B47
:1035D3000F90001730E02420F09000172FE0340004
:1035E300F090001719E0FBA3E0FAA3E02407F9E445
:1035F3003AFA120008D1E9240DF9E43AFAC003C0FB
:1036030002C00190001719E0FBA3E0FAA3E024161F
:10361300F9E43AFA120008D19000172FE0FEA3E074
:1036230029F9EA3EA801FCAD03D001D002D0037E04
:10363300007F3312000B0F90001730E02433F0901B
:1036430000172FE03400F090001719E0FBA3E0FA15
:10365300A3E02416F9E43AFA120008D1C003C00229
:10366300C00190001719E0FBA3E0FAA3E02416F9C8
:10367300E43AFA120008D19000172FE0FEA3E029E4
:10368300F9EA3EA801FCAD03D001D002D0037E00CD
:103693007FCD12000B0F90001730E024CDF0900087
:1036A300172FE03400F00137EE90001721E0640398
:1036B30060030137EB90001719E0FBA3E0FAA3E0E6
:1036C3002416F9E43AFA120008D1E92404F9E43A99
:1036D300FAC003C002C00190001719E0FBA3E0FA8F
:1036E300A3E02416F9E43AFA120008D19000172F48
:1036F300E0FEA3E029F9EA3EA801FCAD03D001D026
:1037030002D0037E007F0612000B0F90001730E0FB
:103713002406F09000172FE03400F090001719E012
:10372300FBA3E0FAA3E02416F9E43AFA120008D165
:103733009000172FE475F00112000620FEE925F032
:10374300F9EA3EFA74551200055690001719E0FB8A
:10375300A3E0FAA3E02416F9E43AFA120008D190A0
:1037630000172FE475F00112000620FEE925F0F999
:10377300EA3EFA74AA1200055690001719E0FBA35B
:10378300E0FAA3E02416F9E43AFA120008D1E92496
:103793000AF9E43AFAC003C002C00190001719E025
:1037A300FBA3E0FAA3E02416F9E43AFA120008D1E5
:1037B3009000172FE0FEA3E029F9EA3EA801FCAD33
:1037C30003D001D002D0037E017F2012000B0F90A3
:1037D300001730E02420F09000172FE03401F09020
:1037E300000C497401F0800301403B9000172D74D5
:1037F30001F0A37428F090001719E0FBA3E0FAA3EB
:10380300E02416F9E43AFA120008D1E429F9EA347B
:1038130002FA7D287C011200E3E99000172BEEF0F9
:10382300A3EFF090001719E0FBA3E0FAA3E024163E
:10383300F9E43AFA120008D1E429F9EA3402FA90D9
:1038430000172DE0FCA3E029F9EA3CFA1200F30D7E
:103853009000172EE02402F09000172DE03400F0C2
:10386300E49000172BF0A3F09000172DE0FEA3E0E7
:10387300FF9000172BE0FCA3E0FDC39FEC9E4003E9
:1038830001392EC39000172EE09DFF9000172DE005
:103893009CFEC3EF9440EE940040047F4080009070
:1038A30000172AEFF0A3E0FEA3E0FFE4FCFD900085
:1038B3001722E0F8A3E0F9A3E0FAA3E02FFFEA3E22
:1038C300FEED39FDEC38FC9000172AE0900017CA92
:1038D300F090001719E0FBA3E0FAA3E02416F9E443
:1038E3003AFA120008D1E429F9EA3402FA900017EF
:1038F3002BE0F8A3E029F9EA38FA900017CBEBF0B4
:10390300A3EAF0A3E9F012006E49EF6401600990A5
:1039130000172074B1F080139000172CE02440F0BE
:103923009000172BE03400F001386B9000172F74D0
:1039330002F0A3E4F090001719E0FBA3E0FAA3E080
:103943002416F9E43AFA120008D1E429F9EA340218
:10395300FA784A7C0C7D017E007F0612000B0F90E3
:10396300001730E02408F09000172FE03400F090A7
:10397300001719E0FBA3E0FAA3E02416F9E43AFAEE
:10398300120008D19000172FE0FEA3E029F9EA3EC8
:10399300FA78507C0C7D017E007F2012000B0F9083
:1039A300001730E02420F09000172FE03400F0904F
:1039B300001719E0FBA3E0FAA3E02416F9E43AFAAE
:1039C300120008D19000172FE0FEA3E029F9EA3E88
:1039D300FA78707C0C7D017E017F0012000B0FE4EE
:1039E3009000172DF0A3F090001720F0C2010141C1
:1039F300AA90001721E0B4552490001719E0FBA307
:103A0300E0FAA3E02407F9E43AFA120008D1E92422
:103A130005F9E43AFA1200052464AA6002802490AE
:103A2300001719E0FBA3E0FAA3E02407F9E43AFA4C
:103A3300120008D1E92406F9E43AFA1200052464D5
:103A430006600A9000172074A4F00141AA7E007F4B
:103A5300027D0090001719E0FBA3E0FAA3E0240A1B
:103A6300F9E43AFA120008D1120009B37FC07E0EBE
:103A73007D037C0090001719E0FBA3E0FAA3E02488
:103A83000AF9E43AFA120008D11200E86790001725
:103A930019E0FBA3E0FAA3E0240AF9E43AFA1200DE
:103AA30008D1C003C002C00190001719E0FBA3E0D6
:103AB300FAA3E0240AF9E43AFA120008D1E924034C
:103AC300F9E43AFA900017CBEBF0A3EAF0A3E9F09C
:103AD300D001D002D0037D037C001200EB3DE4FF54
:103AE300FEFDFC90001719E0FBA3E0FAA3E0240A13
:103AF300F9E43AFA120008D1E92406F9E43AFA1291
:103B030000E86790001719E0FBA3E0FAA3E0240A9A
:103B1300F9E43AFA120008D1E92406F9E43AFAC0C2
:103B230003C002C00190001719E0FBA3E0FAA3E071
:103B3300240AF9E43AFA120008D1E92409F9E43A2B
:103B4300FA900017CBEBF0A3EAF0A3E9F0D001D091
:103B530002D0037D037C001200EB3DE4FFFEFDFC7D
:103B630090001719E0FBA3E0FAA3E0240AF9E43A72
:103B7300FA120008D1E9240CF9E43AFA1200E065DC
:103B830090001719E0FBA3E0FAA3E0240AF9E43A52
:103B9300FA120008D1E92417F9E43AFA74FF120083
:103BA300055690001719E0FBA3E0FAA3E0240AF9F5
:103BB300E43AFA120008D17D187C001200E3E99080
:103BC30000172BEEF0A3EFF090001719E0FBA3E032
:103BD300FAA3E0240AF9E43AFA120008D1E9241816
:103BE300F9E43AFA1200F30DE47F10FEFDFC9000B5
:103BF30017CA741AF090001719E0FBA3E0FAA3E0C8
:103C0300240AF9E43AFA120008D1900017CBEBF03A
:103C1300A3EAF0A3E9F012006E49EF640160079094
:103C2300001720014173E47FA0FEFDFC900017CA3A
:103C3300741AF090001719E0FBA3E0FAA3E0240A3A
:103C4300F9E43AFA120008D1900017CBEBF0A3EA9B
:103C5300F0A3E9F012006E49EF64016007900017CA
:103C630020014173E4FFFEFDFC90000C27120008C5
:103C7300997FC07E0E7D037C0090000C2312000808
:103C830099E4FFFEFDFC90000C411200089990009E
:103C93000C2274FFF0E4FFFEFDFC90000C2B1200DD
:103CA3000899013D7D90001719E0FBA3E0FAA3E01A
:103CB3002407F9E43AFA120008D1E92405F9E43AB1
:103CC300FA12000524FF7E009000172DEEF0A3EFFB
:103CD300F0D39410EE9400400301403B9000171979
:103CE300E0FBA3E0FAA3E02407F9E43AFA120008A0
:103CF300D19000172EE02406FF9000172DE034002A
:103D0300FEE92FF9EA3EFAE4120005567FD0FEFDE4
:103D1300FC900017CA7410F090001719E0FBA3E0A1
:103D2300FAA3E02407F9E43AFA120008D1E92406D9
:103D3300F9E43AFA900017CBEBF0A3EAF0A3E9F029
:103D430012006E49EF640160079000172001417370
:103D530090001719E0FBA3E0FAA3E02407F9E43A83
:103D6300FA120008D1E92406F9E43AFA78B77C0D8F
:103D73007D017E007F1012000B0FE490001720F0EE
:103D83000141851200B53840030140B2E4FFFEFD56
:103D9300FC900017221200089990001721E0704749
:103DA3001200C252EF4E700A90001720745DF001AA
:103DB30041AAE4FFFEFDFC90000C27E0F8A3E0F924
:103DC300A3E0FAA3E0FBC31200080D70097FC07ED5
:103DD3000E7D03FC807C90000C27E0FCA3E0FDA398
:103DE300E0FEA3E0FF806B90001721E06401706C9C
:103DF30090001719E0FBA3E0FAA3E02407F9E43AE3
:103E0300FA120008D1E92405F9E43AFA120005246C
:103E13006404600301403B90001719E0FBA3E0FA40
:103E2300A3E02407F9E43AFA120008D1E92406F9D9
:103E3300E43AFA1200CAE19000172612000899909A
:103E4300001726E0FCA3E0FDA3E0FEA3E0FF1200C1
:103E53009EA59000172212000899800301403BE4BD
:103E6300FFFEFDFC90001722E0F8A3E0F9A3E0FABF
:103E7300A3E0FBC31200080D60197FC07E0E7D0313
:103E83007C0090001722E0F8A3A3A3E0C31200086C
:103E93000D500301403B90001722E0FCA3E0FDA37B
:103EA300E0FEA3E0FF900017AE7440F090001719F6
:103EB300E0FBA3E0FAA3E02416F9E43AFA120008BF
:103EC300D1900017AFEBF0A3EAF0A3E9F012007E64
:103ED3006AEF640160079000172001417390001797
:103EE30019E0FBA3E0FAA3E02415F9E43AFA74011C
:103EF3001200055690001719E0FBA3E0FAA3E02493
:103F030019F9E43AFAE475F040120006B09000178C
:103F13002DE4F0A37440F0E490001720F0D201D216
:103F2300030141AA90001721E06401600301403BB3
:103F330090001719E0FBA3E0FAA3E02407F9E43AA1
:103F4300FA120008D1E92405F9E43AFA120005242B
:103F53006404600301403B90001719E0FBA3E0FAFF
:103F6300A3E02407F9E43AFA120008D1E92406F998
:103F7300E43AFA1200CAE190001726120008999059
:103F8300001726E0FCA3E0FDA3E0FEA3E0FF120080
:103F93009EA59000172212000899E4FFFEFDFC90F5
:103FA300001722E0F8A3E0F9A3E0FAA3E0FBC312B1
:103FB30000080D60197FC07E0E7D037C0090001702
:103FC30022E0F8A3A3A3E0C31200080D5002806807
:103FD30090001722E0FCA3E0FDA3E0FEA3E0FF9026
:103FE300000C27E0F8A3E0F9A3E0FAA3E0FBC31277
:103FF30000080D600301409290001722E0FCA3E04B
:10400300FDA3E0FEA3E0FF900017AE7440F0900024
:104013001719E0FBA3E0FAA3E02416F9E43AFA1235
:104023000008D1900017AFEBF0A3EAF0A3E9F01278
:10403300007E6AEF6401600A90001720745CF0014F
:1040430041AA90001719E0FBA3E0FAA3E02416F9B4
:10405300E43AFA120008D1E92405F9E43AFA120025
:10406300CAE1900017221200089990001726E0FC7D
:10407300A3E0FDA3E0FEA3E0FF90001722E0F8A376
:10408300E0F9A3E0FAA3E0FBC31200080D600A9075
:10409300001720745EF00141AA1200838690001776
:1040A30020EFF0D201E40141851200B538400A90B7
:1040B30000172074A5F00141AA1200F55D900017C6
:1040C30019E0FBA3E0FAA3E0240AF9E43AFA1200A8
:1040D30008D112006AB890001719E0FBA3E0FAA315
:1040E300E0240AF9E43AFA120008D1E92401F9E4D8
:1040F3003AFAC003C002C00190001719E0FBA3E025
:10410300FAA3E0240AF9E43AFA120008D1E92404F4
:10411300F9E43AFA900017CBEBF0A3EAF0A3E9F045
:10412300D001D002D0037D037C001200EB3DE47F7D
:1041330080FEFDFC900017CA7406F090001719E08A
:10414300FBA3E0FAA3E0240AF9E43AFA120008D147
:10415300E92401F9E43AFA900017CBEBF0A3EAF073
:10416300A3E9F012006E49EF640160099000172083
:1041730074B1F08032E490000C3DF090001720F011
:10418300C2019000172DF0A3F0801C7B817A1C796B
:104193004B9000171FE0FF900017ADE4F0A3EFF082
:1041A3001200EA847FA3229000171FE0FF900017FC
:1041B30019E0FBA3E0FAA3E02407F9E43AFA1200BA
:1041C30008D1E92403F9E43AFAEF12000556900006
:1041D3001720E0FF90001719E0FBA3E0FAA3E02407
:1041E30007F9E43AFA120008D1E92404F9E43AFAA7
:1041F300EF1200055620035B90001719E0FBA3E0C4
:10420300FAA3E02407F9E43AFA120008D190001760
:104213002DA3E0FDA20192041200A7279000172A04
:10422300EFF090001719E0FBA3E0FAA3E0240DF9E7
:10423300E43AFAE4F5F0120006B090001719E0FB37
:10424300A3E0FAA3E0F9C003C002C001EFFD7C00C4
:10425300A3803E90001719E0FBA3E0FAA3E0F990D6
:1042630000172DE0FCA3E0FDA201920412008CD8FC
:10427300504090001719E0FBA3E0FAA3E0F9C00354
:10428300C002C0019000172DE0FCA3E0FD900017D1
:104293001CE0FBA3E0FAA3E02406F9E43AFA1200D7
:1042A30008D189828A838B93D001D002D003120074
:1042B30009AC7B817A1C79607D0A7F011200DFC81B
:1042C3007B817A1C796B7D017F011200DFC87F013E
:1042D3007E001200F4EB01230A900017CEEFF0A347
:1042E300EDF0A3EBF0A3EAF0A3E9F0E4900017D418
:1042F300F0A3F0900017D7F0900017DEF0A3F0A31F
:10430300F0A304F0A3F0E4A3F0A3F0A3F0A3F0A3BD
:10431300F0F514F513F512F5111200F4B19000172E
:10432300D0E0FBA3E0FAA3E0F9120021FE9000170E
:10433300D6EFF0900017D3E06009900017E874FF00
:10434300F08006E4900017E8F0900017CEE025E037
:10435300900017D5F0A3E0F9FD900017CFE0FE2DF4
:10436300FDE433FCC3ED9410EC64809480400301BE
:10437300445EEEC394084042E4900017DEF09000E0
:1043830017CFE09408900017DFF0E4900017D8F0FF
:10439300900017DAE9F0E0FFC313FEA3F0E4900006
:1043A30017D9F0900017E7EEF0EF5401900017DDF6
:1043B300F0E4900017DCF001450D900017CFE0FF0B
:1043C300900017DEF0900017D6E0FEFDEF2DFDE420
:1043D30033FCC3ED9408EC6480948050099000177B
:1043E300D8EEF0E48017900017CFE0FFC374089F66
:1043F300FF900017D8F0900017D6E0C39F900017E6
:10440300DAF0E4900017DFF0900017D8E0FFC31351
:10441300A3F0900017E6F0EF5401900017DCF09042
:104423000017DAE0FFC313A3F0900017E7F0EF548F
:1044330001900017DDF0700301450D900017DCE0DB
:10444300700301450D900017DFE004F0900017DBC7
:10445300E004F0E0900017E7014505900017CFE076
:10446300C394084042E4900017DCF0900017CFE0BB
:10447300FF74109F900017DAF0E4900017D8F0A3B0
:10448300F0900017DEF0C3EF9408A3F0900017DA62
:10449300E0FFC313A3F0900017E7F0EF540190007F
:1044A30017DDF06065805C900017CFE0FFC37408F0
:1044B3009F900017D8F0900017DA7408F090001757
:1044C300DEEFF0E4A3F0900017D8E0FFC313A3F0EE
:1044D300900017E6F0EF5401FF900017DCF0900016
:1044E30017DAE0FEC313A3F0900017E7F074085443
:1044F30001900017DDF0EF60117401F0900017DFF9
:10450300E004F0900017E37401F0E4900017D7F093
:10451300900017D6E0FFA3E0C39F40030149E412D4
:1045230000221EE4900017E0F0900017D7E0FD9002
:1045330000180F7401F0A37418F0A37409F090002D
:1045430017D0E0FBA3E0FAA3E0F91200D595EF64DE
:104553000260030149DA90001809E0FEA3E0FF12AC
:1045630000E2C68F148E138D128C117F407E047D62
:10457300047C00AB14AA13A912A811C31200080DDE
:10458300505BE4F51575BE01E42514FBE43513FA1D
:10459300E5123430F9E43511F8E4FCFDFEEB2515A2
:1045A300FFEE3AFEED39FDEC38FCE42FFFE43EFE6E
:1045B300ED3401FDA907AA06AB0512000524F51683
:1045C300E4F5BE74E92515F582E43417F583759394
:1045D30000E516F00515E515B420AA80107E007FCE
:1045E300207DFF7B017A1779E9120009B390001748
:1045F300D9E0D39400500301471F900017E6E0FF72
:10460300900017E4E09F400301471F900017D5E097
:1046130044B8FB7D01E4FF12001F7D900017E1E029
:10462300600B900017DEE075F008A480139000176C
:10463300E4E0C454F0FF900017DEE075F008A42F07
:104643004440FB7D01E4FF12001F7DE4900017D47A
:10465300F0900017D4E0FFC39410502874E92FF5AD
:1046630082E43417F583759300E0FF900017E8E0C8
:10467300FEEF6EFBE4FDFF12001F7D900017D4E0F8
:1046830004F080CD900017D5E00444B8FB7D01E42D
:10469300FF12001F7D900017E1E0600B900017DE12
:1046A300E075F008A48013900017E4E0C454F0FF11
:1046B300900017DEE075F008A42F4440FB7D01E471
:1046C300FF12001F7D900017D47410F0900017D4D0
:1046D300E0FFC39420502874E92FF582E43417F5E2
:1046E30083759300E0FF900017E8E0FEEF6EFBE4B4
:1046F300FDFF12001F7D900017D4E004F080CDE48D
:10470300900017E1F0900017D9E014F0E0700690E4
:104713000017E004F0900017E4E004F0900017D9CC
:10472300E060030149DA900017DBE0D39400500303
:104733000149DA900017E0E0640170030149DA905F
:104743000017E7E0FF900017E5E09F40030149DA17
:10475300900017DDE070030148BD900017DCE070A6
:10476300030148BD900017D5E044B8FB7D01E4FF89
:1047730012001F7D7B787D01E4FF12001F7DE49012
:104783000017D4F0900017D4E0FFC39408502874A6
:10479300E92FF582E43417F583759300E0FF900069
:1047A30017E8E0FEEF6EFBE4FDFF12001F7D9000B3
:1047B30017D4E004F080CD900017D5E00444B8FB93
:1047C3007D01E4FF12001F7D7B787D01E4FF120071
:1047D3001F7D900017D47410F0900017D4E0FFC32E
:1047E3009418502874E92FF582E43417F5837593F0
:1047F30000E0FF900017E8E0FEEF6EFBE4FDFF1220
:10480300001F7D900017D4E004F080CD900017D5F1
:10481300E044B8FB7D017F0112001F7D7B407D01D9
:104823007F0112001F7D900017D47408F0900017C9
:10483300D4E0FFC39410502974E92FF582E43417B0
:10484300F583759300E0FF900017E8E0FEEF6EFB41
:10485300E4FD7F0112001F7D900017D4E004F08077
:10486300CC900017D5E00444B8FB7D017F01120012
:104873001F7D7B407D017F0112001F7D900017D4B7
:104883007418F0900017D4E0FFC39420400301494B
:10489300C374E92FF582E43417F583759300E0FFC1
:1048A300900017E8E0FEEF6EFBE4FD7F0112001FAE
:1048B3007D900017D4E004F080C9900017D5E04440
:1048C300B8FB7D017F0112001F7D900017E2E060BD
:1048D3000FA3E0600B900017DFE075F008A48013CE
:1048E300900017E5E0C454F0FF900017DFE075F087
:1048F30008A42F4440FB7D017F0112001F7DE4903B
:104903000017D4F01200221E900017D4E024E9F51A
:1049130082E43417F583759300E0FF900017E8E015
:10492300FEEF6EFBE4FD7F0112001F7D900017D4A4
:10493300E004F0E0C3941040CB900017D5E00444AA
:10494300B8FB7D017F0112001F7D900017E2E0603C
:104953000FA3E0600B900017DFE075F008A480134D
:10496300900017E5E0C454F0FF900017DFE075F006
:1049730008A42F4440FB7D017F0112001F7D90009E
:1049830017D47410F0900017D4E0FFC3942050297B
:1049930074E92FF582E43417F583759300E0FF90F3
:1049A3000017E8E0FEEF6EFBE4FD7F0112001F7DC0
:1049B300900017D4E004F080CC900017E5E004F0F9
:1049C300E4900017DDF0900017DCF0900017E2F0A0
:1049D300900017DBE014F0900017D7E004F00145D6
:1049E30013E4FF0200F4B690001752EBF0A3EAF0D1
:1049F300A3E9F0900017A9741AF07E007F407D00B0
:104A03007B017A17795D120009B37E007F027D0076
:104A13007B017A17799D120009B3900017A77401DF
:104A2300F0E47F10FEFDFC900017A9E0900017AEA4
:104A3300F0A37401F0A37417F0A3745DF012007E69
:104A43006A7E0090001755EEF0A3EFF070097B81AA
:104A53007A1A79BC0150007B017A17795D900017AF
:104A6300A9E0C39402FD7C001200E3E9900017570C
:104A7300EEF0A3EFF07B017A17799D1200F30D7826
:104A83009D7C177D017B017A1779757E007F021269
:104A9300000A7CEF6003014B4E900017A6F09000D4
:104AA30017A6E0FF2460F582E43417F583759300BD
:104AB300E0F4FE745D2FF582E43417F583759300FB
:104AC300E0B50631900017A6E0FF2466F582E434D2
:104AD30017F583759300E0F4FE74632FF582E434D5
:104AE30017F583759300E0B5060B900017A6E00455
:104AF300F0E0B403A978777C0D7D017B017A177907
:104B03005D7E007F4012000B0FE4900017A7F0902A
:104B1300000C2FE070357FA0FEFDFC900017A9E08C
:104B2300900017CAF0A37401F0A37417F0A3745D87
:104B3300F012006E497E0090001755EEF0A3EFF0DF
:104B430070097B817A1A79C7015000900017A7E09A
:104B530064016003014C76FE7F40FD7B017A177987
:104B63005D120009B3E47FA0FEFDFC900017A9E0ED
:104B7300900017AEF0A37401F0A37417F0A3745D53
:104B8300F012007E6A7E0090001755EEF0A3EFF05E
:104B930070097B817A1A79D70150007E007F027DEC
:104BA300007B017A17799D120009B37B017A17798B
:104BB3005D7D187C001200E3E990001757EEF0A327
:104BC300EFF07B017A17799D1200F30D789D7C1726
:104BD3007D017B017A1779757E007F0212000A7CC2
:104BE300EF60087B817A1A79E68060E4900017A66B
:104BF300F0900017A6E0FF2460F582E43417F583F4
:104C0300759300E0F4FE745D2FF582E43417F583A9
:104C1300759300E06E60087B817A1A79F4802C909A
:104C23000017A6E0FF2466F582E43417F583759335
:104C330000E0F4FE74632FF582E43417F583759373
:104C430000E06E600D7B817A1A79F41200EA847FAA
:104C53005C22900017A6E004F0E0C394034092782E
:104C6300777C0D7D017B017A17795D7E007F401291
:104C7300000B0F7B017A1779691200CAE1900017C4
:104C830052E0FBA3E0FAA3E02405F9E43AFA1200A8
:104C930008611200084490000C2B120008997B0154
:104CA3007A17795D1200DD4490000C2312000899F5
:104CB3007B017A1779631200DD4490000C27120000
:104CC300089990001774E090000C22F0900017A848
:104CD300F01200F2DD500D7B817A1B79011200EA9C
:104CE300847F0D22E4FFFEFDFC90000C27E0F8A377
:104CF300E0F9A3E0FAA3E0FBC31200080D703E7FC6
:104D0300C07E0E7D03FC90000C27120008997FC023
:104D13007E0E7D037C007B017A1779631200E867BE
:104D2300900017CB7401F0A37417F0A37466F07BA3
:104D3300017A1779637D037C001200EB3D90000C30
:104D430023E0FCA3E0FDA3E0FEA3E02440FFE43E58
:104D5300FEE43DFDE43CFC9000175912000899E481
:104D6300FFFE7D08FC90001759E0F8A3E0F9A3E0EB
:104D7300FAA3E0FBC31200080D40167FC07E0E7D30
:104D8300037C009000175912000899E4900017A8BB
:104D9300F090001759E0FCA3E0FDA3E0FEA3E0FFC1
:104DA3007B017A17795D1200E867900017CB7401D5
:104DB300F0A37417F0A37460F07B017A17795D7D1B
:104DC300037C001200EB3D7B017A17796D1200CA58
:104DD300E190000C4112000899789F7C177D017BBC
:104DE300017A1779717E007F0312000B0F78717CB3
:104DF3000D7D017B017A17799F7E007F0312000AE4
:104E03007CD3EF648094805003014EC578717C1786
:104E13007D017B017A0D79717E007F0312000B0FF8
:104E230090000C41E0FCA3E0FDA3E0FEA3E0FF1231
:104E330000E7F190001755EEF0A3EFF04E60127B00
:104E4300817A1B790E1200EA8490001755A3E0FFC4
:104E53002290001752E0FBA3E0FAA3E02411F9E447
:104E63003AFA1200084490000C411200089990008D
:104E73000C41E0FCA3E0FDA3E0FEA3E0FF900017DC
:104E8300AD1200089990001752E0FBA3E0FAA3E0EB
:104E93002411F9E43AFA12000844900017B1120001
:104EA30008997B817A1B79201200EA8478717C1738
:104EB3007D017B017A0D79717E007F0312000B0F58
:104EC300807690000C41E0FCA3E0FDA3E0FEA3E0AC
:104ED300FF90001752E0FBA3E0FAA3E02411F9E4EA
:104EE3003AFA1200087CEF2BFFEE3AFEED39FDECA7
:104EF30038FC90000C411200089990000C41E0FC32
:104F0300A3E0FDA3E0FEA3E0FF900017AD120008AD
:104F13009990001752E0FBA3E0FAA3E02411F9E40F
:104F23003AFA12000844900017B1120008997B81E5
:104F33007A1B79201200EA84783E7C0C7D017B0188
:104F43007A1779717E007F0312000B0F90000C41DA
:104F5300E0FCA3E0FDA3E0FEA3E0FF7B017A177969
:104F63006D1200E06590001752E0FBA3E0FAA3E0A6
:104F73002405F9E43AFA12000844EF2401FFE43E61
:104F8300FEE43DFDE43CFC7B017A1779691200E005
:104F930065900017A8E090001774F07B017A1779E9
:104FA3005D7D187C001200E3E990001757EEF0A333
:104FB300EFF07B017A1779751200F30DE47F10FE91
:104FC300FDFC900017A9E0900017CAF0A37401F04C
:104FD300A37417F0A3745DF012006E497E00900075
:104FE3001755EEF0A3EFF064017002FF2290001753
:104FF300A8E090000C22F07B817A1B79301200EA42
:10500300847FB1229000176BEBF0A3EAF0A3E9F0E1
:1050130078757C177D017B817A1A79A67E007F0BD8
:1050230012000B0F78807C177D017B817A1A79B18E
:105033007E007F0B12000B0F7B017A0E79257D0515
:105043001200BCC790001771EFF060097B817A19D9
:10505300799701550F900017737414F07B007A0051
:1050630079227D01FF1200EEB390001771EFF0601B
:10507300097B817A1979A501550F90001773E00414
:10508300FF7B007A0079327D011200EEB3900017A6
:1050930071EFF060097B817A1979A501550F7B00C7
:1050A3007A0079227D0F1200E8E192037B007A00F7
:1050B30079327D0F1200E8E1920430030301552099
:1050C300300403015520E522C3940B4003752201EC
:1050D300E522D39400500301525AE522940B400376
:1050E30001525A74752522F582E43417F5837593BA
:1050F30000E0FF9000176BE0FBA3E0FAA3E02401BC
:10510300F9E43AFAEF1200055612000524FD25E0F2
:1051130025E0FF74802522F582E43417F583759327
:1051230000E02F90001774F07B017A0E79251200AE
:10513300BCC790001771EFF06003E0FF22900017E7
:1051430074E0FF7B007A0079427D011200EEB39098
:10515300001771EFF06003E0FF22900017727420D4
:10516300F02422F9E4FAFBC003C002C00190001747
:105173006EE0FBA3E0FAA3E02420F9E43AA801FCE3
:10518300AD03D001D002D0037E007F0412000B0FC9
:1051930090001772E02404F0E02422F9E4FAFBC043
:1051A30003C002C0019000176EE0FBA3E0FAA3E086
:1051B3002424F9E43AA801FCAD03D001D002D003C2
:1051C3007E007F0412000B0F90001772E02404F09E
:1051D300E02422F9E4FAFB1200CAE19000176EE022
:1051E300FBA3E0FAA3E02428F9E43AFA12000861E9
:1051F30090001772E02404F0E02422F9E4FAFB1291
:1052030000DD449000176EE0FBA3E0FAA3E0242C3A
:10521300F9E43AFA1200086190001772E02403F0EF
:10522300E02422F8E6FFE4FCFDFE9000176EE0FBAD
:10523300A3E0FAA3E02430F9E43AFA120008617B10
:10524300817A1979B41200EA847B007A0079427D6D
:10525300107C001200EF8178227C007D007B007AB5
:105263000079327E007F1012000A7CEF6003015444
:10527300C5E5220490000E5BF0D3940A4003740149
:10528300F090000E5BE0F5222475F582E43417F507
:1052930083759300E0FF9000176BE0FBA3E0FAA394
:1052A300E02402F9E43AFAEF12000556120005244D
:1052B30025E025E0FF90000E5BE0FE2480F582E40C
:1052C3003417F583759300E02FFF9000176BE0FB15
:1052D300A3E0FAA3E02403F9E43AFAEF1200055637
:1052E3007B817A1979C1EEFF900017ADE4F0A3EF4B
:1052F300F01200EA849000176EE0FBA3E0FAA3E04B
:10530300F91200BDD750037F5A229000176BE0FBC0
:10531300A3E0FAA3E02402F9E43AFA12000524FD1B
:105323007B017A0E79251200BCC790001771EFF04C
:105333006003E0FF22900017727420F02422F9E446
:10534300A801FCFD7B017A0C791EFE7F0412000B81
:105353000F90001772E02404F0E02422F9E4A8017E
:10536300FCFD7B017A0D7973FE7F0412000B0F9015
:10537300001772E02404F09000176EE0FBA3E0FA3C
:10538300A3E0240DF9E43AFA1200084490001772DE
:10539300E02422F9E4FAFB1200E06590001772E0C2
:1053A3002404F09000176EE0FBA3E0FAA3E02411BD
:1053B300F9E43AFA1200084490001772E02422F943
:1053C300E4FAFB1200E86790001772E02403F0E0B0
:1053D3002422F8760A9000176BE0FBA3E0FAA3E01F
:1053E3002402F9E43AFA12000524FF900017ADE411
:1053F300F0A3EFF07B817A1979D31200EA8490004D
:10540300176BE0FBA3E0FAA3E02403F9E43AFA12F2
:10541300000524FF7B007A0079427D031200ECEA49
:1054230090001771EFF060459000176BE0FBA3E06D
:10543300FAA3E02402F9E43AFA12000524FF9000EB
:1054430017ADE4F0A3EFF09000176BA3E0FAA3E02D
:105453002403F9E43AFA12000524FF900017AFE49D
:10546300F0A3EFF07B817A1979EA01550F7B017A7A
:105473000E79257D051200BCC790001771EFF0E48B
:10548300A3F0F53190001772E0FFC3940F500E7430
:10549300222FF8E62531F531E004F080E79000177C
:1054A30073E0FF7B007A0079227D031200ECEA901F
:1054B300001771EFF060087B817A1979FD804D7FC9
:1054C30000229000176EE0FBA3E0FAA3E0F91200BC
:1054D300E68550467B017A0E79257D051200BCC70F
:1054E30090001771EFF06003E0FF2290001773E064
:1054F30004FF7B007A0079227D031200ECEA90001E
:105503001771EFF060117B817A1A790B1200EA842C
:1055130090001771E0FF227F5A227F0022200303AD
:105523000150C920041078227C007D007B007A00A2
:1055330079327E0080217E007F107DFF7B007A0020
:105543007922120009B3E4F52275230178327C0035
:10555300FDFB7A007922FE7F1012000B0F0150C968
:10556300900017347401F0E4A3F0A37406F07F01F4
:105573001200A3E990001733EFF014601624FC60C7
:105583002D2403702C90001735E0D394004022E0C3
:1055930014801190001736E0FF90001735E0C39F89
:1055A300500FE004F0900017347401F080037F0083
:1055B3002290001734E060B67E007F447D007B01BB
:1055C3007A1679E5120009B390001735E0600301FC
:1055D3005688900018217481F0A37412F0A374CB41
:1055E300F07B017A1679E512000C639000182174A0
:1055F30081F0A37412F0A374D6F090000C1EE0FFA8
:1056030090001824E4F0A3EFF090000C1FE0FF904B
:10561300001826E4F0A3EFF090000C20E0FF9000C8
:105623001828E4F0A3EFF090000C21E0FF9000189D
:105633002AE4F0A3EFF07B017A1679F612000C63EB
:10564300900018217481F0A37412F0A374E7F07B27
:10565300017A17790712000C631200F55D7B017A5A
:1056630017792912006AB8900017737401F0A374B4
:1056730017F0A37418F07B017A1779297D071200BC
:10568300DE8A01599B90001735E0640160030157DE
:1056930037900018217481F0A37412F0A374F0F012
:1056A3007B017A1679E512000C639000182174814E
:1056B300F0A37412F0A374FBF090000C41E0FCA380
:1056C300E0FDA3E0FEA3E0FFE4120000CDE4FBFA5B
:1056D30079C878421200002B900018241200089910
:1056E3007B017A1679F612000C63900018217481FD
:1056F300F0A37413F0A37404F07B017A17790712F3
:10570300000C63900018217481F0A37412F0A37449
:10571300FBF090000C45E0FCA3E0FDA3E0FEA3E05A
:10572300FFE4120000CDE4FBFA79C87842120000CE
:105733002B01585B90001735E0640260030157D5D5
:10574300900018217481F0A37413F0A37411F07BFB
:10575300017A1679E512000C63900018217481F028
:10576300A37412F0A374FBF090000C36E0FCA3E0EA
:10577300FDA3E0FEA3E0FFE4120000CDE4FBFA7911
:10578300C878421200002B90001824120008997B5D
:10579300017A1679F612000C63900018217481F0D7
:1057A300A37413F0A3741AF07B017A17790712001C
:1057B3000C63900018217481F0A37413F0A3742771
:1057C300F090000C3CE0FF90001824E4F0A3EF01FC
:1057D30058DD90001735E0640360030158659000BD
:1057E30018217481F0A37413F0A3742DF07B017A54
:1057F3001679E512000C63900018217481F0A374EC
:1058030013F0A37436F090000C3AE0FFA3E090008D
:105813001824CFF0A3EFF07B017A1679F612000C6F
:1058230063900018217481F0A37413F0A3743CF007
:105833007B017A17790712000C6390001821748199
:10584300F0A37412F0A374BFF090000C2BE0FCA340
:10585300E0FDA3E0FEA3E0FF9000182412000899E6
:10586300807990001735E0640470799000182174F2
:1058730081F0A37413F0A37447F07B017A1679E5E2
:1058830012000C631200C252900018217481F0A31D
:105893007413F0A37452F0A3EEF0A3EFF07B017A3C
:1058A3001679F612000C63900018217481F0A3742A
:1058B30013F0A37458F07B017A17790712000C6375
:1058C300900018217481F0A37413F0A37461F0A302
:1058D3007481F0A37413F0A37464F07B017A1779D5
:1058E3001801599790001735E06405703F90001830
:1058F300217481F0A37413F0A37470F07B017A1602
:1059030079E512000C63900018217481F0A37413DD
:10591300F0A3747AF090000C3DE0FF90001824E4AB
:10592300F0A3EFF07B017A1679F6806890001735C3
:10593300E064067063900018217481F0A37413F07F
:10594300A37480F07B017A1679E512000C63900052
:1059530018217481F0A37413F0A37461F0A374810C
:10596300F0A37413F0A37486F07B017A1679F61210
:10597300000C63900018217481F0A37413F0A374D6
:1059830061F0A37481F0A37413F0A37492F07B010C
:105993007A17790712000C63E490001734F01200B1
:1059A300F433E490001733F090001733E0FFC3940F
:1059B300044003015571EF75F011A424E5F9741641
:1059C30035F0FA7B01E4900017C7F0FD1200B91D12
:1059D30090001733E004F080CF90001752EBF0A350
:1059E300EAF0A3E9F0ED64016003015DA290001702
:1059F30057F090001752E0FBA3E0FAA3E0F912007E
:105A03000524FF90001757E0FE90001756E0FD2E87
:105A1300F8A607A3E004F0E0FFED2FF87C007D007B
:105A23007B017A0C791E7E007F0412000B0F90001D
:105A33001757E02404F090001752E0FBA3E0FAA309
:105A4300E02405F9E43AFA1200084490001757E0FD
:105A5300FB90001756E02BF97A007B001200E065FB
:105A630090001757E02404F090001752E0FBA3E0E6
:105A7300FAA3E02409F9E43AFA1200084490001763
:105A830057E0FB90001756E02BF97A007B001200D9
:105A9300E86790001757E02403F090001752E0FBEB
:105AA300A3E0FAA3E0240DF9E43AFA1200084490C3
:105AB300001757E0FB90001756E02BF97A007B00A4
:105AC3001200E06590001757E02404F0900017528D
:105AD300E0FBA3E0FAA3E02411F9E43AFA12000888
