:10000000021D017E11DEFEDFFA00220200D0B25393
:10001000E8EF438EC075C7AA75C75543D803227F42
:020020000022BC
:100023000200CBE00200014BEC5D046005E85904DB
:100033007004020001411200010C580460F4EC4802
:1000430060F0EC7004FDFEFF22C860D82481C85024
:100053000AC39860025007020001489850C6F5820F
:10006300E9294B4A7006AB820200013775F0007C28
:100073001A7880C3EF9BEE9AED99400DC3EF9BFF77
:10008300EE9AFEED99FDE842F0DC24ACF0D0E0FFFF
:10009300D0E0FED0E0FDAB8220E7101BEB60B8ECB4
:1000A3002CFCEF33FFEE33FEED33FD02000123E8BA
:1000B30003F830E705C0F075F000EF2FFFEE33FED5
:1000C300ED33FD40B730E7C180A975F020800E7590
:1000D300F010800575F0087D007E007F003392D517
:1000E30030D504120007E9EC334010EF33FFEE3351
:1000F300FEED33FDEC33FCD5F0ED22E5F0247EA2DA
:10010300D513CC92E7CDCEFF22E9D2E7C933E8334A
:10011300F892D5EDD2E7CD33EC33FC5002B2D522C1
:10012300EC30E7100FBF000C0EBE00080DBD00043D
:100133000BEB6014A2D5EB13FCED92E7FD2274FFE9
:10014300FCFDFEFF22E480F8A2D574FF13FC7D8042
:10015300E480EFF920E73624F950037907E4F42427
:1001630002FBE582158270021583DBF6E024FB5067
:100173001BE96014E4F0E582158270021583E00444
:10018300F0B40A08E4F0D9EE7401F00A22C2D522D1
:10019300ED33EC3392D5FA602AB4FF33EDC2E77B3B
:1001A3008160067A0179B8E4227A0179C120D50405
:1001B3007A0179BC224E614E002B494E46002D49EF
:1001C3004E4600E47A08F0A3DAFC7B00740722C0F1
:1001D30093C083C082ECC0E0EDC0E0EEC0E0EFC0AE
:1001E300E0EA75F010A4CAABF075F04DA42BFBE464
:1001F30035F0FCEA2410FAEB34C5FBEC34D9FCED02
:10020300C2E7FF75F056A4F42411C5F0F434C58F8A
:10021300F0A42AE5F03BE43CF020E716120004DEEC
:10022300D0E0FFD0E0FED0E0FDD0E0FC1200002BD8
:100233008016F404120004DED0E0FFD0E0FED0E02C
:10024300FDD0E0FC120003A0D082D083D093E0FA6B
:10025300EDD2E7CD33EC332482FBE4C3CF33CFCEEF
:1002630033CECD33CD33DBF37B0775F00A846004E3
:10027300F0A31B0AE5F0F0A38FF0740AA4FFACF01F
:100283008EF0740AA42CFEACF050010C8DF0740AAD
:10029300A42CFDE435F0F0A3DBDE74072202000199
:1002A30041E86480F8E933E83360110460EFED332B
:1002B300EC337009E8FCE9FDEAFEEBFF220460DDA4
:1002C300D3EB9FEA9EE99DE8C2E78CF0C2F795F075
:1002D300400CE8CCF8E9CDF9EACEFAEBCFFB1200FB
:1002E300010C85D0F05804700320D5B1E8047008E0
:1002F3005002B2D50200014B92D5EC0460F6E4CC77
:10030300C0E0C398F8603C94186009400ED0E0FB4D
:1003130002000123E4FBFAC9FC8028E830E406E488
:10032300C9FBE4CAFCE830E305E4C9CACBFCE854E2
:10033300076010F8C3E913F9EA13FAEB13FBEC13A4
:10034300FCD8F130F531C3E49CFCEF9BFFEE9AFE41
:10035300ED99FDD0E0FBEF4E4D4C701322DB040210
:10036300000148EC2CFCEF33FFEE33FEED33FDEDE3
:1003730030E7EA02000123EF2BFFEE3AFEED39FDF1
:10038300D0E0FB50140BBB00040200014BED13FD46
:10039300EE13FEEF13FFEC13FC02000123EC4D60A0
:1003A30011E8497018ED33EC3304600DE4FCFFFEF3
:1003B300FD22E933E8330470F80200014112000121
:1003C3000C58046009E4CC2481500728500B020028
:1003D300014B28400402000148C0E0EB4A7046B9D3
:1003E3008007D0E0FB02000137EF4E701DBD80088F
:1003F300EBFFEAFEE9FD80EAE98DF0A4FEE5F002F9
:1004030000048FE9CDF9EAFEEBFFEF89F0A4FCE5E8
:10041300F0CE89F0A42EFFE435F0CD89F0A42DFEB3
:10042300E435F08067EF4E7005BD80D780C2EF8B57
:10043300F0A4ACF0EE8BF0A42CFCE435F0F8EF8ADA
:10044300F0A42CE5F038FCE433CB8DF0A42CFCE5D0
:10045300F03BF8EE8AF0A42CFCE5F038F8E433CF57
:1004630089F0A42CFCE5F038CF3400CE89F0A42F1A
:10047300FFE5F03EFEE433C98DF0A42EFEE5F0392E
:10048300CD8AF0A42FFFE5F03EFEE43DFD33D0E03E
:10049300FB50080BBB00100200014BEC2CFCEF33AC
:1004A300FFEE33FEED33FD020001233F80000041E8
:1004B30020000042C80000447A0000461C40004768
:1004C300C35000497424004B1896804CBEBC205A7C
:1004D3000E1BCA6753C21C749DC5AEFB600654074E
:1004E3006020232312000511EB5438600C12000422
:1004F300FC1200050C120003A0ECF8EDF9EEFAEF84
:10050300CB22EB1200050C80F0543803241C90001E
:1005130004AEFE93FC0EEE93FD0EEE930ECE93FF10
:1005230022EB7002E72289828A831410E704F59391
:10053300E022F593E49322BB000327F722F8EB892B
:10054300828A831410E706F593E028F022F593E4FA
:10055300932822BB0002F722BB8000500989828ABC
:10056300838B931593F022EF8DF0A4A8F0CF8CF03A
:10057300A428CE8DF0A42EFE22BC000BBE0029EFD2
:100583008DF084FFADF022E4CCF875F008EF2FFF77
:10059300EE33FEEC33FCEE9DEC984005FCEE9DFE45
:1005A3000FD5F0E9E4CEFD22EDF8F5F0EE0084205E
:1005B300D21CFEADF075F008EF2FFFED33FD4007C1
:1005C300985006D5F0F222C398FD0FD5F0EA22C267
:1005D300D5EC30E709B2D5E4C39DFDE49CFCEE30D5
:1005E300E716B2D5E4C39FFFE49EFE1200057CC369
:1005F300E49DFDE49CFC80041200057C30D507C318
:10060300E49FFFE49EFE22C5F0F8A3E028F0C5F0C6
:10061300F8E582158270021583E038F022A3F8E032
:10062300C5F025F0F0E582158270021583E0C83825
:10063300F0E822EB7007E7F5F009E7192289828ACF
:10064300831410E708F593E0F5F0A3E022F593E4B3
:1006530093F5F074019322F8EB700C09E5F027C7CA
:10066300F5F019E837C72289828A831410E707F562
:1006730093E802000620F593E4740193F5F0E49304
:1006830022BB000B09C5F027F7C5F01937F722F88D
:10069300EB89828A831410E707F593E80200060AC0
:1006A300F59374019325F0F5F0E4933822BB00062B
:1006B300F709A7F01922BB8000500D89828A838B2A
:1006C300931593F0E5F0A3F022E88FF0A4CC8BF020
:1006D300A42CFCE98EF0A42CFC8AF0EDA42CFCEAFB
:1006E3008EF0A4CDA8F08BF0A42DCC3825F0FDE935
:1006F3008FF0A42CCD35F0FCEB8EF0A4FEA9F0EB2B
:100703008FF0A4CFC5F02ECD39FEE43CFCEAA42D36
:10071300CE35F0FDE43CFC2275F008758200EF2F26
:10072300FFEE33FECD33CDCC33CCC58233C5829BB4
:10073300ED9AEC99E58298400CF582EE9BFEED9ADA
:10074300FDEC99FC0FD5F0D6E4CEFBE4CDFAE4CC76
:10075300F9A88222B800C1B90059BA002DEC8BF078
:1007630084CFCECDFCE5F0CBF97818EF2FFFEE3335
:10077300FEED33FDEC33FCEB33FB10D70399400460
:10078300EB99FB0FD8E5E4F9FA227818EF2FFFEE87
:1007930033FEED33FDEC33FCC933C910D7059BE9B8
:1007A3009A4007EC9BFCE99AF90FD8E0E4C9FAE414
:1007B300CCFB2275F010EF2FFFEE33FEED33FDCCB3
:1007C30033CCC833C810D7079BEC9AE899400AED9D
:1007D3009BFDEC9AFCE899F80FD5F0DAE4CDFBE445
:1007E300CCFAE4C8F922C3E49FFFE49EFEE49DFD36
:1007F300E49CFC22EB9FF5F0EA9E42F0E99D42F077
:10080300EC6480C864809845F022EB9FF5F0EA9E83
:1008130042F0E99D42F0E89C45F022E8600FECC30A
:1008230013FCED13FDEE13FEEF13FFD8F122E86086
:100833000FEFC333FFEE33FEED33FDEC33FCD8F1A2
:1008430022EB7006E9F802000B6F89828A83141089
:10085300E706F59302000B7BF59302000B87BB00C1
:1008630006E9F802000BC0BB8000500C89828A8322
:100873008B9315930200089922EB7006E9F80200A6
:100883000B9789828A831410E706F59302000BA461
:10089300F59302000BB0ECF0A3EDF0A3EEF0A3EFA1
:1008A300F022A42582F582E5F03583F58322F8E072
:1008B300FBA3A3E0F925F0F0E5821582700215830E
:1008C300E0FA38F022EBF0A3EAF0A3E9F022EB70B0
:1008D30006E9F802000BCC89828A831410E706F537
:1008E3009302000BDEF59302000BE7BB001CD093D1
:1008F300D0F0D0E0F8D0E0C9FBD0E0FAD0E0CBC82C
:10090300C0E0C0F0C09302000BD5BB80005022D0E2
:1009130093D0F0D0E0F8D0E0C9F582D0E0CAF583F7
:10092300D0E0CB14C8C0E0C0F0C0938893020008A5
:10093300C8D093D083D082D0E0D0E0D0E0E473D0AD
:1009430093D083D082F8E4937012740193700DA353
:10095300A393F8740193F5828883E4737402936814
:1009630060EFA3A3A380DFD093D083D082E49370FE
:1009730012740193700DA3A393F8740193F5828805
:1009830083E4737402936C70127403936D700C742C
:1009930004936E70067405936F60DDA3A3A3A3A3F2
:1009A300A380CA8B938A838982159353937FE473BD
:1009B300EF4E6022EF60010EEDBB0007F709DFFC8D
:1009C300A9F022BB8000500E89828A838B931593F2
:1009D300F0A3DFFCDEFA22EB700C87F009E608B522
:1009E300F019DFF6801589828A831410E70FF593D7
:1009F300E0F5F0A3E608B5F002DFF5806AF593E4CD
:100A030093F5F0A3E608B5F05EDFF4805ACB7013DC
:100A130088828C838B9387F009E493A3B5F048DF36
:100A2300F580441410E71F88848C858B9589828A0E
:100A330083F593758620E0F5F0E493A3A3B5F02442
:100A4300DFF4DEF2801E88848C858B9589828A830D
:100A5300F593758620E493F5F0E493A3A3B5F0042E
:100A6300DFF3DEF17586007FFFB5F0020F2240024F
:100A73007F0122020009DA809488F0EF60010E4EB4
:100A830060F0ED60EE1410E7EECB701288828C8379
:100A9300F59387F009E0A3B5F0CDDFF680C9141014
:100AA300E71E88848C858B9589828A83F593758666
:100AB30020E0F5F0E0A3A3B5F0AADFF5DEF380A410
:100AC30088848C858B9589828A83F593758620E447
:100AD30093F5F0E0A3A3B5F08BDFF4DEF28085EBB2
:100AE3007008E709F608DFFA801B89828A831410ED
:100AF300E70AF593E0A3F608DFFA8009F593E49398
:100B0300A3F608DFF9ECFAA9F0EDFB2288F0EF6019
:100B1300010E4E60F088F0ED60C51410E7E7CB706E
:100B23000E88828C838B93E709F0A3DFFA80D614B7
:100B330010E71C88848C858B9589828A83F593754D
:100B43008620E0F0A3A3DFFADEF875860080B6887E
:100B5300848C858B9589828A83F593758620E493AB
:100B6300F0A3A3DFF9DEF77586008099E6FC08E6BB
:100B7300FD08E6FE08E6FF22E0FCA3E0FDA3E0FE9D
:100B8300A3E0FF22E493FC740193FD740293FE74CB
:100B93000393FF22E6FB08E6F908E6FA08E6CBF83A
:100BA30022E0F8A3E0F9A3E0FAA3E0FB22E493F840
:100BB300740193F9740293FA740393FB22ECF6081D
:100BC300EDF608EEF608EFF622E6FB08E6FA08E68D
:100BD300F922EBF608EAF608E9F622E0FBA3E0FACD
:100BE300A3E0F922E493FB740193FA740293F922CC
:100BF300E51124CDF582E43417F583759300E00500
:100C03001122900017CA300B04900017CDE475F041
:100C130001120008B1020005242004E57F2ED2044E
:100C23008018EF540F2490D43440D4FF30080BEFD6
:100C330024BFB41A0050032461FFE51260021512A9
:100C43000515E51570020514300B11900017CAE461
:100C530075F001120008B1EF02000556020021D021
:100C63007403D20B8003E4C20BF511900017CA1270
:100C73000008C8E4F512F514F515E51260087F20A5
:100C830012000C3D80F47513FFC205C204C206C2F4
:100C930007C209C20AC20C12000C05FF700E300B0A
:100CA300067F0012000C4EAF15AE1422B42563C2AA
:100CB300D5C20812000C05FF24D0B40A00501A75DF
:100CC300F00A781230D50508B6FF0106C6A426F649
:100CD30020D5047002D20780D824CFB41A00EF5075
:100CE30004C2E5D20802000F8BD20580C4D204806F
:100CF300BED20680BAD2D580B8D20980B27F201284
:100D0300000C3D2006077401B5120040F012000BE1
:100D1300F3FF12000C3D02000C7DD20CD20A808F2F
:100D230012000BF3FB12000BF3FA12000BF3F94A58
:100D33004B700679987A107B8120063DE512603965
:100D43007E00E9C0E02EF9EAC0E03400FA120005A3
:100D530024F9D0E0FAD0E0C960060EEE651370E224
:100D6300C2D5EBC0E0EAC0E0E9C0E0EE12000FF349
:100D7300D0E0F9D0E0FAD0E0FB12000524FF609642
:100D8300EBC0E0EAC0E0E9C0E012000C3DD0E02493
:100D930001F9D0E03400FAD0E0FBE5130460DAD5C2
:100DA30013D702000D19D206808F12000FCF60F601
:100DB300E51370010412000156A913600EE51360D8
:100DC3000A14F51312001082EF60F2EA30E702F41E
:100DD30004C399400402000E62EAF425130430E7C9
:100DE30001E404F513800F12000FCF60B9EA051375
:100DF300251312000156EA900017F9F030E701E4D9
:100E0300251304D513042009011412000FF3E4C0C1
:100E1300E012001082900017F9E0601420E7081434
:100E2300F012000C25802604F0D0E014C0E07F000F
:100E330012000C25E513600812000C1C1513800D1D
:100E430030090412000C1CD0E002000C7DD0E00439
:100E530080BD12000FCF6093E5130412000156907A
:100E63000017F9EAF0E513200902600104240412D3
:100E7300000FF374FF04C0E01200108212000C256F
:100E8300E513200902600412000C1CD0E0B513E541
:100E93007F4512000C2F900017F9E07F2B30E704F9
:100EA3007F2DF404C0E012000C3DD0E075F00A84FD
:100EB300C0F012000C26D0E012000C2602000C7DBC
:100EC300791080027908C20AC20C8008D2D5790A47
:100ED3008004790AC2D5E513047002F513E4FAFD20
:100EE300FEFF12000BF3FC7B0820051612000BF328
:100EF300FD7B1030040C12000BF3FE12000BF3FF0A
:100F03007B20EC3382D592D55013C3E43004069F83
:100F1300FFE49EFEE42005039DFDE49CFCE4CBF886
:100F2300C205EC700CCFCECDCCE824F8F870F3807A
:100F330017C3EF33FFEE33FEED33FDEC33FCEB333E
:100F4300FB994002FB0FD8E9EB300505F8D0E0C46C
:100F530048B205C0E00AEC4D4E4F78207B0070C2CA
:100F6300EAB5130040BCC0E012000FF5D0F0D0E0AA
:100F7300200504C4C0E0C4B205C0F012000C26D0A2
:100F8300F0D5F0EA02000C7D120009420D23530E46
:100F9300C3580CF04C0CEC420EC74F0ECF440ECF8F
:100FA300490D06430ED5550DEA460E55450DAD4781
:100FB30010B5500CF42D0CF82E0D1F2B0CFC230D2B
:100FC3001D2010A12A0CB24800000D15E513B4FF33
:100FD3000375130612000BF3FC12000BF3FD120052
:100FE3000BF3FE12000BF3FF900017F202000193C4
:100FF300790AA2D5200714300909B910020404B9EB
:10100300080104A2D5200A0250010420066D9206AD
:10101300B512005036C0E07F2030071A7F30A20699
:10102300720A720950101200104EC206C20AC20997
:10103300C20C7F308010300903E9C0E012000C3D80
:10104300300903D0E0F9D0E0B512CA3009197F3076
:10105300B9100D12000C3D7F583008077F788003CC
:10106300B9080412000C3D3006067F2D02000C3D2A
:101073007F20200CF77F2B200AF222920680CC7F60
:1010830000B40700500E24F2F582E43417F583759B
:101093009300E0FF22286E756C6C2900D2051200C4
:1010A3000BF33005F7C205781230D50108F60200BC
:1010B3000CB212000BF37F4960087F4310E7027FF5
:1010C3005814C0E0EF12000C2E743A12000C2ED00C
:1010D300E0600DC0E0C412000C26D0E012000C2624
:1010E300D20775120402000EC3D6D0CDBEB0CEBF58
:1010F300A800B2BBBFC9CAB6B1F0BFA800BFA8C79A
:10110300AEB0FCB4EDCEF300CEB4C9CFB4ABC1F7EF
:10111300CBAE00C7EBB2C9BCAF00BADABFA800BF01
:10112300A8D2D1B9C6DA00CEDEC8A8CFDE00BFA8E8
:10113300D3E0B6EEB2BBD7E300BFA8D2D1CBF80061
:10114300C3E2B7D1BFA800BCC7C2BCD2D1C2FA00A8
:10115300D6D8B8B4CBA2BFA800C9E8D6C3B4EDCEE5
:10116300F300CAB1D6D3B4EDCEF300D3B2BCFEB90B
:10117300CAD5CF00B2BBD6A7B3D6BFA8C0E0D0CDE7
:101183000000CEEFC0ED4944CEB4C9E8D6C300B1E8
:10119300B8B2CE00D6F7B2CEB4EDCEF300BBD6B81C
:1011A300B4D6F70057522053455249414C0052449C
:1011B3002053455249414C005B25645DB4EDCEF3A9
:1011C300C2EBA3BA25642000B6C1D0B4B4EDCEF30C
:1011D3000025303258006931365B253034585D00C4
:1011E300252E30326600B6C1BFA8C6F7D2ECB3A332
:1011F3000072656164203078343020616464720A5F
:1012030000B6C1454550524F4D203100454550521F
:101213004F4D2044617461203100776F726B206BF6
:10122300657900776F726B206B65790A00B6C145EB
:101233004550524F4D203200454550524F4D2044AA
:10124300617461203200D0B4454550524F4D203275
:1012530000646179735B25645D5B25645D00B6C1E1
:10126300454550524F4D203300454550524F4D2078
:1012730044617461203300B6C1454550524F4D203F
:101283003400646973706C6179206D656E750A0052
:10129300312E20BAECCDE2CDA8D1B6202000322EDB
:1012A30020B4AEBFDACDA8D1B6202000332E20471C
:1012B300505253CDA8D1B62020002020202020203A
:1012C3002020202020202000256C750025732C5B16
:1012D30025640A00C9E8B1B8CEEFC0ED4944002542
:1012E30030325825303258253032582530325800A4
:1012F300CFB5CDB3CAB1BCE400B5B1CCECD3AAD25F
:10130300B5B6EE00252E30326620D4AA00C7B0D27F
:10131300BBCCECD3AAD2B5B6EE00BBF9B4A1B7D11E
:10132300C2CA00B2C9BCAFCAB1BCE4BCE4B8F400E1
:10133300256420CCEC00C1ACD0F8CBA2BFA800251B
:101343006420C3EB00B5B1C7B0C1F7CBAEBAC500DB
:10135300CEB4B2C9BCAFBCC7C2BC00257520CCF5A6
:1013630000B3CCD0F2B0E6B1BE0025730030393003
:10137300373032494D5F723100CEB4B2C9BCAFCC05
:10138300ECCA00257520CCEC004275696C64004AF8
:10139300756C20313020323030390031373A3233F6
:1013A3003A353100312E20CBA2BFA8CAD5B7D12000
:1013B3002000322E20B2E9D1AF20202020202000AF
:1013C300332E20CDA8D1B620202020202000B3F535
:1013D300CABCBBAFB4EDCEF300B3F5CABCBBAFB36D
:1013E300C9B9A600001F1C1F1E1F1E1F1F1E1F1E84
:1013F3001F81129381C8728112A181CE558112AFD0
:1014030081F1598112BD000000010DB70000008178
:1014130013A781A7378113B58154078113C381EDC6
:10142300E8202020202020202020202020202020F1
:10143300200000000000000000000000004F00003A
:101443000000000007000700000000147F147F1451
:10145300000000242A7F2A1200000023130864627C
:10146300000000364955225000000000050300002B
:10147300000000001C2241000000000041221C006B
:1014830000000014083E081400000008083E080885
:1014930000000000503000000000000808080800A9
:1014A300000000006060000000000020100804023B
:1014B3000000003E5149453E0000000000427F40CD
:1014C30000000042615149460000002141454B3173
:1014D3000000001814127F1000000027454545390D
:1014E3000000003C4A49493000000001017905032E
:1014F3000000003649494936000000064949291EC3
:1015030000000000363600000000000056360000E0
:1015130000000008142241000000001414141414E5
:1015230000000000412214080000000201510906D6
:10153300000000324979413E0000007E1111117E06
:10154300000000417F4949360000003E41414122ED
:10155300000000417E4141223C00007E4949494947
:101563000000007F090909010000003E4141497A5A
:101573000000007F0808087F00000000417F410051
:101583000000002040413F010000007F0814224179
:101593000000007F404040400000007F020C027FBB
:1015A3000000007F0608307F0000003E4141413EBD
:1015B3000000007F090909060000003E4151215E39
:1015C3000000007F091929460000002649494932D5
:1015D30000000001017F01010000003F4040403F47
:1015E3000000001F2040201F0000007F2018207FE4
:1015F3000000006314081463000000070870080764
:101603000000006151494543000000007F41410053
:1016130000000002040810200000000041417F0088
:1016230000000004020102040000004040004040AA
:10163300000000010204000000000020545454780C
:101643000000007F484444380000003844444428E4
:10165300000000384444487F0000003854545418B4
:1016630000000000087E09020000000C52524C3EAC
:101673000000007F0804047800000000447D40005F
:101683000000002040443D00000000007F1028447B
:1016930000000000417F40000000007C04780478D3
:1016A3000000007C080404780000003844444438F7
:1016B3000000007E0C12120C0000000C12120C7EB3
:1016C3000000007C080404080000005854545464CB
:1016D300000000043F4440200000003C40403C40E8
:1016E3000000001C2040201C0000003C4030403C17
:1016F30000000044281028440000001CA0A0907C97
:101703000000004464544C440000000008364100CB
:1017130000000000007700000000000041360800D0
:101723000000000201020402000000FFFFFFFFFFB0
:101733000000253032640000001021204230634055
:101743008450A560C670E781089129A14AB16BC195
:101753008CD1ADE1CEF1EF1231021032732252522D
:10176300B5429472F762D693398318B37BA35AD3E5
:10177300BDC39CF3FFE3DE246234430420140164FD
:10178300E674C744A45485A56AB54B85289509E535
:10179300EEF5CFC5ACD58D365326721611063076CD
:1017A300D766F6569546B4B75BA77A97198738F785
:1017B300DFE7FED79DC7BC48C458E5688678A7080D
:1017C30040186128023823C9CCD9EDE98EF9AF89D5
:1017D300489969A90AB92B5AF54AD47AB76A961A6D
:1017E300710A503A332A12DBFDCBDCFBBFEB9E9B25
:1017F300798B58BB3BAB1A6CA67C874CE45CC52C3D
:10180300223C030C601C41EDAEFD8FCDECDDCDAD74
:101813002ABD0B8D689D497E976EB65ED54EF43E0C
:10182300132E321E510E70FF9FEFBEDFDDCFFCBFC4
:101833001BAF3A9F598F78918881A9B1CAA1EBD187
:101843000CC12DF14EE16F108000A130C220E35096
:101853000440257046606783B99398A3FBB3DAC34A
:101863003DD31CE37FF35E02B1129022F332D242E6
:1018730035521462777256B5EAA5CB95A88589F5DA
:101883006EE54FD52CC50D34E224C314A004817436
:1018930066644754244405A7DBB7FA879997B8E7EA
:1018A3005FF77EC71DD73C26D336F2069116B06686
:1018B30057767646155634D94CC96DF90EE92F99EA
:1018C300C889E9B98AA9AB584448657806682718D6
:1018D300C008E1388228A3CB7DDB5CEB3FFB1E8B8A
:1018E300F99BD8ABBBBB9A4A755A546A377A160A26
:1018F300F11AD02AB33A92FD2EED0FDD6CCD4DBD1A
:10190300AAAD8B9DE88DC97C266C075C644C453C75
:10191300A22C831CE00CC1EF1FFF3ECF5DDF7CAF29
:101923009BBFBA8FD99FF86E177E364E555E742EC5
:10193300933EB20ED11EF06C6F6164206B6579210A
:101943000A006C6F67696E206661696C64202564A8
:101953000A0073656C65637420636172640A006CCA
:101963006F67696E207365637420310A0072656165
:101973006420626C6F636B20340A0032302530328E
:1019830064253032642530326400315B256C755D2B
:10199300325B256C755D0A006C6F67696E20736539
:1019A300637420350A007265616420626C6F636B37
:1019B3002032300A0063617264207265636F72645F
:1019C3000A00696E74657276616C206964785B25C0
:1019D300645D0A0077726974652073657269616C6E
:1019E30020736563745B25645D0A00736563745BD0
:1019F30025645D626C6F636B5B25645D0A007772BF
:101A0300697465207365637420350A00777269749D
:101A13006520626C6F636B5B353A32315D0A006C33
:101A23006F67696E206361726420707572736520DD
:101A3300736563740A0072656164207075727365FF
:101A430020626C6F636B0A0072656164207075724B
:101A53007365206261636B75700A006C6F67696EF2
:101A63002063617264203320736563740A007265B6
:101A73006164206361726420313220626C6F636B36
:101A83000A007265616420626C6B2031340A007253
:101A93006561642070757273650A00636865636BC2
:101AA30020636172640A000005060606070707083B
:101AB30008080002000102000102000102726561D0
:101AC3006420707472200A007772697465207074E0
:101AD30072206261636B0A007265616420707472C4
:101AE300206261636B0A006261636B207074722011
:101AF3006372630A0062616B2070747220637263A5
:101B03000A007265636F72642066756C6C0A0075F7
:101B1300706461746520707265206D6F6E65790AFB
:101B2300006D6F6E65795B256C755D5B256C755D0E
:101B33000075706461746520707472206572726FD1
:101B4300720A006572726F722073657269616C5BF1
:101B530025645D0A007265636F72642066756C6C40
:101B63005B256C755D5B256C755D0A00676574208C
:101B73006E6578742073657269616C0A00726563BF
:101B83006F72642073657269616C0A00BADABFA868
:101B930000C3E2B7D1BFA800BFDBBFEE202573208F
:101BA300D4AA00D3E0B6EE20257320D4AA00C1F74F
:101BB300CBAEBAC55B256C645D00C7EBD6D8CBA2B0
:101BC30000636F6E73756D65205B25645D0A00C7E6
:101BD300EBC1AACFB5B9DCC0EDD4B100C7EBBCEC07
:101BE300B2E9504F53BBFA007761697474696E6749
:101BF3002E2E2E00626567696E207265717565739E
:101C0300742E2E2E0A0070726F636573732E2E2E40
:101C130000C9E8D6C3CEEFC0ED4944B3C9B9A600A5
:101C2300D0A3D7BCCAB1D6D3B3ACCAB100D0A3D763
:101C3300BCCAB1D6D3B3C9B9A6007772697465209B
:101C43006572726F722C307834300A007365726972
:101C5300616C5B256C755D5B256C755D0A00726458
:101C630020707472200A0073657269616C206E6F54
:101C7300200A00757064617465207265630A006EE2
:101C83006F7420737570706F727420636D645B255D
:101C9300645D0A0070726F63657373206F6B006914
:101CA3006E697420696E6672617265642E2E2E00F1
:101CB300B2BBD6A7B3D6BAECCDE200B4F2BFAABA90
:101CC300ECCDE2CAA7B0DC00636F6D6D756E69631E
:101CD3006174696F6E2E2E2E00B2BBD6A7B3D6B435
:101CE300AEBFDA00B4F2BFAAB4AEBFDACAA7B0DCA3
:101CF30000696E697420706F732E2E2E0A0075C7EB
:101D0300AA75C755759D0275C7AA75C75575C600CF
:101D1300787FE4F6D8FD75816C02001D4A0200CC81
:101D2300B9E493A3F85407240CC8C333C4540F4431
:101D330020C8834004F456800146F6DFE4800C019A
:101D43000204081020408090001E99E47E019360F5
:101D5300CCA3FF543F30E509541FFEE493A3600175
:101D63000ECF54E0B4E026E493FBA3E493FAA3E498
:101D730093F9A3E493C083C08212000556D082D0A6
:101D830083A309E970010ADFEADEE880BE54C025B7
:101D9300E0602B408CE493A3FAE493A3F8E493A3C9
:101DA300C8C582C8CAC583CA759300F0759300A3DA
:101DB300C8C582C8CAC583CADFE3DEE1808DE49368
:101DC300A3F8E493A34003F68001F208DFF40200D2
:101DD3001D4E6F70656E20706F72745B25645D5B62
:101DE300256C755D0A00636C6F736520706F727488
:101DF3005B25645D00726563762068656164657266
:101E03000A007061636B206C656E206572722C5BD7
:101E130025645D0A0072656376206572722C5B250A
:101E2300645D5B25645D0A00726563762062756696
:101E33002065787431215B25645D0A0072656769EA
:101E43007374657220696E66726172656420706F67
:101E530072740A006F70656E20636F6D6D20706F12
:101E630072745B25645D5B256C755D0A00636C6F42
:101E7300736520636F6D6D20706F72745B25645D95
:101E83000A00726567697374657220636F6D6D20F4
:101E9300706F72740A00605A0DCB00018110EC0060
:101EA300028110F50003811100000481110B00056C
:101EB300811116000681111D00078111220008817E
:101EC300112A0009811131000A81113C000C811192
:101ED30043000D81114A005A811153005C81115C4A
:101EE300005B81116500B181116E005F8111770084
:101EF300FE811184481D643230303530313331C1B5
:101F03000D411D48014C00060000000000000000C8
:101F13000000000046000000000000000042001224
:101F23000000420C14000000BD0020EF7F08C2A691
:101F33003392A500D2A6DFF6C2A67F64D2A5A2A5DE
:101F43005002DFFAD2A60000C2A622BD0120EF7F15
:101F530008C2A73392A500D2A7DFF6C2A77F64D237
:101F6300A5A2A55002DFFAD2A70000C2A722BD0294
:101F730020EF7F08C2963392A500D296DFF6C29671
:101F83007F64D2A5A2A55002DFFAD2960000C296C2
:101F930022EF7F08C2973392A500D297DFF6C2974C
:101FA3007F64D2A5A2A55002DFFAD2970000C297A0
:101FB30022D2A4C2A400C2A2C2A3BD0004D2A2C260
:101FC300A312001FC922BF0012D2A100D2A4008B0A
:101FD3008000C2A4C2A112001FF022D2A000D2A48A
:101FE300008B8000C2A4C2A012001FF022D2A4C2A0
:101FF300A4C2A200D2A37580FF7400BF0014D2A1B3
:1020030000D2A400E58000C2A400D2A4C2A120E7AC
:10201300ED22D2A000D2A40000E58000C2A400D229
:10202300A4C2A020E7EC22BF00177D09D2A5D2A647
:102033000000C2A60000D2A60020A502DDF4C2A5BE
:1020430022BF01177D09D2A5D2A70000C2A70000B5
:10205300D2A70020A502DDF4C2A522BF02177D0985
:10206300D2A5D2960000C2960000D2960020A50207
:10207300DDF4C2A5227D09D2A5D2970000C2970044
:1020830000D2970020A502DDF4C2A522BF00127D75
:1020930008D2A5C2A600A2A533D2A6DDF6C2A6FF2A
:1020A30022BF01127D08D2A5C2A700A2A533D2A7E1
:1020B300DDF6C2A7FF22BF02127D08D2A5C2960099
:1020C300A2A533D296DDF6C296FF227D08D2A5C221
:1020D3009700A2A533D297DDF6C297FF229000178F
:1020E300C4E0FFA3E0FEA3E0CF900017CDF0A3EE82
:1020F300F0A3EFF0900017C7E0CBF0A3E0CAF0A382
:10210300E0C9F07F22900017D0AD82AC83120005A6
:10211300248D828C83F0A309E970010ADFEB900020
:1021230017C7E0FBA3E0FAA3E0F902000C63BF00CA
:102133000E1200208FC2A500D2A60000C2A622BFA5
:10214300010E1200208FC2A500D2A70000C2A72251
:10215300BF020E1200208FC2A500D2960000C296C5
:10216300221200208FC2A500D2970000C29722BF7F
:10217300000AC2A500D2A600D2A50022BF010AC24E
:10218300A500D2A700D2A50022BF020AC2A500D291
:102193009600D2A50022C2A500D29700D2A50022A4
:1021A300BF0009D2A500D2A600C2A522BF0109D251
:1021B300A500D2A700C2A522BF0209D2A500D296CC
:1021C30000C2A522D2A500D29700C2A522EFB40A6D
:1021D30008740D120021DC740A309811A899B81301
:1021E3000CC2983098FDA899C298B811F63099FDA1
:1021F300C299F59922527463546D5F5645525F310B
:102203002E3031001F1D1F1E1F1E1F1F1E1F1E1FCE
:102213001F1C1F1E1F1E1F1F1E1F1E1F20000D0A17
:10222300003031323334353637383941424344454F
:102233004600E4FFFE12000524600C0FEF70010E50
:1022430009E970F10A80EE2275C7AA75C75553D8FC
:10225300FD2275C7AA75C75543D801227E54DEFEF9
:10226300DFFA2206050301020304050607080990A5
:1022730000171BEBF0A3EAF0A3E9F07B007A0079E7
:1022830022C003C002C0019000171BE0FBA3E0FAC9
:10229300A3E02407F9E43AFA120008EE7B007A007F
:1022A3007942C003C002C0019000171BE0FBA3E00A
:1022B300FAA3E0240AF9E43AFA120008EE7B017A61
:1022C3000E795DC003C002C0019000171BE0FBA3A1
:1022D300E0FAA3E02416F9E43AFA120008EE9000BB
:1022E300171BE0FBA3E0FAA3E02415F9E43AFAE4B0
:1022F300120005569000171BE0FBA3E0FAA3E024AD
:1023030013F9E43AFAE475F005120006B0900017E9
:102313001BE0FBA3E0FAA3E02411F9E43AFAE47525
:10232300F020120006B07B817A1B79EB7D0AE4FF73
:102333001200DBD79000171BE0FBA3E0FAA3E02415
:1023430013F9E43AFAE475F00A120006B0900017A4
:102353001BE0FBA3E0FAA3E02415F9E43AFAE41244
:102363000005569000171BE0FBA3E0FAA3E0F9C0B9
:1023730003C002C001A3E0FBA3E0FAA3E02412F927
:10238300E43AFA120008D189828A838B93D001D070
:1023930002D003120009ACEF700C7F03FE1200EDB4
:1023A3000450917FA0229000171BE0FBA3E0FAA347
:1023B300E0240FF9E43AFAE475F020120006B0C203
:1023C30003C201E49000172FF0A3F09000171BE065
:1023D300FBA3E0FAA3E02407F9E43AFA120008D1D8
:1023E300E92403F9E43AFA1200052490001721F0D6
:1023F3009000171BE0FBA3E0FAA3E02407F9E43AFB
:10240300FA120008D1E92404F9E43AFA1200052487
:1024130090001723F07B817A1C79097D037F0112D9
:1024230000DBD790001721E0120009423DAE553F73
:102433004F562CA0A13A1CB12FC8B232C1B43CD024
:10244300B640D8B725D7C22804C32759C42457C5D3
:10245300000041BA9000171BE0FBA3E0FAA3E024BD
:1024630007F9E43AFA120008D1E92404F9E43AFA44
:102473001200052490001723F020E00301253EE419
:10248300FFFEFDFC900017377410F0A37401F09069
:1024930000171BE0FBA3E0FAA3E0240AF9E43AFAED
:1024A300120008D190001739EBF0A3EAF0A3E9F08A
:1024B3001200D30290001722EFF0600301419F90B6
:1024C30000171BE0FBA3E0FAA3E0240AF9E43AFABD
:1024D300120008D1C003C002C0019000171BE0FB2B
:1024E300A3E0FAA3E02407F9E43AFA120008D1E9D9
:1024F3002406F9E43AA801FCAD03D001D002D003CD
:102503007E007F0412000B0F90001730E02404F0CC
:102513009000172FE03400F09000171BE0FBA3E0BE
:10252300FAA3E0240AF9E43AFA120008D1781E7CEF
:102533000C7D017E007F0412000B0F90001723E037
:1025430020E103012FC31200F16F9000171BE0FB82
:10255300A3E0FAA3E0240AF9E43AFA120008D1123C
:102563000068C2EF64016003012ADD9000171BE0DD
:10257300FBA3E0FAA3E0240AF9E43AFA120008D133
:10258300C003C002C0019000171BE0FBA3E0FAA345
:10259300E02407F9E43AFA120008D1E92406F9E441
:1025A3003AFA9000172FE0FEA3E029F9EA3EA801CA
:1025B300FCAD03D001D002D0037E007F0712000BD5
:1025C3000F90001730E02407F09000172FE034003D
:1025D300F0012FC39000171BE0FBA3E0FAA3E02454
:1025E30007F9E43AFA120008D1E92404F9E43AFAC3
:1025F30012000524B499249000171BE0FBA3E0FA12
:10260300A3E02407F9E43AFA120008D1E92405F912
:10261300E43AFA1200052464086003013FF89000CD
:10262300171BE0FBA3E0FAA3E02407F9E43AFA124C
:102633000008D1E92406F9E43AFA781E7C0C7D01FE
:102643007E007F0412000A7CEF6003013FF89000D4
:10265300171BE0FBA3E0FAA3E02407F9E43AFA121C
:102663000008D1E9240AF9E43AFAC003C002C00120
:102673009000171BE0FBA3E0FAA3E0240AF9E43A75
:10268300FA120008D1A801AC02AD03D001D002D0E8
:10269300037E007F0412000B0F9000171BE0FBA3C7
:1026A300E0FAA3E0240AF9E43AFA120008D1C003DD
:1026B300C002C0019000171BE0FBA3E0FAA3E024D3
:1026C3000AF9E43AFA120008D1E92404F9E43AFADF
:1026D300900017CDEBF0A3EAF0A3E9F0D001D0020C
:1026E300D0037D047C001200E757E4FFFEFDFC905D
:1026F3000017CC7408F09000171BE0FBA3E0FAA3CB
:10270300E0240AF9E43AFA120008D1900017CDEB5D
:10271300F0A3EAF0A3E9F012006C5390001722EF44
:10272300F06401600301419F9000171BE0FBA3E0ED
:10273300FAA3E0240AF9E43AFA120008D1781E7CDD
:102743000C7D017E007F0412000B0F7B817A1C79C4
:10275300147D010127F19000171BE0FBA3E0FAA30E
:10276300E02407F9E43AFA120008D1E92403F9E472
:102773003AFAC003C002C0019000171BE0FBA3E0BC
:10278300FAA3E0240AF9E43AFA120008D1A801AC4A
:1027930002AD03D001D002D0037E007F0C12000BE8
:1027A3000F1200B3A440187B817A1C79237D037F29
:1027B300011200DBD79000172274A1F00141BD1272
:1027C30000F16F9000171BE0FBA3E0FAA3E02407DE
:1027D300F9E43AFA120008D1E92406F9E43AFA12C4
:1027E3000079FAEF60117B817A1C79307D037F01D8
:1027F3001200DBD70132B89000172274FFF00141B9
:10280300BD1200B3A44003013DB490001723E0FFC1
:1028130064016008EF64026003013FF89000171B36
:10282300E0FBA3E0FAA3E02407F9E43AFA12000874
:10283300D1E92405F9E43AFA12000524900017239C
:10284300F06008E064016003013FF89000171BE0AB
:10285300FBA3E0FAA3E02407F9E43AFA120008D153
:10286300E92406F9E43AFA12000524FF7E009000F9
:10287300172FEEF0A3EFF0640E6003013A6EE47FCE
:1028830040FEFDFC900017B07418F09000171BE099
:10289300FBA3E0FAA3E0240AF9E43AFA120008D110
:1028A300900017B1EBF0A3EAF0A3E9F012007CDA91
:1028B30090001722EFF06401600301419F9000171D
:1028C300227401F0D2029000171BE0FBA3E0FAA3ED
:1028D300E0240AF9E43AFA120008D1E92416F9E4EB
:1028E3003AFA12000524645560030129C1900017C8
:1028F3001BE0FBA3E0FAA3E0240AF9E43AFA12008E
:1029030008D1E92417F9E43AFA1200052464AA600D
:10291300030129C19000171BE0FBA3E0FAA3E02405
:1029230007F9E43AFA120008D1E9240CF9E43AFA77
:10293300C003C002C0019000171BE0FBA3E0FAA391
:10294300E0240AF9E43AFA120008D1E92406F9E48A
:102953003AA801FCAD03D001D002D0037E007F086A
:1029630012000A7CEF7002C2029000171BE0FBA367
:10297300E0FAA3E02407F9E43AFA120008D1E924C3
:1029830006F9E43AFAC003C002C0019000171BE045
:10299300FBA3E0FAA3E0240AF9E43AFA120008D10F
:1029A300A801AC02AD03D001D002D0037E007F06A4
:1029B30012000A7CC3EF648094804002C2022002AA
:1029C30003012B199000171BE0FBA3E0FAA3E024FB
:1029D30007F9E43AFA120008D1E92407F9E43AFACC
:1029E300C003C002C0019000171BE0FBA3E0FAA3E1
:1029F300E0240AF9E43AFA120008D1A801AC02ADC6
:102A030003D001D002D0037E007F0E12000B0F9083
:102A130000171BE0FBA3E0FAA3E0240AF9E43AFA67
:102A2300120008D1E92406F9E43AFAC003C002C04F
:102A3300019000171BE0FBA3E0FAA3E0240AF9E4EA
:102A43003AFA120008D1E9240EF9E43AA801FCADE0
:102A530003D001D002D0037E007F0812000B0F9039
:102A630000171BE0FBA3E0FAA3E0240AF9E43AFA17
:102A7300120008D1E92416F9E43AFA745512000554
:102A8300569000171BE0FBA3E0FAA3E0240AF9E445
:102A93003AFA120008D1E92417F9E43AFA74AA12AF
:102AA300000556E47F40FEFDFC900017CC7418F03F
:102AB3009000171BE0FBA3E0FAA3E0240AF9E43A31
:102AC300FA120008D1900017CDEBF0A3EAF0A3E9C6
:102AD300F012006C53EF640160079000172201416C
:102AE3009F9000171BE0FBA3E0FAA3E0240AF9E49C
:102AF3003AFA120008D1E92406F9E43AFA900017E9
:102B0300367401F0A3740CF0A37416F01200E804F9
:102B1300E490001722F090001723E06401600301A2
:102B23002C937F10FEFDFC900017B0741AF09000F8
:102B3300171BE0FBA3E0FAA3E0240AF9E43AFA1234
:102B43000008D1900017B1EBF0A3EAF0A3E9F0126B
:102B5300007CDAEF640160079000172201419F9027
:102B630000171BE0FBA3E0FAA3E0240AF9E43AFA16
:102B7300120008D1C003C002C0019000171BE0FB84
:102B8300A3E0FAA3E0240AF9E43AFA120008D1E92F
:102B93002406F9E43AA801FCAD03D001D002D00326
:102BA3007E007F0612000B0F7E007F077D009000E2
:102BB300171BE0FBA3E0FAA3E0240AF9E43AFA12B4
:102BC3000008D1E92410F9E43AFA120009B390009D
:102BD300171BE0FBA3E0FAA3E0240AF9E43AFA1294
:102BE3000008D17D187C001200DFF39000172DEE52
:102BF300F0A3EFF09000171BE0FBA3E0FAA3E0249F
:102C030007F9E43AFA120008D1E92418F9E43AFA88
:102C13001200EF1FE47F10FEFDFC900017CC741A26
:102C2300F09000171BE0FBA3E0FAA3E0240AF9E409
:102C33003AFA120008D1900017CDEBF0A3EAF0A303
:102C4300E9F012006C53EF64016007900017220152
:102C5300419FE47FA0FEFDFC900017CC741AF09016
:102C630000171BE0FBA3E0FAA3E0240AF9E43AFA15
:102C7300120008D1900017CDEBF0A3EAF0A3E9F01E
:102C830012006C53EF640160079000172201419F0B
:102C9300E49000172FF0A3F0D2010141BDC2027BE3
:102CA300017A0E795DC003C002C0019000171BE0DA
:102CB300FBA3E0FAA3E02416F9E43AFA120008EEC3
:102CC3009000171BE0FBA3E0FAA3E02419F9E43A10
:102CD300FA740475F000120006B09000171BE0FBB5
:102CE300A3E0FAA3E02407F9E43AFA120008D1E9D1
:102CF3002404F9E43AFA12000524FF7E0090001739
:102D03002FEEF0A3EFF09000171B7062E0FBA3E03F
:102D1300FAA3E02407F9E43AFA120008D1E92405FA
:102D2300F9E43AFA12000524FF9000172FEEF0A3FE
:102D3300EFF0D2029000171BE0FBA3E0FAA3E0241C
:102D430007F9E43AFA120008D1E92407F9E43AFA58
:102D53001200D9F19000172412000899900017303F
:102D6300E02400FF9000172FE03401FE802DE0FBEC
:102D7300A3E0FAA3E02407F9E43AFA120008D1E940
:102D83002406F9E43AFA1200D9F19000172412004C
:102D930008999000172FE0FEA3E0FF9000171BE0B7
:102DA300FBA3E0FAA3E02419F9E43AFAEE8FF01258
:102DB3000006B0E4FFFE7D08FC90001724E0F8A3B2
:102DC300E0F9A3E0FAA3E0FBC31200080D50409022
:102DD30000171BE0FBA3E0FAA3E02419F9E43AFA95
:102DE30012000636FFE4FCFD90001724E0F8A3E090
:102DF300F9A3E0FAA3E02FFFEA35F0FEED39FDEC8D
:102E030038FCE4FBFA7908F8D31200080D500301EB
:102E13003FF890001724A3A3A3E0540FFFE4FEFDA3
:102E2300FCFBFAF9F8C31200080D6003013A6E9037
:102E330000171BE0FBA3E0FAA3E02419F9E43AFA34
:102E430012000636FBAAF0D39438EA940050689037
:102E5300001724E0FCA3E0FDA3E0FEA3E0FF900045
:102E630017B0EBF09000171BE0FBA3E0FAA3E024FC
:102E730007F9E43AFA120008D1E92406F9E43AFA28
:102E8300900017B1EBF0A3EAF0A3E9F012007CDAAB
:102E9300EF640160079000172201419FC203900075
:102EA300171BE0FBA3E0FAA3E02415F9E43AFAE4E4
:102EB30012000556012FA39000171BE0FBA3E0FAB5
:102EC300A3E02415F9E43AFA740112000556D2037B
:102ED300E49000172DF0A3F09000171BE0FBA3E094
:102EE300FAA3E02419F9E43AFA12000636FFAEF029
:102EF3009000172DE0FCA3E0FDC39FEC9E4003016F
:102F03002FA3C3EF9DFFEE9CFEC3EF9440EE94000E
:102F130040047F4080009000172CEFF0A3E0FEA355
:102F2300E0FFE4FCFD90001724E0F8A3E0F9A3E040
:102F3300FAA3E02FFFEA3EFEED39FDEC38FC9000EA
:102F4300172CE0900017B0F09000171BE0FBA3E0F4
:102F5300FAA3E02416F9E43AFA120008D190001714
:102F63002DE0F8A3E029F9EA38FA900017B1EBF065
:102F7300A3EAF0A3E9F012007CDAEF6401600990A0
:102F830000172274B1F080189000172CE0FF900016
:102F9300172EE02FF09000172DE03400F0012EDB08
:102FA3009000171BE0FBA3E0FAA3E02419F9E43A2D
:102FB300FA12000636FF9000172FE5F0F0A3EFF0AA
:102FC300D2010132B81200B3A44003013DB4E47F3F
:102FD30060FEFDFC900017B07420F09000171BE01A
:102FE300FBA3E0FAA3E0240AF9E43AFA120008D1B9
:102FF300900017B1EBF0A3EAF0A3E9F012007CDA3A
:10300300EF640160079000172201419F900017238E
:10301300E070569000171BE0FBA3E0FAA3E024073F
:10302300F9E43AFA120008D1E92406F9E43AFAC0BD
:1030330003C002C0019000171BE0FBA3E0FAA3E06A
:10304300240AF9E43AFA120008D1A801AC02AD034C
:10305300D001D002D0037E007F0612000A7CC3EFAA
:103063006480948040030133479000171BE0FBA367
:10307300E0FAA3E02407F9E43AFA120008D1E924BC
:103083000CF9E43AFA1200D9F1900017241200085F
:10309300997FA07E867D017C0090001724E0F8A331
:1030A300E0F9A3E0FAA3E0FBD31200080D4003010B
:1030B3003A6E9000171BE0FBA3E0FAA3E02407F9A4
:1030C300E43AFA120008D1E9240FF9E43AFA1200BB
:1030D3000524D394604003013A6E9000171BE0FB74
:1030E300A3E0FAA3E02407F9E43AFA120008D1E9CD
:1030F3002410F9E43AFA1200F1299000172DEEF0AA
:10310300A3EFF0E4FCFD7B407A7E7905F8C312005F
:1031130007F740109000172EE0943C9000172DE025
:1031230094005003013A6E7E007F207DFF900017CC
:103133001BE0FBA3E0FAA3E0240AF9E43AFA120045
:1031430008D1120009B39000171BE0FBA3E0FAA318
:10315300E02407F9E43AFA120008D1E92406F9E475
:103163003AFAC003C002C0019000171BE0FBA3E0C2
:10317300FAA3E0240AF9E43AFA120008D1A801AC50
:1031830002AD03D001D002D0037E007F0C12000BEE
:103193000F9000171BE0FBA3E0FAA3E0240AF9E475
:1031A3003AFA120008D17D1E7C001200DFF3900072
:1031B300172DEEF0A3EFF09000171BE0FBA3E0FA4E
:1031C300A3E0240AF9E43AFA120008D1E9241EF92B
:1031D300E43AFA1200EF1FE47F60FEFDFC90001753
:1031E300CC7420F09000171BE0FBA3E0FAA3E024CB
:1031F3000AF9E43AFA120008D1900017CDEBF0A3D4
:10320300EAF0A3E9F012006C53EF64016007900049
:10321300172201419F9000171BE0FBA3E0FAA3E0F4
:103223002407F9E43AFA120008D1E92406F9E43A4A
:10323300FA78307C0C7D017E007F0612000B0F9024
:1032430000171BE0FBA3E0FAA3E02407F9E43AFA32
:10325300120008D1E9240CF9E43AFA1200D9F190EA
:10326300000C36120008999000171BE0FBA3E0FA4C
:10327300A3E02407F9E43AFA120008D1E9240FF98C
:10328300E43AFA1200052490000C3CF09000171B5E
:10329300E0FBA3E0FAA3E02407F9E43AFA120008FA
:1032A300D1E92410F9E43AFA1200F12990000C3A1A
:1032B300EEF0A3EFF0E490001722F00141BD1200FD
:1032C300B3A440199000171BE0FBA3E0FAA3E0248A
:1032D30015F9E43AFAE4120005560140DE900017AE
:1032E3001BE0FBA3E0FAA3E02415F9E43AFAE412A5
:1032F3000005567F807E0D7D03FC9000172412008D
:10330300089990001723E06499604390000C49E00A
:10331300603C9000171BE0FBA3E0FAA3E02407F94D
:10332300E43AFA120008D1E92407F9E43AFA784AB0
:103333007C0C7D017E007F0612000A7CC3EF648053
:103343009480400A900017227401F00141BD90005F
:1033530017317402F0A3E4F09000171BE0FBA3E025
:10336300FAA3E02407F9E43AFA120008D1E92405A4
:10337300F9E43AFA1200052490001723F06401607F
:10338300030134F89000171BE0FBA3E0FAA3E02449
:1033930007F9E43AFA120008D1E92406F9E43AFA03
:1033A300C003C002C0019000171BE0FBA3E0FAA317
:1033B300E02416F9E43AFA120008D190001731E03C
:1033C300FEA3E029F9EA3EA801FCAD03D001D00237
:1033D300D0037E007F0612000B0F90001732E0240B
:1033E30006F090001731E03400F09000171BE0FB6B
:1033F300A3E0FAA3E02416F9E43AFA120008D19004
:10340300001731E475F00112000620FEE925F0F9FA
:10341300EA3EFA7455120005569000171BE0FBA311
:10342300E0FAA3E02416F9E43AFA120008D1900076
:103433001731E475F00112000620FEE925F0F9EAE0
:103443003EFA74AA120005569000171BE0FBA3E096
:10345300FAA3E02407F9E43AFA120008D1E9240CAC
:10346300F9E43AFAC003C002C0019000171BE0FB65
:10347300A3E0FAA3E02416F9E43AFA120008D19083
:10348300001731E0FEA3E029F9EA3EA801FCAD03F1
:10349300D001D002D0037E007F2012000B0F9000DA
:1034A3001732E02420F090001731E03400F0900050
:1034B300171BE0FBA3E0FAA3E02416F9E43AFA129F
:1034C3000008D190001731E0FEA3E029F9EA3EA8F5
:1034D30001FCAD037B017A0C79707E017F00120041
:1034E3000B0F90001732E02400F090001731E03406
:1034F30001F001381690001723E0640260030136DF
:10350300D49000171BE0FBA3E0FAA3E02407F9E43F
:103513003AFA120008D1E92407F9E43AFAC003C0E1
:1035230002C0019000171BE0FBA3E0FAA3E02416FE
:10353300F9E43AFA120008D190001731E0FEA3E053
:1035430029F9EA3EA801FCAD03D001D002D0037EE5
:10355300007F0612000B0F90001732E02406F09054
:10356300001731E03400F09000171BE0FBA3E0FAF2
:10357300A3E02416F9E43AFA120008D190001731B7
:10358300E475F00112000620FEE925F0F9EA3EFA9F
:103593007455120005569000171BE0FBA3E0FAA335
:1035A300E02416F9E43AFA120008D190001731E446
:1035B30075F00112000620FEE925F0F9EA3EFA74DF
:1035C300AA120005569000171BE0FBA3E0FAA3E044
:1035D3002416F9E43AFA120008D190001731E0FEFC
:1035E300A3E029F9EA3EA801FCAD037B017A0C793B
:1035F300507E007F2012000B0F90001732E0242032
:10360300F090001731E03400F09000171BE0FBA3AB
:10361300E0FAA3E02407F9E43AFA120008D1E92416
:103623000DF9E43AFAC003C002C0019000171BE091
:10363300FBA3E0FAA3E02416F9E43AFA120008D156
:1036430090001731E0FEA3E029F9EA3EA801FCADA2
:1036530003D001D002D0037E007F3312000B0F9002
:10366300001732E02433F090001731E03400F0907B
:1036730000171BE0FBA3E0FAA3E02416F9E43AFAEF
:10368300120008D1C003C002C0019000171BE0FB69
:10369300A3E0FAA3E02416F9E43AFA120008D19061
:1036A300001731E0FEA3E029F9EA3EA801FCAD03CF
:1036B300D001D002D0037E007FCD12000B0F90000B
:1036C3001732E024CDF090001731E03400F00138D8
:1036D3001690001723E0640360030138139000176A
:1036E3001BE0FBA3E0FAA3E02416F9E43AFA120084
:1036F30008D1E92404F9E43AFAC003C002C00190F6
:1037030000171BE0FBA3E0FAA3E02416F9E43AFA5E
:10371300120008D190001731E0FEA3E029F9EA3E38
:10372300A801FCAD03D001D002D0037E007F0612B6
:10373300000B0F90001732E02406F090001731E0E1
:103743003400F09000171BE0FBA3E0FAA3E024167B
:10375300F9E43AFA120008D190001731E475F00148
:1037630012000620FEE925F0F9EA3EFA745512002C
:1037730005569000171BE0FBA3E0FAA3E02416F91B
:10378300E43AFA120008D190001731E475F00112FF
:10379300000620FEE925F0F9EA3EFA74AA120005B4
:1037A300569000171BE0FBA3E0FAA3E02416F9E40C
:1037B3003AFA120008D1E9240AF9E43AFAC003C03C
:1037C30002C0019000171BE0FBA3E0FAA3E024165C
:1037D300F9E43AFA120008D190001731E0FEA3E0B1
:1037E30029F9EA3EA801FCAD03D001D002D0037E43
:1037F300017F2012000B0F90001732E02420F0907D
:10380300001731E03401F090000C497401F080039B
:10381300013FF89000172F7401F0A37428F0900073
:10382300171BE0FBA3E0FAA3E02416F9E43AFA122B
:103833000008D1E429F9EA3402FA7D287C01120058
:10384300DFF39000172DEEF0A3EFF09000171BE0CD
:10385300FBA3E0FAA3E02416F9E43AFA120008D134
:10386300E429F9EA3402FA9000172FE0FCA3E029D7
:10387300F9EA3CFA1200EF1F90001730E02402F03F
:103883009000172FE03400F0E49000172DF0A3F020
:103893009000172FE0FEA3E0FF9000172DE0FCA39C
:1038A300E0FDC39FEC9E4003013956C390001730DF
:1038B300E09DFF9000172FE09CFEC3EF9440EE9431
:1038C3000040047F4080009000172CEFF0A3E0FE3F
:1038D300A3E0FFE4FCFD90001724E0F8A3E0F9A3C4
:1038E300E0FAA3E02FFFEA3EFEED39FDEC38FC9051
:1038F30000172CE0900017CCF09000171BE0FBA3FF
:10390300E0FAA3E02416F9E43AFA120008D1E42914
:10391300F9EA3402FA9000172DE0F8A3E029F9EA56
:1039230038FA900017CDEBF0A3EAF0A3E9F0120008
:103933006C53EF640160099000172274B1F0801397
:103943009000172EE02440F09000172DE03400F093
:10395300013893900017317402F0A3E4F09000173C
:103963001BE0FBA3E0FAA3E02416F9E43AFA120001
:1039730008D1E429F9EA3402FA784A7C0C7D017E05
:10398300007F0612000B0F90001732E02408F0901E
:10399300001731E03400F09000171BE0FBA3E0FABE
:1039A300A3E02416F9E43AFA120008D19000173183
:1039B300E0FEA3E029F9EA3EFA78507C0C7D017E13
:1039C300007F2012000B0F90001732E02420F090AC
:1039D300001731E03400F09000171BE0FBA3E0FA7E
:1039E300A3E02416F9E43AFA120008D19000173143
:1039F300E0FEA3E029F9EA3EFA78707C0C7D017EB3
:103A0300017F0012000B0FE49000172FF0A3F0903A
:103A1300001722F0C2010141BD90001723E0B45505
:103A2300249000171BE0FBA3E0FAA3E02407F9E4CA
:103A33003AFA120008D1E92405F9E43AFA1200052A
:103A43002464AA600280249000171BE0FBA3E0FA21
:103A5300A3E02407F9E43AFA120008D1E92406F9AD
:103A6300E43AFA120005246406600A9000172274EF
:103A7300A4F00141BD7E007F027D009000171BE092
:103A8300FBA3E0FAA3E0240AF9E43AFA120008D10E
:103A9300120009B37FC07E0E7D037C009000171BCC
:103AA300E0FBA3E0FAA3E0240AF9E43AFA120008DF
:103AB300D11200E4719000171BE0FBA3E0FAA3E02E
:103AC300240AF9E43AFA120008D1C003C002C00183
:103AD3009000171BE0FBA3E0FAA3E0240AF9E43A01
:103AE300FA120008D1E92403F9E43AFA900017CD59
:103AF300EBF0A3EAF0A3E9F0D001D002D0037D03F9
:103B03007C001200E757E4FFFEFDFC9000171BE06A
:103B1300FBA3E0FAA3E0240AF9E43AFA120008D17D
:103B2300E92406F9E43AFA1200E4719000171BE065
:103B3300FBA3E0FAA3E0240AF9E43AFA120008D15D
:103B4300E92406F9E43AFAC003C002C00190001761
:103B53001BE0FBA3E0FAA3E0240AF9E43AFA12001B
:103B630008D1E92409F9E43AFA900017CDEBF0A360
:103B7300EAF0A3E9F0D001D002D0037D037C001268
:103B830000E757E4FFFEFDFC9000171BE0FBA3E0FA
:103B9300FAA3E0240AF9E43AFA120008D1E9240C62
:103BA300F9E43AFA1200DC749000171BE0FBA3E07F
:103BB300FAA3E0240AF9E43AFA120008D1E9241737
:103BC300F9E43AFA74FF120005569000171BE0FB64
:103BD300A3E0FAA3E0240AF9E43AFA120008D17D3B
:103BE300187C001200DFF39000172DEEF0A3EFF026
:103BF3009000171BE0FBA3E0FAA3E0240AF9E43AE0
:103C0300FA120008D1E92418F9E43AFA1200EF1F76
:103C1300E47F10FEFDFC900017CC741AF09000179F
:103C23001BE0FBA3E0FAA3E0240AF9E43AFA12004A
:103C330008D1900017CDEBF0A3EAF0A3E9F012004E
:103C43006C53EF640160079000172201419FE47FEA
:103C5300A0FEFDFC900017CC741AF09000171BE037
:103C6300FBA3E0FAA3E0240AF9E43AFA120008D12C
:103C7300900017CDEBF0A3EAF0A3E9F012006C5328
:103C8300EF640160079000172201419FE4FFFEFDEE
:103C9300FC90000C27120008997FC07E0E7D037CE8
:103CA3000090000C2312000899E4FFFEFDFC900035
:103CB3000C411200089990000C2274FFF0E4FFFEFF
:103CC300FDFC90000C2B12000899013DA5900017F4
:103CD3001BE0FBA3E0FAA3E02407F9E43AFA12009D
:103CE30008D1E92405F9E43AFA12000524FF7E001D
:103CF3009000172FEEF0A3EFF0D39410EE94004052
:103D030003013FF89000171BE0FBA3E0FAA3E024B4
:103D130007F9E43AFA120008D190001730E02406BC
:103D2300FF9000172FE03400FEE92FF9EA3EFAE492
:103D3300120005567FD0FEFDFC900017CC7410F0E6
:103D43009000171BE0FBA3E0FAA3E02407F9E43A91
:103D5300FA120008D1E92406F9E43AFA900017CDE3
:103D6300EBF0A3EAF0A3E9F012006C53EF640160F7
:103D7300079000172201419F9000171BE0FBA3E06F
:103D8300FAA3E02407F9E43AFA120008D1E9240679
:103D9300F9E43AFA78B77C0D7D017E007F101200BA
:103DA3000B0FE490001722F00141B11200B3A440BD
:103DB300030140DEE4FFFEFDFC900017241200081F
:103DC3009990001723E070471200BE4DEF4E700A22
:103DD30090001722745DF00141BDE4FFFEFDFC90ED
:103DE300000C27E0F8A3E0F9A3E0FAA3E0FBC31279
:103DF30000080D70097FC07E0E7D03FC807C90005F
:103E03000C27E0FCA3E0FDA3E0FEA3E0FF806B90A2
:103E1300001723E06401706C9000171BE0FBA3E024
:103E2300FAA3E02407F9E43AFA120008D1E92405D9
:103E3300F9E43AFA1200052464046003013FF890A0
:103E430000171BE0FBA3E0FAA3E02407F9E43AFA26
:103E5300120008D1E92406F9E43AFA1200C7929055
:103E63000017281200089990001728E0FCA3E0FD32
:103E7300A3E0FEA3E0FF12009BA990001724120009
:103E830008998003013FF8E4FFFEFDFC900017242E
:103E9300E0F8A3E0F9A3E0FAA3E0FBC31200080DE6
:103EA30060197FC07E0E7D037C0090001724E0F82C
:103EB300A3A3A3E0C31200080D5003013FF8900031
:103EC3001724E0FCA3E0FDA3E0FEA3E0FF900017AE
:103ED300B07440F09000171BE0FBA3E0FAA3E024CA
:103EE30016F9E43AFA120008D1900017B1EBF0A3E7
:103EF300EAF0A3E9F012007CDAEF640160079000B6
:103F0300172201419F9000171BE0FBA3E0FAA3E0F7
:103F13002415F9E43AFA7401120005569000171BB0
:103F2300E0FBA3E0FAA3E02419F9E43AFAE475F01C
:103F330040120006B09000172FE4F0A37440F0E4A1
:103F430090001722F0D201D2030141BD9000172344
:103F5300E064016003013FF89000171BE0FBA3E05E
:103F6300FAA3E02407F9E43AFA120008D1E9240598
:103F7300F9E43AFA120005246404600280779000A1
:103F8300171BE0FBA3E0FAA3E02407F9E43AFA12D3
:103F93000008D1E92406F9E43AFA1200C792900026
:103FA30017281200089990001728E0FCA3E0FDA34E
:103FB300E0FEA3E0FF12009BA99000172412000863
:103FC30099E4FFFEFDFC90001724E0F8A3E0F9A3B9
:103FD300E0FAA3E0FBC31200080D60197FC07E0E58
:103FE3007D037C0090001724E0F8A3A3A3E0C31291
:103FF30000080D500A90001722745CF00141BD9037
:10400300001724E0FCA3E0FDA3E0FEA3E0FF900083
:104013000C27E0F8A3E0F9A3E0FAA3E0FBC3120046
:10402300080D60030140BE90001724E0FCA3E0FDEF
:10403300A3E0FEA3E0FF900017B07440F0900017D8
:104043001BE0FBA3E0FAA3E02416F9E43AFA12001A
:1040530008D1900017B1EBF0A3EAF0A3E9F0120046
:104063007CDAEF640160079000172201419F900002
:10407300171BE0FBA3E0FAA3E02416F9E43AFA12D3
:104083000008D1E92405F9E43AFA1200C792900036
:1040930017241200089990001728E0FCA3E0FDA361
:1040A300E0FEA3E0FF90001724E0F8A3E0F9A3E00B
:1040B300FAA3E0FBC31200080D600A9000172274F4
:1040C3005EF00141BD1200848C90001722EFF0D204
:1040D30001E40141B11200B3A4400A900017227415
:1040E300A5F00141BD1200F16F9000171BE0FBA387
:1040F300E0FAA3E0240AF9E43AFA120008D1120024
:1041030068C29000171BE0FBA3E0FAA3E0240AF9BE
:10411300E43AFA120008D1E92401F9E43AFAC003B7
:10412300C002C0019000171BE0FBA3E0FAA3E02448
:104133000AF9E43AFA120008D1E92404F9E43AFA54
:10414300900017CDEBF0A3EAF0A3E9F0D001D00281
:10415300D0037D037C001200E757E47F80FEFDFC63
:10416300900017CC7406F09000171BE0FBA3E0FA55
:10417300A3E0240AF9E43AFA120008D1E92401F988
:10418300E43AFA900017CDEBF0A3EAF0A3E9F012BA
:10419300006C53EF640160099000172274B1F08042
:1041A30019E490000C3DF090001722F0C20190003A
:1041B300172FF0A3F080037FA32290001721E0FFC5
:1041C3009000171BE0FBA3E0FAA3E02407F9E43A0D
:1041D300FA120008D1E92403F9E43AFAEF120005D0
:1041E3005690001722E0FF9000171BE0FBA3E0FAB4
:1041F300A3E02407F9E43AFA120008D1E92404F908
:10420300E43AFAEF1200055620035B9000171BE017
:10421300FBA3E0FAA3E02407F9E43AFA120008D179
:104223009000172FA3E0FDA20192041200A41C909A
:1042330000172CEFF09000171BE0FBA3E0FAA3E0BC
:10424300240DF9E43AFAE4F5F0120006B0900017F1
:104253001BE0FBA3E0FAA3E0F9C003C002C001EF37
:10426300FD7C00A3803E9000171BE0FBA3E0FAA3B4
:10427300E0F99000172FE0FCA3E0FDA201920412E5
:10428300008B9850409000171BE0FBA3E0FAA3E0DB
:10429300F9C003C002C0019000172FE0FCA3E0FDAA
:1042A3009000171EE0FBA3E0FAA3E02406F9E43A2A
:1042B300FA120008D189828A838B93D001D002D06D
:1042C30003120009AC7B817A1C79977D017F01126F
:1042D30000DBD77F017E001200F0FD012337900041
:1042E30017D0EFF0A3EDF0A3EBF0A3EAF0A3E9F00E
:1042F300E4900017D6F0A3F0900017D9F0900017C0
:10430300E0F0A3F0A3F0A304F0A3F0E4A3F0A3F080
:10431300A3F0A3F0A3F0F514F513F512F5111200B1
:10432300F0C3900017D2E0FBA3E0FAA3E0F9120078
:104333002235900017D8EFF0900017D5E060099070
:104343000017EA74FFF08006E4900017EAF090008B
:1043530017D0E025E0900017D7F0A3E0F9FD900017
:1043630017D1E0FE2DFDE433FCC3ED9410EC648023
:1043730094804003014463EEC394084042E49000F8
:1043830017E0F0900017D1E09408900017E1F0E4F3
:10439300900017DAF0900017DCE9F0E0FFC313FE9A
:1043A300A3F0E4900017DBF0900017E9EEF0EF5470
:1043B30001900017DFF0E4900017DEF00145129042
:1043C3000017D1E0FF900017E0F0900017D8E0FE4F
:1043D300FDEF2DFDE433FCC3ED9408EC6480948081
:1043E3005009900017DAEEF0E48017900017D1E03F
:1043F300FFC374089FFF900017DAF0900017D8E00E
:10440300C39F900017DCF0E4900017E1F0900017D1
:10441300DAE0FFC313A3F0900017E8F0EF54019024
:104423000017DEF0900017DCE0FFC313A3F0900049
:1044330017E9F0EF5401900017DFF0700301451204
:10444300900017DEE07003014512900017E1E004CD
:10445300F0900017DDE004F0E0900017E901450A51
:10446300900017D1E0C394084042E4900017DEF0B7
:10447300900017D1E0FF74109F900017DCF0E490D8
:104483000017DAF0A3F0900017E0F0C3EF9408A34D
:10449300F0900017DCE0FFC313A3F0900017E9F0DE
:1044A300EF5401900017DFF06065805C900017D136
:1044B300E0FFC374089F900017DAF0900017DC74D4
:1044C30008F0900017E0EFF0E4A3F0900017DAE0B3
:1044D300FFC313A3F0900017E8F0EF5401FF90001F
:1044E30017DEF0900017DCE0FEC313A3F090001773
:1044F300E9F074085401900017DFF0EF60117401C4
:10450300F0900017E1E004F0900017E57401F0E487
:10451300900017D9F0900017D8E0FFA3E0C39F40A5
:10452300030149E912002255E4900017E2F09000DC
:1045330017D9E0FD900018117401F0A37418F0A3CB
:10454300740BF0900017D2E0FBA3E0FAA3E0F9129A
:1045530000D23FEF640260030149DF9000180BE0D3
:10456300FEA3E0FF1200DED08F148E138D128C1188
:104573007F407E047D047C00AB14AA13A912A8110A
:10458300C31200080D505BE4F51575BE01E4251454
:10459300FBE43513FAE5123430F9E43511F8E4FCA1
:1045A300FDFEEB2515FFEE3AFEED39FDEC38FCE49C
:1045B3002FFFE43EFEED3401FDA907AA06AB051269
:1045C300000524F516E4F5BE74EB2515F582E434F5
:1045D30017F583759300E516F00515E515B420AAC4
:1045E30080107E007F207DFF7B017A1779EB12001C
:1045F30009B3900017DBE0D39400500301472490E4
:104603000017E8E0FF900017E6E09F40030147240E
:10461300900017D7E044B8FB7D01E4FF12001FB4FC
:10462300900017E3E0600B900017E0E075F008A43A
:104633008013900017E6E0C454F0FF900017E0E009
:1046430075F008A42F4440FB7D01E4FF12001FB462
:10465300E4900017D6F0900017D6E0FFC3941050F3
:104663002874EB2FF582E43417F583759300E0FF8C
:10467300900017EAE0FEEF6EFBE4FDFF12001FB4AB
:10468300900017D6E004F080CD900017D7E00444E3
:10469300B8FB7D01E4FF12001FB4900017E3E06054
:1046A3000B900017E0E075F008A48013900017E664
:1046B300E0C454F0FF900017E0E075F008A42F4425
:1046C30040FB7D01E4FF12001FB4900017D6741065
:1046D300F0900017D6E0FFC39420502874EB2FF519
:1046E30082E43417F583759300E0FF900017EAE046
:1046F300FEEF6EFBE4FDFF12001FB4900017D6E03F
:1047030004F080CDE4900017E3F0900017DBE01491
:10471300F0E07006900017E204F0900017E6E00462
:10472300F0900017DBE060030149DF900017DDE044
:10473300D3940050030149DF900017E2E064017055
:10474300030149DF900017E9E0FF900017E7E09FBE
:1047530040030149DF900017DFE070030148C29076
:104763000017DEE070030148C2900017D7E044B899
:10477300FB7D01E4FF12001FB47B787D01E4FF128F
:10478300001FB4E4900017D6F0900017D6E0FFC3E3
:104793009408502874EB2FF582E43417F58375934E
:1047A30000E0FF900017EAE0FEEF6EFBE4FDFF126E
:1047B300001FB4900017D6E004F080CD900017D707
:1047C300E00444B8FB7D01E4FF12001FB47B787D55
:1047D30001E4FF12001FB4900017D67410F090008C
:1047E30017D6E0FFC39418502874EB2FF582E434F6
:1047F30017F583759300E0FF900017EAE0FEEF6E74
:10480300FBE4FDFF12001FB4900017D6E004F08014
:10481300CD900017D7E044B8FB7D017F0112001F44
:10482300B47B407D017F0112001FB4900017D67442
:1048330008F0900017D6E0FFC39410502974EB2FB3
:10484300F582E43417F583759300E0FF900017EACF
:10485300E0FEEF6EFBE4FD7F0112001FB490001732
:10486300D6E004F080CC900017D7E00444B8FB7D79
:10487300017F0112001FB47B407D017F0112001FE5
:10488300B4900017D67418F0900017D6E0FFC394C5
:104893002040030149C874EB2FF582E43417F583F4
:1048A300759300E0FF900017EAE0FEEF6EFBE4FD76
:1048B3007F0112001FB4900017D6E004F080C99066
:1048C3000017D7E044B8FB7D017F0112001FB490AD
:1048D3000017E4E0600FA3E0600B900017E1E075C0
:1048E300F008A48013900017E7E0C454F0FF900091
:1048F30017E1E075F008A42F4440FB7D017F01120E
:10490300001FB4E4900017D6F01200225590001750
:10491300D6E024EBF582E43417F583759300E0FFCA
:10492300900017EAE0FEEF6EFBE4FD7F0112001F2B
:10493300B4900017D6E004F0E0C3941040CB90008D
:1049430017D7E00444B8FB7D017F0112001FB49028
:104953000017E4E0600FA3E0600B900017E1E0753F
:10496300F008A48013900017E7E0C454F0FF900010
:1049730017E1E075F008A42F4440FB7D017F01128D
:10498300001FB4900017D67410F0900017D6E0FF04
:10499300C39420502974EB2FF582E43417F5837503
:1049A3009300E0FF900017EAE0FEEF6EFBE4FD7F6B
:1049B3000112001FB4900017D6E004F080CC9000E1
:1049C30017E7E004F0E4900017DFF0900017DEF043
:1049D300900017E4F0900017DDE014F0900017D971
:1049E300E004F0014518E4FF0200F0C890001754FA
:1049F300EBF0A3EAF0A3E9F0900017AB741AF07E92
:104A0300007F407D007B017A17795F120009B37E36
:104A1300007F027D007B017A17799F120009B39012
:104A23000017A97401F0E47F10FEFDFC900017ABA2
:104A3300E0900017B0F0A37401F0A37417F0A3740F
:104A43005FF012007CDA7E0090001757EEF0A3EFC0
:104A5300F070037FB1227B017A17795F900017AB67
:104A6300E0C39402FD7C001200DFF390001759EEBF
:104A7300F0A3EFF07B017A17799F1200EF1F789F65
:104A83007C177D017B017A1779777E007F02120004
:104A93000A7CEF6003014B47900017A8F0900017C2
:104AA300A8E0FF2462F582E43417F583759300E0F0
:104AB300F4FE745F2FF582E43417F583759300E0F9
:104AC300B50631900017A8E0FF2468F582E4341797
:104AD300F583759300E0F4FE74652FF582E43417D3
:104AE300F583759300E0B5060B900017A8E004F07A
:104AF300E0B403A978777C0D7D017B017A17795F98
:104B03007E007F4012000B0FE4900017A9F0900085
:104B13000C2FE0702F7FA0FEFDFC900017ABE09000
:104B23000017CCF0A37401F0A37417F0A3745FF023
:104B330012006C537E0090001757EEF0A3EFF07055
:104B4300037FB122900017A9E064016003014C5375
:104B5300FE7F40FD7B017A17795F120009B3E47F82
:104B6300A0FEFDFC900017ABE0900017B0F0A3741B
:104B730001F0A37417F0A3745FF012007CDA7E00D7
:104B830090001757EEF0A3EFF070037FB1227E0081
:104B93007F027D007B017A17799F120009B37B01A5
:104BA3007A17795F7D187C001200DFF390001759A4
:104BB300EEF0A3EFF07B017A17799F1200EF1F78D5
:104BC3009F7C177D017B017A1779777E007F021224
:104BD300000A7CEF60037F5C22E4900017A8F0904A
:104BE3000017A8E0FF2462F582E43417F583759378
:104BF30000E0F4FE745F2FF582E43417F5837593B8
:104C030000E06E60037F5C22900017A8E0FF246839
:104C1300F582E43417F583759300E0F4FE74652F91
:104C2300F582E43417F583759300E06E60037F5CCF
:104C330022900017A8E004F0E0B403A378777C0D7A
:104C43007D017B017A17795F7E007F4012000B0F95
:104C53007B017A17796B1200C79290001754E0FB1F
:104C6300A3E0FAA3E02405F9E43AFA12000861127A
:104C730000084490000C2B120008997B017A1779E5
:104C83005F1200D9F190000C23120008997B017A7E
:104C93001779651200D9F190000C2712000899903A
:104CA300001776E090000C22F0900017AAF0120093
:104CB300EEEF50037F0D22E4FFFEFDFC90000C2776
:104CC300E0F8A3E0F9A3E0FAA3E0FBC31200080DA8
:104CD300703E7FC07E0E7D03FC90000C27120008FF
:104CE300997FC07E0E7D037C007B017A1779651264
:104CF30000E471900017CD7401F0A37417F0A3744E
:104D030068F07B017A1779657D037C001200E75711
:104D130090000C23E0FCA3E0FDA3E0FEA3E024400D
:104D2300FFE43EFEE43DFDE43CFC9000175B120013
:104D33000899E4FFFE7D08FC9000175BE0F8A3E010
:104D4300F9A3E0FAA3E0FBC31200080D40167FC0ED
:104D53007E0E7D037C009000175B12000899E4909F
:104D63000017AAF09000175BE0FCA3E0FDA3E0FEB0
:104D7300A3E0FF7B017A17795F1200E471900017BB
:104D8300CD7401F0A37417F0A37462F07B017A175A
:104D9300795F7D037C001200E7577B017A17796FF7
:104DA3001200C79290000C411200089978A17C1759
:104DB3007D017B017A1779737E007F0312000B0F4D
:104DC30078717C0D7D017B017A1779A17E007F03C9
:104DD30012000A7CD3EF64809480406E78737C1752
:104DE3007D017B017A0D79717E007F0312000B0F29
:104DF30090000C41E0FCA3E0FDA3E0FEA3E0FF1262
:104E030000E3FB90001757EEF0A3EFF04E6008901D
:104E1300001757A3E0FF2290001754E0FBA3E0FA2A
:104E2300A3E02411F9E43AFA1200084490000C417B
:104E33001200089978737C177D017B017A0D7971D3
:104E43007E007F0312000B0F803890000C41E0FCC2
:104E5300A3E0FDA3E0FEA3E0FF90001754E0FBA353
:104E6300E0FAA3E02411F9E43AFA1200087CEF2BEC
:104E7300FFEE3AFEED39FDEC38FC90000C411200D8
:104E83000899783E7C0C7D017B017A1779737E004B
:104E93007F0312000B0F90000C41E0FCA3E0FDA385
:104EA300E0FEA3E0FF7B017A17796F1200DC7490B8
:104EB300001754E0FBA3E0FAA3E02405F9E43AFA6F
:104EC30012000844EF2401FFE43EFEE43DFDE43C10
:104ED300FC7B017A17796B1200DC7490000C2BE0D9
:104EE300FCA3E0FDA3E0FEA3E02401FFE43EFEE417
:104EF3003DFDE43CFC90000C2B1200089990001738
:104F0300AAE090001776F07B017A17795F7D187C11
:104F1300001200DFF390001759EEF0A3EFF07B01CE
:104F23007A1779771200EF1FE47F10FEFDFC9000E3
:104F330017ABE0900017CCF0A37401F0A37417F043
:104F4300A3745FF012006C537E0090001757EEF0CD
:104F5300A3EFF064017002FF22900017AAE0900013
:104F63000C22F07FB1229000176BEBF0A3EAF0A3C1
:104F7300E9F078757C177D017B817A1A79AA7E0026
:104F83007F0B12000B0F78807C177D017B817A1ACF
:104F930079B57E007F0B12000B0F7B017A0E79250A
:104FA3007D051200CA4090001771EFF06003E0FF27
:104FB30022900017737414F07B007A0079227D012C
:104FC300FF1200EB7690001771EFF06003E0FF2211
:104FD30090001773E004FF7B007A0079327D0112A1
:104FE30000EB7690001771EFF06003E0FF227B0087
:104FF3007A0079227D0F1200E4EB92027B007A00A3
:1050030079327D0F1200E4EB92033002030153C4A3
:105013003003030153C4E522C3940B4003752201FB
:10502300E522D394005003015192E522940B4003EF
:1050330001519274752522F582E43417F583759333
:1050430000E0FF9000176BE0FBA3E0FAA3E024016C
:10505300F9E43AFAEF1200055612000524FD25E0A3
:1050630025E0FF74802522F582E43417F5837593D8
:1050730000E02F90001774F07B017A0E792512005F
:10508300CA4090001771EFF06003E0FF2290001711
:1050930074E0FF7B007A0079427D011200EB769089
:1050A300001771EFF06003E0FF2290001772742085
:1050B300F02422F9E4FAFBC003C002C001900017F8
:1050C3006EE0FBA3E0FAA3E02420F9E43AA801FC94
:1050D300AD03D001D002D0037E007F0412000B0F7A
:1050E30090001772E02404F0E02422F9E4FAFBC0F4
:1050F30003C002C0019000176EE0FBA3E0FAA3E037
:105103002424F9E43AA801FCAD03D001D002D00372
:105113007E007F0412000B0F90001772E02404F04E
:10512300E02422F9E4FAFB1200C7929000176EE024
:10513300FBA3E0FAA3E02428F9E43AFA1200086199
:1051430090001772E02404F0E02422F9E4FAFB1241
:1051530000D9F19000176EE0FBA3E0FAA3E0242C42
:10516300F9E43AFA1200086190001772E02403F0A0
:10517300E02422F8E6FFE4FCFDFE9000176EE0FB5E
:10518300A3E0FAA3E02430F9E43AFA1200086178C4
:10519300227C007D007B007A0079327E007F101232
:1051A300000A7CEF6003015377E5220490000E5B55
:1051B300F0D3940A40037401F090000E5BE0F522F3
:1051C3002475F582E43417F583759300E0FF9000AE
:1051D300176BE0FBA3E0FAA3E02402F9E43AFAEF49
:1051E300120005561200052425E025E0FF90000E6D
:1051F3005BE02480F582E43417F583759300E02F98
:10520300FF9000176BE0FBA3E0FAA3E02403F9E4AB
:105213003AFAEF120005569000176EE0FBA3E0FA8E
:10522300A3E0F91200B9D250037F5A229000176B02
:10523300E0FBA3E0FAA3E02402F9E43AFA12000542
:1052430024FD7B017A0E79251200CA409000177164
:10525300EFF06003E0FF22900017727420F0242225
:10526300F9E4A801FCFD7B017A0C791EFE7F041290
:10527300000B0F90001772E02404F0E02422F9E4FD
:10528300A801FCFD7B017A0D7973FE7F0412000BEC
:105293000F90001772E02404F09000176EE0FBA358
:1052A300E0FAA3E0240DF9E43AFA1200084490006E
:1052B3001772E02422F9E4FAFB1200DC7490001761
:1052C30072E02404F09000176EE0FBA3E0FAA3E081
:1052D3002411F9E43AFA1200084490001772E0240A
:1052E30022F9E4FAFB1200E47190001772E0240340
:1052F300F0E02422F8760A9000176BE0FBA3E0FAB3
:10530300A3E02403F9E43AFA12000524FF7B007AB0
:105313000079427D031200E9AD90001771EFF06050
:1053230003E0FF227B017A0E79257D051200CA4036
:1053330090001771EFF0E4A3F0F53190001772E0DD
:10534300FFC3940F500E74222FF8E62531F531E098
:1053530004F080E790001773E0FF7B007A00792266
:105363007D031200E9AD90001771EFF06003E0FFD9
:10537300227F00229000176EE0FBA3E0FAA3E0F97E
:105383001200E28F50387B017A0E79257D051200D9
:10539300CA4090001771EFF06003E0FF22900017FE
:1053A30073E004FF7B007A0079227D031200E9ADEC
:1053B30090001771EFF06003E0FF227F5A227F0015
:1053C3002220020301501920031078227C007D0063
:1053D3007B007A0079327E0080217E007F107DFF82
:1053E3007B007A007922120009B3E4F522752301C8
:1053F30078327C00FDFB7A007922FE7F1012000BCD
:105403000F015019900017367401F0E4A3F0A37450
:1054130006F07F0112009F4690001735EFF01460ED
:105423001624FC602D2403702C90001737E0D394CE
:10543300004022E014801190001738E0FF9000171D
:1054430037E0C39F500FE004F0900017367401F06B
:1054530080037F002290001736E060B67E007F4411
:105463007D007B017A1679E7120009B390001737A4
:10547300E0600301552C900017CD7481F0A37412E2
:10548300F0A374D7F07B017A1679E712000C6390CE
:105493000017CD7481F0A37412F0A374E2F09000AE
:1054A3000C1EE0FF900017D0E4F0A3EFF090000C87
:1054B3001FE0FF900017D2E4F0A3EFF090000C2060
:1054C300E0FF900017D4E4F0A3EFF090000C21E08C
:1054D300FF900017D6E4F0A3EFF07B017A1679F87A
:1054E30012000C63900017CD7481F0A37412F0A323
:1054F30074F3F07B017A17790912000C631200F13F
:105503006F7B017A17792B120068C29000177174B0
:1055130001F0A37417F0A3741AF07B017A17792BA7
:105523007D071200DB3701583F90001737E0640115
:1055330060030155DB900017CD7481F0A37412F062
:10554300A374FCF07B017A1679E712000C639000D8
:1055530017CD7481F0A37413F0A37407F090000CBB
:1055630041E0FCA3E0FDA3E0FEA3E0FFE4120000A2
:10557300CDE4FBFA79C878421200002B900017D0D3
:10558300120008997B017A1679F812000C639000D7
:1055930017CD7481F0A37413F0A37410F07B017A18
:1055A30017790912000C63900017CD7481F0A3746E
:1055B30013F0A37407F090000C45E0FCA3E0FDA3F7
:1055C300E0FEA3E0FFE4120000CDE4FBFA79C87823
:1055D300421200002B0156FF90001737E06402606F
:1055E30003015679900017CD7481F0A37413F0A3CF
:1055F300741DF07B017A1679E712000C6390001793
:10560300CD7481F0A37413F0A37407F090000C36EB
:10561300E0FCA3E0FDA3E0FEA3E0FFE4120000CD65
:10562300E4FBFA79C878421200002B900017D012DD
:105633000008997B017A1679F812000C6390001721
:10564300CD7481F0A37413F0A37426F07B017A1751
:10565300790912000C63900017CD7481F0A37413C1
:10566300F0A37433F090000C3CE0FF900017D0E4FB
:10567300F0A3EF01578190001737E0640360030143
:105683005709900017CD7481F0A37413F0A37439F4
:10569300F07B017A1679E712000C63900017CD7442
:1056A30081F0A37413F0A37442F090000C3AE0FF6E
:1056B300A3E0900017D0CFF0A3EFF07B017A167927
:1056C300F812000C63900017CD7481F0A37413F0EB
:1056D300A37448F07B017A17790912000C639000D8
:1056E30017CD7481F0A37412F0A374CBF090000C67
:1056F3002BE0FCA3E0FDA3E0FEA3E0FF900017D0A6
:1057030012000899807990001737E064047079904B
:105713000017CD7481F0A37413F0A37453F07B01CD
:105723007A1679E712000C631200BE4D900017CD74
:105733007481F0A37413F0A3745EF0A3EEF0A3EFEF
:10574300F07B017A1679F812000C63900017CD7480
:1057530081F0A37413F0A37464F07B017A177909C1
:1057630012000C63900017CD7481F0A37413F0A39F
:10577300746DF0A37481F0A37413F0A37470F07BC1
:10578300017A17791A01583B90001737E0640570C6
:105793003F900017CD7481F0A37413F0A3747CF0D1
:1057A3007B017A1679E712000C63900017CD7481A0
:1057B300F0A37413F0A37486F090000C3DE0FF9007
:1057C3000017D0E4F0A3EFF07B017A1679F8806834
:1057D30090001737E064067063900017CD7481F072
:1057E300A37413F0A3748CF07B017A1679E712008B
:1057F3000C63900017CD7481F0A37413F0A3746D40
:10580300F0A37481F0A37413F0A37492F07B017A74
:105813001679F812000C63900017CD7481F0A3740D
:1058230013F0A3746DF0A37481F0A37413F0A37445
:105833009EF07B017A17790912000C63E49000173C
:1058430036F01200F045E490001735F0900017355C
:10585300E0FFC394044003015415EF75F011A42431
:10586300E7F9741635F0FA7B01E4900017C9F0FDEF
:105873001200B63C90001735E004F080CF9000177B
:1058830054EBF0A3EAF0A3E9F0ED64016003015CDB
:105893003290001759F090001754E0FBA3E0FAA3ED
:1058A300E0F912000524FF90001759E0FE9000175D
:1058B30058E0FD2EF8A607A3E004F0E0FFED2FF873
:1058C3007C007D007B017A0C791E7E007F04120030
:1058D3000B0F90001759E02404F090001754E0FBDD
:1058E300A3E0FAA3E02405F9E43AFA12000844908D
:1058F300001759E0FB90001758E02BF97A007B0062
:105903001200DC7490001759E02404F0900017543F
:10591300E0FBA3E0FAA3E02409F9E43AFA12000851
:105923004490001759E0FB90001758E02BF97A00D8
:105933007B001200E47190001759E02403F09000FB
:105943001754E0FBA3E0FAA3E0240DF9E43AFA12BA
:1059530000084490001759E0FB90001758E02BF91A
:105963007A007B001200DC7490001759E02404F0E5
:1059730090001754E0FBA3E0FAA3E02411F9E43A02
:10598300FA1200084490001759E0FB90001758E002
:105993002BF97A007B001200E47190001759E02480
:1059A30003F090001754E0FBA3E0FAA3E02415F9F9
:1059B300E43AFA90001759E0FF90001758E02FF8E7
:1059C3007C007D007E007F0212000B0F90001759B0
:1059D300E02402F090001754E0FBA3E0FAA3E024D4
:1059E30017F9E43AFA90001759E0FF90001758E0CE
:1059F3002FF87C007D007E007F0612000B0F9000C5
:105A03001759E02406F090001754E0FBA3E0FAA333
:105A1300E0241DF9E43AFA12000524FF9000175818
:105A2300E0FEF8A3E0FD04F0E82DF8A607900017C8
:105A330054E0FBA3E0FAA3E0241EF9E43AFA1200CF
:105A43000524FFA80690001759E0FE04F0E82EF89D
:105A5300A60790001754E0FBA3E0FAA3E0241FF984
:105A6300E43AFA12000524FF90001758E0FEF8A369
:105A7300E0FD04F0E82DF8A60790001754E0FBA31F
:105A8300E0FAA3E02420F9E43AFA90001759E0FF82
:105A9300EE2FF87C007D007E007F0412000B0F9038
:105AA300001759E02404F090001754E0FBA3E0FA38
:105AB300A3E02424F9E43AFA90001759E0FF900098
:105AC3001758E02FF87C007D007E007F0412000B46
:105AD3000F90001759E02404F090001754E0FBA343
